:10830000C00F7483C0E0C082C083750F0A75A100DE
:108310000000000022C00F7483C0E0C082C08375DB
:108320000F1F75A1010000000022C00F7483C0E080
:10833000C082C083750F3475A1020000000022C006
:108340000F7483C0E0C082C083750F4975A103001C
:048350000000002207
:0D926700EF90927093908300730A1F3449BA
:100F9300EB60010A4A601D8C838D8263A2018E83FC
:100FA3008F8263A20100E0A363A201F0A363A20105
:100FB300DBF4DAF222C0A275A2010000C082C08372
:100FC30063A2010000C082C083EB60010A4A601D76
:100FD3008C838D8263A2018E838F8263A20100E0E2
:100FE300A363A201F0A363A201DBF4DAF2D083D0FE
:0D0FF3008263A2010000D083D082D0A22230
:0300000002432593
:104325007598007599209022E074D9F090270E7445
:1043350000F09027027470F09027037400F0E49069
:104345000000F0900000E004F0E0B4C8F69027000B
:104355007480F09027087400F0902709F0902720CA
:10436500F0902721F0902722F0902723F090272422
:10437500F0902725F0902726F0902727F090272802
:10438500F0902729F090272AF090272BF0759900B7
:104395009022E17400F09022E27490F09022E7748C
:1043A500FFF09022E8F09022E9F09022EAF09022C6
:1043B500EBF09022ECF09022ED7400F09022EEF0FC
:1043C5009022EFF09022F0F09022F1F09022F2F09E
:1043D500750D18750E00758121C2C112830A02443C
:0143E50021B6
:0C92A600016800AA005A002D0015000B02
:0A683D0042056500004205630000FB
:108BCC00E0FEA3E0FFC3229004F91209459004F9DA
:108BDC0002092DEFF0A3EDF0A3EBF0D394082212D1
:088BEC00098E9004F20209AEAB
:0E922F00902784E054BFF00000E04440F0229D
:10750A00900290128BDF400A7F127E011290BB7F9D
:10751A001222900291E0FFD394035004EFB4010ABF
:10752A007F117E011290BB7F1122900290E090227F
:10753A00E66032E04404F0902781E0440CF09022A7
:10754A00D4E04480F0E054F0FF900292E04F9022A1
:10755A00D4F0900291E0C43354E0FF9022D4E05476
:10756A009F4FF08012E054FBF09022D4E0547FF059
:0A757A00902781E054F3F07F002217
:1086880090064AEDF0900649EFF0D394035006A304
:10869800E09403400A7F117E011290BB7F11229063
:1086A8002786E054FCFF900649E04F902786F0901B
:1086B800064AE025E025E0FF9022D5E054F34FF08C
:0386C8007F00220E
:10870D00900290EFF0A3EDF06006E0D3940E400AD6
:10871D007F117E011290BB7F1122900291E004C463
:10872D0054F0FF9022D5E0540F4FF0900290E0905E
:10873D0022D56006E04402F08004E054FDF07F0095
:01874D002209
:108DF900A2AFE433FFC2AF9022D7E0FDE0FEEF243B
:108E0900FF92AFAF06EFFEEDFF7C007D101206A0CA
:018E19002236
:1082F0009022D6E05478131313541FFF60011F22FD
:107F1F0074FFF5F012076590028C7413F0E490056E
:107F2F005DF0A3F09022D6E054706010128DF9EE40
:107F3F008FF0120765E490028CF0801990055DE4D4
:107F4F0075F0011206D6C390055EE094D090055DE2
:107F5F00E0940740CF90028CE0FF600D7401FEEFBC
:0F7F6F004E60051290BB80010090028CE0FF2253
:106AF20090028C128BDF400A7F127E011290BB7FC4
:106B0200122290028DE0D39403400A7F117E01127B
:106B120090BB7F112290028CE0605B7D02E4FF1249
:106B2200870D90028DE0FDA3E0FB7F0112750A90B4
:106B3200028FEFF0704C12922F900653E025E02462
:106B4200A6F582E43492F583E493FF7401939005F1
:106B52005FCFF0A3EFF0E4A3F0A3F090055F128BF8
:106B6200CC900562E09F900561E09E5015E475F0BF
:106B7200011206D680E5E4FBFDFF12750A90028F32
:086B8200EFF090028FE0FF220A
:10874E009002891209AE900288EFF0D39408400A85
:10875E007F127E011290BB7F1222900288E0FBE412
:10876E00FD7F01126AF2EF60012290028912098EDA
:10877E00127F1FEF600122E4FBFDFF126AF27F0001
:01878E0022C8
:104C99009004EBEEF0A3EFF0A3ECF0A3EDF0A3EAA0
:104CA900F0A3EBF0A3E0FFC3940A4006EFD3940FFF
:104CB900400A7F117E011290BB7F11229004EB12F2
:104CC9008BCC9004EEE09FEE6480F89004EDE064F4
:104CD9008098400A7F147E011290BB7F14229004B1
:104CE900EDE0FAA3E0FBC39004ECE09BFE9004EB3B
:104CF900E09A9004F5F0A3CEF09004EF128BCC9BD0
:104D0900EA6480F8EE6480985009E49004F7F0A30F
:104D1900F080389004EBE0FCA3E0FDD3EF9DEC6458
:104D290080F8EE648098400B9004F5E0FFA3E0A3BF
:104D3900CF80149004ED128BCC9004F0E09FFF908B
:104D490004EFE09E9004F7F0A3EFF09004F1E0FF88
:104D590074017E00A807088005C333CE33CED8F985
:104D690024FFFFEE34FFFEE4FCFD9004F91209452F
:104D79009004F7E0FEA3E0FFE4FCFDA31209391259
:104D890007BE128BD3C006C0079004F5E0FEA3E06E
:104D9900FBAA06E4F9F8D007D006120849128BD30A
:104DA900EE547FFE9004F212098EEE8FF012076521
:034DB9007F002256
:0C928E007B017A0579657F0712874E226C
:0C929A007B017A0579637F0812874E2261
:107FDD009005C51209AE9005C4EFF0C3940A400692
:107FED00E0D3940F400A7F117E011290BB7F1122C6
:107FFD007B017A0579C8127F1FEF6001229005651C
:10800D00E0FEA3E0FF900563E0FCA3E0FD9005C456
:10801D00E09004F1F09005C5128BEB9005C8E0FAE5
:0D802D00A3E0FB124C99EF6001227F0022BE
:106C2200900548EDF0A31209AE900547EFF0D3941A
:106C320008400A7F127E011290BB7F122290054803
:106C4200E0FFC3940A4006EFD3940F400A7F117EFF
:106C5200011290BB7F11227B017A05794E7F0712C8
:106C6200874EEF6001227B017A05794C7F081287FB
:106C72004EEF600122900547E0FF7B017A057950D3
:106C820012874EEF60012290054EE0FEA3E0FF90D6
:106C9200054CE0FCA3E0FD900548E09004F1F09083
:106CA2000549128BEB900550E0FAA3E0FB124C99D8
:076CB200EF6001227F0022C8
:0468470041065301B2
:106E730090063DEFF0E4A3F0EF14601814601C14C7
:106E8300602114602614602B2405702F90063F7434
:106E930008F0802DE490063FF0802690063F742092
:106EA300F0801E90063F7440F0801690063F746099
:106EB300F0800E90063F740CF0800690063E74122C
:106EC300F090063EE0FF60137402FEEF4E60051281
:106ED30090BB80010090063EE0FF2290063DE090CB
:106EE3000653F0538E1090063FE0428EE58E9027B6
:106EF3008530E306E04404F08004E054FBF07F00B7
:016F0300226B
:030026008F98228E
:03002E008F992285
:030036008F9A227C
:08684B0041064B0041064C0020
:0B92BE00EFF0A3EDF0A3EBF0E5B4220D
:107D3F009002881292BE20E20A7F107E031290BB3F
:107D4F007F1022A2AFE433FFC2AF90028AE0FE9011
:107D5F0022EF30E106E04404F08004E054FBF0EE43
:107D6F0030E003D38001C39288900289E024FF9210
:107D7F00B8900288E024FF92A89022F2E030A80584
:107D8F004404F0800354FBF0EF24FF92AF7F0022F6
:107D9F009002881292BE20E30A7F117E031290BBDD
:107DAF007F1122A2AFE433FFC2AF90028AE0FE90B0
:107DBF0022EF30E106E04408F08004E054F7F0EEE3
:107DCF0030E003D38001C3928A900289E024FF92AE
:107DDF00BA900288E024FF92AA9022F2E030AA051E
:107DEF004408F0800354F7F0EF24FF92AF7F002296
:046853004106548026
:10803A00FDF08DF09004E9E40206D6900502E0FE18
:10804A00A3E0FFA3E0FCA3E0FDC39FEC9E22900502
:10805A0004E475F0010206D69004DDE0FEA3E0FF19
:10806A00F5828E8322902703F0EE902702F0222DCC
:10807A00F582EE3CF583E49322E4900507F0900440
:0D808A00FDE022900508120945900508222E
:0693E800E4900654F0229F
:0793DA009006547480F0229C
:1088C50090270EE4F090270DE020E0F9000000006D
:1088D500EF12806F902708E4F0A304F0900654E0AF
:1088E5004402902700F00000000090270DE020E0F2
:0888F500F99027007480F022C5
:103B17009004D91209AE9004D7EEF0A3EFF0EE545B
:103B2700014F600A7F147E041290BB7F1422900419
:103B3700D7E0FEA3E07802CEC313CE13D8F9FF90E7
:103B470004E3EEF0A3EFF043992090270EE4F09002
:103B57000653E070047F808002E4FF127B3F9006EB
:103B670054E0701D902700E064807015902708E0EE
:103B7700700FA3E0700B902702E0B47004A3E0601D
:103B8700099004E57413F0023CD2128C449004E3CC
:103B9700E0FEA3E0FF1288C59004DCE030E00302FA
:103BA7003CB6E49004E6F090270DE020E0F990277A
:103BB700097401F0902708E4F09004DDF0A3F09079
:103BC70004E3E0FFA3E09004E1CFF0A3EFF090045B
:103BD700DFE4F0A37480F0E49004E9F0A3F0128C22
:103BE700449004E1E0FEA3E012806F9004D912092B
:103BF7008E1280621205B690270712803A8F828E46
:103C070083A31205B6FF902706F08FF012803E12AD
:103C17008062A3A31205B690270512803A8F828E81
:103C270083A3A3A31205B6FF902704F09004E9E449
:103C37008FF01206D6900654E04401902700F0005A
:103C47000000009004DDE475F0041206D69004E14C
:103C570012805B9004DF74FFF5F01206D69004DF44
:103C6700E07002A3E06003023BE590270DE020E04F
:103C7700F99004D7E0FEA3E0FFE49004E7F0A3F097
:103C8700FDFCEF128079FB9004E7E48BF01206D677
:103C97000DBD00010CE4B505E9ECB402E59004E7BD
:103CA700E0FEA3E0FFA3E0B5060CA3E0B50707E439
:103CB7009004E5F080159004E57415F09004E6E0B3
:103CC70004F0E0C394645003023BAE902700748075
:103CD700F09027027470F0A3E4F0902708F0A3F0A7
:103CE7007F01127B3F5399DF9004E5E0FF600D747D
:103CF70004FEEF4E60051290BB8001009004E5E0E2
:023D0700FF2299
:106461009004FDEEF0A3EFF0A31209AE128083FEBB
:10647100A3E0FFE4FCFD12808D120939900503E0D1
:1064810024FFFF900502E034FFFEE4FCFD1207B19A
:1064910012808D12092DED4C600A7F127E0412903C
:1064A100BB7F1222128083FFA3E090050CCFF0A3E3
:1064B100EFF0E4900506F0E4900504F0A3F01280FB
:1064C10045502390050CE0FEA3E0128079FF900473
:1064D100FF12098E900504A3E0F5828C83EF12066A
:1064E1001712805880D8E4900504F0A3F01280457B
:1064F100502E9004FF12098E8D828C831205B6FFF7
:1065010090050CE0FAA3E02DF582EA3CF583E493D3
:106511006F60089005077416F0800512805880CDD1
:10652100900507E0600B900506E004F0E0646470FC
:0765310086900507E0FF2240
:10809700EFF0A3EDF0A3EBF0E59822E0FF7405FE07
:1080A700EF4E227401F0A374FEF0227402F0A37461
:1080B700FDF0227404F0A374FBF0227408F0A3749B
:1080C700F7F0227410F0A374EFF0227420F0A37479
:1080D700DFF0227440F0A374BFF0227480F0A31481
:0980E700F02274FFF0E4A3F02282
:0B92C900EF6004439810225398EF223E
:088AC200E0FFA3E0FDA3E0FBCF
:108ACA00EFD394074008EF640A60037F1222ED6037
:108ADA0009EBD39401400C7F1122EBD3940240039B
:068AEA007F11227F002233
:10492A0090028812809720E40A7F107E051290BBBD
:10493A007F1022900288128AC290028DEFF06011D5
:10494A001280A260051290BB80010090028DE0FFE8
:10495A0022900288E0120A4049810049890149915E
:10496A000249990349A10449A90549B10649B90768
:10497A0049C10A000049C790028B1280AA803E9062
:10498A00028B1280B2803690028B1280BA802E90EF
:10499A00028B1280C2802690028B1280CA801E90DF
:1049AA00028B1280D2801690028B1280DA800E90CF
:1049BA00028B1280E2800690028B1280E9900289B3
:1049CA00E0602190028CE0FF52B19022EAE05FF0B1
:1049DA0090028AE06006A3E042C1806690028CE001
:1049EA0052C1805E90028AE0FF701D9022EAC08365
:1049FA00C082E0FE90028BE0FDEE4DD082D083F0C3
:104A0A009022E7E04DF08030EF9022EAB40117C01F
:104A1A0083C082E0FF90028BE0FEEF4ED082D0830B
:104A2A00F09022E78000C083C082E0FF90028CE011
:104A3A00FEEF5ED082D083F090028BE0FF42B1EFAE
:054A4A0042B97F0022CB
:104A4F009005CA12809720E40A7F107E051290BB52
:104A5F007F10229005CA128AC29005CFEFF0601125
:104A6F001280A260051290BB8001009005CFE0FF7D
:104A7F00229005CAE0120A404AA6004AAE014AB681
:104A8F00024ABE034AC6044ACE054AD6064ADE0784
:104A9F004AE60A00004AEC9005CD1280AA803E90AB
:104AAF0005CD1280B280369005CD1280BA802E903F
:104ABF0005CD1280C280269005CD1280CA801E902F
:104ACF0005CD1280D280169005CD1280DA800E901F
:104ADF0005CD1280E280069005CD1280E99005CBBE
:104AEF00E060219005CEE0FF52B29022EBE05FF044
:104AFF009005CCE06006A3E042C280669005CEE050
:104B0F0052C2805E9005CCE0FF701D9022EBC083F7
:104B1F00C082E0FE9005CDE0FDEE4DD082D083F057
:104B2F009022E8E04DF08030EF9022EBB40117C0F7
:104B3F0083C082E0FF9005CDE0FEEF4ED082D083A0
:104B4F00F09022E88000C083C082E0FF9005CEE0A5
:104B5F00FEEF5ED082D083F09005CDE0FF42B2EF42
:054B6F0042BA7F0022A4
:104B740090028812809720E40A7F107E051290BB71
:104B84007F1022900288128AC290028DEFF0601189
:104B94001280A260051290BB80010090028DE0FF9C
:104BA40022900288E0120A404BCB004BD3014BDB2E
:104BB400024BE3034BEB044BF3054BFB064C03079F
:104BC4004C0B0A00004C1190028B1280AA803E907C
:104BD400028B1280B2803690028B1280BA802E90A3
:104BE400028B1280C2802690028B1280CA801E9093
:104BF400028B1280D2801690028B1280DA800E9083
:104C0400028B1280E2800690028B1280E990028966
:104C1400E0602190028CE0FF52B49022ECE05FF05F
:104C240090028AE06006A3E042C4806690028CE0B1
:104C340052C4805E90028AE0FF701D9022ECC08313
:104C4400C082E0FE90028BE0FDEE4DD082D083F076
:104C54009022E9E04DF08030EF9022ECB40117C0CF
:104C640083C082E0FF90028BE0FEEF4ED082D083BF
:104C7400F09022E98000C083C082E0FF90028CE0C3
:104C8400FEEF5ED082D083F090028BE0FF42B4EF5F
:054C940042BC7F00227C
:0C6857004106400041064100410642009D
:10878F00EFF0A3EDF0A3EBF0E592227401F0A374E8
:10879F00FEF0227402F0A374FDF0227410F0A374A3
:1087AF00EFF0227420F0A374DFF0227440F0A37472
:1087BF00BFF0227480F0A314F02274FFF0E4A3F052
:0187CF002287
:048FA300E0FD7F016D
:108FA700ED600543F904800353F9FBEF600443E9DF
:068FB700042253E9FB2235
:0B92D400EF6004439202225392FD223F
:10543F009005A812878F20E10A7F107E0F1290BB74
:10544F007F10229005ABE0D39403400A7F207E0F9C
:10545F001290BB7F2022E49005AEF09005A8E012D9
:10546F000A4054900054980154A00254AC0354B80D
:10547F000454C00554C80654D00754D80A00005429
:10548F00E09005AC12879A804E9005AC1287A280EF
:10549F00469005AC7404F0A374FBF0803A9005AC11
:1054AF007408F0A374F7F0802E9005AC1287AA80D1
:1054BF00269005AC1287B2801E9005AC1287BA8079
:1054CF00169005AC1287C2800E9005AC1287C9806A
:1054DF00069005AE7430F09005AEE0FF6013740FC8
:1054EF00FEEF4E60051290BB8001009005AEE0FF0D
:1054FF00229005A9E060349005ABE0FF30E106A3F0
:10550F00E042EA80069005ADE052EAEF30E0089005
:10551F0005ACE042EB80069005ADE052EB9005AC98
:10552F00E042EC9005AA128FA380069005ADE052E1
:04553F00EC7F0022DB
:0B92DF00EF6004439204225392FB2234
:105543009005AF12878F20E20A7F117E0F1290BB66
:105553007F11229005B2E0D39403400A7F217E0F8E
:105563001290BB7F2122E49005B5F09005AFE012C5
:105573000A40559400559C0155A40255B00355BCEF
:105583000455C40555CC0655D40755DC0A0000550F
:10559300E49005B312879A804E9005B31287A280D8
:1055A300469005B37404F0A374FBF0803A9005B3FE
:1055B3007408F0A374F7F0802E9005B31287AA80C5
:1055C300269005B31287B2801E9005B31287BA8066
:1055D300169005B31287C2800E9005B31287C98057
:1055E300069005B57431F09005B5E0FF6013740FB4
:1055F300FEEF4E60051290BB8001009005B5E0FF01
:10560300229005B0E060349005B2E0FF30E106A3DC
:10561300E042F280069005B4E052F2EF30E00890E9
:1056230005B3E042F380069005B4E052F39005B36E
:10563300E042F49005B1128FA380069005B4E052C6
:04564300F47F0022CE
:0B92EA00EF6004439208225392F72229
:1060D3009005B612878F20E30A7F137E0F1290BBC1
:1060E3007F13229005B9E0D39403400A7F237E0FE8
:1060F3001290BB7F2322E49005BCF09005B6E0121A
:106103000A40611E00612601612E04613605613E6D
:1061130006614607614E0A000061569005BA128770
:106123009A80369005BA1287A2802E9005BA1287FC
:10613300AA80269005BA1287B2801E9005BA1287EC
:10614300BA80169005BA1287C2800E9005BA1287DC
:10615300C980069005BC7433F09005BCE0FF601362
:10616300740FFEEF4E60051290BB8001009005BCDA
:10617300E0FF229005B7E060349005B9E0FF30E11D
:1061830006A3E042FA80069005BBE052FAEF30E046
:10619300089005BAE042FB80069005BBE052FB90F5
:1061A30005BAE042FC9005B8128FA380069005BBA8
:0661B300E052FC7F002217
:0D927400F0A3F0EF24FF92AF902190E022D4
:0693EE00902191EFF02236
:10918100EF9021916005E04402F022E054FDF022CD
:10919100EF9021916005E04404F022E054FBF022BD
:1091A100EF9021916005E04408F022E054F7F022AD
:1091B100EF9021916005E04410F022E054EFF0229D
:09938F00902158EFF0EEA3F0224A
:0993980090215AEFF0EEA3F0223F
:0F921100AC02AD017B087A007F507E21020F93E3
:108FBD00A2AFE433FFC2AF902004E4F09020011281
:0A8FCD0092744440F0E054BFF0221B
:108FD700A2AFE433FFC2AF902084E4F09020811267
:0A8FE70092744420F0E054DFF02201
:0B92F5007F161293EE128FBD028FD780
:1085B40015660AB30AB2055906B4035A035C01AE40
:1085C40001C200E10104008201D200E90112008924
:1085D40000B20059008A0045008A0045008A00451F
:1085E400023001180118008C0096004B004600234D
:0885F400003C001E003C001ECB
:1068630041052C0041052B0341052A004105290060
:0468730041052800B3
:1083A30075F002120982E493FF740193900520CFC4
:1083B300F0A3EFF0E4A3F0A3F0229022007438F0CE
:1083C30090052BE025E025E022900520E0FEA3E0C8
:1083D300FFC3900523E09F900522E09E2290052293
:0E83E300E475F0010206D69022007434F022F8
:0E923D00EF30E0047F018002E4FF1261B922ED
:0793E100902200741CF02231
:10660800900294EEF0A3EFF0A3EDF0600B902783D7
:10661800E4F09022D07488F0A2AFE433900297F0AF
:10662800C2AF90228DE0900298F07F111293AA9049
:106638002200742CF09002997413F0E490051EF077
:10664800A3F0900294E0FEA3E0FFC390051FE09F33
:1066580090051EE09E502890228DE020E619A3E0C8
:106668005407FF7006900299F08014EFB404089064
:1066780002997412F0800890051E1283E380C3907B
:10668800228F74FFF0900298E090228DF09002978C
:10669800E024FF92AF900296E0600C900299E070BF
:1066A800069022D07484F0900299E0FF600D740780
:1066B800FEEF4E60051290BB800100900299E0FF4A
:0166C80022AF
:109170007F0A1293AAE4FD7F01128A047F01029103
:01918000C12D
:1071A400900288EFF0BF04028009900288E0D39433
:1071B40005400A7F187E071290BB7F18221283EACB
:1071C400E4FF12856C900288E0FF12709D900288A3
:1071D400E014601614601B14602024FE602424054F
:1071E40070269022117409F0801E9022117405F00B
:1071F40080169022117403F0800E9022117402F014
:1072040080069022117410F0902200743CF07F01EB
:0E72140012856C900288E090052BF07F00221E
:10843E00900655EFF012709D900655E0FF146016F1
:10844E0014601B14602024FE6024240570269022E4
:10845E00117409F0801E9022117405F0801690227E
:10846E00117403F0800E9022117402F08006902297
:0C847E00117410F090052BEFF07F00222D
:10888C00900656EFF07F031271A4900656E09022EA
:10889C00246013E04440F0902785E04408F09022D7
:1088AC0037E04480F022E0543FF0902785E054F705
:0988BC00F0902237E0547FF02215
:10637F00900288EFF0C3940B4006E0D3941A400AC2
:10638F007F177E071290BB7F17221283EAE4FF125A
:10639F00856C900288E0120A4063DC0B63E00C63AB
:1063AF00E40D63E80E63EC0F63F01063F41163F810
:1063BF001263FC13640014640415640816640C174C
:1063CF0064101864141964181A000064247F65801F
:1063DF003A7F6A80367F6F80327F74802E7F79801C
:1063EF002A7F7E80267F8380227F88801E7F8D80FC
:1063FF001A7F9280167F9780127F9C800E7FA180DC
:10640F000A7FA680067FAB80027FB07E0912678469
:10641F00900289EFF0900289E0FF60117407FEEFA0
:10642F004E60061290BB0263A1000263A19022008E
:10643F00743CF07F0112856C900289E0FF600D744F
:10644F0007FEEF4E60051290BB800100900289E0BD
:02645F00FF221A
:0F922000E4FE902284E0FF70050EEEB4FAF42213
:0893AA00EF541F90228DF02208
:10903F00A2AFE433FEC2AFED24FF92F8EF24FF920C
:09904F00E8AF06EF24FF92AF2206
:10856C00EF603D90228EE054F7F0E04408F07591F6
:10857C0010A2AFE433FFC2AF902084E4F0902081CE
:10858C00F0A3F0EF24FF92AFE490052AF090219035
:10859C00E04420F0E054DFF0902201E054FEF022A1
:0885AC00902201E04401F022DD
:0693F400EF24FF92AF22FE
:03003E00025EFF60
:10653800902002E4F0902303E0902192F0902280D2
:10654800E05470FF6007641060037F1522900529EE
:106558007401F090052CE0547DF09002BF74E1F0D6
:1065680012003E1283BD24B4F582E43485F583C05D
:1065780083C082900653E0D082D0831283A3128313
:10658800CC501390052CE030E107E49002BFF08076
:10659800051283E080E89002BFE0B4E10F1283EABD
:1065A800902002E4F0900529F07FE122E49005298B
:1065B800F09002BFF0902301E030E5399002BF74FB
:1065C800E9F01283C324CCF582E43485F583C083D3
:1065D800C082900653E0D082D0831283A31283CC6A
:1065E800501390052CE030E707E49002BFF08005D7
:1065F8001283E080E8902002E4F09002BFE0FF22DE
:106B8A00900529E06003026C219023807405F0A32C
:106B9A007402F0EF6004E04410F0902382E4F0A362
:106BAA00EDF090222CE0900354F090222CE0442047
:106BBA00F09020027480F0902280E05470600464A7
:106BCA001070471283BD24E4F582E43485F583C04E
:106BDA0083C082900653E0D082D08375F0021209F6
:106BEA0082E493FF7401939005241283B2900524E2
:106BFA00E0FEA3E0FFC3900527E09F900526E09EF4
:106C0A0050051283E380E61283EA902002E4F090B2
:086C1A000354E090222CF0224B
:108A0400900288EFF0A3EDF0D39402400A7F117E28
:108A1400071290BB7F1122900288E0600AA3E04411
:108A24001090222CF0800690222C7430F07F0022CB
:0693FA0090222DEFF0228D
:1091C100EF90227E6005E04408F022E054F7F0229F
:106D4D0090064DEFF0D39403400A7F117E07129009
:106D5D00BB7F112290064DE07010900528E0700A5F
:106D6D007F167E071290BB7F1622E490064EF090A0
:106D7D00064DE0B4010D1293E17F01126DD974013E
:106D8D00F0804390064DE0B4020D1293E17F0212A4
:106D9D006DD97402F0802F90064DE0B4031012935C
:106DAD00E17F03127AD59005287403F08018E4FF73
:106DBD00127AD5E4FD7F107E2712660890064EEFFD
:106DCD00F0E4900528F090064EE0FF22127AD5905F
:036DDD0005282264
:108E9C00900288EFF0D39416400A7F117E0712904F
:0F8EAC00BB7F1122900288E0FF124FF77F002258
:1091D100EF6009AF05129123439EC022539E3F22A7
:0E924B00EF60071293D2439CC022539C3F2237
:1088FD00902281E0541FD39402402C9022BDE020A1
:10890D00E0257F019022B0E04401F0E4FDFC9022CF
:10891D00BDE030E004E4FF800B0DBD00010CBC0395
:08892D00EDBDE8EAEF70DD2268
:086877004106500041064F00EC
:10594D009022EDE06580FF9022F0E05FFF9022EE67
:10595D00E06590FE9022F1E05EFE9022EFE065B0F2
:10596D00FC9022F2E05CFC9022F0E022E5E8F0AD44
:10597D009AA9E9759A07E4F5E8F5E99022E1746EC4
:10598D00F09022E6E054FBF0E054E7F022E09022A4
:10599D00E5F09022E27490F0D2D875E88075A88079
:1059AD0022E0FEEFF4FDEE5DF022EEF0A3EFF0A3AA
:1059BD00EDF0A3EBF09022F0E055B9FFE06F22E59A
:1059CD00A8F0E4F5A89022EBE0229022F1E055BA80
:1059DD00FFE06F229022F2E055BCFFE06F22EF4412
:1059ED0004FF9022EBE054E7F022E0FAA3E0FBEA9B
:1059FD009022E3F0A3EBF022AF058F9AD2D8538F0C
:105A0D00BF22E0FEEFF4FFEE5FF022FFE054033320
:105A1D00333354F8FEEF4E22EF9022E0F0E4F59A86
:105A2D0022E0F5E8AF018FE922E0FF7401A8070835
:0B5A3D002254012FFFE0FDA806082204
:107BA80090028AEAF0A3EBF0ED24FF92FCEF604C20
:107BB80090028AE07002A3E0701090028CE0700AD4
:107BC8007F117E081290BB7F11229022E1746EF023
:107BD80090028AE0FCA3E0FDEC9022E3F0A3EDF034
:107BE80090028CE09022E5F0A3E054E7F0E04480B6
:107BF800F0D2EC9022E0E04420F08009C2EC902220
:087C0800E0E054DFF07F0022F0
:108AF000900288EFF020E0069022E07498F0902732
:108B000083E4F01293E1902780E4F0A3F0900288D0
:0E8B1000E030E007902203E0547FF07F002267
:108C6C009022E074D8F090278074F6F0A37423F06F
:108C7C00128C86EF6003128C86221293E1E4FD7F46
:078C8C00107E27126608228A
:10722200900288EFF0A3EDF0A3EBF0E4FFFE9002F2
:1072320088E0FDA806088002C313D8FC90028912D8
:107242005A3E8002C313D8FC90028A125A3E800230
:10725200C313D8FC54012FFF0EEEB407D1EFC39431
:1072620002400A7F177E081290BB7F1122E4FFFEC4
:107272001289D3AFA8AEE8ADE9900288E0547FF559
:10728200A8A3E0F5E8A3E0F5E943A880758701002B
:0C72920000E4F5A88DE98EE88FA8FF222B
:1045A3009002881259B76002800C1259D7600280BA
:1045B300051259E1600A7F157E081290BB7F152210
:1045C30090028BE0D39403400A7F117E081290BBC4
:1045D3007F11221293E1E4900292F0FFFE1289D33D
:1045E30090028D1259CC900293F09022E1E0900258
:1045F30091F09022E0E0900290F09022E6E09002A9
:104603008FF090028E12597990028CE0FC9022E692
:1046130030E706E0547FF08004E04480F09022E627
:10462300C083C082E090028B125A18D082D083F0EC
:104633009002881259F790028A12599A7FB9EC3086
:10464300E004EF54DFFF90028CE030E1031259EBFA
:10465300125A25E5D220E5FB12594D6F701DAF06A6
:10466300A3E06F7016AF04A3E0B5040F75870200D3
:104673000000000000000000008006900292741207
:10468300F0125A0590028E125A2E900290E0902258
:10469300E0F090028FE09022E6F0900291E0902209
:1046A300E1F0900293E09022EBF090028DE0F5A808
:1046B300900292E0FF600D7408FEEF4E60051290C9
:1046C300BB800100E4FD7F107E27126608900292F2
:0346D300E0FF22E3
:104801009002881259B76002800C1259D760028059
:10481100051259E1600A7F157E081290BB7F1522AF
:1048210090028BE0D39403400A7F117E081290BB63
:104831007F1122E4900292F07F107E271289D3909B
:10484100028D1259CC900293F09022E1E0900291F6
:10485100F09022E0E0900290F09022E6E090028F4A
:10486100F090028E12597990028CE0FC9022E63091
:10487100E706E0547FF08004E04480F09022E6C037
:1048810083C082E090028B125A18D082D083F090BC
:1048910002881259F790028A12599A7FBAEC30E0D5
:1048A10004EF54DFFF90028CE030E1031259EB1268
:1048B1005A25E5D220E5FB12594D6F701DAF06A3B5
:1048C100E06F7016AF04A3E0B5040F758702000016
:1048D100000000000000000080069002927412F0B7
:1048E100125A0590028E125A2E900290E09022E008
:1048F100F090028FE09022E6F0900291E09022E1A8
:10490100F0900293E09022EBF090028DE0F5A890F8
:104911000292E0FF600D7408FEEF4E60051290BB3D
:09492100800100900292E0FF22E7
:10574B00900288EF1259C16002800C1259D7600287
:10575B0080051259E1600A7F157E081290BB7F15F8
:10576B0022E490028EF07F107E271289D39002895B
:10577B001259CC90028FF09022E1E090028DF090C4
:10578B0022E0E090028CF09022E6E090028BF09009
:10579B00028AE5E8F0AF9A12597E12599F7E9B90D0
:1057AB000288E030E107EE4404FE1259EFEE125A84
:1057BB0026E5D220E5FB9022EDE06580FE9022F0FD
:1057CB00E05EFE9022EEE06590FD9022F1E05DFD43
:1057DB001259676E701DAE05A3E06E7016AE04A372
:1057EB00E0B5040F75870200000000000000000008
:1057FB0000800690028E7412F0125A0790028A12E1
:10580B005A2E90028CE09022E0F090028BE09022D6
:10581B00E6F090028DE09022E1F090028FE0902272
:10582B00EBF0900289E0F5A890028EE0FF600D741A
:10583B0008FEEF4E60051290BB80010090028EE0D7
:02584B00FF223A
:107DFF00900289EDF0A3EBF0900288EFF0D3940797
:107E0F00400A7F167E081290BB7F162290028812BE
:107E1F005A368002C333D8FCFF9022EAE04FF0902D
:107E2F00028AE09022ED600BE04FF09022E71259AA
:107E3F00AE80091259AE9022E7E04FF0900289E030
:107E4F009022F06005E04FF08003125A0F7F00225E
:107E5F00900289EDF0A3EBF0900288EFF0D3940736
:107E6F00400A7F167E081290BB7F1622900288125E
:107E7F005A368002C333D8FCFF9022EBE04FF090CC
:107E8F00028AE09022EE600BE04FF09022E8125948
:107E9F00AE80091259AE9022E8E04FF0900289E0CF
:107EAF009022F16005E04FF08003125A0F7F0022FD
:107EBF00900289EDF0A3EBF0900288EFF0D39407D6
:107ECF00400A7F167E081290BB7F162290028812FE
:107EDF005A368002C333D8FCFF9022ECE04FF0906B
:107EEF00028AE09022EF600BE04FF09022E91259E6
:107EFF00AE80091259AE9022E9E04FF0900289E06E
:107F0F009022F26005E04FF08003125A0F7F00229B
:106F9200EFF0A3ECF0A3EDF0A3EAF0A3EBF0E59A97
:106FA20022EFF07F807E387D017C00A3120939D365
:106FB2000208F6E0FCE4120336E4FBFA79C87842F0
:106FC20002028F1209397F007E127D7A7C0002084C
:106FD20049E47F7BFEFDFC120939C30208F6120167
:106FE2008612036AAB07AA06EB4A22E0FCA3E0FD85
:106FF200E4020331E0FEA3E0FFD322A3E0FEA3E01C
:10700200FD22FFE0FCA3E0FD22E47F7BFEFDFC22EB
:07701200FFE0FCA3E0FD22FA
:048FF100E0FD7F011F
:108FF500ED600543F908800353F9F7EF600443E991
:06900500082253E9F722E6
:0B930000EF6004439A0822539AF72202
:10729E009005D0126F9220E30A7F127E091290BBE6
:1072AE007F12229005D1126FF69005D4E09F9005C3
:1072BE00D3E09E400A7F117E091290BB7F1122906F
:1072CE0025867420F09005D0E0603A126FFD90256F
:1072DE0083F0EEFC902582F09005D3A3E0FB902581
:1072EE0085F09005D3E0FF902584F09025867409F3
:1072FE00F0902583EBF0902582EFF0902585EDF050
:0C730E00902584ECF0E49005D5F0FF22FF
:1078C3009005F4EF126F9620E30A7F127E0912905F
:1078D300BB7F1222C39005F7E094209005F6E09455
:1078E30003500A7F117E091290BB7F1122902586D7
:1078F3007420F09005F4E0602A9005F6E0FEA3E022
:10790300902583F0EE902582F0A3E0902585F090FA
:107913002582E0902584F09025867481F09005F50A
:0A792300128FF1E49005F8F0FF2246
:1077DB0090057B126FA3501A90057C126FD3500249
:1077EB008010900580E0FFD394635006EFC39401A3
:1077FB00500A7F117E091290BB7F112290057C12DB
:10780B006FC5900582EEF0A3EFF0900580126FB577
:10781B00C004C005C006C007900582126FEDD003EF
:10782B00D002D001D000126FE07003FA7B019005FB
:10783B007BE0900582127004900581E09005D5F0F5
:04784B0012729E22F5
:0B930B00EF6004439A1022539AEF22F7
:10731A009005D6126F9220E40A7F137E091290BB61
:10732A007F13229005D7126FF69005DAE09F900539
:10733A00D9E09E400A7F117E091290BB7F112290EC
:10734A00258E7420F09005D6E0603A126FFD9025E4
:10735A008BF0EEFC90258AF09005D9A3E0FB9025EE
:10736A008DF09005D9E0FF90258CF090258E740958
:10737A00F090258BEBF090258AEFF090258DEDF0BB
:0C738A0090258CECF0E49005DBF0FF2275
:10792D009005F9EF126F9620E40A7F137E091290ED
:10793D00BB7F1322C39005FCE094209005FBE094DF
:10794D0003500A7F117E091290BB7F112290258E64
:10795D007420F09005F9E0602A9005FBE0FEA3E0AD
:10796D0090258BF0EE90258AF0A3E090258DF09078
:10797D00258AE090258CF090258E7481F09005FA83
:0A798D00128FF1E49005FDF0FF22D7
:10784F00900584126FA3501A900585126FD35002C2
:10785F008010900589E0FFD394635006EFC3940125
:10786F00500A7F117E091290BB7F1122900585125D
:10787F006FC590058BEEF0A3EFF0900589126FB5F1
:10788F00C004C005C006C00790058B126FEDD00372
:10789F00D002D001D000126FE07003FA7B01900587
:1078AF0084E090058B12700490058AE09005DBF060
:0478BF0012731A2204
:0B931600EF6004439A2022539ADF22EC
:107396009005DC126F9220E50A7F147E091290BBDD
:1073A6007F14229005DD126FF69005E0E09F9005B0
:1073B600DFE09E400A7F117E091290BB7F1122906A
:1073C60025967420F09005DCE0603A126FFD90255A
:1073D60093F0EEFC902592F09005DFA3E0FB90255C
:1073E60095F09005DFE0FF902594F09025967409BE
:1073F600F0902593EBF0902592EFF0902595EDF027
:0C740600902594ECF0E49005E1F0FF22EA
:107997009005FEEF126F9620E50A7F147E0912907C
:1079A700BB7F1422C3900601E09420900600E09468
:1079B70003500A7F117E091290BB7F1122902596F2
:1079C7007420F09005FEE0602A900600E0FEA3E038
:1079D700902593F0EE902592F0A3E0902595F090F6
:1079E7002592E0902594F09025967481F09005FFFC
:0A79F700128FF1E4900602F0FF2267
:1076770090058D126FA3501D12700B90058E126F1F
:10768700D950028010900592E0FFD394635006EF23
:10769700C39401500A7F117E091290BB7F1122907B
:1076A700058E126FC5900594EEF0A3EFF09005924A
:1076B700126FB5C004C005C006C007900594126FCD
:1076C700EDD003D002D001D000126FE07003FA7B37
:1076D7000190058DE0900594127012900593E0904B
:0776E70005E1F01273962289
:0B932100EF6004439A4022539ABF22E1
:107412009005E2126F9220E60A7F157E091290BB58
:107422007F15229005E3126FF69005E6E09F900526
:10743200E5E09E400A7F117E091290BB7F112290E7
:10744200259E7420F09005E2E0603A126FFD9025CF
:107452009BF0EEFC90259AF09005E5A3E0FB9025C9
:107462009DF09005E5E0FF90259CF090259E740923
:10747200F090259BEBF090259AEFF090259DEDF092
:0C74820090259CECF0E49005E7F0FF2260
:107A0100900603EF126F9620E60A7F157E09129009
:107A1100BB7F1522C3900606E09420900605E094F2
:107A210003500A7F117E091290BB7F112290259E7F
:107A31007420F0900603E0602A900605E0FEA3E0C2
:107A410090259BF0EE90259AF0A3E090259DF09073
:107A5100259AE090259CF090259E7481F090060473
:0A7A6100128FF1E4900607F0FF22F7
:1076EE00900596126FA3501D12700B900597126F96
:1076FE00D95002801090059BE0FFD394635006EFA3
:10770E00C39401500A7F117E091290BB7F11229003
:10771E000597126FC590059DEEF0A3EFF090059BB7
:10772E00126FB5C004C005C006C00790059D126F4C
:10773E00EDD003D002D001D000126FE07003FA7BBF
:10774E0001900596E090059D12701290059CE090B8
:07775E0005E7F0127412228E
:0B932C00EF6004439A8022539A7F22D6
:10748E009005E8126F9220E70A7F167E091290BBD4
:10749E007F16229005E9126FF69005ECE09F90059D
:1074AE00EBE09E400A7F117E091290BB7F11229065
:1074BE0025A67420F09005E8E0603A126FFD902545
:1074CE00A3F0EEFC9025A2F09005EBA3E0FB902537
:1074DE00A5F09005EBE0FF9025A4F09025A6740989
:1074EE00F09025A3EBF09025A2EFF09025A5EDF0FE
:0C74FE009025A4ECF0E49005EDF0FF22D6
:107A6B00900608EF126F9620E70A7F167E09129098
:107A7B00BB7F1622C390060BE0942090060AE0947D
:107A8B0003500A7F117E091290BB7F11229025A60D
:107A9B007420F0900608E0602A90060AE0FEA3E04E
:107AAB009025A3F0EE9025A2F0A3E09025A5F090F1
:107ABB0025A2E09025A4F09025A67481F0900609EC
:0A7ACB00128FF1E490060CF0FF2288
:1075840090059F126FA3501D12700B9005A0126FEF
:10759400D9500280109005A4E0FFD394635006EF05
:1075A400C39401500A7F117E091290BB7F1122906F
:1075B40005A0126FC59005A6EEF0A3EFF09005A408
:1075C400126FB5C004C005C006C0079005A6126FAF
:1075D400EDD003D002D001D000126FE07003FA7B2B
:1075E4000190059FE0FF9005A6E0FCA3E0FD900557
:0A75F400A5E09005EDF012748E2260
:04687F0041061100BD
:105C3400E0FFE4FCFDFE1208DB9006291209459002
:105C4400062912092D780812091A90062912094505
:105C540090062922E0FFE4FCFDFE1208DB90062DED
:105C640012094590062D12092D780812091A90067A
:105C74002D12094590062D22EFF090062112092DD0
:105C84007808120907900621120945900621020995
:105C94002DEFF090062512092D78081209079006B9
:105CA4002512094590062502092D902780E054FE0F
:105CB400F022AC02AD017B107A007E2122E4F09048
:105CC4002780E022E0FFE4FCFDFE22AC02AD01E00F
:105CD400FB7A00221209AEAE02AF01C3EE94232276
:105CE400AC02AD017B087A007E2122AE02AF017BBB
:105CF400087A007C2122120945E4FB902780E022E7
:105D040090053602098E902780E04401F07F03223B
:105D140090219F7401F022E04404F090219FE4F06C
:015D2400225C
:108CBA00900657125CC120E00AE04401F090065782
:108CCA007401F07F00125CB6120F93900657E060B1
:058CDA0003125CAE2254
:108CDF00900658125CC120E00AE04401F09006585B
:108CEF007401F07F30125CB6120F93900658E0605B
:058CFF0003125CAE222F
:108F6D00E4FE902780E020E006E04401F07E0190D1
:0B8F7D002140EFF0EE6003125CAE221A
:108A6400900621125CFA20E005E04401F00B125C50
:108A74008F902141125C7C902142125C7C902143B6
:0F8A8400125C7C902144EFF0EB6003125CAE2299
:108BF400E4900659F0902780E020E00AE04401F078
:108C04009006597401F07F45125CE4120F939006AC
:088C140059E06003125CAE227E
:108F8800E4FE902780E020E006E04401F07E0190B6
:0B8F98002110EFF0EE6003125CAE222F
:108A9300900625125CFA20E005E04401F00B125C1D
:108AA300A8902111125C95902112125C95902113CC
:0F8AB300125C95902114EFF0EB6003125CAE2281
:108C1C00E490065AF0902780E020E00AE04401F04E
:108C2C0090065A7401F07F15125CE4120F939006B3
:088C3C005AE06003125CAE2255
:06940000902140E0FF2274
:108B1E00902144125CC8125C3D1209399021431217
:108B2E005C34120939902142125C341209399021B9
:0E8B3E0041125CC81208DB125C4E12092D2297
:0893B2007D45125CEF020F93F0
:06940600902110E0FF229E
:108B4C00902114125CC8125C611209399021131225
:108B5C005C58120939902112125C58120939902173
:0E8B6C0011125CC81208DB125C7212092D2275
:0893BA007D15125CEF020F9318
:0893C200EF547F902194F0228A
:0893CA00EF547F902195F02281
:1091E100EF9021936005E04440F022E054BFF0226B
:1091F100EF9021936005E04420F022E054DFF0225B
:1086CB0090065BEFF07002801290065BE0D3941083
:1086DB004002800790065BE030E00A7F1A7E0A12A8
:1086EB0090BB7F1A2290065BE0C31314FF9021937B
:1086FB00E054E3F0E0FEEF25E025E0FFEE4FF07FE6
:02870B0000224A
:1089A10090065CEFF0D39403400A7F117E0A129087
:1089B100BB7F1122902193E054FCF0C083C082E080
:1089C100FF90065CE05403FEEF4ED082D083F07F2F
:0289D100002282
:1046D600900530EDF090052D125CD84013D3EF9481
:1046E600FFEE9424500A7F187E0A1290BB7F182290
:1046F600125D04E4120605900530E0D39479400A71
:104706007F167E0A1290BB7F1622900530E0B40118
:104716000A7F177E0A1290BB7F1722125D0A128942
:10472600A190053112092D128A64900535E0FF1219
:104736008F6DE4FF1293C27F041286CB125D149034
:104746000530E02402902300F090052D12098E908A
:104756000530125CCF7F017E23120F93902007E471
:10476600F0900530E02402902008F090053974128C
:10477600F0902180E054FBF0902003125D1B900620
:104786000DF0A3F0902180E030E207E4900539F0C7
:10479600801690060DE475F0011206D690060DE01F
:1047A600B402E1A3E0B458DC900539E0703090051E
:1047B60030E02404FF125D04EF120605125D14902A
:1047C600052D12098EAE02AF01125D0412059DFB86
:1047D6007A007D017C23120F9390219FE4F0125CF6
:1047E600AE900539E0FF600D740AFEEF4E600512CB
:0B47F60090BB800100900539E0FF221D
:1044660090053DEDF090053A125CD84013D3EF94D9
:10447600FFEE9424500A7F187E0A1290BB7F182202
:1044860090054312098EE412060590053DE0FFD320
:10449600947D5006EFC39404500A7F167E0A12904C
:1044A600BB7F1622125D0A1289A190053E12092DC4
:1044B600128A93900542E0FF128F88E4FF1293CA96
:1044C6007F041286CB125D1490053DE024029024F1
:1044D60000F090053A12098E90053D125CCF7F01DF
:1044E6007E24120F93902087E4F090053DE024028D
:1044F600902088F09005467413F0902180E054FDDA
:10450600F0902083125D1B90060FF0A3F09021809F
:10451600E030E107E4900546F0801690060FE4755A
:10452600F0011206D690060FE0B402E1A3E0B458FB
:10453600DC900546E0704990219F04F090053A1200
:10454600098EAE02AF0190053DE0FB7A007D017C4D
:1045560024120F9390053DE0FFE42FF582E4342406
:10456600F583E07010EF24FCFF90054312098EEFEF
:1045760012060580069005467414F090219FE4F01B
:10458600125CAE900546E0FF600D740AFEEF4E60C9
:0D459600051290BB800100900546E0FF2259
:1068830041046C0042046A00004204AE000041046B
:02689300695545
:108DD70012098E8F827583001205B6902542F0E442
:108DE700F583D2AF22902540E054BFF0E04440F035
:028DF700E42274
:0B933700EF60044398802253987F22CF
:0E925900439810D2B7E4FB7D017F07024B74EF
:07928100E490046CF07F0192
:06928800EF24FF92B72263
:105647009005EEEFF0A3EDF0A3EBF0E59820E70A65
:105657007F107E0B1290BB7F10229005F1E0D39450
:1056670009400A7F117E0B1290BB7F11229005F132
:10567700E0FF24FE601314601824FA601C240870ED
:10568700209005F27405F0801F9005F27403F080F6
:10569700179005F27404F0800F9005F2740BF080F8
:1056A70007EF24029005F2F0902540E4F09025439F
:1056B700F0902540C083C082E0FF9005F2E0FE54E1
:1056C70003FDEF4DD082D083F0902543E0FFEE54E9
:1056D7000C1313543FFEEF4EF09005EEE0605BA213
:1056E700AFE4339005F3F0C2AF9005EFE024FF92EB
:1056F700FDA3E030E403129259902540C083C08295
:10570700E0FF9005F0E0FE541CFDEF4DD082D08302
:10571700F0902540E044C0F0D2EDEE20E412E4FF23
:10572700900469E0902542F0E4F5830FEFB410F0A0
:105737009005F3E024FF92AF8007902540E4F0C284
:04574700ED7F0022D0
:108EBB00AE07E4FF129288C2AF902542EE128DE509
:0F8ECB0090046CE060FA1292819004ADE0FF22F7
:108354009006311209AE900634EDF0D39410400A21
:108364007F117E0B1290BB7F1122E490046CF0FF0E
:10837400129288900634E0FEEFC39E500BC2AF9079
:108384000631128DD70F80EB90046CE0FF90063419
:0F839400E0B50703D38001C350EE1292811F2280
:1090A300128DECFEC2AF902542EF128DE50EEEB4A9
:0890B30010F2900469EFF022B5
:108935009006431209AEEDD39410400A7F117E0BC9
:108945001290BB7F1122128DECFFC2AF900643122D
:108955008DD70FEFB410F390064312098E12059DC3
:07896500900469F07F00227D
:108811009004AEA3E0FFC390046BE09FFFEF543FD1
:10882100602A9004AEA3E0246DF582E43404F5835C
:10883100E01206059004AFE02401FF9004AE7E0033
:0F884100EF543FFFEEF0A3EFF07F01227F002204
:1068F0007FF07EFF7D077C00120939D30208F6EF96
:10690000F0A3EDF0A3EBF0E59822AD07AC06ECF0B8
:106910007C00E4120331783FE4FBFAF9120095029F
:10692000036AC3E49BFFE49AFE740199FDE498FCBA
:10693000020945AF05EF24FF92AF7F0022E49005E6
:106940006AFEFDFC020939E0FFE4FCFDFEA312092A
:10695000390207BEE47B03FAF9F802092DE0FEA331
:10696000E0FFC3E49FFFE49EFEAC0722E024FF9219
:10697000B9A3E024FF928C22E024FF92BBA3E02481
:10698000FF928E2290028C020945FB12092D780895
:0D69900002090790028C12094590028C222A
:0B934200EF6004439801225398FE22C4
:106CB9009002881268FF20E00A7F137E0C1290BBB5
:106CC9007F132290028BE0D39462400A7F177E0CD7
:106CD9001290BB7F1722A2AFE433900290F0C2AFAB
:106CE90090028C120951000007D090028B1269475B
:106CF90012698490028C126954120849E4FDFC124D
:106D0900698490028C12093990028C1269229002CE
:106D19008C12092D900637EFF090028C12698A9037
:106D29000635EFF08B8AF58C5389F043890190027F
:106D39008912696C900288E024FF92A9900290E080
:046D49001269362273
:1085FC009006121268FF20E00A7F137E0C1290BBCB
:10860C007F1322A2AFE433FDC2AF90061512695D51
:10861C00900637ECF0EE900635F08C8AF58C538989
:10862C00F043890190061312696C900612E024FF46
:06863C0092A9126933222D
:0B934D00EF6004439802225398FD22B9
:106F04009002881268FF20E10A7F147E0C1290BB65
:106F14007F142290028BE0D39462400A7F187E0C87
:106F24001290BB7F1822A2AFE433900290F0C2AF5C
:106F340090028C120951000007D090028B1269470D
:106F4400126993126954120849E4FDFC1269931200
:106F5400093990028C12692290028C12092D900634
:106F640038EFF090028C12698A900636EFF08B8B22
:106F7400F58D53890F438910900289126978900224
:0E6F840088E024FF92AB900290E01269362262
:108642009006171268FF20E10A7F147E0C1290BB7D
:108652007F1422A2AFE433FDC2AF90061A12695D05
:10866200900638ECF0EE900636F08C8BF58D53893F
:108672000F438910900618126978900617E024FFBC
:0686820092AB12693322E5
:0B935800EF6004439804225398FB22AE
:105A48009005671268FF20E20A7F157E0C1290BB52
:105A58007F15227F0512693DC31208F65012900582
:105A68006A1268F0400A7F197E0C1290BB7F1922D7
:105A78007FF87EFF7D037C0090056A1268F8400E6F
:105A880090056F7440F090056E7406F080447FFCBA
:105A98007EFF7D017C0090056A1268F8400E900533
:105AA8006F7420F090056E7405F08026E47FFE7E0A
:105AB800FFFDFC90056A1268F890056F400B7410A2
:105AC800F090056E7404F080097408F090056E7407
:105AD80003F07F0812693D1207BEC00790056FE00A
:105AE800FBE4FAF9F8D007120849E412032C78BF4E
:105AF80012691890057012690AA2AFE433FEC2AFAA
:105B080053A9F0900567E06027900570E0F5AA8F2B
:105B1800AC900568E024FF92F9A3E0600C90056E54
:105B2800E025E0440142A9800353A9FED2E980029E
:095B3800C2E9AF06EE1269362243
:0B936300EF6004439808225398F722A3
:105338009005711268FF20E30A7F167E0C1290BB5D
:105348007F1622E47F05900574126941C31208F69E
:1053580050129005741268F0400A7F1A7E0C129061
:10536800BB7F1A227FF87EFF7D037C0090057412B4
:1053780068F8400E9005797440F09005787407F04D
:1053880080447FFC7EFF7D017C009005741268F8E4
:10539800400E9005797420F09005787406F0802608
:1053A800E47FFE7EFFFDFC9005741268F890057995
:1053B800400B7410F09005787405F080097408F0BB
:1053C8009005787404F0E47F08FEFDFC90057412E3
:1053D800694EC007900579E0FBE4FAF9F8D00712A6
:1053E8000849E412032CE4FBFAF978BF12691C900F
:1053F800057A12690AA2AFE433FEC2AF53A90F902F
:105408000571E0602990057AE0F5AB8FAD900572E3
:10541800E024FF92FBA3E0600E900578E0C43354CB
:10542800E0441042A9800353A9EFD2EB8002C2EBFB
:07543800AF06EE12693622F7
:104DBC000709433B0B0709433B0B0707433B0B0717
:104DCC00078B3B0B07078B040B07078B04040707A8
:104DDC008B0404040B048B061705078B0404040DC9
:104DEC008B0404040D000B0B040400008B06170548
:104DFC000000061705000000170500000000050064
:104E0C000000000004070000000007000000000084
:104E1C001D0B000001000B00000100000000010050
:104E2C000000000100000000010000000000000074
:104E3C000000000000000000000000000000000066
:104E4C000000000000000000000000000000000056
:104E5C000000000000000000000000000000000046
:104E6C000000000000000000000000000000000036
:104E7C00C393C7712FEE93C7712FEE77C7712FEEC7
:104E8C007703712FEE7703342FEE7703341AEE7716
:104E9C0003341A0D658B021703077703341A0D02BE
:104EAC0003341A0D02001A0D120900000217030731
:104EBC0000001703070000000307000000000700B4
:104ECC0000000000070200000000020000000000CB
:1068950042036100004203570000420365000042C5
:1068A500035B000041035F0142036300004203599B
:1068B5000000420367000042035D000041036001E0
:10701900FFC3E09FFF7E00EF543FFFAD01ED24FF6A
:1070290022FF12098EEF120605900653E0FF900227
:10703900A1E075F006A422F583E5822FF582E435F7
:1070490083F583E49322E433F0C2E8A2ACE433226B
:10705900E433F0C2E8A2AEE43322A2AFE433FFC2C4
:10706900AF22C374409FFFE49EFED3EF9403EE94D6
:107079000022E4F0A3E0543FF022E0120605E4F513
:1070890083EF24FF92AF7F012212098E8F827583CD
:04709900000205B636
:1041D9009002971209AEE49002A0F0120A93424BA2
:1041E9000000012C425200000258425A000004B05B
:1041F900426200000960426A000012C04272000077
:104209002580427A00003840428200004B00428AF1
:104219000000960042920000DAC0429A0000E100D4
:1042290042A20001C20042AA0003840042B2000770
:10423900080042BA0008CA0042C2001194000000F6
:1042490042CAE49002A1F0807E9002A17401F0803C
:10425900769002A17402F0806E9002A17403F0803E
:10426900669002A17404F0805E9002A17405F0804A
:10427900569002A17406F0804E9002A17407F08056
:10428900469002A17408F0803E9002A17409F08062
:10429900369002A1740AF0802E9002A1740BF0806E
:1042A900269002A1740CF0801E9002A1740DF0807A
:1042B900169002A1740EF0800E9002A1740FF08086
:1042C900069002A07412F09002A0E07049127032B8
:1042D90024BCF582E4344D12704090029712702A82
:1042E900241CF582E4344E12704090029A12702A0E
:1042F900247CF582E4344E127040FF90029D12092D
:104309008EEF12060590029D12098E12059D700608
:0C4319009002A07412F09002A0E0FF22BD
:0B936E00EF6004439820225398DF2298
:105D2500900552EFF0A3EDF0E59820E50A7F107E8F
:105D35000D1290BB7F1022E490055CF0900552E0B7
:105D4500602890055412092D7B017A057959900236
:105D55009A1209AE7A050990029D1209AE7A0509D3
:105D65001241D990055CEFF0800BE490055BF09053
:105D75000559F0A3F090055CE0FF6013740DFEEF8C
:105D85004E60051290BB80010090055CE0FF221279
:105D95007063902505E4F09025037480F090055A12
:105DA500E0902500F0900559E0902501F090055B05
:105DB500E0902507F0902503E4F0902507F0900585
:105DC50052E060389025027481F0900558E0FE5449
:105DD5003F902503F0902501E4F0EE20E604E04431
:105DE50001F0900558E020E707902501E04402F016
:105DF500D2AC900553E024FF92BC8009902501E4C4
:0D5E0500F0C2ACC2BCEF24FF92AF7F0022C0
:108E1A00A2E890029712704FF9C2AC900357A3E0F0
:108E2A0090036212701992AC900297E024FF92E8C4
:018E3A002215
:108E3B00A2E890030C12704FF9C2AC90035BA3E055
:108E4B0090036612701992AC90030CE024FF92E829
:018E5B0022F4
:10819F00AC07128E3B12706B40F8A2E8E433FF126B
:1081AF007052FEC2AC90035FE06010E4F0C2AF907B
:1081BF002500ECF0E4F583D2AF8020900365A3E0B7
:1081CF0024E9F582E43403F583ECF0900365E4755C
:1081DF00F0011206D690036512707BEE24FF92AC6D
:0681EF00EF24FF92E822DC
:10824A009002931209AE128E1AEF4E7002FF22A20A
:10825A00E8E433900296127051FFC2AC900357E4DF
:10826A0075F0011206ECFC746925F0F58274033C82
:10827A00F583E0FE90029312098EEE120605900332
:10828A005712707BEF24FF92AC900296E024FF9283
:04829A00E87F012256
:10913700E4FF90035FE070010F902505E020E50252
:039147007F012283
:10848A0090030C1209AE902501E030E1037F13221C
:10849A00EDD3941040037F1422902505E030E5F9CE
:1084AA00E4FFEFC39D5022A2AFE43390030FF0C262
:1084BA00AF90030C127092902500F0E4F5839003BC
:0C84CA000FE024FF92AF0F80D97F00224A
:1090FB00902505E030E00A12706390250012708312
:04910B00227F00229D
:0B937900EF6004439840225398BF228D
:105E1200900288EFF0A3EDF0E59820E60A7F107E6D
:105E22000D1290BB7F1022E4900292F0900288E063
:105E3200602890028A12092D7B017A02798F9002E2
:105E42009A1209AE7A020990029D1209AE7A0209EB
:105E52001241D9900292EFF0800BE4900291F090FF
:105E6200028FF0A3F0900292E0FF6013740DFEEF38
:105E72004E60051290BB800100900292E0FF221258
:105E82007063902515E4F09025137480F0900290D1
:105E9200E0902510F090028FE0902511F090029191
:105EA200E0902517F0902513E4F0902517F090026A
:105EB20088E060389025127481F090028EE0FE54E2
:105EC2003F902513F0902511E4F0EE20E604E04423
:105ED20001F090028EE020E707902511E04402F0E5
:105EE200D2AE900289E024FF92BE8009902511E48F
:0D5EF200F0C2AEC2BEEF24FF92AF7F0022CF
:108D2800A2E8900297127059F9C2AE900359A3E0D5
:108D3800FFC390036412701B92AE900297E024FF69
:038D480092E8228C
:108D4B00A2E890030C127059F9C2AE90035DA3E038
:108D5B00FFC390036812701B92AE90030CE024FFCC
:038D6B0092E82269
:10814800AC07128D4B12706B40F8A2E8E433FF12B3
:10815800705CFEC2AE900360E06010E4F0C2AF90C5
:108168002510ECF0E4F583D2AF8021900367A3E0FB
:108178002429F582E43404F583ECF0900367E47570
:10818800F0011206D6E490036712707CEE24FF9289
:07819800AEEF24FF92E82284
:1081F5009002931209AE128D28EF4E7002FF22A253
:10820500E8E43390029612705BFFC2AE900359E426
:1082150075F0011206ECFC74A925F0F58274033C97
:10822500F583E0FE90029312098EEE120605E490A6
:10823500035912707CEF24FF92AE900296E024FF62
:0582450092E87F012218
:10914A00E4FF900360E070010F902515E020E5022E
:03915A007F012270
:1084D60090030C1209AE902511E030E1037F1322C0
:1084E600EDD3941040037F1422902515E030E5F972
:1084F600E4FFEFC39D5022A2AFE43390030FF0C216
:10850600AF90030C127092902510F0E4F58390035F
:0C8516000FE024FF92AF0F80D97F0022FD
:10910F00902515E030E00A127063902510127083DD
:04911F00227F002289
:0993A100C2AF75D25575D2AA22A3
:0B938400EF6004439201225392FE228E
:10829E00900295EFF0A3EDF0E59220E00A7F107EBC
:1082AE000E1290BB7F1022900296E0D3940F400ADC
:1082BE007F117E0E1290BB7F1122A2AFE433FFC25C
:1082CE00AF900295E0600D1293A3A3E0540F4440CB
:1082DE00F5D280061293A375D280EF24FF92AF7F62
:0282EE0000226C
:108C440090FFFF120ACDA2AFE433850D83850E8217
:108C5400F01293A143D240850D83850E82E024FF58
:088C640092AF900001020ACD5D
:1089D300A2AFE433900294F0C2AFEF4E600E900664
:1089E30051EEF0A3EFF07D0F7F018009E490065173
:1089F300F0A3F0FDFF12829E900294E024FF92AF59
:018A03002250
:108D0400900288EFF0D3940F400A7F117E0E1290E8
:108D1400BB7F11221293A1900288E0540FF5D24335
:048D2400920180FE3A
:1087D0009002881209AE7F007E10E490028BF0FDBB
:1087E000EF2DF582E43EF583E493FC90028BE02CC0
:1087F000F090028812098E8D82758300EC120617A4
:108800000DEDB440DB90028BE070037F01227F000E
:018810002245
:108A34000A0D2045564B203A204C49422056322EEE
:108A440035000000000000000000000000000000ED
:108A54000000000000000000000000000000000012
:1066C900A37429F004F004F07429F004F004F074C0
:1066D90029F004F004F02290028B7412F0A37403E1
:1066E900F0A32274039022CFF09022CE2290028B45
:1066F9007413F0E4A3F0A322F0A3F0A3F0A3F0A392
:10670900F0A3F022902221E4F0A37485F09022CA2C
:106719002290028B7413F0A37401F0A322740290E7
:1067290022CFF09022CE22F0A37416F014902242C8
:10673900F0902245229022B0E04401F0E4FEFF22CD
:10674900F07464A3F0A37404F022F09022497463F6
:10675900F0A37455F090224D2274C0F0A37470F028
:1067690090223C7490F02224A69022BFF09022BE81
:0B677900E4F022A3F0A37450F0A32270
:107C1000EFD39405401E902232743AF0A37434F0EE
:107C20009022381267627411126736741E126753FD
:107C30007426803F902232744A1267307423F0EF2A
:107C4000C39405902238401A126762902249742129
:107C5000F0A304F090224D04F0A37499F0A37407EC
:107C6000F0227450F0A374B0F090223C745012676C
:077C70005374121267492250
:1061B90090278074F6F0A37423F09022B07440F015
:1061C9009022C67480F09022C274B0F090221174AB
:1061D90002F090220C7405F09022207480F0A3E460
:1061E900F0A37485F09022B97402F0A37463F0905F
:1061F90022B774CFF0A3E4F09022C8745FF0A374BF
:1062090009F0EF30E0047E0E80027EA29022CAEEF1
:10621900F0740812674CA3E4F0740B1266EE740F65
:10622900F0902230744AF09022321267307423F0D1
:1062390090224A7455F0A374E1F0EF30E0047E4BEC
:1062490080027E4D902235EEF0EF30E0047FC6806B
:10625900027FCD902236EFF0745C12677C74B0F047
:1062690090223B7450F0A3F09022407420F0A3F0E8
:106279009022437410F0A3F09022497463F09022A5
:106289004D741212674990221D7485F09022E174B1
:036299006EF02282
:10709D00AE07127C10EF120A4070CB0070CD01705C
:1070AD00D40270E40370E40470EE0570F00670F223
:1070BD000770F90871000971070A000070E480007B
:1070CD009022217401800A902221E4F0A374E580BE
:1070DD0036F0A374858030902221E4F0A37485806E
:1070ED00268002800012670D74AA801312670D743A
:1070FD00D5800C12670D74D5800512670D74D5F00F
:10710D009022197410F022F09022CA74A2F09022ED
:04711D0019E4F0225F
:10407F00E490028AF0EF8EF0120A6640CE09654096
:10408F00D7096A40E0096F40E9097440F2097940A5
:10409F00FB097E41040983410D09884116098D41B1
:1040AF001E099241260997412E099C413609A141CB
:1040BF003E09A6414609AB414E09B00000415612D8
:1040CF0066E07428F002415C1266E07450F0024121
:1040DF005C1266E07478F002415C1266E074A0F046
:1040EF0002415C1266E074C8F002415C1266E07433
:1040FF00F0F002415C1266F67418F002415C126631
:10410F00F67440F002415C1266F67468F0803E125D
:10411F0066F67490F080361266F674B8F0802E1240
:10412F0066F674E0F0802612671A7408F0801E128B
:10413F00671A7430F0801612671A7458F0800E12D6
:10414F00671A7480F0800690028A7417F090028AC2
:10415F00E0FF6001229022BE74C0F09022B474017F
:10416F00F090028BE09022B1F090028CE09022B29E
:10417F00F090028DE09022B3F09022B0E04401F075
:10418F0090028A7414F0E4FFFE9022BDE030E00745
:10419F00E490028AF0800B0FBF00010EBE27EABF2A
:1041AF0010E790028AE0601C12673E9022BDE0305B
:1041BF00E007E490028AF0800B0FBF00010EBE27CC
:0941CF00EABF10E790028AE0FF4C
:0141D80022C4
:084EDC00900646EEF0A3EFF092
:104EE400C3945AEE94094010900646E0FCA3E0FDFA
:104EF400D394CBEC940940037F1122E4900648F04C
:104F0400ED8CF0120A664F4E09654F50096A4F58EE
:104F1400096F4F5A09744F5C09794F64097E4F66D3
:104F240009834F6809884F6A098D4F7209924F743B
:104F340009974F7C099C4F7E09A14F8009A64F8891
:104F440009AB4F8809B000004F9080009022C274D2
:104F5400D2F0803E800280009022C274D1F0803270
:104F64008004800280009022C274D0F080248000EB
:104F74009022C274CFF0801A800280009022C27402
:104F8400CEF0800E9022C274CDF080069006487454
:104F940017F0900648E0FF6001229022B0E044023E
:104FA400F0900646A3E01267709006487414F0E48B
:104FB400FFFE9022BDE030E007E4900648F0800B4D
:104FC4000FBF00010EBE27EABF10E7900648E0605D
:104FD4001C12673E9022BDE030E007E4900648F0E2
:104FE400800B0FBF00010EBE27EABF10E7900648F2
:024FF400E0FFDC
:014FF6002298
:10678400C3EF9465EE94094009D3EF94B0EE9409F5
:1067940040037F1122C3EF94B0EE94094005902288
:1067A400C28033C3EF949CEE940940089022C274D3
:1067B400B3F08025C3EF947EEE940940089022C282
:1067C40074B4F08014C3EF9465EE94099022C2402F
:1067D4000574B5F0800374B2F0D3EF947EEE94099F
:1067E4009022B950057422F080037402F09022B014
:1067F400E04402F0EF1267707D14FFFE9022BDE0CA
:1068040030E004E4FD800B0FBF00010EBE27EDBF96
:1068140010EAED601912673E9022BDE030E004E416
:10682400FD800B0FBF00010EBE27EDBF10EAE4FE92
:08683400FF600312407FAF0575
:01683C002239
:0C92B2009022BFE0245AFFE43409FE22A1
:104FF700EF120A40504400504B01505802506103D1
:10500700506804506F05507606507D07508408504D
:10501700910950980A50A50B50AC0C50B30D50C0D5
:105027000E50CC0F50D31050E01150E61250ED1334
:1050370050F41450FB15510716000051109022CF61
:10504700740B80059022CF7404F09022CE740FF079
:10505700227405126728740BF0221266EC740AF0AA
:10506700221267267409F0221266EC7407F02212E6
:1050770066EC7406F0229022CF740380059022CF4D
:105087007401F09022CE7405F0221267267404F0A2
:10509700229022CF7407F09022CE7403F022902240
:1050A700CF740280199022CF740C80059022CF74A0
:1050B70004F09022CE7402F0229022CF7401F09077
:1050C70022CE04F0229022CF741F80059022CF7445
:1050D7000FF09022CE7401F02212672614F022906E
:1050E70022CF7401801E9022CF741F800C9022CF94
:1050F700740880059022CF7401F09022CEE4F0224C
:0A5107009022CFE4F09022CEF022B7
:107AD500EFB401079022707424F022EF6402600570
:107AE500EF6403703990278074FEF09022197401B9
:107AF500F09022707427F0902280E030E0F9902217
:107B0500807423F0A37407F0EF902270B40305741A
:107B150077F080037422F09022817460F022902720
:107B25008074F6F0902219E4F09022807480F0A31E
:0A7B3500746CF09022707480F0224E
:10912300EF9022926008740EF0A37402F02274018F
:04913300F0A3F02293
:0893D200902290E054C0F0224B
:107B3F00EF30E00C902720E4126701A312670122B7
:107B4F00EF90272030E7297404F0A374E2F0A374B8
:107B5F0004F0A374E2F0A37414F0A37410F0A3E480
:107B6F00F074FA12677CF0A374A0F0A37464F0228F
:107B7F007402F0A37471F0A37402F0A37471F0A3F4
:107B8F00740AF0A37408F0A3E4F0A3747CF0A37458
:097B9F0028F012677C7432F02218
:105EFF00902785E090228230E272E4F000000000EB
:105F0F00000000001266C9000000000000000074CD
:105F1F0029F0000000000000000000000000000059
:105F2F000000000000000000000000000000000062
:105F3F000000000000000000000000000000000052
:105F4F000000000000000000000000000000000042
:105F5F000000000000000000000000000000000032
:105F6F00000000000000000000008010E4F00000BE
:105F7F0000001266C9000000007429F00000000044
:105F8F000000000000000000000000000000000002
:105F9F0000000000000000000000000000000000F2
:105FAF0000000000000000000000000000000000E2
:105FBF0000000000000000000000000000000000D2
:105FCF0000000000000000000000000000000000C2
:0D5FDF00000000007440F090228214F022B7
:050006007E8A7F342218
:102C3F002023232045413D302C20496E746572724C
:102C4F007570742044697361626C6564202323007E
:102C5F002023232055415254303A496E74657272C5
:102C6F007570742044697361626C6564202323005E
:102C7F002023232055415254313A496E74657272A4
:102C8F007570742044697361626C6564202323003E
:102C9F00202323205541525430203A20496E746529
:102CAF0072727570742044697361626C656420235D
:102CBF002300202323205541525431203A20496EBE
:102CCF00746572727570742044697361626C6564A7
:102CDF00202323000A002025303278000A205B4D84
:102CEF0049425D000A204368616E3D257520282505
:102CFF0075204D487A29000A2050616E49443D30B5
:102D0F007825303478000A2053686F7274416464F8
:102D1F00723D30782530347800203A494545454199
:102D2F0064647228307E37293D3078000A2044735E
:102D3F007453686F7274416464723D307825303417
:102D4F007800203A447374494545454164647228BC
:102D5F00307E37293D3078000A204461746152611A
:102D6F0074653D30782530327800203A54785077AA
:102D7F00724C6576656C3D307825303278000A20CC
:102D8F004E6F41636B52657472793D257500203A21
:102D9F004261636B6F666652657472793D2575008B
:102DAF000A205B52582D4D41432D504B545D000A64
:102DBF002044534E3D3078253032782C204F4F42EF
:102DCF003D30782530327800203A64426D3D2564DD
:102DDF0000203A436F72723D2564000A20447374D9
:102DEF002E204D6F64653D2530327800203A5061BA
:102DFF006E49443D30782530347800203A53686F5F
:102E0F007274416464723D30782530347800203A12
:102E1F004945454528307E37293D3078000A2053F3
:102E2F0072632E204D6F64653D25303278000A2085
:102E3F004D534455204C656E3D25303275203A2058
:102E4F0000203A4D534455203D000A203D3D3D2082
:102E5F0048494220446973706C6179203D3D3D00C3
:102E6F000A20494545452041444452284C53427E4F
:102E7F004D534229203A000A2043686970496E6415
:102E8F006578203D203078253032780020284D4756
:102E9F0032343030290020284D473234355829003C
:102EAF0020284D4732343730290020284D473234FF
:102EBF003630290020284D47323431302900202860
:102ECF00556E636C617373696669656429000A20C6
:102EDF004368616E6E656C2020203D20257520288B
:102EEF002575204D487A29000A20537461636B4978
:102EFF00442020203D20307825303278000A20549D
:102F0F0078506F7765722020203D20307825303241
:102F1F007800202020204461746152617465202064
:102F2F003D20307825303278000A2050616E4944B8
:102F3F0020202020203D2030782530327825303257
:102F4F00780020204E776B4164647220203D203042
:102F5F00782530327825303278000A205365634C5B
:102F6F006576656C20203D20307825303278002042
:102F7F00202020507265436F6E666967203D2030B8
:102F8F007825303278000A204E574B204B65792038
:102F9F00284C53427E4D534229203A000A20526555
:102FAF00736572765F30284C53427E4D5342292011
:102FBF003A000A204550494420202020284C5342F3
:102FCF007E4D534229203A000A205265736572766E
:102FDF005F31284C53427E4D534229203A000A203C
:102FEF0047656E6572616C576F726430203D20309B
:102FFF00782530327825303278000A2047656E65A3
:10300F0072616C576F726431203D203078253032F9
:06301F0078253032780034
:0A68C5004204D300004204D5000095
:103693001207B190051A12094590051A12093990BB
:1036A3000517E075F064A4FFAEF0E4FCFD1207B16A
:1036B30090051A12094590051A12093975F00A90F6
:1036C3000516E0A4FFAEF0E4FCFD1207B190051A65
:1036D30012094590051A2212098E9000191205B697
:1036E300FFE490029EF0A3EFF07BFF229000011213
:1036F300072DFF9002BD12098E9002C3E0FDF582F3
:10370300758300EF1206179002BA12098E9000011A
:1037130012072DE5F0FFED2401FDE433FC9002BD1B
:1037230002098E8D828C83EF1206179002BA02096A
:103733008EF9E43AFAE4900290F07D08FC229002BC
:10374300C3E0F582758300ED120617EEFF9002C306
:10375300E0F5827583002290028812098E9000049E
:1037630012072DFF90029EE5F02290028912098E26
:10377300120702FFE5F0C4F854F0C868FEEFC45422
:103783000F48FFEE8FF012076590028EE02290053E
:1037930016E0900515F0900517E0900516F09005DA
:1037A30018E0900517F0900519E0900518F0E4A3D0
:1037B300F0900514E014F022900517E0FF7E007CE2
:1037C300037DE8120639E4FCFD221205B6FF9002E0
:1037D3009EE4F0A3EFF02212092DE47B107A27F97F
:1037E300F80207BE90028812098E9000080205B6FF
:1037F300FFFD90029EE4F0A3EDF07E007C007D05CA
:10380300120639EF242EFFEE3409A32274C92FF5D3
:1038130082E43402F583229005BE12098E02059DCF
:10382300120939900515E0FFE4FCFDFE22E92401AD
:10383300F9E43AFA02059D1209AE7BFF7A2C79E38B
:103843007F012290028812098E9000020205B68D34
:10385300828C83EF1206179002C3221205B6FF90E3
:1038630002A0E422C4540F1206059005C3E022EF20
:1038730024D0900512F0900514E0C3940422120999
:1038830039900512E0FF3395E0FEFDFC2290030919
:10389300E0FFC3944022F0E4F583900312E024FF99
:1038A30092AF2290000C0205B690000B0205B69071
:1038B300028802098EEFF0A31209AEE4222402FF6C
:1038C300E433FEE92FF9EA3E22E475F0010206D65D
:1038D300120939900515E075F00A229002C3E07EC3
:1038E3000029F9EE3A22FF9002C002098E900309E3
:0D38F300E004F02290028912098E02070203
:108D6E0090030AEFF0902501E090030A30E105E050
:108D7E00FF02819FE0A3F07B017A03790B7D011244
:038D8E00848A22B2
:108B7A0090028F1209AE902501E090028F30E00832
:108B8A0012098E12824A800612098E1290FB9002F6
:098B9A0092EFF0900292E0FF223C
:108D910090030AEFF0902511E090030A30E105E01D
:108DA100FF028148E0A3F07B017A03790B7D011278
:038DB10084D62243
:108BA30090028F1209AE902511E090028F30E008F9
:108BB30012098E1281F5800612098E12910F90020E
:098BC30092EFF0900292E0FF2213
:1075FE0090030E1209AEA2AFE433900312F0C2AFA5
:10760E00902500740AF0740DF0902510740AF07431
:10761E000D123899902505E030E5F9902515E030EA
:10762E00E5F9E4900311F090030E12098E1290E624
:10763E00900311E0C39FEE6480F87480985029A2E5
:10764E00AFE433A3F0C2AF90030E12098E90031174
:10765E001237531205B6902500F090251012389966
:09766E00900311E004F080BF223A
:1077650090030AEFF020AF3D7BFF7A2C793F12772B
:10777500D390030AE0700B20AC087BFF7A2C795F6D
:10778500801090030AE0B4010C20AE097BFF7A2C2F
:10779500797F1277D3C2AF75D25575D2AA75D20A41
:1077A50043920180FE90030AE0700B20AC087BFF3A
:1077B5007A2C799F801090030AE0B4011020AE0D59
:1077C5007BFF7A2C79C1A31209AE1275FE22A31292
:0677D50009AE1275FE2250
:10699D0090029B1209AE90029AEFF0127765E49087
:1069AD000309F0123890500A12380FE4F01238F043
:1069BD0080F17B017A02799E9002C61209AE900297
:1069CD009B12098E90030A1209AE9002C612098E0F
:1069DD0090030D1209AE7B017A0279C912852290BE
:1069ED00029AE030E02BE4900309F0123890504CFD
:1069FD0012380FE0FF6045128D91900309E024C914
:106A0D00123812E0B40A057F0D128D911238F08004
:106A1D00DAE4900309F0123890502112380FE0FF9C
:106A2D00601A128D6E900309E024C9123812E0B479
:0D6A3D000A057F0D128D6E1238F080DA22EE
:105B41009002881238B890028EF0F5F01207657F46
:105B5100107E271289D3900288E030E04C7B017AD5
:105B610002798D128BA3EF60E6125C256012900220
:105B71008EE0640460D990028DE0FF128D91804A1D
:105B810090028DE064087018A3E060147F08128D04
:105B9100917F20128D917F08128D9112376D14F033
:105BA10090028DE0640D70A7227B017A02798D123B
:105BB1008B7AEF609A125C25603E90028EE064045D
:105BC100608D90028DE0FF128D6E1238F7C4F8548B
:105BD1000FC868FFE5F0C454F0488FF01207651252
:105BE10038F7FF90028CE0FD3395E045F0FEEF4D74
:105BF10012378504F0025B5090028DE06408701842
:105C0100A3E060147F08128D6E7F20128D6E7F08D5
:105C1100128D6E12376D14F090028DE0640D6003E9
:105C2100025B502290028DE0FF128F3490028CEFC4
:035C3100F0F4226A
:10629C009005BD1238B89005C3F01206057F107E2C
:1062AC00271289D39005BDE030E04F7B017A057948
:1062BC00C2128BA3EF60E612637060129005C3E00C
:1062CC00640260D99005C2E0FF128D91804D90055B
:1062DC00C2E06408701BA3E060177F08128D917FE9
:1062EC0020128D917F08128D9112381A1238671472
:1062FC00F09005C2E0640D70A4227B017A0579C28E
:10630C00128B7AEF6097126370602A9005C3E06479
:10631C0002608A9005C2E0FF128D6E12381AC454C6
:10632C00F012060512381AFF9005C1E04F12386AB8
:10633C0004F00262A99005C2E06408701BA3E0603F
:10634C00177F08128D6E7F20128D6E7F08128D6E56
:10635C0012381A12386714F09005C2E0640D60030D
:10636C000262A9229005C2E0FF128F349005C1EFA2
:03637C00F0F42218
:1039000090050E1238B8900514F0F5F0120765E432
:10391000900515F0A3F0A3F0A3F0A3F07F107E278D
:103920001289D390050EE020E0030239FB7B017A77
:10393000057913128BA3EF60E3900513E0FFC394A6
:1039400030405BEFD394395055123872500302392E
:1039500098900514E0640470C39005181238291279
:1039600036D01237DA1236D0120939C0001237BBFE
:10397000D0001236CD12093975F0641236C21238F1
:10398000D31236C61238811236CD12092DE4FEED5F
:103990004C7089900513E0FF128D91023A7F9005DB
:1039A00013E064087016A3E060127F08128D917F07
:1039B00020128D917F08128D91123791900513E09E
:1039C000640D600302391C900519123829A31236C0
:1039D000D31237DA1236D0120939C0009005181206
:1039E00037BED0001236931238231236CD12092D6D
:1039F000E4FFFEED4C600122023B027B017A057977
:103A000013128B7AEF700302391C900513E0FFC389
:103A100094305003023AA8EFD394394003023AA8F5
:103A20001238725006128D6E023A7F900514E064CF
:103A300004600302391C9005181238291236D0127E
:103A400037DA1236D0120939C0001237BBD0001253
:103A500036CD120939900516E075F0641236C6129B
:103A600038D31236C61238811236CD12092DE4FE33
:103A7000ED4C600302391C900513E0FF128D6E902F
:103A80000518E0A3F0900517E0A3F0900516E0A359
:103A9000F0900515E0A3F0900512E0900515F09068
:103AA0000514E004F002391C900513E06408701658
:103AB000A3E060127F08128D6E7F20128D6E7F084A
:103AC000128D6E123791900513E0640D6003023978
:103AD0001C900519123829A31236D31237DA123680
:103AE000D0120939C0009005181237BED000123626
:103AF000931238231236CD12092DE4FFFEED4C60EF
:103B0000012290051A12092D90050F12098EEE8FD1
:073B1000F01207657F01229E
:108DB400A2A9E433FEC2A9EF70059004D38007EFA3
:108DC400B401089004D5ECF0A3EDF0AF06EE24FF57
:038DD40092A9223F
:108EF900EF70059004D38007EFB4010A9004D5E020
:0E8F0900FCA3E0FD8003E4FCFDAF05AE0422F6
:100CF7009002BA1209AE12059DFF64026004EFB4B8
:100D0700032012372E90000112072DFF9004B6E042
:100D1700B5F00DA3E0B507089002C47401F0800791
:100D27008000E49002C4F012372074011206051205
:100D3700372E1238A630E00B12372012059D4420BB
:100D47001206059002C4E0600B12372012059D447D
:100D57004012060512372E1238A65430C4540FFF1E
:100D6700123720900001EF120617E92401F9E43A3F
:100D7700FAC003C002C00112059DFF12372E1238B8
:100D8700A654C01313543F4FD001D002D00312060C
:100D97000512372E12059DFF6027EFB4020A12379E
:100DA700201238304408801112372E12059DB403E3
:100DB7000D123720123830440C12060580037FE8E5
:100DC7002212372E1238ACFF6027EFB4020A12370F
:100DD700201238304480801112372E1238ACB403F9
:100DE7000D12372012383044C012060580037FE801
:100DF700229004D0E004FFF012372090000212384E
:100E0700567403F012372E12059D640270351236A0
:100E1700EF12372690000312072DFF9002C3E0243C
:100E27000212371C12372690000312072DE5F0FF38
:100E37009002C3E0240312371C123852E02404F056
:100E4700020E7E12372E12059D6403702A12372E6A
:100E57001236EF123852E01238C0FEAF0112372EA9
:100E6700E92403F9E43AFCAD017B087A00120F93F9
:100E77009002C3E0240AF012372E1238AC640270D5
:100E8700549002C4E060199004B8E0FEA3E0FD129C
:100E97003720123741A3123856E02402F0020F27F9
:100EA7009004B6E0FEA3E0FD123720123741A3EF0E
:100EB7001206179004B8A3E012374FA3A3EF120648
:100EC700179004B8E012374FA3A3A3123856E024B3
:100ED70004F0020F2712372E1238AC6403704190CA
:100EE70002C4E0600E1237201238DE120F80240889
:100EF700F0802D9004B6E0FEA3E0FD1237201237F4
:100F070050ED120617EEFF9002C3E0FEF5827583DF
:100F170000A3EF120617EE1238C0120F80240AF052
:100F27009002C3E01238E9EF12060512372E90003F
:100F37000D1205B61238E9EF1205E31238EA74020A
:100F47001205E39002C012381DD3947F40037FE55A
:100F5700221237201238DEFEAF0112372E90000E14
:100F67001209B7AC02AD0112372E90000D1205B66B
:100F7700FB7A00120F937F0022FEAF017C047DBA3B
:0C0F87007B087A00120F939002C3E02256
:1080F000EF049002BDF0ED04A3F0E49002BBF09019
:1081000002BDE0FF9002BBE0C39F5036E4A3F090B5
:1081100002BEE0FF9002BCE0C39F50181265389089
:1081200002BAEFF064156004E0B4E1089002BCE02C
:1081300004F080DB9002BAE060089002BBE004F03B
:0881400080BD9002BAE0FF22AD
:10885000C003C002C0017B017A2379019002BD12DE
:1088600009AE7A0279B99002C01209AED001D002E5
:10887000D003120CF7EF70139002B9E0902300F0D0
:0C8880009004D1E0FFA3E0FD1280F02284
:10920100E49004B0F09004B0E004F0E0B430F62251
:10900B00E49004B1F0A3F09004B11238CC9004B109
:0A901B00E07004A3E0646970EE2227
:108E5C00E49004B3F0A3F0C39004B4E09F9004B387
:108E6C00E09E500B12900B9004B31238CC80E82289
:107C770090028B1209AE90028EECF0A3EDF0E49027
:107C87000291F0A3F090028EE0FCA3E0FD90029138
:107C9700E0FEA3E0FFC39DEE9C503B900290E0FD09
:107CA700600F7C0012064BED4C700612383D1269CE
:107CB7009D90028B12098E900291E0FEA3E0F5825F
:107CC7008E831236E07A2C79E57F0112699D900246
:077CD700911238CC80AF22AE
:105FEC0090028812383A12699D7A2C79EB1260A1D2
:105FFC0012059D1237F31236E87A2C79F31260AF42
:10600C0090000112072DFFE5F01236E57A2D790686
:10601C001260AF9000031237631236E87A2D7915AF
:10602C007F0112699D7A2D79281260A1E92405124D
:10603C003734127C7790028812098E90000F123739
:10604C00631236E87A2D793B7F0112699D7BFF7ACA
:10605C002D79511260BBE92411123734127C7790E0
:10606C0002881236DA7A2D79671260BB90001A1208
:10607C0036E07A2D79791260C790001C1236E07ADE
:10608C002D798D1260C790001D1236E07A2D799D06
:10609C007F0102699D7BFF7F0112699D900288122E
:1060AC00098E227F0112699D90028812098E227F2F
:1060BC000112699D90028812098E227F0112699D3E
:0760CC0090028812098E22E8
:103EE60090028812383A12699D7A2D79AF124039BC
:103EF6009000031237CD90001D12385E1236E87A14
:103F06002D79BE12405790001E1205B6FE3395E07D
:103F160090029EF0A3CEF07A2D79D7124039900008
:103F2600211236E07A2D79E012405712384C1313DD
:103F360054031236E37A2D79EA12406313135403BD
