:108E0000C00F748EC0E0C082C083750F0A75A100C8
:108E10000000000022C00F748EC0E0C082C08375C5
:108E20000F1F75A1010000000022C00F748EC0E06A
:108E3000C082C083750F3475A1020000000022C0FB
:108E40000F748EC0E0C082C083750F4975A1030006
:048E500000000022FC
:0D9E3300EF909E3C93908E00730A1F3449FF
:10837700EB60010A4A601D8C838D8263A2018E83A4
:108387008F8263A20100E0A363A201F0A363A201AD
:10839700DBF4DAF222C0A275A2010000C082C0831A
:1083A70063A2010000C082C083EB60010A4A601D1E
:1083B7008C838D8263A2018E838F8263A20100E08A
:1083C700A363A201F0A363A201DBF4DAF2D083D0A6
:0D83D7008263A2010000D083D082D0A222D8
:03000000020EBC31
:100EBC007598007599209022E074D9F090270E74E3
:100ECC0000F09027027470F09027037400F0E49007
:100EDC000000F0900000E004F0E0B4C8F6902700A9
:100EEC007480F09027087400F0902709F090272068
:100EFC00F0902721F0902722F0902723F0902724C0
:100F0C00F0902725F0902726F0902727F09027289F
:100F1C00F0902729F090272AF090272BF075990054
:100F2C009022E17400F09022E27490F09022E77429
:100F3C00FFF09022E8F09022E9F09022EAF0902263
:100F4C00EBF09022ECF09022ED7400F09022EEF099
:100F5C009022EFF09022F0F09022F1F09022F2F03B
:100F6C00750D18750E00758121C2C1128E0A020F03
:010F7C00B8BC
:0C9E7200016800AA005A002D0015000B2A
:0A490E00420738000042073600009F
:10976D00E0FEA3E0FFC3229006D3121BAD9006D3FB
:10977D00021B95EFF0A3EDF0A3EBF0D394082212AA
:08978D001BF69006CC021C162D
:0E9DFB00902784E054BFF00000E04440F022C6
:107FBE009001C8129780400A7F127E01129B2E7F7D
:107FCE0012229001C9E0FFD394035004EFB4010ACA
:107FDE007F117E01129B2E7F11229001C8E090220C
:107FEE00E66032E04404F0902781E0440CF09022E9
:107FFE00D4E04480F0E054F0FF9001CAE04F9022AC
:10800E00D4F09001C9E0C43354E0FF9022D4E05480
:10801E009F4FF08012E054FBF09022D4E0547FF09A
:0A802E00902781E054F3F07F002258
:10922E00900858EDF0900857EFF0D394035006A332
:10923E00E09403400A7F117E01129B2E7F11229033
:10924E002786E054FCFF900857E04F902786F09059
:10925E000858E025E025E0FF9022D5E054F34FF0CA
:03926E007F00225C
:1092B3009001C8EFF0A3EDF06006E0D3940E400AEE
:1092C3007F117E01129B2E7F11229001C9E004C4FD
:1092D30054F0FF9022D5E0540F4FF09001C8E09076
:1092E30022D56006E04402F08004E054FDF07F00E4
:0192F3002258
:10999A00A2AFE433FFC2AF9022D7E0FDE0FEEF248E
:1099AA00FF92AFAF06EFFEEDFF7C007D10121908A3
:0199BA00228A
:109D3D009022D6E05478131313541FFF60011F2295
:108AA30074FFF5F01219CD9001C47413F0E490072C
:108AB30030F0A3F09022D6E05470601012999AEE31
:108AC3008FF01219CDE49001C4F08019900730E4BF
:108AD30075F00112193EC3900731E094D09007302E
:108AE300E0940740CF9001C4E0FF600D7401FEEFF6
:0F8AF3004E6005129B2E8001009001C4E0FF220F
:107369009001C4129780400A7F127E01129B2E7FE2
:1073790012229001C5E0D39403400A7F117E0112C5
:107389009B2E7F11229001C4E0605B7D02E4FF1215
:1073990092B39001C5E0FDA3E0FB7F01127FBE908F
:1073A90001C7EFF0704C129DFB900863E025E024C3
:1073B90072F582E4349EF583E493FF740193900798
:1073C90032CFF0A3EFF0E4A3F0A3F09007321297C5
:1073D9006D900735E09F900734E09E5015E475F0F5
:1073E9000112193E80E5E4FBFDFF127FBE9001C743
:0873F900EFF09001C7E0FF2254
:1092F4009001C1121C169001C0EFF0D39408400AEB
:109304007F127E01129B2E7F12229001C0E0FBE4AB
:10931400FD7F01127369EF6001229001C1121BF6F7
:10932400128AA3EF600122E4FBFDFF1273697F0040
:019334002216
:1053DC009006C5EEF0A3EFF0A3ECF0A3EDF0A3EA7A
:1053EC00F0A3EBF0A3E0FFC3940A4006EFD3940FB5
:1053FC00400A7F117E01129B2E7F11229006C5124E
:10540C00976D9006C8E09FEE6480F89006C7E06444
:10541C008098400A7F147E01129B2E7F14229006E6
:10542C00C7E0FAA3E0FBC39006C6E09BFE9006C55E
:10543C00E09A9006CFF0A3CEF09006C912976D9B20
:10544C00EA6480F8EE6480985009E49006D1F0A3E9
:10545C00F080389006C5E0FCA3E0FDD3EF9DEC6432
:10546C0080F8EE648098400B9006CFE0FFA3E0A399
:10547C00CF80149006C712976D9006CAE09FFF90DC
:10548C0006C9E09E9006D1F0A3EFF09006CBE0FFAA
:10549C0074017E00A807088005C333CE33CED8F93B
:1054AC0024FFFFEE34FFFEE4FCFD9006D3121BAD8F
:1054BC009006D1E0FEA3E0FFE4FCFDA3121BA112B9
:1054CC001A26129774C006C0079006CFE0FEA3E020
:1054DC00FBAA06E4F9F8D007D006121AB112977499
:1054EC00EE547FFE9006CC121BF6EE8FF01219CD07
:0354FC007F00220C
:0C9E5A007B017A0779387F071292F4220E
:0C9E66007B017A0779367F081292F42203
:108B02009007C1121C169007C0EFF0C3940A4006EA
:108B1200E0D3940F400A7F117E01129B2E7F112217
:108B22007B017A0779C4128AA3EF60012290073889
:108B3200E0FEA3E0FF900736E0FCA3E0FD9007C053
:108B4200E09006CBF09007C112978C9007C4E0FA30
:0D8B5200A3E0FB1253DCEF6001227F002244
:10753100900710EDF0A3121C1690070FEFF0D394F3
:1075410008400A7F127E01129B2E7F1222900710A3
:10755100E0FFC3940A4006EFD3940F400A7F117EE7
:1075610001129B2E7F11227B017A0779167F071268
:1075710092F4EF6001227B017A0779147F0812925D
:10758100F4EF60012290070FE0FF7B017A07791881
:107591001292F4EF600122900716E0FEA3E0FF9043
:1075A1000714E0FCA3E0FD900710E09006CBF090FB
:1075B100071112978C900718E0FAA3E0FB1253DC35
:0775C100EF6001227F0022B0
:0449180041086301EE
:10781900900839EFF0E4A3F0EF14601814601C1419
:10782900602114602614602B2405702F90083B7486
:1078390008F0802DE490083BF0802690083B7420E6
:10784900F0801E90083B7440F0801690083B7460ED
:10785900F0800E90083B740CF0800690083A741280
:10786900F090083AE0FF60137402FEEF4E600512D3
:107879009B2E80010090083AE0FF22900839E090A1
:107889000863F0538E1090083BE0428EE58E9027F6
:107899008530E306E04404F08004E054FBF07F0007
:0178A90022BC
:030026008F98228E
:03002E008F992285
:030036008F9A227C
:08491C004108590041085A004E
:0B9E8A00EFF0A3EDF0A3EBF0E5B42235
:1088C30090083C129E8A20E20A7F107E03129B2EA0
:1088D3007F1022A2AFE433FFC2AF90083EE0FE90C8
:1088E30022EF30E106E04404F08004E054FBF0EEB4
:1088F30030E003D38001C3928890083DE024FF92C7
:10890300B890083CE024FF92A89022F2E030A8053A
:108913004404F0800354FBF0EF24FF92AF7F002266
:1089230090083F129E8A20E30A7F117E03129B2E3A
:108933007F1122A2AFE433FFC2AF900841E0FE9063
:1089430022EF30E106E04408F08004E054F7F0EE53
:1089530030E003D38001C3928A900840E024FF9261
:10896300BA90083FE024FF92AA9022F2E030AA05D1
:108973004408F0800354F7F0EF24FF92AF7F002206
:044924004108648062
:108B5F00FDF08DF09006C3E402193E9006DCE0FEB6
:108B6F00A3E0FFA3E0FCA3E0FDC39FEC9E229006D1
:108B7F00DEE475F00102193E9006B7E0FEA3E0FFB8
:108B8F00F5828E8322902703F0EE902702F0222D9C
:108B9F00F582EE3CF583E49322E49006E1F0900633
:0D8BAF00D7E0229006E2121BAD9006E222F4
:069FCA00E4900864F0229F
:079FBC009008647480F0229C
:10942F0090270EE4F090270DE020E0F900000000F7
:10943F00EF128B94902708E4F0A304F0900864E0F7
:10944F004402902700F00000000090270DE020E07C
:08945F00F99027007480F0224F
:1040CB009006B3121C169006B1EEF0A3EFF0EE546F
:1040DB00014F600A7F147E04129B2E7F14229006E0
:1040EB00B1E0FEA3E07802CEC313CE13D8F9FF9054
:1040FB0006BDEEF0A3EFF043992090270EE4F0906D
:10410B000863E070047F808002E4FF1286609008F1
:10411B0064E0701D902700E064807015902708E024
:10412B00700FA3E0700B902702E0B47004A3E06063
:10413B00099006BF7413F00242861297E59006BDF4
:10414B00E0FEA3E0FF12942F9006B6E030E00302EE
:10415B00426AE49006C0F090270DE020E0F990272A
:10416B00097401F0902708E4F09006B7F0A3F090E3
:10417B0006BDE0FFA3E09006BBCFF0A3EFF09006E7
:10418B00B9E4F0A37480F0E49006C3F0A3F01297A7
:10419B00E59006BBE0FEA3E0128B949006B3121BD6
:1041AB00F6128B8712181E902707128B5F8F828E49
:1041BB0083A312181EFF902706F08FF0128B631249
:1041CB008B87A3A312181E902705128B5F8F828EED
:1041DB0083A3A3A312181EFF902704F09006C3E439
:1041EB008FF012193E900864E04401902700F00014
:1041FB000000009006B7E475F00412193E9006BB60
:10420B00128B809006B974FFF5F012193E9006B927
:10421B00E07002A3E0600302419990270DE020E0DB
:10422B00F99006B1E0FEA3E0FFE49006C1F0A3F025
:10423B00FDFCEF128B9EFB9006C1E48BF012193E36
:10424B000DBD00010CE4B505E9ECB402E59006C127
:10425B00E0FEA3E0FFA3E0B5060CA3E0B50707E47F
:10426B009006BFF080159006BF7415F09006C0E065
:10427B0004F0E0C394645003024162902700748001
:10428B00F09027027470F0A3E4F0902708F0A3F0ED
:10429B007F011286605399DF9006BFE0FF600D74BB
:1042AB0004FEEF4E6005129B2E8001009006BFE0CE
:0242BB00FF22E0
:106B7B009006D7EEF0A3EFF0A3121C16128BA8FE13
:106B8B00A3E0FFE4FCFD128BB2121BA19006DDE02B
:106B9B0024FFFF9006DCE034FFFEE4FCFD121A1923
:106BAB00128BB2121B95ED4C600A7F127E04129B66
:106BBB002E7F1222128BA8FFA3E09006E6CFF0A344
:106BCB00EFF0E49006E0F0E49006DEF0A3F0128B19
:106BDB006A50239006E6E0FEA3E0128B9EFF900620
:106BEB00D9121BF69006DEA3E0F5828C83EF121808
:106BFB007F128B7D80D8E49006DEF0A3F0128B6AB7
:106C0B00502E9006D9121BF68D828C8312181EFF04
:106C1B009006E6E0FAA3E02DF582EA3CF583E493D7
:106C2B006F60089006E17416F08005128B7D80CDA5
:106C3B009006E1E0600B9006E0E004F0E064647025
:076C4B00869006E1E0FF2244
:108BBC00EFF0A3EDF0A3EBF0E59822E0FF7405FED7
:108BCC00EF4E227401F0A374FEF0227402F0A37431
:108BDC00FDF0227404F0A374FBF0227408F0A3746B
:108BEC00F7F0227410F0A374EFF0227420F0A37449
:108BFC00DFF0227440F0A374BFF0227480F0A31451
:098C0C00F02274FFF0E4A3F02251
:0B9E9500EF6004439810225398EF2266
:08966300E0FFA3E0FDA3E0FB22
:10966B00EFD394074008EF640A60037F1222ED608A
:10967B0009EBD39401400C7F1122EBD394024003EE
:06968B007F11227F002286
:10506D009001C0128BBC20E40A7F107E05129B2E8E
:10507D007F10229001C01296639001C5EFF0601170
:10508D00128BC76005129B2E8001009001C5E0FFB9
:10509D00229001C0E0121CA850C40050CC0150D485
:1050AD000250DC0350E40450EC0550F40650FC07AC
:1050BD0051040A0000510A9001C3128BCF803E901B
:1050CD0001C3128BD780369001C3128BDF802E90D7
:1050DD0001C3128BE780269001C3128BEF801E90C7
:1050ED0001C3128BF780169001C3128BFF800E90B7
:1050FD0001C3128C0780069001C3128C0E9001C162
:10510D00E060219001C4E0FF52B19022EAE05FF02F
:10511D009001C2E06006A3E042C180669001C4E048
:10512D0052C1805E9001C2E0FF701D9022EAC083E3
:10513D00C082E0FE9001C3E0FDEE4DD082D083F041
:10514D009022E7E04DF08030EF9022EAB40117C0D5
:10515D0083C082E0FF9001C3E0FEEF4ED082D0838A
:10516D00F09022E78000C083C082E0FF9001C4E090
:10517D00FEEF5ED082D083F09001C3E0FF42B1EF2D
:05518D0042B97F002281
:105192009007C6128BBC20E40A7F107E05129B2E5C
:1051A2007F10229007C61296639007CBEFF0601132
:1051B200128BC76005129B2E8001009007CBE0FF87
:1051C200229007C6E0121CA851E90051F10151F9E1
:1051D20002520103520904521105521906522107C3
:1051E20052290A0000522F9007C9128BCF803E909D
:1051F20007C9128BD780369007C9128BDF802E9099
:1052020007C9128BE780269007C9128BEF801E9088
:1052120007C9128BF780169007C9128BFF800E9078
:1052220007C9128C0780069007C9128C0E9007C717
:10523200E060219007CAE0FF52B29022EBE05FF0FB
:105242009007C8E06006A3E042C280669007CAE009
:1052520052C2805E9007C8E0FF701D9022EBC083AF
:10526200C082E0FE9007C9E0FDEE4DD082D083F00F
:105272009022E8E04DF08030EF9022EBB40117C0AD
:1052820083C082E0FF9007C9E0FEEF4ED082D08358
:10529200F09022E88000C083C082E0FF9007CAE05D
:1052A200FEEF5ED082D083F09007C9E0FF42B2EFFA
:0552B20042BA7F00225A
:1052B7009001C0128BBC20E40A7F107E05129B2E42
:1052C7007F10229001C01296639001C5EFF0601124
:1052D700128BC76005129B2E8001009001C5E0FF6D
:1052E700229001C0E0121CA8530E00531601531E52
:1052F70002532603532E04533605533E06534607DF
:10530700534E0A000053549001C3128BCF803E9036
:1053170001C3128BD780369001C3128BDF802E908A
:1053270001C3128BE780269001C3128BEF801E907A
:1053370001C3128BF780169001C3128BFF800E906A
:1053470001C3128C0780069001C3128C0E9001C115
:10535700E060219001C4E0FF52B49022ECE05FF0DE
:105367009001C2E06006A3E042C480669001C4E0F9
:1053770052C4805E9001C2E0FF701D9022ECC08392
:10538700C082E0FE9001C3E0FDEE4DD082D083F0F5
:105397009022E9E04DF08030EF9022ECB40117C085
:1053A70083C082E0FF9001C3E0FEEF4ED082D0833E
:1053B700F09022E98000C083C082E0FF9001C4E042
:1053C700FEEF5ED082D083F09001C3E0FF42B4EFDE
:0553D70042BC7F002232
:0C492800410842004108430041084400DF
:10933500EFF0A3EDF0A3EBF0E592227401F0A37436
:10934500FEF0227402F0A374FDF0227410F0A374F1
:10935500EFF0227420F0A374DFF0227440F0A374C0
:10936500BFF0227480F0A314F02274FFF0E4A3F0A0
:0193750022D5
:049B8000E0FD7F0184
:109B8400ED600543F904800353F9FBEF600443E9F6
:069B9400042253E9FB224C
:0B9EA000EF6004439202225392FD2267
:105A6F009007A412933520E10A7F107E0F129B2E10
:105A7F007F10229007A7E0D39403400A7F207E0F68
:105A8F00129B2E7F2022E49007AAF09007A4E01229
:105A9F001CA85AC0005AC8015AD0025ADC035AE84F
:105AAF00045AF0055AF8065B00075B080A00005B12
:105ABF00109007A8129340804E9007A81293488029
:105ACF00469007A87404F0A374FBF0803A9007A8DF
:105ADF007408F0A374F7F0802E9007A812935080EB
:105AEF00269007A8129358801E9007A812936080E3
:105AFF00169007A8129368800E9007A812936F80D4
:105B0F00069007AA7430F09007AAE0FF6013740F95
:105B1F00FEEF4E6005129B2E8001009007AAE0FF5A
:105B2F00229007A5E060349007A7E0FF30E106A3BD
:105B3F00E042EA80069007A9E052EAEF30E00890D1
:105B4F0007A8E042EB80069007A9E052EB9007A868
:105B5F00E042EC9007A6129B8080069007A9E052C6
:045B6F00EC7F0022A5
:0B9EAB00EF6004439204225392FB225C
:105B73009007AB12933520E20A7F117E0F129B2E02
:105B83007F11229007AEE0D39403400A7F217E0F5A
:105B9300129B2E7F2122E49007B1F09007ABE01215
:105BA3001CA85BC4005BCC015BD4025BE0035BEC31
:105BB300045BF4055BFC065C04075C0C0A00005CF8
:105BC300149007AF129340804E9007AF1293488012
:105BD300469007AF7404F0A374FBF0803A9007AFCC
:105BE3007408F0A374F7F0802E9007AF12935080DF
:105BF300269007AF129358801E9007AF12936080D0
:105C0300169007AF129368800E9007AF12936F80C0
:105C1300069007B17431F09007B1E0FF6013740F81
:105C2300FEEF4E6005129B2E8001009007B1E0FF4E
:105C3300229007ACE060349007AEE0FF30E106A3AA
:105C4300E042F280069007B0E052F2EF30E00890B5
:105C530007AFE042F380069007B0E052F39007AF3E
:105C6300E042F49007AD129B8080069007B0E052AB
:045C7300F47F002298
:0B9EB600EF6004439208225392F72251
:1067ED009007B212933520E30A7F137E0F129B2E72
:1067FD007F13229007B5E0D39403400A7F237E0FC9
:10680D00129B2E7F2322E49007B8F09007B2E0127E
:10681D001CA868380068400168480468500568582D
:10682D000668600768680A000068709007B61293E2
:10683D004080369007B6129348802E9007B612937B
:10684D005080269007B6129358801E9007B612936B
:10685D006080169007B6129368800E9007B612935B
:10686D006F80069007B87433F09007B8E0FF60139F
:10687D00740FFEEF4E6005129B2E8001009007B83D
:10688D00E0FF229007B3E060349007B5E0FF30E100
:10689D0006A3E042FA80069007B7E052FAEF30E027
:1068AD00089007B6E042FB80069007B7E052FB90D8
:1068BD0007B6E042FC9007B4129B8080069007B7A4
:0668CD00E052FC7F0022F6
:0D9E4000F0A3F0EF24FF92AF902190E022FC
:069FD000902191EFF02248
:109D4D00EF9021916005E04402F022E054FDF022F5
:109D5D00EF9021916005E04404F022E054FBF022E5
:109D6D00EF9021916005E04408F022E054F7F022D5
:109D7D00EF9021916005E04410F022E054EFF022C5
:099F7100902158EFF0EEA3F0225C
:099F7A0090215AEFF0EEA3F02251
:0F9DDD00AC02AD017B087A007F507E21028377B4
:109B9A00A2AFE433FFC2AF902004E4F09020011298
:0A9BAA009E404440F0E054BFF0225A
:109BB400A2AFE433FFC2AF902084E4F0902081127E
:0A9BC4009E404420F0E054DFF02240
:0B9EC1007F16129FD0129B9A029BB4E8
:10915A0015660AB30AB2055906B4035A035C01AE8E
:10916A0001C200E10104008201D200E90112008972
:10917A0000B20059008A0045008A0045008A00456D
:10918A00023001180118008C0096004B004600239B
:08919A00003C001E003C001E19
:104934004106F6004106F5034106F4004106F30082
:044944004106F20036
:108F490075F002121BEAE493FF7401939006EACFCD
:108F5900F0A3EFF0E4A3F0A3F0229022007438F01C
:108F69009006F5E025E025E0229006EAE0FEA3E080
:108F7900FFC39006EDE09F9006ECE09E229006EC80
:0E8F8900E475F00102193E9022007434F022CB
:0E9E0900EF30E0047F018002E4FF1268D322F4
:079FC300902200741CF02243
:106DEF009001C0EEF0A3EFF0A3EDF0600B902783BE
:106DFF00E4F09022D07488F0A2AFE4339001C3F096
:106E0F00C2AF90228DE09001C4F07F11129F8C9041
:106E1F002200742CF09001C57413F0E49006E8F092
:106E2F00A3F09001C0E0FEA3E0FFC39006E9E09F4E
:106E3F009006E8E09E502890228DE020E619A3E00E
:106E4F005407FF70069001C5F08014EFB40408904A
:106E5F0001C57412F080089006E8128F8980C390E4
:106E6F00228F74FFF09001C4E090228DF09001C347
:106E7F00E024FF92AF9001C2E0600C9001C5E0707A
:106E8F00069022D07484F09001C5E0FF600D740766
:106E9F00FEEF4E6005129B2E8001009001C5E0FFB2
:016EAF0022C0
:109D2C007F0A129F8CE4FD7F011295A57F01029D95
:019D3C008D99
:107C58009001C0EFF0BF040280099001C0E0D39406
:107C680005400A7F187E07129B2E7F1822128F90DC
:107C7800E4FF1291129001C0E0FF127B519001C005
:107C8800E014601614601B14602024FE6024240590
:107C980070269022117409F0801E9022117405F04C
:107CA80080169022117403F0800E9022117402F055
:107CB80080069022117410F0902200743CF07F012D
:0E7CC8001291129001C0E09006F5F07F0022AC
:108FE400900865EFF0127B51900865E0FF1460165D
:108FF40014601B14602024FE602424057026902233
:10900400117409F0801E9022117405F080169022CC
:10901400117403F0800E9022117402F080069022E5
:0C902400117410F09006F5EFF07F0022B0
:1093F600900866EFF07F03127C58900866E0902292
:10940600246013E04440F0902785E04408F0902261
:1094160037E04480F022E0543FF0902785E054F78F
:09942600F0902237E0547FF0229F
:106A99009001C0EFF0C3940B4006E0D3941A400A6A
:106AA9007F177E07129B2E7F1722128F90E4FF1209
:106AB90091129001C0E0121CA86AF60B6AFA0C6ADE
:106AC900FE0D6B020E6B060F6B0A106B0E116B122B
:106AD900126B16136B1A146B1E156B22166B261785
:106AE9006B2A186B2E196B321A00006B3E7F65807A
:106AF9003A7F6A80367F6F80327F74802E7F7980FB
:106B09002A7F7E80267F8380227F88801E7F8D80DA
:106B19001A7F9280167F9780127F9C800E7FA180BA
:106B29000A7FA680067FAB80027FB07E09126F6B59
:106B39009001C1EFF09001C1E0FF60117407FEEF11
:106B49004E6006129B2E026ABB00026ABB902200AD
:106B5900743CF07F011291129001C1E0FF600D7445
:106B690007FEEF4E6005129B2E8001009001C1E0E7
:026B7900FF22F9
:0F9DEC00E4FE902284E0FF70050EEEB4FAF4223C
:089F8C00EF541F90228DF0221A
:109C1C00A2AFE433FEC2AFED24FF92F8EF24FF9223
:099C2C00E8AF06EF24FF92AF221D
:10911200EF603D90228EE054F7F0E04408F0759144
:1091220010A2AFE433FFC2AF902084E4F09020811C
:10913200F0A3F0EF24FF92AFE49006F4F0902190B8
:10914200E04420F0E054DFF0902201E054FEF022EF
:08915200902201E04401F0222B
:069FD600EF24FF92AF2210
:03003E0002652F29
:106C5200902002E4F0902303E0902192F0902280B1
:106C6200E05470FF6007641060037F15229006F302
:106C72007401F09006F6E0547DF09001C674E1F0E4
:106C820012003E128F63245AF582E43491F583C0D8
:106C920083C082900863E0D082D083128F49128F22
:106CA2007250139006F6E030E107E49001C6F080DE
:106CB20005128F8680E89001C6E0B4E10F128F9032
:106CC200902002E4F09006F3F07FE122E49006F3D4
:106CD200F09001C6F0902301E030E5399001C674CE
:106CE200E9F0128F692472F582E43491F583C0834E
:106CF200C082900863E0D082D083128F49128F72D3
:106D020050139006F6E030E707E49001C6F08005E4
:106D1200128F8680E8902002E4F09001C6E0FF2204
:107401009006F3E060030274989023807405F0A362
:107411007402F0EF6004E04410F0902382E4F0A3E2
:10742100EDF090222CE090028FF090222CE044208D
:10743100F09020027480F0902280E0547060046427
:10744100107047128F63248AF582E43491F583C06A
:1074510083C082900863E0D082D08375F002121B52
:10746100EAE493FF7401939006EE128F589006EEB2
:10747100E0FEA3E0FFC39006F1E09F9006F0E09EDE
:107481005005128F8980E6128F90902002E4F090CF
:08749100028FE090222CF02292
:1095A5009001C0EFF0A3EDF0D39402400A7F117E45
:1095B50007129B2E7F11229001C0E0600AA3E044B0
:1095C5001090222CF0800690222C7430F07F00221F
:069FDC0090222DEFF0229F
:109D8D00EF90227E6005E04408F022E054F7F022C7
:1076F30090085BEFF0D39403400A7F117E07129B3F
:107703002E7F112290085BE070109006F2E0700A61
:107713007F167E07129B2E7F1622E490085CF09062
:10772300085BE0B4010D129FC37F0112777F7401E0
:10773300F0804390085BE0B4020D129FC37F0212F6
:10774300777F7402F0802F90085BE0B40310129FE0
:10775300C37F031285F69006F27403F08018E4FFEA
:107763001285F6E4FD7F107E27126DEF90085CEF23
:10777300F0E49006F2F090085CE0FF221285F690A8
:0377830006F222E9
:109A3D009001C0EFF0D39416400A7F117E07129B60
:0F9A4D002E7F11229001C0E0FF12573A7F0022B6
:109D9D00EF6009AF05129CCC439EC022539E3F221B
:0E9E1700EF6007129FB4439CC022539C3F2271
:10946700902281E0541FD39402402C9022BDE0202B
:10947700E0257F019022B0E04401F0E4FDFC90225A
:10948700BDE030E004E4FF800B0DBD00010CBC0320
:08949700EDBDE8EAEF70DD22F3
:0849480041085E0041085D001A
:105F7D009022EDE06580FF9022F0E05FFF9022EE31
:105F8D00E06590FE9022F1E05EFE9022EFE065B0BC
:105F9D00FC9022F2E05CFC9022F0E022E5E8F0AD0E
:105FAD009AA9E9759A07E4F5E8F5E99022E1746E8E
:105FBD00F09022E6E054FBF0E054E7F022E090226E
:105FCD00E5F09022E27490F0D2D875E88075A88043
:105FDD0022E0FEEFF4FDEE5DF022EEF0A3EFF0A374
:105FED00EDF0A3EBF09022F0E055B9FFE06F22E564
:105FFD00A8F0E4F5A89022EBE0229022F1E055BA4A
:10600D00FFE06F229022F2E055BCFFE06F22EF44DB
:10601D0004FF9022EBE054E7F022E0FAA3E0FBEA64
:10602D009022E3F0A3EBF022AF058F9AD2D8538FD5
:10603D00BF22E0FEEFF4FFEE5FF022FFE0540333EA
:10604D00333354F8FEEF4E22EF9022E0F0E4F59A50
:10605D0022E0F5E8AF018FE922E0FF7401A80708FF
:0B606D002254012FFFE0FDA8060822CE
:1086C9009007F2EAF0A3EBF0ED24FF92FCEF604C87
:1086D9009007F2E07002A3E070109007F4E0700ACE
:1086E9007F117E08129B2E7F11229022E1746EF079
:1086F9009007F2E0FCA3E0FDEC9022E3F0A3EDF09B
:108709009007F4E09022E5F0A3E054E7F0E044801C
:10871900F0D2EC9022E0E04420F08009C2EC9022F3
:08872900E0E054DFF07F0022C4
:10969100900867EFF020E0069022E07498F09027A0
:1096A10083E4F0129FC3902780E4F0A3F090086751
:0E96B100E030E007902203E0547FF07F0022BB
:10980D009022E074D8F090278074F6F0A37423F0C2
:10981D00129827EF600312982722129FC3E4FD7F51
:07982D00107E27126DEF22EF
:107CD600900845EFF0A3EDF0A3EBF0E4FFFE90086B
:107CE60045E0FDA806088002C313D8FC900846129A
:107CF600606E8002C313D8FC90084712606E800243
:107D0600C313D8FC54012FFF0EEEB407D1EFC39472
:107D160002400A7F177E08129B2E7F1122E4FFFE87
:107D2600129574AFA8AEE8ADE9900845E0547FF52A
:107D3600A8A3E0F5E8A3E0F5E943A880758701006C
:0C7D460000E4F5A88DE98EE88FA8FF226C
:104CE6009006F7125FE76002800C12600760028090
:104CF60005126011600A7F157E08129B2E7F152211
:104D06009006FAE0D39403400A7F117E08129B2E88
:104D16007F1122129FC3E4900701F0FFFE129574E3
:104D26009006FC125FFC900702F09022E1E09007EB
:104D360000F09022E0E09006FFF09022E6E0900678
:104D4600FEF09006FD125FA99006FBE0FC9022E6BD
:104D560030E706E0547FF08004E04480F09022E6DD
:104D6600C083C082E09006FA126048D082D083F0F9
:104D76009006F71260279006F9125FCA7FB9EC30E9
:104D8600E004EF54DFFF9006FBE030E10312601B06
:104D9600126055E5D220E5FB125F7D6F701DAF06F0
:104DA600A3E06F7016AF04A3E0B5040F7587020089
:104DB6000000000000000000008006900701741249
:104DC600F01260359006FD12605E9006FFE09022BC
:104DD600E0F09006FEE09022E6F0900700E09022D8
:104DE600E1F0900702E09022EBF09006FCE0F5A8D7
:104DF600900701E0FF600D7408FEEF4E6005129B00
:104E06002E800100E4FD7F107E27126DEF900701D2
:034E1600E0FF2298
:104F4400900703125FE76002800C12600760028022
:104F540005126011600A7F157E08129B2E7F1522B0
:104F6400900706E0D39403400A7F117E08129B2E1B
:104F74007F1122E490070DF07F107E271295749024
:104F84000708125FFC90070EF09022E1E090070CF6
:104F9400F09022E0E090070BF09022E6E090070A00
:104FA400F0900709125FA9900707E0FC9022E63011
:104FB400E706E0547FF08004E04480F09022E6C0ED
:104FC40083C082E0900706126048D082D083F090BC
:104FD4000703126027900705125FCA7FBAEC30E01E
:104FE40004EF54DFFF900707E030E10312601B1267
:104FF4006055E5D220E5FB125F7D6F701DAF06A3FF
:10500400E06F7016AF04A3E0B5040F7587020000CB
:105014000000000000000000800690070D7412F0EC
:1050240012603590070912605E90070BE09022E051
:10503400F090070AE09022E6F090070CE09022E15D
:10504400F090070EE09022EBF0900708E0F5A890AE
:10505400070DE0FF600D7408FEEF4E6005129B2EF5
:0950640080010090070DE0FF221D
:105D7B00900784EF125FF16002800C1260076002E3
:105D8B008005126011600A7F157E08129B2E7F150D
:105D9B0022E490078AF07F107E2712957490078576
:105DAB00125FFC90078BF09022E1E0900789F09056
:105DBB0022E0E0900788F09022E6E0900787F090D1
:105DCB000786E5E8F0AF9A125FAE125FCF7E9B902D
:105DDB000784E030E107EE4404FE12601FEE126010
:105DEB0056E5D220E5FB9022EDE06580FE9022F097
:105DFB00E05EFE9022EEE06590FD9022F1E05DFD0D
:105E0B00125F976E701DAE05A3E06E7016AE04A305
:105E1B00E0B5040F758702000000000000000000D1
:105E2B0000800690078A7412F01260379007861272
:105E3B00605E900788E09022E0F0900787E0902268
:105E4B00E6F0900789E09022E1F090078BE090223A
:105E5B00EBF0900785E0F5A890078AE0FF600D74E2
:105E6B0008FEEF4E6005129B2E80010090078AE022
:025E7B00FF2204
:10898300900849EDF0A3EBF0900848EFF0D394077B
:10899300400A7F167E08129B2E7F162290084812EB
:1089A30060668002C333D8FCFF9022EAE04FF09068
:1089B300084AE09022ED600BE04FF09022E7125F4F
:1089C300DE8009125FDE9022E7E04FF0900849E075
:1089D3009022F06005E04FF0800312603F7F002299
:1089E30090084CEDF0A3EBF090084BEFF0D3940715
:1089F300400A7F167E08129B2E7F162290084B1288
:108A030060668002C333D8FCFF9022EBE04FF09006
:108A1300084DE09022EE600BE04FF09022E8125FE9
:108A2300DE8009125FDE9022E8E04FF090084CE010
:108A33009022F16005E04FF0800312603F7F002237
:108A430090084FEDF0A3EBF090084EEFF0D39407AE
:108A5300400A7F167E08129B2E7F162290084E1224
:108A630060668002C333D8FCFF9022ECE04FF090A5
:108A73000850E09022EF600BE04FF09022E9125F84
:108A8300DE8009125FDE9022E9E04FF090084FE0AC
:108A93009022F26005E04FF0800312603F7F0022D6
:1079C000EFF0A3ECF0A3EDF0A3EAF0A3EBF0E59A5F
:1079D00022EFF07F807E387D017C00A3121BA1D3B3
:1079E000021B5EE0FCE41214A8E4FBFA79C87842BA
:1079F000021401121BA17F007E127D7A7C00021A04
:107A0000B1E47F7BFEFDFC121BA1C3021B5E1212C0
:107A1000F81214DCAB07AA06EB4A22E0FCA3E0FD57
:107A2000E40214A3E0FEA3E0FFD322A3E0FEA3E060
:107A3000FD22FFE0FCA3E0FD22E47F7BFEFDFC22B3
:077A4000FFE0FCA3E0FD22C2
:049BCE00E0FD7F0136
:109BD200ED600543F908800353F9F7EF600443E9A8
:069BE200082253E9F722FE
:0B9ECC00EF6004439A0822539AF7222B
:107D52009007CC1279C020E30A7F127E09129B2E73
:107D62007F12229007CD127A249007D0E09F9007CD
:107D7200CFE09E400A7F117E09129B2E7F11229036
:107D820025867420F09007CCE0603A127A2B902579
:107D920083F0EEFC902582F09007CFA3E0FB9025C4
:107DA20085F09007CFE0FF902584F0902586740936
:107DB200F0902583EBF0902582EFF0902585EDF091
:0C7DC200902584ECF0E49007D1F0FF2243
:1083E4009007F5EF1279C420E30A7F127E09129BED
:1083F4002E7F1222C39007F8E094209007F7E094B0
:1084040003500A7F117E09129B2E7F11229025862C
:108414007420F09007F5E0602A9007F7E0FEA3E0EF
:10842400902583F0EE902582F0A3E0902585F090CE
:108434002582E0902584F09025867481F09007F6DB
:0A844400129BCEE49007F9F0FF222E
:10828F0090074E1279D1501A90074F127A0150026F
:10829F008010900753E0FFD394635006EFC394010F
:1082AF00500A7F117E09129B2E7F112290074F12C9
:1082BF0079F3900755EEF0A3EFF09007531279E39F
:1082CF00C004C005C006C007900755127A1BD00323
:1082DF00D002D001D000127A0E7003FA7B01900702
:1082EF004EE0900755127A32900754E09007D1F084
:0482FF00127D522278
:0B9ED700EF6004439A1022539AEF2220
:107DCE009007D21279C020E40A7F137E09129B2EEF
:107DDE007F13229007D3127A249007D6E09F900744
:107DEE00D5E09E400A7F117E09129B2E7F112290B4
:107DFE00258E7420F09007D2E0603A127A2B9025EF
:107E0E008BF0EEFC90258AF09007D5A3E0FB902531
:107E1E008DF09007D5E0FF90258CF090258E74099B
:107E2E00F090258BEBF090258AEFF090258DEDF0FC
:0C7E3E0090258CECF0E49007D7F0FF22B8
:10844E009007FAEF1279C420E40A7F137E09129B7B
:10845E002E7F1322C39007FDE094209007FCE0943A
:10846E0003500A7F117E09129B2E7F112290258EBA
:10847E007420F09007FAE0602A9007FCE0FEA3E07B
:10848E0090258BF0EE90258AF0A3E090258DF0904C
:10849E00258AE090258CF090258E7481F09007FB54
:0A84AE00129BCEE49007FEF0FF22BF
:108303009007571279D1501A900758127A015002E8
:10831300801090075CE0FFD394635006EFC3940191
:10832300500A7F117E09129B2E7F1122900758124B
:1083330079F390075EEEF0A3EFF090075C1279E318
:10834300C004C005C006C00790075E127A1BD003A5
:10835300D002D001D000127A0E7003FA7B0190078D
:1083630057E090075E127A3290075DE09007D7F0EE
:04837300127DCE2287
:0B9EE200EF6004439A2022539ADF2215
:107E4A009007D81279C020E50A7F147E09129B2E6A
:107E5A007F14229007D9127A249007DCE09F9007BA
:107E6A00DBE09E400A7F117E09129B2E7F11229031
:107E7A0025967420F09007D8E0603A127A2B902564
:107E8A0093F0EEFC902592F09007DBA3E0FB90259F
:107E9A0095F09007DBE0FF902594F0902596740901
:107EAA00F0902593EBF0902592EFF0902595EDF068
:0C7EBA00902594ECF0E49007DDF0FF222E
:1084B8009007FFEF1279C420E50A7F147E09129B0A
:1084C8002E7F1422C3900802E09420900801E094C3
:1084D80003500A7F117E09129B2E7F112290259648
:1084E8007420F09007FFE0602A900801E0FEA3E006
:1084F800902593F0EE902592F0A3E0902595F090CA
:108508002592E0902594F09025967481F0900800CB
:0A851800129BCEE4900803F0FF224E
:10812B009007601279D1501D127A39900761127A3B
:10813B000750028010900765E0FFD394635006EF61
:10814B00C39401500A7F117E09129B2E7F1122903E
:10815B0007611279F3900767EEF0A3EFF0900765D4
:10816B001279E3C004C005C006C007900767127AF6
:10817B001BD003D002D001D000127A0E7003FA7B11
:10818B0001900760E0900767127A40900766E090D5
:07819B0007DDF0127E4A220D
:0B9EED00EF6004439A4022539ABF220A
:107EC6009007DE1279C020E60A7F157E09129B2EE6
:107ED6007F15229007DF127A249007E2E09F900731
:107EE600E1E09E400A7F117E09129B2E7F112290AF
:107EF600259E7420F09007DEE0603A127A2B9025DA
:107F06009BF0EEFC90259AF09007E1A3E0FB90250C
:107F16009DF09007E1E0FF90259CF090259E740966
:107F2600F090259BEBF090259AEFF090259DEDF0D3
:0C7F360090259CECF0E49007E3F0FF22A3
:10852200900804EF1279C420E60A7F157E09129B97
:108532002E7F1522C3900807E09420900806E0944D
:1085420003500A7F117E09129B2E7F112290259ED5
:108552007420F0900804E0602A900806E0FEA3E090
:1085620090259BF0EE90259AF0A3E090259DF09047
:10857200259AE090259CF090259E7481F090080544
:0A858200129BCEE4900808F0FF22DF
:1081A2009007691279D1501D127A3990076A127AB2
:1081B200075002801090076EE0FFD394635006EFE1
:1081C200C39401500A7F117E09129B2E7F112290C7
:1081D200076A1279F3900770EEF0A3EFF090076E42
:1081E2001279E3C004C005C006C007900770127A76
:1081F2001BD003D002D001D000127A0E7003FA7B9A
:1082020001900769E0900770127A4090076FE09042
:0782120007E3F0127EC62213
:0B9EF800EF6004439A8022539A7F22FF
:107F42009007E41279C020E70A7F167E09129B2E61
:107F52007F16229007E5127A249007E8E09F9007A7
:107F6200E7E09E400A7F117E09129B2E7F1122902C
:107F720025A67420F09007E4E0603A127A2B90254F
:107F8200A3F0EEFC9025A2F09007E7A3E0FB90257A
:107F9200A5F09007E7E0FF9025A4F09025A67409CC
:107FA200F09025A3EBF09025A2EFF09025A5EDF03F
:0C7FB2009025A4ECF0E49007E9F0FF2219
:10858C00900809EF1279C420E70A7F167E09129B26
:10859C002E7F1622C390080CE0942090080BE094D8
:1085AC0003500A7F117E09129B2E7F11229025A663
:1085BC007420F0900809E0602A90080BE0FEA3E01C
:1085CC009025A3F0EE9025A2F0A3E09025A5F090C5
:1085DC0025A2E09025A4F09025A67481F090080ABD
:0A85EC00129BCEE490080DF0FF2270
:108038009007721279D1501D127A39900773127A0B
:108048000750028010900777E0FFD394635006EF43
:10805800C39401500A7F117E09129B2E7F11229032
:1080680007731279F3900779EEF0A3EFF090077792
:108078001279E3C004C005C006C007900779127AD8
:108088001BD003D002D001D000127A0E7003FA7B05
:1080980001900772E0FF900779E0FCA3E0FD9007EC
:0A80A80078E09007E9F0127F422211
:044950004108120008
:10626400E0FFE4FCFDFE121B4390081D121BAD90E1
:10627400081D121B957808121B8290081D121BAD75
:1062840090081D22E0FFE4FCFDFE121B4390082150
:10629400121BAD900821121B957808121B829008DE
:1062A40021121BAD90082122EFF09001CD121B9515
:1062B4007808121B6F9001CD121BAD9001CD021B0B
:1062C40095EFF09001CD121B957808121B6F900189
:1062D400CD121BAD9001CD021B95902780E054FE9A
:1062E400F022AC02AD017B107A007E2122E4F09012
:1062F4002780E022E0FFE4FCFDFE22AC02AD01E0D9
:10630400FB7A0022121C16AE02AF01C3EE942322C4
:10631400AC02AD017B087A007E2122AE02AF017B84
:10632400087A007C2122121BADE4FB902780E02236
:106334009001C9021BF6902780E04401F07F0322FC
:1063440090219F7401F022E04404F090219FE4F036
:016354002226
:10985B009001C01262F120E00AE04401F09001C0D7
:10986B007401F07F001262E61283779001C0E06012
:05987B00031262DE2271
:109880009008681262F120E00AE04401F090086854
:109890007401F07F301262E6128377900868E0600E
:0598A000031262DE224C
:109B4A00E4FE902780E020E006E04401F07E0190E8
:0B9B5A002140EFF0EE60031262DE22FB
:109605009001CD12632A20E005E04401F00B1262BF
:10961500BF9021411262AC9021421262AC9021436D
:0F9625001262AC902144EFF0EB60031262DE2280
:10979500E49001C0F0902780E020E00AE04401F069
:1097A5009001C07401F07F45126314128377900114
:0897B500C0E060031262DE2235
:109B6500E4FE902780E020E006E04401F07E0190CD
:0B9B75002110EFF0EE60031262DE2210
:109634009001CD12632A20E005E04401F00B126290
:10964400D89021111262C59021121262C590211383
:0F9654001262C5902114EFF0EB60031262DE2268
:1097BD00E49001C0F0902780E020E00AE04401F041
:1097CD009001C07401F07F1512631412837790011C
:0897DD00C0E060031262DE220D
:069FE200902140E0FF2287
:1096BF009021441262F812626D121BA19021431285
:1096CF006264121BA1902142126264121BA19021AD
:0E96DF00411262F8121B4312627E121B95228A
:089F94007D4512631F02837773
:069FE800902110E0FF22B1
:1096ED009021141262F8126291121BA19021131293
:1096FD006288121BA1902112126288121BA1902167
:0E970D00111262F8121B431262A2121B952267
:089F9C007D1512631F0283779B
:089FA400EF547F902194F0229C
:089FAC00EF547F902195F02293
:109DAD00EF9021936005E04440F022E054BFF02293
:109DBD00EF9021936005E04420F022E054DFF02283
:109271009001CDEFF0700280129001CDE0D39410F7
:10928100400280079001CDE030E00A7F1A7E0A1289
:109291009B2E7F1A229001CDE0C31314FF902193DE
:1092A100E054E3F0E0FEEF25E025E0FFEE4FF07F34
:0292B100002299
:109542009001CDEFF0D39403400A7F117E0A129B63
:109552002E7F1122902193E054FCF0C083C082E060
:10956200FF9001CDE05403FEEF4ED082D083F07F16
:029572000022D5
:104E19009001C3EDF09001C01263084013D3EF94E1
:104E2900FFEE9424500A7F187E0A129B2E7F1822C7
:104E3900126334E412186D9001C3E0D39479400AE7
:104E49007F167E0A129B2E7F16229001C3E0B401C1
:104E59000A7F177E0A129B2E7F172212633A129538
:104E6900429001C4121B951296059001C8E0FF12E9
:104E79009B4AE4FF129FA47F04129271126344902B
:104E890001C3E02402902300F09001C0121BF690A8
:104E990001C31262FF7F017E23128377902007E40A
:104EA900F09001C3E02402902008F09001CC741224
:104EB900F0902180E054FBF090200312634B90089E
:104EC9000EF0A3F0902180E030E207E49001CCF0ED
:104ED900801690080EE475F00112193E90080EE054
:104EE900B402E1A3E0B458DC9001CCE07030900149
:104EF900C3E02404FF126334EF12186D1263449067
:104F090001C0121BF6AE02AF01126334121805FB81
:104F19007A007D017C2312837790219FE4F012624D
:104F2900DE9001CCE0FF600D740AFEEF4E600512C1
:0B4F39009B2E8001009001CCE0FF22C5
:104BA9009001C3EDF09001C01263084013D3EF9454
:104BB900FFEE9424500A7F187E0A129B2E7F18223A
:104BC9009001C9121BF6E412186D9001C3E0FFD3DE
:104BD900947D5006EFC39404500A7F167E0A129BF7
:104BE9002E7F162212633A1295429001C4121B9528
:104BF9001296349001C8E0FF129B65E4FF129FAC46
:104C09007F041292711263449001C3E0240290243C
:104C190000F09001C0121BF69001C31262FF7F01E0
:104C29007E24128377902087E4F09001C3E0240268
:104C3900902088F09001CC7413F0902180E054FD0D
:104C4900F090208312634B900810F0A3F09021801C
:104C5900E030E107E49001CCF08016900810E4758B
:104C6900F00112193E900810E0B402E1A3E0B45833
:104C7900DC9001CCE0704990219F04F09001C012B2
:104C89001BF6AE02AF019001C3E0FB7A007D017C07
:104C9900241283779001C3E0FFE42FF582E43424E2
:104CA900F583E07010EF24FCFF9001C9121BF6EFA9
:104CB90012186D80069001CC7414F090219FE4F0D5
:104CC9001262DE9001CCE0FF600D740AFEEF4E60C7
:0D4CD90005129B2E8001009001CCE0FF220F
:104954004106460042064400004206880000410623
:024964004355B9
:10997800121BF68F8275830012181E902542F0E4A0
:10998800F583D2AF22902540E054BFF0E04440F088
:02999800E422C7
:0B9F0300EF60044398802253987F22F7
:0E9E2500439810D2B7E4FB7D017F070252B7CD
:079E4D00E4900646F07F01DE
:069E5400EF24FF92B7228B
:105C77009007EAEFF0A3EDF0A3EBF0E59820E70A31
:105C87007F107E0B129B2E7F10229007EDE0D3949E
:105C970009400A7F117E0B129B2E7F11229007ED80
:105CA700E0FF24FE601314601824FA601C240870B7
:105CB700209007EE7405F0801F9007EE7403F080C4
:105CC700179007EE7404F0800F9007EE740BF080C6
:105CD70007EF24029007EEF0902540E4F09025436B
:105CE700F0902540C083C082E0FF9007EEE0FE54AD
:105CF70003FDEF4DD082D083F0902543E0FFEE54B3
:105D07000C1313543FFEEF4EF09007EAE0605BA2DE
:105D1700AFE4339007EFF0C2AF9007EBE024FF92B8
:105D2700FDA3E030E403129E25902540C083C08286
:105D3700E0FF9007ECE0FE541CFDEF4DD082D083CE
:105D4700F0902540E044C0F0D2EDEE20E412E4FFED
:105D5700900643E0902542F0E4F5830FEFB410F08E
:105D67009007EFE024FF92AF8007902540E4F0C250
:045D7700ED7F00229A
:109A5C00AE07E4FF129E54C2AF902542EE129986D7
:0F9A6C00900646E060FA129E4D900687E0FF22BA
:108EFA00900825121C16900828EDF0D39410400A09
:108F0A007F117E0B129B2E7F1122E4900646F0FF02
:108F1A00129E54900828E0FEEFC39E500BC2AF90F9
:108F2A0008251299780F80EB900646E0FF900828F2
:0F8F3A00E0B50703D38001C350EE129E4D1F22F6
:109C4E0012998DFEC2AF902542EF1299860EEEB498
:089C5E0010F2900643EFF02222
:10949F00900851121C16EDD39410400A7F117E0BC9
:1094AF00129B2E7F112212998DFFC2AF900851127D
:1094BF0099780FEFB410F3900851121BF61218059C
:0794CF00900643F07F00222C
:1093B700900688A3E0FFC3900645E09FFFEF543F68
:1093C700602A900688A3E02447F582E43406F583F3
:1093D700E012186D900689E02401FF9006887E0050
:0F93E700EF543FFFEEF0A3EFF07F01227F002253
:107024007FF07EFF7D077C00121BA1D3021B5EEF65
:10703400F0A3EDF0A3EBF0E59822AD07AC06ECF07D
:107044007C00E41214A3783FE4FBFAF9121207025D
:1070540014DCC3E49BFFE49AFE740199FDE498FCFC
:10706400021BADAF05EF24FF92AF7F0022E490072F
:107074003DFEFDFC021BA1E0FFE4FCFDFEA3121B90
:10708400A1021A26E47B03FAF9F8021B95E0FEA399
:10709400E0FFC3E49FFFE49EFEAC0722E024FF92DE
:1070A400B9A3E024FF928C22E024FF92BBA3E02446
:1070B400FF928E229001C4021BADFB121B9578082F
:0D70C400021B6F90077F121BAD90077F220B
:0B9F0E00EF6004439801225398FE22EC
:10765F009001C012703320E00A7F137E0C129B2E14
:10766F007F13229001C3E0D39462400A7F177E0CF0
:10767F00129B2E7F1722A2AFE4339001C8F0C2AF46
:10768F009001C4121BB9000007D09001C312707B88
:10769F001270B89001C4127088121AB1E4FDFC1276
:1076AF0070B89001C4121BA19001C41270569001C2
:1076BF00C4121B9590082BEFF09001C41270BE906E
:1076CF000829EFF08B8AF58C5389F04389019001DB
:1076DF00C11270A09001C0E024FF92A99001C8E0F0
:0476EF0012706A2289
:1091A20090081312703320E00A7F137E0C129B2E5C
:1091B2007F1322A2AFE433FDC2AF90081612709162
:1091C20090082BECF0EE900829F08C8AF58C5389EC
:1091D200F04389019008141270A0900813E024FF54
:0691E20092A91270672241
:0B9F1900EF6004439802225398FD22E1
:1078AA0090077B12703320E10A7F147E0C129B2E04
:1078BA007F142290077EE0D39462400A7F187E0CE0
:1078CA00129B2E7F1822A2AFE433900783F0C2AF37
:1078DA0090077F121BB9000007D090077E12707BB9
:1078EA001270C7127088121AB1E4FDFC1270C71226
:1078FA001BA190077F12705690077F121B95900864
:10790A002CEFF090077F1270BE90082AEFF08B8B55
:10791A00F58D53890F43891090077C1270AC90073C
:0E792A007BE024FF92AB900783E012706A228C
:1091E80090081812703320E10A7F147E0C129B2E0F
:1091F8007F1422A2AFE433FDC2AF90081B12709116
:1092080090082CECF0EE90082AF08C8BF58D5389A1
:109218000F4389109008191270AC900818E024FFC9
:0692280092AB12706722F8
:0B9F2400EF6004439804225398FB22D6
:1060780090073A12703320E20A7F157E0C129B2E8D
:106088007F15227F05127071C3121B5E5012900794
:106098003D127024400A7F197E0C129B2E7F192214
:1060A8007FF87EFF7D037C0090073D12702C400E28
:1060B8009007427440F09007417406F080447FFCDA
:1060C8007EFF7D017C0090073D12702C400E9007EA
:1060D800427420F09007417405F08026E47FFE7E2C
:1060E800FFFDFC90073D12702C900742400B741086
:1060F800F09007417404F080097408F09007417427
:1061080003F07F08127071121A26C007900742E048
:10611800FBE4FAF9F8D007121AB1E412149E78BF1A
:1061280012704C90074312703EA2AFE433FEC2AF28
:1061380053A9F090073AE06027900743E0F5AA8F4B
:10614800AC90073BE024FF92F9A3E0600C90074174
:10615800E025E0440142A9800353A9FED2E9800268
:09616800C2E9AF06EE12706A22D2
:0B9F2F00EF6004439808225398F722CB
:1059680090074412703320E30A7F167E0C129B2E98
:105978007F1622E47F05900747127075C3121B5EDD
:105988005012900747127024400A7F1A7E0C129B0F
:105998002E7F1A227FF87EFF7D037C009007471236
:1059A800702C400E90074C7440F090074B7407F031
:1059B80080447FFC7EFF7D017C0090074712702C9D
:1059C800400E90074C7420F090074B7406F0802628
:1059D800E47FFE7EFFFDFC90074712702C90074C79
:1059E800400B7410F090074B7405F080097408F0B0
:1059F80090074B7404F0E47F08FEFDFC9007471203
:105A08007082C00790074CE0FBE4FAF9F8D007125F
:105A18001AB1E412149EE4FBFAF978BF12705090A0
:105A2800074D12703EA2AFE433FEC2AF53A90F90E8
:105A38000744E0602990074DE0F5AB8FAD9007452E
:105A4800E024FF92FBA3E0600E90074BE0C43354C0
:105A5800E0441042A9800353A9EFD2EB8002C2EBC5
:075A6800AF06EE12706A2286
:1054FF000709433B0B0709433B0B0707433B0B07CD
:10550F00078B3B0B07078B040B07078B040407075D
:10551F008B0404040B048B061705078B0404040D7E
:10552F008B0404040D000B0B040400008B061705FD
:10553F000000061705000000170500000000050019
:10554F00000000000407000000000700000000003A
:10555F001D0B000001000B00000100000000010006
:10556F00000000010000000001000000000000002A
:10557F00000000000000000000000000000000001C
:10558F00000000000000000000000000000000000C
:10559F0000000000000000000000000000000000FC
:1055AF0000000000000000000000000000000000EC
:1055BF00C393C7712FEE93C7712FEE77C7712FEE7D
:1055CF007703712FEE7703342FEE7703341AEE77CC
:1055DF0003341A0D658B021703077703341A0D0274
:1055EF0003341A0D02001A0D1209000002170307E7
:1055FF00000017030700000003070000000007006A
:10560F000000000007020000000002000000000080
:104966004204B200004204A800004204B60000421D
:1049760004AC00004104B0014204B400004204AAA1
:1049860000004204B800004204AE00004104B10138
:107ACD00FFC3E09FFF7E00EF543FFFAD01ED24FFAC
:107ADD0022FF121BF6EF12186D900863E0FF900164
:107AED00D9E075F006A422F583E5822FF582E43501
:107AFD0083F583E49322E433F0C2E8A2ACE43322AD
:107B0D00E433F0C2E8A2AEE43322A2AFE433FFC205
:107B1D00AF22C374409FFFE49EFED3EF9403EE9417
:107B2D000022E4F0A3E0543FF022E012186DE4F5DA
:107B3D0083EF24FF92AF7F0122121BF68F82758394
:047B4D000002181EFC
:104A5D009001CF121C16E49001D8F0121CFB4ACF26
:104A6D000000012C4AD6000002584ADE000004B0B6
:104A7D004AE6000009604AEE000012C04AF6000046
:104A8D0025804AFE000038404B0600004B004B0EBF
:104A9D00000096004B160000DAC04B1E0000E1002E
:104AAD004B260001C2004B2E000384004B3600073D
:104ABD0008004B3E0008CA004B4600119400000050
:104ACD004B4EE49001D9F0807E9001D97401F080B5
:104ADD00769001D97402F0806E9001D97403F08044
:104AED00669001D97404F0805E9001D97405F08050
:104AFD00569001D97406F0804E9001D97407F0805C
:104B0D00469001D97408F0803E9001D97409F08067
:104B1D00369001D9740AF0802E9001D9740BF08073
:104B2D00269001D9740CF0801E9001D9740DF0807F
:104B3D00169001D9740EF0800E9001D9740FF0808B
:104B4D00069001D87412F09001D8E07049127AE6FF
:104B5D0024FFF582E43454127AF49001CF127ADEF8
:104B6D00245FF582E43455127AF49001D2127ADE84
:104B7D0024BFF582E43455127AF4FF9001D5121B4F
:104B8D00F6EF12186D9001D5121BF612180570066E
:0C4B9D009001D87412F09001D8E0FF22C3
:0B9F3A00EF6004439820225398DF22C0
:1063550090071AEFF0A3EDF0E59820E50A7F107E8F
:106365000D129B2E7F1022E4900724F090071AE06F
:10637500602890071C121B957B017A0779219001F3
:10638500D2121C167A07099001D5121C167A070934
:10639500124A5D900724EFF0800BE4900723F090FC
:1063A5000721F0A3F0900724E0FF6013740DFEEFC2
:1063B5004E6005129B2E800100900724E0FF2212FB
:1063C5007B17902505E4F09025037480F090072253
:1063D500E0902500F0900721E0902501F09007233B
:1063E500E0902507F0902503E4F0902507F090074D
:1063F5001AE060389025027481F0900720E0FE5481
:106405003F902503F0902501E4F0EE20E604E044FA
:1064150001F0900720E020E707902501E04402F015
:10642500D2AC90071BE024FF92BC8009902501E4C3
:0D643500F0C2ACC2BCEF24FF92AF7F00228A
:1099BB00A2E89001D8127B03F9C2AC9004A8A3E0F3
:1099CB009004B3127ACD92AC9001D8E024FF92E8C8
:0199DB002269
:1099DC00A2E8900245127B03F9C2AC9004ACA3E060
:1099EC009004B7127ACD92AC900245E024FF92E835
:0199FC002248
:108CC400AC071299DC127B1F40F8A2E8E433FF12D0
:108CD4007B06FEC2AC9004B0E06010E4F0C2AF903A
:108CE4002500ECF0E4F583D2AF80209004B6A3E035
:108CF400243AF582E43405F583ECF09004B6E47587
:108D0400F00112193E9004B6127B2FEE24FF92ACB0
:068D1400EF24FF92E822AB
:108E54009001D4121C161299BBEF4E7002FF22A28D
:108E6400E8E4339001D7127B05FFC2AC9004A8E478
:108E740075F001121954FC74BA25F0F58274043C9F
:108E8400F583E0FE9001D4121BF6EE12186D9004E7
:108E9400A8127B2FEF24FF92AC9001D7E024FF921D
:048EA400E87F012240
:109CE000E4FF9004B0E070010F902505E020E5024C
:039CF0007F0122CF
:10903000900245121C16902501E030E1037F1322B7
:10904000EDD3941040037F1422902505E030E5F91C
:10905000E4FFEFC39D5022A2AFE433900248F0C278
:10906000AF900245127B46902500F0E4F583900214
:0C90700048E024FF92AF0F80D97F00225F
:109C9000902505E030E00A127B17902500127B37F3
:049CA000227F0022FD
:0B9F4500EF6004439840225398BF22B5
:106442009001C0EFF0A3EDF0E59820E60A7F107E00
:106452000D129B2E7F1022E49001CAF09001C0E041
:1064620060289001C2121B957B017A0179C79001C5
:10647200D2121C167A01099001D5121C167A010952
:10648200124A5D9001CAEFF0800BE49001C9F090CE
:1064920001C7F0A3F09001CAE0FF6013740DFEEF94
:1064A2004E6005129B2E8001009001CAE0FF22126D
:1064B2007B17902515E4F09025137480F09001C8A5
:1064C200E0902510F09001C7E0902511F09001C9ED
:1064D200E0902517F0902513E4F0902517F0900135
:1064E200C0E060389025127481F09001C6E0FE543D
:1064F2003F902513F0902511E4F0EE20E604E044ED
:1065020001F09001C6E020E707902511E04402F077
:10651200D2AE9001C1E024FF92BE8009902511E421
:0D652200F0C2AEC2BEEF24FF92AF7F002298
:1098C900A2E89001D8127B0DF9C2AE9004AAA3E0D8
:1098D900FFC39004B5127ACF92AE9001D8E024FF6D
:0398E90092E822E0
:1098EC00A2E8900245127B0DF9C2AE9004AEA3E043
:1098FC00FFC39004B9127ACF92AE900245E024FFD8
:03990C0092E822BC
:108C6D00AC071298EC127B1F40F8A2E8E433FF1218
:108C7D007B10FEC2AE9004B1E06010E4F0C2AF9084
:108C8D002510ECF0E4F583D2AF80219004B8A3E079
:108C9D00247AF582E43405F583ECF09004B8E4759C
:108CAD00F00112193EE49004B8127B30EE24FF92CD
:078CBD00AEEF24FF92E82254
:108D1A009001D4121C161298C9EF4E7002FF22A2BB
:108D2A00E8E4339001D7127B0FFFC2AE9004AAE4A5
:108D3A0075F001121954FC74FA25F0F58274043C9A
:108D4A00F583E0FE9001D4121BF6EE12186DE49042
:108D5A0004AA127B30EF24FF92AE9001D7E024FFE1
:058D6A0092E87F0122E8
:109CF300E4FF9004B1E070010F902515E020E50228
:039D03007F0122BB
:10907C00900245121C16902511E030E1037F13225B
:10908C00EDD3941040037F1422902515E030E5F9C0
:10909C00E4FFEFC39D5022A2AFE433900248F0C22C
:1090AC00AF900245127B46902510F0E4F5839002B8
:0C90BC0048E024FF92AF0F80D97F002213
:109CA400902515E030E00A127B17902510127B37BF
:049CB400227F0022E9
:099F8300C2AF75D25575D2AA22B5
:0B9F5000EF6004439201225392FE22B6
:108EA8009001D1EFF0A3EDF0E59220E00A7F107E6B
:108EB8000E129B2E7F10229001D2E0D3940F400A0D
:108EC8007F117E0E129B2E7F1122A2AFE433FFC2C8
:108ED800AF9001D1E0600D129F85A3E0540F44408C
:108EE800F5D28006129F8575D280EF24FF92AF7F5E
:028EF800002256
:1097E50090FFFF121D35A2AFE433850D83850E82F0
:1097F500F0129F8343D240850D83850E82E024FFBE
:0898050092AF900001021D3535
:10957400A2AFE4339001D0F0C2AFEF4E600E90087A
:109584005FEEF0A3EFF07D0F7F018009E490085FA8
:10959400F0A3F0FDFF128EA89001D0E024FF92AF5B
:0195A40022A4
:1098A5009001C0EFF0D3940F400A7F117E0E129BFA
:1098B5002E7F1122129F839001C0E0540FF5D243F1
:0498C500920180FE8E
:109376009001C0121C167F007E10E49001C3F0FD20
:10938600EF2DF582E43EF583E493FC9001C3E02CD7
:10939600F09001C0121BF68D82758300EC12187FC7
:1093A6000DEDB440DB9001C3E070037F01227F0026
:0193B6002294
:0C4996004107930041078E00410792008A
:10793800E5E8F0A3E5E9F0AFA875E902E4F5E87534
:10794800A8809027927483F090279EE0C2AF90277A
:1079580093E0E4F583D2AF2290279F7444F09027F8
:1079680092E0547FF0E490078EF022121BF68E828C
:1079780075830012181E902790F0E4F583D2AF2289
:10798800EFF0A3EDF0A3121C16E59922902792744C
:1079980080F022E0547F25E0902791F022FEE490C9
:1079A8000793F0902792E022129AB9902792E0224A
:0879B800E0F5E88FA8AF0522FD
:0B9F5B00EF60044399802253997F229D
:107A470090082DEFF0A3EDF0A3EBF0E59920E70AFE
:107A57007F107E11129B2E7F1022900830E0C39476
:107A670012500A7411FFFE129B2E7F112290082DCF
:107A7700E0604AA2AFE433FFC2AF900830E090273E
:107A870094F090279674FFF0902795E4F090279351
:107A9700E090279EE090082FE090279230E0057451
:107AA700A3F080037483F053F9FD90082EE0600380
:107AB70043F90243E902EF24FF92AF800653E9FD41
:067AC7001279947F0022F9
:109AB900E490078CF0A3F090078CE475F00112197B
:0E9AC9003E90078CE07004A3E0640A70EA226D
:1072C90090079412798820E70A7F107E11129B2E6D
:1072D9007F1022900799E070028009900799E0D306
:1072E900940F400A7411FFFE129B2E7F1122E4FFB6
:1072F900FE12957490079A12793890079412799B27
:10730900C2AF900795E012797EFE900799E0FDEEF5
:10731900C39D500BC2AF9007961279730E80EB1282
:107329007960900799E024021279A54470F0E4FD90
:1073390090078EE060047D128007900793E0B50600
:10734900EFED70061279B054EFF03096FD3097FAF0
:1073590012799490079BE0F5E990079A1279B8227F
:106D220090079C12798820E70A7F107E11129B2E11
:106D32007F10229007A1E0700280099007A1E0D3A2
:106D42009410400A7411FFFE129B2E7F1122E4FF61
:106D5200FE1295749007A212793890079C12799BC3
:106D6200C2AF90079DE012797E9007A1E09027972D
:106D7200F01279607E021279A7447CF0E4FD90075C
:106D82008EE060047D128007900793E0B506EFED78
:106D920060083096FD3097FA80431279B054F7F0CC
:106DA200902791E04401F090078EE060FAE4FE90B3
:106DB20007A1E0FCEEC39C501EC2AF902790E0FCFE
:106DC20090079E121BF68E82758300EC12187FE4E8
:106DD200F583D2AF0E80D83096FD3097FA127994AF
:0D6DE2009007A3E0F5E99007A21279B8220E
:107499009007B9EF12798C20E70A7F107E11129BB1
:1074A9002E7F10229007BDE0700280099007BDE091
:1074B900D39410400A7411FFFE129B2E7F1122E40F
:1074C900FFFE1295749007BE1279389007B91279A8
:1074D9009BE4FE9007BDE0FDEEC39D500BC2AF904B
:1074E90007BA1279730E80EB1279609007BDE00438
:1074F9001279A54470F0E4FD90078EE060047D12D6
:107509008007900793E0B506EFED70061279B05445
:10751900EFF03096FD3097FA1279949007BFE0F5B5
:08752900E99007BE1279B822B7
:10661C00900725EF12798C20E70A7F107E11129BD0
:10662C002E7F1022E4FFFE12957490072CE5E8F003
:10663C00A3E5E9F0A3E5A8F0127941900725E05411
:10664C007F25E04401902791F0900729E0FFD39437
:10665C0010400B9027977410F0EF24F080099007EE
:10666C0029E0902797F0E4900792F0127960900758
:10667C0092E090072FF0E4900793F0900726121BFE
:10668C00F690078F121C16902792E04474F0E49059
:10669C00072AF090078EE060FAE490072BF0902721
:1066AC0097E0FF90072BE0FEC39F502DC2AF9027C1
:1066BC0090E0FFEEFD90072FE02DFDE433FC9007FA
:1066CC0026121BF68D828C83EF12187FE4F583D291
:1066DC00AF90072BE004F080C53096FD3097FA128E
:1066EC00799490072DE0F5E990072CE0F5E89007F8
:0A66FC002EE0F5A890072AE0FF2227
:0449A20041086A005E
:109CB800F0C2AF9027A6E04480F0E4F583D2AF90DD
:049CC800086AF02214
:0B9F6600EF6004439940225399BF2292
:1075C800900831EFF0A3EDF0A3EBF0E59920E60A7F
:1075D8007410FFFE129B2E7F1022E490086AF09030
:1075E80027AA04F09027A974A5F0900833E0600D4D
:1075F8009027ACE4F09027AB748CF080109027AA09
:10760800E09027ACF09027A9E09027ABF09027B244
:10761800E4F09027B17464F09027AF745AF0A37423
:10762800B4F09027ADF0A3745AF0900834E0902796
:10763800A2F09027A6742FF0900832E0600543F975
:1076480001800353F9FE900831E0600543E90180A9
:077658000353E9FE7F00224D
:1087FF00900861EFF0E59920E60A7410FFFE129BD6
:10880F002E7F1022900861E09027A4F09027A77484
:10881F0008F0A37429129CB89008627412F0E4FF58
:10882F00FE90086AE06007E4900862F0800B0FBFCB
:10883F0000010EBE75EBBF30E8900862E0FF600DDF
:10884F007410FEEF4E6005129B2E8001009008629F
:03885F00E0FF2215
:108D6F00E59920E60A7410FFFE129B2E7F102290C9
:108D7F0027A77406F0A304129CB89008697411F029
:108D8F00E4FFFE90086AE06007E4900869F0800B4A
:108D9F000FBF00010EBE75EBBF30E8900869E0FF12
:108DAF00600D7410FEEF4E6005129B2E8001009037
:058DBF000869E0FF223D
:1095D5000A0D2045564B203A204C49422056322E42
:1095E5003500000000000000000000000000000041
:1095F5000000000000000000000000000000000066
:106EB000A37429F004F004F07429F004F004F074D1
:106EC00029F004F004F0229001C37412F0A37403BB
:106ED000F0A32274039022CFF09022CE229001C31F
:106EE0007413F0E4A3F0A322F0A3F0A3F0A3F0A3A3
:106EF000F0A3F022902221E4F0A37485F09022CA3E
:106F0000229001C37413F0A37401F0A322740290C1
:106F100022CFF09022CE22F0A37416F014902242D9
:106F2000F0902245229022B0E04401F0E4FEFF22DE
:106F3000F07464A3F0A37404F022F0902249746307
:106F4000F0A37455F090224D2274C0F0A37470F039
:106F500090223C7490F02224A69022BFF09022BE92
:0B6F6000E4F022A3F0A37450F0A32281
:10873100EFD39405401E902232743AF0A37434F0C2
:10874100902238126F497411126F1D741E126F3A04
:108751007426803F902232744A126F177423F0EF0F
:10876100C39405902238401A126F4990224974210E
:10877100F0A304F090224D04F0A37499F0A37407C0
:10878100F0227450F0A374B0F090223C7450126F38
:078791003A7412126F30224E
:1068D30090278074F6F0A37423F09022B07440F0F4
:1068E3009022C67480F09022C274B0F0902211748A
:1068F30002F090220C7405F09022207480F0A3E43F
:10690300F0A37485F09022B97402F0A37463F0903D
:1069130022B774CFF0A3E4F09022C8745FF0A3749D
:1069230009F0EF30E0047E0E80027EA29022CAEED0
:10693300F07408126F33A3E4F0740B126ED5740F66
:10694300F0902230744AF0902232126F177423F0C1
:1069530090224A7455F0A374E1F0EF30E0047E4BCB
:1069630080027E4D902235EEF0EF30E0047FC6804A
:10697300027FCD902236EFF0745C126F6374B0F037
:1069830090223B7450F0A3F09022407420F0A3F0C7
:106993009022437410F0A3F09022497463F0902284
:1069A3004D7412126F3090221D7485F09022E174A1
:0369B3006EF02261
:107B5100AE07128731EF121CA87B7F007B81017B6E
:107B610088027B98037B98047BA2057BA4067BA6F5
:107B7100077BAD087BB4097BBB0A00007B988000C2
:107B81009022217401800A902221E4F0A374E580FF
:107B910036F0A374858030902221E4F0A3748580AF
:107BA1002680028000126EF474AA8013126EF4749F
:107BB100D5800C126EF474D58005126EF474D5F074
:107BC1009022197410F022F09022CA74A2F090222F
:047BD10019E4F022A1
:1047B400E49001C2F0EF8EF0121CCE480309654864
:1047C4000C096A4815096F481E0974482709794875
:1047D40030097E4839098348420988484B098D4885
:1047E400530992485B09974863099C486B09A1489F
:1047F4007309A6487B09AB488309B00000488B12B3
:104804006EC77428F0024891126EC77450F00248C3
:1048140091126EC77478F0024891126EC774A0F0BA
:10482400024891126EC774C8F0024891126EC774A0
:10483400F0F0024891126EDD7418F0024891126E85
:10484400DD7440F0024891126EDD7468F0803E120F
:104854006EDD7490F08036126EDD74B8F0802E1226
:104864006EDD74E0F08026126F017408F0801E1271
:104874006F017430F08016126F017458F0800E12BC
:104884006F017480F080069001C27417F09001C229
:10489400E0FF6001229022BE74C0F09022B4740143
:1048A400F09001C3E09022B1F09001C4E09022B2F4
:1048B400F09001C5E09022B3F09022B0E04401F002
:1048C4009001C27414F0E4FFFE9022BDE030E007D2
:1048D400E49001C2F0800B0FBF00010EBE27EABFB7
:1048E40010E79001C2E0601C126F259022BDE030F9
:1048F400E007E49001C2F0800B0FBF00010EBE2759
:09490400EABF10E79001C2E0FFD8
:01490D002287
:08561F00900854EEF0A3EFF037
:10562700C3945AEE94094010900854E0FCA3E0FD9F
:10563700D394CBEC940940037F1122E4900856F0F1
:10564700ED8CF0121CCE569109655693096A569B4C
:10565700096F569D0974569F097956A7097E56A961
:10566700098356AB098856AD098D56B5099256B7C9
:10567700099756BF099C56C109A156C309A656CB1F
:1056870009AB56CB09B0000056D380009022C274F4
:10569700D2F0803E800280009022C274D1F0803226
:1056A7008004800280009022C274D0F080248000A1
:1056B7009022C274CFF0801A800280009022C274B8
:1056C700CEF0800E9022C274CDF0800690085674FA
:1056D70017F0900856E0FF6001229022B0E04402E4
:1056E700F0900854A3E0126F579008567414F0E432
:1056F700FFFE9022BDE030E007E4900856F0800BF3
:105707000FBF00010EBE27EABF10E7900856E06002
:105717001C126F259022BDE030E007E4900856F098
:10572700800B0FBF00010EBE27EABF10E790085697
:02573700E0FF91
:01573900224D
:106F6B00C3EF9465EE94094009D3EF94B0EE940906
:106F7B0040037F1122C3EF94B0EE94094005902299
:106F8B00C28033C3EF949CEE940940089022C274E4
:106F9B00B3F08025C3EF947EEE940940089022C293
:106FAB0074B4F08014C3EF9465EE94099022C24040
:106FBB000574B5F0800374B2F0D3EF947EEE9409B0
:106FCB009022B950057422F080037402F09022B025
:106FDB00E04402F0EF126F577D14FFFE9022BDE0EC
:106FEB0030E004E4FD800B0FBF00010EBE27EDBFA8
:106FFB0010EAED6019126F259022BDE030E004E439
:10700B00FD800B0FBF00010EBE27EDBF10EAE4FEA3
:08701B00FF60031247B4AF054A
:01702300224A
:0C9E7E009022BFE0245AFFE43409FE22C9
:10573A00EF121CA8578700578E01579B0257A403E4
:10574A0057AB0457B20557B90657C00757C708578A
:10575A00D40957DB0A57E80B57EF0C57F60D5803D5
:10576A000E580F0F58161058231158291258301373
:10577A00583714583E15584A16000058539022CFED
:10578A00740B80059022CF7404F09022CE740FF02F
:10579A00227405126F0F740BF022126ED3740AF082
:1057AA0022126F0D7409F022126ED37407F02212BE
:1057BA006ED37406F0229022CF740380059022CF14
:1057CA007401F09022CE7405F022126F0D7404F069
:1057DA00229022CF7407F09022CE7403F0229022F6
:1057EA00CF740280199022CF740C80059022CF7456
:1057FA0004F09022CE7402F0229022CF7401F0902D
:10580A0022CE04F0229022CF741F80059022CF74FA
:10581A000FF09022CE7401F022126F0D14F0229034
:10582A0022CF7401801E9022CF741F800C9022CF49
:10583A00740880059022CF7401F09022CEE4F02201
:0A584A009022CFE4F09022CEF0226D
:1085F600EFB401079022707424F022EF6402600544
:10860600EF6403703990278074FEF090221974018C
:10861600F09022707427F0902280E030E0F99022EA
:10862600807423F0A37407F0EF902270B4030574EE
:1086360077F080037422F09022817460F0229027F4
:108646008074F6F0902219E4F09022807480F0A3F2
:0A865600746CF09022707480F02222
:109CCC00EF9022926008740EF0A37402F0227401DB
:049CDC00F0A3F022DF
:089FB400902290E054C0F0225D
:10866000EF30E00C902720E4126EE8A3126EE822AF
:10867000EF90272030E7297404F0A374E2F0A3748C
:1086800004F0A374E2F0A37414F0A37410F0A3E454
:10869000F074FA126F63F0A374A0F0A37464F02274
:1086A0007402F0A37471F0A37402F0A37471F0A3C8
:1086B000740AF0A37408F0A3E4F0A3747CF0A3742C
:0986C00028F0126F637432F022FD
:10652F00902785E090228230E272E4F000000000B4
:10653F0000000000126EB0000000000000000074A8
:10654F0029F0000000000000000000000000000023
:10655F00000000000000000000000000000000002C
:10656F00000000000000000000000000000000001C
:10657F00000000000000000000000000000000000C
:10658F0000000000000000000000000000000000FC
:10659F00000000000000000000008010E4F0000088
:1065AF000000126EB0000000007429F0000000001F
:1065BF0000000000000000000000000000000000CC
:1065CF0000000000000000000000000000000000BC
:1065DF0000000000000000000000000000000000AC
:1065EF00000000000000000000000000000000009C
:1065FF00000000000000000000000000000000008C
:0D660F00000000007440F090228214F02280
:050006007E957FD5226C
:102F57002023232045413D302C20496E7465727231
:102F67007570742044697361626C65642023230063
:102F77002023232055415254303A496E74657272AA
:102F87007570742044697361626C65642023230043
:102F97002023232055415254313A496E7465727289
:102FA7007570742044697361626C65642023230023
:102FB700202323205541525430203A20496E74650E
:102FC70072727570742044697361626C6564202342
:102FD7002300202323205541525431203A20496EA3
:102FE700746572727570742044697361626C65648C
:102FF700202323000A002025303278000A205B4D69
:1030070049425D000A204368616E3D2575202825E9
:1030170075204D487A29000A2050616E49443D3099
:103027007825303478000A2053686F7274416464DD
:10303700723D30782530347800203A49454545417E
:1030470064647228307E37293D3078000A20447343
:103057007453686F7274416464723D3078253034FC
:103067007800203A447374494545454164647228A1
:10307700307E37293D3078000A20446174615261FF
:1030870074653D30782530327800203A547850778F
:10309700724C6576656C3D307825303278000A20B1
:1030A7004E6F41636B52657472793D257500203A06
:1030B7004261636B6F666652657472793D25750070
:1030C7000A205B52582D4D41432D504B545D000A49
:1030D7002044534E3D3078253032782C204F4F42D4
:1030E7003D30782530327800203A64426D3D2564C2
:1030F70000203A436F72723D2564000A20447374BE
:103107002E204D6F64653D2530327800203A50619E
:103117006E49443D30782530347800203A53686F43
:103127007274416464723D30782530347800203AF7
:103137004945454528307E37293D3078000A2053D8
:1031470072632E204D6F64653D25303278000A206A
:103157004D534455204C656E3D25303275203A203D
:1031670000203A4D534455203D000A203D3D3D2067
:1031770048494220446973706C6179203D3D3D00A8
:103187000A20494545452041444452284C53427E34
:103197004D534229203A000A2043686970496E64FA
:1031A7006578203D203078253032780020284D473B
:1031B70032343030290020284D4732343558290021
:1031C70020284D4732343730290020284D473234E4
:1031D7003630290020284D47323431302900202845
:1031E700556E636C617373696669656429000A20AB
:1031F7004368616E6E656C2020203D202575202870
:103207002575204D487A29000A20537461636B495C
:10321700442020203D20307825303278000A205481
:1032270078506F7765722020203D20307825303226
:103237007800202020204461746152617465202049
:103247003D20307825303278000A2050616E49449D
:1032570020202020203D203078253032782530323C
:10326700780020204E776B4164647220203D203027
:10327700782530327825303278000A205365634C40
:103287006576656C20203D20307825303278002027
:10329700202020507265436F6E666967203D20309D
:1032A7007825303278000A204E574B204B6579201D
:1032B700284C53427E4D534229203A000A2052653A
:1032C700736572765F30284C53427E4D53422920F6
:1032D7003A000A204550494420202020284C5342D8
:1032E7007E4D534229203A000A2052657365727653
:1032F7005F31284C53427E4D534229203A000A2021
:1033070047656E6572616C576F726430203D20307F
:10331700782530327825303278000A2047656E6587
:1033270072616C576F726431203D203078253032DE
:0633370078253032780019
:0A49A6004206AD00004206AF00001B
:103C4700121A199001CC121BAD9001CC121BA19036
:103C570001C9E075F064A4FFAEF0E4FCFD121A1987
:103C67009001CC121BAD9001CC121BA175F00A90EC
:103C770001C8E0A4FFAEF0E4FCFD121A199001CCD4
:103C8700121BAD9001CC22121BF690001912181EC0
:103C9700FFE49001D7F0A3EFF07BFF229000011221
:103CA7001995FF9001C4121BF69001CAE0FDF58239
:103CB700758300EF12187F9001C1121BF690000167
:103CC700121995E5F0FFED2401FDE433FC9001C4E2
:103CD700021BF68D828C83EF12187F9001C1021BA5
:103CE700F6F9E43AFAE49001C8F07D08FC22900165
:103CF700CAE0F582758300ED12187FEEFF9001CAC6
:103D0700E0F582758300229001C0121BF690000433
:103D1700121995FF9001D7E5F0229001C1121BF609
:103D270012196AFFE5F0C4F854F0C868FEEFC454EE
:103D37000F48FFEE8FF01219CD9001C6E0229001D7
:103D4700C8E09001C7F09001C9E09001C8F0900168
:103D5700CAE09001C9F09001CBE09001CAF0E4A35A
:103D6700F09001C6E014F0229001C9E0FF7E007CCC
:103D7700037DE81218A1E4FCFD2212181EFF900132
:103D8700D7E4F0A3EFF022121B95E47B107A27F912
:103D9700F8021A269001C0121BF690000802181E9E
:103DA700FFFD9001D7E4F0A3EDF07E007C007D05D8
:103DB7001218A1EF242EFFEE3409A32274022FF567
:103DC70082E43402F583229001C1121BF602180522
:103DD700121BA19001C7E0FFE4FCFDFE22E92401CC
:103DE700F9E43AFA021805121C167BFF7A2F79FBC1
:103DF7007F01229001C0121BF690000202181E8D4F
:103E0700828C83EF12187F9001CA2212181EFF902E
:103E170001D9E422C4540F12186D9001C6E022EFB5
:103E270024D09001C4F09001C6E0C3940422121B71
:103E3700A19001C4E0FF3395E0FEFDFC2290024211
:103E4700E0FFC3944022F0E4F58390024BE024FFA7
:103E570092AF2290000C02181E90000B02181E90C1
:103E670001C0021BF6EFF0A3121C16E4222402FF86
:103E7700E433FEE92FF9EA3E22E475F00102193E28
:103E8700121BA19001C7E075F00A229001CAE07EDB
:103E97000029F9EE3A22FF9001C7021BF690024271
:0D3EA700E004F0229001C1121BF602196A1E
:10990F00900243EFF0902501E090024330E105E033
:10991F00FF028CC4E0A3F07B017A0279447D01122F
:03992F0090302253
:10971B009001D0121C16902501E09001D030E0088A
:10972B00121BF6128E548006121BF6129C9090019F
:09973B00D3EFF09001D3E0FF220E
:10993200900243EFF0902511E090024330E105E000
:10994200FF028C6DE0A3F07B017A0279447D011263
:03995200907C22E4
:109744009001D0121C16902511E09001D030E00851
:10975400121BF6128D1A8006121BF6129CA490019D
:09976400D3EFF09001D3E0FF22E5
:1080B200900247121C16A2AFE43390024BF0C2AFFB
:1080C200902500740AF0740DF0902510740AF07473
:1080D2000D123E4D902505E030E5F9902515E03072
:1080E200E5F9E490024AF0900247121BF6129C7BDB
:1080F20090024AE0C39FEE6480F87480985029A2EF
:10810200AFE433A3F0C2AF900247121BF690024ACB
:10811200123D0712181E902500F0902510123E4DB8
:0981220090024AE004F080BF2243
:10821900900243EFF020AF3D7BFF7A2F795712820E
:1082290087900243E0700B20AC087BFF7A2F7977A7
:108239008010900243E0B4010C20AE097BFF7A2F35
:108249007997128287C2AF75D25575D2AA75D20AAB
:1082590043920180FE900243E0700B20AC087BFF43
:108269007A2F79B78010900243E0B4011020AE0D47
:108279007BFF7A2F79D9A3121C161280B222A3127E
:068289001C161280B22257
:1070D1009001D4121C169001D3EFF0128219E490A2
:1070E1000242F0123E44500A123DC3E4F0123EA4A3
:1070F10080F17B017A0179D79001FF121C16900172
:10710100D4121BF6900243121C169001FF121BF6BB
:10711100900246121C167B017A0279021290C890E5
:1071210001D3E030E02BE4900242F0123E44504C97
:10713100123DC3E0FF6045129932900242E0240201
:10714100123DC6E0B40A057F0D129932123EA480A9
:10715100DAE4900242F0123E445021123DC3E0FFB6
:10716100601A12990F900242E02402123DC6E0B467
:0D7171000A057F0D12990F123EA480DA224C
:106171009001C0123E6C9001C6F0F5F01219CD7F6E
:10618100107E271295749001C0E030E04C7B017ABB
:106191000179C5129744EF60E612625560129001D1
:1061A100C6E0640460D99001C5E0FF129932804ACB
:1061B1009001C5E064087018A3E060147F0812998B
:1061C100327F201299327F08129932123D2114F048
:1061D1009001C5E0640D70A7227B017A0179C51297
:1061E100971BEF609A126255603E9001C6E064040D
:1061F100608D9001C5E0FF12990F123EABC4F854B7
:106201000FC868FFE5F0C454F0488FF01219CD12A1
:106211003EABFF9001C4E0FD3395E045F0FEEF4D4C
:10622100123D3904F00261809001C5E064087018E4
:10623100A3E060147F0812990F7F2012990F7F0845
:1062410012990F123D2114F09001C5E0640D600315
:10625100026180229001C5E0FF129AF59001C4EF1E
:03626100F0F42234
:1069B6009001C0123E6C9001C6F012186D7F107ED9
:1069C600271295749001C0E030E04F7B017A01797F
:1069D600C5129744EF60E6126A8A60129001C6E01B
:1069E600640260D99001C5E0FF129932804D900192
:1069F600C5E06408701BA3E060177F081299327F18
:106A0600201299327F08129932123DCE123E1B1483
:106A1600F09001C5E0640D70A4227B017A0179C56E
:106A260012971BEF6097126A8A602A9001C6E0648B
:106A360002608A9001C5E0FF12990F123DCEC45440
:106A4600F012186D123DCEFF9001C4E04F123E1EAB
:106A560004F00269C39001C5E06408701BA3E060FE
:106A6600177F0812990F7F2012990F7F0812990F2E
:106A7600123DCE123E1B14F09001C5E0640D60037A
:106A86000269C3229001C5E0FF129AF59001C4EF96
:036A9600F0F422F7
:103EB4009001C0123E6C9001C6F0F5F01219CDE4E9
:103EC4009001C7F0A3F0A3F0A3F0A3F07F107E2726
:103ED4001295749001C0E020E003023FAF7B017AA9
:103EE4000179C5129744EF60E39001C5E0FFC394E4
:103EF40030405BEFD394395055123E265003023FB5
:103F04004C9001C6E0640470C39001CA123DDD12F6
:103F14003C84123D8E123C84121BA1C000123D6FE2
:103F2400D000123C81121BA175F064123C76123E43
:103F340087123C7A123E35123C81121B95E4FEED49
:103F44004C70899001C5E0FF129932024033900110
:103F5400C5E064087016A3E060127F081299327FEE
:103F6400201299327F08129932123D459001C5E022
:103F7400640D6003023ED09001CB123DDDA3123CE0
:103F840087123D8E123C84121BA1C0009001CA12FC
:103F94003D72D000123C47123DD7123C81121B9552
:103FA400E4FFFEED4C6001220240B67B017A017908
:103FB400C512971BEF7003023ED09001C5E0FFC30A
:103FC4009430500302405CEFD39439400302405CC8
:103FD400123E26500612990F0240339001C6E06447
:103FE400046003023ED09001CA123DDD123C8412EB
:103FF4003D8E123C84121BA1C000123D6FD00012F2
:104004003C81121BA19001C8E075F064123C7A1245
:104014003E87123C7A123E35123C81121B95E4FE17
:10402400ED4C6003023ED09001C5E0FF12990F9061
:1040340001CAE0A3F09001C9E0A3F09001C8E0A395
:10404400F09001C7E0A3F09001C4E09001C7F090A4
:1040540001C6E004F0023ED09001C5E06408701689
:10406400A3E060127F0812990F7F2012990F7F0836
:1040740012990F123D459001C5E0640D6003023EA4
