:10900000C00F7490C0E0C082C083750F0A75A100C4
:109010000000000022C00F7490C0E0C082C08375C1
:109020000F1F75A1010000000022C00F7490C0E066
:10903000C082C083750F3475A1020000000022C0F9
:109040000F7490C0E0C082C083750F4975A1030002
:0490500000000022FA
:0DA12800EF90A13193909000730A1F34490D
:1085C500EB60010A4A601D8C838D8263A2018E8354
:1085D5008F8263A20100E0A363A201F0A363A2015D
:1085E500DBF4DAF222C0A275A2010000C082C083CA
:1085F50063A2010000C082C083EB60010A4A601DCE
:108605008C838D8263A2018E838F8263A20100E039
:10861500A363A201F0A363A201DBF4DAF2D083D055
:0D8625008263A2010000D083D082D0A22287
:03000000020EBC31
:100EBC007598007599209022E074D9F090270E74E3
:100ECC0000F09027027470F09027037400F0E49007
:100EDC000000F0900000E004F0E0B4C8F6902700A9
:100EEC007480F09027087400F0902709F090272068
:100EFC00F0902721F0902722F0902723F0902724C0
:100F0C00F0902725F0902726F0902727F09027289F
:100F1C00F0902729F090272AF090272BF075990054
:100F2C009022E17400F09022E27490F09022E77429
:100F3C00FFF09022E8F09022E9F09022EAF0902263
:100F4C00EBF09022ECF09022ED7400F09022EEF099
:100F5C009022EFF09022F0F09022F1F09022F2F03B
:100F6C00750D18750E00758121C2C112900A020F01
:010F7C00B8BC
:0CA16700016800AA005A002D0015000B32
:0A4A5A00420A5F0000420A5D0000FE
:109A1800E0FEA3E0FFC3229009FA121BAD9009FAF9
:109A2800021B95EFF0A3EDF0A3EBF0D394082212FC
:089A38001BF69009F3021C1655
:0EA0F000902784E054BFF00000E04440F022CE
:10820C009006EA129A2B400A7F127E01129DD97FAA
:10821C0012229006EBE0FFD394035004EFB4010A52
:10822C007F117E01129DD97F11229006EAE09022E7
:10823C00E66032E04404F0902781E0440CF0902298
:10824C00D4E04480F0E054F0FF9006ECE04F902234
:10825C00D4F09006EBE0C43354E0FF9022D4E05409
:10826C009F4FF08012E054FBF09022D4E0547FF04A
:0A827C00902781E054F3F07F002208
:10946D00900B83EDF0900B82EFF0D394035006A395
:10947D00E09403400A7F117E01129DD97F11229045
:10948D002786E054FCFF900B82E04F902786F090EA
:10949D000B83E025E025E0FF9022D5E054F34FF05B
:0394AD007F00221B
:1094F2009006EAEFF0A3EDF06006E0D3940E400A86
:109502007F117E01129DD97F11229006EBE004C4E7
:1095120054F0FF9022D5E0540F4FF09006EAE0900D
:1095220022D56006E04402F08004E054FDF07F00A2
:019532002216
:109C4500A2AFE433FFC2AF9022D7E0FDE0FEEF24E0
:109C5500FF92AFAF06EFFEEDFF7C007D10121908F5
:019C650022DC
:10A002009022D6E05478131313541FFF60011F22CD
:108CED0074FFF5F01219CD9006E67413F0E4900AB6
:108CFD0057F0A3F09022D6E054706010129C45EE10
:108D0D008FF01219CDE49006E6F08019900A57E421
:108D1D0075F00112193EC3900A58E094D0900A578D
:108D2D00E0940740CF9006E6E0FF600D7401FEEF82
:0F8D3D004E6005129DD98001009006E6E0FF22EE
:107644009006E6129A2B400A7F127E01129DD97F82
:1076540012229006E7E0D39403400A7F117E0112C0
:107664009DD97F11229006E6E0605B7D02E4FF1263
:1076740094F29006E7E0FDA3E0FB7F0112820C90F8
:1076840006E9EFF0704C12A0F0900B90E025E02496
:1076940067F582E434A1F583E493FF740193900ABF
:1076A40059CFF0A3EFF0E4A3F0A3F0900A59129A93
:1076B40018900A5CE09F900A5BE09E5015E475F018
:1076C4000112193E80E5E4FBFDFF12820C9006E9ED
:0876D400EFF09006E9E0FF224F
:109533009006E3121C169006E2EFF0D39408400A5B
:109543007F127E01129DD97F12229006E2E0FBE496
:10955300FD7F01127644EF6001229006E3121BF6B1
:10956300128CEDEF600122E4FBFDFF1276447F00D5
:0195730022D5
:105664009009ECEEF0A3EFF0A3ECF0A3EDF0A3EAC5
:10567400F0A3EBF0A3E0FFC3940A4006EFD3940F2A
:10568400400A7F117E01129DD97F11229009EC12EC
:105694009A189009EFE09FEE6480F89009EEE064B8
:1056A4008098400A7F147E01129DD97F14229009AC
:1056B400EEE0FAA3E0FBC39009EDE09BFE9009EC59
:1056C400E09A9009F6F0A3CEF09009F0129A189B94
:1056D400EA6480F8EE6480985009E49009F8F0A335
:1056E400F080389009ECE0FCA3E0FDD3EF9DEC647E
:1056F40080F8EE648098400B9009F6E0FFA3E0A3E5
:10570400CF80149009EE129A189009F1E09FFF904F
:1057140009F0E09E9009F8F0A3EFF09009F2E0FFA1
:1057240074017E00A807088005C333CE33CED8F9B0
:1057340024FFFFEE34FFFEE4FCFD9009FA121BADDA
:105744009009F8E0FEA3E0FFE4FCFDA3121BA11204
:105754001A26129A1FC006C0079009F6E0FEA3E0BD
:10576400FBAA06E4F9F8D007D006121AB1129A1F60
:10577400EE547FFE9009F3121BF6EE8FF01219CD52
:035784007F002281
:0CA14F007B017A0A795F7F0712953322AA
:0CA15B007B017A0A795D7F08129533229F
:108D4C00900AE8121C16900AE7EFF0C3940A40064A
:108D5C00E0D3940F400A7F117E01129DD97F11221E
:108D6C007B017A0A79EB128CEDEF600122900A5F9D
:108D7C00E0FEA3E0FF900A5DE0FCA3E0FD900AE7B3
:108D8C00E09009F2F0900AE8129A37900AEBE0FAB8
:0D8D9C00A3E0FB125664EF6001227F00226D
:10780C00900A37EDF0A3121C16900A36EFF0D394C1
:10781C0008400A7F127E01129DD97F1222900A37EE
:10782C00E0FFC3940A4006EFD3940F400A7F117E09
:10783C0001129DD97F11227B017A0A793D7F0712B3
:10784C009533EF6001227B017A0A793B7F08129510
:10785C0033EF600122900A36E0FF7B017A0A793F10
:10786C00129533EF600122900A3DE0FEA3E0FF90F9
:10787C000A3BE0FCA3E0FD900A37E09009F2F0909F
:10788C000A38129A37900A3FE0FAA3E0FB125664CA
:07789C00EF6001227F0022D2
:044A6400410B900072
:107AF400900B64EFF0E4A3F0EF14601814601C140E
:107B0400602114602614602B2405702F900B66747A
:107B140008F0802DE4900B66F08026900B667420AC
:107B2400F0801E900B667440F08016900B667460B3
:107B3400F0800E900B66740CF08006900B65741246
:107B4400F0900B65E0FF60137402FEEF4E600512C7
:107B54009DD9800100900B65E0FF22900B64E090BA
:107B64000B90F0538E10900B66E0428EE58E9027BA
:107B74008530E306E04404F08004E054FBF07F0029
:017B840022DE
:030026008F98228E
:03002E008F992285
:030036008F9A227C
:084A6800410B8400410B8500A5
:0BA17F00EFF0A3EDF0A3EBF0E5B4223D
:108B0D00900B6712A17F20E20A7F107E03129DD980
:108B1D007F1022A2AFE433FFC2AF900B69E0FE904D
:108B2D0022EF30E106E04404F08004E054FBF0EE67
:108B3D0030E003D38001C39288900B68E024FF924C
:108B4D00B8900B67E024FF92A89022F2E030A805C0
:108B5D004404F0800354FBF0EF24FF92AF7F00221A
:108B6D00900B6A12A17F20E30A7F117E03129DD91B
:108B7D007F1122A2AFE433FFC2AF900B6CE0FE90E9
:108B8D0022EF30E106E04408F08004E054F7F0EE07
:108B9D0030E003D38001C3928A900B6BE024FF92E7
:108BAD00BA900B6AE024FF92AA9022F2E030AA0557
:108BBD004408F0800354F7F0EF24FF92AF7F0022BA
:044A7000410B9180E5
:1064C200E0FEA3E0FFF5828E83A3A312181E90279D
:1064D20005F08F828E83A3A3A312181E902704F0C7
:1064E200900B91E04401902700F022F0900B52E0D3
:1064F200F58A900B50E0F58C22E0FEA3E0FFF582D6
:106502008E8312181E902707F08F828E83A3121893
:106512001E902706F022FFE0FAA3E02DF582EA3C66
:10652200F583E4936F22900A05E475F00102193EA7
:10653200900A03E0FEA3E0A3FFE0FCA3E0FDC39FFB
:10654200EC9E229027007480F09027027470F0A3D2
:10655200E4F0902708F0A3F07F0122E0FEA3E09090
:106562002703F0EE902702F022FFEEF0A3EFF043B4
:10657200992090270EE4F0900B90E0229027097466
:1065820001F0902708E4F022121BF68D828C830220
:10659200181EEEF0A3EFF0EE54014F22CFF0A3EF5E
:0D65A200F0E422900A09121BAD900A0922B4
:06A2BF00E4900B91F02277
:07A2B100900B917480F02274
:1096AA0090270EE4F090270DE020E0F9000000007A
:1096BA00EF126561902708E4F0A304F0900B91E0A3
:1096CA004402902700F00000000090270DE020E0FF
:0896DA00F99027007480F022D2
:1045EC009009DA121C169009D8126594600A7F148F
:1045FC007E04129DD97F14229009D8E0FEA3E078A6
:10460C0002CEC313CE13D8F99009E412656B700473
:10461C007F808002E4FF1288AE900B91E0701D90B9
:10462C002700E064807015902708E0700FA3E070FD
:10463C000B902702E0B47004A3E060099009E674C3
:10464C0013F0024757E4FF12930DE49009EBF012BC
:10465C009A909009E4E0FEA3E0FF1296AA9009DD7F
:10466C00E030E00AE49009E61264ED024757902727
:10467C000DE020E0F912657E9009DEF0A3F09009C0
:10468C00E4E0FFA3E09009E2CFF0A3EFF09009E0A3
:10469C00E4F0A37480F0129A909009E212655D9098
:1046AC0009DA121BF69009DE1264FB9009DE126423
:1046BC00C2000000009009DEE475F00412193E906F
:1046CC0009E212652B9009E074FFF5F012193E9087
:1046DC0009E0E07002A3E070BD90270DE020E0F946
:1046EC001264EE9009D8E0FFA3E09009E712659EF2
:1046FC009009E6F09009E9F0A3F09009E9E0FEA337
:10470C00E0FFC3EE9402502E9009DA121BF68F8252
:10471C008E8312181EFF9009E9E0FCA3E0FD9009BE
:10472C00E712651960089009E67415F08008900985
:10473C00E912652B80C49009E6E0600F9009EBE06C
:10474C0004F0E0C39404500302465B1265451288E2
:10475C00AE5399DF7F0112930D9009E6E0FF600DD7
:10476C007404FEEF4E6005129DD98001009009E69D
:03477C00E0FF2239
:1042A8009009C5121C169009C3126594600A7F1400
:1042B8007E04129DD97F14229009C3E0FEA3E07802
:1042C80002CEC313CE13D8F99009D012656B7004CF
:1042D8007F808002E4FF1288AE900B91E0701D9001
:1042E8002700E064807015902708E0700FA3E07045
:1042F8000B902702E0B47004A3E060099009D2741F
:1043080013F002442BE4FF12930DE49009D7F01246
:104318009A909009D0E0FEA3E0FF1296AA9009C8EF
:10432800E07002A3E070099009D21264ED02442BF8
:1043380090270DE020E0F912657E9009CAF0A3F0FD
:104348009009D0E0FFA3E09009CECFF0A3EFF09062
:1043580009C8E0FCA3E0FDAE047802CEC313CE1377
:10436800D8F9FF9009CCEEF0A3EFF0ED5403600A02
:104378009009CCE475F0010243C29009CCE07002C8
:10438800A3E0603C129A909009CE12655D9009C531
:10439800121BF69009CA1264FB9009CA1264C20083
:1043A8000000009009CAE475F00412193E9009CE85
:1043B80012652B9009CC74FFF5F012193E02438266
:1043C80090270DE020E0F91264EE9009C3E0FFA306
:1043D800E09009D312659E9009D2F09009D5F0A318
:1043E800F09009C8E0FEA3E09009D512653A501E86
:1043F8009009C512658A9009D3126518600890095A
:10440800D27415F080089009D512652B80D39009D5
:10441800D2E0600F9009D7E004F0E0C394045003A1
:104428000243171265451288AE5399DF7F01129334
:104438000D9009D2E0FF600D7404FEEF4E60051286
:0B4448009DD98001009009D2E0FF2206
:106EA0009009FEEEF0A3EFF0A3121C169009FEE08D
:106EB000FEA3E0FFE4FCFD1265A5121BA1900A04ED
:106EC000E024FFFF900A03E034FFFEE4FCFD121A09
:106ED000191265A5121B95ED4C600A7F127E0412F3
:106EE0009DD97F1222E4900A08F09009FEE0FFA3EA
:106EF000E0900A0D12659E900A07F0E4900A05F0F2
:106F0000A3F01265325029900A0DE0FEA3E02DF5A2
:106F100082EE3CF583E493FF900A00121BF6900A80
:106F200005A3E0F5828C83EF12187F12652880D2CA
:106F3000E4900A05F0A3F0126532501B900A00128B
:106F4000658A900A0D1265186008900A087416F098
:106F5000800512652880E0900A08E0600B900A071F
:0E6F6000E004F0E064047093900A08E0FF2261
:108DA900EFF0A3EDF0A3EBF0E59822E0FF7405FEE8
:108DB900EF4E227401F0A374FEF0227402F0A37442
:108DC900FDF0227404F0A374FBF0227408F0A3747C
:108DD900F7F0227410F0A374EFF0227420F0A3745A
:108DE900DFF0227440F0A374BFF0227480F0A31462
:098DF900F02274FFF0E4A3F02263
:0BA18A00EF6004439810225398EF226E
:08990E00E0FFA3E0FDA3E0FB74
:10991600EFD394074008EF640A60037F1222ED60DC
:1099260009EBD39401400C7F1122EBD39402400340
:069936007F11227F0022D8
:1052F5009006E2128DA920E40A7F107E05129DD941
:105305007F10229006E212990E9006E7EFF06011E9
:10531500128DB46005129DD98001009006E7E0FF6B
:10532500229006E2E0121CA8534C00535401535C32
:1053350002536403536C04537405537C065384076A
:10534500538C0A000053929006E5128DBC803E9066
:1053550006E5128DC480369006E5128DCC802E9020
:1053650006E5128DD480269006E5128DDC801E9010
:1053750006E5128DE480169006E5128DEC800E9000
:1053850006E5128DF480069006E5128DFB9006E386
:10539500E060219006E6E0FF52B19022EAE05FF07E
:1053A5009006E4E06006A3E042C180669006E6E070
:1053B50052C1805E9006E4E0FF701D9022EAC08332
:1053C500C082E0FE9006E5E0FDEE4DD082D083F090
:1053D5009022E7E04DF08030EF9022EAB40117C04B
:1053E50083C082E0FF9006E5E0FEEF4ED082D083D9
:1053F500F09022E78000C083C082E0FF9006E6E0DF
:10540500FEEF5ED082D083F09006E5E0FF42B1EF7B
:0554150042B97F0022F6
:10541A00900AED128DA920E40A7F107E05129DD90B
:10542A007F1022900AED12990E900AF2EFF06011A5
:10543A00128DB46005129DD9800100900AF2E0FF36
:10544A0022900AEDE0121CA854710054790154818B
:10545A000254890354910454990554A10654A90786
:10546A0054B10A000054B7900AF0128DBC803E90E5
:10547A000AF0128DC48036900AF0128DCC802E90DC
:10548A000AF0128DD48026900AF0128DDC801E90CC
:10549A000AF0128DE48016900AF0128DEC800E90BC
:1054AA000AF0128DF48006900AF0128DFB900AEE33
:1054BA00E06021900AF1E0FF52B29022EBE05FF047
:1054CA00900AEFE06006A3E042C28066900AF1E02B
:1054DA0052C2805E900AEFE0FF701D9022EBC083FB
:1054EA00C082E0FE900AF0E0FDEE4DD082D083F05B
:1054FA009022E8E04DF08030EF9022EBB40117C023
:10550A0083C082E0FF900AF0E0FEEF4ED082D083A3
:10551A00F09022E88000C083C082E0FF900AF1E0A8
:10552A00FEEF5ED082D083F0900AF0E0FF42B2EF45
:05553A0042BA7F0022CF
:10553F009006E2128DA920E40A7F107E05129DD9F4
:10554F007F10229006E212990E9006E7EFF060119D
:10555F00128DB46005129DD98001009006E7E0FF1F
:10556F00229006E2E0121CA8559600559E0155A602
:10557F000255AE0355B60455BE0555C60655CE07A2
:10558F0055D60A000055DC9006E5128DBC803E9082
:10559F0006E5128DC480369006E5128DCC802E90D4
:1055AF0006E5128DD480269006E5128DDC801E90C4
:1055BF0006E5128DE480169006E5128DEC800E90B4
:1055CF0006E5128DF480069006E5128DFB9006E33A
:1055DF00E060219006E6E0FF52B49022ECE05FF02D
:1055EF009006E4E06006A3E042C480669006E6E021
:1055FF0052C4805E9006E4E0FF701D9022ECC083E1
:10560F00C082E0FE9006E5E0FDEE4DD082D083F043
:10561F009022E9E04DF08030EF9022ECB40117C0FA
:10562F0083C082E0FF9006E5E0FEEF4ED082D0838C
:10563F00F09022E98000C083C082E0FF9006E6E090
:10564F00FEEF5ED082D083F09006E5E0FF42B4EF2C
:05565F0042BC7F0022A7
:0C4A7400410B6D00410B6E00410B6F0008
:10957400EFF0A3EDF0A3EBF0E592227401F0A374F5
:10958400FEF0227402F0A374FDF0227410F0A374B0
:10959400EFF0227420F0A374DFF0227440F0A3747F
:1095A400BFF0227480F0A314F02274FFF0E4A3F05F
:0195B4002294
:049E2B00E0FD7F01D6
:109E2F00ED600543F904800353F9FBEF600443E948
:069E3F00042253E9FB229E
:0BA19500EF6004439202225392FD226F
:105BDC00900ACB12957420E10A7F107E0F129DD98A
:105BEC007F1022900ACEE0D39403400A7F207E0FD0
:105BFC00129DD97F2022E4900AD1F0900ACBE012BA
:105C0C001CA85C2D005C35015C3D025C49035C55B5
:105C1C00045C5D055C65065C6D075C750A00005CE8
:105C2C007D900ACF12957F804E900ACF1295878077
:105C3C0046900ACF7404F0A374FBF0803A900ACF1C
:105C4C007408F0A374F7F0802E900ACF12958F8011
:105C5C0026900ACF129597801E900ACF12959F809E
:105C6C0016900ACF1295A7800E900ACF1295AE808F
:105C7C0006900AD17430F0900AD1E0FF6013740FD3
:105C8C00FEEF4E6005129DD9800100900AD1E0FF15
:105C9C0022900ACCE06034900ACEE0FF30E106A3FB
:105CAC00E042EA8006900AD0E052EAEF30E0089039
:105CBC000ACFE042EB8006900AD0E052EB900ACF7C
:105CCC00E042EC900ACD129E2B8006900AD0E05256
:045CDC00EC7F002237
:0BA1A000EF6004439204225392FB2264
:105CE000900AD212957420E20A7F117E0F129DD97C
:105CF0007F1122900AD5E0D39403400A7F217E0FC2
:105D0000129DD97F2122E4900AD8F0900AD2E012A5
:105D10001CA85D31005D39015D41025D4D035D5997
:105D2000045D61055D69065D71075D790A00005DCE
:105D300081900AD612957F804E900AD61295878060
:105D400046900AD67404F0A374FBF0803A900AD609
:105D50007408F0A374F7F0802E900AD612958F8005
:105D600026900AD6129597801E900AD612959F808B
:105D700016900AD61295A7800E900AD61295AE807C
:105D800006900AD87431F0900AD8E0FF6013740FBF
:105D9000FEEF4E6005129DD9800100900AD8E0FF09
:105DA00022900AD3E06034900AD5E0FF30E106A3E8
:105DB000E042F28006900AD7E052F2EF30E008901D
:105DC0000AD6E042F38006900AD7E052F3900AD652
:105DD000E042F4900AD4129E2B8006900AD7E0523B
:045DE000F47F00222A
:0BA1AB00EF6004439208225392F72259
:106A4700900AD912957420E30A7F137E0F129DD9FD
:106A57007F1322900ADCE0D39403400A7F237E0F42
:106A6700129DD97F2322E4900ADFF0900AD9E01221
:106A77001CA86A92006A9A016AA2046AAA056AB205
:106A8700066ABA076AC20A00006ACA900ADD129546
:106A97007F8036900ADD129587802E900ADD129549
:106AA7008F8026900ADD129597801E900ADD129539
:106AB7009F8016900ADD1295A7800E900ADD129529
:106AC700AE8006900ADF7433F0900ADFE0FF6013B0
:106AD700740FFEEF4E6005129DD9800100900ADF0A
:106AE700E0FF22900ADAE06034900ADCE0FF30E150
:106AF70006A3E042FA8006900ADEE052FAEF30E0A1
:106B070008900ADDE042FB8006900ADEE052FB9027
:106B17000ADDE042FC900ADB129E2B8006900ADE1B
:066B2700E052FC7F002299
:0DA13500F0A3F0EF24FF92AF902190E02204
:06A2C500902191EFF02250
:10A01200EF9021916005E04402F022E054FDF0222D
:10A02200EF9021916005E04404F022E054FBF0221D
:10A03200EF9021916005E04408F022E054F7F0220D
:10A04200EF9021916005E04410F022E054EFF022FD
:09A26600902158EFF0EEA3F02264
:09A26F0090215AEFF0EEA3F02259
:0FA0D200AC02AD017B087A007F507E210285C56C
:109E4500A2AFE433FFC2AF902004E4F090200112EA
:0A9E5500A1354440F0E054BFF022B4
:109E5F00A2AFE433FFC2AF902084E4F090208112D0
:0A9E6F00A1354420F0E054DFF0229A
:0BA1B6007F1612A2C5129E45029E5F9C
:1093550015660AB30AB2055906B4035A035C01AE91
:1093650001C200E10104008201D200E90112008975
:1093750000B20059008A0045008A0045008A004570
:10938500023001180118008C0096004B004600239E
:08939500003C001E003C001E1C
:104A8000410A1D00410A1C03410A1B00410A1A0089
:044A9000410A1900BE
:1090FA0075F002121BEAE493FF740193900A11CFF0
:10910A00F0A3EFF0E4A3F0A3F0229022007438F069
:10911A00900A1CE025E025E022900A11E0FEA3E077
:10912A00FFC3900A14E09F900A13E09E22900A134C
:0E913A00E475F00102193E9022007434F02218
:0EA0FE00EF30E0047F018002E4FF126CF222DA
:07A2B800902200741CF0224B
:10703B009006E2EEF0A3EFF0A3EDF0600B90278348
:10704B00E4F09022D07488F0A2AFE4339006E5F020
:10705B00C2AF90228DE09006E6F07F1112A28190D4
:10706B002200742CF09006E77413F0E4900A0FF0F2
:10707B00A3F09006E2E0FEA3E0FFC3900A10E09FAE
:10708B00900A0FE09E502890228DE020E619A3E095
:10709B005407FF70069006E7F08014EFB4040890D5
:1070AB0006E77412F08008900A0F12913A80C39091
:1070BB00228F74FFF09006E6E090228DF09006E5AB
:1070CB00E024FF92AF9006E4E0600C9006E7E070DE
:1070DB00069022D07484F09006E7E0FF600D7407F1
:1070EB00FEEF4E6005129DD98001009006E7E0FF90
:0170FB002272
:109FF1007F0A12A281E4FD7F011298207F0102A055
:01A00100520C
:107E2B009006E2EFF0BF040280099006E2E0D394E3
:107E3B0005400A7F187E07129DD97F1822129141A7
:107E4B00E4FF12930D9006E2E0FF128E029006E221
:107E5B00E014601614601B14602024FE60242405BB
:107E6B0070269022117409F0801E9022117405F077
:107E7B0080169022117403F0800E9022117402F080
:107E8B0080069022117410F0902200743CF07F0158
:0E7E9B0012930D9006E2E0900A1CF07F002288
:10919500900B92EFF0128E02900B92E0FF14601686
:1091A50014601B14602024FE602424057026902280
:1091B500117409F0801E9022117405F0801690221A
:1091C500117403F0800E9022117402F08006902233
:0C91D500117410F0900A1CEFF07F0022D3
:10967100900B93EFF07F03127E2B900B93E09022DF
:10968100246013E04440F0902785E04408F09022E4
:1096910037E04480F022E0543FF0902785E054F712
:0996A100F0902237E0547FF02222
:106C10009006E2EFF0C3940B4006E0D3941A400ACA
:106C20007F177E07129DD97F1722129141E4FF1230
:106C3000930D9006E2E0121CA86C6D0B6C710C6C4D
:106C4000750D6C790E6C7D0F6C81106C85116C89E3
:106C5000126C8D136C91146C95156C99166C9D17B4
:106C60006CA1186CA5196CA91A00006CB57F658021
:106C70003A7F6A80367F6F80327F74802E7F798082
:106C80002A7F7E80267F8380227F88801E7F8D8062
:106C90001A7F9280167F9780127F9C800E7FA18042
:106CA0000A7FA680067FAB80027FB07E091270FC4F
:106CB0009006E3EFF09006E3E0FF60117407FEEF4B
:106CC0004E6006129DD9026C3200026C3290220096
:106CD000743CF07F0112930D9006E3E0FF600D74A9
:106CE00007FEEF4E6005129DD98001009006E3E09B
:026CF000FF2281
:0FA0E100E4FE902284E0FF70050EEEB4FAF42244
:08A28100EF541F90228DF02222
:109EE100A2AFE433FEC2AFED24FF92F8EF24FF925C
:099EF100E8AF06EF24FF92AF2256
:10930D00EF603D90228EE054F7F0E04408F0759147
:10931D0010A2AFE433FFC2AF902084E4F09020811F
:10932D00F0A3F0EF24FF92AFE4900A1BF090219090
:10933D00E04420F0E054DFF0902201E054FEF022F2
:08934D00902201E04401F0222E
:06A2CB00EF24FF92AF2218
:03003E00026789CD
:106DD000902002E4F0902303E0902192F090228032
:106DE000E05470FF6007641060037F1522900A1A58
:106DF0007401F0900A1DE0547DF09006E874E1F013
:106E000012003E1291142455F582E43493F583C0A8
:106E100083C082900B90E0D082D0831290FA1291BE
:106E2000235013900A1DE030E107E49006E8F0805B
:106E30000512913780E89006E8E0B4E10F12914125
:106E4000902002E4F0900A1AF07FE122E4900A1AFE
:106E5000F09006E8F0902301E030E5399006E87400
:106E6000E9F012911A246DF582E43493F583C0831E
:106E7000C082900B90E0D082D0831290FA129123BE
:106E80005013900A1DE030E707E49006E8F0800513
:106E900012913780E8902002E4F09006E8E0FF22AB
:1076DC00900A1AE060030277739023807405F0A37C
:1076EC007402F0EF6004E04410F0902382E4F0A305
:1076FC00EDF090222CE09007B0F090222CE044208A
:10770C00F09020027480F0902280E0547060046449
:10771C001070471291142485F582E43493F583C0DC
:10772C0083C082900B90E0D082D08375F002121B44
:10773C00EAE493FF740193900A15129109900A15CB
:10774C00E0FEA3E0FFC3900A18E09F900A17E09EAA
:10775C00500512913A80E6129141902002E4F0908B
:08776C0007B0E090222CF0228E
:109820009006E2EFF0A3EDF0D39402400A7F117EA0
:1098300007129DD97F11229006E2E0600AA3E0445E
:109840001090222CF0800690222C7430F07F0022A1
:06A2D10090222DEFF022A7
:10A05200EF90227E6005E04408F022E054F7F022FF
:1079CE00900B86EFF0D39403400A7F117E07129D31
:1079DE00D97F1122900B86E07010900A19E0700A80
:1079EE007F167E07129DD97F1622E4900B87F090AA
:1079FE000B86E0B4010D12A2B87F01127A5A7401FF
:107A0E00F08043900B86E0B4020D12A2B87F0212F2
:107A1E007A5A7402F0802F900B86E0B4031012A2F3
:107A2E00B87F03128844900A197403F08018E4FF9B
:107A3E00128844E4FD7F107E2712703B900B87EF77
:107A4E00F0E4900A19F0900B87E0FF221288449020
:037A5E000A1922E0
:109CE8009006E2EFF0D39416400A7F117E07129D8A
:0F9CF800D97F11229006E2E0FF1258A77F0022C9
:10A06200EF6009AF05129F91439EC022539E3F228B
:0EA10C00EF600712A2A9439CC022539C3F2281
:1096E200902281E0541FD39402402C9022BDE020AE
:1096F200E0257F019022B0E04401F0E4FDFC9022DD
:10970200BDE030E004E4FF800B0DBD00010CBC03A2
:08971200EDBDE8EAEF70DD2275
:084A9400410B8900410B880071
:1060EA009022EDE06580FF9022F0E05FFF9022EEC3
:1060FA00E06590FE9022F1E05EFE9022EFE065B04E
:10610A00FC9022F2E05CFC9022F0E022E5E8F0AD9F
:10611A009AA9E9759A07E4F5E8F5E99022E1746E1F
:10612A00F09022E6E054FBF0E054E7F022E09022FF
:10613A00E5F09022E27490F0D2D875E88075A880D4
:10614A0022E0FEEFF4FDEE5DF022EEF0A3EFF0A305
:10615A00EDF0A3EBF09022F0E055B9FFE06F22E5F5
:10616A00A8F0E4F5A89022EBE0229022F1E055BADB
:10617A00FFE06F229022F2E055BCFFE06F22EF446D
:10618A0004FF9022EBE054E7F022E0FAA3E0FBEAF6
:10619A009022E3F0A3EBF022AF058F9AD2D8538F67
:1061AA00BF22E0FEEFF4FFEE5FF022FFE05403337C
:1061BA00333354F8FEEF4E22EF9022E0F0E4F59AE2
:1061CA0022E0F5E8AF018FE922E0FF7401A8070891
:0B61DA002254012FFFE0FDA806082260
:10891700900B19EAF0A3EBF0ED24FF92FCEF604C0B
:10892700900B19E07002A3E07010900B1BE0700A27
:108937007F117E08129DD97F11229022E1746EF07B
:10894700900B19E0FCA3E0FDEC9022E3F0A3EDF01F
:10895700900B1BE09022E5F0A3E054E7F0E04480A1
:10896700F0D2EC9022E0E04420F08009C2EC9022A3
:08897700E0E054DFF07F002274
:10993C00900B94EFF020E0069022E07498F09027C2
:10994C0083E4F012A2B8902780E4F0A3F0900B947B
:0E995C00E030E007902203E0547FF07F00220D
:109AB8009022E074D8F090278074F6F0A37423F015
:109AC800129AD2EF6003129AD22212A2B8E4FD7F52
:079AD800107E2712703B22F3
:107EA900900B70EFF0A3EDF0A3EBF0E4FFFE900B65
:107EB90070E0FDA806088002C313D8FC900B71126C
:107EC90061DB8002C313D8FC900B721261DB800264
:107ED900C313D8FC54012FFF0EEEB407D1EFC3949E
:107EE90002400A7F177E08129DD97F1122E4FFFE06
:107EF9001297EFAFA8AEE8ADE9900B70E0547FF5AB
:107F0900A8A3E0F5E8A3E0F5E943A8807587010097
:0C7F190000E4F5A88DE98EE88FA8FF2297
:104F6E00900A1E1261546002800C126174600280FD
:104F7E000512617E600A7F157E08129DD97F15226B
:104F8E00900A21E0D39403400A7F117E08129DD926
:104F9E007F112212A2B8E4900A28F0FFFE1297EFBA
:104FAE00900A23126169900A29F09022E1E0900A9A
:104FBE0027F09022E0E0900A26F09022E6E0900A98
:104FCE0025F0900A24126116900A22E0FC9022E647
:104FDE0030E706E0547FF08004E04480F09022E653
:104FEE00C083C082E0900A211261B5D082D083F0D6
:104FFE00900A1E126194900A201261377FB9EC302C
:10500E00E004EF54DFFF900A22E030E103126188E2
:10501E001261C2E5D220E5FB1260EA6F701DAF0689
:10502E00A3E06F7016AF04A3E0B5040F75870200FE
:10503E000000000000000000008006900A28741294
:10504E00F01261A2900A241261CB900A26E09022FF
:10505E00E0F0900A25E09022E6F0900A27E09022F8
:10506E00E1F0900A29E09022EBF0900A23E0F5A8F7
:10507E00900A28E0FF600D7408FEEF4E6005129D49
:10508E00D9800100E4FD7F107E2712703B900A2824
:03509E00E0FF220E
:1051CC00900A2A1261546002800C12617460028091
:1051DC000512617E600A7F157E08129DD97F15220B
:1051EC00900A2DE0D39403400A7F117E08129DD9BA
:1051FC007F1122E4900A34F07F107E271297EF90F3
:10520C000A2F126169900A35F09022E1E0900A337E
:10521C00F09022E0E0900A32F09022E6E0900A3121
:10522C00F0900A30126116900A2EE0FC9022E630C3
:10523C00E706E0547FF08004E04480F09022E6C062
:10524C0083C082E0900A2D1261B5D082D083F09099
:10525C000A2A126194900A2C1261377FBAEC30E062
:10526C0004EF54DFFF900A2EE030E1031261881244
:10527C0061C2E5D220E5FB1260EA6F701DAF06A398
:10528C00E06F7016AF04A3E0B5040F758702000041
:10529C0000000000000000008006900A347412F038
:1052AC001261A2900A301261CB900A32E09022E097
:1052BC00F0900A31E09022E6F0900A33E09022E17F
:1052CC00F0900A35E09022EBF0900A2FE0F5A890D0
:1052DC000A34E0FF600D7408FEEF4E6005129DD994
:0952EC00800100900A34E0FF2269
:105EE800900AABEF12615E6002800C12617460026E
:105EF800800512617E600A7F157E08129DD97F1584
:105F080022E4900AB1F07F107E271297EF900AAC36
:105F1800126169900AB2F09022E1E0900AB0F09024
:105F280022E0E0900AAFF09022E6E0900AAEF0900E
:105F38000AADE5E8F0AF9A12611B12613C7E9B90B6
:105F48000AABE030E107EE4404FE12618CEE126108
:105F5800C3E5D220E5FB9022EDE06580FE9022F0BB
:105F6800E05EFE9022EEE06590FD9022F1E05DFD9E
:105F78001261046E701DAE05A3E06E7016AE04A328
:105F8800E0B5040F75870200000000000000000063
:105F9800008006900AB17412F01261A4900AAD1242
:105FA80061CB900AAFE09022E0F0900AAEE0902238
:105FB800E6F0900AB0E09022E1F0900AB2E0902278
:105FC800EBF0900AACE0F5A8900AB1E0FF600D7420
:105FD80008FEEF4E6005129DD9800100900AB1E0DD
:025FE800FF2296
:108BCD00900B74EDF0A3EBF0900B73EFF0D39407D3
:108BDD00400A7F167E08129DD97F1622900B7312C4
:108BED0061D38002C333D8FCFF9022EAE04FF090AE
:108BFD000B75E09022ED600BE04FF09022E71261D3
:108C0D004B800912614B9022E7E04FF0900B74E01E
:108C1D009022F06005E04FF080031261AC7F0022DE
:108C2D00900B77EDF0A3EBF0900B76EFF0D394076C
:108C3D00400A7F167E08129DD97F1622900B761260
:108C4D0061D38002C333D8FCFF9022EBE04FF0904C
:108C5D000B78E09022EE600BE04FF09022E812616D
:108C6D004B800912614B9022E8E04FF0900B77E0BA
:108C7D009022F16005E04FF080031261AC7F00227D
:108C8D00900B7AEDF0A3EBF0900B79EFF0D3940706
:108C9D00400A7F167E08129DD97F1622900B7912FD
:108CAD0061D38002C333D8FCFF9022ECE04FF090EB
:108CBD000B7BE09022EF600BE04FF09022E9126108
:108CCD004B800912614B9022E9E04FF0900B7AE056
:108CDD009022F26005E04FF080031261AC7F00221C
:107C9B00EFF0A3ECF0A3EDF0A3EAF0A3EBF0E59A81
:107CAB0022EFF07F807E387D017C00A3121BA1D3D5
:107CBB00021B5EE0FCE41214A8E4FBFA79C87842DC
:107CCB00021401121BA17F007E127D7A7C00021A26
:107CDB00B1E47F7BFEFDFC121BA1C3021B5E1212E3
:107CEB00F81214DCAB07AA06EB4A22E0FCA3E0FD7A
:107CFB00E40214A3E0FEA3E0FFD322A3E0FEA3E083
:107D0B00FD22FFE0FCA3E0FD22E47F7BFEFDFC22D5
:077D1B00FFE0FCA3E0FD22E4
:049E7900E0FD7F0188
:109E7D00ED600543F908800353F9F7EF600443E9FA
:069E8D00082253E9F72250
:0BA1C100EF6004439A0822539AF72233
:107F2500900AF3127C9B20E30A7F127E09129DD9E9
:107F35007F1222900AF4127CFF900AF7E09F900AC4
:107F4500F6E09E400A7F117E09129DD97F1122908D
:107F550025867420F0900AF3E0603A127D0690259C
:107F650083F0EEFC902582F0900AF6A3E0FB9025C5
:107F750085F0900AF6E0FF902584F0902586740937
:107F8500F0902583EBF0902582EFF0902585EDF0BC
:0C7F9500902584ECF0E4900AF8F0FF2244
:10863200900B1CEF127C9F20E30A7F127E09129D91
:10864200D97F1222C3900B1FE09420900B1EE0945E
:1086520003500A7F117E09129DD97F11229025862F
:108662007420F0900B1CE0602A900B1EE0FEA3E049
:10867200902583F0EE902582F0A3E0902585F0907E
:108682002582E0902584F09025867481F0900B1D60
:0A869200129E79E4900B20F0FF2205
:1084DD00900A75127CAC501A900A76127CDC500210
:1084ED008010900A7AE0FFD394635006EFC3940195
:1084FD00500A7F117E09129DD97F1122900A7612A2
:10850D007CCE900A7CEEF0A3EFF0900A7A127CBE3E
:10851D00C004C005C006C007900A7C127CF6D003CB
:10852D00D002D001D000127CE97003FA7B01900AD1
:10853D0075E0900A7C127D0D900A7BE0900AF8F0B0
:04854D00127F252252
:0BA1CC00EF6004439A1022539AEF2228
:107FA100900AF9127C9B20E40A7F137E09129DD965
:107FB1007F1322900AFA127CFF900AFDE09F900A3B
:107FC100FCE09E400A7F117E09129DD97F1122900B
:107FD100258E7420F0900AF9E0603A127D06902512
:107FE1008BF0EEFC90258AF0900AFCA3E0FB902533
:107FF1008DF0900AFCE0FF90258CF090258E74099D
:10800100F090258BEBF090258AEFF090258DEDF027
:0C80110090258CECF0E4900AFEF0FF22B9
:10869C00900B21EF127C9F20E40A7F137E09129D20
:1086AC00D97F1322C3900B24E09420900B23E094E9
:1086BC0003500A7F117E09129DD97F112290258EBD
:1086CC007420F0900B21E0602A900B23E0FEA3E0D5
:1086DC0090258BF0EE90258AF0A3E090258DF090FC
:1086EC00258AE090258CF090258E7481F0900B22D9
:0A86FC00129E79E4900B25F0FF2296
:10855100900A7E127CAC501A900A7F127CDC500289
:108561008010900A83E0FFD394635006EFC3940117
:10857100500A7F117E09129DD97F1122900A7F1224
:108581007CCE900A85EEF0A3EFF0900A83127CBEB8
:10859100C004C005C006C007900A85127CF6D0034E
:1085A100D002D001D000127CE97003FA7B01900A5D
:1085B1007EE0900A85127D0D900A84E0900AFEF01B
:0485C100127FA12262
:0BA1D700EF6004439A2022539ADF221D
:10801D00900AFF127C9B20E50A7F147E09129DD9E0
:10802D007F1422900B00127CFF900B03E09F900BAE
:10803D0002E09E400A7F117E09129DD97F11229088
:10804D0025967420F0900AFFE0603A127D06902587
:10805D0093F0EEFC902592F0900B02A3E0FB90259F
:10806D0095F0900B02E0FF902594F0902596740901
:10807D00F0902593EBF0902592EFF0902595EDF093
:0C808D00902594ECF0E4900B04F0FF222E
:10870600900B26EF127C9F20E50A7F147E09129DAE
:10871600D97F1422C3900B29E09420900B28E09473
:1087260003500A7F117E09129DD97F11229025964A
:108736007420F0900B26E0602A900B28E0FEA3E060
:10874600902593F0EE902592F0A3E0902595F09079
:108756002592E0902594F09025967481F0900B2751
:0A876600129E79E4900B2AF0FF2226
:10837900900A87127CAC501D127D14900A88127CD9
:10838900E250028010900A8CE0FFD394635006EF0C
:10839900C39401500A7F117E09129DD97F11229041
:1083A9000A88127CCE900A8EEEF0A3EFF0900A8C28
:1083B900127CBEC004C005C006C007900A8E127C9C
:1083C900F6D003D002D001D000127CE97003FA7B09
:1083D90001900A87E0900A8E127D1B900A8DE09029
:0783E9000B04F012801D22BD
:0BA1E200EF6004439A4022539ABF2212
:10809900900B05127C9B20E60A7F157E09129DD95B
:1080A9007F1522900B06127CFF900B09E09F900B25
:1080B90008E09E400A7F117E09129DD97F11229006
:1080C900259E7420F0900B05E0603A127D069025FC
:1080D9009BF0EEFC90259AF0900B08A3E0FB90250D
:1080E9009DF0900B08E0FF90259CF090259E740967
:1080F900F090259BEBF090259AEFF090259DEDF0FF
:0C81090090259CECF0E4900B0AF0FF22A3
:10877000900B2BEF127C9F20E60A7F157E09129D3D
:10878000D97F1522C3900B2EE09420900B2DE094FE
:1087900003500A7F117E09129DD97F112290259ED8
:1087A0007420F0900B2BE0602A900B2DE0FEA3E0EC
:1087B00090259BF0EE90259AF0A3E090259DF090F7
:1087C000259AE090259CF090259E7481F0900B2CCA
:0A87D000129E79E4900B2FF0FF22B7
:1083F000900A90127CAC501D127D14900A91127C50
:10840000E250028010900A95E0FFD394635006EF8B
:10841000C39401500A7F117E09129DD97F112290C9
:108420000A91127CCE900A97EEF0A3EFF0900A9595
:10843000127CBEC004C005C006C007900A97127C1B
:10844000F6D003D002D001D000127CE97003FA7B91
:1084500001900A90E0900A97127D1B900A96E09096
:078460000B0AF012809922C3
:0BA1ED00EF6004439A8022539A7F2207
:10811500900B0B127C9B20E70A7F167E09129DD9D6
:108125007F1622900B0C127CFF900B0FE09F900B9B
:108135000EE09E400A7F117E09129DD97F11229083
:1081450025A67420F0900B0BE0603A127D06902571
:10815500A3F0EEFC9025A2F0900B0EA3E0FB90257A
:10816500A5F0900B0EE0FF9025A4F09025A67409CC
:10817500F09025A3EBF09025A2EFF09025A5EDF06A
:0C8185009025A4ECF0E4900B10F0FF2219
:1087DA00900B30EF127C9F20E70A7F167E09129DCC
:1087EA00D97F1622C3900B33E09420900B32E09489
:1087FA0003500A7F117E09129DD97F11229025A666
:10880A007420F0900B30E0602A900B32E0FEA3E077
:10881A009025A3F0EE9025A2F0A3E09025A5F09074
:10882A0025A2E09025A4F09025A67481F0900B3142
:0A883A00129E79E4900B34F0FF2247
:10828600900A99127CAC501D127D14900A9A127CA9
:10829600E250028010900A9EE0FFD394635006EFEE
:1082A600C39401500A7F117E09129DD97F11229035
:1082B6000A9A127CCE900AA0EEF0A3EFF0900A9EE6
:1082C600127CBEC004C005C006C007900AA0127C7E
:1082D600F6D003D002D001D000127CE97003FA7BFD
:1082E60001900A99E0FF900AA0E0FCA3E0FD900A45
:0A82F6009FE0900B10F0128115229A
:044A9C00410B390091
:1063D100E0FFE4FCFDFE121B43900B44121BAD9049
:1063E1000B44121B957808121B82900B44121BADB3
:1063F100900B4422E0FFE4FCFDFE121B43900B488E
:10640100121BAD900B48121B957808121B82900B42
:1064110048121BAD900B4822EFF09006EF121B952E
:106421007808121B6F9006EF121BAD9006EF021B4E
:1064310095EFF09006EF121B957808121B6F9006EE
:10644100EF121BAD9006EF021B95902780E054FEE2
:10645100F022AC02AD017B107A007E2122E4F090A3
:106461002780E022E0FFE4FCFDFE22AC02AD01E06A
:10647100FB7A0022121C16AE02AF01C3EE94232256
:10648100AC02AD017B087A007E2122AE02AF017B16
:10649100087A007C2122121BADE4FB902780E022C8
:1064A1009006EB021BF6902780E04401F07F032267
:1064B10090219F7401F022E04404F090219FE4F0C8
:0164C10022B8
:109B06009006E212645E20E00AE04401F09006E26C
:109B16007401F07F001264531285C59006E2E0607E
:059B26000312644B2254
:109B2B00900B9512645E20E00AE04401F0900B95D7
:109B3B007401F07F301264531285C5900B95E06071
:059B4B000312644B222F
:109DF500E4FE902780E020E006E04401F07E01903B
:0B9E05002140EFF0EE600312644B22DE
:1098B0009006EF12649720E005E04401F00B12647B
:1098C0002C90214112641990214212641990214375
:0F98D000126419902144EFF0EB600312644B22F5
:109A4000E49006E2F0902780E020E00AE04401F094
:109A50009006E27401F07F451264811285C590067C
:089A6000E2E0600312644B22F6
:109E1000E4FE902780E020E006E04401F07E01901F
:0B9E20002110EFF0EE600312644B22F3
:1098DF009006EF12649720E005E04401F00B12644C
:1098EF00459021111264329021121264329021138B
:0F98FF00126432902114EFF0EB600312644B22DD
:109A6800E49006E2F0902780E020E00AE04401F06C
:109A78009006E27401F07F151264811285C5900684
:089A8800E2E0600312644B22CE
:06A2D700902140E0FF228F
:10996A009021441264651263DA121BA190214312FA
:10997A0063D1121BA19021421263D1121BA1902123
:0E998A0041126465121B431263EB121B9522FF
:08A289007D4512648C0285C5BD
:06A2DD00902110E0FF22B9
:109998009021141264651263FE121BA19021131208
:1099A80063F5121BA19021121263F5121BA19021DD
:0E99B80011126465121B4312640F121B9522DC
:08A291007D1512648C0285C5E5
:08A29900EF547F902194F022A4
:08A2A100EF547F902195F0229B
:10A07200EF9021936005E04440F022E054BFF022CB
:10A08200EF9021936005E04420F022E054DFF022BB
:1094B0009006EFEFF0700280129006EFE0D3941068
:1094C000400280079006EFE030E00A7F1A7E0A1221
:1094D0009DD97F1A229006EFE0C31314FF902193C9
:1094E000E054E3F0E0FEEF25E025E0FFEE4FF07FF3
:0294F000002258
:1097BD009006EFEFF0D39403400A7F117E0A129DBD
:1097CD00D97F1122902193E054FCF0C083C082E038
:1097DD00FF9006EFE05403FEEF4ED082D083F07F72
:0297ED00002258
:1050A1009006E5EDF09006E21264754013D3EF949B
:1050B100FFEE9424500A7F187E0A129DD97F182290
:1050C1001264A1E412186D9006E5E0D39479400AC8
:1050D1007F167E0A129DD97F16229006E5E0B40163
:1050E1000A7F177E0A129DD97F17221264A7129791
:1050F100BD9006E6121B951298B09006EAE0FF12E9
:105101009DF5E4FF12A2997F041294B01264B1904C
:1051110006E5E02402902300F09006E2121BF690CF
:1051210006E512646C7F017E231285C5902007E499
:10513100F09006E5E02402902008F09006EE74124B
:10514100F0902180E054FBF09020031264B8900BA2
:1051510035F0A3F0902180E030E207E49006EEF014
:105161008016900B35E475F00112193E900B35E075
:10517100B402E1A3E0B458DC9006EEE07030900692
:10518100E5E02404FF1264A1EF12186D1264B190DE
:1051910006E2121BF6AE02AF011264A1121805FB62
:1051A1007A007D017C231285C590219FE4F0126471
:1051B1004B9006EEE0FF600D740AFEEF4E600512A3
:0B51C1009DD98001009006EEE0FF2267
:104CF5009006E5EDF09006E21264754013D3EF944B
:104D0500FFEE9424500A7F187E0A129DD97F18223F
:104D15009006EB121BF6E412186D9006E5E0FFD342
:104D2500947D5006EFC39404500A7F167E0A129DA7
:104D3500D97F16221264A71297BD9006E6121B951D
:104D45001298DF9006EAE0FF129E10E4FF12A2A17E
:104D55007F041294B01264B19006E5E02402902419
:104D650000F09006E2121BF69006E512646C7F01D6
:104D75007E241285C5902087E4F09006E5E02402A4
:104D8500902088F09006EE7413F0902180E054FD99
:104D9500F09020831264B8900B37F0A3F090218037
:104DA500E030E107E49006EEF08016900B37E475ED
:104DB500F00112193E900B37E0B402E1A3E0B458BC
:104DC500DC9006EEE0704990219F04F09006E21217
:104DD5001BF6AE02AF019006E5E0FB7A007D017C93
:104DE500241285C59006E5E0FFE42FF582E434241E
:104DF500F583E07010EF24FCFF9006EB121BF6EF35
:104E050012186D80069006EE7414F090219FE4F060
:104E150012644B9006EEE0FF600D740AFEEF4E60E3
:0D4E250005129DD98001009006EEE0FF22ED
:104AA0004109510042094F000042099300004109A9
:024AB0004E5561
:109C2300121BF68F8275830012181E902542F0E4F2
:109C3300F583D2AF22902540E054BFF0E04440F0DA
:029C4300E42219
:0BA1F800EF60044398802253987F2200
:0EA11A00439810D2B7E4FB7D017F0702553F4A
:07A14200E4900951F07F01D8
:06A14900EF24FF92B72293
:105DE400900B11EFF0A3EDF0A3EBF0E59820E70A98
:105DF4007F107E0B129DD97F1022900B14E0D39458
:105E040009400A7F117E0B129DD97F1122900B1439
:105E1400E0FF24FE601314601824FA601C24087048
:105E240020900B157405F0801F900B157403F080FF
:105E340017900B157404F0800F900B15740BF08001
:105E440007EF2402900B15F0902540E4F0902543D1
:105E5400F0902540C083C082E0FF900B15E0FE5413
:105E640003FDEF4DD082D083F0902543E0FFEE5444
:105E74000C1313543FFEEF4EF0900B11E0605BA245
:105E8400AFE433900B16F0C2AF900B12E024FF92F4
:105E9400FDA3E030E40312A11A902540C083C08220
:105EA400E0FF900B13E0FE541CFDEF4DD082D08335
:105EB400F0902540E044C0F0D2EDEE20E412E4FF7F
:105EC40090094EE0902542F0E4F5830FEFB410F012
:105ED400900B16E024FF92AF8007902540E4F0C2B7
:045EE400ED7F00222C
:109D0700AE07E4FF12A149C2AF902542EE129C3183
:0F9D1700900951E060FA12A142900992E0FF22F8
:108FB100900B4C121C16900B4FEDF0D39410400AFD
:108FC1007F117E0B129DD97F1122E4900951F0FF90
:108FD10012A149900B4FE0FEEFC39E500BC2AF9020
:108FE1000B4C129C230F80EB900951E0FF900B4F2B
:0F8FF100E0B50703D38001C350EE12A1421F2247
:109F1300129C38FEC2AF902542EF129C310EEEB474
:089F230010F290094EEFF0224C
:10971A00900B7C121C16EDD39410400A7F117E0B1D
:10972A00129DD97F1122129C38FFC2AF900B7C1276
:10973A009C230FEFB410F3900B7C121BF612180542
:07974A0090094EF07F0022A0
:1095F600900993A3E0FFC3900950E09FFFEF543F0B
:10960600602A900993A3E02452F582E43409F58395
:10961600E012186D900994E02401FF9009937E00F2
:0F962600EF543FFFEEF0A3EFF07F01227F002211
:107268007FF07EFF7D077C00121BA1D3021B5EEF1F
:10727800F0A3EDF0A3EBF0E59822AD07AC06ECF037
:107288007C00E41214A3783FE4FBFAF91212070217
:1072980014DCC3E49BFFE49AFE740199FDE498FCB6
:1072A800021BADAF05EF24FF92AF7F0022E4900AE6
:1072B80064FEFDFC021BA1E0FFE4FCFDFEA3121B23
:1072C800A1021A26E47B03FAF9F8021B95E0FEA353
:1072D800E0FFC3E49FFFE49EFEAC0722E024FF9298
:1072E800B9A3E024FF928C22E024FF92BBA3E02400
:1072F800FF928E229006E6021BADFB121B957808C2
:0D730800021B6F900AA6121BAD900AA62270
:0BA20300EF6004439801225398FE22F4
:10793A009006E212727720E00A7F137E0C129DD91C
:10794A007F13229006E5E0D39462400A7F177E0CEB
:10795A00129DD97F1722A2AFE4339006EAF0C2AF94
:10796A009006E6121BB9000007D09006E51272BF16
:10797A001272FC9006E61272CC121AB1E4FDFC12E5
:10798A0072FC9006E6121BA19006E612729A900605
:10799A00E6121B95900B52EFF09006E612730290D6
:1079AA000B50EFF08B8AF58C5389F04389019006CE
:1079BA00E31272E49006E2E024FF92A99006EAE05C
:0479CA001272AE2265
:10939D00900B3A12727720E00A7F137E0C129DD942
:1093AD007F1322A2AFE433FDC2AF900B3D1272D5F5
:1093BD00900B52ECF0EE900B50F08C8AF58C53899B
:1093CD00F0438901900B3B1272E4900B3AE024FFBD
:0693DD0092A91272AB22FE
:0BA20E00EF6004439802225398FD22E9
:107B8500900AA212727720E10A7F147E0C129DD909
:107B95007F1422900AA5E0D39462400A7F187E0CD8
:107BA500129DD97F1822A2AFE433900AAAF0C2AF82
:107BB500900AA6121BB9000007D0900AA51272BF41
:107BC50012730B1272CC121AB1E4FDFC12730B1274
:107BD5001BA1900AA612729A900AA6121B95900BE9
:107BE50053EFF0900AA6127302900B51EFF08B8BB6
:107BF500F58D53890F438910900AA31272F0900AEC
:0E7C0500A2E024FF92AB900AAAE01272AE2217
:1093E300900B3F12727720E10A7F147E0C129DD9F5
:1093F3007F1422A2AFE433FDC2AF900B421272D5A9
:10940300900B53ECF0EE900B51F08C8BF58D538950
:109413000F438910900B401272F0900B3FE024FF32
:0694230092AB1272AB22B5
:0BA21900EF6004439804225398FB22DE
:1061E500900A6112727720E20A7F157E0C129DD902
:1061F5007F15227F051272B5C3121B5E5012900ADD
:1062050064127268400A7F197E0C129DD97F19228B
:106215007FF87EFF7D037C00900A64127270400E49
:10622500900A697440F0900A687406F080447FFC17
:106235007EFF7D017C00900A64127270400E900A08
:10624500697420F0900A687405F08026E47FFE7E6C
:10625500FFFDFC900A64127270900A69400B74107D
:10626500F0900A687404F080097408F0900A687464
:1062750003F07F081272B5121A26C007900A69E06A
:10628500FBE4FAF9F8D007121AB1E412149E78BFAC
:10629500127290900A6A127282A2AFE433FEC2AF04
:1062A50053A9F0900A61E06027900A6AE0F5AA8F89
:1062B500AC900A62E024FF92F9A3E0600C900A68B2
:1062C500E025E0440142A9800353A9FED2E98002FA
:0962D500C2E9AF06EE1272AE221E
:0BA22400EF6004439808225398F722D3
:105AD500900A6B12727720E30A7F167E0C129DD90D
:105AE5007F1622E47F05900A6E1272B9C3121B5EFF
:105AF5005012900A6E127268400A7F1A7E0C129D2F
:105B0500D97F1A227FF87EFF7D037C00900A6E12F2
:105B15007270400E900A737440F0900A727407F028
:105B250080447FFC7EFF7D017C00900A6E127270BE
:105B3500400E900A737420F0900A727406F0802665
:105B4500E47FFE7EFFFDFC900A6E127270900A7370
:105B5500400B7410F0900A727405F080097408F017
:105B6500900A727404F0E47F08FEFDFC900A6E1240
:105B750072C6C007900A73E0FBE4FAF9F8D0071281
:105B85001AB1E412149EE4FBFAF978BF12729490EC
:105B95000A74127282A2AFE433FEC2AF53A90F900A
:105BA5000A6BE06029900A74E0F5AB8FAD900A6C42
:105BB500E024FF92FBA3E0600E900A72E0C4335428
:105BC500E0441042A9800353A9EFD2EB8002C2EB57
:075BD500AF06EE1272AE22D2
:105787000709433B0B0709433B0B0707433B0B0742
:10579700078B3B0B07078B040B07078B04040707D3
:1057A7008B0404040B048B061705078B0404040DF4
:1057B7008B0404040D000B0B040400008B06170573
:1057C700000006170500000017050000000005008F
:1057D70000000000040700000000070000000000B0
:1057E7001D0B000001000B0000010000000001007C
:1057F70000000001000000000100000000000000A0
:105807000000000000000000000000000000000091
:105817000000000000000000000000000000000081
:105827000000000000000000000000000000000071
:105837000000000000000000000000000000000061
:10584700C393C7712FEE93C7712FEE77C7712FEEF2
:105857007703712FEE7703342FEE7703341AEE7741
:1058670003341A0D658B021703077703341A0D02E9
:1058770003341A0D02001A0D12090000021703075C
:1058870000001703070000000307000000000700DF
:1058970000000000070200000000020000000000F6
:104AB2004207BD00004207B300004207C1000042A6
:104AC20007B700004107BB014207BF00004207B51C
:104AD20000004207C300004207B900004107BC01C1
:1071B500E4FAF9F8900B54121B95129429EF243038
:1071C500902510F0900B54021B95E4FAF9F81294EF
:1071D50029AC00AD01AE02AF03900B54021BADFF0D
:1071E500C3E09FFF7E00EF543FFFAD01ED24FF227A
:1071F500FF121BF6EF12186D900B90E0FF9006FB47
:10720500E075F006A422F583E5822FF582E4358347
:10721500F583E49322E433F0C2E8A2ACE43322E43C
:1072250033F0C2E8A2AEE43322A2AFE433FFC2AF2B
:1072350022C374409FFFE49EFED3EF9403EE9400B7
:1072450022E4F0A3E0543FF022E012186DE4F58348
:10725500EF24FF92AF7F0122121BF68F8275830008
:0372650002181EEE
:104BA9009006F1121C16E49006FAF0121CFB4C1B3D
:104BB9000000012C4C22000002584C2A000004B0CD
:104BC9004C32000009604C3A000012C04C4200000F
:104BD90025804C4A000038404C5200004B004C5A8A
:104BE900000096004C620000DAC04C6A0000E10047
:104BF9004C720001C2004C7A000384004C82000709
:104C090008004C8A0008CA004C9200119400000068
:104C19004C9AE49006FBF0807E9006FB7401F080CC
:104C2900769006FB7402F0806E9006FB7403F080A8
:104C3900669006FB7404F0805E9006FB7405F080B4
:104C4900569006FB7406F0804E9006FB7407F080C0
:104C5900469006FB7408F0803E9006FB7409F080CC
:104C6900369006FB740AF0802E9006FB740BF080D8
:104C7900269006FB740CF0801E9006FB740DF080E4
:104C8900169006FB740EF0800E9006FB740FF080F0
:104C9900069006FA7412F09006FAE070491271FD56
:104CA9002487F582E4345712720B9006F11271F5DC
:104CB90024E7F582E4345712720B9006F41271F569
:104CC9002447F582E4345812720BFF9006F7121B41
:104CD900F6EF12186D9006F7121BF61218057006FA
:0C4CE9009006FA7412F09006FAE0FF2228
:0BA22F00EF6004439820225398DF22C8
:1065AF00900A41EFF0A3EDF0E59820E50A7F107E09
:1065BF000D129DD97F1022E4900A4BF0900A41E012
:1065CF006028900A43121B957B017A0A794890063E
:1065DF00F4121C167A0A099006F7121C167A0A0989
:1065EF00124BA9900A4BEFF0800BE4900A4AF090FF
:1065FF000A48F0A3F0900A4BE0FF6013740DFEEF12
:10660F004E6005129DD9800100900A4BE0FF2212C7
:10661F00722E902505E4F09025037480F0900A49BE
:10662F00E0902500F0900A48E0902501F0900A4A8A
:10663F00E0902507F0902503E4F0902507F0900AED
:10664F0041E060389025027481F0900A47E0FE54D3
:10665F003F902503F0902501E4F0EE20E604E0449E
:10666F0001F0900A47E020E707902501E04402F08F
:10667F00D2AC900A42E024FF92BC8009902501E43D
:0D668F00F0C2ACC2BCEF24FF92AF7F00222E
:109C6600A2E89006FA12721AF9C2AC9007B3A3E002
:109C76009007BE1271E492AC9006FAE024FF92E8D7
:019C860022BB
:109C8700A2E890076712721AF9C2AC9007B7A3E06F
:109C97009007C21271E492AC900767E024FF92E844
:019CA700229A
:108EB100AC07129C8712723640F8A2E8E433FF1225
:108EC100721DFEC2AC9007BBE06010E4F0C2AF902F
:108ED1002500ECF0E4F583D2AF80209007C1A3E038
:108EE1002445F582E43408F583ECF09007C1E4757C
:108EF100F00112193E9007C1127246EE24FF92ACA6
:068F0100EF24FF92E822BC
:109054009006F6121C16129C66EF4E7002FF22A2B6
:10906400E8E4339006F912721CFFC2AC9007B3E433
:1090740075F001121954FC74C525F0F58274073C8F
:10908400F583E0FE9006F6121BF6EE12186D9007BB
:10909400B3127246EF24FF92AC9006F9E024FF92DB
:0490A400E87F01223E
:109FA500E4FF9007BBE070010F902505E020E50276
:039FB5007F012207
:1091E100900767121C16902501E030E1037F1322DE
:1091F100EDD3941040037F1422902505E030E5F96A
:10920100E4FFEFC39D5022A2AFE43390076AF0C29E
:10921100AF90076712725D902500F0E4F583900727
:0C9221006AE024FF92AF0F80D97F00228A
:109F5500902505E030E00A12722E90250012724E0F
:049F6500227F002235
:0BA23A00EF6004439840225398BF22BD
:10669C009006E2EFF0A3EDF0E59820E60A7F107E7D
:1066AC000D129DD97F1022E49006ECF09006E2E0EA
:1066BC0060289006E4121B957B017A0679E9900616
:1066CC00F4121C167A06099006F7121C167A0609A3
:1066DC00124BA99006ECEFF0800BE49006EBF090D7
:1066EC0006E9F0A3F09006ECE0FF6013740DFEEFEA
:1066FC004E6005129DD98001009006ECE0FF22123D
:10670C00722E902515E4F09025137480F09006EA13
:10671C00E0902510F09006E9E0902511F09006EB42
:10672C00E0902517F0902513E4F0902517F09006D3
:10673C00E2E060389025127481F09006E8E0FE5497
:10674C003F902513F0902511E4F0EE20E604E04490
:10675C0001F09006E8E020E707902511E04402F0F4
:10676C00D2AE9006E3E024FF92BE8009902511E49E
:0D677C00F0C2AEC2BEEF24FF92AF7F00223C
:109B7400A2E89006FA127224F9C2AE9007B5A3E0E7
:109B8400FFC39007C01271E692AE9006FAE024FF7C
:039B940092E82232
:109B9700A2E8900767127224F9C2AE9007B9A3E052
:109BA700FFC39007C41271E692AE900767E024FFE7
:039BB70092E8220F
:108E5A00AC07129B9712723640F8A2E8E433FF126D
:108E6A007227FEC2AE9007BCE06010E4F0C2AF9079
:108E7A002510ECF0E4F583D2AF80219007C3A3E07C
:108E8A002485F582E43408F583ECF09007C3E47591
:108E9A00F00112193EE49007C3127247EE24FF92C2
:078EAA00AEEF24FF92E82265
:108F07009006F6121C16129B74EF4E7002FF22A2F7
:108F1700E8E4339006F9127226FFC2AE9007B5E473
:108F270075F001121954FC740525F0F58274083C9C
:108F3700F583E0FE9006F6121BF6EE12186DE4902C
:108F470007B5127247EF24FF92AE9006F9E024FFAF
:058F570092E87F0122F9
:109FB800E4FF9007BCE070010F902515E020E50252
:039FC8007F0122F4
:10922D00900767121C16902511E030E1037F132281
:10923D00EDD3941040037F1422902515E030E5F90D
:10924D00E4FFEFC39D5022A2AFE43390076AF0C252
:10925D00AF90076712725D902510F0E4F5839007CB
:0C926D006AE024FF92AF0F80D97F00223E
:109F6900902515E030E00A12722E90251012724EDB
:049F7900227F002221
:10750A001271DE1271C9EC3350181271C9121B5074
:10751A001271DE902510742DF0902515E020E508F3
:10752A0080F79025107420F0E47B107A271271B747
:10753A00E47B107A271271D1902515E030E5F9E441
:10754A007BE87A031271B7E47BE87A031271D1906F
:10755A002515E030E5F97B641271B57B641271CFB1
:10756A00902515E030E5F97B0A1271B57B0A127194
:10757A00CF902515E030E5F91271C9EF2430902536
:10758A0010F0902515E030E5F99025107420F09060
:0D759A002515E030E5F9E47F01FEFDFC223F
:09A27800C2AF75D25575D2AA22BD
:0BA24500EF6004439201225392FE22BE
:1090A8009006F3EFF0A3EDF0E59220E00A7F107E42
:1090B8000E129DD97F10229006F4E0D3940F400A37
:1090C8007F117E0E129DD97F1122A2AFE433FFC219
:1090D800AF9006F3E0600D12A27AA3E0540F44406B
:1090E800F5D2800612A27A75D280EF24FF92AF7F64
:0290F800002254
:109A900090FFFF121D35A2AFE433850D83850E8242
:109AA000F012A27843D240850D83850E82E024FF18
:089AB00092AF900001021D3588
:1097EF00A2AFE4339006F2F0C2AFEF4E600E900BD3
:1097FF008AEEF0A3EFF07D0F7F018009E4900B8AD2
:10980F00F0A3F0FDFF1290A89006F2E024FF92AFB4
:01981F002226
:109B50009006E2EFF0D3940F400A7F117E0E129D23
:109B6000D97F112212A2789006E2E0540FF5D24379
:049B7000920180FEE0
:1095B5009006E2121C167F007E10E49006E5F0FD91
:1095C500EF2DF582E43EF583E493FC9006E5E02C6F
:1095D500F09006E2121BF68D82758300EC12187F5F
:1095E5000DEDB440DB9006E5E070037F01227F00BE
:0195F5002253
:0C4AE200410ABA00410AB500410AB900BF
:107C1300E5E8F0A3E5E9F0AFA875E902E4F5E87556
:107C2300A8809027927483F090279EE0C2AF90279C
:107C330093E0E4F583D2AF2290279F7444F090271A
:107C430092E0547FF0E4900AB5F022121BF68E8284
:107C530075830012181E902790F0E4F583D2AF22AB
:107C6300EFF0A3EDF0A3121C16E59922902792746E
:107C730080F022E0547F25E0902791F022FEE490EB
:107C83000ABAF0902792E022129D64902792E02294
:087C9300E0F5E88FA8AF05221F
:0BA25000EF60044399802253997F22A5
:107D2200900B58EFF0A3EDF0A3EBF0E59920E70AF2
:107D32007F107E11129DD97F1022900B5BE0C394BD
:107D420012500A7411FFFE129DD97F1122900B5816
:107D5200E0604AA2AFE433FFC2AF900B5BE0902732
:107D620094F090279674FFF0902795E4F090279373
:107D7200E090279EE0900B5AE090279230E0057445
:107D8200A3F080037483F053F9FD900B59E0600374
:107D920043F90243E902EF24FF92AF800653E9FD63
:067DA200127C6F7F00223D
:109D6400E4900AB3F0A3F0900AB3E475F001121979
:0E9D74003E900AB3E07004A3E0640A70EA2295
:10746A00900ABB127C6320E70A7F107E11129DD915
:10747A007F1022900AC0E070028009900AC0E0D30F
:10748A00940F400A7411FFFE129DD97F1122E4FF66
:10749A00FE1297EF900AC1127C13900ABB127C76F7
:1074AA00C2AF900ABCE0127C59FE900AC0E0FDEE21
:1074BA00C39D500BC2AF900ABD127C4E0E80EB12D8
:1074CA007C3B900AC0E02402127C804470F0E4FD08
:1074DA00900AB5E060047D128007900ABAE0B5060A
:1074EA00EFED7006127C8B54EFF03096FD3097FA70
:1074FA00127C6F900AC2E0F5E9900AC1127C9322CD
:106F6E00900AC3127C6320E70A7F107E11129DD90E
:106F7E007F1022900AC8E070028009900AC8E0D300
:106F8E009410400A7411FFFE129DD97F1122E4FF66
:106F9E00FE1297EF900AC9127C13900AC3127C76E8
:106FAE00C2AF900AC4E0127C59900AC8E0902797AD
:106FBE00F0127C3B7E02127C82447CF0E4FD900A4F
:106FCE00B5E060047D128007900ABAE0B506EFEDD9
:106FDE0060083096FD3097FA8043127C8B54F7F0A0
:106FEE00902791E04401F0900AB5E060FAE4FE903B
:106FFE000AC8E0FCEEC39C501EC2AF902790E0FC86
:10700E00900AC5121BF68E82758300EC12187FE46F
:10701E00F583D2AF0E80D83096FD3097FA127C6F82
:0D702E00900ACAE0F5E9900AC9127C93228D
:10777400900AE0EF127C6720E70A7F107E11129DC9
:10778400D97F1022900AE4E070028009900AE4E0B4
:10779400D39410400A7411FFFE129DD97F1122E484
:1077A400FFFE1297EF900AE5127C13900AE0127C18
:1077B40076E4FE900AE4E0FDEEC39D500BC2AF9068
:1077C4000AE1127C4E0E80EB127C3B900AE4E0044A
:1077D400127C804470F0E4FD900AB5E060047D12F0
:1077E4008007900ABAE0B506EFED7006127C8B5460
:1077F400EFF03096FD3097FA127C6F900AE6E0F5D0
:08780400E9900AE5127C9322D1
:10687600900A4CEF127C6720E70A7F107E11129D6A
:10688600D97F1022E4FFFE1297EF900A53E5E8F055
:10689600A3E5E9F0A3E5A8F0127C1C900A4CE054AD
:1068A6007F25E04401902791F0900A50E0FFD394B1
:1068B60010400B9027977410F0EF24F08009900A8F
:1068C60050E0902797F0E4900AB9F0127C3B900ACA
:1068D600B9E0900A56F0E4900ABAF0900A4D121BFD
:1068E600F6900AB6121C16902792E04474F0E490D3
:1068F6000A51F0900AB5E060FAE4900A52F0902747
:1069060097E0FF900A52E0FEC39F502DC2AF90273A
:1069160090E0FFEEFD900A56E02DFDE433FC900A70
:106926004D121BF68D828C83EF12187FE4F583D20D
:10693600AF900A52E004F080C53096FD3097FA1207
:106946007C6F900A54E0F5E9900A53E0F5E8900A66
:0A69560055E0F5A8900A51E0FF2279
:044AEE00410B9700E1
:109F7D00F0C2AF9027A6E04480F0E4F583D2AF9015
:049F8D000B97F0221C
:0BA25B00EF6004439940225399BF229A
:1078A300900B5CEFF0A3EDF0A3EBF0E59920E60A73
:1078B3007410FFFE129DD97F1022E4900B97F09075
:1078C30027AA04F09027A974A5F0900B5EE0600D41
:1078D3009027ACE4F09027AB748CF080109027AA2B
:1078E300E09027ACF09027A9E09027ABF09027B267
:1078F300E4F09027B17464F09027AF745AF0A37446
:10790300B4F09027ADF0A3745AF0900B5FE090278A
:10791300A2F09027A6742FF0900B5DE0600543F969
:1079230001800353F9FE900B5CE0600543E901809D
:077933000353E9FE7F00226F
:1089E600900B8CEFF0E59920E60A7410FFFE129DBD
:1089F600D97F1022900B8CE09027A4F09027A774C3
:108A060008F0A37429129F7D900B8D7412F0E4FF79
:108A1600FE900B97E06007E4900B8DF0800B0FBF84
:108A260000010EBE75EBBF30E8900B8DE0FF600DC8
:108A36007410FEEF4E6005129DD9800100900B8DDB
:038A4600E0FF222C
:108F5C00E59920E60A7410FFFE129DD97F1022902D
:108F6C0027A77406F0A304129F7D900B967411F042
:108F7C00E4FFFE900B97E06007E4900B96F0800BFB
:108F8C000FBF00010EBE75EBBF30E8900B96E0FFF3
:108F9C00600D7410FEEF4E6005129DD9800100909B
:058FAC000B96E0FF221E
:109850000A0D2045564B203A204C49422056322EC4
:1098600035000000000000000000000000000000C3
:1098700000000000000000000000000000000000E8
:1075A700A37429F004F004F07429F004F004F074D3
:1075B70029F004F004F0229006E57412F0A3740396
:1075C700F0A32274039022CFF09022CE229006E5FA
:1075D7007413F0E4A3F0A322F0A3F0A3F0A3F0A3A5
:1075E700F0A3F0229006E57413F0A37401F0A32230
:1075F70074029022CFF09022CE22F0902249746339
:10760700F0A37455F0229022B0E04401F0E4FEFFAD
:1076170022F07464A3F0A37404F02274C0F0A3747E
:1076270070F090223C7490F02224A69022BFF09034
:0D76370022BEE4F022A3F0A37450F0A322C1
:10819100EFD394054025902232743AF0A37434F061
:1081A1009022381276229022427411F09022457466
:1081B1001E12760190224D7426804C902232744A10
:1081C100F0A37416F090224214F09022457423F02B
:1081D100EFC39405902238401A12762290224974F6
:1081E10021F0A304F090224D04F0A37499F0A3743C
:1081F10007F0227450F0A374B0F090223C74501236
:0B820100760190224D741212761822B4
:106CF20090278074F6F0A37423F09022B07440F0D1
:106D02009022C67480F09022C274B0F09022117466
:106D120002F090220C7405F09022207480F0A3E41B
:106D2200F0A37485F09022B97402F0A37463F0901A
:106D320022B774CFF0A3E4F09022C8745FF0A3747A
:106D420009F0EF30E0047E0E80027EA29022CAEEAD
:106D5200F0740812761BA3E4F0740B1275CC740F56
:106D6200F0902230744AF0902232F0A37416F0EFC1
:106D720030E0047E4B80027E4D902235EEF0EF3003
:106D8200E0047FC680027FCD902236EFF0745C1261
:106D9200763C74B0F090223B7450F0A3F090224005
:106DA2007420F0A3F0A37415F0A37410F0A3F0A361
:106DB2007423127601A374E1F090224D74121276BC
:0E6DC2001890221D7485F09022E1746EF0226C
:108E0200AE07EE6003B4010790222174018010EED8
:108E1200902221B40208E4F0A374E5F08006E4F0A5
:108E2200A37485F0AF06128191EED39405400D90A4
:108E320022197410F09022CA74D5F022EEC3940560
:108E4200902219400A7410F09022CA74AAF022E407
:088E5200F09022CA74A2F02284
:10490000E49006E4F0EF8EF0121CCE494F096549A1
:1049100058096A4961096F496A09744973097949F3
:104920007C097E49850983498E09884997098D4903
:104930009F099249A7099749AF099C49B709A1491D
:10494000BF09A649C709AB49CF09B0000049D71232
:1049500075BE7428F00249DD1275BE7450F002492C
:10496000DD1275BE7478F00249DD1275BE74A0F0D8
:104970000249DD1275BE74C8F00249DD1275BE74BD
:10498000F0F00249DD1275D47418F00249DD127599
:10499000D47440F00249DD1275D47468F0803E1280
:1049A00075D47490F080361275D474B8F0802E12DD
:1049B00075D474E0F080261275EB7408F0801E1236
:1049C00075EB7430F080161275EB7458F0800E128F
:1049D00075EB7480F080069006E47417F09006E49E
:1049E000E0FF6001229022BE74C0F09022B47401F6
:1049F000F09006E5E09022B1F09006E6E09022B259
:104A0000F09006E7E09022B3F09022B0E04401F08D
:104A10009006E47414F0E4FFFE9022BDE030E0075D
:104A2000E49006E4F0800B0FBF00010EBE27EABF42
:104A300010E79006E4E0601C12760D9022BDE03095
:104A4000E007E49006E4F0800B0FBF00010EBE27E4
:094A5000EABF10E79006E4E0FF64
:014A5900223A
:084E3200900B7FEEF0A3EFF0FE
:104E3A00C3945AEE94094010900B7FE0FCA3E0FD66
:104E4A00D394CBEC940940037F1122900B81741701
:104E5A00F0ED8CF0121CCE4EA509654EA7096A4EDC
:104E6A00AE096F4EB509744EBC09794EC3097E4E20
:104E7A00CA09834ED109884ED8098D4EDF09924E50
:104E8A00E609974EED099C4EF409A14EFB09A64F7F
:104E9A000209AB4F0209B000004F0D80009022C2F8
:104EAA0074D280599022C274D180529022C274D195
:104EBA00804B9022C274D180449022C274D0803D2B
:104ECA009022C274D080369022C274D0802F902251
:104EDA00C274D080289022C274CF80219022C274DA
:104EEA00CF801A9022C274CE80139022C274CE80D0
:104EFA000C9022C274CE80059022C274CDF0E49048
:104F0A000B81F0900B81E0FF6001229022B0E04417
:104F1A0002F0900B7FA3E0127630900B817414F0AC
:104F2A00E4FFFE9022BDE030E007E4900B81F080C0
:104F3A000B0FBF00010EBE27EABF10E7900B81E0FE
:104F4A00601C12760D9022BDE030E007E4900B81E0
:104F5A00F0800B0FBF00010EBE27EABF10E7900BCF
:034F6A0081E0FFE4
:014F6D002221
:1070FC00C3EF9465EE94094009D3EF94B0EE940974
:10710C0040037F1122C3EF94B0EE94094005902206
:10711C00C28033C3EF949CEE940940089022C27451
:10712C00B3F08025C3EF947EEE940940089022C200
:10713C0074B4F08014C3EF9465EE94099022C240AD
:10714C000574B5F0800374B2F0D3EF947EEE94091D
:10715C009022B950057422F080037402F09022B092
:10716C00E04402F0EF1276307D14FFFE9022BDE079
:10717C0030E004E4FD800B0FBF00010EBE27EDBF15
:10718C0010EAED601912760D9022BDE030E004E4B7
:10719C00FD800B0FBF00010EBE27EDBF10EAE4FE11
:0871AC00FF6003124900AF056A
:0171B40022B8
:0CA173009022BFE0245AFFE43409FE22D1
:1058A700EF121CA858F40058FB01590802591103BC
:1058B700591804591F05592606592D0759340859EF
:1058C700410959480A59550B595C0C59630D5970D0
:1058D7000E597C0F598310599011599612599D13DF
:1058E70059A41459AB1559B716000059C09022CFC7
:1058F700740B80059022CF7404F09022CE740FF0C1
:105907002274051275F9740BF0221275CA740AF025
:10591700221275F77409F0221275CA7407F0221261
:1059270075CA7406F0229022CF740380059022CFA7
:105937007401F09022CE7405F0221275F77404F00A
:10594700229022CF7407F09022CE7403F022902287
:10595700CF740280199022CF740C80059022CF74E7
:1059670004F09022CE7402F0229022CF7401F090BE
:1059770022CE04F0229022CF741F80059022CF748C
:105987000FF09022CE7401F0221275F714F02290D6
:1059970022CF7401801E9022CF741F800C9022CFDB
:1059A700740880059022CF7401F09022CEE4F02293
:0A59B7009022CFE4F09022CEF022FF
:10884400EFB401079022707424F022EF64026005F3
:10885400EF6403703990278074FEF090221974013C
:10886400F09022707427F0902280E030E0F990229A
:10887400807423F0A37407F0EF902270B40305749E
:1088840077F080037422F09022817460F0229027A4
:108894008074F6F0902219E4F09022807480F0A3A2
:0A88A400746CF09022707480F022D2
:109F9100EF9022926008740EF0A37402F022740113
:049FA100F0A3F02217
:08A2A900902290E054C0F02265
:1088AE00EF30E00C902720E41275DFA31275DF2263
:1088BE00EF90272030E7297404F0A374E2F0A3743C
:1088CE0004F0A374E2F0A37414F0A37410F0A3E404
:1088DE00F074FA12763CF0A374A0F0A37464F02244
:1088EE007402F0A37471F0A37402F0A37471F0A378
:1088FE00740AF0A37408F0A3E4F0A3747CF0A374DC
:09890E0028F012763C7432F022CC
:10678900902785E090228230E272E4F00000000058
:10679900000000001275A70000000000000000744E
:1067A90029F00000000000000000000000000000C7
:1067B90000000000000000000000000000000000D0
:1067C90000000000000000000000000000000000C0
:1067D90000000000000000000000000000000000B0
:1067E90000000000000000000000000000000000A0
:1067F900000000000000000000008010E4F000002C
:1068090000001275A7000000007429F000000000C4
:10681900000000000000000000000000000000006F
:10682900000000000000000000000000000000005F
:10683900000000000000000000000000000000004F
:10684900000000000000000000000000000000003F
:10685900000000000000000000000000000000002F
:0D686900000000007440F090228214F02224
:050006007E987F5022EE
:102F57002023232045413D302C20496E7465727231
:102F67007570742044697361626C65642023230063
:102F77002023232055415254303A496E74657272AA
:102F87007570742044697361626C65642023230043
:102F97002023232055415254313A496E7465727289
:102FA7007570742044697361626C65642023230023
:102FB700202323205541525430203A20496E74650E
:102FC70072727570742044697361626C6564202342
:102FD7002300202323205541525431203A20496EA3
:102FE700746572727570742044697361626C65648C
:102FF700202323000A002025303278000A205B4D69
:1030070049425D000A204368616E3D2575202825E9
:1030170075204D487A29000A2050616E49443D3099
:103027007825303478000A2053686F7274416464DD
:10303700723D30782530347800203A49454545417E
:1030470064647228307E37293D3078000A20447343
:103057007453686F7274416464723D3078253034FC
:103067007800203A447374494545454164647228A1
:10307700307E37293D3078000A20446174615261FF
:1030870074653D30782530327800203A547850778F
:10309700724C6576656C3D307825303278000A20B1
:1030A7004E6F41636B52657472793D257500203A06
:1030B7004261636B6F666652657472793D25750070
:1030C7000A205B52582D4D41432D504B545D000A49
:1030D7002044534E3D3078253032782C204F4F42D4
:1030E7003D30782530327800203A64426D3D2564C2
:1030F70000203A436F72723D2564000A20447374BE
:103107002E204D6F64653D2530327800203A50619E
:103117006E49443D30782530347800203A53686F43
:103127007274416464723D30782530347800203AF7
:103137004945454528307E37293D3078000A2053D8
:1031470072632E204D6F64653D25303278000A206A
:103157004D534455204C656E3D25303275203A203D
:1031670000203A4D534455203D000A203D3D3D2067
:1031770048494220446973706C6179203D3D3D00A8
:103187000A20494545452041444452284C53427E34
:103197004D534229203A000A2043686970496E64FA
:1031A7006578203D203078253032780020284D473B
:1031B70032343030290020284D4732343558290021
:1031C70020284D4732343730290020284D473234E4
:1031D7003630290020284D47323431302900202845
:1031E700556E636C617373696669656429000A20AB
:1031F7004368616E6E656C2020203D202575202870
:103207002575204D487A29000A20537461636B495C
:10321700442020203D20307825303278000A205481
:1032270078506F7765722020203D20307825303226
:103237007800202020204461746152617465202049
:103247003D20307825303278000A2050616E49449D
:1032570020202020203D203078253032782530323C
:10326700780020204E776B4164647220203D203027
:10327700782530327825303278000A205365634C40
:103287006576656C20203D20307825303278002027
:10329700202020507265436F6E666967203D20309D
:1032A7007825303278000A204E574B204B6579201D
:1032B700284C53427E4D534229203A000A2052653A
:1032C700736572765F30284C53427E4D53422920F6
:1032D7003A000A204550494420202020284C5342D8
:1032E7007E4D534229203A000A2052657365727653
:1032F7005F31284C53427E4D534229203A000A2021
:1033070047656E6572616C576F726430203D20307F
:10331700782530327825303278000A2047656E6587
:1033270072616C576F726431203D203078253032DE
:0633370078253032780019
:0A4AF2004209BF00004209C10000A4
:103C4700121A199006EE121BAD9006EE121BA190E8
:103C570006EBE075F064A4FFAEF0E4FCFD121A1960
:103C67009006EE121BAD9006EE121BA175F00A909E
:103C770006EAE0A4FFAEF0E4FCFD121A199006EE86
:103C8700121BAD9006EE22121BF690001912181E99
:103C9700FFE49006F9F0A3EFF07BFF2290000112FA
:103CA7001995FF9006E6121BF69006ECE0FDF582EB
:103CB700758300EF12187F9006E3121BF690000140
:103CC700121995E5F0FFED2401FDE433FC9006E6BB
:103CD700021BF68D828C83EF12187F9006E3021B7E
:103CE700F6F9E43AFAE49006EAF07D08FC22900639
:103CF700ECE0F582758300ED12187FEEFF9006EC7D
:103D0700E0F582758300229006E2121BF69000040C
:103D1700121995FF9006F9E5F0229006E3121BF6BB
:103D270012196AFFE5F0C4F854F0C868FEEFC454EE
:103D37000F48FFEE8FF01219CD9006E8E0229006AB
:103D4700EAE09006E9F09006EBE09006EAF09006CC
:103D5700ECE09006EBF09006EDE09006ECF0E4A3C3
:103D6700F09006E8E014F0229006EBE0FF7E007C7E
:103D7700037DE81218A1E4FCFD2212181EFF90062D
:103D8700F9E4F0A3EFF022121B95E47B107A27F9F0
:103D9700F8021A269006E2121BF690000802181E77
:103DA700FFFD9006F9E4F0A3EDF07E007C007D05B1
:103DB7001218A1EF242EFFEE3409A32274242FF545
:103DC70082E43407F583229006E3121BF6021805F6
:103DD700121BA19006E9E0FFE4FCFDFE22E92401A5
:103DE700F9E43AFA021805121C167BFF7A2F79FBC1
:103DF7007F01229006E2121BF690000202181E8D28
:103E0700828C83EF12187F9006EC2212181EFF9007
:103E170006FBE422E475F00102193EC4540F1218A0
:103E27006D9006E8E022EF24D09006E6F09006E8D1
:103E3700E0C3940422121BA19006E6E0FF3395E04D
:103E4700FEFDFC22900764E0FFC3944022F0E4F5F6
:103E57008390076DE024FF92AF2290000C02181E9A
:103E670090000B02181E9006E2021BF6EFF0A31259
:103E77001C16E4222402FFE433FEE92FF9EA3E226E
:103E8700121BA19006E9E075F00A229006ECE07E8D
:103E97000029F9EE3A22FF9006E9021BF690076423
:0D3EA700E004F0229006E3121BF602196AF7
:109BBA00900765EFF0902501E090076530E105E038
:109BCA00FF028EB1E0A3F07B017A0779667D01126C
:039BDA0091E122F4
:1099C6009006F2121C16902501E09006F230E0088F
:1099D600121BF61290548006121BF6129F55900623
:0999E600F5EFF09006F5E0FF2218
:109BDD00900765EFF0902511E090076530E105E005
:109BED00FF028E5AE0A3F07B017A0779667D0112A0
:039BFD00922D2284
:1099EF009006F2121C16902511E09006F230E00856
:1099FF00121BF6128F078006121BF6129F69900634
:099A0F00F5EFF09006F5E0FF22EE
:10830000900769121C16A2AFE43390076DF0C2AF5C
:10831000902500740AF0740DF0902510740AF07422
:108320000D123E54902505E030E5F9902515E0301A
:10833000E5F9E490076CF0900769121BF6129F4074
:1083400090076CE0C39FEE6480F87480985029A277
:10835000AFE433A3F0C2AF900769121BF690076C2D
:10836000123D0712181E902500F0902510123E5461
:0983700090076CE004F080BF22CC
:10846700900765EFF020AF3D7BFF7A2F7957128495
:10847700D5900765E0700B20AC087BFF7A2F7977E2
:108487008010900765E0B4010C20AE097BFF7A2FBE
:1084970079971284D5C2AF75D25575D2AA75D20A0B
:1084A70043920180FE900765E0700B20AC087BFFCC
:1084B7007A2F79B78010900765E0B4011020AE0DD0
:1084C7007BFF7A2F79D9A3121C1612830022A312DD
:0684D7001C1612830022B6
:107315009006F6121C169006F5EFF0128467E490BD
:107325000764F0123E4B500A123DC3E4F0123EA42E
:1073350080F17B017A0679F9900721121C169006D7
:10734500F6121BF6900765121C16900721121BF604
:10735500900768121C167B017A0779241292C39054
:1073650006F5E030E02BE4900764F0123E4B504CFC
:10737500123DC3E0FF6045129BDD900764E02424C5
:10738500123DC6E0B40A057F0D129BDD123EA480B6
:10739500DAE4900764F0123E4B5021123DC3E0FF42
:1073A500601A129BBA900764E02424123DC6E0B42B
:0D73B5000A057F0D129BBA123EA480DA2259
:1062DE009006E2123E739006E8F0F5F01219CD7FAB
:1062EE00107E271297EF9006E2E030E04C7B017AA9
:1062FE000679E71299EFEF60E61263C2601290061C
:10630E00E8E0640460D99006E7E0FF129BDD804A66
:10631E009006E7E064087018A3E060147F08129BF3
:10632E00DD7F20129BDD7F08129BDD123D2114F0D4
:10633E009006E7E0640D70A7227B017A0679E712DA
:10634E0099C6EF609A1263C2603E9006E8E064045C
:10635E00608D9006E7E0FF129BBA123EABC4F85474
:10636E000FC868FFE5F0C454F0488FF01219CD1233
:10637E003EABFF9006E6E0FD3395E045F0FEEF4DB7
:10638E00123D3904F00262ED9006E7E064087018E1
:10639E00A3E060147F08129BBA7F20129BBA7F087D
:1063AE00129BBA123D2114F09006E7E0640D6003D3
:1063BE000262ED229006E7E0FF129DA09006E6EF46
:0363CE00F0F422C6
:106B2D009006E2123E739006E8F012186D7F107E0B
:106B3D00271297EF9006E2E030E04F7B017A06795D
:106B4D00E71299EFEF60E6126C0160129006E8E033
:106B5D00640260D99006E7E0FF129BDD804D900640
