:10840000C00F7484C0E0C082C083750F0A75A100DC
:108410000000000022C00F7484C0E0C082C08375D9
:108420000F1F75A1010000000022C00F7484C0E07E
:10843000C082C083750F3475A1020000000022C005
:108440000F7484C0E0C082C083750F4975A103001A
:048450000000002206
:0D954600EF90954F93908400730A1F3449F5
:10798300EB60010A4A601D8C838D8263A2018E83A2
:107993008F8263A20100E0A363A201F0A363A201AB
:1079A300DBF4DAF222C0A275A2010000C082C08318
:1079B30063A2010000C082C083EB60010A4A601D1C
:1079C3008C838D8263A2018E838F8263A20100E088
:1079D300A363A201F0A363A201DBF4DAF2D083D0A4
:0D79E3008263A2010000D083D082D0A222D6
:03000000023D8E30
:103D8E007598007599209022E074D9F090270E74E2
:103D9E0000F09027027470F09027037400F0E49006
:103DAE000000F0900000E004F0E0B4C8F6902700A8
:103DBE007480F09027087400F0902709F090272067
:103DCE00F0902721F0902722F0902723F0902724BF
:103DDE00F0902725F0902726F0902727F09027289F
:103DEE00F0902729F090272AF090272BF075990054
:103DFE009022E17400F09022E27490F09022E77429
:103E0E00FFF09022E8F09022E9F09022EAF0902262
:103E1E00EBF09022ECF09022ED7400F09022EEF098
:103E2E009022EFF09022F0F09022F1F09022F2F03A
:103E3E00750D18750E00758121C2C112840A023EDD
:013E4E008AE9
:0C958500016800AA005A002D0015000B20
:0A622E00420570000042056E0000FA
:108E8600E0FEA3E0FFC3229002821209FC90028258
:108E96000209C4EFF0A3EDF0A3EBF0D3940822127D
:088EA6000A6990027B020A89AF
:0E950E00902784E054BFF00000E04440F022BB
:1075CA0090027C128E99400A7F127E011293637F89
:1075DA00122290027DE0FFD394035004EFB4010A13
:1075EA007F117E011293637F112290027CE0902228
:1075FA00E66032E04404F0902781E0440CF09022E7
:10760A00D4E04480F0E054F0FF90027EE04F9022F4
:10761A00D4F090027DE0C43354E0FF9022D4E054C9
:10762A009F4FF08012E054FBF09022D4E0547FF098
:0A763A00902781E054F3F07F002256
:1088FE009006ADEDF09006ACEFF0D394035006A3C6
:10890E00E09403400A7F117E011293637F1122903F
:10891E002786E054FCFF9006ACE04F902786F0903F
:10892E0006ADE025E025E0FF9022D5E054F34FF0B0
:03893E007F002295
:1089830090027CEFF0A3EDF06006E0D3940E400A72
:108993007F117E011293637F112290027DE004C454
:1089A30054F0FF9022D5E0540F4FF090027CE090FA
:1089B30022D56006E04402F08004E054FDF07F001D
:0189C3002291
:1090B300A2AFE433FFC2AF9022D7E0FDE0FEEF247E
:1090C300FF92AFAF06EFFEEDFF7C007D101206A00E
:0190D300227A
:109450009022D6E05478131313541FFF60011F228B
:1080AF0074FFF5F01207B29002787413F0E49005A4
:1080BF0068F0A3F09022D6E0547060101290B3EEE7
:1080CF008FF01207B2E4900278F08019900568E4FF
:1080DF0075F0011206D6C3900569E094D09005683B
:1080EF00E0940740CF900278E0FF600D7401FEEF3F
:0F80FF004E6005129363800100900278E0FF222B
:10686B00900278128E99400A7F127E011293637FF9
:10687B001222900279E0D39403400A7F117E011219
:10688B0093637F1122900278E0605B7D02E4FF123C
:10689B008983900279E0FDA3E0FB7F011275CA901A
:1068AB00027BEFF0704C12950E9006B8E025E024B9
:1068BB0085F582E43495F583E493FF740193900599
:1068CB006ACFF0A3EFF0E4A3F0A3F090056A128E69
:1068DB008690056DE09F90056CE09E5015E475F079
:1068EB00011206D680E5E4FBFDFF1275CA90027B10
:0868FB00EFF090027BE0FF22A8
:1089C400900275120A89900274EFF0D39408400A59
:1089D4007F127E011293637F1222900274E0FBE403
:1089E400FD7F0112686BEF600122900275120A6923
:1089F4001280AFEF600122E4FBFDFF12686B7F0081
:018A0400224F
:10470200900274EEF0A3EFF0A3ECF0A3EDF0A3EAB5
:10471200F0A3EBF0A3E0FFC3940A4006EFD3940F9B
:10472200400A7F117E011293637F1122900274125C
:104732008E86900277E09FEE6480F8900276E064C5
:104742008098400A7F147E011293637F14229002A4
:1047520076E0FAA3E0FBC3900275E09BFE90027440
:10476200E09A90027EF0A3CEF0900278128E869BA1
:10477200EA6480F8EE6480985009E4900280F0A325
:10478200F08038900274E0FCA3E0FDD3EF9DEC646E
:1047920080F8EE648098400B90027EE0FFA3E0A3D5
:1047A200CF8014900276128E86900279E09FFF905D
:1047B2000278E09E900280F0A3EFF090027AE0FF90
:1047C20074017E00A807088005C333CE33CED8F922
:1047D20024FFFFEE34FFFEE4FCFD9002821209FC8E
:1047E200900280E0FEA3E0FFE4FCFDA31209D012D8
:1047F200080B128E8DC006C00790027EE0FEA3E079
:10480200FBAA06E4F9F8D007D006120896128E8D9C
:10481200EE547FFE90027B120A69EE8FF01207B20D
:034822007F0022F2
:0C956D007B017A0579707F071289C42207
:0C9579007B017A05796E7F081289C422FC
:10810E0090026A120A89900269EFF0C3940A40063F
:10811E00E0D3940F400A7F117E011293637F1122E8
:10812E007B017A02796D1280AFEF600122900570AB
:10813E00E0FEA3E0FF90056EE0FCA3E0FD90026977
:10814E00E090027AF090026A128EA590026DE0FA2B
:0D815E00A3E0FB124702EF6001227F002228
:106A330090026AEDF0A3120A89900269EFF0D394F1
:106A430008400A7F127E011293637F122290026A2A
:106A5300E0FFC3940A4006EFD3940F400A7F117EF0
:106A6300011293637F11227B017A0279707F0712EF
:106A730089C4EF6001227B017A02796E7F08128953
:106A8300C4EF600122900269E0FF7B017A02797210
:106A93001289C4EF600122900270E0FEA3E0FF9030
:106AA300026EE0FCA3E0FD90026AE090027AF090AF
:106AB300026B128EA5900272E0FAA3E0FB1247026A
:076AC300EF6001227F0022B9
:046238004106B80162
:106D1B0090068BEFF0E4A3F0EF14601814601C14D2
:106D2B00602114602614602B2405702F90068D743F
:106D3B0008F0802DE490068DF0802690068D74204F
:106D4B00F0801E90068D7440F0801690068D746056
:106D5B00F0800E90068D740CF0800690068C7412E9
:106D6B00F090068CE0FF60137402FEEF4E6005128C
:106D7B00936380010090068CE0FF2290068BE090DD
:106D8B0006B8F0538E1090068DE0428EE58E90275C
:106D9B008530E306E04404F08004E054FBF07F0010
:016DAB0022C5
:030026008F98228E
:03002E008F992285
:030036008F9A227C
:08623C004106AE004106AF006F
:0B95B500EFF0A3EDF0A3EBF0E5B42213
:107ECF0090068E1295B520E20A7F107E03129363FF
:107EDF007F1022A2AFE433FFC2AF900690E0FE9076
:107EEF0022EF30E106E04404F08004E054FBF0EEB2
:107EFF0030E003D38001C3928890068FE024FF9275
:107F0F00B890068EE024FF92A89022F2E030A805E8
:107F1F004404F0800354FBF0EF24FF92AF7F002264
:107F2F009006911295B520E30A7F117E0312936399
:107F3F007F1122A2AFE433FFC2AF900693E0FE9011
:107F4F0022EF30E106E04408F08004E054F7F0EE51
:107F5F0030E003D38001C3928A900692E024FF920F
:107F6F00BA900691E024FF92AA9022F2E030AA057F
:107F7F004408F0800354F7F0EF24FF92AF7F002204
:046244004106B980D6
:10816B00FDF08DF09004F3E40206D69004FAE0FEE5
:10817B00A3E0FFA3E0FCA3E0FDC39FEC9E229004D1
:10818B00FCE475F0010206D69004E7E0FEA3E0FFE5
:10819B00F5828E8322902703F0EE902702F0222D9A
:1081AB00F582EE3CF583E49322E49004FFF0900417
:0D81BB00F5E0229005001209FC900500225D
:0696F500E49006B9F0222A
:0796E7009006B97480F02227
:100FC80090270EE4F090270DE020E0F900000000E3
:100FD800EF1281A0902708E4F0A304F09006B9E08E
:100FE8004402902700F00000000090270DE020E068
:080FF800F99027007480F0223B
:1036DA009004E3120A899004E1EEF0A3EFF0EE54AD
:1036EA00014F600A7F147E041293637F14229004B0
:1036FA00E1E0FEA3E07802CEC313CE13D8F9FF901F
:10370A0004EDEEF0A3EFF043992090270EE4F09039
:10371A0006B8E070047F808002E4FF127C6C900699
:10372A00B9E0701D902700E064807015902708E0CA
:10373A00700FA3E0700B902702E0B47004A3E0605E
:10374A00099004EF7413F0023895128EFE9004ED7E
:10375A00E0FEA3E0FF120FC89004E6E030E00302A7
:10376A003879E49004F0F090270DE020E0F99027F2
:10377A00097401F0902708E4F09004E7F0A3F090B0
:10378A0004EDE0FFA3E09004EBCFF0A3EFF0900488
:10379A00E9E4F0A37480F0E49004F3F0A3F0128E4D
:1037AA00FE9004EBE0FEA3E01281A09004E3120A6B
:1037BA00691281931205B690270712816B8F828E48
:1037CA0083A31205B6FF902706F08FF012816F12BD
:1037DA008193A3A31205B690270512816B8F828E5F
:1037EA0083A3A3A31205B6FF902704F09004F3E481
:1037FA008FF01206D69006B9E04401902700F00037
:10380A000000009004E7E475F0041206D69004EB79
:10381A0012818C9004E974FFF5F01206D69004E93F
:10382A00E07002A3E060030237A890270DE020E0D1
:10383A00F99004E1E0FEA3E0FFE49004F1F0A3F0C4
:10384A00FDFCEF1281AAFB9004F1E48BF01206D67C
:10385A000DBD00010CE4B505E9ECB402E59004F1F4
:10386A00E0FEA3E0FFA3E0B5060CA3E0B50707E47A
:10387A009004EFF080159004EF7415F09004F0E0D6
:10388A0004F0E0C3946450030237719027007480F7
:10389A00F09027027470F0A3E4F0902708F0A3F0E8
:1038AA007F01127C6C5399DF9004EFE0FF600D7486
:1038BA0004FEEF4E60051293638001009004EFE06E
:0238CA00FF22DB
:105FBA009004F5EEF0A3EFF0A3120A891281B4FE61
:105FCA00A3E0FFE4FCFD1281BE1209D09004FBE0BD
:105FDA0024FFFF9004FAE034FFFEE4FCFD1207FE02
:105FEA001281BE1209C4ED4C600A7F127E0412931C
:105FFA00637F12221281B4FFA3E0900504CFF0A3BD
:10600A00EFF0E49004FEF0E49004FCF0A3F01281B7
:10601A00765023900504E0FEA3E01281AAFF9004C3
:10602A00F7120A699004FCA3E0F5828C83EF12064A
:10603A001712818980D8E49004FCF0A3F0128176CB
:10604A00502E9004F7120A698D828C831205B6FFCE
:10605A00900504E0FAA3E02DF582EA3CF583E49387
:10606A006F60089004FF7416F0800512818980CD54
:10607A009004FFE0600B9004FEE004F0E0646470BA
:07608A00869004FFE0FF22F5
:1081C800EFF0A3EDF0A3EBF0E59822E0FF7405FED5
:1081D800EF4E227401F0A374FEF0227402F0A3742F
:1081E800FDF0227404F0A374FBF0227408F0A37469
:1081F800F7F0227410F0A374EFF0227420F0A37447
:10820800DFF0227440F0A374BFF0227480F0A3144E
:09821800F02274FFF0E4A3F0224F
:0B95C000EF6004439810225398EF2244
:088D7C00E0FFA3E0FDA3E0FB12
:108D8400EFD394074008EF640A60037F1222ED607A
:108D940009EBD39401400C7F1122EBD394024003DE
:068DA4007F11227F002276
:104393009002691281C820E40A7F107E051293639C
:1043A3007F1022900269128D7C90026EEFF06011F3
:1043B3001281D3600512936380010090026EE0FFC7
:1043C30022900269E0120B1B43EA0043F20143FA15
:1043D30002440203440A04441205441A0644220711
:1043E300442A0A0000443090026C1281DB803E9024
:1043F300026C1281E3803690026C1281EB802E9066
:10440300026C1281F3802690026C1281FB801E9055
:10441300026C128203801690026C12820B800E9043
:10442300026C128213800690026C12821A90026A46
:10443300E0602190026DE0FF52B19022EAE05FF06C
:1044430090026BE06006A3E042C1806690026DE0DB
:1044530052C1805E90026BE0FF701D9022EAC08320
:10446300C082E0FE90026CE0FDEE4DD082D083F07E
:104473009022E7E04DF08030EF9022EAB40117C0BC
:1044830083C082E0FF90026CE0FEEF4ED082D083C7
:10449300F09022E78000C083C082E0FF90026DE0CD
:1044A300FEEF5ED082D083F090026CE0FF42B1EF6A
:0544B30042B97F002268
:1044B8009006061281C820E40A7F107E05129363D5
:1044C8007F1022900606128D7C90060BEFF060118B
:1044D8001281D3600512936380010090060BE0FF00
:1044E80022900606E0120B1B450F00451701451FD9
:1044F80002452703452F04453705453F064547072D
:10450800454F0A000045559006091281DB803E9010
:1045180006091281E380369006091281EB802E90FD
:1045280006091281F380269006091281FB801E90ED
:104538000609128203801690060912820B800E90DB
:104548000609128213800690060912821A9006073D
:10455800E0602190060AE0FF52B29022EBE05FF0A3
:10456800900608E06006A3E042C2806690060AE072
:1045780052C2805E900608E0FF701D9022EBC08357
:10458800C082E0FE900609E0FDEE4DD082D083F0B7
:104598009022E8E04DF08030EF9022EBB40117C094
:1045A80083C082E0FF900609E0FEEF4ED082D08300
:1045B800F09022E88000C083C082E0FF90060AE005
:1045C800FEEF5ED082D083F0900609E0FF42B2EFA2
:0545D80042BA7F002241
:1045DD009002691281C820E40A7F107E0512936350
:1045ED007F1022900269128D7C90026EEFF06011A7
:1045FD001281D3600512936380010090026EE0FF7B
:10460D0022900269E0120B1B463400463C014644E1
:10461D0002464C03465404465C05466406466C0748
:10462D0046740A0000467A90026C1281DB803E903F
:10463D00026C1281E3803690026C1281EB802E9019
:10464D00026C1281F3802690026C1281FB801E9009
:10465D00026C128203801690026C12820B800E90F7
:10466D00026C128213800690026C12821A90026AFA
:10467D00E0602190026DE0FF52B49022ECE05FF01B
:10468D0090026BE06006A3E042C4806690026DE08C
:10469D0052C4805E90026BE0FF701D9022ECC083CF
:1046AD00C082E0FE90026CE0FDEE4DD082D083F032
:1046BD009022E9E04DF08030EF9022ECB40117C06C
:1046CD0083C082E0FF90026CE0FEEF4ED082D0837B
:1046DD00F09022E98000C083C082E0FF90026DE07F
:1046ED00FEEF5ED082D083F090026CE0FF42B4EF1B
:0546FD0042BC7F002219
:0C624800410694004106950041069600B6
:108A0500EFF0A3EDF0A3EBF0E592227401F0A3746F
:108A1500FEF0227402F0A374FDF0227410F0A3742A
:108A2500EFF0227420F0A374DFF0227440F0A374F9
:108A3500BFF0227480F0A314F02274FFF0E4A3F0D9
:018A4500220E
:04927D00E0FD7F0190
:10928100ED600543F904800353F9FBEF600443E902
:06929100042253E9FB2258
:0B95CB00EF6004439202225392FD2245
:104EAA009005DC128A0520E10A7F107E0F129363B7
:104EBA007F10229005DFE0D39403400A7F207E0F03
:104ECA001293637F2022E49005E2F09005DCE01261
:104EDA000B1B4EFB004F03014F0B024F17034F23CF
:104EEA00044F2B054F33064F3B074F430A00004F31
:104EFA004B9005E0128A10804E9005E0128A1880C5
:104F0A00469005E07404F0A374FBF0803A9005E043
:104F1A007408F0A374F7F0802E9005E0128A2080BE
:104F2A00269005E0128A28801E9005E0128A3080B9
:104F3A00169005E0128A38800E9005E0128A3F80AA
:104F4A00069005E27430F09005E2E0FF6013740FFA
:104F5A00FEEF4E60051293638001009005E2E0FFC8
:104F6A00229005DDE060349005DFE0FF30E106A322
:104F7A00E042EA80069005E1E052EAEF30E008906C
:104F8A0005E0E042EB80069005E1E052EB9005E097
:104F9A00E042EC9005DE12927D80069005E1E05237
:044FAA00EC7F002276
:0B95D600EF6004439204225392FB223A
:104FAE009005E3128A0520E20A7F117E0F129363A9
:104FBE007F11229005E6E0D39403400A7F217E0FF5
:104FCE001293637F2122E49005E9F09005E3E0124D
:104FDE000B1B4FFF00500701500F02501B035027B1
:104FEE0004502F05503706503F0750470A00005017
:104FFE004F9005E7128A10804E9005E7128A1880AE
:10500E00469005E77404F0A374FBF0803A9005E730
:10501E007408F0A374F7F0802E9005E7128A2080B2
:10502E00269005E7128A28801E9005E7128A3080A6
:10503E00169005E7128A38800E9005E7128A3F8097
:10504E00069005E97431F09005E9E0FF6013740FE6
:10505E00FEEF4E60051293638001009005E9E0FFBC
:10506E00229005E4E060349005E6E0FF30E106A30F
:10507E00E042F280069005E8E052F2EF30E0089050
:10508E0005E7E042F380069005E8E052F39005E76D
:10509E00E042F49005E512927D80069005E8E0521C
:0450AE00F47F002269
:0B95E100EF6004439208225392F7222F
:105C2C009005EA128A0520E30A7F137E0F12936314
:105C3C007F13229005EDE0D39403400A7F237E0F5F
:105C4C001293637F2322E49005F0F09005EAE012B2
:105C5C000B1B5C77005C7F015C87045C8F055C9799
:105C6C00065C9F075CA70A00005CAF9005EE128AE9
:105C7C001080369005EE128A18802E9005EE128A4E
:105C8C002080269005EE128A28801E9005EE128A3E
:105C9C003080169005EE128A38800E9005EE128A2E
:105CAC003F80069005F07433F09005F0E0FF601330
:105CBC00740FFEEF4E60051293638001009005F0A7
:105CCC00E0FF229005EBE060349005EDE0FF30E161
:105CDC0006A3E042FA80069005EFE052FAEF30E0BE
:105CEC00089005EEE042FB80069005EFE052FB9039
:105CFC0005EEE042FC9005EC12927D80069005EFDB
:065D0C00E052FC7F0022C2
:0D955300F0A3F0EF24FF92AF902190E022F2
:0696FB00902191EFF02226
:10946000EF9021916005E04402F022E054FDF022EB
:10947000EF9021916005E04404F022E054FBF022DB
:10948000EF9021916005E04408F022E054F7F022CB
:10949000EF9021916005E04410F022E054EFF022BB
:09969C00902158EFF0EEA3F0223A
:0996A50090215AEFF0EEA3F0222F
:0F94F000AC02AD017B087A007F507E21027983A8
:10929700A2AFE433FFC2AF902004E4F090200112A4
:0A92A70095534440F0E054BFF0225C
:1092B100A2AFE433FFC2AF902084E4F0902081128A
:0A92C10095534420F0E054DFF02242
:0B95EC007F161296FB1292970292B1BC
:10875A0015660AB30AB2055906B4035A035C01AE98
:10876A0001C200E10104008201D200E9011200897C
:10877A0000B20059008A0045008A0045008A004577
:10878A00023001180118008C0096004B00460023A5
:08879A00003C001E003C001E23
:1062540041051400410513034105120041051100D5
:0462640041051000E0
:1085490075F002120A5DE493FF740193900508CF58
:10855900F0A3EFF0E4A3F0A3F0229022007438F026
:10856900900513E025E025E022900508E0FEA3E050
:10857900FFC390050BE09F90050AE09E2290050A33
:0E858900E475F0010206D69022007434F02250
:0E951C00EF30E0047F018002E4FF125D1222B6
:0796EE00902200741CF02221
:1062F100900269EEF0A3EFF0A3EDF0600B9027831D
:10630100E4F09022D07488F0A2AFE43390026CF0F4
:10631100C2AF90228DE090026DF07F111296B7907E
:106321002200742CF090026E7413F0E4900506F0D4
:10633100A3F0900269E0FEA3E0FFC3900507E09F90
:10634100900506E09E502890228DE020E619A3E0FA
:106351005407FF700690026EF08014EFB4040890A9
:10636100026E7412F0800890050612858980C39030
:10637100228F74FFF090026DE090228DF090026CFC
:10638100E024FF92AF90026BE0600C90026EE0702F
:10639100069022D07484F090026EE0FF600D7407C5
:1063A100FEEF4E600512936380010090026EE0FFE4
:0163B10022C9
:10943F007F0A1296B7E4FD7F011283D07F01029459
:01944F00A07C
:1071E700900269EFF0BF04028009900269E0D3942E
:1071F70005400A7F187E071293637F182212859035
:10720700E4FF128712900269E0FF1270E0900269B2
:10721700E014601614601B14602024FE602424050B
:1072270070269022117409F0801E9022117405F0C7
:1072370080169022117403F0800E9022117402F0D0
:1072470080069022117410F0902200743CF07F01A8
:0E725700128712900269E0900513F07F00226A
:1085E4009006BAEFF01270E09006BAE0FF1460163D
:1085F40014601B14602024FE60242405702690223D
:10860400117409F0801E9022117405F080169022D6
:10861400117403F0800E9022117402F080069022EF
:0C862400117410F0900513EFF07F00229D
:108B3F009006BBEFF07F031271E79006BBE0902227
:108B4F00246013E04440F0902785E04408F0902221
:108B5F0037E04480F022E0543FF0902785E054F74F
:098B6F00F0902237E0547FF0225F
:105ED800900269EFF0C3940B4006E0D3941A400A8D
:105EE8007F177E071293637F1722128590E4FF12B3
:105EF8008712900269E0120B1B5F350B5F390C5F4C
:105F08003D0D5F410E5F450F5F49105F4D115F51B9
:105F1800125F55135F59145F5D155F61165F651752
:105F28005F69185F6D195F711A00005F7D7F65807A
:105F38003A7F6A80367F6F80327F74802E7F7980C7
:105F48002A7F7E80267F8380227F88801E7F8D80A7
:105F58001A7F9280167F9780127F9C800E7FA18087
:105F68000A7FA680067FAB80027FB07E0912646D2F
:105F780090026AEFF090026AE0FF60117407FEEF8A
:105F88004E6006129363025EFA00025EFA902200E7
:105F9800743CF07F0112871290026AE0FF600D7472
:105FA80007FEEF4E600512936380010090026AE0DD
:025FB800FF22C6
:0F94FF00E4FE902284E0FF70050EEEB4FAF42232
:0896B700EF541F90228DF022F8
:10931900A2AFE433FEC2AFED24FF92F8EF24FF922F
:09932900E8AF06EF24FF92AF2229
:10871200EF603D90228EE054F7F0E04408F075914E
:1087220010A2AFE433FFC2AF902084E4F090208126
:10873200F0A3F0EF24FF92AFE4900512F0902190A5
:10874200E04420F0E054DFF0902201E054FEF022F9
:08875200902201E04401F02235
:06970100EF24FF92AF22ED
:03003E0002596EF6
:10609100902002E4F0902303E0902192F09022807E
:1060A100E05470FF6007641060037F1522900511B2
:1060B1007401F0900514E0547DF09006BC74E1F099
:1060C10012003E128563245AF582E43487F583C0B9
:1060D10083C0829006B8E0D082D0831285491285B0
:1060E100725013900514E030E107E49006BCF08093
:1060F1000512858680E89006BCE0B4E10F12859018
:10610100902002E4F0900511F07FE122E490051166
:10611100F09006BCF0902301E030E5399006BC74A4
:10612100E9F01285692472F582E43487F583C0832E
:10613100C0829006B8E0D082D08312854912857260
:106141005013900514E030E707E49006BCF0800599
:1061510012858680E8902002E4F09006BCE0FF22E0
:10690300900511E0600302699A9023807405F0A357
:106913007402F0EF6004E04410F0902382E4F0A3EB
:10692300EDF090222CE0900342F090222CE04420E2
:10693300F09020027480F0902280E0547060046430
:10694300107047128563248AF582E43487F583C087
:1069530083C0829006B8E0D082D08375F002120A19
:106963005DE493FF74019390050C12855890050C18
:10697300E0FEA3E0FFC390050FE09F90050EE09EAD
:10698300500512858980E6128590902002E4F090EC
:086993000342E090222CF022E7
:1083D000900269EFF0A3EDF0D39402400A7F117E82
:1083E000071293637F1122900269E0600AA3E044C0
:1083F0001090222CF0800690222C7430F07F002206
:0697070090222DEFF0227C
:1094A000EF90227E6005E04408F022E054F7F022BD
:106BF5009006B0EFF0D39403400A7F117E071293FD
:106C0500637F11229006B0E07010900510E0700AC5
:106C15007F167E071293637F1622E49006B1F090EB
:106C250006B0E0B4010D1296EE7F01126C8174017D
:106C3500F080439006B0E0B4020D1296EE7F02128A
:106C45006C817402F0802F9006B0E0B403101296A8
:106C5500EE7F03127C029005107403F08018E4FFA8
:106C6500127C02E4FD7F107E271262F19006B1EFDF
:106C7500F0E4900510F09006B1E0FF22127C02903E
:036C8500051022D5
:10915600900269EFF0D39416400A7F117E071293AE
:0F916600637F1122900269E0FF124A607F0022AE
:1094B000EF6009AF051293DF439EC022539E3F2207
:0E952A00EF60071296DF439CC022539C3F2245
:108B7800902281E0541FD39402402C9022BDE02023
:108B8800E0257F019022B0E04401F0E4FDFC902252
:108B9800BDE030E004E4FF800B0DBD00010CBC0318
:088BA800EDBDE8EAEF70DD22EB
:086268004106B3004106B2003B
:1053BC009022EDE06580FF9022F0E05FFF9022EEFE
:1053CC00E06590FE9022F1E05EFE9022EFE065B089
:1053DC00FC9022F2E05CFC9022F0E022E5E8F0ADDB
:1053EC009AA9E9759A07E4F5E8F5E99022E1746E5B
:1053FC00F09022E6E054FBF0E054E7F022E090223B
:10540C00E5F09022E27490F0D2D875E88075A8800F
:10541C0022E0FEEFF4FDEE5DF022EEF0A3EFF0A340
:10542C00EDF0A3EBF09022F0E055B9FFE06F22E530
:10543C00A8F0E4F5A89022EBE0229022F1E055BA16
:10544C00FFE06F229022F2E055BCFFE06F22EF44A8
:10545C0004FF9022EBE054E7F022E0FAA3E0FBEA31
:10546C009022E3F0A3EBF022AF058F9AD2D8538FA2
:10547C00BF22E0FEEFF4FFEE5FF022FFE0540333B7
:10548C00333354F8FEEF4E22EF9022E0F0E4F59A1D
:10549C0022E0F5E8AF018FE922E0FF7401A80708CC
:0B54AC002254012FFFE0FDA80608229B
:107CD500900632EAF0A3EBF0ED24FF92FCEF604C46
:107CE500900632E07002A3E07010900634E0700A4E
:107CF5007F117E081293637F11229022E1746EF04A
:107D0500900632E0FCA3E0FDEC9022E3F0A3EDF059
:107D1500900634E09022E5F0A3E054E7F0E04480DB
:107D2500F0D2EC9022E0E04420F08009C2EC9022F1
:087D3500E0E054DFF07F0022C2
:108DAA009006BDEFF020E0069022E07498F090273C
:108DBA0083E4F01296EE902780E4F0A3F09006BDCB
:0E8DCA00E030E007902203E0547FF07F0022AB
:108F26009022E074D8F090278074F6F0A37423F0B2
:108F3600128F40EF6003128F40221296EEE4FD7FFF
:078F4600107E271262F122E8
:1072E200900697EFF0A3EDF0A3EBF0E4FFFE90061B
:1072F20097E0FDA806088002C313D8FC90069812F6
:1073020054AD8002C313D8FC9006991254AD80028A
:10731200C313D8FC54012FFF0EEEB407D1EFC39470
:1073220002400A7F177E081293637F1122E4FFFE58
:10733200128CBDAFA8AEE8ADE9900697E0547FF598
:10734200A8A3E0F5E8A3E0F5E943A880758701006A
:0C73520000E4F5A88DE98EE88FA8FF226A
:10400C0090052F1254266002800C125446600280D8
:10401C0005125450600A7F157E081293637F152297
:10402C00900532E0D39403400A7F117E081293630B
:10403C007F11221296EEE4900539F0FFFE128CBD32
:10404C0090053412543B90053AF09022E1E0900533
:10405C0038F09022E0E0900537F09022E6E09005F1
:10406C0036F09005351253E8900533E0FC9022E6CB
:10407C0030E706E0547FF08004E04480F09022E6C4
:10408C00C083C082E0900532125487D082D083F076
:10409C0090052F1254669005311254097FB9EC30FB
:1040AC00E004EF54DFFF900533E030E10312545A83
:1040BC00125494E5D220E5FB1253BC6F701DAF0671
:1040CC00A3E06F7016AF04A3E0B5040F7587020070
:1040DC0000000000000000000080069005397412FA
:1040EC00F012547490053512549D900537E09022CF
:1040FC00E0F0900536E09022E6F0900538E0902252
:10410C00E1F090053AE09022EBF0900534E0F5A850
:10411C00900539E0FF600D7408FEEF4E60051293B8
:10412C0063800100E4FD7F107E271262F190053957
:03413C00E0FF227F
:10426A0090053B1254266002800C1254466002806C
:10427A0005125450600A7F157E081293637F152237
:10428A0090053EE0D39403400A7F117E081293639F
:10429A007F1122E4900545F07F107E27128CBD9095
:1042AA00054012543B900546F09022E1E090054407
:1042BA00F09022E0E0900543F09022E6E09005427B
:1042CA00F09005411253E890053FE0FC9022E63059
:1042DA00E706E0547FF08004E04480F09022E6C0D4
:1042EA0083C082E090053E125487D082D083F0903A
:1042FA00053B12546690053D1254097FBAEC30E032
:10430A0004EF54DFFF90053FE030E10312545A12E4
:10431A005494E5D220E5FB1253BC6F701DAF06A37F
:10432A00E06F7016AF04A3E0B5040F7587020000B2
:10433A00000000000000000080069005457412F09D
:10434A0012547490054112549D900543E09022E066
:10435A00F0900542E09022E6F0900544E09022E1D8
:10436A00F0900546E09022EBF0900540E0F5A89029
:10437A000545E0FF600D7408FEEF4E600512936379
:09438A00800100900545E0FF22CE
:1052BA009005BCEF1254306002800C125446600212
:1052CA008005125450600A7F157E081293637F1579
:1052DA0022E49005C2F07F107E27128CBD9005BD96
:1052EA0012543B9005C3F09022E1E09005C1F09082
:1052FA0022E0E09005C0F09022E6E09005BFF09031
:10530A0005BEE5E8F0AF9A1253ED12540E7E9B905B
:10531A0005BCE030E107EE4404FE12545EEE12547E
:10532A0095E5D220E5FB9022EDE06580FE9022F023
:10533A00E05EFE9022EEE06590FD9022F1E05DFDD8
:10534A001253D66E701DAE05A3E06E7016AE04A39E
:10535A00E0B5040F7587020000000000000000009D
:10536A000080069005C27412F01254769005BE129F
:10537A00549D9005C0E09022E0F09005BFE0902295
:10538A00E6F09005C1E09022E1F09005C3E090229A
:10539A00EBF09005BDE0F5A89005C2E0FF600D7442
:1053AA0008FEEF4E60051293638001009005C2E08B
:0253BA00FF22D0
:107F8F0090069BEDF0A3EBF090069AEFF0D39407D9
:107F9F00400A7F167E081293637F162290069A126C
:107FAF0054A58002C333D8FCFF9022EAE04FF09033
:107FBF00069CE09022ED600BE04FF09022E7125408
:107FCF001D800912541D9022E7E04FF090069BE0B0
:107FDF009022F06005E04FF0800312547E7F002264
:107FEF0090069EEDF0A3EBF090069DEFF0D3940773
:107FFF00400A7F167E081293637F162290069D1209
:10800F0054A58002C333D8FCFF9022EBE04FF090D1
:10801F00069FE09022EE600BE04FF09022E81254A2
:10802F001D800912541D9022E8E04FF090069EE04B
:10803F009022F16005E04FF0800312547E7F002202
:10804F009006A1EDF0A3EBF09006A0EFF0D394070C
:10805F00400A7F167E081293637F16229006A012A5
:10806F0054A58002C333D8FCFF9022ECE04FF09070
:10807F0006A2E09022EF600BE04FF09022E912543D
:10808F001D800912541D9022E9E04FF09006A1E0E7
:10809F009022F26005E04FF0800312547E7F0022A1
:106F4F00EFF0A3ECF0A3EDF0A3EAF0A3EBF0E59ADA
:106F5F0022EFF07F807E387D017C00A31209D0D311
:106F6F00020943E0FCE4120336E4FBFA79C87842E5
:106F7F0002028F1209D07F007E127D7A7C000208F8
:106F8F0096E47F7BFEFDFC1209D0C3020943120178
:106F9F008612036AAB07AA06EB4A22E0FCA3E0FDC8
:106FAF00E4020331E0FEA3E0FFD322A3E0FEA3E05F
:106FBF00FD22FFE0FCA3E0FD22E47F7BFEFDFC222F
:076FCF00FFE0FCA3E0FD223E
:0492CB00E0FD7F0142
:1092CF00ED600543F908800353F9F7EF600443E9B4
:0692DF00082253E9F7220A
:0B95F700EF6004439A0822539AF72209
:10735E0090060C126F4F20E30A7F127E0912936380
:10736E007F122290060D126FB3900610E09F9006CA
:10737E000FE09E400A7F117E091293637F112290C7
:10738E0025867420F090060CE0603A126FBA9025B4
:10739E0083F0EEFC902582F090060FA3E0FB902583
:1073AE0085F090060FE0FF902584F09025867409F5
:1073BE00F0902583EBF0902582EFF0902585EDF08F
:0C73CE00902584ECF0E4900611F0FF2202
:1079F000900635EF126F5320E30A7F127E0912932F
:107A0000637F1222C3900638E09420900637E094FA
:107A100003500A7F117E091293637F1122902586FD
:107A20007420F0900635E0602A900637E0FEA3E06F
:107A3000902583F0EE902582F0A3E0902585F090CC
:107A40002582E0902584F09025867481F09006369A
:0A7A50001292CBE4900639F0FF22F9
:10789B00900586126F60501A900587126F905002F8
:1078AB00801090058BE0FFD394635006EFC39401D7
:1078BB00500A7F117E091293637F11229005871264
:1078CB006F8290058DEEF0A3EFF090058B126F7227
:1078DB00C004C005C006C00790058D126FAAD00367
:1078EB00D002D001D000126F9D7003FA7B0190057E
:1078FB0086E090058D126FC190058CE0900611F01B
:04790B0012735E2273
:0B960200EF6004439A1022539AEF22FD
:1073DA00900612126F4F20E40A7F137E09129363FC
:1073EA007F1322900613126FB3900616E09F900641
:1073FA0015E09E400A7F117E091293637F11229045
:10740A00258E7420F0900612E0603A126FBA902529
:10741A008BF0EEFC90258AF0900615A3E0FB9025F0
:10742A008DF0900615E0FF90258CF090258E74095A
:10743A00F090258BEBF090258AEFF090258DEDF0FA
:0C744A0090258CECF0E4900617F0FF2277
:107A5A0090063AEF126F5320E40A7F137E091293BD
:107A6A00637F1322C390063DE0942090063CE09485
:107A7A0003500A7F117E091293637F112290258E8B
:107A8A007420F090063AE0602A90063CE0FEA3E0FB
:107A9A0090258BF0EE90258AF0A3E090258DF0904A
:107AAA00258AE090258CF090258E7481F090063B13
:0A7ABA001292CBE490063EF0FF228A
:10790F0090058F126F60501A900590126F90500271
:10791F008010900594E0FFD394635006EFC3940159
:10792F00500A7F117E091293637F112290059012E6
:10793F006F82900596EEF0A3EFF0900594126F72A0
:10794F00C004C005C006C007900596126FAAD003E9
:10795F00D002D001D000126F9D7003FA7B01900509
:10796F008FE0900596126FC1900595E0900617F085
:04797F001273DA2283
:0B960D00EF6004439A2022539ADF22F2
:10745600900618126F4F20E50A7F147E0912936377
:107466007F1422900619126FB390061CE09F9006B7
:107476001BE09E400A7F117E091293637F112290C2
:1074860025967420F0900618E0603A126FBA90259F
:1074960093F0EEFC902592F090061BA3E0FB90255E
:1074A60095F090061BE0FF902594F09025967409C0
:1074B600F0902593EBF0902592EFF0902595EDF066
:0C74C600902594ECF0E490061DF0FF22ED
:107AC40090063FEF126F5320E50A7F147E0912934C
:107AD400637F1422C3900642E09420900641E09410
:107AE40003500A7F117E091293637F112290259619
:107AF4007420F090063FE0602A900641E0FEA3E087
:107B0400902593F0EE902592F0A3E0902595F090C7
:107B14002592E0902594F09025967481F09006408B
:0A7B24001292CBE4900643F0FF221A
:10773700900598126F60501D126FC8900599126FCF
:10774700965002801090059DE0FFD394635006EF9A
:10775700C39401500A7F117E091293637F1122900F
:107767000599126F8290059FEEF0A3EFF090059DAB
:10777700126F72C004C005C006C00790059F126F44
:10778700AAD003D002D001D000126F9D7003FA7BFC
:1077970001900598E090059F126FCF90059EE090AD
:0777A700061DF012745622CA
:0B961800EF6004439A4022539ABF22E7
:1074D20090061E126F4F20E60A7F157E09129363F3
:1074E2007F152290061F126FB3900622E09F90062E
:1074F20021E09E400A7F117E091293637F11229040
:10750200259E7420F090061EE0603A126FBA902514
:107512009BF0EEFC90259AF0900621A3E0FB9025CB
:107522009DF0900621E0FF90259CF090259E740925
:10753200F090259BEBF090259AEFF090259DEDF0D1
:0C75420090259CECF0E4900623F0FF2262
:107B2E00900644EF126F5320E60A7F157E091293DA
:107B3E00637F1522C3900647E09420900646E0949A
:107B4E0003500A7F117E091293637F112290259EA6
:107B5E007420F0900644E0602A900646E0FEA3E012
:107B6E0090259BF0EE90259AF0A3E090259DF09045
:107B7E00259AE090259CF090259E7481F090064504
:0A7B8E001292CBE4900648F0FF22AB
:1077AE009005A1126F60501D126FC89005A2126F46
:1077BE0096500280109005A6E0FFD394635006EF1A
:1077CE00C39401500A7F117E091293637F11229098
:1077DE0005A2126F829005A8EEF0A3EFF09005A619
:1077EE00126F72C004C005C006C0079005A8126FC4
:1077FE00AAD003D002D001D000126F9D7003FA7B85
:10780E00019005A1E09005A8126FCF9005A7E0901A
:07781E000623F01274D222D0
:0B962300EF6004439A8022539A7F22DC
:10754E00900624126F4F20E70A7F167E091293636E
:10755E007F1622900625126FB3900628E09F9006A4
:10756E0027E09E400A7F117E091293637F112290BD
:10757E0025A67420F0900624E0603A126FBA90258A
:10758E00A3F0EEFC9025A2F0900627A3E0FB902539
:10759E00A5F0900627E0FF9025A4F09025A674098B
:1075AE00F09025A3EBF09025A2EFF09025A5EDF03D
:0C75BE009025A4ECF0E4900629F0FF22D8
:107B9800900649EF126F5320E70A7F167E09129369
:107BA800637F1622C390064CE0942090064BE09425
:107BB80003500A7F117E091293637F11229025A634
:107BC8007420F0900649E0602A90064BE0FEA3E09E
:107BD8009025A3F0EE9025A2F0A3E09025A5F090C3
:107BE80025A2E09025A4F09025A67481F090064A7D
:0A7BF8001292CBE490064DF0FF223C
:107644009005AA126F60501D126FC89005AB126F9F
:1076540096500280109005AFE0FFD394635006EF7C
:10766400C39401500A7F117E091293637F11229003
:1076740005AB126F829005B1EEF0A3EFF09005AF69
:10768400126F72C004C005C006C0079005B1126F26
:10769400AAD003D002D001D000126F9D7003FA7BF0
:1076A400019005AAE0FF9005B1E0FCA3E0FD900580
:0A76B400B0E0900629F012754E2296
:046270004106520091
:1056A300E0FFE4FCFDFE12092890066F1209FC904E
:1056B300066F1209C4780812096790066F1209FC75
:1056C30090066F22E0FFE4FCFDFE120928900673AA
:1056D3001209FC9006731209C47808120967900630
:1056E300731209FC90067322EFF09006671209C447
:1056F30078081209549006671209FC90066702099C
:10570300C4EFF090066B1209C4780812095490068E
:105713006B1209FC90066B0209C4902780E054FECB
:10572300F022AC02AD017B107A007E2122E4F090DE
:105733002780E022E0FFE4FCFDFE22AC02AD01E0A5
:10574300FB7A0022120A89AE02AF01C3EE94232230
:10575300AC02AD017B087A007E2122AE02AF017B51
:10576300087A007C21221209FCE4FB902780E022C6
:1057730090051E020A69902780E04401F07F03220E
:1057830090219F7401F022E04404F090219FE4F003
:0157930022F3
:108F74009006BE12573020E00AE04401F09006BE8D
:108F84007401F07F001257251279839006BEE060C9
:058F94000312571D222D
:108F99009006BF12573020E00AE04401F09006BF66
:108FA9007401F07F301257251279839006BFE06073
:058FB9000312571D2208
:10924700E4FE902780E020E006E04401F07E0190F4
:0B9257002140EFF0EE600312571D22D3
:108D1E0090066712576920E005E04401F00B1256E9
:108D2E00FE9021411256EB9021421256EB902143B8
:0F8D3E001256EB902144EFF0EB600312571D2209
:108EAE00E49006C0F0902780E020E00AE04401F054
:108EBE009006C07401F07F451257531279839006C5
:088ECE00C0E0600312571D22F1
:10926200E4FE902780E020E006E04401F07E0190D9
:0B9272002110EFF0EE600312571D22E8
:108D4D0090066B12576920E005E04401F00B1257B5
:108D5D0017902111125704902112125704902113CC
:0F8D6D00125704902114EFF0EB600312571D22F0
:108ED600E49006C1F0902780E020E00AE04401F02B
:108EE6009006C17401F07F151257531279839006CC
:088EF600C1E0600312571D22C8
:06970D00902140E0FF2264
:108DD8009021441257371256AC1209D090214312F1
:108DE80056A31209D09021421256A31209D09021FD
:0E8DF800411257371209281256BD1209C42223
:0896BF007D4512575E0279831C
:06971300902110E0FF228E
:108E06009021141257371256D01209D090211312FE
:108E160056C71209D09021121256C71209D09021B6
:0E8E2600111257371209281256E11209C42200
:0896C7007D1512575E02798344
:0896CF00EF547F902194F0227A
:0896D700EF547F902195F02271
:1094C000EF9021936005E04440F022E054BFF02289
:1094D000EF9021936005E04420F022E054DFF02279
:108941009006C2EFF0700280129006C2E0D394103C
:10895100400280079006C2E030E00A7F1A7E0A12C8
:1089610093637F1A229006C2E0C31314FF902193F0
:10897100E054E3F0E0FEEF25E025E0FFEE4FF07F6D
:028981000022D2
:108C8B009006C3EFF0D39403400A7F117E0A129330
:108C9B00637F1122902193E054FCF0C083C082E0EB
:108CAB00FF9006C3E05403FEEF4ED082D083F07FDB
:028CBB00002295
:10413F00900518EDF09005151257474013D3EF94E3
:10414F00FFEE9424500A7F187E0A1293637F182281
:10415F00125773E4120605900518E0D39479400ABC
:10416F007F167E0A1293637F1622900518E0B40122
:10417F000A7F177E0A1293637F1722125779128CC8
:10418F008B9005191209C4128D1E90051DE0FF12A8
:10419F009247E4FF1296CF7F041289411257839002
:1041AF000518E02402902300F0900515120A69907B
:1041BF00051812573E7F017E23127983902007E462
:1041CF00F0900518E02402902008F0900521741259
:1041DF00F0902180E054FBF090200312578A900654
:1041EF004EF0A3F0902180E030E207E4900521F03B
:1041FF00801690064EE475F0011206D690064EE03A
:10420F00B402E1A3E0B458DC900521E070309005D2
:10421F0018E02404FF125773EF120605125783900C
:10422F000515120A69AE02AF0112577312059DFBF5
:10423F007A007D017C2312798390219FE4F012573D
:10424F001D900521E0FF600D740AFEEF4E60051210
:0B425F009363800100900521E0FF2226
:103ECF00900525EDF09005221257474013D3EF943C
:103EDF00FFEE9424500A7F187E0A1293637F1822F4
:103EEF0090052B120A69E4120605900525E0FFD311
:103EFF00947D5006EFC39404500A7F167E0A1293E6
:103F0F00637F1622125779128C8B9005261209C4E3
:103F1F00128D4D90052AE0FF129262E4FF1296D7A0
:103F2F007F04128941125783900525E024029024C3
:103F3F0000F0900522120A6990052512573E7F0165
:103F4F007E24127983902087E4F0900525E02402E7
:103F5F00902088F090052E7413F0902180E054FD8E
:103F6F00F090208312578A900650F0A3F090218092
:103F7F00E030E107E490052EF08016900650E475CE
:103F8F00F0011206D6900650E0B402E1A3E0B45857
:103F9F00DC90052EE0704990219F04F090052212CD
:103FAF000A69AE02AF01900525E0FB7A007D017C26
:103FBF0024127983900525E0FFE42FF582E4342461
:103FCF00F583E07010EF24FCFF90052B120A69EFC8
:103FDF00120605800690052E7414F090219FE4F0D0
:103FEF0012571D90052EE0FF600D740AFEEF4E6014
:0D3FFF000512936380010090052EE0FF2263
:1062740041045A00420458000042049C00004104B6
:0262840057556C
:10909100120A698F827583001205B6902542F0E4A9
:1090A100F583D2AF22902540E054BFF0E04440F078
:0290B100E422B7
:0B962E00EF60044398802253987F22D5
:0E953800439810D2B7E4FB7D017F070245DDAA
:07956000E490045AF07F01C2
:06956700EF24FF92B72281
:1050B20090062AEFF0A3EDF0A3EBF0E59820E70AC3
:1050C2007F107E0B1293637F102290062DE0D39403
:1050D20009400A7F117E0B1293637F112290062DE5
:1050E200E0FF24FE601314601824FA601C24087088
:1050F2002090062E7405F0801F90062E7403F08017
:105102001790062E7404F0800F90062E740BF08018
:1051120007EF240290062EF0902540E4F0902543FC
:10512200F0902540C083C082E0FF90062EE0FE543E
:1051320003FDEF4DD082D083F0902543E0FFEE5483
:105142000C1313543FFEEF4EF090062AE0605BA270
:10515200AFE43390062FF0C2AF90062BE024FF920B
:10516200FDA3E030E403129538902540C083C0824D
:10517200E0FF90062CE0FE541CFDEF4DD082D08360
:10518200F0902540E044C0F0D2EDEE20E412E4FFBE
:10519200900457E0902542F0E4F5830FEFB410F04D
:1051A20090062FE024FF92AF8007902540E4F0C2E2
:0451B200ED7F00226B
:10917500AE07E4FF129567C2AF902542EE12909FAD
:0F91850090045AE060FA12956090049BE0FF227C
:1084FA00900677120A8990067AEDF0D39410400A12
:10850A007F117E0B1293637F1122E490045AF0FFCD
:10851A0012956790067AE0FEEFC39E500BC2AF90A9
:10852A0006771290910F80EB90045AE0FF90067A3A
:0F853A00E0B50703D38001C350EE1295601F22F6
:10934B001290A6FEC2AF902542EF12909F0EEEB484
:08935B0010F2900457EFF0221C
:108BE8009006A3120A89EDD39410400A7F117E0BD8
:108BF8001293637F11221290A6FFC2AF9006A312B0
:108C080090910FEFB410F39006A3120A6912059D14
:078C1800900457F07F0022D9
:108A870090049CA3E0FFC3900459E09FFFEF543F7D
:108A9700602A90049CA3E0245BF582E43404F58308
:108AA700E012060590049DE02401FF90049C7E00DF
:0F8AB700EF543FFFEEF0A3EFF07F01227F00228C
:106526007FF07EFF7D077C001209D0D3020943EF7E
:10653600F0A3EDF0A3EBF0E59822AD07AC06ECF086
:106546007C00E4120331783FE4FBFAF9120095026D
:10655600036AC3E49BFFE49AFE740199FDE498FC88
:106566000209FCAF05EF24FF92AF7F0022E49005FD
:1065760075FEFDFC0209D0E0FFE4FCFDFEA3120956
:10658600D002080BE47B03FAF9F80209C4E0FEA383
:10659600E0FFC3E49FFFE49EFEAC0722E024FF92E7
:1065A600B9A3E024FF928C22E024FF92BBA3E0244F
:1065B600FF928E2290026D0209FCFB1209C4780834
:0D65C6000209549005B71209FC9005B72298
:0B963900EF6004439801225398FE22CA
:106B610090026912653520E00A7F137E0C1293634F
:106B71007F132290026CE0D39462400A7F177E0C4F
:106B81001293637F1722A2AFE433900271F0C2AF78
:106B910090026D120A08000007D090026C12657D08
:106BA1001265BA90026D12658A120896E4FDFC1214
:106BB10065BA90026D1209D090026D12655890026B
:106BC1006D1209C490067DEFF090026D1265C090C0
:106BD100067BEFF08B8AF58C5389F0438901900293
:106BE1006A1265A2900269E024FF92A9900271E005
:046BF10012656C229B
:1087EA0090065312653520E00A7F137E0C129363BC
:1087FA007F1322A2AFE433FDC2AF900656126593EF
:10880A0090067DECF0EE90067BF08C8AF58C53890D
:10881A00F04389019006541265A2900653E024FFA2
:06882A0092A9126569220B
:0B964400EF6004439802225398FD22BF
:106DAC009005B312653520E10A7F147E0C129363B3
:106DBC007F14229005B6E0D39462400A7F187E0CB3
:106DCC001293637F1822A2AFE4339005BBF0C2AFDD
:106DDC009005B7120A08000007D09005B612657D21
:106DEC001265C912658A120896E4FDFC1265C91277
:106DFC0009D09005B71265589005B71209C49006D2
:106E0C007EEFF09005B71265C090067CEFF08B8B8F
:106E1C00F58D53890F4389109005B41265AE90051A
:0E6E2C00B3E024FF92AB9005BBE012656C2230
:1088300090065812653520E10A7F147E0C1293636E
:108840007F1422A2AFE433FDC2AF90065B126593A2
:1088500090067EECF0EE90067CF08C8BF58D5389C3
:108860000F4389109006591265AE900658E024FF18
:0688700092AB12656922C3
:0B964F00EF6004439804225398FB22B4
:1054B70090057212653520E20A7F157E0C12936300
:1054C7007F15227F05126573C31209435012900599
:1054D70075126526400A7F197E0C1293637F192285
:1054E7007FF87EFF7D037C0090057512652E400EC8
:1054F70090057A7440F09005797406F080447FFC3B
:105507007EFF7D017C0090057512652E400E90058B
:105517007A7420F09005797405F08026E47FFE7E8A
:10552700FFFDFC90057512652E90057A400B7410EF
:10553700F09005797404F080097408F09005797487
:1055470003F07F0812657312080BC00790057AE015
:10555700FBE4FAF9F8D007120896E412032C78BF97
:1055670012654E90057B126540A2AFE433FEC2AFD1
:1055770053A9F0900572E0602790057BE0F5AA8FAC
:10558700AC900573E024FF92F9A3E0600C900579D5
:10559700E025E0440142A9800353A9FED2E9800235
:0955A700C2E9AF06EE12656C22A8
:0B965A00EF6004439808225398F722A9
:104DA30090057C12653520E30A7F167E0C1293630F
:104DB3007F1622E47F0590057F126577C3120943AE
:104DC300501290057F126526400A7F1A7E0C1293BB
:104DD300637F1A227FF87EFF7D037C0090057F129C
:104DE300652E400E9005847440F09005837407F09F
:104DF30080447FFC7EFF7D017C0090057F12652E41
:104E0300400E9005847420F09005837406F080268C
:104E1300E47FFE7EFFFDFC90057F12652E900584E6
:104E2300400B7410F09005837405F080097408F04A
:104E33009005837404F0E47F08FEFDFC90057F1267
:104E43006584C007900584E0FBE4FAF9F8D0071203
:104E53000896E412032CE4FBFAF978BF126552902A
:104E63000585126540A2AFE433FEC2AF53A90F908C
:104E7300057CE06029900585E0F5AB8FAD90057D5D
:104E8300E024FF92FBA3E0600E900583E0C433545B
:104E9300E0441042A9800353A9EFD2EB8002C2EB96
:074EA300AF06EE12656C2260
:104825000709433B0B0709433B0B0707433B0B07B3
:10483500078B3B0B07078B040B07078B0404070744
:104845008B0404040B048B061705078B0404040D65
:104855008B0404040D000B0B040400008B061705E4
:104865000000061705000000170500000000050000
:104875000000000004070000000007000000000021
:104885001D0B000001000B000001000000000100ED
:104895000000000100000000010000000000000011
:1048A5000000000000000000000000000000000003
:1048B50000000000000000000000000000000000F3
:1048C50000000000000000000000000000000000E3
:1048D50000000000000000000000000000000000D3
:1048E500C393C7712FEE93C7712FEE77C7712FEE64
:1048F5007703712FEE7703342FEE7703341AEE77B3
:1049050003341A0D658B021703077703341A0D025A
:1049150003341A0D02001A0D1209000002170307CD
:104925000000170307000000030700000000070050
:104935000000000007020000000002000000000067
:1062860042034F0000420345000042035300004210
:106296000349000041034D014203510000420347F8
:1062A6000000420355000042034B000041034E012B
:10705C00FFC3E09FFF7E00EF543FFFAD01ED24FF27
:10706C0022FF120A69EF1206059006B8E0FF9002A3
:10707C0082E075F006A422F583E5822FF582E435D3
:10708C0083F583E49322E433F0C2E8A2ACE4332228
:10709C00E433F0C2E8A2AEE43322A2AFE433FFC281
:1070AC00AF22C374409FFFE49EFED3EF9403EE9493
:1070BC000022E4F0A3E0543FF022E0120605E4F5D0
:1070CC0083EF24FF92AF7F0122120A698F827583AE
:0470DC00000205B6F3
:103C4200900278120A89E4900281F0120B6E3CB461
:103C52000000012C3CBB000002583CC3000004B031
:103C62003CCB000009603CD3000012C03CDB0000EA
:103C720025803CE3000038403CEB00004B003CF365
:103C8200000096003CFB0000DAC03D030000E100AA
:103C92003D0B0001C2003D13000384003D1B0007E1
:103CA20008003D230008CA003D2B001194000000CB
:103CB2003D33E4900282F0807E9002827401F080B3
:103CC200769002827402F0806E9002827403F08019
:103CD200669002827404F0805E9002827405F08025
:103CE200569002827406F0804E9002827407F08031
:103CF200469002827408F0803E9002827409F0803D
:103D020036900282740AF0802E900282740BF08048
:103D120026900282740CF0801E900282740DF08054
:103D220016900282740EF0800E900282740FF08060
:103D3200069002817412F0900281E070491270754F
:103D42002425F582E4344812708390027812706D53
:103D52002485F582E4344812708390027B12706DE0
:103D620024E5F582E43448127083FF90027E120A41
:103D720069EF12060590027E120A6912059D70060D
:0C3D82009002817412F0900281E0FF2298
:0B966500EF6004439820225398DF229E
:10579400900547EFF0A3EDF0E59820E50A7F107E31
:1057A4000D1293637F1022E4900551F0900547E0B9
:1057B40060289005491209C47B017A05794E90024C
:1057C4007B120A897A050990027E120A897A0509F0
:1057D400123C42900551EFF0800BE4900550F0909C
:1057E400054EF0A3F0900551E0FF6013740DFEEF39
:1057F4004E6005129363800100900551E0FF221270
:1058040070A6902505E4F09025037480F090054F70
:10581400E0902500F090054EE0902501F0900550B1
:10582400E0902507F0902503E4F0902507F090051B
:1058340047E060389025027481F090054DE0FE54F5
:105844003F902503F0902501E4F0EE20E604E044C7
:1058540001F090054DE020E707902501E04402F0B7
:10586400D2AC900548E024FF92BC8009902501E465
:0D587400F0C2ACC2BCEF24FF92AF7F002257
:1090D400A2E8900281127092F9C2AC900345A3E019
:1090E40090035012705C92AC900281E024FF92E8ED
:0190F4002259
:1090F500A2E89002F8127092F9C2AC900349A3E07D
:1091050090035412705C92AC9002F8E024FF92E850
:019115002237
:1082D000AC071290F51270AE40F8A2E8E433FF123A
:1082E0007095FEC2AC90034DE06010E4F0C2AF9018
:1082F0002500ECF0E4F583D2AF8020900353A3E097
:1083000024D7F582E43403F583ECF0900353E4754D
:10831000F0011206D69003531270BEEE24FF92AC09
:06832000EF24FF92E822A9
:1084540090027D120A891290D4EF4E7002FF22A27C
:10846400E8E433900280127094FFC2AC900345E4B8
:1084740075F0011206ECFC745725F0F58274033C88
:10848400F583E0FE90027D120A69EE120605900360
:10849400451270BEEF24FF92AC900280E024FF925C
:0484A400E87F01224A
:1093F300E4FF90034DE070010F902505E020E502A6
:039403007F0122C4
:108630009002F8120A89902501E030E1037F1322AD
:10864000EDD3941040037F1422902505E030E5F926
:10865000E4FFEFC39D5022A2AFE4339002FBF0C2CF
:10866000AF9002F81270D5902500F0E4F5839002E7
:0C867000FBE024FF92AF0F80D97F0022B6
:1093A300902505E030E00A1270A69025001270C6E1
:0493B300227F0022F3
:0B967000EF6004439840225398BF2293
:10588100900269EFF0A3EDF0E59820E60A7F107E23
:105891000D1293637F1022E4900273F0900269E08D
:1058A100602890026B1209C47B017A027970900220
:1058B1007B120A897A020990027E120A897A020908
:1058C100123C42900273EFF0800BE4900272F09070
:1058D1000270F0A3F0900273E0FF6013740DFEEF0D
:1058E1004E6005129363800100900273E0FF221263
:1058F10070A6902515E4F09025137480F090027144
:10590100E0902510F0900270E0902511F090027265
:10591100E0902517F0902513E4F0902517F0900200
:1059210069E060389025127481F090026FE0FE54B6
:105931003F902513F0902511E4F0EE20E604E044B9
:1059410001F090026FE020E707902511E04402F09A
:10595100D2AE90026AE024FF92BE8009902511E444
:0D596100F0C2AEC2BEEF24FF92AF7F002265
:108FE200A2E890028112709CF9C2AE900347A3E0FE
:108FF200FFC390035212705E92AE900281E024FF92
:0390020092E822CF
:10900500A2E89002F812709CF9C2AE90034BA3E05F
:10901500FFC390035612705E92AE9002F8E024FFF3
:0390250092E822AC
:10827900AC071290051270AE40F8A2E8E433FF1281
:10828900709FFEC2AE90034EE06010E4F0C2AF9062
:108299002510ECF0E4F583D2AF8021900355A3E0DB
:1082A9002417F582E43404F583ECF0900355E47562
:1082B900F0011206D6E49003551270BFEE24FF9226
:0782C900AEEF24FF92E82252
:1083260090027D120A89128FE2EF4E7002FF22A29E
:10833600E8E43390028012709EFFC2AE900347E4D9
:1083460075F0011206ECFC749725F0F58274033C77
:10835600F583E0FE90027D120A69EE120605E490AE
:1083660003471270BFEF24FF92AE900280E024FF15
:0583760092E87F0122E6
:10940600E4FF90034EE070010F902515E020E50281
:039416007F0122B1
:10867C009002F8120A89902511E030E1037F132251
:10868C00EDD3941040037F1422902515E030E5F9CA
:10869C00E4FFEFC39D5022A2AFE4339002FBF0C283
:1086AC00AF9002F81270D5902510F0E4F58390028B
:0C86BC00FBE024FF92AF0F80D97F00226A
:1093B700902515E030E00A1270A69025101270C6AD
:0493C700227F0022DF
:0996AE00C2AF75D25575D2AA2293
:0B967B00EF6004439201225392FE2294
:1084A80090027AEFF0A3EDF0E59220E00A7F107ECB
:1084B8000E1293637F102290027BE0D3940F400A40
:1084C8007F117E0E1293637F1122A2AFE433FFC2A5
:1084D800AF90027AE0600D1296B0A3E0540F4440CA
:1084E800F5D280061296B075D280EF24FF92AF7F46
:0284F800002260
:108EFE0090FFFF120BA8A2AFE433850D83850E827F
:108F0E00F01296AE43D240850D83850E82E024FF8B
:088F1E0092AF900001020BA8C4
:108CBD00A2AFE433900279F0C2AFEF4E600E900692
:108CCD00B4EEF0A3EFF07D0F7F018009E49006B4C0
:108CDD00F0A3F0FDFF1284A8900279E024FF92AF7B
:018CED002264
:108FBE00900269EFF0D3940F400A7F117E0E129348
:108FCE00637F11221296AE900269E0540FF5D243E0
:048FDE00920180FE7E
:108A4600900269120A897F007E10E490026CF0FDA4
:108A5600EF2DF582E43EF583E493FC90026CE02C66
:108A6600F0900269120A698D82758300EC1206176E
:108A76000DEDB440DB90026CE070037F01227F00B5
:018A860022CD
:0C62B6004105CB004105C6004105CA00AF
:106EC700E5E8F0A3E5E9F0AFA875E902E4F5E875B0
:106ED700A8809027927483F090279EE0C2AF9027F6
:106EE70093E0E4F583D2AF2290279F7444F0902774
:106EF70092E0547FF0E49005C6F022120A698E8270
:106F07007583001205B6902790F0E4F583D2AF227F
:106F1700EFF0A3EDF0A3120A89E599229027927466
:106F270080F022E0547F25E0902791F022FEE49044
:106F370005CBF0902792E0221291D2902792E0227F
:086F4700E0F5E88FA8AF052278
:0B968600EF60044399802253997F227B
:106FD60090067FEFF0A3EDF0A3EBF0E59920E70A2A
:106FE6007F107E111293637F1022900682E0C39475
:106FF60012500A7411FFFE1293637F112290067FCE
:10700600E0604AA2AFE433FFC2AF900682E0902769
:1070160094F090279674FFF0902795E4F0902793CC
:10702600E090279EE0900681E090279230E005747C
:10703600A3F080037483F053F9FD900680E06003AB
:1070460043F90243E902EF24FF92AF800653E9FDBC
:06705600126F237F0022EF
:1091D200E49005C4F0A3F09005C4E475F001120612
:0E91E200D69005C4E07004A3E0640A70EA228F
:1067CB009005CC126F1720E70A7F107E111293638E
:1067DB007F10229005D1E0700280099005D1E0D3A3
:1067EB00940F400A7411FFFE1293637F1122E4FF92
:1067FB00FE128CBD9005D2126EC79005CC126F2A7B
:10680B00C2AF9005CDE0126F0DFE9005D1E0FDEE0D
:10681B00C39D500BC2AF9005CE126F020E80EB12D0
:10682B006EEF9005D1E02402126F344470F0E4FD5A
:10683B009005C6E060047D1280079005CBE0B5069D
:10684B00EFED7006126F3F54EFF03096FD3097FA74
:10685B00126F239005D3E0F5E99005D2126F472212
:106161009005D4126F1720E70A7F107E11129363F6
:106171007F10229005D9E0700280099005D9E0D303
:106181009410400A7411FFFE1293637F1122E4FF01
:10619100FE128CBD9005DA126EC79005D4126F2ADB
:1061A100C2AF9005D5E0126F0D9005D9E090279709
:1061B100F0126EEF7E02126F36447CF0E4FD900522
:1061C100C6E060047D1280079005CBE0B506EFEDD7
:1061D10060083096FD3097FA8043126F3F54F7F014
:1061E100902791E04401F09005C6E060FAE4FE904A
:1061F10005D9E0FCEEC39C501EC2AF902790E0FC95
:106201009005D6120A698E82758300EC120617E496
:10621100F583D2AF0E80D83096FD3097FA126F23F6
:0D6221009005DBE0F5E99005DA126F4722E9
:10699B009005F1EF126F1B20E70A7F107E11129307
:1069AB00637F10229005F5E0700280099005F5E0F9
:1069BB00D39410400A7411FFFE1293637F1122E4EB
:1069CB00FFFE128CBD9005F6126EC79005F1126F8B
:1069DB002AE4FE9005F5E0FDEEC39D500BC2AF908F
:1069EB0005F2126F020E80EB126EEF9005F5E004CC
:1069FB00126F344470F0E4FD9005C6E060047D1224
:106A0B0080079005CBE0B506EFED7006126F3F5493
:106A1B00EFF03096FD3097FA126F239005F7E0F503
:086A2B00E99005F6126F472205
:105A5B00900552EF126F1B20E70A7F107E111293F5
:105A6B00637F1022E4FFFE128CBD900559E5E8F030
:105A7B00A3E5E9F0A3E5A8F0126ED0900552E0542F
:105A8B007F25E04401902791F0900556E0FFD394D9
:105A9B0010400B9027977410F0EF24F080099005BD
:105AAB0056E0902797F0E49005CAF0126EEF900540
:105ABB00CAE090055CF0E49005CBF0900553120A18
:105ACB00699005C7120A89902792E04474F0E4901C
:105ADB000557F09005C6E060FAE4900558F0902762
:105AEB0097E0FF900558E0FEC39F502DC2AF902763
:105AFB0090E0FFEEFD90055CE02DFDE433FC90059E
:105B0B0053120A698D828C83EF120617E4F583D248
:105B1B00AF900558E004F080C53096FD3097FA122F
:105B2B006F2390055AE0F5E9900559E0F5E89005EB
:0A5B3B005BE0F5A8900557E0FF229B
:0462C2004106C500CC
:1093CB00F0C2AF9027A6E04480F0E4F583D2AF90D3
:0493DB0006C5F022B1
:0B969100EF6004439940225399BF2270
:106ACA00900683EFF0A3EDF0A3EBF0E59920E60A38
:106ADA007410FFFE1293637F1022E49006C5F090B3
:106AEA0027AA04F09027A974A5F0900685E0600D06
:106AFA009027ACE4F09027AB748CF080109027AA12
:106B0A00E09027ACF09027A9E09027ABF09027B24D
:106B1A00E4F09027B17464F09027AF745AF0A3742C
:106B2A00B4F09027ADF0A3745AF0900686E090274F
:106B3A00A2F09027A6742FF0900684E0600543F92E
:106B4A0001800353F9FE900683E0600543E9018062
:076B5A000353E9FE7F002256
:107E0B009006B6EFF0E59920E60A7410FFFE129388
:107E1B00637F10229006B6E09027A4F09027A774FA
:107E2B0008F0A374291293CB9006B77412F0E4FFF9
:107E3B00FE9006C5E06007E49006B7F0800B0FBF1D
:107E4B0000010EBE75EBBF30E89006B7E0FF600D8A
:107E5B007410FEEF4E60051293638001009006B71D
:037E6B00E0FF2213
:10837B00E59920E60A7410FFFE1293637F1022909A
:10838B0027A77406F0A3041293CB9006C47411F0C4
:10839B00E4FFFE9006C5E06007E49006C4F0800B96
:1083AB000FBF00010EBE75EBBF30E89006C4E0FFB7
:1083BB00600D7410FEEF4E60051293638001009008
:0583CB0006C4E0FF22E2
:108CEE000A0D2045564B203A204C49422056322E32
:108CFE003500000000000000000000000000000031
:108D0E000000000000000000000000000000000055
:1063B200A37429F004F004F07429F004F004F074DA
:1063C20029F004F004F02290026C7412F0A374031A
:1063D200F0A32274039022CFF09022CE2290026C7E
:1063E2007413F0E4A3F0A322F0A3F0A3F0A3F0A3AC
:1063F200F0A3F022902221E4F0A37485F09022CA47
:106402002290026C7413F0A37401F0A32274029020
:1064120022CFF09022CE22F0A37416F014902242E2
:10642200F0902245229022B0E04401F0E4FEFF22E7
:10643200F07464A3F0A37404F022F0902249746310
:10644200F0A37455F090224D2274C0F0A37470F042
:1064520090223C7490F02224A69022BFF09022BE9B
:0B646200E4F022A3F0A37450F0A3228A
:107D3D00EFD39405401E902232743AF0A37434F0C0
:107D4D0090223812644B741112641F741E12643C1D
:107D5D007426803F902232744A1264197423F0EF16
:107D6D00C39405902238401A12644B902249742115
:107D7D00F0A304F090224D04F0A37499F0A37407BE
:107D8D00F0227450F0A374B0F090223C7450126441
:077D9D003C74121264322253
:105D120090278074F6F0A37423F09022B07440F0C0
:105D22009022C67480F09022C274B0F09022117456
:105D320002F090220C7405F09022207480F0A3E40B
:105D4200F0A37485F09022B97402F0A37463F0900A
:105D520022B774CFF0A3E4F09022C8745FF0A3746A
:105D620009F0EF30E0047E0E80027EA29022CAEE9D
:105D7200F07408126435A3E4F0740B1263D7740F45
:105D8200F0902230744AF09022321264197423F097
:105D920090224A7455F0A374E1F0EF30E0047E4B98
:105DA20080027E4D902235EEF0EF30E0047FC68017
:105DB200027FCD902236EFF0745C12646574B0F00D
:105DC20090223B7450F0A3F09022407420F0A3F094
:105DD2009022437410F0A3F09022497463F0902251
:105DE2004D741212643290221D7485F09022E17477
:035DF2006EF0222E
:1070E000AE07127D3DEF120B1B710E007110017186
:1070F0001702712703712704713105713306713549
:1071000007713C08714309714A0A00007127800029
:107110009022217401800A902221E4F0A374E5807A
:1071200036F0A374858030902221E4F0A37485802A
:1071300026800280001263F674AA80131263F6742C
:10714000D5800C1263F674D580051263F674D5F001
:107150009022197410F022F09022CA74A2F09022AA
:0471600019E4F0221C
:100E6E00E490026BF0EF8EF0120B410EBD09650E91
:100E7E00C6096A0ECF096F0ED809740EE109790EF4
:100E8E00EA097E0EF309830EFC09880F05098D0F02
:100E9E000D09920F1509970F1D099C0F2509A10F1A
:100EAE002D09A60F3509AB0F3D09B000000F4512F5
:100EBE0063C97428F0020F4B1263C97450F0020F0D
:100ECE004B1263C97478F0020F4B1263C974A0F011
:100EDE00020F4B1263C974C8F0020F4B1263C97430
:100EEE00F0F0020F4B1263DF7418F0020F4B126317
:100EFE00DF7440F0020F4B1263DF7468F0803E1215
:100F0E0063DF7490F080361263DF74B8F0802E12B7
:100F1E0063DF74E0F080261264037408F0801E1202
:100F2E0064037430F080161264037458F0800E124D
:100F3E0064037480F0800690026B7417F090026B5D
:100F4E00E0FF6001229022BE74C0F09022B47401C2
:100F5E00F090026CE09022B1F090026DE09022B21F
:100F6E00F090026EE09022B3F09022B0E04401F0D7
:100F7E0090026B7414F0E4FFFE9022BDE030E007A7
:100F8E00E490026BF0800B0FBF00010EBE27EABF8C
:100F9E0010E790026BE0601C1264279022BDE030D7
:100FAE00E007E490026BF0800B0FBF00010EBE272E
:090FBE00EABF10E790026BE0FFAE
:010FC7002207
:084945009006A6EEF0A3EFF0CE
:10494D00C3945AEE940940109006A6E0FCA3E0FD36
:10495D00D394CBEC940940037F1122E49006A8F088
:10496D00ED8CF0120B4149B7096549B9096A49C186
:10497D00096F49C3097449C5097949CD097E49CFE4
:10498D00098349D1098849D3098D49DB099249DD4C
:10499D00099749E5099C49E709A149E909A649F1A2
:1049AD0009AB49F109B0000049F980009022C274A9
:1049BD00D2F0803E800280009022C274D1F080320D
:1049CD008004800280009022C274D0F08024800088
:1049DD009022C274CFF0801A800280009022C2749F
:1049ED00CEF0800E9022C274CDF080069006A87491
:1049FD0017F09006A8E0FF6001229022B0E044027B
:104A0D00F09006A6A3E01264599006A87414F0E481
:104A1D00FFFE9022BDE030E007E49006A8F0800B89
:104A2D000FBF00010EBE27EABF10E79006A8E06099
:104A3D001C1264279022BDE030E007E49006A8F038
:104A4D00800B0FBF00010EBE27EABF10E79006A82E
:024A5D00E0FF78
:014A5F002234
:10646D00C3EF9465EE94094009D3EF94B0EE94090F
:10647D0040037F1122C3EF94B0EE940940059022A2
:10648D00C28033C3EF949CEE940940089022C274ED
:10649D00B3F08025C3EF947EEE940940089022C29C
:1064AD0074B4F08014C3EF9465EE94099022C24049
:1064BD000574B5F0800374B2F0D3EF947EEE9409B9
:1064CD009022B950057422F080037402F09022B02E
:1064DD00E04402F0EF1264597D14FFFE9022BDE0FE
:1064ED0030E004E4FD800B0FBF00010EBE27EDBFB1
:1064FD0010EAED60191264279022BDE030E004E44B
:10650D00FD800B0FBF00010EBE27EDBF10EAE4FEAC
:08651D00FF6003120E6EAF05D2
:016525002253
:0C9591009022BFE0245AFFE43409FE22BF
:104A6000EF120B1B4AAD004AB4014AC1024ACA0305
:104A70004AD1044AD8054ADF064AE6074AED084A01
:104A8000FA094B010A4B0E0B4B150C4B1C0D4B2915
:104A90000E4B350F4B3C104B49114B4F124B5613DD
:104AA0004B5D144B64154B701600004B799022CF70
:104AB000740B80059022CF7404F09022CE740FF016
:104AC000227405126411740BF0221263D5740AF07B
:104AD0002212640F7409F0221263D57407F02212B7
:104AE00063D57406F0229022CF740380059022CF04
:104AF0007401F09022CE7405F02212640F7404F059
:104B0000229022CF7407F09022CE7403F0229022DC
:104B1000CF740280199022CF740C80059022CF743C
:104B200004F09022CE7402F0229022CF7401F09013
:104B300022CE04F0229022CF741F80059022CF74E1
:104B40000FF09022CE7401F02212640F14F0229024
:104B500022CF7401801E9022CF741F800C9022CF30
:104B6000740880059022CF7401F09022CEE4F022E8
:0A4B70009022CFE4F09022CEF02254
:107C0200EFB401079022707424F022EF6402600541
:107C1200EF6403703990278074FEF090221974018A
:107C2200F09022707427F0902280E030E0F99022E8
:107C3200807423F0A37407F0EF902270B4030574EC
:107C420077F080037422F09022817460F0229027F2
:107C52008074F6F0902219E4F09022807480F0A3F0
:0A7C6200746CF09022707480F02220
:1093DF00EF9022926008740EF0A37402F0227401D1
:0493EF00F0A3F022D5
:0896DF00902290E054C0F0223B
:107C6C00EF30E00C902720E41263EAA31263EA22BF
:107C7C00EF90272030E7297404F0A374E2F0A3748A
:107C8C0004F0A374E2F0A37414F0A37410F0A3E452
:107C9C00F074FA126465F0A374A0F0A37464F0227B
:107CAC007402F0A37471F0A37402F0A37471F0A3C6
:107CBC00740AF0A37408F0A3E4F0A3747CF0A3742A
:097CCC0028F01264657432F02204
:10596E00902785E090228230E272E4F00000000081
:10597E00000000001263B20000000000000000747E
:10598E0029F00000000000000000000000000000F0
:10599E0000000000000000000000000000000000F9
:1059AE0000000000000000000000000000000000E9
:1059BE0000000000000000000000000000000000D9
:1059CE0000000000000000000000000000000000C9
:1059DE00000000000000000000008010E4F0000055
:1059EE0000001263B2000000007429F000000000F5
:1059FE000000000000000000000000000000000099
:105A0E000000000000000000000000000000000088
:105A1E000000000000000000000000000000000078
:105A2E000000000000000000000000000000000068
:105A3E000000000000000000000000000000000058
:0D5A4E00000000007440F090228214F0224D
:050006007E8C7FEE225C
:102566002023232045413D302C20496E746572722C
:102576007570742044697361626C6564202323005E
:102586002023232055415254303A496E74657272A5
:102596007570742044697361626C6564202323003E
:1025A6002023232055415254313A496E7465727284
:1025B6007570742044697361626C6564202323001E
:1025C600202323205541525430203A20496E746509
:1025D60072727570742044697361626C656420233D
:1025E6002300202323205541525431203A20496E9E
:1025F600746572727570742044697361626C656487
:10260600202323000A002025303278000A205B4D63
:1026160049425D000A204368616E3D2575202825E4
:1026260075204D487A29000A2050616E49443D3094
:102636007825303478000A2053686F7274416464D8
:10264600723D30782530347800203A494545454179
:1026560064647228307E37293D3078000A2044733E
:102666007453686F7274416464723D3078253034F7
:102676007800203A4473744945454541646472289C
:10268600307E37293D3078000A20446174615261FA
:1026960074653D30782530327800203A547850778A
:1026A600724C6576656C3D307825303278000A20AC
:1026B6004E6F41636B52657472793D257500203A01
:1026C6004261636B6F666652657472793D2575006B
:1026D6000A205B52582D4D41432D504B545D000A44
:1026E6002044534E3D3078253032782C204F4F42CF
:1026F6003D30782530327800203A64426D3D2564BD
:1027060000203A436F72723D2564000A20447374B8
:102716002E204D6F64653D2530327800203A506199
:102726006E49443D30782530347800203A53686F3E
:102736007274416464723D30782530347800203AF2
:102746004945454528307E37293D3078000A2053D3
:1027560072632E204D6F64653D25303278000A2065
:102766004D534455204C656E3D25303275203A2038
:1027760000203A4D534455203D000A203D3D3D2062
:1027860048494220446973706C6179203D3D3D00A3
:102796000A20494545452041444452284C53427E2F
:1027A6004D534229203A000A2043686970496E64F5
:1027B6006578203D203078253032780020284D4736
:1027C60032343030290020284D473234355829001C
:1027D60020284D4732343730290020284D473234DF
:1027E6003630290020284D47323431302900202840
:1027F600556E636C617373696669656429000A20A6
:102806004368616E6E656C2020203D20257520286A
:102816002575204D487A29000A20537461636B4957
:10282600442020203D20307825303278000A20547C
:1028360078506F7765722020203D20307825303221
:102846007800202020204461746152617465202044
:102856003D20307825303278000A2050616E494498
:1028660020202020203D2030782530327825303237
:10287600780020204E776B4164647220203D203022
:10288600782530327825303278000A205365634C3B
:102896006576656C20203D20307825303278002022
:1028A600202020507265436F6E666967203D203098
:1028B6007825303278000A204E574B204B65792018
:1028C600284C53427E4D534229203A000A20526535
:1028D600736572765F30284C53427E4D53422920F1
:1028E6003A000A204550494420202020284C5342D3
:1028F6007E4D534229203A000A205265736572764E
:102906005F31284C53427E4D534229203A000A201B
:1029160047656E6572616C576F726430203D20307A
:10292600782530327825303278000A2047656E6582
:1029360072616C576F726431203D203078253032D9
:0629460078253032780014
:0A62C6004204C100004204C30000BE
:103256001207FE9002751209FC9002751209D090B1
:103266000272E075F064A4FFAEF0E4FCFD1207FE06
:103276009002751209FC9002751209D075F00A9039
:103286000271E0A4FFAEF0E4FCFD1207FE900275A9
:103296001209FC90027522120A699000191205B6ED
:1032A600FFE490028AF0A3EFF07BFF229000011268
:1032B600072DFF900560120A69900566E0FDF5820C
:1032C600758300EF12061790055D120A69900001DA
:1032D60012072DE5F0FFED2401FDE433FC900560B7
:1032E600020A698D828C83EF12061790055D020A29
:1032F60069F9E43AFAE4900271F07D08FC2290053F
:1033060066E0F582758300ED120617EEFF900566FE
:10331600E0F582758300229006A9120A69900004DE
:1033260012072DFF90028AE5F02290026A120A69BE
:10333600120702FFE5F0C4F854F0C868FEEFC45463
:103346000F48FFEE8FF01207B290026FE022900254
:1033560071E0900270F0900272E0900271F09002BB
:1033660073E0900272F0900274E0900273F0E4A3AE
:10337600F090026FE014F022900272E0FF7E007C73
:10338600037DE8120639E4FCFD221205B6FF900221
:103396008AE4F0A3EFF0221209C4E47B107A27F93D
:1033A600F802080B900269120A699000080205B635
:1033B600FFFD90028AE4F0A3EDF07E007C007D051F
:1033C600120639EF242EFFEE3409A32274B52FF529
:1033D60082E43402F583229005F9120A6902059DFA
:1033E6001209D0900270E0FFE4FCFDFE22E9240100
:1033F600F9E43AFA02059D120A897BFF7A26790AD0
:103406007F01229006A9120A699000020205B68D74
:10341600828C83EF120617900566221205B6FF907E
:10342600028CE422C4540F1206059005FEE022EF3A
:1034360024D090026DF090026FE0C394042212092A
:10344600D090026DE0FF3395E0FEFDFC229002F580
:10345600E0FFC3944022F0E4F5839002FEE024FFEF
:1034660092AF2290000C0205B690000B0205B690B2
:1034760006A9020A69EFF0A3120A89E4222402FFD0
:10348600E433FEE92FF9EA3E22E475F0010206D69E
:103496001209D0900270E075F00A22900566E07E6F
:1034A6000029F9EE3A22FF900563020A699002F5B7
:0D34B600E004F02290026A120A6902070287
:109028009002F6EFF0902501E09002F630E105E0BD
:10903800FF0282D0E0A3F07B017A0279F77D01126A
:039048008630224D
:108E3400900279120A89902501E090027930E008C5
:108E4400120A691284548006120A691293A39002CA
:098E54007CEFF090027CE0FF22AB
:10904B009002F6EFF0902511E09002F630E105E08A
:10905B00FF028279E0A3F07B017A0279F77D01129E
:03906B00867C22DE
:108E5D00900279120A89902511E090027930E0088C
:108E6D00120A691283268006120A691293B79002BC
:098E7D007CEFF090027CE0FF2282
:1076BE009002FA120A89A2AFE4339002FEF0C2AF32
:1076CE00902500740AF0740DF0902510740AF07471
:1076DE000D12345C902505E030E5F9902515E0306B
:1076EE00E5F9E49002FDF09002FA120A6912938E07
:1076FE009002FDE0C39FEE6480F87480985029A23A
:10770E00AFE433A3F0C2AF9002FA120A699002FD01
:10771E001233161205B6902500F090251012345C27
:09772E009002FDE004F080BF228E
:107825009002F6EFF020AF3D7BFF7A25796612785E
:10783500939002F6E0700B20AC087BFF7A257986E1
:1078450080109002F6E0B4010C20AE097BFF7A258A
:1078550079A6127893C2AF75D25575D2AA75D20A98
:1078650043920180FE9002F6E0700B20AC087BFF8E
:107875007A2579C680109002F6E0B4011020AE0D8D
:107885007BFF7A2579E8A3120A891276BE22A31214
:067895000A891276BE22F2
:1065D300900287120A89900286EFF0127825E490E0
:1065E30002F5F0123453500A1233D2E4F01234B3EA
:1065F30080F17B017A02798A9002B2120A899002B1
:1066030087120A699002F6120A899002B2120A6985
:106613009002F9120A897B017A0279B51286C89031
:106623000286E030E02BE49002F5F0123453504C34
:106633001233D2E0FF604512904B9002F5E024B58F
:106643001233D5E0B40A057F0D12904B1234B38098
:10665300DAE49002F5F012345350211233D2E0FF02
:10666300601A1290289002F5E024B51233D5E0B4F5
:0D6673000A057F0D1290281234B380DA2240
:1055B00090026912347B90026FF0F5F01207B27F0F
:1055C000107E27128CBD900269E030E04C7B017A9E
:1055D00002796E128E5DEF60E612569460129002B0
:1055E0006FE0640460D990026EE0FF12904B804A35
:1055F00090026EE064087018A3E060147F081290B7
:105600004B7F2012904B7F0812904B12333014F0D6
:1056100090026EE0640D70A7227B017A02796E120F
:105620008E34EF609A125694603E90026FE06404EC
:10563000608D90026EE0FF1290281234BAC4F854C4
:105640000FC868FFE5F0C454F0488FF01207B2129B
:1056500034BAFF90026DE0FD3395E045F0FEEF4D6A
:1056600012334804F00255BF90026EE064087018CF
:10567000A3E060147F081290287F201290287F08F2
:1056800012902812333014F090026EE0640D600323
:105690000255BF2290026EE0FF12920E90026DEF53
:0356A000F0F42201
:105DF5009005F812347B9005FEF01206057F107EA3
:105E050027128CBD9005F8E030E04F7B017A0579CB
:105E1500FD128E5DEF60E6125EC960129005FEE030
:105E2500640260D99005FDE0FF12904B804D90050E
:105E3500FDE06408701BA3E060177F0812904B7F9C
:105E45002012904B7F0812904B1233DD12342A1426
:105E5500F09005FDE0640D70A4227B017A0579FDC3
:105E6500128E34EF6097125EC9602A9005FEE064D9
:105E750002608A9005FDE0FF1290281233DDC454BC
:105E8500F01206051233DDFF9005FCE04F12342DAC
:105E950004F0025E029005FDE06408701BA3E0605B
:105EA500177F081290287F201290287F08129028CB
:105EB5001233DD12342A14F09005FDE0640D600301
:105EC500025E02229005FDE0FF12920E9005FCEFA6
:035ED500F0F422C4
:1034C30090026912347B90026FF0F5F01207B2E4B8
:1034D300900270F0A3F0A3F0A3F0A3F07F107E2777
:1034E300128CBD900269E020E0030235BE7B017AB5
:1034F30002796E128E5DEF60E390026EE0FFC3947B
:1035030030405BEFD39439505512343550030235B4
:103513005B90026FE0640470C39002731233EC1289
:10352300329312339D1232931209D0C00012337EAC
:10353300D0001232901209D075F064123285123421
:10354300961232891234441232901209C4E4FEED09
:103553004C708990026EE0FF12904B02364290024B
:103563006EE064087016A3E060127F0812904B7F30
:103573002012904B7F0812904B12335490026EE04E
:10358300640D60030234DF9002741233ECA3123231
:103593009612339D1232931209D0C0009002731217
:1035A3003381D0001232561233E61232901209C41C
:1035B300E4FFFEED4C6001220236C57B017A0279FD
:1035C3006E128E34EF70030234DF90026EE0FFC39D
:1035D3009430500302366BEFD39439400302366BB9
:1035E300123435500612902802364290026FE0647E
:1035F3000460030234DF9002731233EC123293122D
:10360300339D1232931209D0C00012337ED00012C0
:1036130032901209D0900271E075F064123289126F
:1036230034961232891234441232901209C4E4FEE1
:10363300ED4C60030234DF90026EE0FF129028909D
:103643000273E0A3F0900272E0A3F0900271E0A392
:10365300F0900270E0A3F090026DE0900270F090A1
:10366300026FE004F00234DF90026EE0640870162B
:10367300A3E060127F081290287F201290287F0811
:1036830012902812335490026EE0640D60030234EA
