:10AF0000C00F74AFC0E0C082C083750F0A75A10086
:10AF10000000000022C00F74AFC0E0C082C0837583
:10AF20000F1F75A1010000000022C00F74AFC0E028
:10AF3000C082C083750F3475A1020000000022C0DA
:10AF40000F74AFC0E0C082C083750F4975A10300C4
:04AF500000000022DB
:0DCB2700EF90CB309390AF00730A1F34499C
:10A26900EB60010A4A601D8C838D8263A2018E8393
:10A279008F8263A20100E0A363A201F0A363A2019C
:10A28900DBF4DAF222C0A275A2010000C082C08309
:10A2990063A2010000C082C083EB60010A4A601D0D
:10A2A9008C838D8263A2018E838F8263A20100E079
:10A2B900A363A201F0A363A201DBF4DAF2D083D095
:0DA2C9008263A2010000D083D082D0A222C7
:030000000259366C
:105936007598007599209022E074D9F090270E741E
:1059460000F09027027470F09027037400F0E49042
:105956000000F0900000E004F0E0B4C8F6902700E4
:105966007480F09027087400F0902709F0902720A3
:10597600F0902721F0902722F0902723F0902724FB
:10598600F0902725F0902726F0902727F0902728DB
:10599600F0902729F090272AF090272BF075990090
:1059A6009022E17400F09022E27490F09022E77465
:1059B600FFF09022E8F09022E9F09022EAF090229F
:1059C600EBF09022ECF09022ED7400F09022EEF0D5
:1059D6009022EFF09022F0F09022F1F09022F2F077
:1059E600750D18750E00758121C2C112AF0A025AD3
:0159F600327E
:0CCB6600016800AA005A002D0015000B09
:0A2117004210D100004210CF00007A
:10C0DF00900D086480F8E064809822900D08E0FECF
:10C0EF00A3E0FFC322900D14120A5F900D14020AF1
:0AC0FF0047120ACC900D0D020AEC66
:0ECAE100902784E054BFF00000E04440F022B3
:10AAB800EBD394084004007F1222EDD39403500492
:10AAC800EDB40104007F1122EF9022E66026E044F5
:10AAD80004F0902781E0440CF09022D4E04480F008
:10AAE800E054F04BF0AF05EFC43354E0FFE0549F5F
:10AAF8004FF08012E054FBF09022D4E0547FF090A5
:09AB08002781E054F3F07F0022E4
:10C0B500EFD394035005ED94034004007F112290C3
:10C0C5002786E054FC4FF0AF05EF25E025E0FF9013
:0AC0D50022D5E054F34FF07F002263
:10BFAC00ED6005D3940E4004007F1122ED04C454BF
:10BFBC00F0FE9022D5E0540F4EF0EF6006E0440204
:0DBFCC00F080079022D5E054FDF07F0022A8
:10C4E600A2AFE433FFC2AF9022D7E0FDE0FEEF2417
:10C4F600FF92AFAF06EFFEEDFF7C007D10120796B0
:01C506002212
:10C9E3009022D6E05478131313541FFF60011F22C3
:10B5A60074FFF5F012085B7F13E49010C9F0A3F066
:10B5B6009022D6E05470600D12C4E6EE8FF01208A9
:10B5C6005BE4FF80199010C9E475F0011207CCC343
:10B5D6009010CAE094D09010C9E0940740D2EF6072
:03B5E6000100223F
:109B2B00AA05EBD394084004007F1222EAD39403D6
:109B3B004004007F1122EF60557D02E4FF12BFACA1
:109B4B00AF02AD077F0112AAB8AC07EC704912CA7D
:109B5B00E1901209E025E02466F582E434CBF5832D
:109B6B00E493FF7401939010CBCFF0A3EFF0E4A339
:109B7B00F0A3F09010CB12C0ED9010CEE09F9010A0
:109B8B00CDE09E5012E475F0011207CC80E5E4FBAA
:0A9B9B00FDFF12AAB8AC07AF0422C8
:10BD3F00900D00120AECEFD394084004007F1222FA
:10BD4F00AB07E4FD7F01129B2BEF600122900D00EA
:10BD5F00120ACC12B5A6EF600122E4FBFDFF129B85
:04BD6F002B7F002204
:10715A00900D06EEF0A3EFF0A3ECF0A3EDF0900D86
:10716A000CE0FFC3940A4006EFD3940F4004007F5B
:10717A001122900D0612C0ED900D09E09FEE12C08B
:10718A00DF4004007F142212C0EA900D07E09FFF3F
:10719A00900D06E09E900D10F0A3EFF0D3900D092C
:1071AA00E09BEA12C0DF4009E4900D12F0A3F080E0
:1071BA0029C3900D07E09BEA900D0612C0E2500B1E
:1071CA00900D10E0FFA3E0A3CF800B12C0EAEB9F63
:1071DA00FFEA9E900D12F0A3EFF0900D0CE0FF7401
:1071EA00017E00A807088005C333CE33CED8F92420
:1071FA00FFFFEE34FFFEE4FCFD900D14120A5F90CF
:10720A000D12E0FEA3E0FFE4FCFDA3120A531208EC
:10721A00B412C0F4C006C007900D10E0FEA3E0FB54
:10722A00AA06E4F9F8D007D00612093F12C0F4EE14
:10723A00547FFE900D0D120ACCEE8FF012085B7F80
:02724A00002220
:0CCB4E007B017A1079D17F0712BD3F22D5
:0CCB5A007B017A1079CF7F0812BD3F22CA
:10AC7200900D01120AEC900D00EFF0C3940A400609
:10AC8200E0D3940F4004007F11227B017A0D7904F6
:10AC920012B5A6EF6001229010D1E0FEA3E0FF9072
:10ACA20010CFE0FCA3E0FD900D00E0900D0CF090C1
:10ACB2000D0112C100900D04E0FAA3E0FB12715ADB
:07ACC200EF6001227F002278
:109707009010B4EDF0A3120AEC9010B3EFF0D394DD
:10971700084004007F12229010B4E0FFC3940A406F
:1097270006EFD3940F4004007F11227B017A107952
:10973700BA7F0712BD3FEF6001227B017A1079B82B
:109747007F0812BD3FEF6001229010B3E0FF7B015D
:109757007A1079BC12BD3FEF6001229010BAE0FE8B
:10976700A3E0FF9010B8E0FCA3E0FD9010B4E090F8
:109777000D0CF09010B512C1009010BCE0FAA3E0F8
:0B978700FB12715AEF6001227F0022EC
:04212100411209005E
:10AD2000E4FDEF1460141460151460161460171419
:10AD30006018240570187E088016E4FE80127E20BC
:10AD4000800E7E40800A7E6080067E0C80027D122E
:10AD5000ED600300FF22901209EFF0538E10EE42D7
:10AD60008EE58E90278530E306E04404F08004E011
:06AD700054FBF07F0022FD
:030026008F98228E
:03002E008F992285
:030036008F9A227C
:082125004111F9004111FA001B
:10C89300A2AFE433FEC2AFEB9022EF22AF06EE2449
:06C8A300FF92AF7F0022AE
:10B77100E5B420E204007F102212C89330E106E014
:10B781004404F08004E054FBF0EB30E003D380018B
:10B79100C39288ED24FF92B8EF24FF92A89022F281
:10B7A100E030A8054404F0800354FBF012C89F2246
:10B7B100E5B420E304007F112212C89330E106E0D2
:10B7C1004408F08004E054F7F0EB30E003D380014B
:10B7D100C3928AED24FF92BAEF24FF92AA9022F23B
:10B7E100E030AA054408F0800354F7F012C89F2204
:04212D0041120A80D1
:10742B00E0FEA3E0FFF5828E83A3A31206AC9027A8
:10743B0005F08F828E83A3A3A31206AC902704F0D2
:10744B0090120AE04401902700F022F09011CBE05B
:10745B00F58A9011C9E0F58C22E0FEA3E0FFF582DE
:10746B008E831206AC902707F08F828E83A31206B1
:10747B00AC902706F022FFE0FAA3E02DF582EA3C60
:10748B00F583E4936F22900D07E475F0010207CCAE
:10749B00900D05E0FEA3E0A3FFE0FCA3E0FDC39F7E
:1074AB00EC9E229027007480F09027027470F0A35A
:1074BB00E4F0902708F0A3F07F0122E0FEA3E09018
:1074CB002703F0EE902702F022FFEEF0A3EFF0433C
:1074DB00992090270EE4F0901209E022902709746E
:1074EB0001F0902708E4F022120ACC8D828C8302E3
:1074FB0006ACEEF0A3EFF0EE54014F22CFF0A3EF6A
:0D750B00F0E422900D0B120A5F900D0B2290
:06CCCE00E490120AF022BE
:07CCB90090120A7480F022C2
:10BB8A0090270EE4F090270DE020E0F90000000075
:10BB9A00EF1274CA902708E4F0A304F090120AE0A6
:10BBAA004402902700F00000000090270DE020E0FA
:08BBBA00F99027007480F022CD
:100E7F00900D4C120AEC900D4A1274FD6004007F25
:100E8F001422900D4AE0FEA3E07802CEC313CE13D6
:100E9F00D8F9900D561274D470047F808002E4FF4D
:100EAF0012A41690120AE0701D902700E064807063
:100EBF0015902708E0700FA3E0700B902702E0B4A5
:100ECF007004A3E06009900D587413F0020FE4E46E
:100EDF00FF12B2E2E4900D5DF012C1D4900D56E016
:100EEF00FEA3E0FF12BB8A900D4FE030E00AE490C2
:100EFF000D58127456020FE490270DE020E0F912FE
:100F0F0074E7900D50F0A3F0900D56E0FFA3E09022
:100F1F000D54CFF0A3EFF0900D52E4F0A37480F0D6
:100F2F0012C1D4900D541274C6900D4C120ACC906D
:100F3F000D50127464900D5012742B00000000902D
:100F4F000D50E475F0041207CC900D541274949068
:100F5F000D5274FFF5F01207CC900D52E07002A302
:100F6F00E070BD90270DE020E0F9127457900D4A04
:100F7F00E0FFA3E0900D59127507900D58F0900DFA
:100F8F005BF0A3F0900D5BE0FEA3E0FFC3EE9402D5
:100F9F00502E900D4C120ACC8F828E831206ACFF0E
:100FAF00900D5BE0FCA3E0FD900D59127482600878
:100FBF00900D587415F08008900D5B12749480C4D6
:100FCF00900D58E0600F900D5DE004F0E0C39404C5
:100FDF005003020EE81274AE12A4165399DF7F016C
:0C0FEF0012B2E2900D58E0FF60010022F9
:10508F00901066120AEC9010641274FD6004007F99
:10509F001422901064E0FEA3E07802CEC313CE1367
:1050AF00D8F99010711274D470047F808002E4FFDD
:1050BF0012A41690120AE0701D902700E064807011
:1050CF0015902708E0700FA3E0700B902702E0B453
:1050DF007004A3E060099010737413F002520CE493
:1050EF00FF12B2E2E4901078F012C1D4901071E088
:1050FF00FEA3E0FF12BB8A901069E07002A3E0707C
:10510F000990107312745602520C90270DE020E094
:10511F00F91274E790106BF0A3F0901071E0FFA3F9
:10512F00E090106FCFF0A3EFF0901069E0FCA3E0D8
:10513F00FDAE047802CEC313CE13D8F9FF90106DD5
:10514F00EEF0A3EFF0ED5403600A90106DE475F0EC
:10515F00010251A390106DE07002A3E0603C12C1F8
:10516F00D490106F1274C6901066120ACC90106B08
:10517F0012746490106B12742B0000000090106B6F
:10518F00E475F0041207CC90106F12749490106DA8
:10519F0074FFF5F01207CC02516390270DE020E069
:1051AF00F9127457901064E0FFA3E0901074127519
:1051BF0007901073F0901076F0A3F0901069E0FE56
:1051CF00A3E09010761274A3501E9010661274F321
:1051DF0090107412748160089010737415F0800829
:1051EF0090107612749480D3901073E0600F90102B
:1051FF0078E004F0E0C3940450030250F81274AE48
:10520F0012A4165399DF7F0112B2E2901073E0FFE0
:04521F006001002208
:10821A00900D00EEF0A3EFF0A3120AEC900D00E02F
:10822A00FEA3E0FFE4FCFD12750E120A53900D0640
:10823A00E024FFFF900D05E034FFFEE4FCFD120888
:10824A00A712750E120A47ED4C6004007F1222E451
:10825A00900D0AF0900D00E0FFA3E0900D0F12754B
:10826A0007900D09F0E4900D07F0A3F012749B50EB
:10827A0029900D0FE0FEA3E02DF582EE3CF583E494
:10828A0093FF900D02120ACC900D07A3E0F5828CA1
:10829A0083EF12070D12749180D2E4900D07F0A3B8
:1082AA00F012749B501B900D021274F3900D0F1272
:1082BA0074816008900D0A7416F08005127491801A
:1082CA00E0900D0AE0600B900D09E004F0E0640410
:0882DA007093900D0AE0FF22F1
:10C8A900AF04E0FDA3E0FB12C2C1EF22EDF0A3EB60
:06C8B900F0AC07E5982237
:0BCB8A00EF6004439810225398EF2244
:10C2C100EFD394074008EF640A60037F1222ED6008
:10C2D10009EBD39401400C7F1122EBD3940240036C
:06C2E1007F11227F002204
:1083A100900D4812C8B520E404007F1022900D48BA
:1083B10012C8A960020022EC120B7E83DB0083E16C
:1083C1000183E70283ED0383F30483F90583FF0649
:1083D100840507840B0A0000840F7E0179FE802E3C
:1083E1007E0279FD80287E0479FB80227E0879F760
:1083F100801C7E1079EF80167E2079DF80107E4010
:1084010079BF800A7E80797F80047EFFE4F9900D38
:1084110048E06019E952B19022EAE059F0900D4923
:10842100E06005EE42C18032E952C1802D900D49D4
:10843100E0FF700E9022EAE04EF09022E7E04EF06D
:108441008012EF9022EAB40108E04EF09022E7801A
:0D84510000E059F0EE42B1EE42B97F00228A
:10845E00900CFE12C8B520E404007F1022900CFE92
:10846E0012C8A960020022EC120B7E849800849E32
:10847E000184A40284AA0384B00484B60584BC06D5
:10848E0084C20784C80A000084CC7E0179FE802E47
:10849E007E0279FD80287E0479FB80227E0879F7A2
:1084AE00801C7E1079EF80167E2079DF80107E4052
:1084BE0079BF800A7E80797F80047EFFE4F9900C7C
:1084CE00FEE06019E952B29022EBE059F0900CFFF9
:1084DE00E06005EE42C28032E952C2802D900CFF60
:1084EE00E0FF700E9022EBE04EF09022E8E04EF0AE
:1084FE008012EF9022EBB40108E04EF09022E8805B
:0D850E0000E059F0EE42B2EE42BA7F0022CA
:1082E200900D4812C8B520E404007F1022AF04901C
:1082F2000D4812C8AB60020022EC120B7E831E00F6
:10830200832401832A02833003833604833C05835A
:108312004206834807834E0A000083527E0179FE9B
:10832200802E7E0279FD80287E0479FB80227E08E1
:1083320079F7801C7E1079EF80167E2079DF80101D
:108342007E4079BF800A7E80797F80047EFFE4F9D7
:10835200900D48E06019E952B49022ECE059F09097
:108362000D49E06005EE42C48032E952C4802D908E
:108372000D49E0FF700E9022ECE04EF09022E9E011
:108382004EF08012EF9022ECB40108E04EF0902201
:0F839200E98000E059F0EE42B4EE42BC7F0022D9
:0C2131004111E1004111E2004111E30006
:08CC8100EDF0A3EBF0E59222B7
:04C70300E0FD7F01D5
:10C70700ED600543F904800353F9FBEF600443E947
:06C71700042253E9FB229D
:0BCB9500EF6004439202225392FD2245
:108A19009011B612CC8120E104007F10229011B888
:108A2900E0D394034004007F2022E4FDEF120B7E83
:108A39008A58008A5E018A64028A6A038A70048AF3
:108A490076058A7C068A82078A880A00008A8E79D6
:108A5900017EFE803279027EFD802C79047EFB80C6
:108A69002679087EF7802079107EEF801A79207E9A
:108A7900DF801479407EBF800E79807E7F800879FF
:108A8900FFE4FE80027D30ED600300FF229011B605
:108A9900E060279011B8E0FF30E105E942EA800380
:108AA900EE52EAEF30E005E942EB8003EE52EBE9E2
:108AB90042EC9011B712C7038003EE52EC7F0022FB
:0BCBA000EF6004439204225392FB223A
:108AC9009011BA12CC8120E204007F11229011BCCE
:108AD900E0D394034004007F2122E4FDEF120B7ED2
:108AE9008B08008B0E018B14028B1A038B20048BCD
:108AF90026058B2C068B32078B380A00008B3E79B2
:108B0900017EFE803279027EFD802C79047EFB8015
:108B19002679087EF7802079107EEF801A79207EE9
:108B2900DF801479407EBF800E79807E7F8008794E
:108B3900FFE4FE80027D31ED600300FF229011BA4F
:108B4900E060279011BCE0FF30E105E942F28003C3
:108B5900EE52F2EF30E005E942F38003EE52F3E919
:108B690042F49011BB12C7038003EE52F47F002236
:0BCBAB00EF6004439208225392F7222F
:108E25009011BE12CC8120E304007F13229011C063
:108E3500E0D394034004007F2322E4FDEF120B7E70
:108E45008E5E008E64018E6A048E70058E76068EA7
:108E55007C078E820A00008E8879017EFE80267945
:108E6500027EFD802079107EEF801A79207EDF80DA
:108E75001479407EBF800E79807E7F800879FFE47B
:108E8500FE80027D33ED600300FF229011BEE0609D
:108E9500279011C0E0FF30E105E942FA8003EE5268
:108EA500FAEF30E005E942FB8003EE52FBE942FCB4
:0E8EB5009011BF12C7038003EE52FC7F002213
:0DCB3400F0A3F0EF24FF92AF902190E022DB
:06CCD400902191EFF02217
:10C9F300EF9021916005E04402F022E054FDF02223
:10CA0300EF9021916005E04404F022E054FBF02212
:10CA1300EF9021916005E04408F022E054F7F02202
:10CA2300EF9021916005E04410F022E054EFF022F2
:09CC6600902158EFF0EEA3F0223A
:09CC6F0090215AEFF0EEA3F0222F
:0FCAC300AC02AD017B087A007F507E2102A26990
:10C71D00A2AFE433FFC2AF902004E4F090200112E9
:0AC72D00CB344440F0E054BFF0228A
:10C73700A2AFE433FFC2AF902084E4F090208112CF
:0AC74700CB344420F0E054DFF02270
:0BCBB6007F1612CCD412C71D02C73737
:0C213D0041113700411132004111360001
:1091D400E5E8F0A3E5E9F0AFA875E902E4F5E87580
:1091E400A8809027927483F090279EE0C2AF9027C6
:1091F40093E0E4F583D2AF2290279F7444F0902744
:1092040092E0547FF0E4901132F022120ACC8E8264
:109214007583001206AC902790F0E4F583D2AF2258
:109224009027927480F022E0547F25E0902791F0FB
:1092340022FEE4901137F0902792E022900D06E090
:1092440004F0E0C3942022EFF0A3EDF0A3120AECA3
:10925400E422E004F0901132E02212C62490279216
:0A926400E022E0F5E88FA8AF052234
:0BCBC100EF60044399802253997F220B
:10A7B400E59920E704007F1022900D01E0FEC39488
:10A7C400125004007F1122EF6041A2AFE433FFC2B4
:10A7D400AF902794EEF090279674FFF0902795E4BD
:10A7E400F0902793E090279EE0EB90279230E005CD
:10A7F40074A3F080037483F053F9FDED600343F90F
:10A804000243E902EF24FF92AF800653E9FD12925E
:04A81400247F00227B
:10C62400E4901130F0A3F0901130E475F00112079A
:0EC63400CC901130E07004A3E0640A70EA229A
:10874E009010F112924B9010F9F0E59920E7040089
:10875E007F10229010F6E0FE70028006EED3940F8A
:10876E004004007F1122E4FFFE12BFD99010F712D1
:10877E0091D49010F112922BC2AF9010F2E012929F
:10878E001AFE9010F6E0FDEEC39D500BC2AF901096
:10879E00F312920F0E80EB1291FC9010F6E0240271
:1087AE001292354470F0E4FD9010F9129256600466
:1087BE007D128012901137E06E600B9010F9E0C3BD
:1087CE00944040E47D80ED700612925E54EFF0E42A
:1087DE009010F9F030960320970A9010F9129243F8
:1087EE0040F27D801292249010F8E0F5E99010F797
:0487FE00129266224B
:106B8800900CFE12924B900D06F0E59920E7040058
:106B98007F1022900D03E0FE70028006EED3941061
:106BA8004004007F1122E4FFFE12BFD9900D0412A9
:106BB80091D4900CFE12922BC2AF900CFFE012926F
:106BC8001A900D03E0902797F01291FC7E02129222
:106BD80037447CF0E4FD900D0612925660047D1255
:106BE8008012901137E06E600B900D06E0C3945050
:106BF80040E47D80ED6014E4900D06F030960320AB
:106C0800976B12924040F57D80806212925E54F735
:106C1800F0902791E04401F0E4900D06F0901132D5
:106C2800E0700E900D06E004F0E0C394E040EE7DC5
:106C380080E4FE900D03E0FCEEC39C501EC2AF90B2
:106C48002790E0FC900D00120ACC8E82758300EC30
:106C580012070DE4F583D2AF0E80D8E4900D06F04C
:106C680030960320970712924040F57D80129224B7
:0D6C7800900D05E0F5E9900D0412926622E2
:10896800900D99EF12924F900DA0F0E59920E70431
:10897800007F1022900D9DE0FE70028006EED394D9
:10898800104004007F1122E4FFFE12BFD9900D9E13
:108998001291D4900D9912922BE4FE900D9DE0FD5A
:1089A800EEC39D500BC2AF900D9A12920F0E80EB42
:1089B8001291FC900D9DE0041292354470F0E4FD94
:1089C800900DA012925660047D128012901137E02B
:1089D8006E600B900DA0E0C3944040E47D80ED7084
:1089E8000612925E54EFF0E4900DA0F0309603204A
:1089F800970F900DA0E0FE04F0EEC3941040ED7DBB
:108A080080129224900D9FE0F5E9900D9E129266D7
:018A1800223B
:1078C9009010BEEFF0A3120AECE59920E704007FBF
:1078D9001022E4FFFE12BFD99010C5E5E8F0A3E538
:1078E900E9F0A3E5A8F01291DD9010BEE0547F25E0
:1078F900E04401902791F09010C2E0FFD39410402A
:107909000B9027977410F0EF24F080099010C2E0D3
:10791900902797F0E4901136F01291FC901136E01F
:107929009010C8F0E4901137F09010BF120ACC9073
:107939001133120AEC902792E04474F0E49010C3DA
:10794900F0901132E060FAE49010C4F0902797E0CB
:10795900FF9010C4E0FEC39F502DC2AF902790E066
:10796900FFEEFD9010C8E02DFDE433FC9010BF122E
:107979000ACC8D828C83EF12070DE4F583D2AF9088
:1079890010C4E004F080C53096FD3097FA129224B5
:107999009010C6E0F5E99010C5E0F5E89010C7E051
:0879A900F5A89010C3E0FF22D5
:10B32A0015660AB30AB2055906B4035A035C01AE9C
:10B33A0001C200E10104008201D200E90112008980
:10B34A0000B20059008A0045008A0045008A00457B
:10B35A00023001180118008C0096004B00460023A9
:08B36A00003C001E003C001E27
:1021490041109700411096034110950041109400E9
:04215900411093009E
:10AF540075F002120AC0E493FF74019390108BCF32
:10AF6400F0A3EFF0E4A3F0A3F0229022007438F0F1
:10AF7400901096E025E025E02290108BE0FEA3E0FF
:10AF8400FFC390108EE09F90108DE09E2290108D54
:0EAF9400E475F0010207CC9022007434F02224
:0ECAEF00EF30E0047F018002E4FF127D3D2263
:07CCC000902200741CF02219
:108EC300900D28EEF0A3EFF0A3EDF0600B90278355
:108ED300E4F09022D07488F0A2AFE433900D2BF02D
:108EE300C2AF90228DE0900D2CF07F1112CC8990AF
:108EF3002200742CF07F13E4901089F0A3F0900DFE
:108F030028E0FCA3E0FDC390108AE09D901089E067
:108F13009C502190228DE020E612A3E05407FE70BE
:108F230003FF8010EEB404047F12800890108912AE
:108F3300AF9480CA90228F74FFF0900D2CE09022A2
:108F43008DF0900D2BE024FF92AF900D2AE0600985
:0E8F5300EF70069022D07484F0EF60010022CF
:10C9C1007F0A12CC89E4FD7F0112C5897F0102CA69
:01C9D1003332
:109BA500900D1CEFF0BF04028009900D1CE0D394CA
:109BB500054004007F182212AF9BE4FF12B2E29029
:109BC5000D1CE0FF12ABC2900D1CE0146016146072
:109BD5001B14602024FE6024240570269022117435
:109BE50009F0801E9022117405F0801690221174E0
:109BF50003F0800E9022117402F0800690221174F9
:109C050010F0902200743CF07F0112B2E2900D1C1E
:089C1500E0901096F07F0022A0
:10B08A0090120BEFF012ABC290120BE0FF14601695
:10B09A0014601B14602024FE60242405702690226C
:10B0AA00117409F0801E9022117405F08016902206
:10B0BA00117403F0800E9022117402F0800690221F
:0CB0CA00117410F0901096EFF07F00223F
:10BAA60090120CEFF07F03129BA590120CE09022EF
:10BAB600246013E04440F0902785E04408F090228B
:10BAC60037E04480F022E0543FF0902785E054F7B9
:09BAD600F0902237E0547FF022C9
:10851B00900D1CEFF0C3940B4006E0D3941A40046B
:10852B00007F172212AF9BE4FF12B2E2900D1CE00A
:10853B00120B7E85720B85760C857A0D857E0E85EA
:10854B00820F858610858A11858E128592138596EA
:10855B0014859A15859E1685A21785A61885AA19C6
:10856B0085AE1A000085BA7F65803A7F6A80367FB8
:10857B006F80327F74802E7F79802A7F7E80267F6A
:10858B008380227F88801E7F8D801A7F9280167F4A
:10859B009780127F9C800E7FA1800A7FA680067F2A
:1085AB00AB80027FB07E09128695900D1DEFF09087
:1085BB000D1DE0600400028537902200743CF07FB3
:0D85CB000112B2E2900D1DE0FF60010022E0
:0FCAD200E4FE902284E0FF70050EEEB4FAF42229
:08CC8900EF541F90228DF022F0
:10C7B900A2AFE433FEC2AFED24FF92F8EF24FF925B
:09C7C900E8AF06EF24FF92AF2255
:10B2E200EF603D90228EE054F7F0E04408F0759153
:10B2F20010A2AFE433FFC2AF902084E4F09020812B
:10B30200F0A3F0EF24FF92AFE4901095F09021901B
:10B31200E04420F0E054DFF0902201E054FEF022FD
:08B32200902201E04401F02239
:06CCDA00EF24FF92AF22DF
:03003E0002760542
:107EEC00902002E4F0902303E0902192F090228005
:107EFC00E05470FF6007641060037F1522901094AB
:107F0C007401F0901097E0547DF0900DD574E1F071
:107F1C0012003E12AF6E242AF582E434B3F583C00E
:107F2C0083C082901209E0D082D08312AF5412AF7A
:107F3C007D5013901097E030E107E4900DD5F08060
:107F4C000512AF9180E8900DD5E0B4E10F12AF9B14
:107F5C00902002E4F0901094F07FE122E4901094D1
:107F6C00F0900DD5F0902301E030E539900DD574EB
:107F7C00E9F012AF742442F582E434B3F583C08384
:107F8C00C082901209E0D082D08312AF5412AF7D20
:107F9C005013901097E030E707E4900DD5F0800572
:107FAC0012AF9180E8902002E4F0900DD5E0FF2212
:10926E00901094E060030293059023807405F0A3A0
:10927E007402F0EF6004E04410F0902382E4F0A357
:10928E00EDF090222CE0900E11F090222CE0442074
:10929E00F09020027480F0902280E054706004649C
:1092AE0010704712AF6E245AF582E434B3F583C0C2
:1092BE0083C082901209E0D082D08375F002120A28
:1092CE00C0E493FF74019390108F12AF6390108FD0
:1092DE00E0FEA3E0FFC3901092E09F901091E09EFD
:1092EE00500512AF9480E612AF9B902002E4F090EE
:0892FE000E11E090222CF02279
:10C58900EDD394024004007F1122EF6009ED4410BD
:0FC5990090222CF0800690222C7430F07F00222C
:06CCE00090222DEFF0226E
:10CA3300EF90227E6005E04408F022E054F7F022F4
:10992C009011FBEFF0D394034004007F11229011AF
:10993C00FBE0FE700A901093E07004007F1622E4A6
:10994C009011FCF0EEB4010D12CCC07F011299AA5B
:10995C007401F080439011FBE0B4020D12CCC07F77
:10996C00021299AA7402F0802F9011FBE0B403103C
:10997C0012CCC07F0312A3AC9010937403F0801828
:10998C00E4FF12A3ACE4FD7F107E27128EC390116E
:10999C00FCEFF0E4901093F09011FCE0FF2212A386
:0599AC00AC90109322B5
:10CA4300EFD394164004007F1122125DED7F002284
:10CA5300EF6009AF0512C94F439EC022539E3F2288
:0ECAFD00EF600712CCB1439CC022539C3F2235
:10BADF00902281E0541FD39402402D9022BDE0208C
:10BAEF00E0267F019022B0E04401F0E4FDFC9022BB
:10BAFF00BDE030E004E4FF800B0DBD00010CBC0382
:09BB0F00EDBDE8EAEF70DD222231
:08215D004111FE004111FD00DB
:106F74009022EDE06580FF9022F0E05FFF9022EE2A
:106F8400E06590FE9022F1E05EFE9022EFE065B0B5
:106F9400FC9022F2E05CFC9022F0E022E5E8F0AD07
:106FA4009AA9E9759A07E4F5E8F5E99022E1746E87
:106FB400F09022E6E054FBF0E054E7F022E0902267
:106FC400E5F09022E27490F0D2D875E88075A8803C
:106FD40022E0FEEFF4FCEE5CF022EEF0A3EFF0A36F
:106FE400EDF0A3EBF09022F0E055B9FFE06F22E062
:106FF400FAA3E0FBEA9022E3F0A3EBF022E5A8F089
:10700400E4F5A89022EBE0229022F1E055BAFFE0EB
:107014006F229022F2E055BCFFE06F22EF4404FFA0
:107024009022EBE054E7F022AF058F9AD2D8538F29
:10703400BF22E0FEEFF4FFEE5FF022FFE0540333E3
:10704400333354F8FEEF4E22EF9022E0F0E4F59A49
:1070540022E0F5E8AF018FE92254012FFFE0FDA8FB
:03706400060822F9
:10B3BA00ED24FF92FCEF6033EB4A700A901196E09D
:10B3CA007004007F11229022E1746EF0126FF890DF
:10B3DA001196E09022E5F0A3E054E7F0E04480F013
:10B3EA00D2EC9022E0E04420F08009C2EC9022E006
:07B3FA00E054DFF07F0022A8
:10BF2200900D1CEFF020E0069022E07498F090272C
:10BF320083E4F012CCC0902780E4F0A3F0900D1CB3
:0EBF4200E030E007902203E0547FF07F002201
:10C24C009022E074D8F090278074F6F0A37423F059
:10C25C0012C266EF600312C2662212CCC0E4FD7FEC
:07C26C00107E27128EC32291
:109D83009011E4EFF0A3EDF0A3EBF0E4FFFE9011EC
:109D9300E4E0FDA806088002C313D8FC9011E51285
:109DA300705D8002C313D8FC9011E612705D8002CF
:109DB300C313D8FC54012FFF0EEEB407D1EFC394A5
:109DC300024004007F1122E4FFFE12BFD9AFA8AE08
:109DD300E8ADE99011E4E0547FF5A8A3E0F5E8A32A
:109DE300E0F5E943A8807587010000E4F5A88DE953
:069DF3008EE88FA8FF229C
:105CD300900D1C126FDE6002800C12700C6002804B
:105CE300051270166004007F1522900D1FE0D394F7
:105CF300034004007F112212CCC0E4900D26F0FF74
:105D0300FE12BFD9900D21127001900D27F0902241
:105D1300E1E0900D25F09022E0E0900D24F0902238
:105D2300E6E0900D23F0900D22126FA0900D20E07D
:105D3300FC9022E630E706E0547FF08004E04480E4
:105D4300F09022E6C083C082E0900D1F12703FD016
:105D530082D083F0900D1C126FF3900D1E126FC151
:105D63007FB9EC30E004EF54DFFF900D20E030E129
:105D73000312702012704CE5D220E5FB126F746F92
:105D8300701DAF06A3E06F7016AF04A3E0B5040F58
:105D930075870200000000000000000000800690EC
:105DA3000D267412F012702C900D22127055900D66
:105DB30024E09022E0F0900D23E09022E6F0900D95
:105DC30025E09022E1F0900D27E09022EBF0900D7A
:105DD30021E0F5A8900D26E0600100E4FD7F107E30
:0A5DE30027128EC3900D26E0FF2268
:10646D009010A7126FDE6002800C12700C6002801B
:10647D00051270166004007F15229010AAE0D394C7
:10648D00034004007F1122E49010B1F07F107E27AD
:10649D0012BFD99010AC1270019010B2F09022E1A1
:1064AD00E09010B0F09022E0E09010AFF09022E676
:1064BD00E09010AEF09010AD126FA09010ABE0FC1C
:1064CD009022E630E706E0547FF08004E04480F04F
:1064DD009022E6C083C082E09010AA12703FD08255
:1064ED00D083F09010A7126FF39010A9126FC17F97
:1064FD00BAEC30E004EF54DFFF9010ABE030E10375
:10650D0012702012704CE5D220E5FB126F746F7083
:10651D001DAF06A3E06F7016AF04A3E0B5040F75B1
:10652D0087020000000000000000000080069010AF
:10653D00B17412F012702C9010AD1270559010AF06
:10654D00E09022E0F09010AEE09022E6F09010B0D6
:10655D00E09022E1F09010B2E09022EBF09010ACC0
:0C656D00E0F5A89010B1E0FF60010022F2
:1077DE00901138EF126FE86002800C12700C60028C
:1077EE0080051270166004007F1522E490113EF0A1
:1077FE007F107E2712BFD990113912700190113F60
:10780E00F09022E1E090113DF09022E0E090113CEA
:10781E00F09022E6E090113BF090113AE5E8F0AFDF
:10782E009A126FA5126FC67E9B901138E030E10759
:10783E00EE4404FE127024EE12704DE5D220E5FBEC
:10784E009022EDE06580FE9022F0E05EFE9022EE4A
:10785E00E06590FD9022F1E05DFD126F8E6E701D61
:10786E00AE05A3E06E7016AE04A3E0B5040F7587E7
:10787E000200000000000000000000800690113E93
:10788E007412F012702E90113A12705590113CE055
:10789E009022E0F090113BE09022E6F090113DE056
:1078AE009022E1F090113FE09022EBF0901139E040
:0B78BE00F5A890113EE0FF60010022E1
:10B40100EFD394074004007F16227401A807088037
:10B4110002C333D8FCFF9022EAE04FF0EB9022ED1B
:10B42100600BE04FF09022E7126FD58009126FD5C3
:10B431009022E7E04FF0ED9022F06005E04FF080C0
:07B44100031270367F0022A8
:10B44800EFD394074004007F16227401A8070880F0
:10B4580002C333D8FCFF9022EBE04FF0EB9022EED2
:10B46800600BE04FF09022E8126FD58009126FD57B
:10B478009022E8E04FF0ED9022F16005E04FF08077
:07B48800031270367F002261
:10B48F00EFD394074004007F16227401A8070880A9
:10B49F0002C333D8FCFF9022ECE04FF0EB9022EF89
:10B4AF00600BE04FF09022E9126FD58009126FD533
:10B4BF009022E9E04FF0ED9022F26005E04FF0802E
:07B4CF00031270367F00221A
:10981C00EFF07F807E387D017C00A3120A53D302C7
:10982C0009ECE0FCE4120336E4FBFA79C878420256
:10983C00028F120A537F007E127D7A7C0002093F50
:10984C00E47F7BFEFDFC120A53C30209EC12018675
:10985C0012036AAB07AA06EB4A22ECF0A3EDF0A9BF
:10986C0007E59A22E0FCA3E0FDE4020331C3EB948C
:10987C0020EA940322AD03EDF0EAFF22FFE0FCA303
:10988C00E0FD22AD03EDF0EAFF22E47F7BFEFDFC60
:08989C0022FFE0FCA3E0FD2225
:05C697007481F07F0139
:10C69C00ED600543F908800353F9F7EF600443E9B3
:06C6AC00082253E9F72209
:0BCBCC00EF6004439A0822539AF722FE
:10A47F0090115712986620E304007F1222C39011A7
:10A48F0058E09B901157E09A5004007F11229025BD
:10A49F00867420F0E96039901157E0FEA3E0902513
:10A4AF0083F0EEF9902582F0902585129881902502
:10A4BF0084F09025867409F0902583EDF090258225
:10A4CF00EFF0901157A3E0902585F0902584E9F0E7
:07A4DF00E490115BF0FF2285
:10B7F100E59A20E304007F12221298795004007F19
:10B8010011229025867420F0EF601E902583EBF0C5
:10B81100EA902582F0A3E0902585F0902582E090C2
:10B821002584F090258612C697E490119BF0FF22A3
:10A18D009010FA12981C501A9010FB12984C500215
:10A19D0080109010FFE0FFD394635006EFC394013D
:10A1AD005004007F11229010FB12983E901101EE89
:10A1BD00F0A3EFF09010FF12982EC004C005C0065A
:10A1CD00C007901101129870D003D002D001D000B9
:10A1DD001298597003FA7B019010FAE09011011258
:0EA1ED009888901100E090115BF012A47F2280
:0BCBD700EF6004439A1022539AEF22F3
:10A4E60090115D12986620E404007F1322C3901138
:10A4F6005EE09B90115DE09A5004007F112290254A
:10A506008E7420F0E9603990115DE0FEA3E090259D
:10A516008BF0EEF990258AF090258D129881902582
:10A526008CF090258E7409F090258BEDF090258A9D
:10A53600EFF090115DA3E090258DF090258CE9F069
:07A54600E4901161F0FF2217
:10B83100E59A20E404007F13221298795004007FD6
:10B84100112290258E7420F0EF601E90258BEBF075
:10B85100EA90258AF0A3E090258DF090258AE0906A
:10B86100258CF090258E12C697E49011A0F0FF224E
:10A1FB0090110312981C501A90110412984C500293
:10A20B008010901108E0FFD394635006EFC39401C4
:10A21B005004007F112290110412983E90110AEE07
:10A22B00F0A3EFF090110812982EC004C005C006E1
:10A23B00C00790110A129870D003D002D001D00041
:10A24B001298597003FA7B01901103E090110A12D6
:0EA25B009888901109E0901161F012A4E6229B
:0BCBE200EF6004439A2022539ADF22E8
:10A54D0090116312986620E504007F1422C39011C8
:10A55D0064E09B901163E09A5004007F11229025D6
:10A56D00967420F0E96039901163E0FEA3E0902528
:10A57D0093F0EEF9902592F090259512988F9025F5
:10A58D0094F09025967409F0902593EDF090259216
:10A59D00EFF0901163A3E0902595F0902594E9F0EC
:07A5AD00E4901167F0FF22AA
:10B87100E59A20E504007F14221298795004007F94
:10B8810011229025967420F0EF601E902593EBF025
:10B89100EA902592F0A3E0902595F0902592E09012
:10B8A1002594F090259612C697E49011A5F0FF22F9
:109FCB0090110C12981C501D12989690110D12980E
:109FDB005250028010901111E0FFD394635006EFA2
:109FEB00C394015004007F112290110D12983E90E2
:109FFB001113EEF0A3EFF090111112982EC004C0C4
:10A00B0005C006C007901113129870D003D002D070
:10A01B0001D0001298597003FA7B0190110CE0905B
:10A02B00111312989D901112E0901167F012A54D2B
:01A03B002202
:0BCBED00EF6004439A4022539ABF22DD
:10A5B40090116912986620E604007F1522C3901159
:10A5C4006AE09B901169E09A5004007F1122902563
:10A5D4009E7420F0E96039901169E0FEA3E09025B3
:10A5E4009BF0EEF990259AF090259D12988F902576
:10A5F4009CF090259E7409F090259BEDF090259A8F
:10A60400EFF0901169A3E090259DF090259CE9F06E
:07A61400E490116DF0FF223C
:10B8B100E59A20E604007F15221298795004007F52
:10B8C100112290259E7420F0EF601E90259BEBF0D5
:10B8D100EA90259AF0A3E090259DF090259AE090BA
:10B8E100259CF090259E12C697E49011AAF0FF22A4
:10A03C0090111512981C501D12989690111612988A
:10A04C00525002801090111AE0FFD394635006EF27
:10A05C00C394015004007F112290111612983E9067
:10A06C00111CEEF0A3EFF090111A12982EC004C040
:10A07C0005C006C00790111C129870D003D002D0F6
:10A08C0001D0001298597003FA7B01901115E090E1
:10A09C00111C12989D90111BE090116DF012A5B43B
:01A0AC002291
:0BCBF800EF6004439A8022539A7F22D2
:10A3420090116F12986620E704007F1622C39011C5
:10A3520070E09B90116FE09A5004007F11229025CB
:10A36200A67420F0E9603C90116FE0FEA3E0902516
:10A37200A3F0EEF99025A2F0AD039025A5EDF0EA49
:10A38200FF9025A4F09025A67409F09025A3EDF086
:10A392009025A2EFF090116FA3E09025A5F09025F3
:0AA3A200A4E9F0E4901173F0FF222B
:10B8F100E59A20E704007F16221298795004007F10
:10B9010011229025A67420F0EF601E9025A3EBF084
:10B91100EA9025A2F0A3E09025A5F09025A2E09061
:10B9210025A4F09025A612C697E49011AFF0FF224E
:109E6F0090111E12981C501D12989690111F129847
:109E7F005250028010901123E0FFD394635006EFED
:109E8F00C394015004007F112290111F12983E902D
:109E9F001125EEF0A3EFF090112312982EC004C0FD
:109EAF0005C006C007901125129870D003D002D0BC
:109EBF0001D0001298597003FA7B0190111EE0FF38
:109ECF00901125E0FCA3E0FD901124E0901173F0B8
:049EDF0012A3422266
:042165004111B40070
:1076F200E0FFE4FCFDFE1209D19011C1120A5F9075
:1077020011C1120A477808120A109011C1120A5FB9
:107712009011C122E0FFE4FCFDFE1209D19011C5D7
:10772200120A5F9011C5120A477808120A109011C6
:10773200C5120A5F9011C522EFF0900DDC120A47C4
:1077420078081209FD900DDC120A5F900DDC020A26
:1077520047EFF0900D52120A4778081209FD900D7A
:1077620052120A5F900D52020A47902780E054FE9F
:10777200F022AC02AD017B107A007E21227F04123E
:10778200BEC490219F7401F022E4F0902780E02291
:10779200E0FFE4FCFDFE22AC02AD01E0FB7A002238
:1077A200120AECAE02AF01C3EE942322AC02AD0189
:1077B2007B087A007E2122AE02AF017B087A007C30
:1077C2002122120A5FE4FB902780E022900DD8026A
:0C77D2000ACCE04404F090219FE4F02277
:10C37F00900CFE12778B20E00AE04401F0900CFE47
:10C38F007401F07F0012777412A269900CFEE060C6
:05C39F000312776C227F
:10C3A40090120D12778B20E00AE04401F090120DF8
:10C3B4007401F07F3012777412A26990120DE0605C
:05C3C4000312776C225A
:10C6B200E4FE902780E020E006E04401F07E019055
:0BC6C2002140EFF0EE600312776C22C5
:10BE6600900DDC1277C420E005E04401F00B127758
:10BE76004D90214112773A90214212773A90214310
:0FBE860012773A902144EFF0EB600312776C22B1
:10C18400E4900CFEF0902780E020E00AE04401F007
:10C19400900CFE7401F07F451277AE12A269900CE8
:08C1A400FEE0600312776C223B
:10C6CD00E4FE902780E020E006E04401F07E01903A
:0BC6DD002110EFF0EE600312776C22DA
:10BE9500900D521277C420E005E04401F00B1277B3
:10BEA5006690211112775390211212775390211326
:0FBEB500127753902114EFF0EB600312776C2299
:10C1AC00E4900CFEF0902780E020E00AE04401F0DF
:10C1BC00900CFE7401F07F151277AE12A269900CF0
:08C1CC00FEE0600312776C2213
:06CCE600902140E0FF2256
:10BF50009021441277921276FB120A5390214312D9
:10BF600076F2120A539021421276F2120A5390216D
:0EBF7000411277921209D112770C120A472261
:08CC91007D451277B902A2698A
:06CCEC00902110E0FF2280
:10BF7E0090211412779212771F120A5390211312E6
:10BF8E007716120A53902112127716120A53902125
:0EBF9E00111277921209D1127730120A47223F
:08CC99007D151277B902A269B2
:08CCA100EF547F902194F02272
:08CCA900EF547F902195F02269
:10CA6300EF9021936005E04440F022E054BFF022B0
:10CA7300EF9021936005E04420F022E054DFF022A0
:10BEC400EF7002800CEFD3941040028004EF30E056
:10BED40004007F1A22EFC31314FF902193E054E36C
:0FBEE400F0E0FEEF25E025E0FFEE4FF07F0022BB
:09C2E700902780E04401F07F0380
:10C2F000EFD394034004007F1122902193E054FC7B
:0DC30000F0E0FEEF5403FFEE4FF07F00224F
:10698C00900DD2EDF0900DCF1277A2400DD3EF9475
:10699C00FFEE94245004007F18221277CEE41206E6
:1069AC00FB900DD2E0FED394794004007F1622EECA
:1069BC00B40104007F172212C2E7900DD3120A47CC
:1069CC0012BE66900DD7E0FF12C6B2E4FF12CCA146
:1069DC0012777F900DD2E02402902300F0900DCF1F
:1069EC00120ACC900DD21277997F017E2312A269E4
:1069FC00902007E4F0900DD2E02402902008F09053
:106A0C000DDB7412F0902180E054FBF09020031207
:106A1C0077D49011B0F0A3F0902180E030E207E43D
:106A2C00900DDBF080169011B0E475F0011207CCDC
:106A3C009011B0E0B402E1A3E0B458DC900DDBE0BF
:106A4C007030900DD2E02404FF1277CEEF1206FBCB
:106A5C00127784900DCF120ACCAE02AF011277CE12
:106A6C00120693FB7A007D017C2312A26990219F70
:0E6A7C00E4F012776C900DDBE0FF6001002269
:105F0700900D48EDF0900D451277A2400DD3EF9418
:105F1700FFEE94245004007F1822900D4E120ACCF5
:105F2700E41206FB900D48E0FFD3947D5006EFC3C3
:105F370094045004007F162212C2E7900D49120AFA
:105F47004712BE95900D4DE0FF12C6CDE4FF12CC6F
:105F5700A912777F900D48E02402902400F0900D5D
:105F670045120ACC900D481277997F017E2412A220
:105F770069902087E4F0900D48E02402902088F093
:105F8700900D517413F0902180E054FDF090208320
:105F97001277D49011B2F0A3F0902180E030E1079E
:105FA700E4900D51F080169011B2E475F0011207DC
:105FB700CC9011B2E0B402E1A3E0B458DC900D51EB
:105FC700E0704990219F04F0900D45120ACCAE0273
:105FD700AF01900D48E0FB7A007D017C2412A26995
:105FE700900D48E0FFE42FF582E43424F583E07058
:105FF70010EF24FCFF900D4E120ACCEF1206FB8027
:1060070006900D517414F090219FE4F012776C9074
:086017000D51E0FF60010022C1
:10216900410F2900420F270000420F6B0000410F69
:022179002655E9
:10C4C400120ACC8F827583001206AC902542F0E4E8
:10C4D400F583D2AF22902540E054BFF0E04440F011
:02C4E400E42250
:0BCC0300EF60044398802253987F22CA
:0ECB0B00439810D2B7E4FB7D017F070282E25F
:07CB4100E4900F29F07F01D1
:06CB4800EF24FF92B7226A
:10733D00901176EBF0AA07E59820E704007F102264
:10734D00901177E0FED394094004007F1122EE24C2
:10735D00FE601314601824FA601C2408702090112C
:10736D00787405F080209011787403F080189011D6
:10737D00787404F08010901178740BF080089011DF
:10738D0077E02402A3F0902540E4F0902543F0909F
:10739D002540C083C082E0FF901178E0FE5403FCCD
:1073AD00EF4CD082D083F0902543E0FFEE540C13C8
:1073BD0013543FFEEF4EF0EA605AA2AFE433901142
:1073CD0079F0C2AFED24FF92FD901176E030E40329
:1073DD0012CB0B902540C083C082E0FF901176E068
:1073ED00FE541CFDEF4DD082D083F0902540E0443B
:1073FD00C0F0D2EDEE20E412E4FF900F26E09025D0
:10740D0042F0E4F5830FEFB410F0901179E024FF12
:0E741D0092AF8007902540E4F0C2ED7F002280
:10C5A800AE07E4FF12CB48C2AF902542EE12C4D2C8
:0FC5B800900F29E060FA12CB41900F6AE0FF224A
:10AEC5009011E7120AECEDD394104004007F112293
:10AED500E4900F29F0FF12CB48EFC39D500BC2AF92
:10AEE5009011E712C4C40F80F0900F29E0B5050357
:0BAEF500D38001C350F312CB411F2299
:10C81D0012C4D9FEC2AF902542EF12C4D20EEEB4AF
:08C82D0010F2900F26EFF0223B
:10BDA5009011EA120AECEDD394104004007F1122A1
:10BDB50012C4D9FFC2AF9011EA12C4C40FEFB41078
:10BDC500F39011EA120ACC120693900F26F07F0029
:01BDD500224B
:10B66D00900F6BA3E0FFC3900F28E09FFFEF543FB7
:10B67D00602C900F6BE0FEA3E0242AF582740F3E40
:10B68D00F583E01206FB900F6CE02401FF900F6B29
:10B69D007E00EF543FFFEEF0A3EFF07F01227F001D
:01B6AD00227A
:1095E7007FF07EFF7D077C00120A53D30209ECADA2
:1095F70007AC06ECF07C00E4120331783FE4FBFA99
:10960700F912009502036AEFF0A3EDF0A3EBF0E582
:109617009822C3E49BFFE49AFE740199FDE498FC49
:10962700020A5FE024FF92AF7F0022E49010D6FE8B
:10963700FDFC020A53AF03E4FCFDFE120A530208C5
:10964700B4E47B03FAF9F8020A47E0FEA3E0FFC39C
:10965700E49FFFE49EFE22900D02020A5FFB120ABE
:109667004778080209FD90112B120A5F90112B22EF
:0BCC0E00EF6004439801225398FE22BF
:10955700900CFE12960E20E004007F1322900D015E
:10956700E0FBD394624004007F1722A2AFE433905C
:109577000D06F0C2AF900D02120A6B000007D090E3
:109587000D0212963C12965E900D02129648120931
:109597003FE4FDFC12965E900D02120A53900D02F5
:1095A700129619900D02120A479011CBEFF0900D09
:1095B700021296649011C9EFF08B8AF58C5389F0EB
:1095C700438901900CFFE024FF92B9A3E024FF92A6
:1095D7008C900CFEE024FF92A9900D0612962A2289
:10B1BA00A907E59820E004007F1322A2AFE43390A8
:10B1CA00117FF0C2AF90117D1296519011CBEFF022
:10B1DA00EEFF9011C9F09011CBE0F58A8F8C53895C
:10B1EA00F0438901ED24FF92B9EB24FF928CE92404
:0AB1FA00FF92A990117F12962A22FD
:0BCC1900EF6004439802225398FD22B4
:1097920090112712960E20E104007F142290112AC4
:1097A200E0FBD394624004007F1822A2AFE433901E
:1097B200112FF0C2AF90112B120A6B000007D0904C
:1097C200112B12963C12966D12964812093FE4FD37
:1097D200FC12966D120A5390112B12961990112BAE
:1097E200120A479011CCEFF090112B12966490114F
:1097F200CAEFF08B8BF58D53890F43891090112896
:10980200E024FF92BBA3E024FF928E901127E02474
:0A981200FF92AB90112F12962A224C
:10B20400A907E59820E104007F1422A2AFE433905B
:10B214001185F0C2AF9011831296519011CCEFF0CA
:10B22400EEFF9011CAF09011CCE0F58B8F8D53890D
:10B234000F438910ED24FF92BBEB24FF928EE92487
:0AB24400FF92AB90118512962A22AA
:0BCC2400EF6004439804225398FB22A9
:107518009010D312960E20E204007F15227F0512E8
:107528009632C31209EC500C9010D61295E740041D
:10753800007F19227FF87EFF7D037C009010D61211
:1075480095EF400E9010DB7440F09010DA7406F05E
:1075580080447FFC7EFF7D017C009010D61295EF61
:10756800400E9010DB7420F09010DA7405F080263D
:10757800E47FFE7EFFFDFC9010D61295EF9010DBA5
:10758800400B7410F09010DA7404F080097408F05D
:107598009010DA7403F07F081296321208B4C0070C
:1075A8009010DBE0FBE4FAF9F8D00712093FE41287
:1075B800032C78BF1296049010DC1295F6A2AFE463
:1075C80033FEC2AF53A9F09010D3E060279010DCCF
:1075D800E0F5AA8FAC9010D4E024FF92F9A3E06004
:1075E8000C9010DAE025E0440142A9800353A9FE7B
:0D75F800D2E98002C2E9AF06EE12962B2206
:0BCC2F00EF6004439808225398F7229E
:106C85009010DD12960E20E304007F1622E47F05A6
:106C95009010E0129636C31209EC500C9010E012D9
:106CA50095E74004007F1A227FF87EFF7D037C0074
:106CB5009010E01295EF400E9010E57440F09010A2
:106CC500E47407F080447FFC7EFF7D017C0090101A
:106CD500E01295EF400E9010E57420F09010E474EA
:106CE50006F08026E47FFE7EFFFDFC9010E0129505
:106CF500EF9010E5400B7410F09010E47405F080EF
:106D0500097408F09010E47404F0E47F08FEFDFCBB
:106D15009010E0129642C0079010E5E0FBE4FAF906
:106D2500F8D00712093FE412032CE4FBFAF978BF07
:106D35001296089010E61295F6A2AFE433FEC2AFA4
:106D450053A90F9010DDE060299010E6E0F5AB8FB8
:106D5500AD9010DEE024FF92FBA3E0600E9010E4FE
:106D6500E0C43354E0441042A9800353A9EFD2EBA9
:0B6D75008002C2EBAF06EE12962B224C
:105BB3000709433B0B0709433B0B0707433B0B0712
:105BC300078B3B0B07078B040B07078B04040707A3
:105BD3008B0404040B048B061705078B0404040DC4
:105BE3008B0404040D000B0B040400008B06170543
:105BF300000006170500000017050000000005005F
:105C0300000000000407000000000700000000007F
:105C13001D0B000001000B0000010000000001004B
:105C2300000000010000000001000000000000006F
:105C33000000000000000000000000000000000061
:105C43000000000000000000000000000000000051
:105C53000000000000000000000000000000000041
:105C63000000000000000000000000000000000031
:105C7300C393C7712FEE93C7712FEE77C7712FEEC2
:105C83007703712FEE7703342FEE7703341AEE7711
:105C930003341A0D658B021703077703341A0D02B9
:105CA30003341A0D02001A0D12090000021703072C
:105CB30000001703070000000307000000000700AF
:105CC30000000000070200000000020000000000C6
:10217B00420E1E0000420E140000420E22000042CE
:10218B000E180000410E1C01420E200000420E16DC
:10219B000000420E240000420E1A0000410E1D01E9
:10880200E4FAF9F8900D00120A4712B562EF24302B
:10881200902510F0900D00020A47E4FAF9F812B51B
:1088220062AC00AD01AE02AF03900D00020A5FFF21
:10883200C3E09FFF7E00EF543FFFAD01ED24FF2216
:10884200FF120ACCEF1206FB901209E0FF900D1600
:10885200E075F006A422F583E5822FF582E43583E4
:10886200F583E49322E433F0C2E8A2ACE43322E4D9
:1088720033F0C2E8A2AEE43322A2AFE433FFC2AFC8
:1088820022C374409FFFE49EFED3EF9403EE940054
:1088920022E4F0A3E0543FF022E01206FBE4F58369
:1088A200EF24FF92AF7F0122120ACC8F82758300E0
:0388B2000206AC0F
:1057EA00900D0C120AECE4900D15F0120BD1585CD6
:1057FA000000012C586300000258586B000004B0E6
:10580A00587300000960587B000012C058830000DA
:10581A002580588B00003840589300004B00589B55
:10582A000000960058A30000DAC058AB0000E1005F
:10583A0058B30001C20058BB0003840058C30007D4
:10584A00080058CB0008CA0058D300119400000081
:10585A0058DBE4900D16F0807E900D167401F080EE
:10586A0076900D167402F0806E900D167403F08017
:10587A0066900D167404F0805E900D167405F08023
:10588A0056900D167406F0804E900D167407F0802F
:10589A0046900D167408F0803E900D167409F0803B
:1058AA0036900D16740AF0802E900D16740BF08047
:1058BA0026900D16740CF0801E900D16740DF08053
:1058CA0016900D16740EF0800E900D16740FF0805F
:1058DA0006900D157412F0900D15E0704912884A61
:1058EA0024B3F582E4345B128858900D0C12884276
:1058FA002413F582E4345C128858900D0F12884202
:10590A002473F582E4345C128858FF900D12120A4F
:10591A00CCEF1206FB900D12120ACC1206937006F7
:0C592A00900D157412F0900D15E0FF2296
:0BCC3A00EF6004439820225398DF2293
:107FBC009010E7EFF0A3EDF0E59820E504007F10BA
:107FCC0022E4FF9010E7E060239010E9120A477B4F
:107FDC00017A1079EE900D0F120AEC7A1009900DBF
:107FEC0012120AEC7A10091257EA800BE49010F086
:107FFC00F09010EEF0A3F0EF6002002212887B905C
:10800C002505E4F09025037480F09010EFE09025A6
:10801C0000F09010EEE0902501F09010F0E090252B
:10802C0007F0902503E4F0902507F09010E7E0604E
:10803C00389025027481F09010EDE0FE543F9025AD
:10804C0003F0902501E4F0EE20E604E04401F0900A
:10805C0010EDE020E707902501E04402F0D2AC904F
:10806C0010E8E024FF92BC8009902501E4F0C2AC3A
:0A807C00C2BCEF24FF92AF7F002288
:10C50700A2E890120E128867F9C2AC900E14A3E04D
:10C51700900E1F12883192AC90120EE024FF92E821
:01C5270022F1
:10C52800A2E8900DC8128867F9C2AC900E18A3E073
:10C53800900E2312883192AC900DC8E024FF92E847
:01C5480022D0
:10AB6A00AC0712C52812888340F8A2E8E433FF1222
:10AB7A00886AFEC2AC900E1CE06010E4F0C2AF908E
:10AB8A002500ECF0E4F583D2AF8022900E22E0FAA1
:10AB9A00A3E024A6F582740E3AF583ECF0900E2217
:10ABAA00E475F0011207CC900E22128893EE24FF6E
:08ABBA0092ACEF24FF92E822A7
:10AE20009011CD120AEC12C507EF4E7002FF22A25C
:10AE3000E8E4339011D0128869FFC2AC900E14E49C
:10AE400075F0011207E2FC742625F0F582740E3CC1
:10AE5000F583E0FE9011CD120ACCEE1206FB900EA7
:10AE600014128893EF24FF92AC9011D0E024FF924B
:04AE7000E87F012254
:10C96300E4FF900E1CE070010F902505E020E50226
:03C973007F01221F
:10B0D600900DC8120AEC902501E030E1037F13229F
:10B0E600EDD3941040037F1422902505E030E5F956
:10B0F600E4FFEFC39D5022A2AFE433900DCBF0C224
:10B10600AF900DC81288AA902500F0E4F583900D43
:0CB11600CBE024FF92AF0F80D97F002215
:10C91300902505E030E00A12887B90250012889B61
:04C92300227F00224D
:0BCC4500EF6004439840225398BF2288
:10808600900CFEEFF0A3EDF0E59820E604007F10DB
:1080960022E4FF900CFEE06023900D00120A477B5D
:1080A600017A0D7905900D0F120AEC7A0D09900DE3
:1080B60012120AEC7A0D091257EA800BE4900D07AA
:1080C600F0900D05F0A3F0EF6002002212887B907D
:1080D6002515E4F09025137480F0900D06E09025A8
:1080E60010F0900D05E0902511F0900D07E0902519
:1080F60017F0902513E4F0902517F0900CFEE06041
:10810600389025127481F0900D04E0FE543F9025BE
:1081160013F0902511E4F0EE20E604E04401F0901F
:108126000D04E020E707902511E04402F0D2AE905E
:108136000CFFE024FF92BE8009902511E4F0C2AE48
:0A814600C2BEEF24FF92AF7F0022BB
:10C43800A2E8900D45128871F9C2AE900E16A3E0DD
:10C44800FFC3900E2112883392AE900D45E024FF71
:03C4580092E82245
:10C45B00A2E8900DC8128871F9C2AE900E1AA3E033
:10C46B00FFC3900E2512883392AE900DC8E024FFC7
:03C47B0092E82222
:10AB1100AC0712C45B12888340F8A2E8E433FF1249
:10AB21008874FEC2AE900E1DE06010E4F0C2AF90DA
:10AB31002510ECF0E4F583D2AF8023900E24E0FAE7
:10AB4100A3E024E6F582740E3AF583ECF0900E242E
:10AB5100E475F0011207CCE4900E24128894EE24DF
:09AB6100FF92AEEF24FF92E822FE
:10AD7600900D41120AEC12C438EF4E7002FF22A267
:10AD8600E8E433900D44128873FFC2AE900E16E4C9
:10AD960075F0011207E2FC746625F0F582740E3C2C
:10ADA600F583E0FE900D41120ACCEE1206FBE4900C
:10ADB6000E16128894EF24FF92AE900D44E024FF05
:05ADC60092E87F01226C
:10C97600E4FF900E1DE070010F902515E020E50202
:03C986007F01220C
:10B12200900DC8120AEC902511E030E1037F132242
:10B13200EDD3941040037F1422902515E030E5F9F9
:10B14200E4FFEFC39D5022A2AFE433900DCBF0C2D7
:10B15200AF900DC81288AA902510F0E4F583900DE7
:0CB16200CBE024FF92AF0F80D97F0022C9
:10C92700902515E030E00A12887B90251012889B2D
:04C93700227F002239
:108F610012882B128816EC3350181288161209DE5B
:108F710012882B902510742DF0902515E020E5081E
:108F810080F79025107420F0E47B107A2712880472
:108F9100E47B107A2712881E902515E030E5F9E46C
:108FA1007BE87A03128804E47BE87A0312881E9036
:108FB1002515E030E5F97B641288027B6412881C78
:108FC100902515E030E5F97B0A1288027B0A1288A8
:108FD1001C902515E030E5F9128816EF2430902514
:108FE10010F0902515E030E5F99025107420F090EF
:0D8FF1002515E030E5F9E47F01FEFDFC22CE
:09CC7800C2AF75D25575D2AA2293
:0BCC5000EF6004439201225392FE2289
:10BB1800E59220E004007F1022EDD3940F4004004A
:10BB28007F1122A2AFE433FEC2AFEF600C12CC7AD1
:10BB3800ED540F4440F5D2800612CC7A75D280AF0E
:09BB480006EE24FF92AF7F0022FB
:10C1D40090FFFF120C0BA2AFE433850D83850E8212
:10C1E400F012CC7843D240850D83850E82E024FF83
:08C1F40092AF900001020C0B58
:10BFD900A2AFE433FCC2AFEF4E600E9011FFEEF05A
:10BFE900A3EFF07D0F7F018009E49011FFF0A3F02A
:0DBFF900FDFF12BB18AF04EC24FF92AF2235
:10C86500EFD3940F4004007F112212CC78EF540FC0
:07C87500F5D243920180FEA1
:10B6AE00900D41120AEC7F007E10E4900D44F0FDE7
:10B6BE00EF2DF582E43EF583E493FC900D44E02CEF
:10B6CE00F0900D41120ACC8D82758300EC12070D9D
:10B6DE000DEDB440DB900D44E070037F01227F003E
:01B6EE002239
:0421AB0041120F00CE
:10C93B00F0C2AF9027A6E04480F0E4F583D2AF902D
:04C94B00120FF022B5
:0BCC5B00EF6004439940225399BF2270
:109A3300E59920E604007F1022E490120FF09027AE
:109A4300AA04F09027A974A5F0EB600D9027ACE46D
:109A5300F09027AB748CF080109027AAE09027AC8D
:109A6300F09027A9E09027ABF09027B2E4F090277D
:109A7300B17464F09027AF745AF0A374B4F09027D4
:109A8300ADF0A3745AF09011D4E09027A2F0902780
:109A9300A6742FF0ED600543F901800353F9FEEF3F
:0D9AA300600543E901800353E9FE7F0022C6
:10BBC200E59920E604007F10229027A4EFF0902749
:10BBD200A77408F0A3742912C93B7F12FDFC9012CE
:10BBE2000FE06004E4FF800B0DBD00010CBC75EE9C
:08BBF200BD30EBEF6001002201
:10BD7300E59920E604007F10229027A77406F0A31C
:10BD83000412C93B7F11FDFC90120FE06004E4FF35
:10BD9300800B0DBD00010CBC75EEBD30EBEF6001F7
:02BDA30000227C
:10BDD6000A0D2045564B203A204C49422056322E19
:10BDE6003500000000000000000000000000000018
:10BDF600000000000000000000000000000000003D
:108FFE00A37429F004F004F07429F004F004F07462
:10900E0029F004F004F022900D1F7412F0A37403E3
:10901E00F0A32274039022CFF09022CE22900D1F47
:10902E007413F0E4A3F0A322F0A3F0A3F0A3F0A333
:10903E00F0A3F022900D1F7413F0A37401F0A3227D
:10904E0074029022CFF09022CE22F09022497463C7
:10905E00F0A37455F0229022B0E04401F0E4FEFF3C
:10906E0022F07464A3F0A37404F02274C0F0A3740D
:10907E0070F090223C7490F02224A69022BFF090C3
:0D908E0022BEE4F022A3F0A37450F0A32250
:109AB000EFD394054025902232743AF0A37434F029
:109AC0009022381290799022427411F090224574BD
:109AD0001E12905890224D7426804C902232744A67
:109AE000F0A37416F090224214F09022457423F0F3
:109AF000EFC39405902238401A129079902249744D
:109B000021F0A304F090224D04F0A37499F0A37403
:109B100007F0227450F0A374B0F090223C745012FD
:0B9B2000905890224D741212906F229A
:107D3D0090278074F6F0A37423F09022B07440F075
:107D4D009022C67480F09022C274B0F0902211740B
:107D5D0002F090220C7405F09022207480F0A3E4C0
:107D6D00F0A37485F09022B97402F0A37463F090BF
:107D7D0022B774CFF0A3E4F09022C8745FF0A3741F
:107D8D0009F0EF30E0047E0E80027EA29022CAEE52
:107D9D00F07408129072A3E4F0740B129023740F18
:107DAD00F0902230744AF0902232F0A37416F0EF66
:107DBD0030E0047E4B80027E4D902235EEF0EF30A8
:107DCD00E0047FC680027FCD902236EFF0745C1206
:107DDD00909374B0F090223B7450F0A3F090224039
:107DED007420F0A3F0A37415F0A37410F0A3F0A306
:107DFD007423129058A374E1F090224D74121290D6
:0E7E0D006F90221D7485F09022E1746EF022B9
:10ABC200AE07EE6003B4010790222174018010EEFB
:10ABD200902221B40208E4F0A374E5F08006E4F0C8
:10ABE200A37485F0AF06129AB0EED39405400D908F
:10ABF20022197410F09022CA74D5F022EEC3940583
:10AC0200902219400A7410F09022CA74AAF022E429
:08AC1200F09022CA74A2F022A6
:10569000E4900D1EF0EF8EF0120BA456DF09655654
:1056A000E8096A56F1096F56FA09745703097957E0
:1056B0000C097E57150983571E09885727098D57EE
:1056C0002F099257370997573F099C574709A15708
:1056D0004F09A6575709AB575F09B000005767122B
:1056E00090157428F002576D1290157450F00257FF
:1056F0006D1290157478F002576D12901574A0F029
:1057000002576D12901574C8F002576D12901574FF
:10571000F0F002576D12902B7418F002576D129032
:105720002B7440F002576D12902B7468F0803E127B
:10573000902B7490F0803612902B74B8F0802E125B
:10574000902B74E0F080261290427408F0801E12B4
:1057500090427430F080161290427458F0800E120D
:1057600090427480F08006900D1E7417F0900D1E0C
:10577000E0FF6001229022BE74C0F09022B4740158
:10578000F0900D1FE09022B1F0900D20E09022B239
:10579000F0900D21E09022B3F09022B0E04401F0AF
:1057A000900D1E7414F0E4FFFE9022BDE030E0077F
:1057B000E4900D1EF0800B0FBF00010EBE27EABF64
:1057C00010E7900D1EE0601C1290649022BDE03046
:1057D000E007E4900D1EF0800B0FBF00010EBE2706
:0957E000EABF10E7900D1EE0FF86
:0157E900229D
:085A77009011EDEEF0A3EFF039
:105A7F00C3945AEE940940109011EDE0FCA3E0FDA1
:105A8F00D394CBEC940940037F11229011EF74173C
:105A9F00F0ED8CF0120BA45AEA09655AEC096A5A18
:105AAF00F3096F5AFA09745B0109795B08097E5B88
:105ABF000F09835B1609885B1D098D5B2409925BB7
:105ACF002B09975B32099C5B3909A15B4009A65BE7
:105ADF004709AB5B4709B000005B5280009022C2C0
:105AEF0074D280599022C274D180529022C274D144
:105AFF00804B9022C274D180449022C274D0803DDA
:105B0F009022C274D080369022C274D0802F9022FF
:105B1F00C274D080289022C274CF80219022C27488
:105B2F00CF801A9022C274CE80139022C274CE807E
:105B3F000C9022C274CE80059022C274CDF0E490F6
:105B4F0011EFF09011EFE0FF6001229022B0E044DE
:105B5F0002F09011EDA3E01290879011EF7414F002
:105B6F00E4FFFE9022BDE030E007E49011EFF080FB
:105B7F000B0FBF00010EBE27EABF10E79011EFE039
:105B8F00601C1290649022BDE030E007E49011EFAA
:105B9F00F0800B0FBF00010EBE27EABF10E7901178
:035BAF00EFE0FF25
:015BB20022D0
:10869500C3EF9465EE94094009D3EF94B0EE9409C5
:1086A50040037F1122C3EF94B0EE94094005902258
:1086B500C28033C3EF949CEE940940089022C274A3
:1086C500B3F08025C3EF947EEE940940089022C252
:1086D50074B4F08014C3EF9465EE94099022C240FF
:1086E5000574B5F0800374B2F0D3EF947EEE94096F
:1086F5009022B950057422F080037402F09022B0E4
:10870500E04402F0EF1290877D14FFFE9022BDE059
:1087150030E004E4FD800B0FBF00010EBE27EDBF66
:1087250010EAED60191290649022BDE030E004E497
:10873500FD800B0FBF00010EBE27EDBF10EAE4FE62
:08874500FF6003125690AF051E
:01874D002209
:0CCB72009022BFE0245AFFE43409FE22A8
:105DED00EF120B7E5E3A005E41015E4E025E57037E
:105DFD005E5E045E65055E6C065E73075E7A085E28
:105E0D0087095E8E0A5E9B0B5EA20C5EA90D5EB6C7
:105E1D000E5EC20F5EC9105ED6115EDC125EE3131C
:105E2D005EEA145EF1155EFD1600005F069022CF4E
:105E3D00740B80059022CF7404F09022CE740FF075
:105E4D00227405129050740BF022129021740AF0F6
:105E5D002212904E7409F0221290217407F0221232
:105E6D0090217406F0229022CF740380059022CFEA
:105E7D007401F09022CE7405F02212904E7404F04D
:105E8D00229022CF7407F09022CE7403F02290223C
:105E9D00CF740280199022CF740C80059022CF749C
:105EAD0004F09022CE7402F0229022CF7401F09073
:105EBD0022CE04F0229022CF741F80059022CF7441
:105ECD000FF09022CE7401F02212904E14F0229019
:105EDD0022CF7401801E9022CF741F800C9022CF90
:105EED00740880059022CF7401F09022CEE4F02248
:0A5EFD009022CFE4F09022CEF022B4
:10A3AC00EFB401079022707424F022EF6402600570
:10A3BC00EF6403703990278074FEF09022197401B9
:10A3CC00F09022707427F0902280E030E0F9902217
:10A3DC00807423F0A37407F0EF902270B40305741B
:10A3EC0077F080037422F09022817460F022902721
:10A3FC008074F6F0902219E4F09022807480F0A31F
:0AA40C00746CF09022707480F0224E
:10C94F00EF9022926008740EF0A37402F02274012B
:04C95F00F0A3F0222F
:08CCB100902290E054C0F02233
:10A41600EF30E00C902720E4129036A312903622FB
:10A42600EF90272030E7297404F0A374E2F0A374B8
:10A4360004F0A374E2F0A37414F0A37410F0A3E480
:10A44600F074FA129093F0A374A0F0A37464F0224F
:10A456007402F0A37471F0A37402F0A37471F0A3F4
:10A46600740AF0A37408F0A3E4F0A3747CF0A37458
:09A4760028F01290937432F022D8
:10760500902785E090228230E272E4F000000000CD
:1076150000000000128FFE00000000000000007452
:1076250029F000000000000000000000000000003C
:107635000000000000000000000000000000000045
:107645000000000000000000000000000000000035
:107655000000000000000000000000000000000025
:107665000000000000000000000000000000000015
:10767500000000000000000000008010E4F00000A1
:107685000000128FFE000000007429F000000000C9
:1076950000000000000000000000000000000000E5
:1076A50000000000000000000000000000000000D5
:1076B50000000000000000000000000000000000C5
:1076C50000000000000000000000000000000000B5
:1076D50000000000000000000000000000000000A5
:0D76E500000000007440F090228214F0229A
:050006007EBD7FD62243
:103503002023232045413D302C20496E746572727F
:103513007570742044697361626C656420232300B1
:103523002023232055415254303A496E74657272F8
:103533007570742044697361626C65642023230091
:103543002023232055415254313A496E74657272D7
:103553007570742044697361626C65642023230071
:10356300202323205541525430203A20496E74655C
:1035730072727570742044697361626C6564202390
:103583002300202323205541525431203A20496EF1
:10359300746572727570742044697361626C6564DA
:1035A300202323000A002025303278000A205B4DB7
:1035B30049425D000A204368616E3D257520282538
:1035C30075204D487A292C2000202050616E4944F3
:1035D3003D307825303478000A2053686F72744187
:1035E3006464723D30782530347800203A4945458B
:1035F300454164647228307E37293D3078000A20C3
:1036030044737453686F7274416464723D307825F7
:1036130030347800203A4473744945454541646425
:103623007228307E37293D3078000A204461746166
:10363300526174653D3078253032782C2000203A71
:1036430054785077724C6576656C3D30782530320E
:10365300782C200020204E6F41636B526574727981
:103663003D257500203A4261636B6F66665265744F
:1036730072793D2575000A205B52582D4D41432D2B
:10368300504B545D000A2044534E3D307825303270
:10369300782C204F4F423D30782530327800203A45
:1036A30064426D3D256400203A436F72723D256488
:1036B300000A204473742E204D6F64653D2530321B
:1036C3007800203A50616E49443D30782530347893
:1036D30000203A53686F7274416464723D307825F8
:1036E30030347800203A4945454528307E37293D16
:1036F3003078000A205372632E204D6F64653D2598
:10370300303278000A204D534455204C656E3D25D8
:10371300303275203A2000203A4D534455203D0065
:103723000A203D3D3D2048494220446973706C6145
:1037330079203D3D3D000A2049454545204144440B
:1037430052284C53427E4D534229203A000A2043CB
:10375300686970496E646578203D20307825303281
:10376300780020284D4732343030290020284D4737
:1037730032343558290020284D4732343730290058
:1037830020284D4732343630290020284D47323423
:10379300313029002028556E636C61737369666943
:1037A300656429000A204368616E6E656C202020E1
:1037B3003D20257520282575204D487A29000A20AB
:1037C300537461636B49442020203D2030782530B9
:1037D3003278000A205478506F7765722020203D9C
:1037E3002030782530327800202020204461746115
:1037F3005261746520203D20307825303278000AEC
:103803002050616E494420202020203D203078251F
:10381300303278253032780020204E776B41646453
:103823007220203D203078253032782530327800E0
:103833000A205365634C6576656C20203D20307803
:10384300253032780020202020507265436F6E6649
:103853006967203D20307825303278000A204E57A2
:103863004B204B657920284C53427E4D53422920EF
:103873003A000A205265736572765F30284C5342D2
:103883007E4D534229203A000A20455049442020C6
:103893002020284C53427E4D534229203A000A20CF
:1038A3005265736572765F31284C53427E4D5342A5
:1038B30029203A000A2047656E6572616C576F7262
:1038C3006430203D2030782530327825303278003E
:1038D3000A2047656E6572616C576F726431203DD3
:0C38E30020307825303278253032780013
:1021AF00420FDD0000420FDF0000420FE10000424E
:0921BF000FE30000420FE50000EF
:1041F9001208A7901085120A5F901085120A539031
:104209001082E075F064A4FFAEF0E4FCFD1208A78B
:10421900901085120A5F901085120A5375F00A9062
:104229001081E0A4FFAEF0E4FCFD1208A790108510
:10423900120A5F90108522120ACC9000191206AC5E
:10424900FFE4900D5AF0A3EFF07BFF2290000112DA
:104259000823FF900DD3120ACC900DD9E0FDF58209
:10426900758300EF12070D900DD0120ACC90000152
:10427900120823E5F0FFED2401FDE433FC900DD392
:10428900020ACC8D828C83EF12070D900DD0020AA1
:10429900CCF9E43AFAE4900D53F07D08FC22900D34
:1042A900D9E0F582758300ED12070DEEFF900DD967
:1042B900E0F582758300229011F0120ACC90000477
:1042C900120823FF900D5AE5F022901149120ACCE9
:1042D9001207F8FFE5F0C4F854F0C868FEEFC454BB
:1042E9000F48FFEE8FF012085B90114EE0229010FC
:1042F90081E0901080F0901082E0901081F0901091
:1043090083E0901082F0901084E0901083F0E4A391
:10431900F090107FE014F022901082E0FF7E007C84
:10432900037DE812072FE4FCFD221206ACFF900D75
:104339005AE4F0A3EFF022120A47E47B107A27F936
:10434900F80208B49011F3120ACC9000080206ACE6
:10435900FFFD900D5AE4F0A3EDF07E007C007D0591
:1043690012072FEF242EFFEE3409A32274852FF5AF
:1043790082E4340DF58322901150120ACC0206937F
:10438900120A53901080E0FFE4FCFDFE22E92401AB
:10439900F9E43AFA020693120AEC7BFF7A3579A717
:1043A9007F01229011F0120ACC9000020206AC8D16
:1043B900828C83EF12070D900DD9221206ACFF9063
:1043C9000D5CE422E475F0010207CCC4540F120617
:1043D900FB901155E022EF24D090107DF090107FD2
:1043E900E0C3940422120A5390107DE0FF3395E054
:1043F900FEFDFC22900DC5E0FFC3944022F0E4F5D8
:1044090083900DCEE024FF92AF2290000C0206ACFF
:1044190090000B0206AC9011F0020ACCEFF0A31247
:104429000AECE4222402FFE433FEE92FF9EA3E22F2
:10443900120A53901080E075F00A22900DD9E07E9F
:104449000029F9EE3A22FF900DD6020ACC900DC54B
:0D445900E004F022901149120ACC0207F88D
:10C47E00900DC6EFF0902501E0900DC630E105E07D
:10C48E00FF02AB6AE0A3F07B017A0D79C77D011242
:03C49E00B0D622F3
:10C109009011D5120AEC902501E09011D530E00884
:10C11900120ACC12AE208006120ACC12C913901151
:09C12900D8EFF09011D8E0FF22DC
:10C4A100900DC6EFF0902511E0900DC630E105E04A
:10C4B100FF02AB11E0A3F07B017A0D79C77D011278
:03C4C100B1222283
:10C132009011D9120AEC902511E09011D930E00843
:10C14200120ACC12AD768006120ACC12C9279011BF
:09C15200DCEFF09011DCE0FF22AB
:109EE300900DCA120AECA2AFE433900DCEF0C2AFCC
:109EF300902500740AF0740DF0902510740AF07424
:109F03000D124406902505E030E5F9902515E03063
:109F1300E5F9E4900DCDF0900DCA120ACC12C8FEFB
:109F2300900DCDE0C39FE49E5029A2AFE433A3F08C
:109F3300C2AF900DCA120ACC900DCD1242B91206CF
:109F4300AC902500F0902510124406900DCDE0044E
:049F5300F080C422B4
:109DF900900DC6EFF020AF3D7BFF7A357903129EB7
:109E090067900DC6E0700B20AC087BFF7A3579238B
:109E19008010900DC6E0B4010C20AE097BFF7A35A5
:109E29007943129E67C2AF75D25575D2AA75D20A07
:109E390043920180FE900DC6E0700B20AC087BFFB9
:109E49007A3579638010900DC6E0B4011020AE0D0B
:109E59007BFF7A357985A3120AEC129EE322A312BD
:069E69000AEC129EE32248
:108B7900900D57120AEC900D56EFF0129DF9E49002
:108B89000DC5F01243FD500A124375E4F012445624
:108B990080F17B017A0D795A900D82120AEC900DC1
:108BA90057120ACC900DC6120AEC900D82120ACC0B
:108BB900900DC9120AEC7B017A0D798512B2989051
:108BC9000D56E030E02BE4900DC5F01243FD504CFA
:108BD900124375E0FF604512C4A1900DC5E02485DC
:108BE900124378E0B40A057F0D12C4A112445680DD
:108BF900DAE4900DC5F01243FD5021124375E0FFF0
:108C0900601A12C47E900DC5E02485124378E0B441
:0D8C19000A057F0D12C47E12445680DA2237
:1070670090114812442590114EF0F5F012085B7FFD
:10707700107E2712BFD9901148E030E04C7B017A8F
:1070870011794D12C132EF60E612714B6012901107
:107097004EE0640460D990114DE0FF12C4A1804A0C
:1070A70090114DE064087018A3E060147F0812C4C3
:1070B700A17F2012C4A17F0812C4A11242D314F0E9
:1070C70090114DE0640D70A7227B017A11794D1262
:1070D700C109EF609A12714B603E90114EE0640453
:1070E700608D90114DE0FF12C47E12445DC4F854C8
:1070F7000FC868FFE5F0C454F0488FF012085B1220
:10710700445DFF90114CE0FD3395E045F0FEEF4DF7
:107117001242EB04F002707690114DE0640870188B
:10712700A3E060147F0812C47E7F2012C47E7F080C
:1071370012C47E1242D314F090114DE0640D600327
:107147000270762290114DE0FF12C29A90114CEF17
:03715700F0F4222F
:107A980090114F124425901155F01206FB7F107E6D
:107AA8002712BFD990114FE030E04F7B017A11794E
:107AB8005412C132EF60E6127B6C6012901155E0EF
:107AC800640260D9901154E0FF12C4A1804D901156
:107AD80054E06408701BA3E060177F0812C4A17FFC
:107AE8002012C4A17F0812C4A11243801243D414E7
:107AF800F0901154E0640D70A4227B017A1179543E
:107B080012C109EF6097127B6C602A901155E064EE
:107B180002608A901154E0FF12C47E124380C4545C
:107B2800F01206FB124380FF901153E04F1243D727
:107B380004F0027AA5901154E06408701BA3E06079
:107B4800177F0812C47E7F2012C47E7F0812C47E6D
:107B58001243801243D414F0901154E0640D600372
:107B6800027AA522901154E0FF12C29A901153EFA5
:037B7800F0F42204
:1049050090107912442590107FF0F5F012085BE4C1
:10491500901080F0A3F0A3F0A3F0A3F07F107E2702
:1049250012BFD9901079E020E003024A007B017A9A
:1049350010797E12C132EF60E390107EE0FFC394E0
:1049450030405BEFD3943950551243DF5003024991
:104955009D90107FE0640470C390108312438F1202
:104965004236124340124236120A53C00012432106
:10497500D000124233120A5375F0641242281244D1
:104985003912422C1243EE124233120A47E4FEED6D
:104995004C708990107EE0FF12C4A1024A849010E9
:1049A5007EE064087016A3E060127F0812C4A17F40
:1049B5002012C4A17F0812C4A11242F790107EE014
:1049C500640D600302492190108412438FA31242A3
:1049D50039124340124236120A53C0009010831216
:1049E5004324D0001241F9124389124233120A4777
:1049F500E4FFFEED4C600122024B077B017A107942
:104A05007E12C109EF700302492190107EE0FFC3B9
:104A150094305003024AADEFD394394003024AADB6
:104A25001243DF500612C47E024A8490107FE06470
:104A350004600302492190108312438F12423612FB
:104A45004340124236120A53C000124321D00012CD
:104A55004233120A53901081E075F06412422C1211
:104A6500443912422C1243EE124233120A47E4FE35
:104A7500ED4C600302492190107EE0FF12C47E9048
:104A85001083E0A3F0901082E0A3F0901081E0A3E2
:104A9500F0901080E0A3F090107DE0901080F090F1
:104AA500107FE004F002492190107EE06408701642
:104AB500A3E060127F0812C47E7F2012C47E7F08A7
:104AC50012C47E1242F790107EE0640D6003024925
:104AD5002190108412438FA312423912434012428F
:104AE50036120A53C000901083124324D00012419D
:104AF500F9124389124233120A47E4FFFEED4C6076
:104B05000122901085120A4790107A120ACCEE8F76
:074B1500F012085B7F012292
:10B9F000A2A9E433FEC2A9EF7005900FDD8022EF0B
:10BA0000B40105900FDF8019EFB40205900FE180BB
:10BA100010EFB40305900FE38007EFB40408900F14
:0EBA2000E5ECF0A3EDF0AF06EE24FF92A922B4
:10BE0600EF7005900FDD8019EFB40105900FDF800C
:10BE160010EFB40205900FE18007EFB4030A900F0C
:10BE2600E3E0FCA3E0FD8003E4FCFDAF05AE0422E5
:103F5D00900DD0120AEC120693FF64026004EFB4C8
:103F6D000320124294900001120823FF900FC0E02D
:103F7D00B5F00DA3E0B50708900DDA7401F08007D8
:103F8D008000E4900DDAF012428674011206FB12E5
:103F9D00429412441330E00B1242861206934420D1
:103FAD001206FB900DDAE0600B1242861206934466
:103FBD00401206FB1242941244135430C4540FFFA6
:103FCD00124286900001EF12070DE92401F9E43A3F
:103FDD00FAC003C002C001120693FF1242941244AC
:103FED001354C01313543F4FD001D002D003120607
:103FFD00FB124294120693FF6027EFB4020A12429D
:10400D008612439644088011124294120693B4030B
:10401D000D124286124396440C1206FB80037FE874
:10402D0022124294124419FF6027EFB4020A124281
:10403D008612439644808011124294124419B4039F
:10404D000D12428612439644C01206FB80037FE890
:10405D0022900FDAE004FFF0124286900002124324
:10406D00BC7403F01242941206936402703512422E
:10407D005512428C900003120823FF900DD9E024B5
:10408D000212428212428C900003120823E5F0FFC7
:10409D00900DD9E024031242821243B8E02404F0BB
:1040AD000240E41242941206936403702A12429461
:1040BD001242551243B8E012442DFEAF0112429444
:1040CD00E92403F9E43AFCAD017B087A0012A269F8
:1040DD00900DD9E0240AF012429412441964027032
:1040ED0054900DDAE06019900FC2E0FEA3E0FD12CE
:1040FD0042861242A7A31243BCE02402F002418D76
:10410D00900FC0E0FEA3E0FD1242861242A7A3EF7E
:10411D0012070D900FC2A3E01242B5A3A3EF120731
:10412D000D900FC2E01242B5A3A3A31243BCE0242D
:10413D0004F002418D1242941244196403704190AF
:10414D000DDAE0600E1242861244441241E6240854
:10415D00F0802D900FC0E0FEA3E0FD1242861242CA
:10416D00B6ED12070DEEFF900DD9E0FEF5827583C9
:10417D0000A3EF12070DEE12442D1241E6240AF0B2
:10418D00900DD9E012444FEF1206FB1242949000AD
:10419D000D1206AC12444FEF1206D91244507402A0
:1041AD001206D9900DD6124383D3947F40037FE539
:1041BD0022124286124444FEAF0112429490000E28
:1041CD00120AF5AC02AD0112429490000D1206AC2C
:1041DD00FB7A0012A2697F0022FEAF017C0F7DC425
:0C41ED007B087A0012A269900DD9E02234
:10A74F00E4900F73F0EF04900DD3F0ED04A3F0E459
:10A75F00900DD1F0900DD3E0FF900DD1E0C39F503D
:10A76F003EE4A3F0900DD4E0FF900DD2E0C39F50D4
:10A77F0018127EEC900DD0EFF064156004E0B4E198
:10A78F0008900DD2E004F080DB900DD0E07008A3AC
:10A79F00E0900F73F08008900DD1E004F080B59039
:05A7AF000DD0E0FF22C7
:10BA2E00C003C002C0017B017A237901900DD312AD
:10BA3E000AEC7A0D79CF900DD6120AECD001D00215
:10BA4E00D003123F5DEF7013900DCFE0902300F006
:0CBA5E00900FDBE0FFA3E0FD12A74F22D9
:020029000022B3
:10BE3600901201EEF0A3EFF0E4900FB3F0A3F090B0
:10BE46001201E0FEA3E0FFC3900FB4E09F900FB392
:10BE5600E09E500B12CA83900FB31243CD80E022AE
:10CA8300E4900FB5F0900FB5E004F0E0B401F622A6
:10CA9300E4900FB6F0900FB6E004F0E0B409F6228C
:10CAA300E4900FB7F0900FB7E004F0E0B430F62253
:10CAB300E4900FB8F0900FB8E004F0E0B460F62211
:10C75100E4900FB9F0A3F0900FB91243CD900FB947
:0AC76100E07004A3E0646970EE22AA
:10C76B00E4900FBBF0A3F0900FBB1243CD900FBB27
:0AC77B00E07004A3E064D270EE2227
:10C54900E4900FBDF0A3F0C3900FBEE09F900FBD24
:10C55900E09E500B12C76B900FBD1243CD80E822AD
:10A61B00900D4E120AEC900D51ECF0A3EDF0E4907E
:10A62B000D54F0A3F0900D51E0FCA3E0FD900D5400
:10A63B00E0FEA3E0FFC39DEE9C503B900D53E0FD6D
:10A64B00600F7C00120741ED4C70061243A3128B76
:10A65B0079900D4E120ACC900D54E0FEA3E0F582DA
:10A66B008E831242467A3579A97F01128B79900D30
:07A67B00541243CD80AF2211
:1079B100900D4B1243A0128B797A3579AF127A660A
:1079C10012069312435912424E7A3579B7127A74DC
:1079D100900001120823FFE5F012424B7A3579CC71
:1079E100127A749000031242C912424E7A3579DB41
:1079F1007F01128B797A3579EE127A66E9240512C4
:107A0100429A12A61B900D4B120ACC90000F124203
:107A1100C912424E7A3679017F01128B797BFF7A46
:107A2100367917127A80E9241112429A12A61B9014
