:10AC0000C00F74ACC0E0C082C083750F0A75A1008C
:10AC10000000000022C00F74ACC0E0C082C0837589
:10AC20000F1F75A1010000000022C00F74ACC0E02E
:10AC3000C082C083750F3475A1020000000022C0DD
:10AC40000F74ACC0E0C082C083750F4975A10300CA
:04AC500000000022DE
:0DC7F400EF90C7FD9390AC00730A1F34490D
:10A03600EB60010A4A601D8C838D8263A2018E83C8
:10A046008F8263A20100E0A363A201F0A363A201D1
:10A05600DBF4DAF222C0A275A2010000C082C0833E
:10A0660063A2010000C082C083EB60010A4A601D42
:10A076008C838D8263A2018E838F8263A20100E0AE
:10A08600A363A201F0A363A201DBF4DAF2D083D0CA
:0DA096008263A2010000D083D082D0A222FC
:030000000259D5CD
:1059D5007598007599209022E074D9F090270E747F
:1059E50000F09027027470F09027037400F0E490A3
:1059F5000000F0900000E004F0E0B4C8F690270045
:105A05007480F09027087400F0902709F090272003
:105A1500F0902721F0902722F0902723F09027245B
:105A2500F0902725F0902726F0902727F09027283B
:105A3500F0902729F090272AF090272BF0759900F0
:105A45009022E17400F09022E27490F09022E774C5
:105A5500FFF09022E8F09022E9F09022EAF09022FF
:105A6500EBF09022ECF09022ED7400F09022EEF035
:105A75009022EFF09022F0F09022F1F09022F2F0D7
:105A8500750D18750E00758121C2C112AC0A025A36
:015A9500D13F
:0CC83300016800AA005A002D0015000B3F
:0A18000042121D000042121B0000FE
:10BE2500900D246480F8E064809822900D24E0FE53
:10BE3500A3E0FFC322900D30120A5F900D30020A75
:0ABE450047120ACC900D29020AEC06
:0EC7BC00902784E054BFF00000E04440F022DB
:10A83000EBD394084004007F1222EDD3940350041C
:10A84000EDB40104007F1122EF9022E66026E0447F
:10A8500004F0902781E0440CF09022D4E04480F092
:10A86000E054F04BF0AF05EFC43354E0FFE0549FE9
:10A870004FF08012E054FBF09022D4E0547FF0902F
:09A880002781E054F3F07F00226F
:10BDFB00EFD394035005ED94034004007F11229080
:10BE0B002786E054FC4FF0AF05EF25E025E0FF90CF
:0ABE1B0022D5E054F34FF07F00221F
:10BD4800ED6005D3940E4004007F1122ED04C45425
:10BD5800F0FE9022D5E0540F4EF0EF6006E044026A
:0DBD6800F080079022D5E054FDF07F00220E
:10C21F00A2AFE433FFC2AF9022D7E0FDE0FEEF24E0
:10C22F00FF92AFAF06EFFEEDFF7C007D1012079679
:01C23F0022DC
:10C6BE009022D6E05478131313541FFF60011F22EB
:10B3950074FFF5F012085B7F13E4901215F0A3F02B
:10B3A5009022D6E05470600D12C21FEE8FF0120885
:10B3B5005BE4FF8019901215E475F0011207CCC308
:10B3C500901216E094D0901215E0940740D2EF60E9
:03B3D50001002252
:10996E00AA05EBD394084004007F1222EAD3940395
:10997E004004007F1122EF60557D02E4FF12BD48C6
:10998E00AF02AD077F0112A830AC07EC704912C7C9
:10999E00BC90138FE025E02433F582E434C8F583C0
:1099AE00E493FF740193901217CFF0A3EFF0E4A3AA
:1099BE00F0A3F090121712BE3390121AE09F90127D
:1099CE0019E09E5012E475F0011207CC80E5E4FB1D
:0A99DE00FDFF12A830AC07AF042211
:10BAA800900D00120AECEFD394084004007F122294
:10BAB800AB07E4FD7F0112996EEF600122900D0043
:10BAC800120ACC12B395EF600122E4FBFDFF129934
:04BAD8006E7F00225B
:106FEC00900D22EEF0A3EFF0A3ECF0A3EDF0900DDA
:106FFC0028E0FFC3940A4006EFD3940F4004007FAF
:10700C001122900D2212BE33900D25E09FEE12BE80
:10701C00254004007F142212BE30900D23E09FFF08
:10702C00900D22E09E900D2CF0A3EFF0D3900D2547
:10703C00E09BEA12BE254009E4900D2EF0A3F080EF
:10704C0029C3900D23E09BEA900D2212BE28500B11
:10705C00900D2CE0FFA3E0A3CF800B12BE30EB9F72
:10706C00FFEA9E900D2EF0A3EFF0900D28E0FF7438
:10707C00017E00A807088005C333CE33CED8F9248F
:10708C00FFFFEE34FFFEE4FCFD900D30120A5F9022
:10709C000D2EE0FEA3E0FFE4FCFDA3120A53120840
:1070AC00B412BE3AC006C007900D2CE0FEA3E0FB64
:1070BC00AA06E4F9F8D007D00612093F12BE3AEE40
:1070CC00547FFE900D29120ACCEE8FF012085B7FD4
:0270DC00002290
:0CC81B007B017A12791D7F0712BAA82257
:0CC827007B017A12791B7F0812BAA8224C
:10A9EA00900D1D120AEC900D1CEFF0C3940A40065C
:10A9FA00E0D3940F4004007F11227B017A0D792065
:10AA0A0012B395EF60012290121DE0FEA3E0FF90C1
:10AA1A00121BE0FCA3E0FD900D1CE0900D28F090C5
:10AA2A000D1D12BE46900D20E0FAA3E0FB126FEC5A
:07AA3A00EF6001227F002202
:10955200901200EDF0A3120AEC9011FFEFF0D394F9
:10956200084004007F1222901200E0FFC3940A40D8
:1095720006EFD3940F4004007F11227B017A127907
:10958200067F0712BAA8EF6001227B017A127904E2
:109592007F0812BAA8EF6001229011FFE0FF7B0161
:1095A2007A12790812BAA8EF600122901206E0FE40
:1095B200A3E0FF901204E0FCA3E0FD901200E09013
:1095C2000D28F090120112BE46901208E0FAA3E0B4
:0B95D200FB126FECEF6001227F002213
:04180A0041138F00F7
:10AA9800E4FDEF14601414601514601614601714A4
:10AAA8006018240570187E088016E4FE80127E2047
:10AAB800800E7E40800A7E6080067E0C80027D12B9
:10AAC800ED600300FF2290138FEFF0538E10EE42DB
:10AAD8008EE58E90278530E306E04404F08004E09C
:06AAE80054FBF07F002288
:030026008F98228E
:03002E008F992285
:030036008F9A227C
:08180E004113790041137A0037
:10C58300A2AFE433FEC2AFEB9022EF22AF06EE245C
:06C59300FF92AF7F0022C1
:10B4DD00E5B420E204007F102212C58330E106E0BE
:10B4ED004404F08004E054FBF0EB30E003D3800122
:10B4FD00C39288ED24FF92B8EF24FF92A89022F218
:10B50D00E030A8054404F0800354FBF012C58F22EF
:10B51D00E5B420E304007F112212C58330E106E07B
:10B52D004408F08004E054F7F0EB30E003D38001E1
:10B53D00C3928AED24FF92BAEF24FF92AA9022F2D1
:10B54D00E030AA054408F0800354F7F012C58F22AD
:04181600411390806A
:1072BD00E0FEA3E0FFF5828E83A3A31206AC902718
:1072CD0005F08F828E83A3A3A31206AC902704F042
:1072DD00901390E04401902700F022F090133CE0D1
:1072ED00F58A90133AE0F58C22E0FEA3E0FFF582DB
:1072FD008E831206AC902707F08F828E83A3120621
:10730D00AC902706F022FFE0FAA3E02DF582EA3CCF
:10731D00F583E4936F22900D05E475F0010207CC1F
:10732D00900D03E0FEA3E0A3FFE0FCA3E0FDC39FEF
:10733D00EC9E229027007480F09027027470F0A3C9
:10734D00E4F0902708F0A3F07F0122E0FEA3E09087
:10735D002703F0EE902702F022FFEEF0A3EFF043AB
:10736D00992090270EE4F090138FE0229027097456
:10737D0001F0902708E4F022120ACC8D828C830252
:10738D0006ACEEF0A3EFF0EE54014F22CFF0A3EFD9
:0D739D00F0E422900D09120A5F900D092204
:06C9B700E4901390F02251
:07C9A9009013907480F0224E
:10B9290090270EE4F090270DE020E0F900000000D8
:10B93900EF12735C902708E4F0A304F0901390E0F1
:10B949004402902700F00000000090270DE020E05D
:08B95900F99027007480F02230
:100E7F00900D4C120AEC900D4A12738F6004007F94
:100E8F001422900D4AE0FEA3E07802CEC313CE13D6
:100E9F00D8F9900D5612736670047F808002E4FFBC
:100EAF0012A1E3901390E0701D902700E064807012
:100EBF0015902708E0700FA3E0700B902702E0B4A5
:100ECF007004A3E06009900D587413F0020FE4E46E
:100EDF00FF12B0D0E4900D5DF012BF1A900D56E0E6
:100EEF00FEA3E0FF12B929900D4FE030E00AE49025
:100EFF000D581272E8020FE490270DE020E0F9126E
:100F0F007379900D50F0A3F0900D56E0FFA3E09091
:100F1F000D54CFF0A3EFF0900D52E4F0A37480F0D6
:100F2F0012BF1A900D54127358900D4C120ACC9098
:100F3F000D501272F6900D501272BD00000000900D
:100F4F000D50E475F0041207CC900D5412732690D7
:100F5F000D5274FFF5F01207CC900D52E07002A302
:100F6F00E070BD90270DE020E0F91272E9900D4A74
:100F7F00E0FFA3E0900D59127399900D58F0900D6A
:100F8F005BF0A3F0900D5BE0FEA3E0FFC3EE9402D5
:100F9F00502E900D4C120ACC8F828E831206ACFF0E
:100FAF00900D5BE0FCA3E0FD900D591273146008E7
:100FBF00900D587415F08008900D5B12732680C445
:100FCF00900D58E0600F900D5DE004F0E0C39404C5
:100FDF005003020EE812734012A1E35399DF7F0111
:0C0FEF0012B0D0900D58E0FF600100220D
:1052BB009011A3120AEC9011A112738F6004007F5E
:1052CB0014229011A1E0FEA3E07802CEC313CE13FB
:1052DB00D8F99011AE12736670047F808002E4FFE0
:1052EB0012A1E3901390E0701D902700E064807092
:1052FB0015902708E0700FA3E0700B902702E0B425
:10530B007004A3E060099011B07413F0025438E4F8
:10531B00FF12B0D0E49011B5F012BF1A9011AEE0AD
:10532B00FEA3E0FF12B9299011A6E07002A3E07072
:10533B00099011B01272E802543890270DE020E06A
:10534B00F91273799011A8F0A3F09011AEE0FFA3BE
:10535B00E09011ACCFF0A3EFF09011A6E0FCA3E02E
:10536B00FDAE047802CEC313CE13D8F9FF9011AA69
:10537B00EEF0A3EFF0ED5403600A9011AAE475F080
:10538B00010253CF9011AAE07002A3E0603C12BF60
:10539B001A9011AC1273589011A3120ACC9011A849
:1053AB001272F69011A81272BD000000009011A8A5
:1053BB00E475F0041207CC9011AC1273269011AA6D
:1053CB0074FFF5F01207CC02538F90270DE020E00D
:1053DB00F91272E99011A1E0FFA3E09011B11273E1
:1053EB00999011B0F09011B3F0A3F09011A6E0FEDC
:1053FB00A3E09011B3127335501E9011A312738555
:10540B009011B112731360089011B07415F08008ED
:10541B009011B312732680D39011B0E0600F9011EE
:10542B00B5E004F0E0C3940450030253241273401C
:10543B0012A1E35399DF7F0112B0D09011B0E0FFBE
:04544B0060010022DA
:10819E00900CFEEEF0A3EFF0A3120AEC900CFEE0B2
:1081AE00FEA3E0FFE4FCFD1273A0120A53900D042F
:1081BE00E024FFFF900D03E034FFFEE4FCFD120807
:1081CE00A71273A0120A47ED4C6004007F1222E43E
:1081DE00900D08F0900CFEE0FFA3E0900D0D1273D1
:1081EE0099900D07F0E4900D05F0A3F012732D5049
:1081FE0029900D0DE0FEA3E02DF582EE3CF583E413
:10820E0093FF900D00120ACC900D05A3E0F5828C21
:10821E0083EF12070D12732380D2E4900D05F0A3A5
:10822E00F012732D501B900D00127385900D0D12D0
:10823E0073136008900D087416F080051273238076
:10824E00E0900D08E0600B900D07E004F0E0640490
:08825E007093900D08E0FF226F
:10C59900AF04E0FDA3E0FB12BFDFEF22EDF0A3EB58
:06C5A900F0AC07E598224A
:0BC86F00EF6004439810225398EF2262
:10BFDF00EFD394074008EF640A60037F1222ED60ED
:10BFEF0009EBD39401400C7F1122EBD39402400351
:06BFFF007F11227F0022E9
:1083E500900CFE12C5A520E404007F1022900CFE1F
:1083F50012C59960020022EC120B7E841F008425B1
:1084050001842B02843103843704843D05844306AB
:10841500844907844F0A000084537E0179FE802E2B
:108425007E0279FD80287E0479FB80227E0879F71B
:10843500801C7E1079EF80167E2079DF80107E40CB
:1084450079BF800A7E80797F80047EFFE4F9900CF5
:10845500FEE06019E952B19022EAE059F0900CFF74
:10846500E06005EE42C18032E952C1802D900CFFDB
:10847500E0FF700E9022EAE04EF09022E7E04EF029
:108485008012EF9022EAB40108E04EF09022E780D6
:0D84950000E059F0EE42B1EE42B97F002246
:1084A200900CFE12C5A520E404007F1022900CFE61
:1084B20012C59960020022EC120B7E84DC0084E279
:1084C2000184E80284EE0384F40484FA058500063C
:1084D200850607850C0A000085107E0179FE802E34
:1084E2007E0279FD80287E0479FB80227E0879F75E
:1084F200801C7E1079EF80167E2079DF80107E400E
:1085020079BF800A7E80797F80047EFFE4F9900C37
:10851200FEE06019E952B29022EBE059F0900CFFB4
:10852200E06005EE42C28032E952C2802D900CFF1B
:10853200E0FF700E9022EBE04EF09022E8E04EF069
:108542008012EF9022EBB40108E04EF09022E88016
:0D85520000E059F0EE42B2EE42BA7F002286
:10832600900CFE12C5A520E404007F1022AF049035
:108336000CFE12C59B60020022EC120B7E836200CB
:10834600836801836E02837403837A0483800583C2
:108356008606838C0783920A000083967E0179FE47
:10836600802E7E0279FD80287E0479FB80227E089D
:1083760079F7801C7E1079EF80167E2079DF8010D9
:108386007E4079BF800A7E80797F80047EFFE4F993
:10839600900CFEE06019E952B49022ECE059F0909E
:1083A6000CFFE06005EE42C48032E952C4802D9095
:1083B6000CFFE0FF700E9022ECE04EF09022E9E018
:1083C6004EF08012EF9022ECB40108E04EF09022BD
:0F83D600E98000E059F0EE42B4EE42BC7F002295
:0C181A0041135E0041135F0041136000A9
:08C97100EDF0A3EBF0E59222CA
:04C42500E0FD7F01B6
:10C42900ED600543F904800353F9FBEF600443E928
:06C43900042253E9FB227E
:0BC87A00EF6004439202225392FD2263
:108A5D0090132312C97120E104007F102290132579
:108A6D00E0D394034004007F2022E4FDEF120B7E3F
:108A7D008A9C008AA2018AA8028AAE038AB4048A5B
:108A8D00BA058AC0068AC6078ACC0A00008AD2793E
:108A9D00017EFE803279027EFD802C79047EFB8082
:108AAD002679087EF7802079107EEF801A79207E56
:108ABD00DF801479407EBF800E79807E7F800879BB
:108ACD00FFE4FE80027D30ED600300FF2290132352
:108ADD00E06027901325E0FF30E105E942EA8003CD
:108AED00EE52EAEF30E005E942EB8003EE52EBE99E
:108AFD0042EC90132412C4258003EE52EC7F002229
:0BC88500EF6004439204225392FB2258
:108B0D0090132712C97120E204007F1122901329BE
:108B1D00E0D394034004007F2122E4FDEF120B7E8D
:108B2D008B4C008B52018B58028B5E038B64048B34
:108B3D006A058B70068B76078B7C0A00008B827919
:108B4D00017EFE803279027EFD802C79047EFB80D1
:108B5D002679087EF7802079107EEF801A79207EA5
:108B6D00DF801479407EBF800E79807E7F8008790A
:108B7D00FFE4FE80027D31ED600300FF229013279C
:108B8D00E06027901329E0FF30E105E942F2800310
:108B9D00EE52F2EF30E005E942F38003EE52F3E9D5
:108BAD0042F490132812C4258003EE52F47F002264
:0BC89000EF6004439208225392F7224D
:108D120090132B12C97120E304007F132290132DAC
:108D2200E0D394034004007F2322E4FDEF120B7E84
:108D32008D4B008D51018D57048D5D058D63068D20
:108D420069078D6F0A00008D7579017EFE80267994
:108D5200027EFD802079107EEF801A79207EDF80EE
:108D62001479407EBF800E79807E7F800879FFE48F
:108D7200FE80027D33ED600300FF2290132BE06042
:108D82002790132DE0FF30E105E942FA8003EE520D
:108D9200FAEF30E005E942FB8003EE52FBE942FCC8
:0E8DA20090132C12C4258003EE52FC7F002299
:0DC80100F0A3F0EF24FF92AF902190E02211
:06C9BD00902191EFF02231
:10C6CE00EF9021916005E04402F022E054FDF0224B
:10C6DE00EF9021916005E04404F022E054FBF0223B
:10C6EE00EF9021916005E04408F022E054F7F0222B
:10C6FE00EF9021916005E04410F022E054EFF0221B
:09C95600902158EFF0EEA3F0224D
:09C95F0090215AEFF0EEA3F02242
:0FC79E00AC02AD017B087A007F507E2102A036ED
:10C43F00A2AFE433FFC2AF902004E4F090200112CA
:0AC44F00C8014440F0E054BFF022A1
:10C45900A2AFE433FFC2AF902084E4F090208112B0
:0AC46900C8014420F0E054DFF02287
:0BC89B007F1612C9BD12C43F02C45931
:0C18260041129600411291004112950001
:10902400E5E8F0A3E5E9F0AFA875E902E4F5E87531
:10903400A8809027927483F090279EE0C2AF902777
:1090440093E0E4F583D2AF2290279F7444F09027F5
:1090540092E0547FF0E4901291F022120ACC8E82B6
:109064007583001206AC902790F0E4F583D2AF220A
:109074009027927480F022E0547F25E0902791F0AD
:1090840022FEE4901296F0902792E022901258E08B
:1090940004F0E0C3942022EFF0A3EDF0A3120AEC55
:1090A400E422E004F0901291E02212C37D90279212
:0A90B400E022E0F5E88FA8AF0522E6
:0BC8A600EF60044399802253997F2229
:10A5EC00E59920E704007F1022901331E0FEC3941C
:10A5FC00125004007F1122EF6041A2AFE433FFC27E
:10A60C00AF902794EEF090279674FFF0902795E486
:10A61C00F0902793E090279EE0EB90279230E00596
:10A62C0074A3F080037483F053F9FDED600343F9D8
:10A63C000243E902EF24FF92AF800653E9FD12902A
:04A64C00747F0022F5
:10C37D00E490128FF0A3F090128FE475F001120784
:0EC38D00CC90128FE07004A3E0640A70EA22E4
:1087920090124712909B90124FF0E59920E7040047
:1087A2007F102290124CE0FE70028006EED3940FEE
:1087B2004004007F1122E4FFFE12BD7590124D129B
:1087C200902490124712907BC2AF901248E0129010
:1087D2006AFE90124CE0FDEEC39D500BC2AF9012A8
:1087E2004912905F0E80EB12904C90124CE02402E2
:1087F2001290854470F0E4FD90124F1290A660042E
:108802007D128012901296E06E600B90124FE0C3C0
:10881200944040E47D80ED70061290AE54EFF0E497
:1088220090124FF030960320970A90124F129093B5
:1088320040F27D8012907490124EE0F5E990124D54
:048842001290B622B8
:1069210090125012909B901258F0E59920E70400C4
:106931007F1022901255E0FE70028006EED3941073
:106941004004007F1122E4FFFE12BD759012561221
:10695100902490125012907BC2AF901251E012908D
:106961006A901255E0902797F012904C7E02129097
:1069710087447CF0E4FD9012581290A660047D12C9
:106981008012901296E06E600B901258E0C3945002
:1069910040E47D80ED6014E4901258F030960320BD
:1069A100976B12909040F57D8080621290AE54F703
:1069B100F0902791E04401F0E4901258F090129188
:1069C100E0700E901258E004F0E0C394E040EE7DD8
:1069D10080E4FE901255E0FCEEC39C501EC2AF90C5
:1069E1002790E0FC901252120ACC8E82758300EC43
:1069F10012070DE4F583D2AF0E80D8E4901258F05F
:106A010030960320970712909040F57D8012907484
:0D6A1100901257E0F5E99012561290B6224F
:1089AC00901297EF12909F90129EF0E59920E70499
:1089BC00007F102290129BE0FE70028006EED39492
:1089CC00104004007F1122E4FFFE12BD7590129C32
:1089DC0012902490129712907BE4FE90129BE0FD73
:1089EC00EEC39D500BC2AF90129812905F0E80EBAD
:1089FC0012904C90129BE0041290854470F0E4FDB0
:108A0C0090129E1290A660047D128012901296E035
:108A1C006E600B90129EE0C3944040E47D80ED703C
:108A2C00061290AE54EFF0E490129EF030960320B4
:108A3C00970F90129EE0FE04F0EEC3941040ED7D73
:108A4C008012907490129DE0F5E990129C1290B6F1
:018A5C0022F7
:10775B0090120AEFF0A3120AECE59920E704007FE0
:10776B001022E4FFFE12BD75901211E5E8F0A3E5BF
:10777B00E9F0A3E5A8F012902D90120AE0547F25B2
:10778B00E04401902791F090120EE0FFD39410404B
:10779B000B9027977410F0EF24F0800990120EE0F5
:1077AB00902797F0E4901295F012904C901295E080
:1077BB00901214F0E4901296F090120B120ACC90E7
:1077CB001292120AEC902792E04474F0E490120F9C
:1077DB00F0901291E060FAE4901210F0902797E08D
:1077EB00FF901210E0FEC39F502DC2AF902790E088
:1077FB00FFEEFD901214E02DFDE433FC90120B1202
:10780B000ACC8D828C83EF12070DE4F583D2AF90F7
:10781B001210E004F080C53096FD3097FA12907488
:10782B00901212E0F5E9901211E0F5E8901213E0D6
:08783B00F5A890120FE0FF22F6
:10B1180015660AB30AB2055906B4035A035C01AEB0
:10B1280001C200E10104008201D200E90112008994
:10B1380000B20059008A0045008A0045008A00458F
:10B14800023001180118008C0096004B00460023BD
:08B15800003C001E003C001E3B
:101832004111D4004111D3034111D2004111D10011
:041842004111D00080
:10ACF80075F002120AC0E493FF7401939011C8CF53
:10AD0800F0A3EFF0E4A3F0A3F0229022007438F04F
:10AD18009011D3E025E025E0229011C8E0FEA3E0E1
:10AD2800FFC39011CBE09F9011CAE09E229011CAF8
:0EAD3800E475F0010207CC9022007434F02282
:0EC7CA00EF30E0047F018002E4FF127CB42215
:07C9B000902200741CF0222C
:108DB000900D28EEF0A3EFF0A3EDF0600B90278369
:108DC000E4F09022D07488F0A2AFE433900D2BF041
:108DD000C2AF90228DE0900D2CF07F1112C97990D6
:108DE0002200742CF07F13E49011C6F0A3F0900DD4
:108DF00028E0FCA3E0FDC39011C7E09D9011C6E000
:108E00009C502190228DE020E612A3E05407FE70D2
:108E100003FF8010EEB404047F1280089011C61284
:108E2000AD3880CA90228F74FFF0900D2CE0902214
:108E30008DF0900D2BE024FF92AF900D2AE0600999
:0E8E4000EF70069022D07484F0EF60010022E3
:10C69C007F0A12C979E4FD7F0112C2E27F0102C751
:01C6AC000E7F
:1099E800900D1CEFF0BF04028009900D1CE0D39489
:1099F800054004007F182212AD3FE4FF12B0D0905A
:109A08000D1CE0FF12A93A900D1CE01460161460BA
:109A18001B14602024FE60242405702690221174F3
:109A280009F0801E9022117405F08016902211749E
:109A380003F0800E9022117402F0800690221174B7
:109A480010F0902200743CF07F0112B0D0900D1CF1
:089A5800E09011D3F07F002221
:10AE2E00901391EFF012A93A901391E0FF1460166F
:10AE3E0014601B14602024FE6024240570269022CA
:10AE4E00117409F0801E9022117405F08016902264
:10AE5E00117403F0800E9022117402F0800690227D
:0CAE6E00117410F09011D3EFF07F00225F
:10B84500901392EFF07F031299E8901392E0902203
:10B85500246013E04440F0902785E04408F09022EE
:10B8650037E04480F022E0543FF0902785E054F71C
:09B87500F0902237E0547FF0222C
:10855F00900D1CEFF0C3940B4006E0D3941A400427
:10856F00007F172212AD3FE4FF12B0D0900D1CE038
:10857F00120B7E85B60B85BA0C85BE0D85C20E8596
:10858F00C60F85CA1085CE1185D21285D61385DA0E
:10859F001485DE1585E21685E61785EA1885EE192E
:1085AF0085F21A000085FE7F65803A7F6A80367FEC
:1085BF006F80327F74802E7F79802A7F7E80267F26
:1085CF008380227F88801E7F8D801A7F9280167F06
:1085DF009780127F9C800E7FA1800A7FA680067FE6
:1085EF00AB80027FB07E091286D9900D1DEFF090FF
:1085FF000D1DE060040002857B902200743CF07F2B
:0D860F000112B0D0900D1DE0FF60010022AF
:0FC7AD00E4FE902284E0FF70050EEEB4FAF42251
:08C97900EF541F90228DF02203
:10C4DB00A2AFE433FEC2AFED24FF92F8EF24FF923C
:09C4EB00E8AF06EF24FF92AF2236
:10B0D000EF603D90228EE054F7F0E04408F0759167
:10B0E00010A2AFE433FFC2AF902084E4F09020813F
:10B0F000F0A3F0EF24FF92AFE49011D2F0902190F2
:10B10000E04420F0E054DFF0902201E054FEF02211
:08B11000902201E04401F0224D
:06C9C300EF24FF92AF22F9
:03003E00027497B2
:107F3A00902002E4F0902303E0902192F0902280B6
:107F4A00E05470FF6007641060037F15229011D11E
:107F5A007401F09011D4E0547DF0900DD574E1F0E5
:107F6A0012003E12AD122418F582E434B1F583C032
:107F7A0083C08290138FE0D082D08312ACF812AD06
:107F8A002150139011D4E030E107E4900DD5F08030
:107F9A000512AD3580E8900DD5E0B4E10F12AD3F82
:107FAA00902002E4F09011D1F07FE122E49011D107
:107FBA00F0900DD5F0902301E030E539900DD5749D
:107FCA00E9F012AD182430F582E434B1F583C083A8
:107FDA00C08290138FE0D082D08312ACF812AD2108
:107FEA0050139011D4E030E707E4900DD5F08005E6
:107FFA0012AD3580E8902002E4F0900DD5E0FF2222
:1090BE009011D1E060030291559023807405F0A3C6
:1090CE007402F0EF6004E04410F0902382E4F0A309
:1090DE00EDF090222CE0900E11F090222CE0442026
:1090EE00F09020027480F0902280E054706004644E
:1090FE0010704712AD122448F582E434B1F583C0E6
:10910E0083C08290138FE0D082D08375F002120A52
:10911E00C0E493FF7401939011CC12AD079011CC63
:10912E00E0FEA3E0FFC39011CFE09F9011CEE09E32
:10913E00500512AD3880E612AD3F902002E4F0905B
:08914E000E11E090222CF0222A
:10C2E200EDD394024004007F1122EF6009ED441067
:0FC2F20090222CF0800690222C7430F07F0022D6
:06C9C90090222DEFF02288
:10C70E00EF90227E6005E04408F022E054F7F0221C
:1096EF0090137BEFF0D394034004007F112290136B
:1096FF007BE0FE700A9011D0E07004007F1622E428
:10970F0090137CF0EEB4010D12C9B07F0112976D6A
:10971F007401F0804390137BE0B4020D12C9B07F47
:10972F000212976D7402F0802F90137BE0B4031038
:10973F0012C9B07F0312A1799011D07403F0801871
:10974F00E4FF12A179E4FD7F107E27128DB09013F4
:10975F007CEFF0E49011D0F090137CE0FF2212A187
:05976F00799011D022E9
:10C71E00EFD394164004007F1122125E8C7F00220C
:10C72E00EF6009AF0512C616439EC022539E3F22EC
:0EC7D800EF600712C9A1439CC022539C3F2270
:10B87E00902281E0541FD39402402D9022BDE020EF
:10B88E00E0267F019022B0E04401F0E4FDFC90221E
:10B89E00BDE030E004E4FF800B0DBD00010CBC03E5
:09B8AE00EDBDE8EAEF70DD222295
:0818460041137E0041137D00F7
:106E06009022EDE06580FF9022F0E05FFF9022EE99
:106E1600E06590FE9022F1E05EFE9022EFE065B024
:106E2600FC9022F2E05CFC9022F0E022E5E8F0AD76
:106E36009AA9E9759A07E4F5E8F5E99022E1746EF6
:106E4600F09022E6E054FBF0E054E7F022E09022D6
:106E5600E5F09022E27490F0D2D875E88075A880AB
:106E660022E0FEEFF4FCEE5CF022EEF0A3EFF0A3DE
:106E7600EDF0A3EBF09022F0E055B9FFE06F22E0D1
:106E8600FAA3E0FBEA9022E3F0A3EBF022E5A8F0F8
:106E9600E4F5A89022EBE0229022F1E055BAFFE05B
:106EA6006F229022F2E055BCFFE06F22EF4404FF10
:106EB6009022EBE054E7F022AF058F9AD2D8538F99
:106EC600BF22E0FEEFF4FFEE5FF022FFE054033353
:106ED600333354F8FEEF4E22EF9022E0F0E4F59AB9
:106EE60022E0F5E8AF018FE92254012FFFE0FDA86B
:036EF60006082269
:10B1A800ED24FF92FCEF6033EB4A700A901303E042
:10B1B8007004007F11229022E1746EF0126E8A9062
:10B1C8001303E09022E5F0A3E054E7F0E04480F0B8
:10B1D800D2EC9022E0E04420F08009C2EC9022E01A
:07B1E800E054DFF07F0022BC
:10BCBE00900D1CEFF020E0069022E07498F0902793
:10BCCE0083E4F012C9B0902780E4F0A3F0900D1C2D
:0EBCDE00E030E007902203E0547FF07F002268
:10BF6A009022E074D8F090278074F6F0A37423F03E
:10BF7A0012BF84EF600312BF842212C9B0E4FD7FAE
:07BF8A00107E27128DB0228A
:109B4E00901361EFF0A3EDF0A3EBF0E4FFFE9013A2
:109B5E0061E0FDA806088002C313D8FC90136212C0
:109B6E006EEF8002C313D8FC901363126EEF800267
:109B7E00C313D8FC54012FFF0EEEB407D1EFC394DC
:109B8E00024004007F1122E4FFFE12BD75AFA8AEA5
:109B9E00E8ADE9901361E0547FF5A8A3E0F5E8A3E2
:109BAE00E0F5E943A8807587010000E4F5A88DE98A
:069BBE008EE88FA8FF22D3
:105D7200900D1C126E706002800C126E9E6002808A
:105D820005126EA86004007F1522900D1FE0D394C7
:105D9200034004007F112212C9B0E4900D26F0FFE7
:105DA200FE12BD75900D21126E93900D27F0902278
:105DB200E1E0900D25F09022E0E0900D24F0902299
:105DC200E6E0900D23F0900D22126E32900D20E04D
:105DD200FC9022E630E706E0547FF08004E0448045
:105DE200F09022E6C083C082E0900D1F126ED1D0E7
:105DF20082D083F0900D1C126E85900D1E126E5390
:105E02007FB9EC30E004EF54DFFF900D20E030E189
:105E120003126EB2126EDEE5D220E5FB126E066F41
:105E2200701DAF06A3E06F7016AF04A3E0B5040FB8
:105E3200758702000000000000000000008006904C
:105E42000D267412F0126EBE900D22126EE7900DA6
:105E520024E09022E0F0900D23E09022E6F0900DF5
:105E620025E09022E1F0900D27E09022EBF0900DDA
:105E720021E0F5A8900D26E0600100E4FD7F107E90
:0A5E820027128DB0900D26E0FF22DC
:10650C009011F3126E706002800C126E9E6002800D
:10651C0005126EA86004007F15229011F6E0D3944A
:10652C00034004007F1122E49011FDF07F107E27C0
:10653C0012BD759011F8126E939011FEF09022E13D
:10654C00E09011FCF09022E0E09011FBF09022E63C
:10655C00E09011FAF09011F9126E329011F7E0FC04
:10656C009022E630E706E0547FF08004E04480F0AF
:10657C009022E6C083C082E09011F6126ED1D082D8
:10658C00D083F09011F3126E859011F5126E537F3B
:10659C00BAEC30E004EF54DFFF9011F7E030E10388
:1065AC00126EB2126EDEE5D220E5FB126E066F7033
:1065BC001DAF06A3E06F7016AF04A3E0B5040F7512
:1065CC00870200000000000000000000800690110F
:1065DC00FD7412F0126EBE9011F9126EE79011FB61
:1065EC00E09022E0F09011FAE09022E6F09011FC9D
:1065FC00E09022E1F09011FEE09022EBF09011F887
:0C660C00E0F5A89011FDE0FF6001002205
:1076700090129FEF126E7A6002800C126E9E600272
:107680008005126EA86004007F1522E49012A5F018
:107690007F107E2712BD759012A0126E939012A6D5
:1076A000F09022E1E09012A4F09022E0E09012A38A
:1076B000F09022E6E09012A2F09012A1E5E8F0AF7F
:1076C0009A126E37126E587E9B90129FE030E1073F
:1076D000EE4404FE126EB6EE126EDFE5D220E5FB3C
:1076E0009022EDE06580FE9022F0E05EFE9022EEBA
:1076F000E06590FD9022F1E05DFD126E206E701D40
:10770000AE05A3E06E7016AE04A3E0B5040F758756
:10771000020000000000000000000080069012A59A
:107720007412F0126EC09012A1126EE79012A3E0D4
:107730009022E0F09012A2E09022E6F09012A4E0F5
:107740009022E1F09012A6E09022EBF09012A0E0DF
:0B775000F5A89012A5E0FF60010022E8
:10B1EF00EFD394074004007F16227401A80708804C
:10B1FF0002C333D8FCFF9022EAE04FF0EB9022ED30
:10B20F00600BE04FF09022E7126E678009126E67B5
:10B21F009022E7E04FF0ED9022F06005E04FF080D4
:07B22F0003126EC87F00222C
:10B23600EFD394074004007F16227401A807088004
:10B2460002C333D8FCFF9022EBE04FF0EB9022EEE6
:10B25600600BE04FF09022E8126E678009126E676D
:10B266009022E8E04FF0ED9022F16005E04FF0808B
:07B2760003126EC87F0022E5
:10B27D00EFD394074004007F16227401A8070880BD
:10B28D0002C333D8FCFF9022ECE04FF0EB9022EF9D
:10B29D00600BE04FF09022E9126E678009126E6725
:10B2AD009022E9E04FF0ED9022F26005E04FF08042
:07B2BD0003126EC87F00229E
:10966700EFF07F807E387D017C00A3120A53D3027E
:1096770009ECE0FCE4120336E4FBFA79C87842020D
:10968700028F120A537F007E127D7A7C0002093F07
:10969700E47F7BFEFDFC120A53C30209EC1201862C
:1096A70012036AAB07AA06EB4A22ECF0A3EDF0A976
:1096B70007E59A22E0FCA3E0FDE4020331C3EB9443
:1096C70020EA940322AD03EDF0EAFF22FFE0FCA3BA
:1096D700E0FD22AD03EDF0EAFF22E47F7BFEFDFC17
:0896E70022FFE0FCA3E0FD22DC
:05C3D4007481F07F01FF
:10C3D900ED600543F908800353F9F7EF600443E979
:06C3E900082253E9F722CF
:0BC8B100EF6004439A0822539AF7221C
:10A31D009012BE1296B120E304007F1222C3901258
:10A32D00BFE09B9012BEE09A5004007F1122902551
:10A33D00867420F0E960399012BEE0FEA3E090250E
:10A34D0083F0EEF9902582F09025851296CC90251C
:10A35D0084F09025867409F0902583EDF090258288
:10A36D00EFF09012BEA3E0902585F0902584E9F0E2
:07A37D00E49012C2F0FF2280
:10B55D00E59A20E304007F12221296C45004007F66
:10B56D0011229025867420F0EF601E902583EBF05C
:10B57D00EA902582F0A3E0902585F0902582E09059
:10B58D002584F090258612C3D4E4901308F0FF2291
:109F5A00901259129667501A90125A1296975002F6
:109F6A00801090125EE0FFD394635006EFC3940111
:109F7A005004007F112290125A129689901260EEB4
:109F8A00F0A3EFF090125E129679C004C005C006E5
:109F9A00C0079012601296BBD003D002D001D00045
:109FAA001296A47003FA7B01901259E09012601283
:0E9FBA0096D390125FE09012C2F012A31D2207
:0BC8BC00EF6004439A1022539AEF2211
:10A384009012C41296B120E404007F1322C39012E9
:10A39400C5E09B9012C4E09A5004007F11229025DE
:10A3A4008E7420F0E960399012C4E0FEA3E0902599
:10A3B4008BF0EEF990258AF090258D1296CC90259D
:10A3C4008CF090258E7409F090258BEDF090258A01
:10A3D400EFF09012C4A3E090258DF090258CE9F065
:07A3E400E49012C8F0FF2213
:10B59D00E59A20E404007F13221296C45004007F24
:10B5AD00112290258E7420F0EF601E90258BEBF00C
:10B5BD00EA90258AF0A3E090258DF090258AE09001
:10B5CD00258CF090258E12C3D4E490130DF0FF223C
:109FC800901262129667501A901263129697500276
:109FD8008010901267E0FFD394635006EFC394019A
:109FE8005004007F1122901263129689901269EE34
:109FF800F0A3EFF0901267129679C004C005C0066E
:10A00800C0079012691296BBD003D002D001D000CD
:10A018001296A47003FA7B01901262E09012691202
:0EA0280096D3901268E09012C8F012A3842222
:0BC8C700EF6004439A2022539ADF2206
:10A3EB009012CA1296B120E504007F1422C390127A
:10A3FB00CBE09B9012CAE09A5004007F112290256B
:10A40B00967420F0E960399012CAE0FEA3E0902523
:10A41B0093F0EEF9902592F09025951296DA90250F
:10A42B0094F09025967409F0902593EDF090259279
:10A43B00EFF09012CAA3E0902595F0902594E9F0E7
:07A44B00E49012CEF0FF22A5
:10B5DD00E59A20E504007F14221296C45004007FE2
:10B5ED0011229025967420F0EF601E902593EBF0BC
:10B5FD00EA902592F0A3E0902595F0902592E090A9
:10B60D002594F090259612C3D4E4901312F0FF22E6
:109D980090126B129667501D1296E190126C1296F3
:109DA8009D50028010901270E0FFD394635006EF2C
:109DB800C394015004007F112290126C129689906E
:109DC8001272EEF0A3EFF0901270129679C004C0F0
:109DD80005C006C0079012721296BBD003D002D0FD
:109DE80001D0001296A47003FA7B0190126BE090E8
:109DF80012721296E8901271E09012CEF012A3EB54
:019E08002237
:0BC8D200EF6004439A4022539ABF22FB
:10A452009012D01296B120E604007F1522C390120A
:10A46200D1E09B9012D0E09A5004007F11229025F7
:10A472009E7420F0E960399012D0E0FEA3E09025AE
:10A482009BF0EEF990259AF090259D1296DA902590
:10A492009CF090259E7409F090259BEDF090259AF2
:10A4A200EFF09012D0A3E090259DF090259CE9F06A
:07A4B200E49012D4F0FF2238
:10B61D00E59A20E604007F15221296C45004007F9F
:10B62D00112290259E7420F0EF601E90259BEBF06B
:10B63D00EA90259AF0A3E090259DF090259AE09050
:10B64D00259CF090259E12C3D4E4901317F0FF2291
:109E0900901274129667501D1296E190127512966F
:109E19009D50028010901279E0FFD394635006EFB1
:109E2900C394015004007F112290127512968990F3
:109E3900127BEEF0A3EFF0901279129679C004C06C
:109E490005C006C00790127B1296BBD003D002D082
:109E590001D0001296A47003FA7B01901274E0906D
:109E6900127B1296E890127AE09012D4F012A45262
:019E790022C6
:0BC8DD00EF6004439A8022539A7F22F0
:10A10F009012D61296B120E704007F1622C3901248
:10A11F00D7E09B9012D6E09A5004007F1122902531
:10A12F00A67420F0E9603C9012D6E0FEA3E09025E3
:10A13F00A3F0EEF99025A2F0AD039025A5EDF0EA7E
:10A14F00FF9025A4F09025A67409F09025A3EDF0BB
:10A15F009025A2EFF09012D6A3E09025A5F09025C0
:0AA16F00A4E9F0E49012DAF0FF22F8
:10B65D00E59A20E704007F16221296C45004007F5D
:10B66D0011229025A67420F0EF601E9025A3EBF01B
:10B67D00EA9025A2F0A3E09025A5F09025A2E090F8
:10B68D0025A4F09025A612C3D4E490131CF0FF223C
:109CB00090127D129667501D1296E190127E1296B8
:109CC0009D50028010901282E0FFD394635006EF03
:109CD000C394015004007F112290127E1296899045
:109CE0001284EEF0A3EFF0901282129679C004C0B5
:109CF00005C006C0079012841296BBD003D002D0D4
:109D000001D0001296A47003FA7B0190127DE0FF4F
:109D1000901284E0FCA3E0FD901283E09012DAF050
:049D200012A10F225B
:04184E004113210021
:10758400E0FFE4FCFDFE1209D1901332120A5F9071
:107594001332120A477808120A10901332120A5F43
:1075A40090133222E0FFE4FCFDFE1209D190133661
:1075B400120A5F901336120A477808120A109013C1
:1075C40036120A5F90133622EFF0900DDC120A4750
:1075D40078081209FD900DDC120A5F900DDC020A96
:1075E40047EFF0900D52120A4778081209FD900DEA
:1075F40052120A5F900D52020A47902780E054FE0F
:10760400F022AC02AD017B107A007E21227F0412AD
:10761400BC6090219F7401F022E4F0902780E02266
:10762400E0FFE4FCFDFE22AC02AD01E0FB7A0022A7
:10763400120AECAE02AF01C3EE942322AC02AD01F8
:107644007B087A007E2122AE02AF017B087A007C9F
:107654002122120A5FE4FB902780E022900DD802D9
:0C7664000ACCE04404F090219FE4F022E6
:10C05100900CFE12761D20E00AE04401F0900CFEE7
:10C061007401F07F0012760612A036900CFEE0609B
:05C07100031275FE2220
:10C0760090139312761D20E00AE04401F09013938A
:10C086007401F07F3012760612A036901393E060AA
:05C09600031275FE22FB
:10C3EF00E4FE902780E020E006E04401F07E01901B
:0BC3FF002140EFF0EE60031275FE22FB
:10BC0200900DDC12765620E005E04401F00B12752F
:10BC1200DF9021411275CC9021421275CC902143C4
:0FBC22001275CC902144EFF0EB60031275FE22F7
:10BECA00E4900CFEF0902780E020E00AE04401F0C4
:10BEDA00900CFE7401F07F4512764012A036900C49
:08BEEA00FEE060031275FE2268
:10C40A00E4FE902780E020E006E04401F07E0190FF
:0BC41A002110EFF0EE60031275FE220F
:10BC3100900D5212765620E005E04401F00B12758A
:10BC4100F89021111275E59021121275E5902113DA
:0FBC51001275E5902114EFF0EB60031275FE22DF
:10BEF200E4900CFEF0902780E020E00AE04401F09C
:10BF0200900CFE7401F07F1512764012A036900C50
:08BF1200FEE060031275FE223F
:06C9CF00902140E0FF2270
:10BCEC0090214412762412758D120A53902143121E
:10BCFC007584120A53902142127584120A539021B2
:0EBD0C00411276241209D112759E120A4722A6
:08C981007D4512764B02A03641
:06C9D500902110E0FF229A
:10BD1A009021141276241275B1120A53902113122B
:10BD2A0075A8120A539021121275A8120A5390216B
:0EBD3A00111276241209D11275C2120A472284
:08C989007D1512764B02A03669
:08C99100EF547F902194F02285
:08C99900EF547F902195F0227C
:10C73E00EF9021936005E04440F022E054BFF022D8
:10C74E00EF9021936005E04420F022E054DFF022C8
:10BC6000EF7002800CEFD3941040028004EF30E0BC
:10BC700004007F1A22EFC31314FF902193E054E3D2
:0FBC8000F0E0FEEF25E025E0FFEE4FF07F002221
:09C00500902780E04401F07F0364
:10C00E00EFD394034004007F1122902193E054FC5F
:0DC01E00F0E0FEEF5403FFEE4FF07F002234
:10682300900DD2EDF0900DCF127634400DD3EF944E
:10683300FFEE94245004007F1822127660E41206BF
:10684300FB900DD2E0FED394794004007F1622EE34
:10685300B40104007F172212C005900DD3120A471A
:1068630012BC02900DD7E0FF12C3EFE4FF12C991EF
:10687300127611900DD2E02402902300F0900DCFF8
:10688300120ACC900DD212762B7F017E2312A036F2
:10689300902007E4F0900DD2E02402902008F090BD
:1068A3000DDB7412F0902180E054FBF09020031272
:1068B300766690131DF0A3F0902180E030E207E4A8
:1068C300900DDBF0801690131DE475F0011207CCD8
:1068D30090131DE0B402E1A3E0B458DC900DDBE0BB
:1068E3007030900DD2E02404FF127660EF1206FBA5
:1068F300127616900DCF120ACCAE02AF011276605B
:10690300120693FB7A007D017C2312A03690219F0F
:0E691300E4F01275FE900DDBE0FF6001002243
:105FA600900D48EDF0900D45127634400DD3EF94E8
:105FB600FFEE94245004007F1822900D4E120ACC56
:105FC600E41206FB900D48E0FFD3947D5006EFC324
:105FD60094045004007F162212C005900D49120A3F
:105FE6004712BC31900D4DE0FF12C40AE4FF12C9FE
:105FF60099127611900D48E02402902400F0900D3D
:1060060045120ACC900D4812762B7F017E2412A0F1
:1060160036902087E4F0900D48E02402902088F026
:10602600900D517413F0902180E054FDF090208380
:1060360012766690131FF0A3F0902180E030E107FE
:10604600E4900D51F0801690131FE475F0011207CD
:10605600CC90131FE0B402E1A3E0B458DC900D51DC
:10606600E0704990219F04F0900D45120ACCAE02D3
:10607600AF01900D48E0FB7A007D017C2412A0362A
:10608600900D48E0FFE42FF582E43424F583E070B8
:1060960010EF24FCFF900D4E120ACCEF1206FB8087
:1060A60006900D517414F090219FE4F01275FE9045
:0860B6000D51E0FF6001002222
:101852004110800042107E00004210C20000411080
:021862007D55B2
:10C1DB00120ACC8F827583001206AC902542F0E4D4
:10C1EB00F583D2AF22902540E054BFF0E04440F0FD
:02C1FB00E4223C
:0BC8E800EF60044398802253987F22E9
:0EC7E600439810D2B7E4FB7D017F0702832643
:07C80E00E4901080F07F01AF
:06C81500EF24FF92B722A0
:1071CF009012DDEBF0AA07E59820E704007F10226C
:1071DF009012DEE0FED394094004007F1122EE24CA
:1071EF00FE601314601824FA601C2408702090129B
:1071FF00DF7405F080209012DF7403F08018901276
:10720F00DF7404F080109012DF740BF0800890127E
:10721F00DEE02402A3F0902540E4F0902543F090A7
:10722F002540C083C082E0FF9012DFE0FE5403FCD4
:10723F00EF4CD082D083F0902543E0FFEE540C1337
:10724F0013543FFEEF4EF0EA605AA2AFE4339012B0
:10725F00E0F0C2AFED24FF92FD9012DDE030E403C9
:10726F0012C7E6902540C083C082E0FF9012DDE098
:10727F00FE541CFDEF4DD082D083F0902540E044AA
:10728F00C0F0D2EDEE20E412E4FF90107DE09025E7
:10729F0042F0E4F5830FEFB410F09012E0E024FF1A
:0E72AF0092AF8007902540E4F0C2ED7F0022F0
:10C30100AE07E4FF12C815C2AF902542EE12C1E993
:0FC31100901080E060FA12C80E9010C1E0FF2279
:10B7D000901364120AECEDD394104004007F112200
:10B7E000E4901080F0FF12C815EFC39D500BC2AF5C
:10B7F00090136412C1DB0F80F0901080E0B5050358
:0BB80000D38001C350F312C80E1F22BA
:10C50D0012C1F0FEC2AF902542EF12C1E90EEEB49A
:08C51D0010F290107DEFF022F6
:10BB4100901367120AECEDD394104004007F112288
:10BB510012C1F0FFC2AF90136712C1DB0FEFB41037
:10BB6100F3901367120ACC12069390107DF07F00B8
:01BB710022B1
:10B41A009010C2A3E0FFC390107FE09FFFEF543F5C
:10B42A00602C9010C2E0FEA3E02481F58274103EE5
:10B43A00F583E01206FB9010C3E02401FF9010C2CE
:10B44A007E00EF543FFFEEF0A3EFF07F01227F0072
:01B45A0022CF
:1093A5007FF07EFF7D077C00120A53D30209ECADE6
:1093B50007AC06ECF07C00E4120331783FE4FBFADD
:1093C500F912009502036AEFF0A3EDF0A3EBF0E5C7
:1093D5009822C3E49BFFE49AFE740199FDE498FC8E
:1093E500020A5FE024FF92AF7F0022E4901222FE82
:1093F500FDFC020A53AF03E4FCFDFE120A5302080A
:10940500B4E47B03FAF9F8020A47E0FEA3E0FFC3E0
:10941500E49FFFE49EFE22900D02020A5FFB120A02
:109425004778080209FD90128A120A5F90128A2273
:0BC8F300EF6004439801225398FE22DE
:10931500900CFE1293CC20E004007F1322900D01E7
:10932500E0FBD394624004007F1722A2AFE43390A0
:109335000D06F0C2AF900D02120A6B000007D09027
:109345000D021293FA12941C900D02129406120942
:109355003FE4FDFC12941C900D02120A53900D027D
:109365001293D7900D02120A4790133CEFF0900D1F
:109375000212942290133AEFF08B8AF58C5389F000
:10938500438901900CFFE024FF92B9A3E024FF92EA
:109395008C900CFEE024FF92A9900D061293E82212
:10AF5E00A907E59820E004007F1322A2AFE4339006
:10AF6E0012E6F0C2AF9012E412940F90133CEFF081
:10AF7E00EEFF90133AF090133CE0F58A8F8C5389D4
:10AF8E00F0438901ED24FF92B9EB24FF928CE92462
:0AAF9E00FF92A99012E61293E82238
:0BC8FE00EF6004439802225398FD22D3
:1095DD009012861293CC20E104007F142290128900
:1095ED00E0FBD394624004007F1822A2AFE43390D5
:1095FD00128EF0C2AF90128A120A6B000007D09043
:10960D00128A1293FA12942B12940612093FE4FD5A
:10961D00FC12942B120A5390128A1293D790128A2D
:10962D00120A4790133DEFF090128A129422901374
:10963D003BEFF08B8BF58D53890F4389109012877B
:10964D00E024FF92BBA3E024FF928E901286E024CB
:0A965D00FF92AB90128E1293E822E8
:10AFA800A907E59820E104007F1422A2AFE43390BA
:10AFB80012ECF0C2AF9012EA12940F90133DEFF02A
:10AFC800EEFF90133BF090133DE0F58B8F8D538986
:10AFD8000F438910ED24FF92BBEB24FF928EE924E6
:0AAFE800FF92AB9012EC1293E822E6
:0BC90900EF6004439804225398FB22C7
:1073AA0090121F1293CC20E204007F15227F05124F
:1073BA0093F0C31209EC500C9012221293A54004C8
:1073CA00007F19227FF87EFF7D037C009012221233
:1073DA0093AD400E9012277440F09012267406F076
:1073EA0080447FFC7EFF7D017C009012221293ADC7
:1073FA00400E9012277420F09012267405F0802611
:10740A00E47FFE7EFFFDFC9012221293AD901227BC
:10741A00400B7410F09012267404F080097408F07E
:10742A009012267403F07F081293F01208B4C00772
:10743A00901227E0FBE4FAF9F8D00712093FE412A8
:10744A00032C78BF1293C29012281293B4A2AFE40D
:10745A0033FEC2AF53A9F090121FE06027901228A2
:10746A00E0F5AA8FAC901220E024FF92F9A3E06025
:10747A000C901226E025E0440142A9800353A9FE9C
:0D748A00D2E98002C2E9AF06EE1293E922BA
:0BC91400EF6004439808225398F722BC
:106A1E009012291293CC20E304007F1622E47F0506
:106A2E0090122C1293F4C31209EC500C90122C12EB
:106A3E0093A54004007F1A227FF87EFF7D037C0021
:106A4E0090122C1293AD400E9012317440F09012B1
:106A5E00307407F080447FFC7EFF7D017C00901235
:106A6E002C1293AD400E9012317420F090123074AF
:106A7E0006F08026E47FFE7EFFFDFC90122C129322
:106A8E00AD901231400B7410F09012307405F080FE
:106A9E00097408F09012307404F0E47F08FEFDFCD7
:106AAE0090122C129400C007901231E0FBE4FAF918
:106ABE00F8D00712093FE412032CE4FBFAF978BF71
:106ACE001293C69012321293B4A2AFE433FEC2AF49
:106ADE0053A90F901229E06029901232E0F5AB8F86
:106AEE00AD90122AE024FF92FBA3E0600E901230CC
:106AFE00E0C43354E0441042A9800353A9EFD2EB13
:0B6B0E008002C2EBAF06EE1293E922FA
:105C52000709433B0B0709433B0B0707433B0B0772
:105C6200078B3B0B07078B040B07078B0404070703
:105C72008B0404040B048B061705078B0404040D24
:105C82008B0404040D000B0B040400008B061705A3
:105C920000000617050000001705000000000500BF
:105CA20000000000040700000000070000000000E0
:105CB2001D0B000001000B000001000000000100AC
:105CC20000000001000000000100000000000000D0
:105CD20000000000000000000000000000000000C2
:105CE20000000000000000000000000000000000B2
:105CF20000000000000000000000000000000000A2
:105D02000000000000000000000000000000000091
:105D1200C393C7712FEE93C7712FEE77C7712FEE22
:105D22007703712FEE7703342FEE7703341AEE7771
:105D320003341A0D658B021703077703341A0D0219
:105D420003341A0D02001A0D12090000021703078C
:105D5200000017030700000003070000000007000F
:105D62000000000007020000000002000000000026
:10186400420E1E0000420E140000420E22000042EE
:101874000E180000410E1C01420E200000420E16FC
:101884000000420E240000420E1A0000410E1D0109
:10884600E4FAF9F8901346120A4712B351EF2430AE
:10885600902510F0901346020A47E4FAF9F812B38D
:1088660051AC00AD01AE02AF03901346020A5FFFA2
:10887600C3E09FFF7E00EF543FFFAD01ED24FF22D2
:10888600FF120ACCEF1206FB90138FE0FF9011E364
:10889600E075F006A422F583E5822FF582E43583A0
:1088A600F583E49322E433F0C2E8A2ACE43322E495
:1088B60033F0C2E8A2AEE43322A2AFE433FFC2AF84
:1088C60022C374409FFFE49EFED3EF9403EE940010
:1088D60022E4F0A3E0543FF022E01206FBE4F58325
:1088E600EF24FF92AF7F0122120ACC8F827583009C
:0388F6000206ACCB
:105889009011D9120AECE49011E2F0120BD158FBF5
:105899000000012C590200000258590A000004B006
:1058A900591200000960591A000012C0592200005B
:1058B9002580592A00003840593200004B00593AD6
:1058C9000000960059420000DAC0594A0000E10080
:1058D90059520001C200595A000384005962000755
:1058E9000800596A0008CA005972001194000000A2
:1058F900597AE49011E3F0807E9011E37401F0800D
:10590900769011E37402F0806E9011E37403F080D5
:10591900669011E37404F0805E9011E37405F080E1
:10592900569011E37406F0804E9011E37407F080ED
:10593900469011E37408F0803E9011E37409F080F9
:10594900369011E3740AF0802E9011E3740BF08005
:10595900269011E3740CF0801E9011E3740DF08011
:10596900169011E3740EF0800E9011E3740FF0801D
:10597900069011E27412F09011E2E0704912888EDB
:105989002452F582E4345C12889C9011D9128886DD
:1059990024B2F582E4345C12889C9011DC1288866A
:1059A9002412F582E4345D12889CFF9011DF120AFB
:1059B900CCEF1206FB9011DF120ACC120693700687
:0C59C9009011E27412F09011E2E0FF2255
:0BC91F00EF6004439820225398DF22B1
:10800A00901233EFF0A3EDF0E59820E504007F101D
:10801A0022E4FF901233E06023901235120A477B64
:10802A00017A12793A9011DC120AEC7A120990114B
:10803A00DF120AEC7A1209125889800BE490123C7A
:10804A00F090123AF0A3F0EF600200221288BF907B
:10805A002505E4F09025037480F090123BE090250A
:10806A0000F090123AE0902501F090123CE0902541
:10807A0007F0902503E4F0902507F0901233E060B2
:10808A00389025027481F0901239E0FE543F902511
:10809A0003F0902501E4F0EE20E604E04401F090BC
:1080AA001239E020E707902501E04402F0D2AC90B3
:1080BA001234E024FF92BC8009902501E4F0C2AC9E
:0A80CA00C2BCEF24FF92AF7F00223A
:10C24000A2E89013941288ABF9C2AC900E14A3E04C
:10C25000900E1F12887592AC901394E024FF92E820
:01C2600022BB
:10C26100A2E8900DC81288ABF9C2AC900E18A3E0F9
:10C27100900E2312887592AC900DC8E024FF92E8CD
:01C28100229A
:10A8E200AC0712C2611288C740F8A2E8E433FF1233
:10A8F20088AEFEC2AC900E1CE06010E4F0C2AF90D5
:10A902002500ECF0E4F583D2AF8022900E22E0FA2B
:10A91200A3E024A6F582740E3AF583ECF0900E22A1
:10A92200E475F0011207CC900E221288D7EE24FFB4
:08A9320092ACEF24FF92E82231
:10AB980090133E120AEC12C240EF4E7002FF22A23E
:10ABA800E8E4339013411288ADFFC2AC900E14E470
:10ABB80075F0011207E2FC742625F0F582740E3C4C
:10ABC800F583E0FE90133E120ACCEE1206FB900EBF
:10ABD800141288D7EF24FF92AC901341E024FF921F
:04ABE800E87F0122DF
:10C63E00E4FF900E1CE070010F902505E020E5024E
:03C64E007F012247
:10AE7A00900DC8120AEC902501E030E1037F1322FD
:10AE8A00EDD3941040037F1422902505E030E5F9B4
:10AE9A00E4FFEFC39D5022A2AFE433900DCBF0C282
:10AEAA00AF900DC81288EE902500F0E4F583900D5E
:0CAEBA00CBE024FF92AF0F80D97F002274
:10ABEC00902505E030E00A1288BF9025001288DF1E
:04ABFC00227F002292
:0BC92A00EF6004439840225398BF22A6
:1080D40090123DEFF0A3EDF0E59820E604007F1048
:1080E40022E4FF90123DE0602390123F120A477B86
:1080F400017A1279449011DC120AEC7A1209901177
:10810400DF120AEC7A1209125889800BE4901246A5
:10811400F0901244F0A3F0EF600200221288BF90A6
:108124002515E4F09025137480F0901245E0902515
:1081340010F0901244E0902511F0901246E0902542
:1081440017F0902513E4F0902517F090123DE060AD
:10815400389025127481F0901243E0FE543F90252C
:1081640013F0902511E4F0EE20E604E04401F090D1
:108174001243E020E707902511E04402F0D2AE90CC
:10818400123EE024FF92BE8009902511E4F0C2AEB5
:0A819400C2BEEF24FF92AF7F00226D
:10C10900A2E8900D451288B5F9C2AE900E16A3E0CB
:10C11900FFC3900E2112887792AE900D45E024FF5F
:03C1290092E82277
:10C12C00A2E8900D411288B5F9C2AE900E1AA3E0A8
:10C13C00FFC3900E2512887792AE900D41E024FF3C
:03C14C0092E82254
:10A88900AC0712C12C1288C740F8A2E8E433FF12C2
:10A8990088B8FEC2AE900E1DE06010E4F0C2AF9021
:10A8A9002510ECF0E4F583D2AF8023900E24E0FA72
:10A8B900A3E024E6F582740E3AF583ECF0900E24B9
:10A8C900E475F0011207CCE4900E241288D8EE2426
:09A8D900FF92AEEF24FF92E82289
:10AAEE00900D41120AEC12C109EF4E7002FF22A224
:10AAFE00E8E433900D441288B7FFC2AE900E16E410
:10AB0E0075F0011207E2FC746625F0F582740E3CB6
:10AB1E00F583E0FE900D41120ACCEE1206FBE49096
:10AB2E000E161288D8EF24FF92AE900D44E024FF4B
:05AB3E0092E87F0122F6
:10C65100E4FF900E1DE070010F902515E020E5022A
:03C661007F012234
:10AEC600901342120AEC902511E030E1037F132221
:10AED600EDD3941040037F1422902515E030E5F958
:10AEE600E4FFEFC39D5022A2AFE433901345F0C2B6
:10AEF600AF9013421288EE902510F0E4F58390137C
:0CAF060045E024FF92AF0F80D97F0022AD
:10C5EE00902515E030E00A1288BF9025101288DFE2
:04C5FE00227F002276
:108E4E0012886F12885AEC33501812885A1209DEA3
:108E5E0012886F902510742DF0902515E020E508EE
:108E6E0080F79025107420F0E47B107A2712884842
:108E7E00E47B107A27128862902515E030E5F9E43C
:108E8E007BE87A03128848E47BE87A0312886290C2
:108E9E002515E030E5F97B641288467B6412886004
:108EAE00902515E030E5F97B0A1288467B0A128878
:108EBE0060902515E030E5F912885AEF24309025A0
:108ECE0010F0902515E030E5F99025107420F09003
:0D8EDE002515E030E5F9E47F01FEFDFC22E2
:09C96800C2AF75D25575D2AA22A6
:0BC93500EF6004439201225392FE22A7
:10B8B700E59220E004007F1022EDD3940F400400AE
:10B8C7007F1122A2AFE433FEC2AFEF600C12C96A48
:10B8D700ED540F4440F5D2800612C96A75D280AF85
:09B8E70006EE24FF92AF7F00225F
:10BF1A0090FFFF120C0BA2AFE433850D83850E82CE
:10BF2A00F012C96843D240850D83850E82E024FF52
:08BF3A0092AF900001020C0B14
:10BD7500A2AFE433FCC2AFEF4E600E90137FEEF03E
:10BD8500A3EFF07D0F7F018009E490137FF0A3F00E
:0DBD9500FDFF12B8B7AF04EC24FF92AF22FF
:10C55500EFD3940F4004007F112212C968EF540FE6
:07C56500F5D243920180FEB4
:10B45B00900D41120AEC7F007E10E4900D44F0FD3C
:10B46B00EF2DF582E43EF583E493FC900D44E02C44
:10B47B00F0900D41120ACC8D82758300EC12070DF2
:10B48B000DEDB440DB900D44E070037F01227F0093
:01B49B00228E
:041894004113950067
:10C60200F0C2AF9027A6E04480F0E4F583D2AF9069
:04C612001395F0226A
:0BC94000EF6004439940225399BF228E
:10987600E59920E604007F1022E4901395F09027E6
:10988600AA04F09027A974A5F0EB600D9027ACE42C
:10989600F09027AB748CF080109027AAE09027AC4C
:1098A600F09027A9E09027ABF09027B2E4F090273C
:1098B600B17464F09027AF745AF0A374B4F0902793
:1098C600ADF0A3745AF090134DE09027A2F09027C4
:1098D600A6742FF0ED600543F901800353F9FEEFFE
:0D98E600600543E901800353E9FE7F002285
:10B96100E59920E604007F10229027A4EFF09027AC
:10B97100A77408F0A3742912C6027F12FDFC90136C
:10B9810095E06004E4FF800B0DBD00010CBC75EE79
:08B99100BD30EBEF6001002264
:10BB0F00E59920E604007F10229027A77406F0A382
:10BB1F000412C6027F11FDFC901395E06004E4FF50
:10BB2F00800B0DBD00010CBC75EEBD30EBEF60015D
:02BB3F000022E2
:10BB72000A0D2045564B203A204C49422056322E7F
:10BB8200350000000000000000000000000000007E
:10BB920000000000000000000000000000000000A3
:108EEB00A37429F004F004F07429F004F004F07476
:108EFB0029F004F004F022900D1F7412F0A37403F8
:108F0B00F0A32274039022CFF09022CE22900D1F5B
:108F1B007413F0E4A3F0A322F0A3F0A3F0A3F0A347
:108F2B00F0A3F022900D1F7413F0A37401F0A32291
:108F3B0074029022CFF09022CE22F09022497463DB
:108F4B00F0A37455F0229022B0E04401F0E4FEFF50
:108F5B0022F07464A3F0A37404F02274C0F0A37421
:108F6B0070F090223C7490F02224A69022BFF090D7
:0D8F7B0022BEE4F022A3F0A37450F0A32264
:1098F300EFD394054025902232743AF0A37434F0E8
:10990300902238128F669022427411F0902245748F
:109913001E128F4590224D7426804C902232744A39
:10992300F0A37416F090224214F09022457423F0B1
:10993300EFC39405902238401A128F66902249741F
:1099430021F0A304F090224D04F0A37499F0A374C2
:1099530007F0227450F0A374B0F090223C745012BC
:0B9963008F4590224D7412128F5C2281
:107CB40090278074F6F0A37423F09022B07440F0FF
:107CC4009022C67480F09022C274B0F09022117495
:107CD40002F090220C7405F09022207480F0A3E44A
:107CE400F0A37485F09022B97402F0A37463F09049
:107CF40022B774CFF0A3E4F09022C8745FF0A374A9
:107D040009F0EF30E0047E0E80027EA29022CAEEDB
:107D1400F07408128F5FA3E4F0740B128F10740FC9
:107D2400F0902230744AF0902232F0A37416F0EFEF
:107D340030E0047E4B80027E4D902235EEF0EF3031
:107D4400E0047FC680027FCD902236EFF0745C128F
:107D54008F8074B0F090223B7450F0A3F0902240D6
:107D64007420F0A3F0A37415F0A37410F0A3F0A38F
:107D74007423128F45A374E1F090224D7412128F74
:0E7D84005C90221D7485F09022E1746EF02256
:10A93A00AE07EE6003B4010790222174018010EE85
:10A94A00902221B40208E4F0A374E5F08006E4F052
:10A95A00A37485F0AF061298F3EED39405400D90D8
:10A96A0022197410F09022CA74D5F022EEC394050D
:10A97A00902219400A7410F09022CA74AAF022E4B4
:08A98A00F09022CA74A2F02231
:10572F00E4900D1EF0EF8EF0120BA4577E09655713
:10573F0087096A5790096F5799097457A2097957C2
:10574F00AB097E57B4098357BD098857C6098D57D2
:10575F00CE099257D6099757DE099C57E609A157EC
:10576F00EE09A657F609AB57FE09B000005806120E
:10577F008F027428F002580C128F027450F00258E6
:10578F000C128F027478F002580C128F0274A0F072
:10579F0002580C128F0274C8F002580C128F027448
:1057AF00F0F002580C128F187418F002580C128F68
:1057BF00187440F002580C128F187468F0803E1263
:1057CF008F187490F08036128F1874B8F0802E12E4
:1057DF008F1874E0F08026128F2F7408F0801E123D
:1057EF008F2F7430F08016128F2F7458F0800E1296
:1057FF008F2F7480F08006900D1E7417F0900D1E81
:10580F00E0FF6001229022BE74C0F09022B47401B8
:10581F00F0900D1FE09022B1F0900D20E09022B299
:10582F00F0900D21E09022B3F09022B0E04401F00F
:10583F00900D1E7414F0E4FFFE9022BDE030E007DF
:10584F00E4900D1EF0800B0FBF00010EBE27EABFC4
:10585F0010E7900D1EE0601C128F519022BDE030BA
:10586F00E007E4900D1EF0800B0FBF00010EBE2766
:09587F00EABF10E7900D1EE0FFE6
:0158880022FD
:085B160090136AEEF0A3EFF01A
:105B1E00C3945AEE9409401090136AE0FCA3E0FD82
:105B2E00D394CBEC940940037F112290136C74171D
:105B3E00F0ED8CF0120BA45B8909655B8B096A5B37
:105B4E0092096F5B9909745BA009795BA7097E5B6B
:105B5E00AE09835BB509885BBC098D5BC309925B9B
:105B6E00CA09975BD1099C5BD809A15BDF09A65BCB
:105B7E00E609AB5BE609B000005BF180009022C243
:105B8E0074D280599022C274D180529022C274D1A4
:105B9E00804B9022C274D180449022C274D0803D3A
:105BAE009022C274D080369022C274D0802F902260
:105BBE00C274D080289022C274CF80219022C274E9
:105BCE00CF801A9022C274CE80139022C274CE80DF
:105BDE000C9022C274CE80059022C274CDF0E49057
:105BEE00136CF090136CE0FF6001229022B0E04441
:105BFE0002F090136AA3E0128F7490136C7414F079
:105C0E00E4FFFE9022BDE030E007E490136CF080DC
:105C1E000B0FBF00010EBE27EABF10E790136CE01A
:105C2E00601C128F519022BDE030E007E490136C9F
:105C3E00F0800B0FBF00010EBE27EABF10E79013D6
:035C4E006CE0FF08
:015C51002230
:1086D900C3EF9465EE94094009D3EF94B0EE940981
:1086E90040037F1122C3EF94B0EE94094005902214
:1086F900C28033C3EF949CEE940940089022C2745F
:10870900B3F08025C3EF947EEE940940089022C20D
:1087190074B4F08014C3EF9465EE94099022C240BA
:108729000574B5F0800374B2F0D3EF947EEE94092A
:108739009022B950057422F080037402F09022B09F
:10874900E04402F0EF128F747D14FFFE9022BDE029
:1087590030E004E4FD800B0FBF00010EBE27EDBF22
:1087690010EAED6019128F519022BDE030E004E467
:10877900FD800B0FBF00010EBE27EDBF10EAE4FE1E
:08878900FF600312572FAF053A
:0187910022C5
:0CC83F009022BFE0245AFFE43409FE22DE
:105E8C00EF120B7E5ED9005EE0015EED025EF60362
:105E9C005EFD045F04055F0B065F12075F19085F68
:105EAC0026095F2D0A5F3A0B5F410C5F480D5F5569
:105EBC000E5F610F5F68105F75115F7B125F82135D
:105ECC005F89145F90155F9C1600005FA59022CF30
:105EDC00740B80059022CF7404F09022CE740FF0D6
:105EEC00227405128F3D740BF022128F0E740AF07F
:105EFC0022128F3B7409F022128F0E7407F02212BB
:105F0C008F0E7406F0229022CF740380059022CF5E
:105F1C007401F09022CE7405F022128F3B7404F0C1
:105F2C00229022CF7407F09022CE7403F02290229C
:105F3C00CF740280199022CF740C80059022CF74FC
:105F4C0004F09022CE7402F0229022CF7401F090D3
:105F5C0022CE04F0229022CF741F80059022CF74A1
:105F6C000FF09022CE7401F022128F3B14F022908D
:105F7C0022CF7401801E9022CF741F800C9022CFF0
:105F8C00740880059022CF7401F09022CEE4F022A8
:0A5F9C009022CFE4F09022CEF02214
:10A17900EFB401079022707424F022EF64026005A5
:10A18900EF6403703990278074FEF09022197401EE
:10A19900F09022707427F0902280E030E0F990224C
:10A1A900807423F0A37407F0EF902270B403057450
:10A1B90077F080037422F09022817460F022902756
:10A1C9008074F6F0902219E4F09022807480F0A354
:0AA1D900746CF09022707480F02284
:10C61600EF9022926008740EF0A37402F022740167
:04C62600F0A3F0226B
:08C9A100902290E054C0F02246
:10A1E300EF30E00C902720E4128F23A3128F232259
:10A1F300EF90272030E7297404F0A374E2F0A374EE
:10A2030004F0A374E2F0A37414F0A37410F0A3E4B5
:10A21300F074FA128F80F0A374A0F0A37464F02298
:10A223007402F0A37471F0A37402F0A37471F0A329
:10A23300740AF0A37408F0A3E4F0A3747CF0A3748D
:09A2430028F0128F807432F02221
:10749700902785E090228230E272E4F0000000003D
:1074A70000000000128EEB000000000000000074D6
:1074B70029F00000000000000000000000000000AC
:1074C70000000000000000000000000000000000B5
:1074D70000000000000000000000000000000000A5
:1074E7000000000000000000000000000000000095
:1074F7000000000000000000000000000000000085
:10750700000000000000000000008010E4F0000010
:107517000000128EEB000000007429F0000000004C
:107527000000000000000000000000000000000054
:107537000000000000000000000000000000000044
:107547000000000000000000000000000000000034
:107557000000000000000000000000000000000024
:107567000000000000000000000000000000000014
:0D757700000000007440F090228214F02209
:050006007EBB7F7222A9
:1035AD002023232045413D302C20496E74657272D5
:1035BD007570742044697361626C65642023230007
:1035CD002023232055415254303A496E746572724E
:1035DD007570742044697361626C656420232300E7
:1035ED002023232055415254313A496E746572722D
:1035FD007570742044697361626C656420232300C7
:10360D00202323205541525430203A20496E7465B1
:10361D0072727570742044697361626C65642023E5
:10362D002300202323205541525431203A20496E46
:10363D00746572727570742044697361626C65642F
:10364D00202323000A002025303278000A205B4D0C
:10365D0049425D000A204368616E3D25752028258D
:10366D0075204D487A292C2000202050616E494448
:10367D003D307825303478000A2053686F727441DC
:10368D006464723D30782530347800203A494545E0
:10369D00454164647228307E37293D3078000A2018
:1036AD0044737453686F7274416464723D3078254D
:1036BD0030347800203A447374494545454164647B
:1036CD007228307E37293D3078000A2044617461BC
:1036DD00526174653D3078253032782C2000203AC7
:1036ED0054785077724C6576656C3D307825303264
:1036FD00782C200020204E6F41636B5265747279D7
:10370D003D257500203A4261636B6F6666526574A4
:10371D0072793D2575000A205B52582D4D41432D80
:10372D00504B545D000A2044534E3D3078253032C5
:10373D00782C204F4F423D30782530327800203A9A
:10374D0064426D3D256400203A436F72723D2564DD
:10375D00000A204473742E204D6F64653D25303270
:10376D007800203A50616E49443D307825303478E8
:10377D0000203A53686F7274416464723D3078254D
:10378D0030347800203A4945454528307E37293D6B
:10379D003078000A205372632E204D6F64653D25ED
:1037AD00303278000A204D534455204C656E3D252E
:1037BD00303275203A2000203A4D534455203D00BB
:1037CD000A203D3D3D2048494220446973706C619B
:1037DD0079203D3D3D000A20494545452041444461
:1037ED0052284C53427E4D534229203A000A204321
:1037FD00686970496E646578203D203078253032D7
:10380D00780020284D4732343030290020284D478C
:10381D0032343558290020284D47323437302900AD
:10382D0020284D4732343630290020284D47323478
:10383D00313029002028556E636C61737369666998
:10384D00656429000A204368616E6E656C20202036
:10385D003D20257520282575204D487A29000A2000
:10386D00537461636B49442020203D20307825300E
:10387D003278000A205478506F7765722020203DF1
:10388D00203078253032780020202020446174616A
:10389D005261746520203D20307825303278000A41
:1038AD002050616E494420202020203D2030782575
:1038BD00303278253032780020204E776B416464A9
:1038CD007220203D20307825303278253032780036
:1038DD000A205365634C6576656C20203D20307859
:1038ED00253032780020202020507265436F6E669F
:1038FD006967203D20307825303278000A204E57F8
:10390D004B204B657920284C53427E4D5342292044
:10391D003A000A205265736572765F30284C534227
:10392D007E4D534229203A000A204550494420201B
:10393D002020284C53427E4D534229203A000A2024
:10394D005265736572765F31284C53427E4D5342FA
:10395D0029203A000A2047656E6572616C576F72B7
:10396D006430203D20307825303278253032780093
:10397D000A2047656E6572616C576F726431203D28
:0C398D0020307825303278253032780068
:101898004211340000421136000042113800004263
:0918A800113A000042113C00005D
:1042A3001208A79011C2120A5F9011C2120A53900A
:1042B30011BFE075F064A4FFAEF0E4FCFD1208A7A3
:1042C3009011C2120A5F9011C2120A5375F00A903C
:1042D30011BEE0A4FFAEF0E4FCFD1208A79011C2EA
:1042E300120A5F9011C222120ACC9000191206AC76
:1042F300FFE4900D5AF0A3EFF07BFF229000011230
:104303000823FF900DD3120ACC900DD9E0FDF5825E
:10431300758300EF12070D900DD0120ACC900001A7
:10432300120823E5F0FFED2401FDE433FC900DD3E7
:10433300020ACC8D828C83EF12070D900DD0020AF6
:10434300CCF9E43AFAE4900D53F07D08FC22900D89
:10435300D9E0F582758300ED12070DEEFF900DD9BC
:10436300E0F5827583002290136D120ACC9000044D
:10437300120823FF900D5AE5F0229012B0120ACCD6
:104383001207F8FFE5F0C4F854F0C868FEEFC45410
:104393000F48FFEE8FF012085B9012B5E0229011E8
:1043A300BEE09011BDF09011BFE09011BEF09011EE
:1043B300C0E09011BFF09011C1E09011C0F0E4A3F0
:1043C300F09011BCE014F0229011BFE0FF7E007C5E
:1043D300037DE812072FE4FCFD221206ACFF900DCB
:1043E3005AE4F0A3EFF022120A47E47B107A27F98C
:1043F300F80208B4901370120ACC9000080206ACBD
:10440300FFFD900D5AE4F0A3EDF07E007C007D05E6
:1044130012072FEF242EFFEE3409A3229012B712B6
:104423000ACC020693120A539011BDE0FFE4FCFD8F
:10443300FE22E92401F9E43AFA020693120AEC7B1C
:10444300FF7A3679517F012290136D120ACC9000C6
:10445300020206AC8D828C83EF12070D900DD922D8
:104463001206ACFF900D5CE42274852FF582E434D0
:104473000DF58322E475F0010207CCC4540F120634
:10448300FB9012BCE022EF24D09011BAF09011BC43
:10449300E0C3940422120A539011BAE0FF3395E06B
:1044A300FEFDFC22900DC5E0FFC3944022F0E4F52D
:1044B30083900DCEE024FF92AF2290000C0206AC55
:1044C30090000B0206AC90136D020ACCEFF0A3121E
:1044D3000AECE4222402FFE433FEE92FF9EA3E2248
:1044E300120A539011BDE075F00A22900DD9E07EB7
:1044F3000029F9EE3A22FF900DD6020ACC900DC5A1
:0D450300E004F0229012B0120ACC0207F87A
:10C14F00900DC6EFF0902501E0900DC630E105E0AF
:10C15F00FF02A8E2E0A3F07B017A0D79C77D0112FF
:03C16F00AE7A2283
:10BE4F0090134E120AEC902501E090134E30E0084B
:10BE5F00120ACC12AB988006120ACC12ABEC9013DC
:09BE6F0051EFF0901351E0FF22A5
:10C17200901381EFF0902511E090138130E105E0FA
:10C18200FF02A889E0A3F07B017A1379827D011274
:03C19200AEC62214
:10BE7800901352120AEC902511E090135230E0080A
:10BE8800120ACC12AAEE8006120ACC12C5EE901342
:09BE980055EFF0901355E0FF2274
:109D2400900DCA120AECA2AFE433900DCEF0C2AF8C
:109D3400902500740AF0740DF0902510740AF074E4
:109D44000D1244B0902505E030E5F9902515E0307A
:109D5400E5F9E4900DCDF0900DCA120ACC12C5D9E4
:109D6400900DCDE0C39FE49E5029A2AFE433A3F04D
:109D7400C2AF900DCA120ACC900DCD1243631206E5
:109D8400AC902500F09025101244B0900DCDE00465
:049D9400F080C42275
:109BC400900DC6EFF020AF3D7BFF7A3579AD129C46
:109BD40032900DC6E0700B20AC087BFF7A3579CD4E
:109BE4008010900DC6E0B4010C20AE097BFF7A35DD
:109BF40079ED129C32C2AF75D25575D2AA75D20ACC
:109C040043920180FE900DC6E0700B20AC087BFFF0
:109C14007A36790D8010900DC6E0B4011020AE0D97
:109C24007BFF7A36792FA3120AEC129D2422A31209
:069C34000AEC129D24223F
:10915600900D57120AEC900D56EFF0129BC4E49056
:109166000DC5F01244A7500A12446CE4F0124500F3
:1091760080F17B017A0D795A900D82120AEC900DDE
:1091860057120ACC900DC6120AEC900D82120ACC28
:10919600900DC9120AEC7B017A0D798512B0869082
:1091A6000D56E030E015E4900DC5F01244A7503698
:1091B60012446CE0603012450080F0E4900DC5F07A
:1091C6001244A7502112446CE0FF601A12C14F905E
:1091D6000DC5E0248512446FE0B40A057F0D12C167
:0791E6004F12450080DA2260
:106EF9009012AF1244CF9012B5F0F5F012085B7FF3
:106F0900107E2712BD759012AFE030E04C7B017AFC
:106F19001279B412BE78EF60E6126FDD601290123A
:106F2900B5E0640460D99012B4E0FF12C172804ADE
:106F39009012B4E064087018A3E060147F0812C1CD
:106F4900727F2012C1727F0812C17212437D14F040
:106F59009012B4E0640D70A7227B017A1279B41201
:106F6900BE4FEF609A126FDD603E9012B5E0640487
:106F7900608D9012B4E0FF12C14F124507C4F85456
:106F89000FC868FFE5F0C454F0488FF012085B128F
:106F99004507FF9012B3E0FD3395E045F0FEEF4D54
:106FA90012439504F0026F089012B4E06408701857
:106FB900A3E060147F0812C14F7F2012C14F7F08E0
:106FC90012C14F12437D14F09012B4E0640D6003B6
:106FD900026F08229012B4E0FF12BFB89012B3EF0B
:036FE900F0F4229F
:107A0F009012B61244CF9012BCF01206FB7F107E7C
:107A1F002712BD759012B6E030E04F7B017A1279D4
:107A2F00BB12BE78EF60E6127AE360129012BCE0F0
:107A3F00640260D99012BBE0FF12C172804D9012A8
:107A4F00BBE06408701BA3E060177F0812C1727F50
:107A5F002012C1727F0812C17212441F12447E1489
:107A6F00F09012BBE0640D70A4227B017A1279BBF7
:107A7F0012BE4FEF6097127AE3602A9012BCE06457
:107A8F0002608A9012BBE0FF12C14F12441FC45410
:107A9F00F01206FB12441FFF9012BAE04F124481FE
:107AAF0004F0027A1C9012BBE06408701BA3E06024
:107ABF00177F0812C14F7F2012C14F7F0812C14F8D
:107ACF0012441F12447E14F09012BBE0640D600349
:107ADF00027A1C229012BBE0FF12BFB89012BAEFCD
:037AEF00F0F4228E
:10498A009011B61244CF9011BCF0F5F012085BE416
:10499A009011BDF0A3F0A3F0A3F0A3F07F107E273F
:1049AA0012BD759011B6E020E003024A857B017AB8
:1049BA001179BB12BE78EF60E39011BBE0FFC3949C
:1049CA0030405BEFD3943950551244895003024A60
:1049DA00229011BCE0640470C39011C012442E12DC
:1049EA0042E01243EA1242E0120A53C0001243CBD9
:1049FA00D0001242DD120A5375F0641242D21244F8
:104A0A00E31242D61244981242DD120A47E4FEED3E
:104A1A004C70899011BBE0FF12C172024B099011D0
:104A2A00BBE064087016A3E060127F0812C1727FAF
:104A3A002012C1727F0812C1721243A19011BBE009
:104A4A00640D60030249A69011C112442EA31242BA
:104A5A00E31243EA1242E0120A53C0009011C01254
:104A6A0043CED0001242A31244281242DD120A4752
:104A7A00E4FFFEED4C600122024B8C7B017A117936
:104A8A00BB12BE4FEF70030249A69011BBE0FFC3F1
:104A9A0094305003024B32EFD394394003024B3225
:104AAA00124489500612C14F024B099011BCE064AE
:104ABA000460030249A69011C012442E1242E01269
:104ACA0043EA1242E0120A53C0001243CBD000124A
:104ADA0042DD120A539011BEE075F0641242D612FA
:104AEA0044E31242D61244981242DD120A47E4FE07
:104AFA00ED4C60030249A69011BBE0FF12C14F9032
:104B0A0011C0E0A3F09011BFE0A3F09011BEE0A3A2
:104B1A00F09011BDE0A3F09011BAE09011BDF090B1
:104B2A0011BCE004F00249A69011BBE064087016BB
:104B3A00A3E060127F0812C14F7F2012C14F7F0885
:104B4A0012C14F1243A19011BBE0640D60030249E8
:104B5A00A69011C112442EA31242E31243EA124252
:104B6A00E0120A53C0009011C01243CED000124284
:104B7A00A31244281242DD120A47E4FFFEED4C60FC
:104B8A0001229011C2120A479011B7120ACCEE8F75
:074B9A00F012085B7F01220D
:10B6DD00A2A9E433FEC2A9EF70059011348022EFC8
:10B6ED00B401059011368019EFB402059011388020
:10B6FD0010EFB4030590113A8007EFB404089011D0
:0EB70D003CECF0A3EDF0AF06EE24FF92A92273
:10BBA200EF70059011348019EFB4010590113680C1
:10BBB20010EFB402059011388007EFB4030A901118
:10BBC2003AE0FCA3E0FD8003E4FCFDAF05AE0422F5
:10400700900DD0120AEC120693FF64026004EFB41D
:10401700032012433E900001120823FF901117E07E
:10402700B5F00DA3E0B50708900DDA7401F080072D
:104037008000E4900DDAF012433074011206FB128F
:10404700433E1244BD30E00B124330120693442026
:104057001206FB900DDAE0600B1243301206934410
:10406700401206FB12433E1244BD5430C4540FFFA6
:10407700124330900001EF12070DE92401F9E43AE9
:10408700FAC003C002C001120693FF12433E124456
:10409700BD54C01313543F4FD001D002D0031206B2
:1040A700FB12433E120693FF6027EFB4020A124346
:1040B700301244354408801112433E120693B4036C
:1040C7000D124330124435440C1206FB80037FE87F
:1040D7002212433E1244C3FF6027EFB4020A124381
:1040E700301244354480801112433E1244C3B40356
:1040F7000D12433012443544C01206FB80037FE89B
:1041070022901131E004FFF0124330900002124474
:104117005B7403F012433E12069364027035124239
:10412700FF124336900003120823FF900DD9E024B5
:104137000212432C124336900003120823E5F0FFC6
:10414700900DD9E0240312432C124457E02404F0C5
:1041570002418E12433E1206936403702A12433EB5
:104167001242FF124457E01244D7FEAF0112433EFA
:10417700E92403F9E43AFCAD017B087A0012A03682
:10418700900DD9E0240AF012433E1244C364027032
:1041970054900DDAE06019901119E0FEA3E0FD12CA
:1041A7004330124351A312445BE02402F00242372A
:1041B700901117E0FEA3E0FD124330124351A3EF25
:1041C70012070D901119A3E012435FA3A3EF120783
:1041D7000D901119E012435FA3A3A312445BE024DF
:1041E70004F002423712433E1244C3640370419005
:1041F7000DDAE0600E1243301244EE1242902408AA
:10420700F0802D901117E0FEA3E0FD12433012431A
:1042170060ED12070DEEFF900DD9E0FEF582758374
:1042270000A3EF12070DEE1244D7124290240AF0B2
:10423700900DD9E01244F9EF1206FB12433E9000AD
:104247000D1206AC1244F9EF1206D91244FA7402A1
:104257001206D9900DD6124422D3947F40037FE5EE
:10426700221243301244EEFEAF0112433E90000E7D
:10427700120AF5AC02AD0112433E90000D1206ACD6
:10428700FB7A0012A0367F0022FEAF017C117D1B56
:0C4297007B087A0012A036900DD9E022BE
:10A58700E49010CAF0EF04900DD3F0ED04A3F0E4CB
:10A59700900DD1F0900DD3E0FF900DD1E0C39F5007
:10A5A7003EE4A3F0900DD4E0FF900DD2E0C39F509E
:10A5B70018127F3A900DD0EFF064156004E0B4E113
:10A5C70008900DD2E004F080DB900DD0E07008A376
:10A5D700E09010CAF08008900DD1E004F080B590AB
:05A5E7000DD0E0FF2291
:10B75800C003C002C0017B017A237901900DD31286
:10B768000AEC7A0D79CF900DD6120AECD001D002EE
:10B77800D003124007EF7013900DCFE0902300F034
:0CB78800901132E0FFA3E0FD12A5872223
:020029000022B3
:10BBD200901383EEF0A3EFF0E490110AF0A3F0903B
:10BBE2001383E0FEA3E0FFC390110BE09F90110AC4
:10BBF200E09E500B12C75E90110A12447780E02239
:10C75E00E490110CF090110CE004F0E0B401F6221C
:10C76E00E490110DF090110DE004F0E0B409F62202
:10C77E00E490110EF090110EE004F0E0B430F622C9
:10C78E00E490110FF090110FE004F0E0B460F62287
:10C47300E4901110F0A3F090111012447790111072
:0AC48300E07004A3E0646970EE228B
:10C48D00E4901112F0A3F090111212447790111252
:0AC49D00E07004A3E064D270EE2208
:10C28200E4901114F0A3F0C3901115E09F901114E3
:10C29200E09E500B12C48D90111412447780E82254
:10A4B900900D4E120AEC900D51ECF0A3EDF0E490E2
:10A4C9000D54F0A3F0900D51E0FCA3E0FD900D5464
:10A4D900E0FEA3E0FFC39DEE9C503B900D53E0FDD1
:10A4E900600F7C00120741ED4C7006124442129134
:10A4F90056900D4E120ACC900D54E0FEA3E0F58261
:10A509008E831242F07A3679537F01129156900D5B
:07A519005412447780AF22C9
:10784300900D4B12443F1291567A3679591278F8BB
:107853001206931244031242F87A367961127906BA
:10786300900001120823FFE5F01242F57A3679768B
:107873001279069000031243731242F87A3679851F
:107883007F011291567A3679981278F8E924051215
:10789300434412A4B9900D4B120ACC90000F12432B
:1078A300731242F87A3679AB7F011291567BFF7AD5
:1078B3003679C1127912E9241112434412A4B99002
:1078C3000D4B1242EA7A3679D712791290001A12C6
:1078D30042F07A3679EB12791E90001C1242F07A4C
