:10B00000C00F74B0C0E0C082C083750F0A75A10084
:10B010000000000022C00F74B0C0E0C082C0837581
:10B020000F1F75A1010000000022C00F74B0C0E026
:10B03000C082C083750F3475A1020000000022C0D9
:10B040000F74B0C0E0C082C083750F4975A10300C2
:04B0500000000022DA
:0DCB8600EF90CB8F9390B000730A1F3449DD
:10A40B00EB60010A4A601D8C838D8263A2018E83EF
:10A41B008F8263A20100E0A363A201F0A363A201F8
:10A42B00DBF4DAF222C0A275A2010000C082C08365
:10A43B0063A2010000C082C083EB60010A4A601D69
:10A44B008C838D8263A2018E838F8263A20100E0D5
:10A45B00A363A201F0A363A201DBF4DAF2D083D0F1
:0DA46B008263A2010000D083D082D0A22223
:03000000025C207F
:105C20007598007599209022E074D9F090270E7431
:105C300000F09027027470F09027037400F0E49055
:105C40000000F0900000E004F0E0B4C8F6902700F7
:105C50007480F09027087400F0902709F0902720B6
:105C6000F0902721F0902722F0902723F09027240E
:105C7000F0902725F0902726F0902727F0902728EE
:105C8000F0902729F090272AF090272BF0759900A3
:105C90009022E17400F09022E27490F09022E77478
:105CA000FFF09022E8F09022E9F09022EAF09022B2
:105CB000EBF09022ECF09022ED7400F09022EEF0E8
:105CC0009022EFF09022F0F09022F1F09022F2F08A
:105CD000750D18750E00758121C2C112B00A025DE2
:015CE0001CA7
:0CCBC500016800AA005A002D0015000BAA
:0A18000042123600004212340000CC
:10C19D00900D066480F8E064809822900D06E0FE14
:10C1AD00A3E0FFC322900D12120A5F900D12020A36
:0AC1BD0047120ACC900D0B020AECA9
:0ECB4E00902784E054BFF00000E04440F02245
:10ABF100EBD394084004007F1222EDD39403500458
:10AC0100EDB40104007F1122EF9022E66026E044BA
:10AC110004F0902781E0440CF09022D4E04480F0CD
:10AC2100E054F04BF0AF05EFC43354E0FFE0549F24
:10AC31004FF08012E054FBF09022D4E0547FF0906A
:09AC41002781E054F3F07F0022AA
:10C17300EFD394035005ED94034004007F11229004
:10C183002786E054FC4FF0AF05EF25E025E0FF9054
:0AC1930022D5E054F34FF07F0022A4
:10C0C000ED6005D3940E4004007F1122ED04C454AA
:10C0D000F0FE9022D5E0540F4EF0EF6006E04402EF
:0DC0E000F080079022D5E054FDF07F002293
:10C59600A2AFE433FFC2AF9022D7E0FDE0FEEF2466
:10C5A600FF92AFAF06EFFEEDFF7C007D10120796FF
:01C5B6002262
:10CA50009022D6E05478131313541FFF60011F2255
:10B6B00074FFF5F012085B7F13E490122EF0A3F0F4
:10B6C0009022D6E05470600D12C596EE8FF01208ED
:10B6D0005BE4FF801990122EE475F0011207CCC3D1
:10B6E00090122FE094D090122EE0940740D2EF6099
:03B6F00001002234
:109CCB00AA05EBD394084004007F1222EAD3940335
:109CDB004004007F1122EF60557D02E4FF12C0C0EB
:109CEB00AF02AD077F0112ABF1AC07EC704912CBA1
:109CFB004E901398E025E024C5F582E434CBF58330
:109D0B00E493FF740193901230CFF0A3EFF0E4A330
:109D1B00F0A3F090123012C1AB901233E09F90126F
:109D2B0032E09E5012E475F0011207CC80E5E4FBA3
:0A9D3B00FDFF12ABF1AC07AF0422EC
:10BDC300900D01120AECEFD394084004007F122275
:10BDD300AB07E4FD7F01129CCBEF600122900D01C4
:10BDE300120ACC12B6B0EF600122E4FBFDFF129CF5
:04BDF300CB7F0022E0
:10736400900D04EEF0A3EFF0A3ECF0A3EDF0900D7C
:107374000AE0FFC3940A4006EFD3940F4004007F51
:107384001122900D0412C1AB900D07E09FEE12C1C3
:107394009D4004007F142212C1A8900D05E09FFFB8
:1073A400900D04E09E900D0EF0A3EFF0D3900D0726
:1073B400E09BEA12C19D4009E4900D10F0A3F08017
:1073C40029C3900D05E09BEA900D0412C1A0500B57
:1073D400900D0EE0FFA3E0A3CF800B12C1A8EB9F9A
:1073E400FFEA9E900D10F0A3EFF0900D0AE0FF74F9
:1073F400017E00A807088005C333CE33CED8F92414
:10740400FFFFEE34FFFEE4FCFD900D12120A5F90C4
:107414000D10E0FEA3E0FFE4FCFDA3120A531208E2
:10742400B412C1B2C006C007900D0EE0FEA3E0FB8B
:10743400AA06E4F9F8D007D00612093F12C1B2EE49
:10744400547FFE900D0B120ACCEE8FF012085B7F76
:02745400002214
:0CCBAD007B017A1279367F0712BDC3228B
:0CCBB9007B017A1279347F0812BDC32280
:10ADAB00900CFF120AEC900CFEEFF0C3940A4006D5
:10ADBB00E0D3940F4004007F11227B017A0D7902BE
:10ADCB0012B6B0EF600122901236E0FEA3E0FF90C6
:10ADDB001234E0FCA3E0FD900CFEE0900D0AF09025
:10ADEB000CFF12C1BE900D02E0FAA3E0FB127364DC
:07ADFB00EF6001227F00223E
:1098AF00901219EDF0A3120AEC901218EFF0D39466
:1098BF00084004007F1222901219E0FFC3940A405F
:1098CF0006EFD3940F4004007F11227B017A1279A7
:1098DF001F7F0712BDC3EF6001227B017A12791D32
:1098EF007F0812BDC3EF600122901218E0FF7B01C9
:1098FF007A12792112BDC3EF60012290121FE0FE90
:10990F00A3E0FF90121DE0FCA3E0FD901219E09080
:10991F000D0AF090121A12C1BE901221E0FAA3E0C4
:0B992F00FB127364EF6001227F002236
:04180A0041139800EE
:10AE5900E4FDEF14601414601514601614601714DF
:10AE69006018240570187E088016E4FE80127E2082
:10AE7900800E7E40800A7E6080067E0C80027D12F4
:10AE8900ED600300FF22901398EFF0538E10EE420D
:10AE99008EE58E90278530E306E04404F08004E0D7
:06AEA90054FBF07F0022C3
:030026008F98228E
:03002E008F992285
:030036008F9A227C
:08180E00411384004113850021
:10C91500A2AFE433FEC2AFEB9022EF22AF06EE24C6
:06C92500FF92AF7F00222B
:10B7F800E5B420E204007F102212C91530E106E00A
:10B808004404F08004E054FBF0EB30E003D3800103
:10B81800C39288ED24FF92B8EF24FF92A89022F2F9
:10B82800E030A8054404F0800354FBF012C921223B
:10B83800E5B420E304007F112212C91530E106E0C7
:10B848004408F08004E054F7F0EB30E003D38001C3
:10B85800C3928AED24FF92BAEF24FF92AA9022F2B3
:10B86800E030AA054408F0800354F7F012C92122F9
:041816004113998061
:10763500E0FEA3E0FFF5828E83A3A31206AC90279C
:1076450005F08F828E83A3A3A31206AC902704F0C6
:10765500901399E04401902700F022F090134BE03D
:10766500F58A901349E0F58C22E0FEA3E0FFF58250
:107675008E831206AC902707F08F828E83A31206A5
:10768500AC902706F022FFE0FAA3E02DF582EA3C54
:10769500F583E4936F22900D05E475F0010207CCA4
:1076A500900D03E0FEA3E0A3FFE0FCA3E0FDC39F74
:1076B500EC9E229027007480F09027027470F0A34E
:1076C500E4F0902708F0A3F07F0122E0FEA3E0900C
:1076D5002703F0EE902702F022FFEEF0A3EFF04330
:1076E500992090270EE4F0901398E02290270974D2
:1076F50001F0902708E4F022120ACC8D828C8302D7
:1077050006ACEEF0A3EFF0EE54014F22CFF0A3EF5D
:0D771500F0E422900D09120A5F900D092288
:06CD3D00E4901399F022BE
:07CD2F009013997480F022BB
:10BC440090270EE4F090270DE020E0F900000000BA
:10BC5400EF1276D4902708E4F0A304F0901399E04F
:10BC64004402902700F00000000090270DE020E03F
:08BC7400F99027007480F02212
:100E7F00900D4C120AEC900D4A1277076004007F18
:100E8F001422900D4AE0FEA3E07802CEC313CE13D6
:100E9F00D8F9900D561276DE70047F808002E4FF41
:100EAF0012A5B8901399E0701D902700E064807030
:100EBF0015902708E0700FA3E0700B902702E0B4A5
:100ECF007004A3E06009900D587413F0020FE4E46E
:100EDF00FF12B432E4900D5DF012C292900D56E005
:100EEF00FEA3E0FF12BC44900D4FE030E00AE49007
:100EFF000D58127660020FE490270DE020E0F912F2
:100F0F0076F1900D50F0A3F0900D56E0FFA3E09016
:100F1F000D54CFF0A3EFF0900D52E4F0A37480F0D6
:100F2F0012C292900D541276D0900D4C120ACC90A2
:100F3F000D5012766E900D50127635000000009015
:100F4F000D50E475F0041207CC900D5412769E905C
:100F5F000D5274FFF5F01207CC900D52E07002A302
:100F6F00E070BD90270DE020E0F9127661900D4AF8
:100F7F00E0FFA3E0900D59127711900D58F0900DEE
:100F8F005BF0A3F0900D5BE0FEA3E0FFC3EE9402D5
:100F9F00502E900D4C120ACC8F828E831206ACFF0E
:100FAF00900D5BE0FCA3E0FD900D5912768C60086C
:100FBF00900D587415F08008900D5B12769E80C4CA
:100FCF00900D58E0600F900D5DE004F0E0C39404C5
:100FDF005003020EE81276B812A5B85399DF7F01BD
:0C0FEF0012B432900D58E0FF60010022A7
:105506009011CB120AEC9011C91277076004007F44
:1055160014229011C9E0FEA3E07802CEC313CE1385
:10552600D8F99011D61276DE70047F808002E4FFEF
:1055360012A5B8901399E0701D902700E064807062
:1055460015902708E0700FA3E0700B902702E0B4D7
:105556007004A3E060099011D87413F0025683E436
:10556600FF12B432E49011DDF012C2929011D6E02F
:10557600FEA3E0FF12BC449011CEE07002A3E070DF
:10558600099011D812766002568390270DE020E02C
:10559600F91276F19011D0F0A3F09011D6E0FFA3A6
:1055A600E09011D4CFF0A3EFF09011CEE0FCA3E091
:1055B600FDAE047802CEC313CE13D8F9FF9011D2F4
:1055C600EEF0A3EFF0ED5403600A9011D2E475F00B
:1055D6000102561A9011D2E07002A3E0603C12C29A
:1055E600929011D41276D09011CB120ACC9011D091
:1055F60012766E9011D0127635000000009011D010
:10560600E475F0041207CC9011D412769E9011D254
:1056160074FFF5F01207CC0255DA90270DE020E072
:10562600F91276619011C9E0FFA3E09011D91277C3
:10563600119011D8F09011DBF0A3F09011CEE0FE9E
:10564600A3E09011DB1276AD501E9011CB1276FDC1
:105656009011D912768B60089011D87415F08008D5
:105666009011DB12769E80D39011D8E0600F9011D6
:10567600DDE004F0E0C39404500302556F1276B8DF
:1056860012A5B85399DF7F0112B4329011D8E0FF0A
:04569600600100228D
:10850000900CFEEEF0A3EFF0A3120AEC900CFEE04C
:10851000FEA3E0FFE4FCFD127718120A53900D044D
:10852000E024FFFF900D03E034FFFEE4FCFD1208A1
:10853000A7127718120A47ED4C6004007F1222E45C
:10854000900D08F0900CFEE0FFA3E0900D0D127767
:1085500011900D07F0E4900D05F0A3F01276A550F0
:1085600029900D0DE0FEA3E02DF582EE3CF583E4AD
:1085700093FF900D00120ACC900D05A3E0F5828CBC
:1085800083EF12070D12769B80D2E4900D05F0A3C5
:10859000F01276A5501B900D001276FD900D0D1275
:1085A000768B6008900D087416F0800512769B801B
:1085B000E0900D08E0600B900D07E004F0E064042B
:0885C0007093900D08E0FF220A
:10C92B00AF04E0FDA3E0FB12C357EF22EDF0A3EB46
:06C93B00F0AC07E59822B4
:0BCBF500EF6004439810225398EF22D9
:10C35700EFD394074008EF640A60037F1222ED6071
:10C3670009EBD39401400C7F1122EBD394024003D5
:06C377007F11227F00226D
:10868700900CFE12C93720E404007F1022900CFEE4
:1086970012C92B60020022EC120B7E86C10086C72E
:1086A7000186CD0286D30386D90486DF0586E506D3
:1086B70086EB0786F10A000086F57E0179FE802E9B
:1086C7007E0279FD80287E0479FB80227E0879F777
:1086D700801C7E1079EF80167E2079DF80107E4027
:1086E70079BF800A7E80797F80047EFFE4F9900C51
:1086F700FEE06019E952B19022EAE059F0900CFFD0
:10870700E06005EE42C18032E952C1802D900CFF36
:10871700E0FF700E9022EAE04EF09022E7E04EF084
:108727008012EF9022EAB40108E04EF09022E78031
:0D87370000E059F0EE42B1EE42B97F0022A1
:10874400900CFE12C93720E404007F1022900CFE26
:1087540012C92B60020022EC120B7E877E008784F4
:1087640001878A02879003879604879C0587A2065F
:1087740087A80787AE0A000087B27E0179FE802EA3
:108784007E0279FD80287E0479FB80227E0879F7B9
:10879400801C7E1079EF80167E2079DF80107E4069
:1087A40079BF800A7E80797F80047EFFE4F9900C93
:1087B400FEE06019E952B29022EBE059F0900CFF10
:1087C400E06005EE42C28032E952C2802D900CFF77
:1087D400E0FF700E9022EBE04EF09022E8E04EF0C5
:1087E4008012EF9022EBB40108E04EF09022E88072
:0D87F40000E059F0EE42B2EE42BA7F0022E2
:1085C800900CFE12C93720E404007F1022AF0490FB
:1085D8000CFE12C92D60020022EC120B7E860400EC
:1085E800860A01861002861603861C0486220586E2
:1085F8002806862E0786340A000086387E0179FE12
:10860800802E7E0279FD80287E0479FB80227E08F8
:1086180079F7801C7E1079EF80167E2079DF801034
:108628007E4079BF800A7E80797F80047EFFE4F9EE
:10863800900CFEE06019E952B49022ECE059F090F9
:108648000CFFE06005EE42C48032E952C4802D90F0
:108658000CFFE0FF700E9022ECE04EF09022E9E073
:108668004EF08012EF9022ECB40108E04EF0902218
:0F867800E98000E059F0EE42B4EE42BC7F0022F0
:0C181A004113690041136A0041136B0088
:08CCF700EDF0A3EBF0E5922241
:04C7B700E0FD7F0121
:10C7BB00ED600543F904800353F9FBEF600443E993
:06C7CB00042253E9FB22E9
:0BCC0000EF6004439202225392FD22D9
:108CFF0090133212CCF720E104007F10229013342E
:108D0F00E0D394034004007F2022E4FDEF120B7E9A
:108D1F008D3E008D44018D4A028D50038D56048D7A
:108D2F005C058D62068D68078D6E0A00008D747963
:108D3F00017EFE803279027EFD802C79047EFB80DD
:108D4F002679087EF7802079107EEF801A79207EB1
:108D5F00DF801479407EBF800E79807E7F80087916
:108D6F00FFE4FE80027D30ED600300FF229013329E
:108D7F00E06027901334E0FF30E105E942EA800319
:108D8F00EE52EAEF30E005E942EB8003EE52EBE9F9
:108D9F0042EC90133312C7B78003EE52EC7F0022E0
:0BCC0B00EF6004439204225392FB22CE
:108DAF0090133612CCF720E204007F112290133873
:108DBF00E0D394034004007F2122E4FDEF120B7EE9
:108DCF008DEE008DF4018DFA028E00038E06048E57
:108DDF000C058E12068E18078E1E0A00008E24793F
:108DEF00017EFE803279027EFD802C79047EFB802D
:108DFF002679087EF7802079107EEF801A79207E01
:108E0F00DF801479407EBF800E79807E7F80087965
:108E1F00FFE4FE80027D31ED600300FF22901336E8
:108E2F00E06027901338E0FF30E105E942F280035C
:108E3F00EE52F2EF30E005E942F38003EE52F3E930
:108E4F0042F490133712C7B78003EE52F47F00221B
:0BCC1600EF6004439208225392F722C3
:1091060090133A12CCF720E304007F132290133C0D
:10911600E0D394034004007F2322E4FDEF120B7E8C
:10912600913F00914501914B04915105915706914C
:109136005D0791630A0000916979017EFE802679B8
:10914600027EFD802079107EEF801A79207EDF80F6
:109156001479407EBF800E79807E7F800879FFE497
:10916600FE80027D33ED600300FF2290133AE0603B
:109176002790133CE0FF30E105E942FA8003EE5206
:10918600FAEF30E005E942FB8003EE52FBE942FCD0
:0E91960090133B12C7B78003EE52FC7F0022FD
:0DCB9300F0A3F0EF24FF92AF902190E0227C
:06CD4300902191EFF022A7
:10CA6000EF9021916005E04402F022E054FDF022B5
:10CA7000EF9021916005E04404F022E054FBF022A5
:10CA8000EF9021916005E04408F022E054F7F02295
:10CA9000EF9021916005E04410F022E054EFF02285
:09CCDC00902158EFF0EEA3F022C4
:09CCE50090215AEFF0EEA3F022B9
:0FCB3000AC02AD017B087A007F507E2102A40B7E
:10C7D100A2AFE433FFC2AF902004E4F09020011235
:0AC7E100CB934440F0E054BFF02277
:10C7EB00A2AFE433FFC2AF902084E4F0902081121B
:0AC7FB00CB934420F0E054DFF0225D
:0BCC21007F1612CD4312C7D102C7EBF3
:0C1826004112A5004112A0004112A400D4
:10941800E5E8F0A3E5E9F0AFA875E902E4F5E87539
:10942800A8809027927483F090279EE0C2AF90277F
:1094380093E0E4F583D2AF2290279F7444F09027FD
:1094480092E0547FF0E49012A0F022120ACC8E82AF
:109458007583001206AC902790F0E4F583D2AF2212
:109468009027927480F022E0547F25E0902791F0B5
:1094780022FEE49012A5F0902792E022901267E075
:1094880004F0E0C3942022EFF0A3EDF0A3120AEC5D
:10949800E422E004F09012A0E02212C6F490279291
:0A94A800E022E0F5E88FA8AF0522EE
:0BCC2C00EF60044399802253997F229F
:10A8F000E59920E704007F1022901340E0FEC39406
:10A90000125004007F1122EF6041A2AFE433FFC276
:10A91000AF902794EEF090279674FFF0902795E47F
:10A92000F0902793E090279EE0EB90279230E0058F
:10A9300074A3F080037483F053F9FDED600343F9D1
:10A940000243E902EF24FF92AF800653E9FD12941F
:04A95000687F0022FA
:10C6F400E490129EF0A3F090129EE475F0011207EC
:0EC70400CC90129EE07004A3E0640A70EA225A
:108A340090125612948F90125EF0E59920E704008C
:108A44007F102290125BE0FE70028006EED3940F3A
:108A54004004007F1122E4FFFE12C0ED90125C126C
:108A6400941890125612946FC2AF901257E0129459
:108A74005EFE90125BE0FDEEC39D500BC2AF901200
:108A8400581294530E80EB12944090125BE024022F
:108A94001294794470F0E4FD90125E12949A60048A
:108AA4007D1280129012A5E06E600B90125EE0C3FE
:108AB400944040E47D80ED70061294A254EFF0E4FB
:108AC40090125EF030960320970A90125E129487FB
:108AD40040F27D8012946890125DE0F5E990125C9A
:048AE4001294AA221C
:106C990090125F12948F901267F0E59920E7040033
:106CA9007F1022901264E0FE70028006EED39410E9
:106CB9004004007F1122E4FFFE12C0ED901265121C
:106CC900941890125F12946FC2AF901260E0129400
:106CD9005E901264E0902797F01294407E0212941D
:106CE9007B447CF0E4FD90126712949A60047D1253
:106CF90080129012A5E06E600B901267E0C3945069
:106D090040E47D80ED6014E4901267F03096032032
:106D1900976B12948440F57D8080621294A254F797
:106D2900F0902791E04401F0E4901267F09012A0EE
:106D3900E0700E901267E004F0E0C394E040EE7D4D
:106D490080E4FE901264E0FCEEC39C501EC2AF903A
:106D59002790E0FC901261120ACC8E82758300ECB8
:106D690012070DE4F583D2AF0E80D8E4901267F0D4
:106D790030960320970712948440F57D8012946819
:0D6D8900901266E0F5E99012651294AA22BE
:108C4E009012A6EF1294939012ADF0E59920E704DE
:108C5E00007F10229012AAE0FE70028006EED394DE
:108C6E00104004007F1122E4FFFE12C0ED9012AB03
:108C7E001294189012A612946FE4FE9012AAE0FDC0
:108C8E00EEC39D500BC2AF9012A71294530E80EB01
:108C9E001294409012AAE0041294794470F0E4FD0C
:108CAE009012AD12949A60047D1280129012A5E07B
:108CBE006E600B9012ADE0C3944040E47D80ED7089
:108CCE00061294A254EFF0E49012ADF03096032009
:108CDE00970F9012ADE0FE04F0EEC3941040ED7DC0
:108CEE00801294689012ACE0F5E99012AB1294AA3F
:018CFE002253
:107AD300901223EFF0A3120AECE59920E704007F4C
:107AE3001022E4FFFE12C0ED90122AE5E8F0A3E5B0
:107AF300E9F0A3E5A8F0129421901223E0547F2526
:107B0300E04401902791F0901227E0FFD3941040B6
:107B13000B9027977410F0EF24F08009901227E060
:107B2300902797F0E49012A4F01294409012A4E0EE
:107B330090122DF0E49012A5F0901224120ACC902A
:107B430012A1120AEC902792E04474F0E4901228F8
:107B5300F09012A0E060FAE4901229F0902797E0E9
:107B6300FF901229E0FEC39F502DC2AF902790E0F3
:107B7300FFEEFD90122DE02DFDE433FC9012241254
:107B83000ACC8D828C83EF12070DE4F583D2AF907C
:107B93001229E004F080C53096FD3097FA129468FC
:107BA30090122BE0F5E990122AE0F5E890122CE010
:087BB300F5A8901228E0FF2262
:10B47A0015660AB30AB2055906B4035A035C01AE4B
:10B48A0001C200E10104008201D200E9011200892F
:10B49A0000B20059008A0045008A0045008A00452A
:10B4AA00023001180118008C0096004B0046002358
:08B4BA00003C001E003C001ED6
:101832004111FC004111FB034111FA004111F90071
:041842004111F80058
:10B0A80075F002120AC0E493FF7401939011F0CF77
:10B0B800F0A3EFF0E4A3F0A3F0229022007438F09C
:10B0C8009011FBE025E025E0229011F0E0FEA3E0DE
:10B0D800FFC39011F3E09F9011F2E09E229011F2CD
:0EB0E800E475F0010207CC9022007434F022CF
:0ECB5C00EF30E0047F018002E4FF127F4422EC
:07CD3600902200741CF022A2
:1091A400900D28EEF0A3EFF0A3EDF0600B90278371
:1091B400E4F09022D07488F0A2AFE433900D2BF049
:1091C400C2AF90228DE0900D2CF07F1112CCFF9055
:1091D4002200742CF07F13E49011EEF0A3F0900DB4
:1091E40028E0FCA3E0FDC39011EFE09D9011EEE0B8
:1091F4009C502190228DE020E612A3E05407FE70DB
:1092040003FF8010EEB404047F1280089011EE1264
:10921400B0E880CA90228F74FFF0900D2CE0902269
:109224008DF0900D2BE024FF92AF900D2AE06009A1
:0E923400EF70069022D07484F0EF60010022EB
:10CA2E007F0A12CCFFE4FD7F0112C6597F0102CAB4
:01CA3E00A057
:109D4500900D1CEFF0BF04028009900D1CE0D39428
:109D5500054004007F182212B0EFE4FF12B43290E0
:109D65000D1CE0FF12ACFB900D1CE0146016146096
:109D75001B14602024FE6024240570269022117493
:109D850009F0801E9022117405F08016902211743E
:109D950003F0800E9022117402F080069022117457
:109DA50010F0902200743CF07F0112B432900D1C2B
:089DB500E09011FBF07F002299
:10B1900090139AEFF012ACFB90139AE0FF14601634
:10B1A00014601B14602024FE602424057026902265
:10B1B000117409F0801E9022117405F080169022FF
:10B1C000117403F0800E9022117402F08006902218
:0CB1D000117410F09011FBEFF07F0022D2
:10BB600090139BEFF07F03129D4590139BE0902272
:10BB7000246013E04440F0902785E04408F09022D0
:10BB800037E04480F022E0543FF0902785E054F7FE
:09BB9000F0902237E0547FF0220E
:10880100900D1CEFF0C3940B4006E0D3941A400482
:10881100007F172212B0EFE4FF12B432900D1CE07A
:10882100120B7E88580B885C0C88600D88640E885A
:10883100680F886C10887011887412887813887C8E
:1088410014888015888416888817888C1888901950
:1088510088941A000088A07F65803A7F6A80367FFD
:108861006F80327F74802E7F79802A7F7E80267F81
:108871008380227F88801E7F8D801A7F9280167F61
:108881009780127F9C800E7FA1800A7FA680067F41
:10889100AB80027FB07E0912897B900D1DEFF090B5
:1088A1000D1DE060040002881D902200743CF07FE1
:0D88B1000112B432900D1DE0FF60010022A5
:0FCB3F00E4FE902284E0FF70050EEEB4FAF422BB
:08CCFF00EF541F90228DF0227A
:10C86D00A2AFE433FEC2AFED24FF92F8EF24FF92A6
:09C87D00E8AF06EF24FF92AF22A0
:10B43200EF603D90228EE054F7F0E04408F0759101
:10B4420010A2AFE433FFC2AF902084E4F0902081D9
:10B45200F0A3F0EF24FF92AFE49011FAF090219064
:10B46200E04420F0E054DFF0902201E054FEF022AC
:08B47200902201E04401F022E8
:06CD4900EF24FF92AF226F
:03003E0002780F36
:10829C00902002E4F0902303E0902192F090228051
:1082AC00E05470FF6007641060037F15229011F991
:1082BC007401F09011FCE0547DF0900DD574E1F058
:1082CC0012003E12B0C2247AF582E434B4F583C0B5
:1082DC0083C082901398E0D082D08312B0A812B0E1
:1082EC00D150139011FCE030E107E4900DD5F080F3
:1082FC000512B0E580E8900DD5E0B4E10F12B0EFB7
:10830C00902002E4F09011F9F07FE122E49011F951
:10831C00F0900DD5F0902301E030E539900DD57437
:10832C00E9F012B0C82492F582E434B4F583C0832A
:10833C00C082901398E0D082D08312B0A812B0D132
:10834C0050139011FCE030E707E4900DD5F0800558
:10835C0012B0E580E8902002E4F0900DD5E0FF2209
:1094B2009011F9E060030295499023807405F0A3AE
:1094C2007402F0EF6004E04410F0902382E4F0A311
:1094D200EDF090222CE0900E11F090222CE044202E
:1094E200F09020027480F0902280E0547060046456
:1094F20010704712B0C224AAF582E434B4F583C0D6
:1095020083C082901398E0D082D08375F002120A51
:10951200C0E493FF7401939011F412B0B79011F468
:10952200E0FEA3E0FFC39011F7E09F9011F6E09EEA
:10953200500512B0E880E612B0EF902002E4F090FD
:089542000E11E090222CF02232
:10C65900EDD394024004007F1122EF6009ED4410EC
:0FC6690090222CF0800690222C7430F07F00225B
:06CD4F0090222DEFF022FE
:10CAA000EF90227E6005E04408F022E054F7F02287
:109A4C00901386EFF0D394034004007F11229013FF
:109A5C0086E0FE700A9011F8E07004007F1622E494
:109A6C00901387F0EEB4010D12CD367F01129ACA15
:109A7C007401F08043901386E0B4020D12CD367F52
:109A8C0002129ACA7402F0802F901386E0B403106D
:109A9C0012CD367F0312A54E9011F87403F0801886
:109AAC00E4FF12A54EE4FD7F107E271291A49013C3
:109ABC0087EFF0E49011F8F0901387E0FF2212A5E5
:059ACC004E9011F8228C
:10CAB000EFD394164004007F11221261FF7F002201
:10CAC000EF6009AF0512C9BC439EC022539E3F22AE
:0ECB6A00EF600712CD27439CC022539C3F2250
:10BB9900902281E0541FD39402402D9022BDE020D1
:10BBA900E0267F019022B0E04401F0E4FDFC902200
:10BBB900BDE030E004E4FF800B0DBD00010CBC03C7
:09BBC900EDBDE8EAEF70DD222277
:081846004113890041138800E1
:10717E009022EDE06580FF9022F0E05FFF9022EE1E
:10718E00E06590FE9022F1E05EFE9022EFE065B0A9
:10719E00FC9022F2E05CFC9022F0E022E5E8F0ADFB
:1071AE009AA9E9759A07E4F5E8F5E99022E1746E7B
:1071BE00F09022E6E054FBF0E054E7F022E090225B
:1071CE00E5F09022E27490F0D2D875E88075A88030
:1071DE0022E0FEEFF4FCEE5CF022EEF0A3EFF0A363
:1071EE00EDF0A3EBF09022F0E055B9FFE06F22E056
:1071FE00FAA3E0FBEA9022E3F0A3EBF022E5A8F07D
:10720E00E4F5A89022EBE0229022F1E055BAFFE0DF
:10721E006F229022F2E055BCFFE06F22EF4404FF94
:10722E009022EBE054E7F022AF058F9AD2D8538F1D
:10723E00BF22E0FEEFF4FFEE5FF022FFE0540333D7
:10724E00333354F8FEEF4E22EF9022E0F0E4F59A3D
:10725E0022E0F5E8AF018FE92254012FFFE0FDA8EF
:03726E00060822ED
:10B50A00ED24FF92FCEF6033EB4A700A901312E0CD
:10B51A007004007F11229022E1746EF01272029080
:10B52A001312E09022E5F0A3E054E7F0E04480F043
:10B53A00D2EC9022E0E04420F08009C2EC9022E0B4
:07B54A00E054DFF07F002256
:10C00800900D1CEFF020E0069022E07498F0902745
:10C0180083E4F012CD36902780E4F0A3F0900D1C55
:0EC02800E030E007902203E0547FF07F00221A
:10C2E2009022E074D8F090278074F6F0A37423F0C3
:10C2F20012C2FCEF600312C2FC2212CD36E4FD7FB3
:07C30200107E271291A42216
:109F230090136CEFF0A3EDF0A3EBF0E4FFFE9013BE
:109F33006CE0FDA806088002C313D8FC90136D12D1
:109F430072678002C313D8FC90136E12726780028B
:109F5300C313D8FC54012FFF0EEEB407D1EFC39403
:109F6300024004007F1122E4FFFE12C0EDAFA8AE51
:109F7300E8ADE990136CE0547FF5A8A3E0F5E8A3FE
:109F8300E0F5E943A8807587010000E4F5A88DE9B1
:069F93008EE88FA8FF22FA
:1060E500900D1C1271E86002800C1272166002801D
:1060F500051272206004007F1522900D1FE0D394D5
:10610500034004007F112212CD36E4900D26F0FFE6
:10611500FE12C0ED900D2112720B900D27F090220A
:10612500E1E0900D25F09022E0E0900D24F0902222
:10613500E6E0900D23F0900D221271AA900D20E05B
:10614500FC9022E630E706E0547FF08004E04480CE
:10615500F09022E6C083C082E0900D1F127249D0F4
:1061650082D083F0900D1C1271FD900D1E1271CB23
:106175007FB9EC30E004EF54DFFF900D20E030E113
:106185000312722A127256E5D220E5FB12717E6F58
:10619500701DAF06A3E06F7016AF04A3E0B5040F42
:1061A50075870200000000000000000000800690D6
:1061B5000D267412F0127236900D2212725F900D38
:1061C50024E09022E0F0900D23E09022E6F0900D7F
:1061D50025E09022E1F0900D27E09022EBF0900D64
:1061E50021E0F5A8900D26E0600100E4FD7F107E1A
:0A61F500271291A4900D26E0FF226E
:10687F0090120C1271E86002800C12721660028086
:10688F00051272206004007F152290120FE0D3943E
:10689F00034004007F1122E4901216F07F107E2730
:1068AF0012C0ED90121112720B901217F09022E19C
:1068BF00E0901215F09022E0E0901214F09022E692
:1068CF00E0901213F09012121271AA901210E0FCC5
:1068DF009022E630E706E0547FF08004E04480F039
:1068EF009022E6C083C082E090120F127249D082CC
:1068FF00D083F090120C1271FD90120E1271CB7F9B
:10690F00BAEC30E004EF54DFFF901210E030E103F7
:10691F0012722A127256E5D220E5FB12717E6F7049
:10692F001DAF06A3E06F7016AF04A3E0B5040F759B
:10693F008702000000000000000000008006901297
:10694F00167412F012723690121212725F901214A5
:10695F00E09022E0F0901213E09022E6F0901215F2
:10696F00E09022E1F0901217E09022EBF0901211DC
:0C697F00E0F5A8901216E0FF6001002275
:1079E8009012AEEF1271F26002800C1272166002F1
:1079F80080051272206004007F1522E49012B4F012
:107A08007F107E2712C0ED9012AF12720B9012B544
:107A1800F09022E1E09012B3F09022E0E09012B2F0
:107A2800F09022E6E09012B1F09012B0E5E8F0AFE5
:107A38009A1271AF1271D07E9B9012AEE030E107BE
:107A4800EE4404FE12722EEE127257E5D220E5FBC8
:107A58009022EDE06580FE9022F0E05EFE9022EE3E
:107A6800E06590FD9022F1E05DFD1271986E701D49
:107A7800AE05A3E06E7016AE04A3E0B5040F7587DB
:107A8800020000000000000000000080069012B410
:107A98007412F01272389012B012725F9012B2E043
:107AA8009022E0F09012B1E09022E6F09012B3E05C
:107AB8009022E1F09012B5E09022EBF09012AFE046
:0B7AC800F5A89012B4E0FF600100225E
:10B55100EFD394074004007F16227401A8070880E6
:10B5610002C333D8FCFF9022EAE04FF0EB9022EDCA
:10B57100600BE04FF09022E71271DF80091271DF5A
:10B581009022E7E04FF0ED9022F06005E04FF0806F
:07B59100031272407F00224B
:10B59800EFD394074004007F16227401A80708809F
:10B5A80002C333D8FCFF9022EBE04FF0EB9022EE81
:10B5B800600BE04FF09022E81271DF80091271DF12
:10B5C8009022E8E04FF0ED9022F16005E04FF08026
:07B5D800031272407F002204
:10B5DF00EFD394074004007F16227401A807088058
:10B5EF0002C333D8FCFF9022ECE04FF0EB9022EF38
:10B5FF00600BE04FF09022E91271DF80091271DFCA
:10B60F009022E9E04FF0ED9022F26005E04FF080DC
:07B61F00031272407F0022BC
:1099C400EFF07F807E387D017C00A3120A53D3021E
:1099D40009ECE0FCE4120336E4FBFA79C8784202AD
:1099E400028F120A537F007E127D7A7C0002093FA7
:1099F400E47F7BFEFDFC120A53C30209EC120186CC
:109A040012036AAB07AA06EB4A22ECF0A3EDF0A915
:109A140007E59A22E0FCA3E0FDE4020331C3EB94E2
:109A240020EA940322AD03EDF0EAFF22FFE0FCA359
:109A3400E0FD22AD03EDF0EAFF22E47F7BFEFDFCB6
:089A440022FFE0FCA3E0FD227B
:05C74B007481F07F0184
:10C75000ED600543F908800353F9F7EF600443E9FE
:06C76000082253E9F72254
:0BCC3700EF6004439A0822539AF72292
:10A621009012CD129A0E20E304007F1222C39012E1
:10A63100CEE09B9012CDE09A5004007F112290252C
:10A64100867420F0E960399012CDE0FEA3E09025F8
:10A6510083F0EEF9902582F0902585129A299025B4
:10A6610084F09025867409F0902583EDF090258281
:10A67100EFF09012CDA3E0902585F0902584E9F0CC
:07A68100E49012D1F0FF226A
:10B87800E59A20E304007F1222129A215004007FE7
:10B8880011229025867420F0EF601E902583EBF03E
:10B89800EA902582F0A3E0902585F0902582E0903B
:10B8A8002584F090258612C74BE4901317F0FF22E9
:10A32F009012681299C4501A9012691299F450023F
:10A33F00801090126DE0FFD394635006EFC3940129
:10A34F005004007F11229012691299E690126FEE5D
:10A35F00F0A3EFF090126D1299D6C004C005C0069D
:10A36F00C00790126F129A18D003D002D001D000FC
:10A37F00129A017003FA7B01901268E090126F122B
:0EA38F009A3090126EE09012D1F012A62122A8
:0BCC4200EF6004439A1022539AEF2287
:10A688009012D3129A0E20E404007F1322C3901272
:10A69800D4E09B9012D3E09A5004007F11229025B9
:10A6A8008E7420F0E960399012D3E0FEA3E0902583
:10A6B8008BF0EEF990258AF090258D129A29902535
:10A6C8008CF090258E7409F090258BEDF090258AFA
:10A6D800EFF09012D3A3E090258DF090258CE9F04F
:07A6E800E49012D7F0FF22FD
:10B8B800E59A20E404007F1322129A215004007FA5
:10B8C800112290258E7420F0EF601E90258BEBF0EE
:10B8D800EA90258AF0A3E090258DF090258AE090E3
:10B8E800258CF090258E12C74BE490131CF0FF2294
:10A39D009012711299C4501A9012721299F45002BF
:10A3AD008010901276E0FFD394635006EFC39401B2
:10A3BD005004007F11229012721299E6901278EEDD
:10A3CD00F0A3EFF09012761299D6C004C005C00626
:10A3DD00C007901278129A18D003D002D001D00085
:10A3ED00129A017003FA7B01901271E090127812AB
:0EA3FD009A30901277E09012D7F012A68822C4
:0BCC4D00EF6004439A2022539ADF227C
:10A6EF009012D9129A0E20E504007F1422C3901203
:10A6FF00DAE09B9012D9E09A5004007F1122902546
:10A70F00967420F0E960399012D9E0FEA3E090250D
:10A71F0093F0EEF9902592F0902595129A379025A7
:10A72F0094F09025967409F0902593EDF090259272
:10A73F00EFF09012D9A3E0902595F0902594E9F0D1
:07A74F00E49012DDF0FF228F
:10B8F800E59A20E504007F1422129A215004007F63
:10B9080011229025967420F0EF601E902593EBF09D
:10B91800EA902592F0A3E0902595F0902592E0908A
:10B928002594F090259612C74BE4901321F0FF223E
:10A16D0090127A1299C4501D129A3E90127B129938
:10A17D00FA5002801090127FE0FFD394635006EFE7
:10A18D00C394015004007F112290127B1299E69026
:10A19D001281EEF0A3EFF090127F1299D6C004C099
:10A1AD0005C006C007901281129A18D003D002D0B4
:10A1BD0001D000129A017003FA7B0190127AE0909F
:10A1CD001281129A45901280E09012DDF012A6EFE6
:01A1DD00225F
:0BCC5800EF6004439A4022539ABF2271
:10A756009012DF129A0E20E604007F1522C3901293
:10A76600E0E09B9012DFE09A5004007F11229025D2
:10A776009E7420F0E960399012DFE0FEA3E0902598
:10A786009BF0EEF990259AF090259D129A37902528
:10A796009CF090259E7409F090259BEDF090259AEB
:10A7A600EFF09012DFA3E090259DF090259CE9F054
:07A7B600E49012E3F0FF2222
:10B93800E59A20E604007F1522129A215004007F20
:10B94800112290259E7420F0EF601E90259BEBF04D
:10B95800EA90259AF0A3E090259DF090259AE09032
:10B96800259CF090259E12C74BE4901326F0FF22E9
:10A1DE009012831299C4501D129A3E9012841299B5
:10A1EE00FA50028010901288E0FFD394635006EF6D
:10A1FE00C394015004007F11229012841299E690AC
:10A20E00128AEEF0A3EFF09012881299D6C004C015
:10A21E0005C006C00790128A129A18D003D002D039
:10A22E0001D000129A017003FA7B01901283E09024
:10A23E00128A129A45901289E09012E3F012A756F4
:01A24E0022ED
:0BCC6300EF6004439A8022539A7F2266
:10A4E4009012E5129A0E20E704007F1622C3901200
:10A4F400E6E09B9012E5E09A5004007F112290253B
:10A50400A67420F0E9603C9012E5E0FEA3E09025FB
:10A51400A3F0EEF99025A2F0AD039025A5EDF0EAA5
:10A52400FF9025A4F09025A67409F09025A3EDF0E2
:10A534009025A2EFF09012E5A3E09025A5F09025D8
:0AA54400A4E9F0E49012E9F0FF2210
:10B97800E59A20E704007F1622129A215004007FDE
:10B9880011229025A67420F0EF601E9025A3EBF0FD
:10B99800EA9025A2F0A3E09025A5F09025A2E090DA
:10B9A80025A4F09025A612C74BE490132BF0FF2294
:10A0850090128C1299C4501D129A3E90128D1299FD
:10A09500FA50028010901291E0FFD394635006EFBE
:10A0A500C394015004007F112290128D1299E690FD
:10A0B5001293EEF0A3EFF09012911299D6C004C05E
:10A0C50005C006C007901293129A18D003D002D08B
:10A0D50001D000129A017003FA7B0190128CE0FF07
:10A0E500901293E0FCA3E0FD901292E09012E9F04B
:04A0F50012A4E422AB
:04184E004113300012
:1078FC00E0FFE4FCFDFE1209D1901341120A5F90E7
:10790C001341120A477808120A10901341120A5FA9
:10791C0090134122E0FFE4FCFDFE1209D1901345C7
:10792C00120A5F901345120A477808120A10901336
:10793C0045120A5F90134522EFF0900DDC120A47B6
:10794C0078081209FD900DDC120A5F900DDC020A1A
:10795C0047EFF0900D52120A4778081209FD900D6E
:10796C0052120A5F900D52020A47902780E054FE93
:10797C00F022AC02AD017B107A007E21227F041232
:10798C00BF7B90219F7401F022E4F0902780E022CD
:10799C00E0FFE4FCFDFE22AC02AD01E0FB7A00222C
:1079AC00120AECAE02AF01C3EE942322AC02AD017D
:1079BC007B087A007E2122AE02AF017B087A007C24
:1079CC002122120A5FE4FB902780E022900DD8025E
:0C79DC000ACCE04404F090219FE4F0226B
:10C3EF00900CFE12799520E00AE04401F0900CFECB
:10C3FF007401F07F0012797E12A40B900CFEE060A6
:05C40F00031279762202
:10C4140090139C12799520E00AE04401F090139C5B
:10C424007401F07F3012797E12A40B90139CE060AB
:05C434000312797622DD
:10C76600E4FE902780E020E006E04401F07E0190A0
:0BC776002140EFF0EE60031279762204
:10BF1D00900DDC1279CE20E005E04401F00B127992
:10BF2D005790214112794490214212794490214336
:0FBF3D00127944902144EFF0EB600312797622E1
:10C24200E4900CFEF0902780E020E00AE04401F048
:10C25200900CFE7401F07F451279B812A40B900C79
:08C26200FEE060031279762270
:10C78100E4FE902780E020E006E04401F07E019085
:0BC791002110EFF0EE60031279762219
:10BF4C00900D521279CE20E005E04401F00B1279ED
:10BF5C007090211112795D90211212795D9021134C
:0FBF6C0012795D902114EFF0EB600312797622C9
:10C26A00E4900CFEF0902780E020E00AE04401F020
:10C27A00900CFE7401F07F151279B812A40B900C81
:08C28A00FEE060031279762248
:06CD5500902140E0FF22E6
:10C0360090214412799C127905120A5390214312D9
:10C0460078FC120A539021421278FC120A5390216E
:0EC056004112799C1209D1127916120A472262
:08CD07007D451279C302A40B63
:06CD5B00902110E0FF2210
:10C0640090211412799C127929120A5390211312E7
:10C074007920120A53902112127920120A53902126
:0EC084001112799C1209D112793A120A472240
:08CD0F007D151279C302A40B8B
:08CD1700EF547F902194F022FB
:08CD1F00EF547F902195F022F2
:10CAD000EF9021936005E04440F022E054BFF02243
:10CAE000EF9021936005E04420F022E054DFF02233
:10BF7B00EF7002800CEFD3941040028004EF30E09E
:10BF8B0004007F1A22EFC31314FF902193E054E3B4
:0FBF9B00F0E0FEEF25E025E0FFEE4FF07F002203
:09C37D00902780E04401F07F03E9
:10C38600EFD394034004007F1122902193E054FCE4
:0DC39600F0E0FEEF5403FFEE4FF07F0022B9
:106B9B00900DD2EDF0900DCF1279AC400DD3EF9458
:106BAB00FFEE94245004007F18221279D8E41206C9
:106BBB00FB900DD2E0FED394794004007F1622EEB9
:106BCB00B40104007F172212C37D900DD3120A4724
:106BDB0012BF1D900DD7E0FF12C766E4FF12CD1751
:106BEB00127989900DD2E02402902300F0900DCF02
:106BFB00120ACC900DD21279A37F017E2312A40B23
:106C0B00902007E4F0900DD2E02402902008F09041
:106C1B000DDB7412F0902180E054FBF090200312F6
:106C2B0079DE90132CF0A3F0902180E030E207E4A2
:106C3B00900DDBF0801690132CE475F0011207CC4D
:106C4B0090132CE0B402E1A3E0B458DC900DDBE030
:106C5B007030900DD2E02404FF1279D8EF1206FBAE
:106C6B0012798E900DCF120ACCAE02AF011279D8E9
:106C7B00120693FB7A007D017C2312A40B90219FBB
:0E6C8B00E4F0127976900DDBE0FF600100224C
:10631900900D48EDF0900D451279AC400DD3EF94F6
:10632900FFEE94245004007F1822900D4E120ACCDF
:10633900E41206FB900D48E0FFD3947D5006EFC3AD
:1063490094045004007F162212C37D900D49120A4D
:106359004712BF4C900D4DE0FF12C781E4FF12CDEB
:106369001F127989900D48E02402902400F0900DC5
:1063790045120ACC900D481279A37F017E2412A4FC
:106389000B902087E4F0900D48E02402902088F0DB
:10639900900D517413F0902180E054FDF09020830A
:1063A9001279DE90132EF0A3F0902180E030E107FE
:1063B900E4900D51F0801690132EE475F001120748
:1063C900CC90132EE0B402E1A3E0B458DC900D5157
:1063D900E0704990219F04F0900D45120ACCAE025D
:1063E900AF01900D48E0FB7A007D017C2412A40BDB
:1063F900900D48E0FFE42FF582E43424F583E07042
:1064090010EF24FCFF900D4E120ACCEF1206FB8010
:1064190006900D517414F090219FE4F01279769052
:086429000D51E0FF60010022AB
:101852004110A8004210A600004210EA0000411008
:02186200A5558A
:10C53000120ACC8F827583001206AC902542F0E47B
:10C54000F583D2AF22902540E054BFF0E04440F0A4
:02C55000E422E3
:0BCC6E00EF60044398802253987F225F
:0ECB7800439810D2B7E4FB7D017F070285C809
:07CBA000E49010A8F07F01F2
:06CBA700EF24FF92B7220B
:107547009012ECEBF0AA07E59820E704007F1022E1
:107557009012EDE0FED394094004007F1122EE243F
:10756700FE601314601824FA601C2408702090121F
:10757700EE7405F080209012EE7403F080189012DC
:10758700EE7404F080109012EE740BF080089012E5
:10759700EDE02402A3F0902540E4F0902543F0901D
:1075A7002540C083C082E0FF9012EEE0FE5403FC4A
:1075B700EF4CD082D083F0902543E0FFEE540C13BC
:1075C70013543FFEEF4EF0EA605AA2AFE433901235
:1075D700EFF0C2AFED24FF92FD9012ECE030E40330
:1075E70012CB78902540C083C082E0FF9012ECE078
:1075F700FE541CFDEF4DD082D083F0902540E0442F
:10760700C0F0D2EDEE20E412E4FF9010A5E0902543
:1076170042F0E4F5830FEFB410F09012EFE024FF8F
:0E76270092AF8007902540E4F0C2ED7F002274
:10C67800AE07E4FF12CBA7C2AF902542EE12C53E2B
:0FC688009010A8E060FA12CBA09010E9E0FF221A
:10BAEB0090136F120AECEDD394104004007F1122D7
:10BAFB00E49010A8F0FF12CBA7EFC39D500BC2AF81
:10BB0B0090136F12C5300F80F09010A8E0B50503AD
:0BBB1B00D38001C350F312CBA01F2207
:10C89F0012C545FEC2AF902542EF12C53E0EEEB453
:08C8AF0010F29010A5EFF02239
:10BE5C00901372120AECEDD394104004007F11225F
:10BE6C0012C545FFC2AF90137212C5300FEFB4105C
:10BE7C00F3901372120ACC1206939010A5F07F0067
:01BE8C002293
:10B735009010EAA3E0FFC39010A7E09FFFEF543FEE
:10B74500602C9010EAE0FEA3E024A9F58274103E77
:10B75500F583E01206FB9010EBE02401FF9010EA60
:10B765007E00EF543FFFEEF0A3EFF07F01227F0054
:01B7750022B1
:109702007FF07EFF7D077C00120A53D30209ECAD85
:1097120007AC06ECF07C00E4120331783FE4FBFA7C
:10972200F912009502036AEFF0A3EDF0A3EBF0E566
:109732009822C3E49BFFE49AFE740199FDE498FC2D
:10974200020A5FE024FF92AF7F0022E490123BFE08
:10975200FDFC020A53AF03E4FCFDFE120A530208A9
:10976200B4E47B03FAF9F8020A47E0FEA3E0FFC380
:10977200E49FFFE49EFE22900D02020A5FFB120AA2
:109782004778080209FD901299120A5F90129922F5
:0BCC7900EF6004439801225398FE2254
:10967200900CFE12972920E004007F1322900D0126
:10968200E0FBD394624004007F1722A2AFE4339040
:109692000D06F0C2AF900D02120A6B000007D090C7
:1096A2000D02129757129779900D021297631209C1
:1096B2003FE4FDFC129779900D02120A53900D02BD
:1096C200129734900D02120A4790134BEFF0900D4F
:1096D2000212977F901349EFF08B8AF58C5389F031
:1096E200438901900CFFE024FF92B9A3E024FF928A
:1096F2008C900CFEE024FF92A9900D061297452251
:10B2C000A907E59820E004007F1322A2AFE43390A1
:10B2D00012F5F0C2AF9012F312976C90134BEFF08F
:10B2E000EEFF901349F090134BE0F58A8F8C538951
:10B2F000F0438901ED24FF92B9EB24FF928CE924FD
:0AB30000FF92A99012F51297452262
:0BCC8400EF6004439802225398FD2249
:10993A0090129512972920E104007F142290129820
:10994A00E0FBD394624004007F1822A2AFE4339074
:10995A00129DF0C2AF901299120A6B000007D090C4
:10996A00129912975712978812976312093FE4FDCA
:10997A00FC129788120A53901299129734901299EE
:10998A00120A4790134CEFF090129912977F901396
:10999A004AEFF08B8BF58D53890F438910901296FD
:1099AA00E024FF92BBA3E024FF928E901295E0245C
:0A99BA00FF92AB90129D1297452218
:10B30A00A907E59820E104007F1422A2AFE4339054
:10B31A0012FBF0C2AF9012F912976C90134CEFF037
:10B32A00EEFF90134AF090134CE0F58B8F8D538902
:10B33A000F438910ED24FF92BBEB24FF928EE92480
:0AB34A00FF92AB9012FB1297452210
:0BCC8F00EF6004439804225398FB223E
:1077220090123812972920E204007F15227F051259
:10773200974DC31209EC500C90123B129702400471
:10774200007F19227FF87EFF7D037C0090123B129E
:10775200970A400E9012407440F090123F7406F067
:1077620080447FFC7EFF7D017C0090123B12970AD1
:10777200400E9012407420F090123F7405F0802663
:10778200E47FFE7EFFFDFC90123B12970A901240AE
:10779200400B7410F090123F7404F080097408F0EA
:1077A20090123F7403F07F0812974D1208B4C0077D
:1077B200901240E0FBE4FAF9F8D00712093FE41214
:1077C200032C78BF12971F901241129711A2AFE4B7
:1077D20033FEC2AF53A9F0901238E06027901241F5
:1077E200E0F5AA8FAC901239E024FF92F9A3E06091
:1077F2000C90123FE025E0440142A9800353A9FE08
:0D780200D2E98002C2E9AF06EE12974622DD
:0BCC9A00EF6004439808225398F72233
:106D960090124212972920E304007F1622E47F0511
:106DA600901245129751C31209EC500C90124512DD
:106DB60097024004007F1A227FF87EFF7D037C0045
:106DC60090124512970A400E90124A7440F09012A3
:106DD600497407F080447FFC7EFF7D017C009012A1
:106DE6004512970A400E90124A7420F09012497488
:106DF60006F08026E47FFE7EFFFDFC90124512978A
:106E06000A90124A400B7410F09012497405F080F3
:106E1600097408F09012497404F0E47F08FEFDFC42
:106E260090124512975DC00790124AE0FBE4FAF90A
:106E3600F8D00712093FE412032CE4FBFAF978BFF5
:106E460012972390124B129711A2AFE433FEC2AFF2
:106E560053A90F901242E0602990124BE0F5AB8FD8
:106E6600AD901243E024FF92FBA3E0600E9012491E
:106E7600E0C43354E0441042A9800353A9EFD2EB97
:0B6E86008002C2EBAF06EE129746221E
:105FC5000709433B0B0709433B0B0707433B0B07FC
:105FD500078B3B0B07078B040B07078B040407078D
:105FE5008B0404040B048B061705078B0404040DAE
:105FF5008B0404040D000B0B040400008B0617052D
:106005000000061705000000170500000000050048
:106015000000000004070000000007000000000069
:106025001D0B000001000B00000100000000010035
:106035000000000100000000010000000000000059
:10604500000000000000000000000000000000004B
:10605500000000000000000000000000000000003B
:10606500000000000000000000000000000000002B
:10607500000000000000000000000000000000001B
:10608500C393C7712FEE93C7712FEE77C7712FEEAC
:106095007703712FEE7703342FEE7703341AEE77FB
:1060A50003341A0D658B021703077703341A0D02A3
:1060B50003341A0D02001A0D120900000217030716
:1060C5000000170307000000030700000000070099
:1060D50000000000070200000000020000000000B0
:10186400420E1E0000420E140000420E22000042EE
:101874000E180000410E1C01420E200000420E16FC
:101884000000420E240000420E1A0000410E1D0109
:108AE800E4FAF9F8901351120A4712B66CEF2430E1
:108AF800902510F0901351020A47E4FAF9F812B6DB
:108B08006CAC00AD01AE02AF03901351020A5FFFD7
:108B1800C3E09FFF7E00EF543FFFAD01ED24FF222D
:108B2800FF120ACCEF1206FB901398E0FF900D1687
:108B3800E075F006A422F583E5822FF582E43583FB
:108B4800F583E49322E433F0C2E8A2ACE43322E4F0
:108B580033F0C2E8A2AEE43322A2AFE433FFC2AFDF
:108B680022C374409FFFE49EFED3EF9403EE94006B
:108B780022E4F0A3E0543FF022E01206FBE4F58380
:108B8800EF24FF92AF7F0122120ACC8F82758300F7
:038B98000206AC26
:105AD400900D0C120AECE4900D15F0120BD15B46FC
:105AE4000000012C5B4D000002585B55000004B01F
:105AF4005B5D000009605B65000012C05B6D000027
:105B040025805B75000038405B7D00004B005B85A1
:105B1400000096005B8D0000DAC05B950000E10098
:105B24005B9D0001C2005BA5000384005BAD000720
:105B340008005BB50008CA005BBD001194000000BA
:105B44005BC5E4900D16F0807E900D167401F08014
:105B540076900D167402F0806E900D167403F0802A
:105B640066900D167404F0805E900D167405F08036
:105B740056900D167406F0804E900D167407F08042
:105B840046900D167408F0803E900D167409F0804E
:105B940036900D16740AF0802E900D16740BF0805A
:105BA40026900D16740CF0801E900D16740DF08066
:105BB40016900D16740EF0800E900D16740FF08072
:105BC40006900D157412F0900D15E07049128B308B
:105BD40024C5F582E4345F128B3E900D0C128B28A1
:105BE4002425F582E43460128B3E900D0F128B282D
:105BF4002485F582E43460128B3EFF900D12120A64
:105C0400CCEF1206FB900D12120ACC12069370060A
:0C5C1400900D157412F0900D15E0FF22A9
:0BCCA500EF6004439820225398DF2228
:10836C0090124CEFF0A3EDF0E59820E504007F109F
:10837C0022E4FF90124CE0602390124E120A477BCD
:10838C00017A127953900D0F120AEC7A1209900DA2
:10839C0012120AEC7A1209125AD4800BE49012557C
:1083AC00F0901253F0A3F0EF60020022128B619058
:1083BC002505E4F09025037480F0901254E090258C
:1083CC0000F0901253E0902501F0901255E09025AA
:1083DC0007F0902503E4F0902507F090124CE06034
:1083EC00389025027481F0901252E0FE543F902593
:1083FC0003F0902501E4F0EE20E604E04401F09057
:10840C001252E020E707902501E04402F0D2AC9034
:10841C00124DE024FF92BC8009902501E4F0C2AC1F
:0A842C00C2BCEF24FF92AF7F0022D4
:10C5B700A2E890139D128B4DF9C2AC900E14A3E024
:10C5C700900E1F128B1792AC90139DE024FF92E8F8
:01C5D7002241
:10C5D800A2E8900DC8128B4DF9C2AC900E18A3E0DA
:10C5E800900E23128B1792AC900DC8E024FF92E8AE
:01C5F8002220
:10ACA300AC0712C5D8128B6940F8A2E8E433FF124F
:10ACB3008B50FEC2AC900E1CE06010E4F0C2AF906B
:10ACC3002500ECF0E4F583D2AF8022900E22E0FA67
:10ACD300A3E024A6F582740E3AF583ECF0900E22DD
:10ACE300E475F0011207CC900E22128B79EE24FF4B
:08ACF30092ACEF24FF92E8226D
:10AF590090134D120AEC12C5B7EF4E7002FF22A2F0
:10AF6900E8E433901350128B4FFFC2AC900E14E4F7
:10AF790075F0011207E2FC742625F0F582740E3C87
:10AF8900F583E0FE90134D120ACCEE1206FB900EEB
:10AF990014128B79EF24FF92AC901350E024FF92A6
:04AFA900E87F01221A
:10C9D000E4FF900E1CE070010F902505E020E502B9
:03C9E0007F0122B2
:10B1DC00900DC8120AEC902501E030E1037F132298
:10B1EC00EDD3941040037F1422902505E030E5F94F
:10B1FC00E4FFEFC39D5022A2AFE433900DCBF0C21D
:10B20C00AF900DC8128B90902500F0E4F583900D53
:0CB21C00CBE024FF92AF0F80D97F00220E
:10C98000902505E030E00A128B61902500128B8122
:04C99000227F0022E0
:0BCCB000EF6004439840225398BF221D
:10843600900CFEEFF0A3EDF0E59820E604007F1027
:1084460022E4FF900CFEE06023900D00120A477BA9
:10845600017A0D7905900D0F120AEC7A0D09900D2F
:1084660012120AEC7A0D09125AD4800BE4900D0709
:10847600F0900D05F0A3F0EF60020022128B6190E0
:108486002515E4F09025137480F0900D06E09025F4
:1084960010F0900D05E0902511F0900D07E0902565
:1084A60017F0902513E4F0902517F0900CFEE0608D
:1084B600389025127481F0900D04E0FE543F90250B
:1084C60013F0902511E4F0EE20E604E04401F0906C
:1084D6000D04E020E707902511E04402F0D2AE90AB
:1084E6000CFFE024FF92BE8009902511E4F0C2AE95
:0A84F600C2BEEF24FF92AF7F002208
:10C45E00A2E8900D45128B57F9C2AE900E16A3E0CE
:10C46E00FFC3900E21128B1992AE900D45E024FF62
:03C47E0092E8221F
:10C48100A2E8900DC8128B57F9C2AE900E1AA3E024
:10C49100FFC3900E25128B1992AE900DC8E024FFB8
:03C4A10092E822FC
:10AC4A00AC0712C481128B6940F8A2E8E433FF1200
:10AC5A008B5AFEC2AE900E1DE06010E4F0C2AF90B7
:10AC6A002510ECF0E4F583D2AF8023900E24E0FAAD
:10AC7A00A3E024E6F582740E3AF583ECF0900E24F4
:10AC8A00E475F0011207CCE4900E24128B7AEE24BC
:09AC9A00FF92AEEF24FF92E822C4
:10AEAF00900D41120AEC12C45EEF4E7002FF22A207
:10AEBF00E8E433900D44128B59FFC2AE900E16E4A6
:10AECF0075F0011207E2FC746625F0F582740E3CF2
:10AEDF00F583E0FE900D41120ACCEE1206FBE490D2
:10AEEF000E16128B7AEF24FF92AE900D44E024FFE2
:05AEFF0092E87F012232
:10C9E300E4FF900E1DE070010F902515E020E50295
:03C9F3007F01229F
:10B22800900DC8120AEC902511E030E1037F13223B
:10B23800EDD3941040037F1422902515E030E5F9F2
:10B24800E4FFEFC39D5022A2AFE433900DCBF0C2D0
:10B25800AF900DC8128B90902510F0E4F583900DF7
:0CB26800CBE024FF92AF0F80D97F0022C2
:10C99400902515E030E00A128B61902510128B81EE
:04C9A400227F0022CC
:10924200128B11128AFCEC335018128AFC1209DEBE
:10925200128B11902510742DF0902515E020E50851
:1092620080F79025107420F0E47B107A27128AEAA6
:10927200E47B107A27128B04902515E030E5F9E49F
:109282007BE87A03128AEAE47BE87A03128B049081
:109292002515E030E5F97B64128AE87B64128B02C3
:1092A200902515E030E5F97B0A128AE87B0A128BD9
:1092B20002902515E030E5F9128AFCEF2430902562
:1092C20010F0902515E030E5F99025107420F0900B
:0D92D2002515E030E5F9E47F01FEFDFC22EA
:09CCEE00C2AF75D25575D2AA221D
:0BCCBB00EF6004439201225392FE221E
:10BBD200E59220E004007F1022EDD3940F40040090
:10BBE2007F1122A2AFE433FEC2AFEF600C12CCF0A1
:10BBF200ED540F4440F5D2800612CCF075D280AFDE
:09BC020006EE24FF92AF7F002240
:10C2920090FFFF120C0BA2AFE433850D83850E8253
:10C2A200F012CCEE43D240850D83850E82E024FF4E
:08C2B20092AF900001020C0B99
:10C0ED00A2AFE433FCC2AFEF4E600E90138AEEF0B8
:10C0FD00A3EFF07D0F7F018009E490138AF0A3F088
:0DC10D00FDFF12BBD2AF04EC24FF92AF2265
:10C8E700EFD3940F4004007F112212CCEEEF540FC8
:07C8F700F5D243920180FE1F
:10B77600900D41120AEC7F007E10E4900D44F0FD1E
:10B78600EF2DF582E43EF583E493FC900D44E02C26
:10B79600F0900D41120ACC8D82758300EC12070DD4
:10B7A6000DEDB440DB900D44E070037F01227F0075
:01B7B6002270
:0418940041139E005E
:10C9A800F0C2AF9027A6E04480F0E4F583D2AF90C0
:04C9B800139EF022B8
:0BCCC600EF6004439940225399BF2205
:109BD300E59920E604007F1022E490139EF090277D
:109BE300AA04F09027A974A5F0EB600D9027ACE4CC
:109BF300F09027AB748CF080109027AAE09027ACEC
:109C0300F09027A9E09027ABF09027B2E4F09027DB
:109C1300B17464F09027AF745AF0A374B4F0902732
:109C2300ADF0A3745AF0901358E09027A2F0902758
:109C3300A6742FF0ED600543F901800353F9FEEF9D
:0D9C4300600543E901800353E9FE7F002224
:10BC7C00E59920E604007F10229027A4EFF090278E
:10BC8C00A77408F0A3742912C9A87F12FDFC9013A5
:10BC9C009EE06004E4FF800B0DBD00010CBC75EE52
:08BCAC00BD30EBEF6001002246
:10BE2A00E59920E604007F10229027A77406F0A364
:10BE3A000412C9A87F11FDFC90139EE06004E4FF80
:10BE4A00800B0DBD00010CBC75EEBD30EBEF60013F
:02BE5A000022C4
:10BE8D000A0D2045564B203A204C49422056322E61
:10BE9D003500000000000000000000000000000060
:10BEAD000000000000000000000000000000000085
:1092DF00A37429F004F004F07429F004F004F0747E
:1092EF0029F004F004F022900D1F7412F0A3740300
:1092FF00F0A32274039022CFF09022CE22900D1F64
:10930F007413F0E4A3F0A322F0A3F0A3F0A3F0A34F
:10931F00F0A3F022900D1F7413F0A37401F0A32299
:10932F0074029022CFF09022CE22F09022497463E3
:10933F00F0A37455F0229022B0E04401F0E4FEFF58
:10934F0022F07464A3F0A37404F02274C0F0A37429
:10935F0070F090223C7490F02224A69022BFF090DF
:0D936F0022BEE4F022A3F0A37450F0A3226C
:109C5000EFD394054025902232743AF0A37434F087
:109C600090223812935A9022427411F09022457437
:109C70001E12933990224D7426804C902232744AE1
:109C8000F0A37416F090224214F09022457423F051
:109C9000EFC39405902238401A12935A90224974C7
:109CA00021F0A304F090224D04F0A37499F0A37462
:109CB00007F0227450F0A374B0F090223C7450125C
:0B9CC000933990224D74121293502231
:107F440090278074F6F0A37423F09022B07440F06C
:107F54009022C67480F09022C274B0F09022117402
:107F640002F090220C7405F09022207480F0A3E4B7
:107F7400F0A37485F09022B97402F0A37463F090B6
:107F840022B774CFF0A3E4F09022C8745FF0A37416
:107F940009F0EF30E0047E0E80027EA29022CAEE49
:107FA400F07408129353A3E4F0740B129304740F47
:107FB400F0902230744AF0902232F0A37416F0EF5D
:107FC40030E0047E4B80027E4D902235EEF0EF309F
:107FD400E0047FC680027FCD902236EFF0745C12FD
:107FE400937474B0F090223B7450F0A3F09022404C
:107FF4007420F0A3F0A37415F0A37410F0A3F0A3FD
:108004007423129339A374E1F090224D74121293E5
:0E8014005090221D7485F09022E1746EF022CF
:10ACFB00AE07EE6003B4010790222174018010EEC1
:10AD0B00902221B40208E4F0A374E5F08006E4F08D
:10AD1B00A37485F0AF06129C50EED39405400D90B2
:10AD2B0022197410F09022CA74D5F022EEC3940548
:10AD3B00902219400A7410F09022CA74AAF022E4EF
:08AD4B00F09022CA74A2F0226C
:10597A00E4900D1EF0EF8EF0120BA459C909655977
:10598A00D2096A59DB096F59E4097459ED09795941
:10599A00F6097E59FF09835A0809885A11098D5A4E
:1059AA001909925A2109975A29099C5A3109A15A67
:1059BA003909A65A4109AB5A4909B000005A51128D
:1059CA0092F67428F0025A571292F67450F0025A5C
:1059DA00571292F67478F0025A571292F674A0F09F
:1059EA00025A571292F674C8F0025A571292F67473
:1059FA00F0F0025A5712930C7418F0025A57129385
:105A0A000C7440F0025A5712930C7468F0803E12DC
:105A1A00930C7490F0803612930C74B8F0802E12A6
:105A2A00930C74E0F080261293237408F0801E12FF
:105A3A0093237430F080161293237458F0800E1258
:105A4A0093237480F08006900D1E7417F0900D1E3B
:105A5A00E0FF6001229022BE74C0F09022B474016B
:105A6A00F0900D1FE09022B1F0900D20E09022B24C
:105A7A00F0900D21E09022B3F09022B0E04401F0C2
:105A8A00900D1E7414F0E4FFFE9022BDE030E00792
:105A9A00E4900D1EF0800B0FBF00010EBE27EABF77
:105AAA0010E7900D1EE0601C1293459022BDE03075
:105ABA00E007E4900D1EF0800B0FBF00010EBE2719
:095ACA00EABF10E7900D1EE0FF99
:015AD30022B0
:085D6100901375EEF0A3EFF0C2
:105D6900C3945AEE94094010901375E0FCA3E0FD2A
:105D7900D394CBEC940940037F11229013777417C5
:105D8900F0ED8CF0120BA45DD409655DD6096A5D4E
:105D9900DD096F5DE409745DEB09795DF2097E5DEA
:105DA900F909835E0009885E07098D5E0E09925E16
:105DB9001509975E1C099C5E2309A15E2A09A65E46
:105DC9003109AB5E3109B000005E3C80009022C20F
:105DD90074D280599022C274D180529022C274D157
:105DE900804B9022C274D180449022C274D0803DED
:105DF9009022C274D080369022C274D0802F902213
:105E0900C274D080289022C274CF80219022C2749B
:105E1900CF801A9022C274CE80139022C274CE8091
:105E29000C9022C274CE80059022C274CDF0E49009
:105E39001377F0901377E0FF6001229022B0E044DD
:105E490002F0901375A3E01293689013777414F01D
:105E5900E4FFFE9022BDE030E007E4901377F08084
:105E69000B0FBF00010EBE27EABF10E7901377E0C2
:105E7900601C1293459022BDE030E007E49013774F
:105E8900F0800B0FBF00010EBE27EABF10E7901389
:035E990077E0FFB0
:015E9C0022E3
:10897B00C3EF9465EE94094009D3EF94B0EE9409DC
:10898B0040037F1122C3EF94B0EE9409400590226F
:10899B00C28033C3EF949CEE940940089022C274BA
:1089AB00B3F08025C3EF947EEE940940089022C269
:1089BB0074B4F08014C3EF9465EE94099022C24016
:1089CB000574B5F0800374B2F0D3EF947EEE940986
:1089DB009022B950057422F080037402F09022B0FB
:1089EB00E04402F0EF1293687D14FFFE9022BDE08D
:1089FB0030E004E4FD800B0FBF00010EBE27EDBF7E
:108A0B0010EAED60191293459022BDE030E004E4CA
:108A1B00FD800B0FBF00010EBE27EDBF10EAE4FE79
:088A2B00FF600312597AAF0548
:018A33002220
:0CCBD1009022BFE0245AFFE43409FE2249
:1061FF00EF120B7E624C0062530162600262690310
:10620F00627004627705627E06628507628C08629F
:10621F00990962A00A62AD0B62B40C62BB0D62C831
:10622F000E62D40F62DB1062E81162EE1262F51398
:10623F0062FC14630315630F16000063189022CFDE
:10624F00740B80059022CF7404F09022CE740FF05F
:10625F00227405129331740BF022129302740AF018
:10626F002212932F7409F0221293027407F0221254
:10627F0093027406F0229022CF740380059022CFF0
:10628F007401F09022CE7405F02212932F7404F053
:10629F00229022CF7407F09022CE7403F022902226
:1062AF00CF740280199022CF740C80059022CF7486
:1062BF0004F09022CE7402F0229022CF7401F0905D
:1062CF0022CE04F0229022CF741F80059022CF742B
:1062DF000FF09022CE7401F02212932F14F022901F
:1062EF0022CF7401801E9022CF741F800C9022CF7A
:1062FF00740880059022CF7401F09022CEE4F02232
:0A630F009022CFE4F09022CEF0229D
:10A54E00EFB401079022707424F022EF64026005CC
:10A55E00EF6403703990278074FEF0902219740115
:10A56E00F09022707427F0902280E030E0F9902273
:10A57E00807423F0A37407F0EF902270B403057477
:10A58E0077F080037422F09022817460F02290277D
:10A59E008074F6F0902219E4F09022807480F0A37B
:0AA5AE00746CF09022707480F022AB
:10C9BC00EF9022926008740EF0A37402F0227401BE
:04C9CC00F0A3F022C2
:08CD2700902290E054C0F022BC
:10A5B800EF30E00C902720E4129317A31293172290
:10A5C800EF90272030E7297404F0A374E2F0A37415
:10A5D80004F0A374E2F0A37414F0A37410F0A3E4DD
:10A5E800F074FA129374F0A374A0F0A37464F022C8
:10A5F8007402F0A37471F0A37402F0A37471F0A351
:10A60800740AF0A37408F0A3E4F0A3747CF0A374B4
:09A6180028F01293747432F02250
:10780F00902785E090228230E272E4F000000000C1
:10781F00000000001292DF00000000000000007462
:10782F0029F0000000000000000000000000000030
:10783F000000000000000000000000000000000039
:10784F000000000000000000000000000000000029
:10785F000000000000000000000000000000000019
:10786F000000000000000000000000000000000009
:10787F00000000000000000000008010E4F0000095
:10788F0000001292DF000000007429F000000000D9
:10789F0000000000000000000000000000000000D9
:1078AF0000000000000000000000000000000000C9
:1078BF0000000000000000000000000000000000B9
:1078CF0000000000000000000000000000000000A9
:1078DF000000000000000000000000000000000099
:0D78EF00000000007440F090228214F0228E
:050006007EBE7F8D228B
:1035D5002023232045413D302C20496E74657272AD
:1035E5007570742044697361626C656420232300DF
:1035F5002023232055415254303A496E7465727226
:103605007570742044697361626C656420232300BE
:103615002023232055415254313A496E7465727204
:103625007570742044697361626C6564202323009E
:10363500202323205541525430203A20496E746589
:1036450072727570742044697361626C65642023BD
:103655002300202323205541525431203A20496E1E
:10366500746572727570742044697361626C656407
:10367500202323000A002025303278000A205B4DE4
:1036850049425D000A204368616E3D257520282565
:1036950075204D487A292C2000202050616E494420
:1036A5003D307825303478000A2053686F727441B4
:1036B5006464723D30782530347800203A494545B8
:1036C500454164647228307E37293D3078000A20F0
:1036D50044737453686F7274416464723D30782525
:1036E50030347800203A4473744945454541646453
:1036F5007228307E37293D3078000A204461746194
:10370500526174653D3078253032782C2000203A9E
:1037150054785077724C6576656C3D30782530323B
:10372500782C200020204E6F41636B5265747279AE
:103735003D257500203A4261636B6F66665265747C
:1037450072793D2575000A205B52582D4D41432D58
:10375500504B545D000A2044534E3D30782530329D
:10376500782C204F4F423D30782530327800203A72
:1037750064426D3D256400203A436F72723D2564B5
:10378500000A204473742E204D6F64653D25303248
:103795007800203A50616E49443D307825303478C0
:1037A50000203A53686F7274416464723D30782525
:1037B50030347800203A4945454528307E37293D43
:1037C5003078000A205372632E204D6F64653D25C5
:1037D500303278000A204D534455204C656E3D2506
:1037E500303275203A2000203A4D534455203D0093
:1037F5000A203D3D3D2048494220446973706C6173
:1038050079203D3D3D000A20494545452041444438
:1038150052284C53427E4D534229203A000A2043F8
:10382500686970496E646578203D203078253032AE
:10383500780020284D4732343030290020284D4764
:1038450032343558290020284D4732343730290085
:1038550020284D4732343630290020284D47323450
:10386500313029002028556E636C61737369666970
:10387500656429000A204368616E6E656C2020200E
:103885003D20257520282575204D487A29000A20D8
:10389500537461636B49442020203D2030782530E6
:1038A5003278000A205478506F7765722020203DC9
:1038B5002030782530327800202020204461746142
:1038C5005261746520203D20307825303278000A19
:1038D5002050616E494420202020203D203078254D
:1038E500303278253032780020204E776B41646481
:1038F5007220203D2030782530327825303278000E
:103905000A205365634C6576656C20203D20307830
:10391500253032780020202020507265436F6E6676
:103925006967203D20307825303278000A204E57CF
:103935004B204B657920284C53427E4D534229201C
:103945003A000A205265736572765F30284C5342FF
:103955007E4D534229203A000A20455049442020F3
:103965002020284C53427E4D534229203A000A20FC
:103975005265736572765F31284C53427E4D5342D2
:1039850029203A000A2047656E6572616C576F728F
:103995006430203D2030782530327825303278006B
:1039A5000A2047656E6572616C576F726431203D00
:0C39B50020307825303278253032780040
:1018980042115C000042115E0000421160000042EB
:0918A8001162000042116400000D
:10464C001208A79011EA120A5F9011EA120A53900D
:10465C0011E7E075F064A4FFAEF0E4FCFD1208A7CE
:10466C009011EA120A5F9011EA120A5375F00A903F
:10467C0011E6E0A4FFAEF0E4FCFD1208A79011EAED
:10468C00120A5F9011EA22120ACC9000191206ACA1
:10469C00FFE4900D5AF0A3EFF07BFF229000011283
:1046AC000823FF900DD3120ACC900DD9E0FDF582B2
:1046BC00758300EF12070D900DD0120ACC900001FB
:1046CC00120823E5F0FFED2401FDE433FC900DD33B
:1046DC00020ACC8D828C83EF12070D900DD0020A4A
:1046EC00CCF9E43AFAE4900D53F07D08FC22900DDD
:1046FC00D9E0F582758300ED12070DEEFF900DD910
:10470C00E0F58275830022901378120ACC90000495
:10471C00120823FF900D5AE5F0229012BF120ACC1A
:10472C001207F8FFE5F0C4F854F0C868FEEFC45463
:10473C000F48FFEE8FF012085B9012C4E02290112C
:10474C00E6E09011E5F09011E7E09011E6F09011A1
:10475C00E8E09011E7F09011E9E09011E8F0E4A3A3
:10476C00F09011E4E014F0229011E7E0FF7E007C61
:10477C00037DE812072FE4FCFD221206ACFF900D1E
:10478C005AE4F0A3EFF022120A47E47B107A27F9DF
:10479C00F80208B490137B120ACC9000080206AC05
:1047AC00FFFD900D5AE4F0A3EDF07E007C007D053A
:1047BC0012072FEF242EFFEE3409A32274852FF558
:1047CC0082E4340DF583229012C6120ACC020693B1
:1047DC00120A539011E5E0FFE4FCFDFE22E92401EE
:1047EC00F9E43AFA020693120AEC7BFF7A367979ED
:1047FC007F0122901378120ACC9000020206AC8D35
:10480C00828C83EF12070D900DD9221206ACFF900B
:10481C000D5CE422E475F0010207CCC4540F1206BF
:10482C00FB9012CBE022EF24D09011E2F09011E437
:10483C00E0C3940422120A539011E2E0FF3395E096
:10484C00FEFDFC22900DC5E0FFC3944022F0E4F580
:10485C0083900DCEE024FF92AF2290000C0206ACA8
:10486C0090000B0206AC901378020ACCEFF0A31266
:10487C000AECE4222402FFE433FEE92FF9EA3E229B
:10488C00120A539011E5E075F00A22900DD9E07EE2
:10489C000029F9EE3A22FF900DD6020ACC900DC5F4
:0D48AC00E004F0229012BF120ACC0207F8BF
:10C4A400900DC6EFF0902501E0900DC630E105E057
:10C4B400FF02ACA3E0A3F07B017A0D79C77D0112E2
:03C4C400B1DC22C6
:10C1C700901359120AEC902501E090135930E008BA
:10C1D700120ACC12AF598006120ACC12C9809013EA
:09C1E7005CEFF090135CE0FF2214
:10C4C700900DC6EFF0902511E0900DC630E105E024
:10C4D700FF02AC4AE0A3F07B017A0D79C77D011218
:03C4E700B2282256
:10C1F00090135D120AEC902511E090135D30E00879
:10C20000120ACC12AEAF8006120ACC12C994901357
:09C2100060EFF0901360E0FF22E2
:10A0F900900DCA120AECA2AFE433900DCEF0C2AFB4
:10A10900902500740AF0740DF0902510740AF0740B
:10A119000D124859902505E030E5F9902515E030F4
:10A12900E5F9E4900DCDF0900DCA120ACC12C96B75
:10A13900900DCDE0C39FE49E5029A2AFE433A3F074
:10A14900C2AF900DCA120ACC900DCD12470C12065F
:10A15900AC902500F0902510124859900DCDE004DF
:04A16900F080C4229C
:109F9900900DC6EFF020AF3D7BFF7A3579D512A041
:109FA90007900DC6E0700B20AC087BFF7A3579F578
:109FB9008010900DC6E0B4010C20AE097BFF7A3603
:109FC900791512A007C2AF75D25575D2AA75D20AF2
:109FD90043920180FE900DC6E0700B20AC087BFF18
:109FE9007A3679358010900DC6E0B4011020AE0D97
:109FF9007BFF7A367957A3120AEC12A0F922A31231
:06A009000AEC12A0F9228E
:108E5F00900D57120AEC900D56EFF0129F99E49077
:108E6F000DC5F0124850500A1247C8E4F01248A935
:108E7F0080F17B017A0D795A900D82120AEC900DD8
:108E8F0057120ACC900DC6120AEC900D82120ACC22
:108E9F00900DC9120AEC7B017A0D798512B3E89017
:108EAF000D56E030E02BE4900DC5F0124850504CB9
:108EBF001247C8E0FF604512C4C7900DC5E0248576
:108ECF001247CBE0B40A057F0D12C4C71248A98020
:108EDF00DAE4900DC5F012485050211247C8E0FF58
:108EEF00601A12C4A4900DC5E024851247CBE0B4DC
:0D8EFF000A057F0D12C4A41248A980DA22D2
:107271009012BE1248789012C4F0F5F012085B7FAC
:10728100107E2712C0ED9012BEE030E04C7B017AF7
:107291001279C312C1F0EF60E612735560129012B9
:1072A100C4E0640460D99012C3E0FF12C4C7804AED
:1072B1009012C3E064087018A3E060147F0812C440
:1072C100C77F2012C4C77F0812C4C712472614F013
:1072D1009012C3E0640D70A7227B017A1279C31268
:1072E100C1C7EF609A127355603E9012C4E0640406
:1072F100608D9012C3E0FF12C4A41248B0C4F854C8
:107301000FC868FFE5F0C454F0488FF012085B1213
:1073110048B0FF9012C2E0FD3395E045F0FEEF4D1D
:1073210012473E04F00272809012C3E064087018A4
:10733100A3E060147F0812C4A47F2012C4A47F08B4
:1073410012C4A412472614F09012C3E0640D600326
:10735100027280229012C3E0FF12C3309012C2EF7A
:03736100F0F42223
:107CA2009012C51248789012CBF01206FB7F107E1C
:107CB2002712C0ED9012C5E030E04F7B017A1279B5
:107CC200CA12C1F0EF60E6127D7660129012CBE02C
:107CD200640260D99012CAE0FF12C4C7804D9012AC
:107CE200CAE06408701BA3E060177F0812C4C77F54
:107CF2002012C4C77F0812C4C71247D312482714E0
:107D0200F09012CAE0640D70A4227B017A1279CA43
:107D120012C1C7EF6097127D76602A9012CBE064A1
:107D220002608A9012CAE0FF12C4A41247D3C4545C
:107D3200F01206FB1247D3FF9012C9E04F12482AF5
:107D420004F0027CAF9012CAE06408701BA3E060EA
:107D5200177F0812C4A47F2012C4A47F0812C4A4EF
:107D62001247D312482714F09012CAE0640D600340
:107D7200027CAF229012CAE0FF12C3309012C9EF08
:037D8200F0F422F8
:104D7C009011DE1248789011E4F0F5F012085BE423
:104D8C009011E5F0A3F0A3F0A3F0A3F07F107E2721
:104D9C0012C0ED9011DEE020E003024E777B017A29
:104DAC001179E312C1F0EF60E39011E3E0FFC394DB
:104DBC0030405BEFD3943950551248325003024EB9
:104DCC00149011E4E0640470C39011E81247E212ED
:104DDC004689124793124689120A53C0001247742F
:104DEC00D000124686120A5375F06412467B1248A4
:104DFC008C12467F124841124686120A47E4FEED99
:104E0C004C70899011E3E0FF12C4C7024EFB901165
:104E1C00E3E064087016A3E060127F0812C4C77F39
:104E2C002012C4C77F0812C4C712474A9011E3E08E
:104E3C00640D6003024D989011E91247E2A31246EB
:104E4C008C124793124689120A53C0009011E81233
:104E5C004777D00012464C1247DC124686120A479E
:104E6C00E4FFFEED4C600122024F7E7B017A11794A
:104E7C00E312C1C7EF7003024D989011E3E0FFC33A
:104E8C0094305003024F24EFD394394003024F2443
:104E9C00124832500612C4A4024EFB9011E4E06496
:104EAC00046003024D989011E81247E212468912F1
:104EBC004793124689120A53C000124774D000124D
:104ECC004686120A539011E6E075F06412467F1282
:104EDC00488C12467F124841124686120A47E4FE5D
:104EEC00ED4C6003024D989011E3E0FF12C4A490C6
:104EFC0011E8E0A3F09011E7E0A3F09011E6E0A335
:104F0C00F09011E5E0A3F09011E2E09011E5F09043
:104F1C0011E4E004F0024D989011E3E0640870167F
:104F2C00A3E060127F0812C4A47F2012C4A47F08DF
:104F3C0012C4A412474A9011E3E0640D6003024DC1
:104F4C00989011E91247E2A312468C12479312462D
:104F5C0089120A53C0009011E8124777D00012460C
:104F6C004C1247DC124686120A47E4FFFEED4C60F9
:104F7C0001229011EA120A479011DF120ACCEE8F2F
:074F8C00F012085B7F012217
:10B9F800A2A9E433FEC2A9EF700590115C8022EF82
:10BA0800B4010590115E8019EFB4020590116080B1
:10BA180010EFB403059011628007EFB40408901189
:0EBA280064ECF0A3EDF0AF06EE24FF92A9222D
:10BEBD00EF700590115C8019EFB4010590115E8053
:10BECD0010EFB402059011608007EFB4030A9011D2
:10BEDD0062E0FCA3E0FD8003E4FCFDAF05AE0422AF
:1043B000900DD0120AEC120693FF64026004EFB471
:1043C00003201246E7900001120823FF90113FE0FE
:1043D000B5F00DA3E0B50708900DDA7401F0800781
:1043E0008000E4900DDAF01246D974011206FB1237
:1043F00046E712486630E00B1246D9120693442075
:104400001206FB900DDAE0600B1246D912069344B7
:10441000401206FB1246E71248665430C4540FFFA0
:104420001246D9900001EF12070DE92401F9E43A90
:10443000FAC003C002C001120693FF1246E71248F9
:104440006654C01313543F4FD001D002D00312065C
:10445000FB1246E7120693FF6027EFB4020A1246EA
:10446000D91247E9440880111246E7120693B403B3
:104470000D1246D91247E9440C1206FB80037FE86F
:10448000221246E712486CFF6027EFB4020A124678
:10449000D91247E9448080111246E712486CB403F0
:1044A0000D1246D91247E944C01206FB80037FE88B
:1044B00022901159E004FFF01246D99000021248F0
:1044C0000F7403F01246E712069364027035124629
:1044D000A81246DF900003120823FF900DD9E024B4
:1044E000021246D51246DF900003120823E5F0FFC2
:1044F000900DD9E024031246D512480BE02404F0B5
:104500000245371246E71206936403702A1246E703
:104510001246A812480BE0124880FEAF011246E78F
:10452000E92403F9E43AFCAD017B087A0012A40BFC
:10453000900DD9E0240AF01246E712486C6402702C
:1045400054900DDAE06019901141E0FEA3E0FD12F5
:1045500046D91246FAA312480FE02402F00245E0C1
:1045600090113FE0FEA3E0FD1246D91246FAA3EFF8
:1045700012070D901141A3E0124708A3A3EF120701
:104580000D901141E0124708A3A3A312480FE024A5
:1045900004F00245E01246E712486C640370419053
:1045A0000DDAE0600E1246D91248971246392408F7
:1045B000F0802D90113FE0FEA3E0FD1246D9124796
:1045C00009ED12070DEEFF900DD9E0FEF58275831F
:1045D00000A3EF12070DEE124880124639240AF0AC
:1045E000900DD9E01248A2EF1206FB1246E79000A8
:1045F0000D1206AC1248A2EF1206D91248A374029B
:104600001206D9900DD61247D6D3947F40037FE58A
:10461000221246D9124897FEAF011246E790000ECB
:10462000120AF5AC02AD011246E790000D1206AC7D
:10463000FB7A0012A40B7F0022FEAF017C117D43A8
:0C4640007B087A0012A40B900DD9E02238
:10A88B00E49010F2F0EF04900DD3F0ED04A3F0E49C
:10A89B00900DD1F0900DD3E0FF900DD1E0C39F5000
:10A8AB003EE4A3F0900DD4E0FF900DD2E0C39F5097
:10A8BB001812829C900DD0EFF064156004E0B4E1A7
:10A8CB0008900DD2E004F080DB900DD0E07008A36F
:10A8DB00E09010F2F08008900DD1E004F080B5907C
:05A8EB000DD0E0FF228A
:10BA7300C003C002C0017B017A237901900DD31268
:10BA83000AEC7A0D79CF900DD6120AECD001D002D0
:10BA9300D0031243B0EF7013900DCFE0902300F06A
:0CBAA30090115AE0FFA3E0FD12A88B22D6
:020029000022B3
:10BEED0090138CEEF0A3EFF0E4901132F0A3F090EC
:10BEFD00138CE0FEA3E0FFC3901133E09F9011324D
:10BF0D00E09E500B12CAF090113212482080E022B0
:10CAF000E4901134F0901134E004F0E0B401F62237
:10CB0000E4901135F0901135E004F0E0B409F6221C
:10CB1000E4901136F0901136E004F0E0B430F622E3
:10CB2000E4901137F0901137E004F0E0B460F622A1
:10C80500E4901138F0A3F0901138124820901138B7
:0AC81500E07004A3E0646970EE22F5
:10C81F00E490113AF0A3F090113A12482090113A97
:0AC82F00E07004A3E064D270EE2272
:10C5F900E490113CF0A3F0C390113DE09F90113CF1
:10C60900E09E500B12C81F90113C12482080E8226E
:10A7BD00900D4E120AEC900D51ECF0A3EDF0E490DB
:10A7CD000D54F0A3F0900D51E0FCA3E0FD900D545D
:10A7DD00E0FEA3E0FFC39DEE9C503B900D53E0FDCA
:10A7ED00600F7C00120741ED4C70061247F6128E79
:10A7FD005F900D4E120ACC900D54E0FEA3E0F58251
:10A80D008E831246997A36797B7F01128E5F900D79
:07A81D005412482080AF2215
:107BBB00900D4B1247F3128E5F7A367981127C70DF
:107BCB001206931247AC1246A17A367989127C7E43
:107BDB00900001120823FFE5F012469E7A36799E3B
:107BEB00127C7E90000312471C1246A17A3679ADA7
:107BFB007F01128E5F7A3679C0127C70E9240512F0
:107C0B0046ED12A7BD900D4B120ACC90000F1247F8
:107C1B001C1246A17A3679D37F01128E5F7BFF7AD5
:107C2B003679E9127C8AE924111246ED12A7BD9030
