:10AE0000C00F74AEC0E0C082C083750F0A75A10088
:10AE10000000000022C00F74AEC0E0C082C0837585
:10AE20000F1F75A1010000000022C00F74AEC0E02A
:10AE3000C082C083750F3475A1020000000022C0DB
:10AE40000F74AEC0E0C082C083750F4975A10300C6
:04AE500000000022DC
:0DC94E00EF90C9579390AE00730A1F344953
:10A14800EB60010A4A601D8C838D8263A2018E83B5
:10A158008F8263A20100E0A363A201F0A363A201BE
:10A16800DBF4DAF222C0A275A2010000C082C0832B
:10A1780063A2010000C082C083EB60010A4A601D2F
:10A188008C838D8263A2018E838F8263A20100E09B
:10A19800A363A201F0A363A201DBF4DAF2D083D0B7
:0DA1A8008263A2010000D083D082D0A222E9
:03000000025A227F
:105A22007598007599209022E074D9F090270E7431
:105A320000F09027027470F09027037400F0E49055
:105A42000000F0900000E004F0E0B4C8F6902700F7
:105A52007480F09027087400F0902709F0902720B6
:105A6200F0902721F0902722F0902723F09027240E
:105A7200F0902725F0902726F0902727F0902728EE
:105A8200F0902729F090272AF090272BF0759900A3
:105A92009022E17400F09022E27490F09022E77478
:105AA200FFF09022E8F09022E9F09022EAF09022B2
:105AB200EBF09022ECF09022ED7400F09022EEF0E8
:105AC2009022EFF09022F0F09022F1F09022F2F08A
:105AD200750D18750E00758121C2C112AE0A025BE6
:015AE2001EA5
:0CC98D00016800AA005A002D0015000BE4
:0A18000042120E000042120C00001C
:10BF9300900D246480F8E064809822900D24E0FEE4
:10BFA300A3E0FFC322900D30120A5F900D30020A06
:0ABFB30047120ACC900D29020AEC97
:0EC90800902784E054BFF00000E04440F0228D
:10A93800EBD394084004007F1222EDD39403500413
:10A94800EDB40104007F1122EF9022E66026E04476
:10A9580004F0902781E0440CF09022D4E04480F089
:10A96800E054F04BF0AF05EFC43354E0FFE0549FE0
:10A978004FF08012E054FBF09022D4E0547FF09026
:09A988002781E054F3F07F002266
:10BF6900EFD394035005ED94034004007F11229010
:10BF79002786E054FC4FF0AF05EF25E025E0FF9060
:0ABF890022D5E054F34FF07F0022B0
:10BEB600ED6005D3940E4004007F1122ED04C454B6
:10BEC600F0FE9022D5E0540F4EF0EF6006E04402FB
:0DBED600F080079022D5E054FDF07F00229F
:10C36B00A2AFE433FFC2AF9022D7E0FDE0FEEF2493
:10C37B00FF92AFAF06EFFEEDFF7C007D101207962C
:01C38B00228F
:10C80A009022D6E05478131313541FFF60011F229D
:10B4620074FFF5F012085B7F13E4901206F0A3F06C
:10B472009022D6E05470600D12C36BEE8FF012086A
:10B482005BE4FF8019901206E475F0011207CCC349
:10B49200901207E094D0901206E0940740D2EF6039
:03B4A20001002284
:109A0F00AA05EBD394084004007F1222EAD39403F3
:109A1F004004007F1122EF60557D02E4FF12BEB6B5
:109A2F00AF02AD077F0112A938AC07EC704912C91C
:109A3F0008901362E025E0248DF582E434C9F583A4
:109A4F00E493FF740193901208CFF0A3EFF0E4A317
:109A5F00F0A3F090120812BFA190120BE09F90128A
:109A6F000AE09E5012E475F0011207CC80E5E4FB8A
:0A9A7F00FDFF12A938AC07AF042266
:10BBB900900D01120AECEFD394084004007F122281
:10BBC900AB07E4FD7F01129A0FEF600122900D018E
:10BBD900120ACC12B462EF600122E4FBFDFF129A53
:04BBE9000F7F0022A8
:10704300900D22EEF0A3EFF0A3ECF0A3EDF0900D82
:1070530028E0FFC3940A4006EFD3940F4004007F57
:107063001122900D2212BFA1900D25E09FEE12BFB9
:10707300934004007F142212BF9E900D23E09FFFD4
:10708300900D22E09E900D2CF0A3EFF0D3900D25F0
:10709300E09BEA12BF934009E4900D2EF0A3F08029
:1070A30029C3900D23E09BEA900D2212BF96500B4B
:1070B300900D2CE0FFA3E0A3CF800B12BF9EEB9FAC
:1070C300FFEA9E900D2EF0A3EFF0900D28E0FF74E1
:1070D300017E00A807088005C333CE33CED8F92438
:1070E300FFFFEE34FFFEE4FCFD900D30120A5F90CB
:1070F3000D2EE0FEA3E0FFE4FCFDA3120A531208E9
:10710300B412BFA8C006C007900D2CE0FEA3E0FB9D
:10711300AA06E4F9F8D007D00612093F12BFA8EE79
:10712300547FFE900D29120ACCEE8FF012085B7F7C
:02713300002238
:0CC975007B017A12790E7F0712BBB922F9
:0CC981007B017A12790C7F0812BBB922EE
:10ABA300900D1D120AEC900D1CEFF0C3940A4006A1
:10ABB300E0D3940F4004007F11227B017A0D7920AA
:10ABC30012B462EF60012290120EE0FEA3E0FF9048
:10ABD300120CE0FCA3E0FD900D1CE0900D28F0901A
:10ABE3000D1D12BFB4900D20E0FAA3E0FB127043D9
:07ABF300EF6001227F002248
:1095F3009011F1EDF0A3120AEC9011F0EFF0D39477
:10960300084004007F12229011F1E0FFC3940A4046
:1096130006EFD3940F4004007F11227B017A117966
:10962300F77F0712BBB9EF6001227B017A1179F54D
:109633007F0812BBB9EF6001229011F0E0FF7B01BC
:109643007A1179F912BBB9EF6001229011F7E0FEAC
:10965300A3E0FF9011F5E0FCA3E0FD9011F1E09091
:109663000D28F09011F212BFB49011F9E0FAA3E0C3
:0B967300FB127043EF6001227F002219
:04180A004113620024
:10AC5100E4FDEF14601414601514601614601714E9
:10AC61006018240570187E088016E4FE80127E208C
:10AC7100800E7E40800A7E6080067E0C80027D12FE
:10AC8100ED600300FF22901362EFF0538E10EE424D
:10AC91008EE58E90278530E306E04404F08004E0E1
:06ACA10054FBF07F0022CD
:030026008F98228E
:03002E008F992285
:030036008F9A227C
:08180E00411352004113530085
:10C6CF00A2AFE433FEC2AFEB9022EF22AF06EE240F
:06C6DF00FF92AF7F002274
:10B62E00E5B420E204007F102212C6CF30E106E01E
:10B63E004404F08004E054FBF0EB30E003D38001CF
:10B64E00C39288ED24FF92B8EF24FF92A89022F2C5
:10B65E00E030A8054404F0800354FBF012C6DB2250
:10B66E00E5B420E304007F112212C6CF30E106E0DC
:10B67E004408F08004E054F7F0EB30E003D380018F
:10B68E00C3928AED24FF92BAEF24FF92AA9022F27F
:10B69E00E030AA054408F0800354F7F012C6DB220E
:041816004113638097
:10740600E0FEA3E0FFF5828E83A3A31206AC9027CD
:1074160005F08F828E83A3A3A31206AC902704F0F7
:10742600901363E04401902700F022F090131DE0D2
:10743600F58A90131BE0F58C22E0FEA3E0FFF582AF
:107446008E831206AC902707F08F828E83A31206D6
:10745600AC902706F022FFE0FAA3E02DF582EA3C85
:10746600F583E4936F22900D07E475F0010207CCD3
:10747600900D05E0FEA3E0A3FFE0FCA3E0FDC39FA3
:10748600EC9E229027007480F09027027470F0A37F
:10749600E4F0902708F0A3F07F0122E0FEA3E0903D
:1074A6002703F0EE902702F022FFEEF0A3EFF04361
:1074B600992090270EE4F0901362E0229027097439
:1074C60001F0902708E4F022120ACC8D828C830208
:1074D60006ACEEF0A3EFF0EE54014F22CFF0A3EF8F
:0D74E600F0E422900D0B120A5F900D0B22B6
:06CB0A00E4901363F02229
:07ADF9009013637480F02247
:10BA3A0090270EE4F090270DE020E0F900000000C6
:10BA4A00EF1274A5902708E4F0A304F0901363E0C2
:10BA5A004402902700F00000000090270DE020E04B
:08BA6A00F99027007480F0221E
:100E7F00900D4C120AEC900D4A1274D86004007F4A
:100E8F001422900D4AE0FEA3E07802CEC313CE13D6
:100E9F00D8F9900D561274AF70047F808002E4FF72
:100EAF0012A2F5901363E0701D902700E06480702C
:100EBF0015902708E0700FA3E0700B902702E0B4A5
:100ECF007004A3E06009900D587413F0020FE4E46E
:100EDF00FF12B1E4E4900D5DF012C088900D56E062
:100EEF00FEA3E0FF12BA3A900D4FE030E00AE49013
:100EFF000D58127431020FE490270DE020E0F91223
:100F0F0074C2900D50F0A3F0900D56E0FFA3E09047
:100F1F000D54CFF0A3EFF0900D52E4F0A37480F0D6
:100F2F0012C088900D541274A1900D4C120ACC90DF
:100F3F000D5012743F900D50127406000000009077
:100F4F000D50E475F0041207CC900D5412746F908D
:100F5F000D5274FFF5F01207CC900D52E07002A302
:100F6F00E070BD90270DE020E0F9127432900D4A29
:100F7F00E0FFA3E0900D591274E2900D58F0900D20
:100F8F005BF0A3F0900D5BE0FEA3E0FFC3EE9402D5
:100F9F00502E900D4C120ACC8F828E831206ACFF0E
:100FAF00900D5BE0FCA3E0FD900D5912745D60089D
:100FBF00900D587415F08008900D5B12746F80C4FB
:100FCF00900D58E0600F900D5DE004F0E0C39404C5
:100FDF005003020EE812748912A2F55399DF7F01B4
:0C0FEF0012B1E4900D58E0FF60010022F8
:10519A009011A3120AEC9011A11274D86004007F36
:1051AA0014229011A1E0FEA3E07802CEC313CE131D
:1051BA00D8F99011AE1274AF70047F808002E4FFB8
:1051CA0012A2F5901363E0701D902700E0648070CE
:1051DA0015902708E0700FA3E0700B902702E0B447
:1051EA007004A3E060099011B07413F0025317E43D
:1051FA00FF12B1E4E49011B5F012C0889011AEE04C
:10520A00FEA3E0FF12BA3A9011A6E07002A3E07082
:10521A00099011B012743102531790270DE020E063
:10522A00F91274C29011A8F0A3F09011AEE0FFA396
:10523A00E09011ACCFF0A3EFF09011A6E0FCA3E050
:10524A00FDAE047802CEC313CE13D8F9FF9011AA8B
:10525A00EEF0A3EFF0ED5403600A9011AAE475F0A2
:10526A00010252AE9011AAE07002A3E0603C12C0A3
:10527A00889011AC1274A19011A3120ACC9011A8B3
:10528A0012743F9011A8127406000000009011A831
:10529A00E475F0041207CC9011AC12746F9011AA45
:1052AA0074FFF5F01207CC02526E90270DE020E051
:1052BA00F91274329011A1E0FFA3E09011B11274B7
:1052CA00E29011B0F09011B3F0A3F09011A6E0FEB5
:1052DA00A3E09011B312747E501E9011A31274CEE3
:1052EA009011B112745C60089011B07415F08008C6
:1052FA009011B312746F80D39011B0E0600F9011C7
:10530A00B5E004F0E0C39404500302520312748916
:10531A0012A2F55399DF7F0112B1E49011B0E0FFB8
:04532A0060010022FC
:1082E900900D00EEF0A3EFF0A3120AEC900D00E060
:1082F900FEA3E0FFE4FCFD1274E9120A53900D0697
:10830900E024FFFF900D05E034FFFEE4FCFD1208B8
:10831900A71274E9120A47ED4C6004007F1222E4A7
:10832900900D0AF0900D00E0FFA3E0900D0F12747C
:10833900E2900D09F0E4900D07F0A3F01274765065
:1083490029900D0FE0FEA3E02DF582EE3CF583E4C4
:1083590093FF900D02120ACC900D07A3E0F5828CD1
:1083690083EF12070D12746C80D2E4900D07F0A30D
:10837900F0127476501B900D021274CE900D0F12EC
:10838900745C6008900D0A7416F0800512746C8094
:10839900E0900D0AE0600B900D09E004F0E0640440
:0883A9007093900D0AE0FF2221
:10C6E500AF04E0FDA3E0FB12C14DEF22EDF0A3EB9B
:06C6F500F0AC07E59822FD
:0BC9C900EF6004439810225398EF2207
:10C14D00EFD394074008EF640A60037F1222ED607D
:10C15D0009EBD39401400C7F1122EBD394024003E1
:06C16D007F11227F002279
:10847000900CFE12C6F120E404007F1022900CFE46
:1084800012C6E560020022EC120B7E84AA0084B0C2
:108490000184B60284BC0384C20484C80584CE0669
:1084A00084D40784DA0A000084DE7E0179FE802EFF
:1084B0007E0279FD80287E0479FB80227E0879F790
:1084C000801C7E1079EF80167E2079DF80107E4040
:1084D00079BF800A7E80797F80047EFFE4F9900C6A
:1084E000FEE06019E952B19022EAE059F0900CFFE9
:1084F000E06005EE42C18032E952C1802D900CFF50
:10850000E0FF700E9022EAE04EF09022E7E04EF09D
:108510008012EF9022EAB40108E04EF09022E7804A
:0D85200000E059F0EE42B1EE42B97F0022BA
:10852D00900CFE12C6F120E404007F1022900CFE88
:10853D0012C6E560020022EC120B7E856700856D88
:10854D0001857302857903857F04858505858B06F5
:10855D0085910785970A0000859B7E0179FE802E07
:10856D007E0279FD80287E0479FB80227E0879F7D2
:10857D00801C7E1079EF80167E2079DF80107E4082
:10858D0079BF800A7E80797F80047EFFE4F9900CAC
:10859D00FEE06019E952B29022EBE059F0900CFF29
:1085AD00E06005EE42C28032E952C2802D900CFF90
:1085BD00E0FF700E9022EBE04EF09022E8E04EF0DE
:1085CD008012EF9022EBB40108E04EF09022E8808B
:0D85DD0000E059F0EE42B2EE42BA7F0022FB
:1083B100900CFE12C6F120E404007F1022AF04905D
:1083C1000CFE12C6E760020022EC120B7E83ED0068
:1083D10083F30183F90283FF03840504840B05847D
:1083E1001106841707841D0A000084217E0179FE8D
:1083F100802E7E0279FD80287E0479FB80227E0812
:1084010079F7801C7E1079EF80167E2079DF80104D
:108411007E4079BF800A7E80797F80047EFFE4F907
:10842100900CFEE06019E952B49022ECE059F09012
:108431000CFFE06005EE42C48032E952C4802D9009
:108441000CFFE0FF700E9022ECE04EF09022E9E08C
:108451004EF08012EF9022ECB40108E04EF0902231
:0F846100E98000E059F0EE42B4EE42BC7F002209
:0C181A004113370041133800411339001E
:08CACB00EDF0A3EBF0E592226F
:04C57100E0FD7F0169
:10C57500ED600543F904800353F9FBEF600443E9DB
:06C58500042253E9FB2231
:0BC9D400EF6004439202225392FD2208
:108AE80090130412CACB20E104007F1022901306D1
:108AF800E0D394034004007F2022E4FDEF120B7EB4
:108B08008B27008B2D018B33028B39038B3F048B12
:108B180045058B4B068B51078B570A00008B5D79F7
:108B2800017EFE803279027EFD802C79047EFB80F6
:108B38002679087EF7802079107EEF801A79207ECA
:108B4800DF801479407EBF800E79807E7F8008792F
:108B5800FFE4FE80027D30ED600300FF22901304E5
:108B6800E06027901306E0FF30E105E942EA800360
:108B7800EE52EAEF30E005E942EB8003EE52EBE912
:108B880042EC90130512C5718003EE52EC7F00226F
:0BC9DF00EF6004439204225392FB22FD
:108B980090130812CACB20E204007F112290130A16
:108BA800E0D394034004007F2122E4FDEF120B7E02
:108BB8008BD7008BDD018BE3028BE9038BEF048BF2
:108BC800F5058BFB068C01078C070A00008C0D79D4
:108BD800017EFE803279027EFD802C79047EFB8046
:108BE8002679087EF7802079107EEF801A79207E1A
:108BF800DF801479407EBF800E79807E7F8008797F
:108C0800FFE4FE80027D31ED600300FF229013082F
:108C1800E0602790130AE0FF30E105E942F28003A3
:108C2800EE52F2EF30E005E942F38003EE52F3E949
:108C380042F490130912C5718003EE52F47F0022AA
:0BC9EA00EF6004439208225392F722F2
:108E4A0090130C12CACB20E304007F132290130E56
:108E5A00E0D394034004007F2322E4FDEF120B7E4B
:108E6A008E83008E89018E8F048E95058E9B068EC9
:108E7A00A1078EA70A00008EAD79017EFE802679B1
:108E8A00027EFD802079107EEF801A79207EDF80B5
:108E9A001479407EBF800E79807E7F800879FFE456
:108EAA00FE80027D33ED600300FF2290130CE06028
:108EBA002790130EE0FF30E105E942FA8003EE52F3
:108ECA00FAEF30E005E942FB8003EE52FBE942FC8F
:0E8EDA0090130D12C5718003EE52FC7F002232
:0DC95B00F0A3F0EF24FF92AF902190E022B6
:06CB1000902191EFF022DC
:10C81A00EF9021916005E04402F022E054FDF022FD
:10C82A00EF9021916005E04404F022E054FBF022ED
:10C83A00EF9021916005E04408F022E054F7F022DD
:10C84A00EF9021916005E04410F022E054EFF022CD
:09CAB000902158EFF0EEA3F022F2
:09CAB90090215AEFF0EEA3F022E7
:0FC8EA00AC02AD017B087A007F507E2102A1488D
:10C58B00A2AFE433FFC2AF902004E4F0902001127D
:0AC59B00C95B4440F0E054BFF022F9
:10C5A500A2AFE433FFC2AF902084E4F09020811263
:0AC5B500C95B4420F0E054DFF022DF
:0BC9F5007F1612CB1012C58B02C5A5E7
:0C18260041127D004112780041127C004C
:10915C00E5E8F0A3E5E9F0AFA875E902E4F5E875F8
:10916C00A8809027927483F090279EE0C2AF90273E
:10917C0093E0E4F583D2AF2290279F7444F09027BC
:10918C0092E0547FF0E4901278F022120ACC8E8296
:10919C007583001206AC902790F0E4F583D2AF22D1
:1091AC009027927480F022E0547F25E0902791F074
:1091BC0022FEE490127DF0902792E02290123FE084
:1091CC0004F0E0C3942022EFF0A3EDF0A3120AEC1C
:1091DC00E422E004F0901278E02212C4C9902792A5
:0A91EC00E022E0F5E88FA8AF0522AD
:0BCA0000EF60044399802253997F22CD
:10A69600E59920E704007F1022901312E0FEC39490
:10A6A600125004007F1122EF6041A2AFE433FFC2D3
:10A6B600AF902794EEF090279674FFF0902795E4DC
:10A6C600F0902793E090279EE0EB90279230E005EC
:10A6D60074A3F080037483F053F9FDED600343F92E
:10A6E6000243E902EF24FF92AF800653E9FD12917F
:04A6F600AC7F002213
:10C4C900E4901276F0A3F0901276E475F001120769
:0EC4D900CC901276E07004A3E0640A70EA22B0
:10881D0090122E1291D3901236F0E59920E70400B4
:10882D007F1022901233E0FE70028006EED3940F7B
:10883D004004007F1122E4FFFE12BEE390123412B9
:10884D00915C90122E1291B3C2AF90122FE0129143
:10885D00A2FE901233E0FDEEC39D500BC2AF9012FD
:10886D00301291970E80EB129184901233E0240216
:10887D001291BD4470F0E4FD9012361291DE600449
:10888D007D12801290127DE06E600B901236E0C367
:10889D00944040E47D80ED70061291E654EFF0E4D3
:1088AD00901236F030960320970A9012361291CB23
:1088BD0040F27D801291AC901235E0F5E9901234C2
:0488CD001291EE22F4
:106A71009012371291D390123FF0E59920E704006C
:106A81007F102290123CE0FE70028006EED394103B
:106A91004004007F1122E4FFFE12BEE390123D127A
:106AA100915C9012371291B3C2AF901238E01291FB
:106AB100A290123CE0902797F01291847E021291ED
:106AC100BF447CF0E4FD90123F1291DE60047D1220
:106AD100801290127DE06E600B90123FE0C39450E3
:106AE10040E47D80ED6014E490123FF03096032085
:106AF100976B1291C840F57D8080621291E654F740
:106B0100F0902791E04401F0E490123FF090127868
:106B1100E0700E90123FE004F0E0C394E040EE7D9F
:106B210080E4FE90123CE0FCEEC39C501EC2AF908C
:106B31002790E0FC901239120ACC8E82758300EC0A
:106B410012070DE4F583D2AF0E80D8E490123FF026
:106B51003096032097071291C840F57D801291ACC1
:0D6B610090123EE0F5E990123D1291EE22F7
:108A370090127EEF1291D7901285F0E59920E70406
:108A4700007F1022901282E0FE70028006EED3941F
:108A5700104004007F1122E4FFFE12BEE390128350
:108A670012915C90127E1291B3E4FE901282E0FDA7
:108A7700EEC39D500BC2AF90127F1291970E80EB01
:108A8700129184901282E0041291BD4470F0E4FDCB
:108A97009012851291DE60047D12801290127DE0A3
:108AA7006E600B901285E0C3944040E47D80ED70CA
:108AB700061291E654EFF0E4901285F03096032009
:108AC700970F901285E0FE04F0EEC3941040ED7D01
:108AD700801291AC901284E0F5E99012831291EE26
:018AE700226C
:1078A4009011FBEFF0A3120AECE59920E704007FA6
:1078B4001022E4FFFE12BEE3901202E5E8F0A3E515
:1078C400E9F0A3E5A8F01291659011FBE0547F253F
:1078D400E04401902791F09011FFE0FFD394104011
:1078E4000B9027977410F0EF24F080099011FFE0BB
:1078F400902797F0E490127CF012918490127CE02F
:10790400901205F0E490127DF09011FC120ACC90D4
:107914001279120AEC902792E04474F0E490120079
:10792400F0901278E060FAE4901201F0902797E06A
:10793400FF901201E0FEC39F502DC2AF902790E04C
:10794400FFEEFD901205E02DFDE433FC9011FC12D6
:107954000ACC8D828C83EF12070DE4F583D2AF90AD
:107964001201E004F080C53096FD3097FA1291AC14
:10797400901203E0F5E9901202E0F5E8901204E0B9
:08798400F5A8901200E0FF22BB
:10B22C0015660AB30AB2055906B4035A035C01AE9B
:10B23C0001C200E10104008201D200E9011200897F
:10B24C0000B20059008A0045008A0045008A00457A
:10B25C00023001180118008C0096004B00460023A8
:08B26C00003C001E003C001E26
:101832004111D4004111D3034111D2004111D10011
:041842004111D00080
:10AEA40075F002120AC0E493FF7401939011C8CFA5
:10AEB400F0A3EFF0E4A3F0A3F0229022007438F0A2
:10AEC4009011D3E025E025E0229011C8E0FEA3E034
:10AED400FFC39011CBE09F9011CAE09E229011CA4B
:0EAEE400E475F0010207CC9022007434F022D5
:0EC91600EF30E0047F018002E4FF127DFF227B
:07CB0300902200741CF022D7
:108EE800900D28EEF0A3EFF0A3EDF0600B90278330
:108EF800E4F09022D07488F0A2AFE433900D2BF008
:108F0800C2AF90228DE0900D2CF07F1112CAD39041
:108F18002200742CF07F13E49011C6F0A3F0900D9A
:108F280028E0FCA3E0FDC39011C7E09D9011C6E0C6
:108F38009C502190228DE020E612A3E05407FE7099
:108F480003FF8010EEB404047F1280089011C6124B
:108F5800AEE480CA90228F74FFF0900D2CE090222E
:108F68008DF0900D2BE024FF92AF900D2AE0600960
:0E8F7800EF70069022D07484F0EF60010022AA
:10C7E8007F0A12CAD3E4FD7F0112C42E7F0102C85A
:01C7F8005AE6
:109A8900900D1CEFF0BF04028009900D1CE0D394E7
:109A9900054004007F182212AEEBE4FF12B1E490F6
:109AA9000D1CE0FF12AA9B900D1CE01460161460B7
:109AB9001B14602024FE6024240570269022117452
:109AC90009F0801E9022117405F0801690221174FD
:109AD90003F0800E9022117402F080069022117416
:109AE90010F0902200743CF07F0112B1E4900D1C3B
:089AF900E09011D3F07F002280
:10AF8C00901364EFF012AA9B901364E0FF14601608
:10AF9C0014601B14602024FE60242405702690226B
:10AFAC00117409F0801E9022117405F08016902205
:10AFBC00117403F0800E9022117402F0800690221E
:0CAFCC00117410F09011D3EFF07F002200
:10B95600901365EFF07F03129A89901365E09022A9
:10B96600246013E04440F0902785E04408F09022DC
:10B9760037E04480F022E0543FF0902785E054F70A
:09B98600F0902237E0547FF0221A
:1085EA00900D1CEFF0C3940B4006E0D3941A40049C
:1085FA00007F172212AEEBE4FF12B1E4900D1CE0EB
:10860A00120B7E86410B86450C86490D864D0E86D9
:10861A00510F865510865911865D1286611386653B
:10862A0014866915866D16867117867518867919E6
:10863A00867D1A000086897F65803A7F6A80367F48
:10864A006F80327F74802E7F79802A7F7E80267F9A
:10865A008380227F88801E7F8D801A7F9280167F7A
:10866A009780127F9C800E7FA1800A7FA680067F5A
:10867A00AB80027FB07E09128764900D1DEFF090E7
:10868A000D1DE0600400028606902200743CF07F13
:0D869A000112B1E4900D1DE0FF600100220F
:0FC8F900E4FE902284E0FF70050EEEB4FAF42204
:08CAD300EF541F90228DF022A8
:10C62700A2AFE433FEC2AFED24FF92F8EF24FF92EE
:09C63700E8AF06EF24FF92AF22E8
:10B1E400EF603D90228EE054F7F0E04408F0759152
:10B1F40010A2AFE433FFC2AF902084E4F09020812A
:10B20400F0A3F0EF24FF92AFE49011D2F0902190DC
:10B21400E04420F0E054DFF0902201E054FEF022FC
:08B22400902201E04401F02238
:06CB1600EF24FF92AF22A4
:03003E000275E068
:10808500902002E4F0902303E0902192F09022806A
:10809500E05470FF6007641060037F15229011D1D2
:1080A5007401F09011D4E0547DF0900DD574E1F099
:1080B50012003E12AEBE242CF582E434B2F583C024
:1080C50083C082901362E0D082D08312AEA412AE38
:1080D500CD50139011D4E030E107E4900DD5F08038
:1080E5000512AEE180E8900DD5E0B4E10F12AEEBDC
:1080F500902002E4F09011D1F07FE122E49011D1BB
:10810500F0900DD5F0902301E030E539900DD57450
:10811500E9F012AEC42444F582E434B2F583C08399
:10812500C082901362E0D082D08312AEA412AECD8D
:1081350050139011D4E030E707E4900DD5F0800599
:1081450012AEE180E8902002E4F0900DD5E0FF2228
:1091F6009011D1E0600302928D9023807405F0A354
:109206007402F0EF6004E04410F0902382E4F0A3CF
:10921600EDF090222CE0900E11F090222CE04420EC
:10922600F09020027480F0902280E0547060046414
:1092360010704712AEBE245CF582E434B2F583C0EA
:1092460083C082901362E0D082D08375F002120A46
:10925600C0E493FF7401939011CC12AEB39011CC7D
:10926600E0FEA3E0FFC39011CFE09F9011CEE09EF9
:10927600500512AEE480E612AEEB902002E4F090C8
:089286000E11E090222CF022F1
:10C42E00EDD394024004007F1122EF6009ED441019
:0FC43E0090222CF0800690222C7430F07F002288
:06CB1C0090222DEFF02233
:10C85A00EF90227E6005E04408F022E054F7F022CF
:10979000901354EFF0D394034004007F11229013F0
:1097A00054E0FE700A9011D0E07004007F1622E4AD
:1097B000901355F0EEB4010D12CB037F0112980EF9
:1097C0007401F08043901354E0B4020D12CB037F78
:1097D0000212980E7402F0802F901354E0B403101C
:1097E00012CB037F0312A28B9011D07403F0801868
:1097F000E4FF12A28BE4FD7F107E27128EE8901307
:1098000055EFF0E49011D0F0901355E0FF2212A232
:059810008B9011D02235
:10C86A00EFD394164004007F1122125ED97F002272
:10C87A00EF6009AF0512C776439EC022539E3F223E
:0EC92400EF600712CAFB439CC022539C3F22C7
:10B98F00902281E0541FD39402402D9022BDE020DD
:10B99F00E0267F019022B0E04401F0E4FDFC90220C
:10B9AF00BDE030E004E4FF800B0DBD00010CBC03D3
:09B9BF00EDBDE8EAEF70DD222283
:08184600411357004113560045
:106E5D009022EDE06580FF9022F0E05FFF9022EE42
:106E6D00E06590FE9022F1E05EFE9022EFE065B0CD
:106E7D00FC9022F2E05CFC9022F0E022E5E8F0AD1F
:106E8D009AA9E9759A07E4F5E8F5E99022E1746E9F
:106E9D00F09022E6E054FBF0E054E7F022E090227F
:106EAD00E5F09022E27490F0D2D875E88075A88054
:106EBD0022E0FEEFF4FCEE5CF022EEF0A3EFF0A387
:106ECD00EDF0A3EBF09022F0E055B9FFE06F22E07A
:106EDD00FAA3E0FBEA9022E3F0A3EBF022E5A8F0A1
:106EED00E4F5A89022EBE0229022F1E055BAFFE004
:106EFD006F229022F2E055BCFFE06F22EF4404FFB9
:106F0D009022EBE054E7F022AF058F9AD2D8538F41
:106F1D00BF22E0FEEFF4FFEE5FF022FFE0540333FB
:106F2D00333354F8FEEF4E22EF9022E0F0E4F59A61
:106F3D0022E0F5E8AF018FE92254012FFFE0FDA813
:036F4D0006082211
:10B2BC00ED24FF92FCEF6033EB4A700A9012E4E04D
:10B2CC007004007F11229022E1746EF0126EE190F6
:10B2DC0012E4E09022E5F0A3E054E7F0E04480F0C3
:10B2EC00D2EC9022E0E04420F08009C2EC9022E005
:07B2FC00E054DFF07F0022A7
:10BDFE00900D1CEFF020E0069022E07498F0902752
:10BE0E0083E4F012CB03902780E4F0A3F0900D1C96
:0EBE1E00E030E007902203E0547FF07F002226
:10C0D8009022E074D8F090278074F6F0A37423F0CF
:10C0E80012C0F2EF600312C0F22212CB03E4FD7F0C
:07C0F800107E27128EE822E2
:109BEF0090133AEFF0A3EDF0A3EBF0E4FFFE901328
:109BFF003AE0FDA806088002C313D8FC90133B126D
:109C0F006F468002C313D8FC90133C126F4680023C
:109C1F00C313D8FC54012FFF0EEEB407D1EFC3943A
:109C2F00024004007F1122E4FFFE12BEE3AFA8AE94
:109C3F00E8ADE990133AE0547FF5A8A3E0F5E8A367
:109C4F00E0F5E943A8807587010000E4F5A88DE9E8
:069C5F008EE88FA8FF2231
:105DBF00900D1C126EC76002800C126EF56002808F
:105DCF0005126EFF6004007F1522900D1FE0D39423
:105DDF00034004007F112212CB03E4900D26F0FF45
:105DEF00FE12BEE3900D21126EEA900D27F0902265
:105DFF00E1E0900D25F09022E0E0900D24F090224C
:105E0F00E6E0900D23F0900D22126E89900D20E0A8
:105E1F00FC9022E630E706E0547FF08004E04480F7
:105E2F00F09022E6C083C082E0900D1F126F28D041
:105E3F0082D083F0900D1C126EDC900D1E126EAA94
:105E4F007FB9EC30E004EF54DFFF900D20E030E13C
:105E5F0003126F09126F35E5D220E5FB126E5D6FED
:105E6F00701DAF06A3E06F7016AF04A3E0B5040F6B
:105E7F0075870200000000000000000000800690FF
:105E8F000D267412F0126F15900D22126F3E900DA9
:105E9F0024E09022E0F0900D23E09022E6F0900DA8
:105EAF0025E09022E1F0900D27E09022EBF0900D8D
:105EBF0021E0F5A8900D26E0600100E4FD7F107E43
:0A5ECF0027128EE8900D26E0FF2256
:106559009011E4126EC76002800C126EF560028021
:1065690005126EFF6004007F15229011E7E0D394B5
:10657900034004007F1122E49011EEF07F107E2782
:1065890012BEE39011E9126EEA9011EFF09022E148
:10659900E09011EDF09022E0E09011ECF09022E60D
:1065A900E09011EBF09011EA126E899011E8E0FC8D
:1065B9009022E630E706E0547FF08004E04480F062
:1065C9009022E6C083C082E09011E7126F28D08242
:1065D900D083F09011E4126EDC9011E6126EAA7F5E
:1065E900BAEC30E004EF54DFFF9011E8E030E1034A
:1065F900126F09126F35E5D220E5FB126E5D6F70DF
:106609001DAF06A3E06F7016AF04A3E0B5040F75C4
:1066190087020000000000000000000080069011C1
:10662900EE7412F0126F159011EA126F3E9011EC90
:10663900E09022E0F09011EBE09022E6F09011ED6D
:10664900E09022E1F09011EFE09022EBF09011E957
:0C665900E0F5A89011EEE0FF60010022C7
:1077B900901286EF126ED16002800C126EF5600293
:1077C9008005126EFF6004007F1522E490128CF090
:1077D9007F107E2712BEE3901287126EEA90128DF7
:1077E900F09022E1E090128BF09022E0E090128A72
:1077F900F09022E6E0901289F0901288E5E8F0AF67
:107809009A126E8E126EAF7E9B901286E030E1075F
:10781900EE4404FE126F0DEE126F36E5D220E5FB41
:107829009022EDE06580FE9022F0E05EFE9022EE6F
:10783900E06590FD9022F1E05DFD126E776E701D9E
:10784900AE05A3E06E7016AE04A3E0B5040F75870C
:107859000200000000000000000000800690128C69
:107869007412F0126F17901288126F3E90128AE00C
:107879009022E0F0901289E09022E6F090128BE0DD
:107889009022E1F090128DE09022EBF0901287E0C7
:0B789900F5A890128CE0FF60010022B7
:10B30300EFD394074004007F16227401A807088036
:10B3130002C333D8FCFF9022EAE04FF0EB9022ED1A
:10B32300600BE04FF09022E7126EBE8009126EBEF2
:10B333009022E7E04FF0ED9022F06005E04FF080BF
:07B3430003126F1F7F0022BF
:10B34A00EFD394074004007F16227401A8070880EF
:10B35A0002C333D8FCFF9022EBE04FF0EB9022EED1
:10B36A00600BE04FF09022E8126EBE8009126EBEAA
:10B37A009022E8E04FF0ED9022F16005E04FF08076
:07B38A0003126F1F7F002278
:10B39100EFD394074004007F16227401A8070880A8
:10B3A10002C333D8FCFF9022ECE04FF0EB9022EF88
:10B3B100600BE04FF09022E9126EBE8009126EBE62
:10B3C1009022E9E04FF0ED9022F26005E04FF0802D
:07B3D10003126F1F7F002231
:10970800EFF07F807E387D017C00A3120A53D302DC
:1097180009ECE0FCE4120336E4FBFA79C87842026B
:10972800028F120A537F007E127D7A7C0002093F65
:10973800E47F7BFEFDFC120A53C30209EC1201868A
:1097480012036AAB07AA06EB4A22ECF0A3EDF0A9D4
:1097580007E59A22E0FCA3E0FDE4020331C3EB94A1
:1097680020EA940322AD03EDF0EAFF22FFE0FCA318
:10977800E0FD22AD03EDF0EAFF22E47F7BFEFDFC75
:0897880022FFE0FCA3E0FD223A
:05C520007481F07F01B1
:10C52500ED600543F908800353F9F7EF600443E92B
:06C53500082253E9F72281
:0BCA0B00EF6004439A0822539AF722C0
:10A3C7009012A512975220E304007F1222C3901225
:10A3D700A6E09B9012A5E09A5004007F11229025D9
:10A3E700867420F0E960399012A5E0FEA3E090257D
:10A3F70083F0EEF9902582F090258512976D9025D0
:10A4070084F09025867409F0902583EDF0902582DD
:10A41700EFF09012A5A3E0902585F0902584E9F050
:07A42700E49012A9F0FF22EE
:10B6AE00E59A20E304007F12221297655004007F72
:10B6BE0011229025867420F0EF601E902583EBF00A
:10B6CE00EA902582F0A3E0902585F0902582E09007
:10B6DE002584F090258612C520E49012E9F0FF2211
:10A06C00901240129708501A9012411297385002D1
:10A07C008010901245E0FFD394635006EFC3940117
:10A08C005004007F112290124112972A901247EE31
:10A09C00F0A3EFF090124512971AC004C005C00649
:10A0AC00C00790124712975CD003D002D001D000A9
:10A0BC001297457003FA7B01901240E09012471200
:0EA0CC009774901246E09012A9F012A3C722DA
:0BCA1600EF6004439A1022539AEF22B5
:10A42E009012AB12975220E404007F1322C39012B5
:10A43E00ACE09B9012ABE09A5004007F1122902565
:10A44E008E7420F0E960399012ABE0FEA3E0902507
:10A45E008BF0EEF990258AF090258D12976D902550
:10A46E008CF090258E7409F090258BEDF090258A56
:10A47E00EFF09012ABA3E090258DF090258CE9F0D3
:07A48E00E49012AFF0FF2281
:10B6EE00E59A20E404007F13221297655004007F30
:10B6FE00112290258E7420F0EF601E90258BEBF0BA
:10B70E00EA90258AF0A3E090258DF090258AE090AE
:10B71E00258CF090258E12C520E49012EEF0FF22BB
:10A0DA00901249129708501A90124A129738500251
:10A0EA00801090124EE0FFD394635006EFC39401A0
:10A0FA005004007F112290124A12972A901250EEB1
:10A10A00F0A3EFF090124E12971AC004C005C006D1
:10A11A00C00790125012975CD003D002D001D00031
:10A12A001297457003FA7B01901249E0901250127F
:0EA13A00977490124FE09012AFF012A42E22F4
:0BCA2100EF6004439A2022539ADF22AA
:10A495009012B112975220E504007F1422C3901246
:10A4A500B2E09B9012B1E09A5004007F11229025F2
:10A4B500967420F0E960399012B1E0FEA3E0902592
:10A4C50093F0EEF9902592F090259512977B9025C3
:10A4D50094F09025967409F0902593EDF0902592CF
:10A4E500EFF09012B1A3E0902595F0902594E9F056
:07A4F500E49012B5F0FF2214
:10B72E00E59A20E504007F14221297655004007FED
:10B73E0011229025967420F0EF601E902593EBF069
:10B74E00EA902592F0A3E0902595F0902592E09056
:10B75E002594F090259612C520E49012F3F0FF2266
:109E3900901252129708501D12978290125312973E
:109E49003E50028010901257E0FFD394635006EF02
:109E5900C394015004007F112290125312972A9043
:109E69001259EEF0A3EFF090125712971AC004C0DE
:109E790005C006C00790125912975CD003D002D0D2
:109E890001D0001297457003FA7B01901252E090BD
:109E99001259129789901258E09012B5F012A495B0
:019EA9002296
:0BCA2C00EF6004439A4022539ABF229F
:10A4FC009012B712975220E604007F1522C39012D7
:10A50C00B8E09B9012B7E09A5004007F112290257E
:10A51C009E7420F0E960399012B7E0FEA3E090251C
:10A52C009BF0EEF990259AF090259D12977B902543
:10A53C009CF090259E7409F090259BEDF090259A47
:10A54C00EFF09012B7A3E090259DF090259CE9F0D8
:07A55C00E49012BBF0FF22A6
:10B76E00E59A20E604007F15221297655004007FAB
:10B77E00112290259E7420F0EF601E90259BEBF019
:10B78E00EA90259AF0A3E090259DF090259AE090FE
:10B79E00259CF090259E12C520E49012F8F0FF2211
:109EAA0090125B129708501D12978290125C1297BB
:109EBA003E50028010901260E0FFD394635006EF88
:109ECA00C394015004007F112290125C12972A90C9
:109EDA001262EEF0A3EFF090126012971AC004C05B
:109EEA0005C006C00790126212975CD003D002D058
:109EFA0001D0001297457003FA7B0190125BE09043
:109F0A001262129789901261E09012BBF012A4FCBF
:019F1A002224
:0BCA3700EF6004439A8022539A7F2294
:10A221009012BD12975220E704007F1622C39012AC
:10A23100BEE09B9012BDE09A5004007F1122902550
:10A24100A67420F0E9603C9012BDE0FEA3E09025E9
:10A25100A3F0EEF99025A2F0AD039025A5EDF0EA6B
:10A26100FF9025A4F09025A67409F09025A3EDF0A8
:10A271009025A2EFF09012BDA3E09025A5F09025C6
:0AA28100A4E9F0E49012C1F0FF22FE
:10B7AE00E59A20E704007F16221297655004007F69
:10B7BE0011229025A67420F0EF601E9025A3EBF0C9
:10B7CE00EA9025A2F0A3E09025A5F09025A2E090A6
:10B7DE0025A4F09025A612C520E49012FDF0FF22BC
:109D5100901264129708501D129782901265129703
:109D61003E50028010901269E0FFD394635006EFD9
:109D7100C394015004007F112290126512972A901A
:109D8100126BEEF0A3EFF090126912971AC004C0A3
:109D910005C006C00790126B12975CD003D002D0A9
:109DA10001D0001297457003FA7B01901264E0FF25
:109DB10090126BE0FCA3E0FD90126AE09012C1F0FA
:049DC10012A22122A7
:04184E004113020040
:1076CD00E0FFE4FCFDFE1209D1901313120A5F9046
:1076DD001313120A477808120A10901313120A5F37
:1076ED0090131322E0FFE4FCFDFE1209D190131755
:1076FD00120A5F901317120A477808120A10901396
:10770D0017120A5F90131722EFF0900DDC120A4743
:10771D0078081209FD900DDC120A5F900DDC020A4B
:10772D0047EFF0900D52120A4778081209FD900D9F
:10773D0052120A5F900D52020A47902780E054FEC4
:10774D00F022AC02AD017B107A007E21227F041263
:10775D00BD7190219F7401F022E4F0902780E0220A
:10776D00E0FFE4FCFDFE22AC02AD01E0FB7A00225D
:10777D00120AECAE02AF01C3EE942322AC02AD01AE
:10778D007B087A007E2122AE02AF017B087A007C55
:10779D002122120A5FE4FB902780E022900DD8028F
:0C77AD000ACCE04404F090219FE4F0229C
:10C1E500900CFE12776620E00AE04401F0900CFE08
:10C1F5007401F07F0012774F12A148900CFEE060A9
:05C2050003127747223F
:10C20A0090136612776620E00AE04401F090136604
:10C21A007401F07F3012774F12A148901366E060E4
:05C22A0003127747221A
:10C53B00E4FE902780E020E006E04401F07E0190CD
:0BC54B002140EFF0EE60031277472262
:10BD1300900DDC12779F20E005E04401F00B1277D1
:10BD230028902141127715902142127715902143D3
:0FBD3300127715902144EFF0EB6003127747224F
:10C03800E4900CFEF0902780E020E00AE04401F054
:10C04800900CFE7401F07F4512778912A148900C7C
:08C05800FEE0600312774722AD
:10C55600E4FE902780E020E006E04401F07E0190B2
:0BC566002110EFF0EE60031277472277
:10BD4200900D5212779F20E005E04401F00B12772C
:10BD52004190211112772E90211212772E902113E9
:0FBD620012772E902114EFF0EB60031277472237
:10C06000E4900CFEF0902780E020E00AE04401F02C
:10C07000900CFE7401F07F1512778912A148900C84
:08C08000FEE060031277472285
:06CB2200902140E0FF221B
:10BE2C0090214412776D1276D6120A539021431248
:10BE3C0076CD120A539021421276CD120A539021DC
:0EBE4C004112776D1209D11276E7120A4722D1
:08CADB007D4512779402A14889
:06CB2800902110E0FF2245
:10BE5A0090211412776D1276FA120A539021131256
:10BE6A0076F1120A539021121276F1120A53902196
:0EBE7A001112776D1209D112770B120A4722AE
:08CAE3007D1512779402A148B1
:08CAEB00EF547F902194F0222A
:08CAF300EF547F902195F02221
:10C88A00EF9021936005E04440F022E054BFF0228B
:10C89A00EF9021936005E04420F022E054DFF0227B
:10BD7100EF7002800CEFD3941040028004EF30E0AA
:10BD810004007F1A22EFC31314FF902193E054E3C0
:0FBD9100F0E0FEEF25E025E0FFEE4FF07F00220F
:09C17300902780E04401F07F03F5
:10C17C00EFD394034004007F1122902193E054FCF0
:0DC18C00F0E0FEEF5403FFEE4FF07F0022C5
:10687500900DD2EDF0900DCF12777D400DD3EF94B2
:10688500FFEE94245004007F18221277A9E4120623
:10689500FB900DD2E0FED394794004007F1622EEE2
:1068A500B40104007F172212C173900DD3120A4759
:1068B50012BD13900DD7E0FF12C53BE4FF12CAEBE2
:1068C50012775A900DD2E02402902300F0900DCF5C
:1068D500120ACC900DD21277747F017E2312A14843
:1068E500902007E4F0900DD2E02402902008F0906B
:1068F5000DDB7412F0902180E054FBF09020031220
:1069050077AF9012FEF0A3F0902180E030E207E42B
:10691500900DDBF080169012FEE475F0011207CCA5
:106925009012FEE0B402E1A3E0B458DC900DDBE088
:106935007030900DD2E02404FF1277A9EF1206FB08
:1069450012775F900DCF120ACCAE02AF011277A974
:10695500120693FB7A007D017C2312A14890219FAA
:0E696500E4F0127747900DDBE0FF60010022A6
:105FF300900D48EDF0900D4512777D400DD3EF9451
:10600300FFEE94245004007F1822900D4E120ACC08
:10601300E41206FB900D48E0FFD3947D5006EFC3D6
:1060230094045004007F162212C173900D49120A82
:106033004712BD42900D4DE0FF12C556E4FF12CA50
:10604300F312775A900D48E02402902400F0900D4B
:1060530045120ACC900D481277747F017E2412A159
:1060630048902087E4F0900D48E02402902088F0C7
:10607300900D517413F0902180E054FDF090208333
:106083001277AF901300F0A3F0902180E030E10786
:10609300E4900D51F08016901300E475F00112079F
:1060A300CC901300E0B402E1A3E0B458DC900D51AE
:1060B300E0704990219F04F0900D45120ACCAE0286
:1060C300AF01900D48E0FB7A007D017C2412A148CA
:1060D300900D48E0FFE42FF582E43424F583E0706B
:1060E30010EF24FCFF900D4E120ACCEF1206FB803A
:1060F30006900D517414F090219FE4F012774790AD
:086103000D51E0FF60010022D4
:101852004110800042107E00004210C20000411080
:021862007D55B2
:10C30500120ACC8F827583001206AC902542F0E4A8
:10C31500F583D2AF22902540E054BFF0E04440F0D1
:02C32500E42210
:0BCA4200EF60044398802253987F228D
:0EC93200439810D2B7E4FB7D017F070283B16A
:07C96800E4901080F07F0154
:06C96F00EF24FF92B72245
:107318009012C4EBF0AA07E59820E704007F10223A
:107328009012C5E0FED394094004007F1122EE2498
:10733800FE601314601824FA601C24087020901250
:10734800C67405F080209012C67403F0801890125D
:10735800C67404F080109012C6740BF08008901266
:10736800C5E02402A3F0902540E4F0902543F09076
:107378002540C083C082E0FF9012C6E0FE5403FCA3
:10738800EF4CD082D083F0902543E0FFEE540C13ED
:1073980013543FFEEF4EF0EA605AA2AFE433901266
:1073A800C7F0C2AFED24FF92FD9012C4E030E403B1
:1073B80012C932902540C083C082E0FF9012C4E019
:1073C800FE541CFDEF4DD082D083F0902540E04460
:1073D800C0F0D2EDEE20E412E4FF90107DE090259D
:1073E80042F0E4F5830FEFB410F09012C7E024FFE9
:0E73F80092AF8007902540E4F0C2ED7F0022A6
:10C44D00AE07E4FF12C96FC2AF902542EE12C313BF
:0FC45D00901080E060FA12C9689010C1E0FF22D1
:10B8E10090133D120AECEDD394104004007F112215
:10B8F100E4901080F0FF12C96FEFC39D500BC2AFEF
:10B9010090133D12C3050F80F0901080E0B5050340
:0BB91100D38001C350F312C9681F224D
:10C6590012C31AFEC2AF902542EF12C3130EEEB4F5
:08C6690010F290107DEFF022A9
:10BC5200901340120AECEDD394104004007F11229D
:10BC620012C31AFFC2AF90134012C3050FEFB410F4
:10BC7200F3901340120ACC12069390107DF07F00CD
:01BC8200229F
:10B52A009010C2A3E0FFC390107FE09FFFEF543F4B
:10B53A00602C9010C2E0FEA3E02481F58274103ED4
:10B54A00F583E01206FB9010C3E02401FF9010C2BD
:10B55A007E00EF543FFFEEF0A3EFF07F01227F0061
:01B56A0022BE
:109446007FF07EFF7D077C00120A53D30209ECAD44
:1094560007AC06ECF07C00E4120331783FE4FBFA3B
:10946600F912009502036AEFF0A3EDF0A3EBF0E525
:109476009822C3E49BFFE49AFE740199FDE498FCEC
:10948600020A5FE024FF92AF7F0022E4901213FEEF
:10949600FDFC020A53AF03E4FCFDFE120A53020868
:1094A600B4E47B03FAF9F8020A47E0FEA3E0FFC33F
:1094B600E49FFFE49EFE22900D02020A5FFB120A61
:1094C6004778080209FD901271120A5F9012712204
:0BCA4D00EF6004439801225398FE2282
:1093B600900CFE12946D20E004007F1322900D01A4
:1093C600E0FBD394624004007F1722A2AFE43390FF
:1093D6000D06F0C2AF900D02120A6B000007D09086
:1093E6000D0212949B1294BD900D021294A71209BD
:1093F6003FE4FDFC1294BD900D02120A53900D023B
:10940600129478900D02120A4790131DEFF0900DFA
:10941600021294C390131BEFF08B8AF58C5389F0DC
:10942600438901900CFFE024FF92B9A3E024FF9248
:109436008C900CFEE024FF92A9900D0612948922CE
:10B0BC00A907E59820E004007F1322A2AFE43390A7
:10B0CC0012CDF0C2AF9012CB1294B090131DEFF0D2
:10B0DC00EEFF90131BF090131DE0F58A8F8C5389B3
:10B0EC00F0438901ED24FF92B9EB24FF928CE92403
:0AB0FC00FF92A99012CD1294892250
:0BCA5800EF6004439802225398FD2277
:10967E0090126D12946D20E104007F1422901270EE
:10968E00E0FBD394624004007F1822A2AFE4339033
:10969E001275F0C2AF901271120A6B000007D090D3
:1096AE00127112949B1294CC1294A712093FE4FDEE
:1096BE00FC1294CC120A539012711294789012717B
:1096CE00120A4790131EEFF09012711294C390136A
:1096DE001CEFF08B8BF58D53890F43891090126E12
:1096EE00E024FF92BBA3E024FF928E90126DE02443
:0A96FE00FF92AB90127512948922BE
:10B10600A907E59820E104007F1422A2AFE433905A
:10B1160012D3F0C2AF9012D11294B090131EEFF07A
:10B12600EEFF90131CF090131EE0F58B8F8D538964
:10B136000F438910ED24FF92BBEB24FF928EE92486
:0AB14600FF92AB9012D312948922FD
:0BCA6300EF6004439804225398FB226C
:1074F30090121012946D20E204007F15227F051272
:107503009491C31209EC500C901213129446400448
:10751300007F19227FF87EFF7D037C0090121312F7
:10752300944E400E9012187440F09012177406F0A7
:1075330080447FFC7EFF7D017C0090121312944EE9
:10754300400E9012187420F09012177405F08026E4
:10755300E47FFE7EFFFDFC90121312944E901218EE
:10756300400B7410F09012177404F080097408F043
:107573009012177403F07F081294911208B4C00795
:10758300901218E0FBE4FAF9F8D00712093FE4126D
:10759300032C78BF129463901219129455A2AFE48E
:1075A30033FEC2AF53A9F0901210E0602790121976
:1075B300E0F5AA8FAC901211E024FF92F9A3E060EA
:1075C3000C901217E025E0440142A9800353A9FE61
:0D75D300D2E98002C2E9AF06EE12948A22CE
:0BCA6E00EF6004439808225398F72261
:106B6E0090121A12946D20E304007F1622E47F0522
:106B7E0090121D129495C31209EC500C90121D1216
:106B8E0094464004007F1A227FF87EFF7D037C002E
:106B9E0090121D12944E400E9012227440F09012DC
:106BAE00217407F080447FFC7EFF7D017C009012F3
:106BBE001D12944E400E9012227420F090122174E9
:106BCE0006F08026E47FFE7EFFFDFC90121D1294DF
:106BDE004E901222400B7410F09012217405F0802A
:106BEE00097408F09012217404F0E47F08FEFDFC95
:106BFE0090121D1294A1C007901222E0FBE4FAF944
:106C0E00F8D00712093FE412032CE4FBFAF978BF1F
:106C1E00129467901223129455A2AFE433FEC2AFC2
:106C2E0053A90F90121AE06029901223E0F5AB8F52
:106C3E00AD90121BE024FF92FBA3E0600E90122198
:106C4E00E0C43354E0441042A9800353A9EFD2EBC1
:0B6C5E008002C2EBAF06EE12948A2207
:105C9F000709433B0B0709433B0B0707433B0B0725
:105CAF00078B3B0B07078B040B07078B04040707B6
:105CBF008B0404040B048B061705078B0404040DD7
:105CCF008B0404040D000B0B040400008B06170556
:105CDF000000061705000000170500000000050072
:105CEF000000000004070000000007000000000093
:105CFF001D0B000001000B0000010000000001005F
:105D0F000000000100000000010000000000000082
:105D1F000000000000000000000000000000000074
:105D2F000000000000000000000000000000000064
:105D3F000000000000000000000000000000000054
:105D4F000000000000000000000000000000000044
:105D5F00C393C7712FEE93C7712FEE77C7712FEED5
:105D6F007703712FEE7703342FEE7703341AEE7724
:105D7F0003341A0D658B021703077703341A0D02CC
:105D8F0003341A0D02001A0D12090000021703073F
:105D9F0000001703070000000307000000000700C2
:105DAF0000000000070200000000020000000000D9
:10186400420E1E0000420E140000420E22000042EE
:101874000E180000410E1C01420E200000420E16FC
:101884000000420E240000420E1A0000410E1D0109
:1088D100E4FAF9F8900D00120A4712B41EEF2430A1
:1088E100902510F0900D00020A47E4FAF9F812B44D
:1088F1001EAC00AD01AE02AF03900D00020A5FFF96
:10890100C3E09FFF7E00EF543FFFAD01ED24FF2246
:10891100FF120ACCEF1206FB901362E0FF900D16D6
:10892100E075F006A422F583E5822FF582E4358314
:10893100F583E49322E433F0C2E8A2ACE43322E409
:1089410033F0C2E8A2AEE43322A2AFE433FFC2AFF8
:1089510022C374409FFFE49EFED3EF9403EE940084
:1089610022E4F0A3E0543FF022E01206FBE4F58399
:10897100EF24FF92AF7F0122120ACC8F8275830010
:038981000206AC3F
:1058D600900D0C120AECE4900D15F0120BD15948FC
:1058E6000000012C594F000002585957000004B01F
:1058F600595F000009605967000012C0596F000027
:105906002580597700003840597F00004B005987A1
:1059160000009600598F0000DAC059970000E10098
:10592600599F0001C20059A70003840059AF000720
:10593600080059B70008CA0059BF001194000000BA
:1059460059C7E4900D16F0807E900D167401F08014
:1059560076900D167402F0806E900D167403F0802A
:1059660066900D167404F0805E900D167405F08036
:1059760056900D167406F0804E900D167407F08042
:1059860046900D167408F0803E900D167409F0804E
:1059960036900D16740AF0802E900D16740BF0805A
:1059A60026900D16740CF0801E900D16740DF08066
:1059B60016900D16740EF0800E900D16740FF08072
:1059C60006900D157412F0900D15E07049128919A4
:1059D600249FF582E4345C128927900D0C128911FC
:1059E60024FFF582E4345C128927900D0F12891189
:1059F600245FF582E4345D128927FF900D12120AA6
:105A0600CCEF1206FB900D12120ACC12069370060A
:0C5A1600900D157412F0900D15E0FF22A9
:0BCA7900EF6004439820225398DF2256
:10815500901224EFF0A3EDF0E59820E504007F10E0
:1081650022E4FF901224E06023901226120A477B36
:10817500017A12792B900D0F120AEC7A1209900DE3
:1081850012120AEC7A12091258D6800BE490122DBD
:10819500F090122BF0A3F0EF6002002212894A90B2
:1081A5002505E4F09025037480F090122CE09025CD
:1081B50000F090122BE0902501F090122DE0902513
:1081C50007F0902503E4F0902507F0901224E06075
:1081D500389025027481F090122AE0FE543F9025D4
:1081E50003F0902501E4F0EE20E604E04401F09070
:1081F500122AE020E707902501E04402F0D2AC9076
:108205001225E024FF92BC8009902501E4F0C2AC60
:0A821500C2BCEF24FF92AF7F0022ED
:10C38C00A2E8901367128936F9C2AC900E14A3E0A0
:10C39C00900E1F12890092AC901367E024FF92E874
:01C3AC00226E
:10C3AD00A2E8900DC8128936F9C2AC900E18A3E020
:10C3BD00900E2312890092AC900DC8E024FF92E8F4
:01C3CD00224D
:10AA4300AC0712C3AD12895240F8A2E8E433FF12F7
:10AA53008939FEC2AC900E1CE06010E4F0C2AF90E6
:10AA63002500ECF0E4F583D2AF8022900E22E0FAC9
:10AA7300A3E024A6F582740E3AF583ECF0900E223F
:10AA8300E475F0011207CC900E22128962EE24FFC6
:08AA930092ACEF24FF92E822CF
:10AD510090131F120AEC12C38CEF4E7002FF22A255
:10AD6100E8E433901322128938FFC2AC900E14E448
:10AD710075F0011207E2FC742625F0F582740E3C91
:10AD8100F583E0FE90131F120ACCEE1206FB900E23
:10AD910014128962EF24FF92AC901322E024FF92F7
:04ADA100E87F012224
:10C78A00E4FF900E1CE070010F902505E020E50201
:03C79A007F0122FA
:10AFD800900DC8120AEC902501E030E1037F13229E
:10AFE800EDD3941040037F1422902505E030E5F955
:10AFF800E4FFEFC39D5022A2AFE433900DCBF0C223
:10B00800AF900DC8128979902500F0E4F583900D72
:0CB01800CBE024FF92AF0F80D97F002214
:10C73A00902505E030E00A12894A90250012896A9C
:04C74A00227F002228
:0BCA8400EF6004439840225398BF224B
:10821F00900CFEEFF0A3EDF0E59820E604007F1040
:10822F0022E4FF900CFEE06023900D00120A477BC2
:10823F00017A0D7905900D0F120AEC7A0D09900D48
:10824F0012120AEC7A0D091258D6800BE4900D0722
:10825F00F0900D05F0A3F0EF6002002212894A9012
:10826F002515E4F09025137480F0900D06E090250D
:10827F0010F0900D05E0902511F0900D07E090257E
:10828F0017F0902513E4F0902517F0900CFEE060A6
:10829F00389025127481F0900D04E0FE543F902524
:1082AF0013F0902511E4F0EE20E604E04401F09085
:1082BF000D04E020E707902511E04402F0D2AE90C4
:1082CF000CFFE024FF92BE8009902511E4F0C2AEAE
:0A82DF00C2BEEF24FF92AF7F002221
:10C27900A2E8900D45128940F9C2AE900E16A3E0CE
:10C28900FFC3900E2112890292AE900D45E024FF62
:03C2990092E82206
:10C29C00A2E8900DC8128940F9C2AE900E1AA3E024
:10C2AC00FFC3900E2512890292AE900DC8E024FFB8
:03C2BC0092E822E3
:10A99100AC0712C29C12895240F8A2E8E433FF12BC
:10A9A1008943FEC2AE900E1DE06010E4F0C2AF908C
:10A9B1002510ECF0E4F583D2AF8023900E24E0FA69
:10A9C100A3E024E6F582740E3AF583ECF0900E24B0
:10A9D100E475F0011207CCE4900E24128963EE2491
:09A9E100FF92AEEF24FF92E82280
:10ACA700900D41120AEC12C279EF4E7002FF22A2F8
:10ACB700E8E433900D44128942FFC2AE900E16E4C9
:10ACC70075F0011207E2FC746625F0F582740E3CFC
:10ACD700F583E0FE900D41120ACCEE1206FBE490DC
:10ACE7000E16128963EF24FF92AE900D44E024FF05
:05ACF70092E87F01223C
:10C79D00E4FF900E1DE070010F902515E020E502DD
:03C7AD007F0122E7
:10B02400900DC8120AEC902511E030E1037F132241
:10B03400EDD3941040037F1422902515E030E5F9F8
:10B04400E4FFEFC39D5022A2AFE433900DCBF0C2D6
:10B05400AF900DC8128979902510F0E4F583900D16
:0CB06400CBE024FF92AF0F80D97F0022C8
:10C74E00902515E030E00A12894A90251012896A68
:04C75E00227F002214
:108F86001288FA1288E5EC3350181288E51209DEC9
:108F96001288FA902510742DF0902515E020E5082A
:108FA60080F79025107420F0E47B107A271288D37E
:108FB600E47B107A271288ED902515E030E5F9E478
:108FC6007BE87A031288D3E47BE87A031288ED9073
:108FD6002515E030E5F97B641288D17B641288EBB5
:108FE600902515E030E5F97B0A1288D17B0A1288B4
:108FF600EB902515E030E5F91288E5EF2430902551
:1090060010F0902515E030E5F99025107420F090C9
:0D9016002515E030E5F9E47F01FEFDFC22A8
:09CAC200C2AF75D25575D2AA224B
:0BCA8F00EF6004439201225392FE224C
:10B9C800E59220E004007F1022EDD3940F4004009C
:10B9D8007F1122A2AFE433FEC2AFEF600C12CAC4DB
:10B9E800ED540F4440F5D2800612CAC475D280AF18
:09B9F80006EE24FF92AF7F00224D
:10C0880090FFFF120C0BA2AFE433850D83850E825F
:10C09800F012CAC243D240850D83850E82E024FF88
:08C0A80092AF900001020C0BA5
:10BEE300A2AFE433FCC2AFEF4E600E901358EEF0F6
:10BEF300A3EFF07D0F7F018009E4901358F0A3F0C6
:0DBF0300FDFF12B9C8AF04EC24FF92AF227D
:10C6A100EFD3940F4004007F112212CAC2EF540F3E
:07C6B100F5D243920180FE67
:10B56B00900D41120AEC7F007E10E4900D44F0FD2B
:10B57B00EF2DF582E43EF583E493FC900D44E02C33
:10B58B00F0900D41120ACC8D82758300EC12070DE1
:10B59B000DEDB440DB900D44E070037F01227F0082
:01B5AB00227D
:041894004113680094
:10C76200F0C2AF9027A6E04480F0E4F583D2AF9008
:04C772001368F02236
:0BCA9A00EF6004439940225399BF2233
:10991700E59920E604007F1022E4901368F0902771
:10992700AA04F09027A974A5F0EB600D9027ACE48A
:10993700F09027AB748CF080109027AAE09027ACAA
:10994700F09027A9E09027ABF09027B2E4F090279A
:10995700B17464F09027AF745AF0A374B4F09027F1
:10996700ADF0A3745AF0901326E09027A2F0902749
:10997700A6742FF0ED600543F901800353F9FEEF5C
:0D998700600543E901800353E9FE7F0022E3
:10BA7200E59920E604007F10229027A4EFF090279A
:10BA8200A77408F0A3742912C7627F12FDFC9013F9
:10BA920068E06004E4FF800B0DBD00010CBC75EE94
:08BAA200BD30EBEF6001002252
:10BC2000E59920E604007F10229027A77406F0A370
:10BC30000412C7627F11FDFC901368E06004E4FF0A
:10BC4000800B0DBD00010CBC75EEBD30EBEF60014B
:02BC50000022D0
:10BC83000A0D2045564B203A204C49422056322E6D
:10BC9300350000000000000000000000000000006C
:10BCA3000000000000000000000000000000000091
:10902300A37429F004F004F07429F004F004F0743C
:1090330029F004F004F022900D1F7412F0A37403BE
:10904300F0A32274039022CFF09022CE22900D1F22
:109053007413F0E4A3F0A322F0A3F0A3F0A3F0A30E
:10906300F0A3F022900D1F7413F0A37401F0A32258
:1090730074029022CFF09022CE22F09022497463A2
:10908300F0A37455F0229022B0E04401F0E4FEFF17
:1090930022F07464A3F0A37404F02274C0F0A374E8
:1090A30070F090223C7490F02224A69022BFF0909E
:0D90B30022BEE4F022A3F0A37450F0A3222B
:10999400EFD394054025902232743AF0A37434F046
:1099A40090223812909E9022427411F090224574B5
:1099B4001E12907D90224D7426804C902232744A5F
:1099C400F0A37416F090224214F09022457423F010
:1099D400EFC39405902238401A12909E9022497445
:1099E40021F0A304F090224D04F0A37499F0A37421
:1099F40007F0227450F0A374B0F090223C7450121B
:0B9A0400907D90224D7412129094226D
:107DFF0090278074F6F0A37423F09022B07440F0B3
:107E0F009022C67480F09022C274B0F09022117448
:107E1F0002F090220C7405F09022207480F0A3E4FD
:107E2F00F0A37485F09022B97402F0A37463F090FC
:107E3F0022B774CFF0A3E4F09022C8745FF0A3745C
:107E4F0009F0EF30E0047E0E80027EA29022CAEE8F
:107E5F00F07408129097A3E4F0740B129048740F0B
:107E6F00F0902230744AF0902232F0A37416F0EFA3
:107E7F0030E0047E4B80027E4D902235EEF0EF30E5
:107E8F00E0047FC680027FCD902236EFF0745C1243
:107E9F0090B874B0F090223B7450F0A3F090224051
:107EAF007420F0A3F0A37415F0A37410F0A3F0A343
:107EBF00742312907DA374E1F090224D74121290EE
:0E7ECF009490221D7485F09022E1746EF022D2
:10AA9B00AE07EE6003B4010790222174018010EE23
:10AAAB00902221B40208E4F0A374E5F08006E4F0F0
:10AABB00A37485F0AF06129994EED39405400D90D4
:10AACB0022197410F09022CA74D5F022EEC39405AB
:10AADB00902219400A7410F09022CA74AAF022E452
:08AAEB00F09022CA74A2F022CF
:10577C00E4900D1EF0EF8EF0120BA457CB09655779
:10578C00D4096A57DD096F57E6097457EF09795741
:10579C00F8097E58010983580A09885813098D584D
:1057AC001B099258230997582B099C583309A15867
:1057BC003B09A6584309AB584B09B000005853128B
:1057CC00903A7428F002585912903A7450F00258DA
:1057DC005912903A7478F002585912903A74A0F019
:1057EC0002585912903A74C8F002585912903A74EF
:1057FC00F0F00258591290507418F0025859129047
:10580C00507440F00258591290507468F0803E1257
:10581C0090507490F0803612905074B8F0802E1224
:10582C00905074E0F080261290677408F0801E127D
:10583C0090677430F080161290677458F0800E12D6
:10584C0090677480F08006900D1E7417F0900D1EFA
:10585C00E0FF6001229022BE74C0F09022B474016B
:10586C00F0900D1FE09022B1F0900D20E09022B24C
:10587C00F0900D21E09022B3F09022B0E04401F0C2
:10588C00900D1E7414F0E4FFFE9022BDE030E00792
:10589C00E4900D1EF0800B0FBF00010EBE27EABF77
:1058AC0010E7900D1EE0601C1290899022BDE03034
:1058BC00E007E4900D1EF0800B0FBF00010EBE2719
:0958CC00EABF10E7900D1EE0FF99
:0158D50022B0
:085B6300901343EEF0A3EFF0F4
:105B6B00C3945AEE94094010901343E0FCA3E0FD5C
:105B7B00D394CBEC940940037F11229013457417F7
:105B8B00F0ED8CF0120BA45BD609655BD8096A5B50
:105B9B00DF096F5BE609745BED09795BF4097E5BEA
:105BAB00FB09835C0209885C09098D5C1009925C16
:105BBB001709975C1E099C5C2509A15C2C09A65C46
:105BCB003309AB5C3309B000005C3E80009022C20D
:105BDB0074D280599022C274D180529022C274D157
:105BEB00804B9022C274D180449022C274D0803DED
:105BFB009022C274D080369022C274D0802F902213
:105C0B00C274D080289022C274CF80219022C2749B
:105C1B00CF801A9022C274CE80139022C274CE8091
:105C2B000C9022C274CE80059022C274CDF0E49009
:105C3B001345F0901345E0FF6001229022B0E04441
:105C4B0002F0901343A3E01290AC9013457414F040
:105C5B00E4FFFE9022BDE030E007E4901345F080B6
:105C6B000B0FBF00010EBE27EABF10E7901345E0F4
:105C7B00601C1290899022BDE030E007E490134540
:105C8B00F0800B0FBF00010EBE27EABF10E7901389
:035C9B0045E0FFE2
:015C9E0022E3
:10876400C3EF9465EE94094009D3EF94B0EE9409F5
:1087740040037F1122C3EF94B0EE94094005902288
:10878400C28033C3EF949CEE940940089022C274D3
:10879400B3F08025C3EF947EEE940940089022C282
:1087A40074B4F08014C3EF9465EE94099022C2402F
:1087B4000574B5F0800374B2F0D3EF947EEE94099F
:1087C4009022B950057422F080037402F09022B014
:1087D400E04402F0EF1290AC7D14FFFE9022BDE065
:1087E40030E004E4FD800B0FBF00010EBE27EDBF97
:1087F40010EAED60191290899022BDE030E004E4A3
:10880400FD800B0FBF00010EBE27EDBF10EAE4FE92
:08881400FF600312577CAF0561
:01881C002239
:0CC999009022BFE0245AFFE43409FE2283
:105ED900EF120B7E5F26005F2D015F3A025F4303DD
:105EE9005F4A045F51055F58065F5F075F66085F99
:105EF90073095F7A0A5F870B5F8E0C5F950D5FA24E
:105F09000E5FAE0F5FB5105FC2115FC8125FCF138E
:105F19005FD6145FDD155FE91600005FF29022CFAE
:105F2900740B80059022CF7404F09022CE740FF088
:105F3900227405129075740BF022129046740AF0BF
:105F4900221290737409F0221290467407F02212FB
:105F590090467406F0229022CF740380059022CFD8
:105F69007401F09022CE7405F0221290737404F03B
:105F7900229022CF7407F09022CE7403F02290224F
:105F8900CF740280199022CF740C80059022CF74AF
:105F990004F09022CE7402F0229022CF7401F09086
:105FA90022CE04F0229022CF741F80059022CF7454
:105FB9000FF09022CE7401F02212907314F0229007
:105FC90022CF7401801E9022CF741F800C9022CFA3
:105FD900740880059022CF7401F09022CEE4F0225B
:0A5FE9009022CFE4F09022CEF022C7
:10A28B00EFB401079022707424F022EF6402600592
:10A29B00EF6403703990278074FEF09022197401DB
:10A2AB00F09022707427F0902280E030E0F9902239
:10A2BB00807423F0A37407F0EF902270B40305743D
:10A2CB0077F080037422F09022817460F022902743
:10A2DB008074F6F0902219E4F09022807480F0A341
:0AA2EB00746CF09022707480F02271
:10C77600EF9022926008740EF0A37402F022740106
:04C78600F0A3F0220A
:08CAFB00902290E054C0F022EB
:10A2F500EF30E00C902720E412905BA312905B22D4
:10A30500EF90272030E7297404F0A374E2F0A374DA
:10A3150004F0A374E2F0A37414F0A37410F0A3E4A2
:10A32500F074FA1290B8F0A374A0F0A37464F0224C
:10A335007402F0A37471F0A37402F0A37471F0A316
:10A34500740AF0A37408F0A3E4F0A3747CF0A3747A
:09A3550028F01290B87432F022D5
:1075E000902785E090228230E272E4F000000000F3
:1075F0000000000012902300000000000000007452
:1076000029F0000000000000000000000000000061
:10761000000000000000000000000000000000006A
:10762000000000000000000000000000000000005A
:10763000000000000000000000000000000000004A
:10764000000000000000000000000000000000003A
:10765000000000000000000000008010E4F00000C6
:107660000000129023000000007429F000000000C8
:10767000000000000000000000000000000000000A
:1076800000000000000000000000000000000000FA
:1076900000000000000000000000000000000000EA
:1076A00000000000000000000000000000000000DA
:1076B00000000000000000000000000000000000CA
:0D76C000000000007440F090228214F022BF
:050006007EBC7F832297
:1035AD002023232045413D302C20496E74657272D5
:1035BD007570742044697361626C65642023230007
:1035CD002023232055415254303A496E746572724E
:1035DD007570742044697361626C656420232300E7
:1035ED002023232055415254313A496E746572722D
:1035FD007570742044697361626C656420232300C7
:10360D00202323205541525430203A20496E7465B1
:10361D0072727570742044697361626C65642023E5
:10362D002300202323205541525431203A20496E46
:10363D00746572727570742044697361626C65642F
:10364D00202323000A002025303278000A205B4D0C
:10365D0049425D000A204368616E3D25752028258D
:10366D0075204D487A292C2000202050616E494448
:10367D003D307825303478000A2053686F727441DC
:10368D006464723D30782530347800203A494545E0
:10369D00454164647228307E37293D3078000A2018
:1036AD0044737453686F7274416464723D3078254D
:1036BD0030347800203A447374494545454164647B
:1036CD007228307E37293D3078000A2044617461BC
:1036DD00526174653D3078253032782C2000203AC7
:1036ED0054785077724C6576656C3D307825303264
:1036FD00782C200020204E6F41636B5265747279D7
:10370D003D257500203A4261636B6F6666526574A4
:10371D0072793D2575000A205B52582D4D41432D80
:10372D00504B545D000A2044534E3D3078253032C5
:10373D00782C204F4F423D30782530327800203A9A
:10374D0064426D3D256400203A436F72723D2564DD
:10375D00000A204473742E204D6F64653D25303270
:10376D007800203A50616E49443D307825303478E8
:10377D0000203A53686F7274416464723D3078254D
:10378D0030347800203A4945454528307E37293D6B
:10379D003078000A205372632E204D6F64653D25ED
:1037AD00303278000A204D534455204C656E3D252E
:1037BD00303275203A2000203A4D534455203D00BB
:1037CD000A203D3D3D2048494220446973706C619B
:1037DD0079203D3D3D000A20494545452041444461
:1037ED0052284C53427E4D534229203A000A204321
:1037FD00686970496E646578203D203078253032D7
:10380D00780020284D4732343030290020284D478C
:10381D0032343558290020284D47323437302900AD
:10382D0020284D4732343630290020284D47323478
:10383D00313029002028556E636C61737369666998
:10384D00656429000A204368616E6E656C20202036
:10385D003D20257520282575204D487A29000A2000
:10386D00537461636B49442020203D20307825300E
:10387D003278000A205478506F7765722020203DF1
:10388D00203078253032780020202020446174616A
:10389D005261746520203D20307825303278000A41
:1038AD002050616E494420202020203D2030782575
:1038BD00303278253032780020204E776B416464A9
:1038CD007220203D20307825303278253032780036
:1038DD000A205365634C6576656C20203D20307859
:1038ED00253032780020202020507265436F6E669F
:1038FD006967203D20307825303278000A204E57F8
:10390D004B204B657920284C53427E4D5342292044
:10391D003A000A205265736572765F30284C534227
:10392D007E4D534229203A000A204550494420201B
:10393D002020284C53427E4D534229203A000A2024
:10394D005265736572765F31284C53427E4D5342FA
:10395D0029203A000A2047656E6572616C576F72B7
:10396D006430203D20307825303278253032780093
:10397D000A2047656E6572616C576F726431203D28
:0C398D0020307825303278253032780068
:101898004211340000421136000042113800004263
:0918A800113A000042113C00005D
:104548001208A79011C2120A5F9011C2120A539062
:1045580011BFE075F064A4FFAEF0E4FCFD1208A7FB
:104568009011C2120A5F9011C2120A5375F00A9094
:1045780011BEE0A4FFAEF0E4FCFD1208A79011C242
:10458800120A5F9011C222120ACC9000191206ACCE
:10459800FFE4900D5AF0A3EFF07BFF229000011288
:1045A8000823FF900DD3120ACC900DD9E0FDF582B7
:1045B800758300EF12070D900DD0120ACC90000100
:1045C800120823E5F0FFED2401FDE433FC900DD340
:1045D800020ACC8D828C83EF12070D900DD0020A4F
:1045E800CCF9E43AFAE4900D53F07D08FC22900DE2
:1045F800D9E0F582758300ED12070DEEFF900DD915
:10460800E0F58275830022901346120ACC900004CC
:10461800120823FF900D5AE5F022901297120ACC47
:104628001207F8FFE5F0C4F854F0C868FEEFC45468
:104638000F48FFEE8FF012085B90129CE022901159
:10464800BEE09011BDF09011BFE09011BEF0901146
:10465800C0E09011BFF09011C1E09011C0F0E4A348
:10466800F09011BCE014F0229011BFE0FF7E007CB6
:10467800037DE812072FE4FCFD221206ACFF900D23
:104688005AE4F0A3EFF022120A47E47B107A27F9E4
:10469800F80208B4901349120ACC9000080206AC3C
:1046A800FFFD900D5AE4F0A3EDF07E007C007D053F
:1046B80012072FEF242EFFEE3409A32274852FF55D
:1046C80082E4340DF5832290129E120ACC020693DE
:1046D800120A539011BDE0FFE4FCFDFE22E924011B
:1046E800F9E43AFA020693120AEC7BFF7A3679511A
:1046F8007F0122901346120ACC9000020206AC8D6C
:10470800828C83EF12070D900DD9221206ACFF9010
:104718000D5CE422E475F0010207CCC4540F1206C4
:10472800FB9012A3E022EF24D09011BAF09011BCB4
:10473800E0C3940422120A539011BAE0FF3395E0C3
:10474800FEFDFC22900DC5E0FFC3944022F0E4F585
:1047580083900DCEE024FF92AF2290000C0206ACAD
:1047680090000B0206AC901346020ACCEFF0A3129D
:104778000AECE4222402FFE433FEE92FF9EA3E22A0
:10478800120A539011BDE075F00A22900DD9E07E0F
:104798000029F9EE3A22FF900DD6020ACC900DC5F9
:0D47A800E004F022901297120ACC0207F8EC
:10C2BF00900DC6EFF0902501E0900DC630E105E03E
:10C2CF00FF02AA43E0A3F07B017A0D79C77D01122B
:03C2DF00AFD822B3
:10BFBD00901327120AEC902501E090132730E0082A
:10BFCD00120ACC12AD518006120ACC12C73A901348
:09BFDD002AEFF090132AE0FF2284
:10C2E200900DC6EFF0902511E0900DC630E105E00B
:10C2F200FF02A991E0A3F07B017A0D79C77D0112BB
:03C30200B0242242
:10BFE60090132B120AEC902511E090132B30E008E9
:10BFF600120ACC12ACA78006120ACC12C74E9013B6
:09C006002EEFF090132EE0FF2252
:109DC500900DCA120AECA2AFE433900DCEF0C2AFEB
:109DD500902500740AF0740DF0902510740AF07443
:109DE5000D124755902505E030E5F9902515E03031
:109DF500E5F9E4900DCDF0900DCA120ACC12C725F5
:109E0500900DCDE0C39FE49E5029A2AFE433A3F0AB
:109E1500C2AF900DCA120ACC900DCD12460812069B
:109E2500AC902500F0902510124755900DCDE0041B
:049E3500F080C422D3
:109C6500900DC6EFF020AF3D7BFF7A3579AD129CA4
:109C7500D3900DC6E0700B20AC087BFF7A3579CD0B
:109C85008010900DC6E0B4010C20AE097BFF7A353B
:109C950079ED129CD3C2AF75D25575D2AA75D20A89
:109CA50043920180FE900DC6E0700B20AC087BFF4F
:109CB5007A36790D8010900DC6E0B4011020AE0DF6
:109CC5007BFF7A36792FA3120AEC129DC522A312C7
:069CD5000AEC129DC522FD
:108C4800900D57120AEC900D56EFF0129C65E490C7
:108C58000DC5F012474C500A1246C4E4F01247A55D
:108C680080F17B017A0D795A900D82120AEC900DF1
:108C780057120ACC900DC6120AEC900D82120ACC3B
:108C8800900DC9120AEC7B017A0D798512B19A9080
:108C98000D56E030E02BE4900DC5F012474C504CD7
:108CA8001246C4E0FF604512C2E2900DC5E024857B
:108CB8001246C7E0B40A057F0D12C2E21247A5802A
:108CC800DAE4900DC5F012474C50211246C4E0FF7B
:108CD800601A12C2BF900DC5E024851246C7E0B4E1
:0D8CE8000A057F0D12C2BF1247A580DA22D7
:106F500090129612477490129CF0F5F012085B7F25
:106F6000107E2712BEE3901296E030E04C7B017A4F
:106F700012799B12BFE6EF60E61270346012901235
:106F80009CE0640460D990129BE0FF12C2E2804A48
:106F900090129BE064087018A3E060147F0812C28E
:106FA000E27F2012C2E27F0812C2E212462214F0EF
:106FB00090129BE0640D70A7227B017A12799B12DC
:106FC000BFBDEF609A127034603E90129CE0640482
:106FD000608D90129BE0FF12C2BF1247ACC4F85400
:106FE0000FC868FFE5F0C454F0488FF012085B1238
:106FF00047ACFF90129AE0FD3395E045F0FEEF4D6F
:1070000012463A04F0026F5F90129BE06408701819
:10701000A3E060147F0812C2BF7F2012C2BF7F08A6
:1070200012C2BF12462214F090129BE0640D60035E
:10703000026F5F2290129BE0FF12C12690129AEF1E
:03704000F0F42247
:107B5A0090129D1247749012A3F01206FB7F107EBA
:107B6A002712BEE390129DE030E04F7B017A127932
:107B7A00A212BFE6EF60E6127C2E60129012A3E01A
:107B8A00640260D99012A2E0FF12C2E2804D901204
:107B9A00A2E06408701BA3E060177F0812C2E27FAC
:107BAA002012C2E27F0812C2E21246CF1247231401
:107BBA00F09012A2E0640D70A4227B017A1279A2DD
:107BCA0012BFBDEF6097127C2E602A9012A3E06468
:107BDA0002608A9012A2E0FF12C2BF1246CFC454BA
:107BEA00F01206FB1246CFFF9012A1E04F12472671
:107BFA0004F0027B679012A2E06408701BA3E060A5
:107C0A00177F0812C2BF7F2012C2BF7F0812C2BFED
:107C1A001246CF12472314F09012A2E0640D6003BB
:107C2A00027B67229012A2E0FF12C1269012A1EFF6
:037C3A00F0F42241
:104A10009011B61247749011BCF0F5F012085BE4E7
:104A20009011BDF0A3F0A3F0A3F0A3F07F107E27B8
:104A300012BEE39011B6E020E003024B0B7B017A3B
:104A40001179BB12BFE6EF60E39011BBE0FFC394A6
:104A500030405BEFD39439505512472E5003024A31
:104A6000A89011BCE0640470C39011C01246DE121D
:104A7000458512468F124585120A53C000124670B2
:104A8000D000124582120A5375F06412457712471E
:104A90008812457B12473D124582120A47E4FEED1B
:104AA0004C70899011BBE0FF12C2E2024B8F901153
:104AB000BBE064087016A3E060127F0812C2E27FB8
:104AC0002012C2E27F0812C2E21246469011BBE0F9
:104AD000640D6003024A2C9011C11246DEA31245F8
:104AE0008812468F124585120A53C0009011C012D9
:104AF0004673D0001245481246D8124582120A4722
:104B0000E4FFFEED4C600122024C127B017A117928
:104B1000BB12BFBDEF7003024A2C9011BBE0FFC374
:104B200094305003024BB8EFD394394003024BB892
:104B300012472E500612C2BF024B8F9011BCE06488
:104B4000046003024A2C9011C01246DE1245851201
:104B5000468F124585120A53C000124670D00012CB
:104B60004582120A539011BEE075F06412457B1223
:104B7000478812457B12473D124582120A47E4FEE0
:104B8000ED4C6003024A2C9011BBE0FF12C2BF90B3
:104B900011C0E0A3F09011BFE0A3F09011BEE0A31C
:104BA000F09011BDE0A3F09011BAE09011BDF0902B
:104BB00011BCE004F0024A2C9011BBE064087016AE
:104BC000A3E060127F0812C2BF7F2012C2BF7F081D
:104BD00012C2BF1246469011BBE0640D6003024A48
:104BE0002C9011C11246DEA312458812468F124541
:104BF00085120A53C0009011C0124673D0001245AE
:104C0000481246D8124582120A47E4FFFEED4C6076
:104C100001229011C2120A479011B7120ACCEE8FEE
:074C2000F012085B7F012286
:10B7EE00A2A9E433FEC2A9EF70059011348022EFB6
:10B7FE00B401059011368019EFB40205901138800E
:10B80E0010EFB4030590113A8007EFB404089011BD
:0EB81E003CECF0A3EDF0AF06EE24FF92A92261
:10BCB300EF70059011348019EFB4010590113680AF
:10BCC30010EFB402059011388007EFB4030A901106
:10BCD3003AE0FCA3E0FD8003E4FCFDAF05AE0422E3
:1042AC00900DD0120AEC120693FF64026004EFB476
:1042BC0003201245E3900001120823FF901117E030
:1042CC00B5F00DA3E0B50708900DDA7401F0800786
:1042DC008000E4900DDAF01245D574011206FB1241
:1042EC0045E312476230E00B1245D5120693442089
:1042FC001206FB900DDAE0600B1245D512069344C2
:10430C00401206FB1245E31247625430C4540FFFAF
:10431C001245D5900001EF12070DE92401F9E43A9A
:10432C00FAC003C002C001120693FF1245E3124704
:10433C006254C01313543F4FD001D002D003120665
:10434C00FB1245E3120693FF6027EFB4020A1245F5
:10435C00D51246E5440880111245E3120693B403C6
:10436C000D1245D51246E5440C1206FB80037FE87E
:10437C00221245E3124768FF6027EFB4020A124588
:10438C00D51246E5448080111245E3124768B40308
:10439C000D1245D51246E544C01206FB80037FE89A
:1043AC0022901131E004FFF01245D5900002124723
:1043BC000B7403F01245E312069364027035124538
:1043CC00A41245DB900003120823FF900DD9E024C2
:1043DC00021245D11245DB900003120823E5F0FFD1
:1043EC00900DD9E024031245D1124707E02404F0C4
:1043FC000244331245E31206936403702A1245E318
:10440C001245A4124707E012477CFEAF011245E3A8
:10441C00E92403F9E43AFCAD017B087A0012A148C7
:10442C00900DD9E0240AF01245E31247686402703B
:10443C0054900DDAE06019901119E0FEA3E0FD1222
:10444C0045D51245F6A312470BE02402F00244DCDA
:10445C00901117E0FEA3E0FD1245D51245F6A3EF2F
:10446C0012070D901119A3E0124604A3A3EF120733
:10447C000D901119E0124604A3A3A312470BE024DC
:10448C0004F00244DC1245E3124768640370419067
:10449C000DDAE0600E1245D512479312453524080B
:1044AC00F0802D901117E0FEA3E0FD1245D51246C9
:1044BC0005ED12070DEEFF900DD9E0FEF582758328
:1044CC0000A3EF12070DEE12477C124535240AF0BB
:1044DC00900DD9E012479EEF1206FB1245E39000B7
:1044EC000D1206AC12479EEF1206D912479F7402AA
:1044FC001206D9900DD61246D2D3947F40037FE595
:10450C00221245D5124793FEAF011245E390000EDF
:10451C00120AF5AC02AD011245E390000D1206AC87
:10452C00FB7A0012A1487F0022FEAF017C117D1B9B
:0C453C007B087A0012A148900DD9E02203
:10A63100E49010CAF0EF04900DD3F0ED04A3F0E420
:10A64100900DD1F0900DD3E0FF900DD1E0C39F505C
:10A651003EE4A3F0900DD4E0FF900DD2E0C39F50F3
:10A6610018128085900DD0EFF064156004E0B4E11C
:10A6710008900DD2E004F080DB900DD0E07008A3CB
:10A68100E09010CAF08008900DD1E004F080B59000
:05A691000DD0E0FF22E6
:10B86900C003C002C0017B017A237901900DD31274
:10B879000AEC7A0D79CF900DD6120AECD001D002DC
:10B88900D0031242ACEF7013900DCFE0902300F07B
:0CB89900901132E0FFA3E0FD12A6312266
:020029000022B3
:10BCE30090135AEEF0A3EFF0E490110AF0A3F09052
:10BCF300135AE0FEA3E0FFC390110BE09F90110ADB
:10BD0300E09E500B12C8AA90110A12471C80E02231
:10C8AA00E490110CF090110CE004F0E0B401F622CF
:10C8BA00E490110DF090110DE004F0E0B409F622B5
:10C8CA00E490110EF090110EE004F0E0B430F6227C
:10C8DA00E490110FF090110FE004F0E0B460F6223A
:10C5BF00E4901110F0A3F090111012471C9011107D
:0AC5CF00E07004A3E0646970EE223E
:10C5D900E4901112F0A3F090111212471C9011125D
:0AC5E900E07004A3E064D270EE22BB
:10C3CE00E4901114F0A3F0C3901115E09F90111496
:10C3DE00E09E500B12C5D990111412471C80E82212
:10A56300900D4E120AEC900D51ECF0A3EDF0E49037
:10A573000D54F0A3F0900D51E0FCA3E0FD900D54B9
:10A58300E0FEA3E0FFC39DEE9C503B900D53E0FD26
:10A59300600F7C00120741ED4C70061246F2128CDC
:10A5A30048900D4E120ACC900D54E0FEA3E0F582C4
:10A5B3008E831245957A3679537F01128C48900D1C
:07A5C3005412471C80AF2277
:10798C00900D4B1246EF128C487A367959127A4187
:10799C001206931246A812459D7A367961127A4FD7
:1079AC00900001120823FFE5F012459A7A36797699
:1079BC00127A4F90000312461812459D7A3679853B
:1079CC007F01128C487A367998127A41E924051293
:1079DC0045E912A563900D4B120ACC90000F12468C
:1079EC001812459D7A3679AB7F01128C487BFF7A51
:1079FC003679C1127A5BE924111245E912A563901C
