:10B00000C00F74B0C0E0C082C083750F0A75A10084
:10B010000000000022C00F74B0C0E0C082C0837581
:10B020000F1F75A1010000000022C00F74B0C0E026
:10B03000C082C083750F3475A1020000000022C0D9
:10B040000F74B0C0E0C082C083750F4975A10300C2
:04B0500000000022DA
:0DCB8000EF90CB899390B000730A1F3449E9
:10A3E800EB60010A4A601D8C838D8263A2018E8313
:10A3F8008F8263A20100E0A363A201F0A363A2011C
:10A40800DBF4DAF222C0A275A2010000C082C08388
:10A4180063A2010000C082C083EB60010A4A601D8C
:10A428008C838D8263A2018E838F8263A20100E0F8
:10A43800A363A201F0A363A201DBF4DAF2D083D014
:0DA448008263A2010000D083D082D0A22246
:03000000025BF8A8
:105BF8007598007599209022E074D9F090270E745A
:105C080000F09027027470F09027037400F0E4907D
:105C18000000F0900000E004F0E0B4C8F69027001F
:105C28007480F09027087400F0902709F0902720DE
:105C3800F0902721F0902722F0902723F090272436
:105C4800F0902725F0902726F0902727F090272816
:105C5800F0902729F090272AF090272BF0759900CB
:105C68009022E17400F09022E27490F09022E774A0
:105C7800FFF09022E8F09022E9F09022EAF09022DA
:105C8800EBF09022ECF09022ED7400F09022EEF010
:105C98009022EFF09022F0F09022F1F09022F2F0B2
:105CA800750D18750E00758121C2C112B00A025C0B
:015CB800F4F7
:0CCBBF00016800AA005A002D0015000BB0
:0A18000042120E000042120C00001C
:10C1AE00900D246480F8E064809822900D24E0FEC7
:10C1BE00A3E0FFC322900D30120A5F900D30020AE9
:0AC1CE0047120ACC900D29020AEC7A
:0ECB4800902784E054BFF00000E04440F0224B
:10ABD200EBD394084004007F1222EDD39403500477
:10ABE200EDB40104007F1122EF9022E66026E044DA
:10ABF20004F0902781E0440CF09022D4E04480F0ED
:10AC0200E054F04BF0AF05EFC43354E0FFE0549F43
:10AC12004FF08012E054FBF09022D4E0547FF09089
:09AC22002781E054F3F07F0022C9
:10C18400EFD394035005ED94034004007F112290F3
:10C194002786E054FC4FF0AF05EF25E025E0FF9043
:0AC1A40022D5E054F34FF07F002293
:10C0FD00ED6005D3940E4004007F1122ED04C4546D
:10C10D00F0FE9022D5E0540F4EF0EF6006E04402B1
:0DC11D00F080079022D5E054FDF07F002255
:10C5A900A2AFE433FFC2AF9022D7E0FDE0FEEF2453
:10C5B900FF92AFAF06EFFEEDFF7C007D10120796EC
:01C5C900224F
:10CA4A009022D6E05478131313541FFF60011F225B
:10B6AC0074FFF5F012085B7F13E4901206F0A3F020
:10B6BC009022D6E05470600D12C5A9EE8FF01208DE
:10B6CC005BE4FF8019901206E475F0011207CCC3FD
:10B6DC00901207E094D0901206E0940740D2EF60ED
:03B6EC0001002238
:109CAA00AA05EBD394084004007F1222EAD3940356
:109CBA004004007F1122EF60557D02E4FF12C0FDCF
:109CCA00AF02AD077F0112ABD2AC07EC704912CBE1
:109CDA004890137AE025E024BFF582E434CBF5837B
:109CEA00E493FF740193901208CFF0A3EFF0E4A37A
:109CFA00F0A3F090120812C1BC90120BE09F9012D0
:109D0A000AE09E5012E475F0011207CC80E5E4FBEC
:0A9D1A00FDFF12ABD2AC07AF04222C
:10BDFB00900D01120AECEFD394084004007F12223D
:10BE0B00AB07E4FD7F01129CAAEF600122900D01AC
:10BE1B00120ACC12B6ACEF600122E4FBFDFF129CC0
:04BE2B00AA7F0022C8
:10733C00900D22EEF0A3EFF0A3ECF0A3EDF0900D86
:10734C0028E0FFC3940A4006EFD3940F4004007F5B
:10735C001122900D2212C1BC900D25E09FEE12C19E
:10736C00AE4004007F142212C1B9900D23E09FFFA0
:10737C00900D22E09E900D2CF0A3EFF0D3900D25F4
:10738C00E09BEA12C1AE4009E4900D2EF0A3F08010
:10739C0029C3900D23E09BEA900D2212C1B1500B32
:1073AC00900D2CE0FFA3E0A3CF800B12C1B9EB9F93
:1073BC00FFEA9E900D2EF0A3EFF0900D28E0FF74E5
:1073CC00017E00A807088005C333CE33CED8F9243C
:1073DC00FFFFEE34FFFEE4FCFD900D30120A5F90CF
:1073EC000D2EE0FEA3E0FFE4FCFDA3120A531208ED
:1073FC00B412C1C3C006C007900D2CE0FEA3E0FB85
:10740C00AA06E4F9F8D007D00612093F12C1C3EE60
:10741C00547FFE900D29120ACCEE8FF012085B7F80
:02742C0000223C
:0CCBA7007B017A12790E7F0712BDFB2281
:0CCBB3007B017A12790C7F0812BDFB2276
:10AD8C00900D1D120AEC900D1CEFF0C3940A4006B6
:10AD9C00E0D3940F4004007F11227B017A0D7920BF
:10ADAC0012B6ACEF60012290120EE0FEA3E0FF9011
:10ADBC00120CE0FCA3E0FD900D1CE0900D28F0902F
:10ADCC000D1D12C1CF900D20E0FAA3E0FB12733CD5
:07ADDC00EF6001227F00225D
:10988E009011F1EDF0A3120AEC9011F0EFF0D394D9
:10989E00084004007F12229011F1E0FFC3940A40A9
:1098AE0006EFD3940F4004007F11227B017A1179C9
:1098BE00F77F0712BDFBEF6001227B017A1179F56C
:1098CE007F0812BDFBEF6001229011F0E0FF7B01DB
:1098DE007A1179F912BDFBEF6001229011F7E0FECB
:1098EE00A3E0FF9011F5E0FCA3E0FD9011F1E090F4
:1098FE000D28F09011F212C1CF9011F9E0FAA3E009
:0B990E00FB12733CEF6001227F00227F
:04180A0041137A000C
:10AE3A00E4FDEF14601414601514601614601714FE
:10AE4A006018240570187E088016E4FE80127E20A1
:10AE5A00800E7E40800A7E6080067E0C80027D1213
:10AE6A00ED600300FF2290137AEFF0538E10EE424A
:10AE7A008EE58E90278530E306E04404F08004E0F6
:06AE8A0054FBF07F0022E2
:030026008F98228E
:03002E008F992285
:030036008F9A227C
:08180E0041136600411367005D
:10C90F00A2AFE433FEC2AFEB9022EF22AF06EE24CC
:06C91F00FF92AF7F002231
:10B7F400E5B420E204007F102212C90F30E106E014
:10B804004404F08004E054FBF0EB30E003D3800107
:10B81400C39288ED24FF92B8EF24FF92A89022F2FD
:10B82400E030A8054404F0800354FBF012C91B2245
:10B83400E5B420E304007F112212C90F30E106E0D1
:10B844004408F08004E054F7F0EB30E003D38001C7
:10B85400C3928AED24FF92BAEF24FF92AA9022F2B7
:10B86400E030AA054408F0800354F7F012C91B2203
:0418160041137B807F
:10760D00E0FEA3E0FFF5828E83A3A31206AC9027C4
:10761D0005F08F828E83A3A3A31206AC902704F0EE
:10762D0090137BE04401902700F022F090132DE0A1
:10763D00F58A90132BE0F58C22E0FEA3E0FFF58296
:10764D008E831206AC902707F08F828E83A31206CD
:10765D00AC902706F022FFE0FAA3E02DF582EA3C7C
:10766D00F583E4936F22900D05E475F0010207CCCC
:10767D00900D03E0FEA3E0A3FFE0FCA3E0FDC39F9C
:10768D00EC9E229027007480F09027027470F0A376
:10769D00E4F0902708F0A3F07F0122E0FEA3E09034
:1076AD002703F0EE902702F022FFEEF0A3EFF04358
:1076BD00992090270EE4F090137AE0229027097418
:1076CD0001F0902708E4F022120ACC8D828C8302FF
:1076DD0006ACEEF0A3EFF0EE54014F22CFF0A3EF86
:0D76ED00F0E422900D09120A5F900D0922B1
:06CD3700E490137BF022E2
:07CD290090137B7480F022DF
:10BC7C0090270EE4F090270DE020E0F90000000082
:10BC8C00EF1276AC902708E4F0A304F090137BE05D
:10BC9C004402902700F00000000090270DE020E007
:08BCAC00F99027007480F022DA
:100E7F00900D4C120AEC900D4A1276DF6004007F41
:100E8F001422900D4AE0FEA3E07802CEC313CE13D6
:100E9F00D8F9900D561276B670047F808002E4FF69
:100EAF0012A59590137BE0701D902700E064807071
:100EBF0015902708E0700FA3E0700B902702E0B4A5
:100ECF007004A3E06009900D587413F0020FE4E46E
:100EDF00FF12B42EE4900D5DF012C2A3900D56E0F8
:100EEF00FEA3E0FF12BC7C900D4FE030E00AE490CF
:100EFF000D58127638020FE490270DE020E0F9121A
:100F0F0076C9900D50F0A3F0900D56E0FFA3E0903E
:100F1F000D54CFF0A3EFF0900D52E4F0A37480F0D6
:100F2F0012C2A3900D541276A8900D4C120ACC90B9
:100F3F000D50127646900D5012760D000000009065
:100F4F000D50E475F0041207CC900D541276769084
:100F5F000D5274FFF5F01207CC900D52E07002A302
:100F6F00E070BD90270DE020E0F9127639900D4A20
:100F7F00E0FFA3E0900D591276E9900D58F0900D17
:100F8F005BF0A3F0900D5BE0FEA3E0FFC3EE9402D5
:100F9F00502E900D4C120ACC8F828E831206ACFF0E
:100FAF00900D5BE0FCA3E0FD900D59127664600894
:100FBF00900D587415F08008900D5B12767680C4F2
:100FCF00900D58E0600F900D5DE004F0E0C39404C5
:100FDF005003020EE812769012A5955399DF7F0108
:0C0FEF0012B42E900D58E0FF60010022AB
:1054DE009011A3120AEC9011A11276DF6004007FE6
:1054EE0014229011A1E0FEA3E07802CEC313CE13D6
:1054FE00D8F99011AE1276B670047F808002E4FF68
:10550E0012A59590137BE0701D902700E0648070CB
:10551E0015902708E0700FA3E0700B902702E0B4FF
:10552E007004A3E060099011B07413F002565BE4AE
:10553E00FF12B42EE49011B5F012C2A39011AEE09A
:10554E00FEA3E0FF12BC7C9011A6E07002A3E070F7
:10555E00099011B012763802565B90270DE020E0CC
:10556E00F91276C99011A8F0A3F09011AEE0FFA346
:10557E00E09011ACCFF0A3EFF09011A6E0FCA3E009
:10558E00FDAE047802CEC313CE13D8F9FF9011AA44
:10559E00EEF0A3EFF0ED5403600A9011AAE475F05B
:1055AE00010255F29011AAE07002A3E0603C12C213
:1055BE00A39011AC1276A89011A3120ACC9011A848
:1055CE001276469011A812760D000000009011A8D8
:1055DE00E475F0041207CC9011AC1276769011AAF5
:1055EE0074FFF5F01207CC0255B290270DE020E0C3
:1055FE00F91276399011A1E0FFA3E09011B1127665
:10560E00E99011B0F09011B3F0A3F09011A6E0FE66
:10561E00A3E09011B3127685501E9011A31276D589
:10562E009011B112766360089011B07415F0800875
:10563E009011B312767680D39011B0E0600F901176
:10564E00B5E004F0E0C3940450030255471276907F
:10565E0012A5955399DF7F0112B42E9011B0E0FF81
:04566E0060010022B5
:1084E000900CFEEEF0A3EFF0A3120AEC900CFEE06D
:1084F000FEA3E0FFE4FCFD1276F0120A53900D0497
:10850000E024FFFF900D03E034FFFEE4FCFD1208C1
:10851000A71276F0120A47ED4C6004007F1222E4A5
:10852000900D08F0900CFEE0FFA3E0900D0D127688
:10853000E9900D07F0E4900D05F0A3F012767D5060
:1085400029900D0DE0FEA3E02DF582EE3CF583E4CD
:1085500093FF900D00120ACC900D05A3E0F5828CDC
:1085600083EF12070D12767380D2E4900D05F0A30D
:10857000F012767D501B900D001276D5900D0D12E5
:1085800076636008900D087416F08005127673808B
:10859000E0900D08E0600B900D07E004F0E064044B
:0885A0007093900D08E0FF222A
:10C92500AF04E0FDA3E0FB12C368EF22EDF0A3EB3B
:06C93500F0AC07E59822BA
:0BCBEF00EF6004439810225398EF22DF
:10C36800EFD394074008EF640A60037F1222ED6060
:10C3780009EBD39401400C7F1122EBD394024003C4
:06C388007F11227F00225C
:10866700900CFE12C93120E404007F1022900CFE0A
:1086770012C92560020022EC120B7E86A10086A794
:108687000186AD0286B30386B90486BF0586C50693
:1086970086CB0786D10A000086D57E0179FE802E1B
:1086A7007E0279FD80287E0479FB80227E0879F797
:1086B700801C7E1079EF80167E2079DF80107E4047
:1086C70079BF800A7E80797F80047EFFE4F9900C71
:1086D700FEE06019E952B19022EAE059F0900CFFF0
:1086E700E06005EE42C18032E952C1802D900CFF57
:1086F700E0FF700E9022EAE04EF09022E7E04EF0A5
:108707008012EF9022EAB40108E04EF09022E78051
:0D87170000E059F0EE42B1EE42B97F0022C1
:10872400900CFE12C93120E404007F1022900CFE4C
:1087340012C92560020022EC120B7E875E0087645A
:1087440001876A02877003877604877C058782061F
:10875400878807878E0A000087927E0179FE802E23
:108764007E0279FD80287E0479FB80227E0879F7D9
:10877400801C7E1079EF80167E2079DF80107E4089
:1087840079BF800A7E80797F80047EFFE4F9900CB3
:10879400FEE06019E952B29022EBE059F0900CFF30
:1087A400E06005EE42C28032E952C2802D900CFF97
:1087B400E0FF700E9022EBE04EF09022E8E04EF0E5
:1087C4008012EF9022EBB40108E04EF09022E88092
:0D87D40000E059F0EE42B2EE42BA7F002202
:1085A800900CFE12C93120E404007F1022AF049021
:1085B8000CFE12C92760020022EC120B7E85E40033
:1085C80085EA0185F00285F60385FC0486020586A6
:1085D8000806860E0786140A000086187E0179FEB2
:1085E800802E7E0279FD80287E0479FB80227E0819
:1085F80079F7801C7E1079EF80167E2079DF801055
:108608007E4079BF800A7E80797F80047EFFE4F90E
:10861800900CFEE06019E952B49022ECE059F09019
:108628000CFFE06005EE42C48032E952C4802D9010
:108638000CFFE0FF700E9022ECE04EF09022E9E093
:108648004EF08012EF9022ECB40108E04EF0902238
:0F865800E98000E059F0EE42B4EE42BC7F002210
:0C181A0041134B0041134C0041134D00E2
:08CCF100EDF0A3EBF0E5922247
:04C7B100E0FD7F0127
:10C7B500ED600543F904800353F9FBEF600443E999
:06C7C500042253E9FB22EF
:0BCBFA00EF6004439202225392FD22E0
:108CDF0090131412CCF120E104007F102290131690
:108CEF00E0D394034004007F2022E4FDEF120B7EBB
:108CFF008D1E008D24018D2A028D30038D36048D3B
:108D0F003C058D42068D48078D4E0A00008D547923
:108D1F00017EFE803279027EFD802C79047EFB80FD
:108D2F002679087EF7802079107EEF801A79207ED1
:108D3F00DF801479407EBF800E79807E7F80087936
:108D4F00FFE4FE80027D30ED600300FF22901314DC
:108D5F00E06027901316E0FF30E105E942EA800357
:108D6F00EE52EAEF30E005E942EB8003EE52EBE919
:108D7F0042EC90131512C7B18003EE52EC7F002224
:0BCC0500EF6004439204225392FB22D4
:108D8F0090131812CCF120E204007F112290131AD5
:108D9F00E0D394034004007F2122E4FDEF120B7E09
:108DAF008DCE008DD4018DDA028DE0038DE6048D1A
:108DBF00EC058DF2068DF8078DFE0A00008E047902
:108DCF00017EFE803279027EFD802C79047EFB804D
:108DDF002679087EF7802079107EEF801A79207E21
:108DEF00DF801479407EBF800E79807E7F80087986
:108DFF00FFE4FE80027D31ED600300FF2290131827
:108E0F00E0602790131AE0FF30E105E942F280039A
:108E1F00EE52F2EF30E005E942F38003EE52F3E950
:108E2F0042F490131912C7B18003EE52F47F00225F
:0BCC1000EF6004439208225392F722C9
:1090E50090131C12CCF120E304007F132290131E71
:1090F500E0D394034004007F2322E4FDEF120B7EAE
:10910500911E00912401912A049130059136069112
:109115003C0791420A0000914879017EFE8026793C
:10912500027EFD802079107EEF801A79207EDF8017
:109135001479407EBF800E79807E7F800879FFE4B8
:10914500FE80027D33ED600300FF2290131CE0607A
:109155002790131EE0FF30E105E942FA8003EE5245
:10916500FAEF30E005E942FB8003EE52FBE942FCF1
:0E91750090131D12C7B18003EE52FC7F002242
:0DCB8D00F0A3F0EF24FF92AF902190E02282
:06CD3D00902191EFF022AD
:10CA5A00EF9021916005E04402F022E054FDF022BB
:10CA6A00EF9021916005E04404F022E054FBF022AB
:10CA7A00EF9021916005E04408F022E054F7F0229B
:10CA8A00EF9021916005E04410F022E054EFF0228B
:09CCD600902158EFF0EEA3F022CA
:09CCDF0090215AEFF0EEA3F022BF
:0FCB2A00AC02AD017B087A007F507E2102A3E8A8
:10C7CB00A2AFE433FFC2AF902004E4F0902001123B
:0AC7DB00CB8D4440F0E054BFF02283
:10C7E500A2AFE433FFC2AF902084E4F09020811221
:0AC7F500CB8D4420F0E054DFF02269
:0BCC1B007F1612CD3D12C7CB02C7E50B
:0C1826004112870041128200411286002E
:1093F700E5E8F0A3E5E9F0AFA875E902E4F5E8755B
:10940700A8809027927483F090279EE0C2AF9027A0
:1094170093E0E4F583D2AF2290279F7444F090271E
:1094270092E0547FF0E4901282F022120ACC8E82EE
:109437007583001206AC902790F0E4F583D2AF2233
:109447009027927480F022E0547F25E0902791F0D6
:1094570022FEE4901287F0902792E022901249E0D2
:1094670004F0E0C3942022EFF0A3EDF0A3120AEC7E
:10947700E422E004F0901282E02212AFE2902792F9
:0A948700E022E0F5E88FA8AF05220F
:0BCC2600EF60044399802253997F22A5
:10A93500E59920E704007F1022901322E0FEC394DE
:10A94500125004007F1122EF6041A2AFE433FFC231
:10A95500AF902794EEF090279674FFF0902795E43A
:10A96500F0902793E090279EE0EB90279230E0054A
:10A9750074A3F080037483F053F9FDED600343F98C
:10A985000243E902EF24FF92AF800653E9FD1294DA
:04A99500477F0022D6
:10AFE200E4901280F0A3F0901280E475F001120751
:0EAFF200CC901280E07004A3E0640A70EA22A2
:108A140090123812946E901240F0E59920E7040009
:108A24007F102290123DE0FE70028006EED3940F78
:108A34004004007F1122E4FFFE12C12A90123E126C
:108A440093F790123812944EC2AF901239E01294F8
:108A54003DFE90123DE0FDEEC39D500BC2AF90125F
:108A64003A1294320E80EB12941F90123DE02402CD
:108A74001294584470F0E4FD90124012947960040A
:108A84007D128012901287E06E600B901240E0C35A
:108A9400944040E47D80ED700612948154EFF0E43C
:108AA400901240F030960320970A90124012946678
:108AB40040F27D8012944790123FE0F5E990123E17
:048AC400129489225D
:106C710090124112946E901249F0E59920E70400B8
:106C81007F1022901246E0FE70028006EED394102F
:106C91004004007F1122E4FFFE12C12A9012471224
:106CA10093F790124112944EC2AF901242E01294A7
:106CB1003D901246E0902797F012941F7E021294A5
:106CC1005A447CF0E4FD90124912947960047D12DB
:106CD1008012901287E06E600B901249E0C39450CD
:106CE10040E47D80ED6014E4901249F03096032079
:106CF100976B12946340F57D80806212948154F702
:106D0100F0902791E04401F0E4901249F090128252
:106D1100E0700E901249E004F0E0C394E040EE7D93
:106D210080E4FE901246E0FCEEC39C501EC2AF9080
:106D31002790E0FC901243120ACC8E82758300ECFE
:106D410012070DE4F583D2AF0E80D8E4901249F01A
:106D510030960320970712946340F57D8012944783
:0D6D6100901248E0F5E99012471294892243
:108C2E00901288EF12947290128FF0E59920E7045B
:108C3E00007F102290128CE0FE70028006EED3941C
:108C4E00104004007F1122E4FFFE12C12A90128D03
:108C5E001293F790128812944EE4FE90128CE0FD5F
:108C6E00EEC39D500BC2AF9012891294320E80EB60
:108C7E0012941F90128CE0041294584470F0E4FD8C
:108C8E0090128F12947960047D128012901287E0F8
:108C9E006E600B90128FE0C3944040E47D80ED70C7
:108CAE000612948154EFF0E490128FF03096032068
:108CBE00970F90128FE0FE04F0EEC3941040ED7DFE
:108CCE008012944790128EE0F5E990128D129489DD
:018CDE002273
:107AAB009011FBEFF0A3120AECE59920E704007F9D
:107ABB001022E4FFFE12C12A901202E5E8F0A3E5C2
:107ACB00E9F0A3E5A8F01294009011FBE0547F2598
:107ADB00E04401902791F09011FFE0FFD394104008
:107AEB000B9027977410F0EF24F080099011FFE0B2
:107AFB00902797F0E4901286F012941F901286E074
:107B0B00901205F0E4901287F09011FC120ACC90C1
:107B1B001283120AEC902792E04474F0E490120066
:107B2B00F0901282E060FAE4901201F0902797E057
:107B3B00FF901201E0FEC39F502DC2AF902790E043
:107B4B00FFEEFD901205E02DFDE433FC9011FC12CD
:107B5B000ACC8D828C83EF12070DE4F583D2AF90A4
:107B6B001201E004F080C53096FD3097FA1294476D
:107B7B00901203E0F5E9901202E0F5E8901204E0B0
:087B8B00F5A8901200E0FF22B2
:10B4760015660AB30AB2055906B4035A035C01AE4F
:10B4860001C200E10104008201D200E90112008933
:10B4960000B20059008A0045008A0045008A00452E
:10B4A600023001180118008C0096004B004600235C
:08B4B600003C001E003C001EDA
:101832004111D4004111D3034111D2004111D10011
:041842004111D00080
:10B0A40075F002120AC0E493FF7401939011C8CFA3
:10B0B400F0A3EFF0E4A3F0A3F0229022007438F0A0
:10B0C4009011D3E025E025E0229011C8E0FEA3E032
:10B0D400FFC39011CBE09F9011CAE09E229011CA49
:0EB0E400E475F0010207CC9022007434F022D3
:0ECB5600EF30E0047F018002E4FF127F1F2217
:07CD3000902200741CF022A8
:10918300900D28EEF0A3EFF0A3EDF0600B90278392
:10919300E4F09022D07488F0A2AFE433900D2BF06A
:1091A300C2AF90228DE0900D2CF07F1112CCF9907C
:1091B3002200742CF07F13E49011C6F0A3F0900DFD
:1091C30028E0FCA3E0FDC39011C7E09D9011C6E029
:1091D3009C502190228DE020E612A3E05407FE70FC
:1091E30003FF8010EEB404047F1280089011C612AE
:1091F300B0E480CA90228F74FFF0900D2CE090228F
:109203008DF0900D2BE024FF92AF900D2AE06009C2
:0E921300EF70069022D07484F0EF600100220C
:10CA28007F0A12CCF9E4FD7F0112C68C7F0102CA8D
:01CA38009A63
:109D2400900D1CEFF0BF04028009900D1CE0D39449
:109D3400054004007F182212B0EBE4FF12B42E9009
:109D44000D1CE0FF12ACDC900D1CE01460161460D6
:109D54001B14602024FE60242405702690221174B4
:109D640009F0801E9022117405F08016902211745F
:109D740003F0800E9022117402F080069022117478
:109D840010F0902200743CF07F0112B42E900D1C50
:089D9400E09011D3F07F0022E2
:10B18C0090137CEFF012ACDC90137CE0FF14601693
:10B19C0014601B14602024FE602424057026902269
:10B1AC00117409F0801E9022117405F08016902203
:10B1BC00117403F0800E9022117402F0800690221C
:0CB1CC00117410F09011D3EFF07F0022FE
:10BB980090137DEFF07F03129D2490137DE0902297
:10BBA800246013E04440F0902785E04408F0902298
:10BBB80037E04480F022E0543FF0902785E054F7C6
:09BBC800F0902237E0547FF022D6
:1087E100900D1CEFF0C3940B4006E0D3941A4004A3
:1087F100007F172212B0EBE4FF12B42E900D1CE0A3
:10880100120B7E88380B883C0C88400D88440E88FA
:10881100480F884C10885011885412885813885C6E
:1088210014886015886416886817886C1888701910
:1088310088741A000088807F65803A7F6A80367F5D
:108841006F80327F74802E7F79802A7F7E80267FA1
:108851008380227F88801E7F8D801A7F9280167F81
:108861009780127F9C800E7FA1800A7FA680067F61
:10887100AB80027FB07E0912895B900D1DEFF090F5
:108881000D1DE06004000287FD902200743CF07F22
:0D8891000112B42E900D1DE0FF60010022C9
:0FCB3900E4FE902284E0FF70050EEEB4FAF422C1
:08CCF900EF541F90228DF02280
:10C86700A2AFE433FEC2AFED24FF92F8EF24FF92AC
:09C87700E8AF06EF24FF92AF22A6
:10B42E00EF603D90228EE054F7F0E04408F0759105
:10B43E0010A2AFE433FFC2AF902084E4F0902081DD
:10B44E00F0A3F0EF24FF92AFE49011D2F090219090
:10B45E00E04420F0E054DFF0902201E054FEF022B0
:08B46E00902201E04401F022EC
:06CD4300EF24FF92AF2275
:03003E000277E75F
:10827C00902002E4F0902303E0902192F090228071
:10828C00E05470FF6007641060037F15229011D1D9
:10829C007401F09011D4E0547DF0900DD574E1F0A0
:1082AC0012003E12B0BE2476F582E434B4F583C0DD
:1082BC0083C08290137AE0D082D08312B0A412B023
:1082CC00CD50139011D4E030E107E4900DD5F0803F
:1082DC000512B0E180E8900DD5E0B4E10F12B0EBDF
:1082EC00902002E4F09011D1F07FE122E49011D1C2
:1082FC00F0900DD5F0902301E030E539900DD57458
:10830C00E9F012B0C4248EF582E434B4F583C08352
:10831C00C08290137AE0D082D08312B0A412B0CD78
:10832C0050139011D4E030E707E4900DD5F08005A0
:10833C0012B0E180E8902002E4F0900DD5E0FF222D
:109491009011D1E060030295289023807405F0A318
:1094A1007402F0EF6004E04410F0902382E4F0A332
:1094B100EDF090222CE0900E11F090222CE044204F
:1094C100F09020027480F0902280E0547060046477
:1094D10010704712B0BE24A6F582E434B4F583C0FF
:1094E10083C08290137AE0D082D08375F002120A91
:1094F100C0E493FF7401939011CC12B0B39011CCDE
:10950100E0FEA3E0FFC39011CFE09F9011CEE09E5B
:10951100500512B0E480E612B0EB902002E4F09026
:089521000E11E090222CF02253
:10C68C00EDD394024004007F1122EF6009ED4410B9
:0FC69C0090222CF0800690222C7430F07F002228
:06CD490090222DEFF02204
:10CA9A00EF90227E6005E04408F022E054F7F0228D
:109A2B00901368EFF0D394034004007F112290133E
:109A3B0068E0FE700A9011D0E07004007F1622E4FB
:109A4B00901369F0EEB4010D12CD307F01129AA97B
:109A5B007401F08043901368E0B4020D12CD307F97
:109A6B0002129AA97402F0802F901368E0B40310CD
:109A7B0012CD307F0312A52B9011D07403F08018F8
:109A8B00E4FF12A52BE4FD7F107E27129183901328
:109A9B0069EFF0E49011D0F0901369E0FF2212A56A
:059AAB002B9011D022F8
:10CAAA00EFD394164004007F11221261D77F00222F
:10CABA00EF6009AF0512C9B6439EC022539E3F22BA
:0ECB6400EF600712CD21439CC022539C3F225C
:10BBD100902281E0541FD39402402D9022BDE02099
:10BBE100E0267F019022B0E04401F0E4FDFC9022C8
:10BBF100BDE030E004E4FF800B0DBD00010CBC038F
:09BC0100EDBDE8EAEF70DD22223E
:0818460041136B0041136A001D
:107156009022EDE06580FF9022F0E05FFF9022EE46
:10716600E06590FE9022F1E05EFE9022EFE065B0D1
:10717600FC9022F2E05CFC9022F0E022E5E8F0AD23
:107186009AA9E9759A07E4F5E8F5E99022E1746EA3
:10719600F09022E6E054FBF0E054E7F022E0902283
:1071A600E5F09022E27490F0D2D875E88075A88058
:1071B60022E0FEEFF4FCEE5CF022EEF0A3EFF0A38B
:1071C600EDF0A3EBF09022F0E055B9FFE06F22E07E
:1071D600FAA3E0FBEA9022E3F0A3EBF022E5A8F0A5
:1071E600E4F5A89022EBE0229022F1E055BAFFE008
:1071F6006F229022F2E055BCFFE06F22EF4404FFBD
:107206009022EBE054E7F022AF058F9AD2D8538F45
:10721600BF22E0FEEFF4FFEE5FF022FFE0540333FF
:10722600333354F8FEEF4E22EF9022E0F0E4F59A65
:1072360022E0F5E8AF018FE92254012FFFE0FDA817
:0372460006082215
:10B50600ED24FF92FCEF6033EB4A700A9012F4E0F0
:10B516007004007F11229022E1746EF01271DA90AD
:10B5260012F4E09022E5F0A3E054E7F0E04480F066
:10B53600D2EC9022E0E04420F08009C2EC9022E0B8
:07B54600E054DFF07F00225A
:10C04500900D1CEFF020E0069022E07498F0902708
:10C0550083E4F012CD30902780E4F0A3F0900D1C1E
:0EC06500E030E007902203E0547FF07F0022DD
:10C2F3009022E074D8F090278074F6F0A37423F0B2
:10C3030012C30DEF600312C30D2212CD30E4FD7F83
:07C31300107E271291832226
:109E8A0090134EEFF0A3EDF0A3EBF0E4FFFE901376
:109E9A004EE0FDA806088002C313D8FC90134F12A7
:109EAA00723F8002C313D8FC90135012723F800293
:109EBA00C313D8FC54012FFF0EEEB407D1EFC3949D
:109ECA00024004007F1122E4FFFE12C12AAFA8AEAD
:109EDA00E8ADE990134EE0547FF5A8A3E0F5E8A3B6
:109EEA00E0F5E943A8807587010000E4F5A88DE94B
:069EFA008EE88FA8FF2294
:1060BD00900D1C1271C06002800C1271EE60028096
:1060CD00051271F86004007F1522900D1FE0D39426
:1060DD00034004007F112212CD30E4900D26F0FF15
:1060ED00FE12C12A900D211271E3900D27F090221E
:1060FD00E1E0900D25F09022E0E0900D24F090224B
:10610D00E6E0900D23F0900D22127182900D20E0AB
:10611D00FC9022E630E706E0547FF08004E04480F6
:10612D00F09022E6C083C082E0900D1F127221D044
:10613D0082D083F0900D1C1271D5900D1E1271A39B
:10614D007FB9EC30E004EF54DFFF900D20E030E13B
:10615D000312720212722EE5D220E5FB1271566FF8
:10616D00701DAF06A3E06F7016AF04A3E0B5040F6A
:10617D0075870200000000000000000000800690FE
:10618D000D267412F012720E900D22127237900DB0
:10619D0024E09022E0F0900D23E09022E6F0900DA7
:1061AD0025E09022E1F0900D27E09022EBF0900D8C
:1061BD0021E0F5A8900D26E0600100E4FD7F107E42
:0A61CD0027129183900D26E0FF22B7
:106857009011E41271C06002800C1271EE60028028
:10686700051271F86004007F15229011E7E0D394B8
:10687700034004007F1122E49011EEF07F107E2781
:1068870012C12A9011E91271E39011EFF09022E101
:10689700E09011EDF09022E0E09011ECF09022E60C
:1068A700E09011EBF09011EA1271829011E8E0FC90
:1068B7009022E630E706E0547FF08004E04480F061
:1068C7009022E6C083C082E09011E7127221D08245
:1068D700D083F09011E41271D59011E61271A37F65
:1068E700BAEC30E004EF54DFFF9011E8E030E10349
:1068F70012720212722EE5D220E5FB1271566F70EA
:106907001DAF06A3E06F7016AF04A3E0B5040F75C3
:1069170087020000000000000000000080069011C0
:10692700EE7412F012720E9011EA1272379011EC97
:10693700E09022E0F09011EBE09022E6F09011ED6C
:10694700E09022E1F09011EFE09022EBF09011E956
:0C695700E0F5A89011EEE0FF60010022C6
:1079C000901290EF1271CA6002800C1271EE600288
:1079D00080051271F86004007F1522E4901296F081
:1079E0007F107E2712C12A9012911271E390129794
:1079F000F09022E1E0901295F09022E0E090129455
:107A0000F09022E6E0901293F0901292E5E8F0AF49
:107A10009A1271871271A87E9B901290E030E10754
:107A2000EE4404FE127206EE12722FE5D220E5FB40
:107A30009022EDE06580FE9022F0E05EFE9022EE66
:107A4000E06590FD9022F1E05DFD1271706E701D99
:107A5000AE05A3E06E7016AE04A3E0B5040F758703
:107A60000200000000000000000000800690129656
:107A70007412F0127210901292127237901294E0F7
:107A80009022E0F0901293E09022E6F0901295E0C0
:107A90009022E1F0901297E09022EBF0901291E0AA
:0B7AA000F5A8901296E0FF60010022A4
:10B54D00EFD394074004007F16227401A8070880EA
:10B55D0002C333D8FCFF9022EAE04FF0EB9022EDCE
:10B56D00600BE04FF09022E71271B780091271B7AE
:10B57D009022E7E04FF0ED9022F06005E04FF08073
:07B58D00031272187F002277
:10B59400EFD394074004007F16227401A8070880A3
:10B5A40002C333D8FCFF9022EBE04FF0EB9022EE85
:10B5B400600BE04FF09022E81271B780091271B766
:10B5C4009022E8E04FF0ED9022F16005E04FF0802A
:07B5D400031272187F002230
:10B5DB00EFD394074004007F16227401A80708805C
:10B5EB0002C333D8FCFF9022ECE04FF0EB9022EF3C
:10B5FB00600BE04FF09022E91271B780091271B71E
:10B60B009022E9E04FF0ED9022F26005E04FF080E0
:07B61B00031272187F0022E8
:1099A300EFF07F807E387D017C00A3120A53D3023F
:1099B30009ECE0FCE4120336E4FBFA79C8784202CE
:1099C300028F120A537F007E127D7A7C0002093FC8
:1099D300E47F7BFEFDFC120A53C30209EC120186ED
:1099E30012036AAB07AA06EB4A22ECF0A3EDF0A937
:1099F30007E59A22E0FCA3E0FDE4020331C3EB9404
:109A030020EA940322AD03EDF0EAFF22FFE0FCA37A
:109A1300E0FD22AD03EDF0EAFF22E47F7BFEFDFCD7
:089A230022FFE0FCA3E0FD229C
:05C760007481F07F016F
:10C76500ED600543F908800353F9F7EF600443E9E9
:06C77500082253E9F7223F
:0BCC3100EF6004439A0822539AF72298
:10A666009012AF1299ED20E304007F1222C39012DC
:10A67600B0E09B9012AFE09A5004007F1122902523
:10A68600867420F0E960399012AFE0FEA3E09025D1
:10A6960083F0EEF9902582F0902585129A08902590
:10A6A60084F09025867409F0902583EDF09025823C
:10A6B600EFF09012AFA3E0902585F0902584E9F0A5
:07A6C600E49012B3F0FF2243
:10B87400E59A20E304007F1222129A005004007F0C
:10B8840011229025867420F0EF601E902583EBF042
:10B89400EA902582F0A3E0902585F0902582E0903F
:10B8A4002584F090258612C760E49012F9F0FF22F7
:10A30C0090124A1299A3501A90124B1299D35002E0
:10A31C00801090124FE0FFD394635006EFC394016A
:10A32C005004007F112290124B1299C5901251EEDD
:10A33C00F0A3EFF090124F1299B5C004C005C006FF
:10A34C00C0079012511299F7D003D002D001D0005F
:10A35C001299E07003FA7B0190124AE090125112AC
:0EA36C009A0F901250E09012B3F012A66622E3
:0BCC3C00EF6004439A1022539AEF228D
:10A6CD009012B51299ED20E404007F1322C390126D
:10A6DD00B6E09B9012B5E09A5004007F11229025B0
:10A6ED008E7420F0E960399012B5E0FEA3E090255C
:10A6FD008BF0EEF990258AF090258D129A08902511
:10A70D008CF090258E7409F090258BEDF090258AB4
:10A71D00EFF09012B5A3E090258DF090258CE9F027
:07A72D00E49012B9F0FF22D5
:10B8B400E59A20E404007F1322129A005004007FCA
:10B8C400112290258E7420F0EF601E90258BEBF0F2
:10B8D400EA90258AF0A3E090258DF090258AE090E7
:10B8E400258CF090258E12C760E49012FEF0FF22A2
:10A37A009012531299A3501A9012541299D3500260
:10A38A008010901258E0FFD394635006EFC39401F3
:10A39A005004007F11229012541299C590125AEE5D
:10A3AA00F0A3EFF09012581299B5C004C005C00688
:10A3BA00C00790125A1299F7D003D002D001D000E8
:10A3CA001299E07003FA7B01901253E090125A122C
:0EA3DA009A0F901259E09012B9F012A6CD22FF
:0BCC4700EF6004439A2022539ADF2282
:10A734009012BB1299ED20E504007F1422C39012FD
:10A74400BCE09B9012BBE09A5004007F112290253C
:10A75400967420F0E960399012BBE0FEA3E09025E6
:10A7640093F0EEF9902592F0902595129A16902583
:10A7740094F09025967409F0902593EDF09025922D
:10A78400EFF09012BBA3E0902595F0902594E9F0AA
:07A79400E49012BFF0FF2268
:10B8F400E59A20E504007F1422129A005004007F88
:10B9040011229025967420F0EF601E902593EBF0A1
:10B91400EA902592F0A3E0902595F0902592E0908E
:10B924002594F090259612C760E4901303F0FF224B
:10A14A0090125C1299A3501D129A1D90125D1299D9
:10A15A00D950028010901261E0FFD394635006EF49
:10A16A00C394015004007F112290125D1299C59088
:10A17A001263EEF0A3EFF09012611299B5C004C019
:10A18A0005C006C0079012631299F7D003D002D017
:10A19A0001D0001299E07003FA7B0190125CE09002
:10A1AA001263129A24901262E09012BFF012A7343E
:01A1BA002282
:0BCC5200EF6004439A4022539ABF2277
:10A79B009012C11299ED20E604007F1522C390128E
:10A7AB00C2E09B9012C1E09A5004007F11229025C9
:10A7BB009E7420F0E960399012C1E0FEA3E0902571
:10A7CB009BF0EEF990259AF090259D129A16902504
:10A7DB009CF090259E7409F090259BEDF090259AA6
:10A7EB00EFF09012C1A3E090259DF090259CE9F02D
:07A7FB00E49012C5F0FF22FB
:10B93400E59A20E604007F1522129A005004007F45
:10B94400112290259E7420F0EF601E90259BEBF051
:10B95400EA90259AF0A3E090259DF090259AE09036
:10B96400259CF090259E12C760E4901308F0FF22F6
:10A1BB009012651299A3501D129A1D901266129956
:10A1CB00D95002801090126AE0FFD394635006EFCF
:10A1DB00C394015004007F11229012661299C5900E
:10A1EB00126CEEF0A3EFF090126A1299B5C004C096
:10A1FB0005C006C00790126C1299F7D003D002D09D
:10A20B0001D0001299E07003FA7B01901265E09087
:10A21B00126C129A2490126BE09012C5F012A79B4D
:01A22B002210
:0BCC5D00EF6004439A8022539A7F226C
:10A4C1009012C71299ED20E704007F1622C3901263
:10A4D100C8E09B9012C7E09A5004007F112290259A
:10A4E100A67420F0E9603C9012C7E0FEA3E090253D
:10A4F100A3F0EEF99025A2F0AD039025A5EDF0EAC9
:10A50100FF9025A4F09025A67409F09025A3EDF005
:10A511009025A2EFF09012C7A3E09025A5F0902519
:0AA52100A4E9F0E49012CBF0FF2251
:10B97400E59A20E704007F1622129A005004007F03
:10B9840011229025A67420F0EF601E9025A3EBF001
:10B99400EA9025A2F0A3E09025A5F09025A2E090DE
:10B9A40025A4F09025A612C760E490130DF0FF22A1
:10A0620090126E1299A3501D129A1D90126F12999E
:10A07200D950028010901273E0FFD394635006EF20
:10A08200C394015004007F112290126F1299C5905F
:10A092001275EEF0A3EFF09012731299B5C004C0DE
:10A0A20005C006C0079012751299F7D003D002D0EE
:10A0B20001D0001299E07003FA7B0190126EE0FF6A
:10A0C200901275E0FCA3E0FD901274E09012CBF0C8
:04A0D20012A4C122F1
:04184E004113120030
:1078D400E0FFE4FCFDFE1209D1901323120A5F902D
:1078E4001323120A477808120A10901323120A5F0E
:1078F40090132322E0FFE4FCFDFE1209D19013272C
:10790400120A5F901327120A477808120A1090137C
:1079140027120A5F90132722EFF0900DDC120A471A
:1079240078081209FD900DDC120A5F900DDC020A42
:1079340047EFF0900D52120A4778081209FD900D96
:1079440052120A5F900D52020A47902780E054FEBB
:10795400F022AC02AD017B107A007E21227F04125A
:10796400BFE790219F7401F022E4F0902780E02289
:10797400E0FFE4FCFDFE22AC02AD01E0FB7A002254
:10798400120AECAE02AF01C3EE942322AC02AD01A5
:107994007B087A007E2122AE02AF017B087A007C4C
:1079A4002122120A5FE4FB902780E022900DD80286
:0C79B4000ACCE04404F090219FE4F02293
:10C40000900CFE12796D20E00AE04401F0900CFEE1
:10C410007401F07F0012795612A3E8900CFEE060E0
:05C420000312794E2219
:10C4250090137E12796D20E00AE04401F090137EAE
:10C435007401F07F3012795612A3E890137EE06004
:05C445000312794E22F4
:10C77B00E4FE902780E020E006E04401F07E01908B
:0BC78B002140EFF0EE600312794E2217
:10BF8900900DDC1279A620E005E04401F00B12794E
:10BF99002F90214112791C90214212791C90214342
:0FBFA90012791C902144EFF0EB600312794E22C5
:10C25300E4900CFEF0902780E020E00AE04401F037
:10C26300900CFE7401F07F4512799012A3E8900CB4
:08C27300FEE0600312794E2287
:10C79600E4FE902780E020E006E04401F07E019070
:0BC7A6002110EFF0EE600312794E222C
:10BFB800900D521279A620E005E04401F00B1279A9
:10BFC8004890211112793590211212793590211358
:0FBFD800127935902114EFF0EB600312794E22AD
:10C27B00E4900CFEF0902780E020E00AE04401F00F
:10C28B00900CFE7401F07F1512799012A3E8900CBC
:08C29B00FEE0600312794E225F
:06CD4F00902140E0FF22EC
:10C073009021441279741278DD120A5390214312ED
:10C0830078D4120A539021421278D4120A53902181
:0EC09300411279741209D11278EE120A472276
:08CD01007D4512799B02A3E8B5
:06CD5500902110E0FF2216
:10C0A100902114127974127901120A5390211312FA
:10C0B10078F8120A539021121278F8120A5390213B
:0EC0C100111279741209D1127912120A472253
:08CD09007D1512799B02A3E8DD
:08CD1100EF547F902194F02201
:08CD1900EF547F902195F022F8
:10CACA00EF9021936005E04440F022E054BFF02249
:10CADA00EF9021936005E04420F022E054DFF02239
:10BFE700EF7002800CEFD3941040028004EF30E032
:10BFF70004007F1A22EFC31314FF902193E054E348
:0FC00700F0E0FEEF25E025E0FFEE4FF07F002296
:09C38E00902780E04401F07F03D8
:10C39700EFD394034004007F1122902193E054FCD3
:0DC3A700F0E0FEEF5403FFEE4FF07F0022A8
:106B7300900DD2EDF0900DCF127984400DD3EF94A8
:106B8300FFEE94245004007F18221279B0E4120619
:106B9300FB900DD2E0FED394794004007F1622EEE1
:106BA300B40104007F172212C38E900DD3120A473B
:106BB30012BF89900DD7E0FF12C77BE4FF12CD11FE
:106BC300127961900DD2E02402902300F0900DCF52
:106BD300120ACC900DD212797B7F017E2312A3E897
:106BE300902007E4F0900DD2E02402902008F0906A
:106BF3000DDB7412F0902180E054FBF0902003121F
:106C030079B690130EF0A3F0902180E030E207E410
:106C1300900DDBF0801690130EE475F0011207CC93
:106C230090130EE0B402E1A3E0B458DC900DDBE076
:106C33007030900DD2E02404FF1279B0EF1206FBFE
:106C4300127966900DCF120ACCAE02AF011279B061
:106C5300120693FB7A007D017C2312A3E890219F07
:0E6C6300E4F012794E900DDBE0FF600100229C
:1062F100900D48EDF0900D45127984400DD3EF9447
:10630100FFEE94245004007F1822900D4E120ACC07
:10631100E41206FB900D48E0FFD3947D5006EFC3D5
:1063210094045004007F162212C38E900D49120A64
:106331004712BFB8900D4DE0FF12C796E4FF12CD92
:1063410019127961900D48E02402902400F0900D1B
:1063510045120ACC900D4812797B7F017E2412A34D
:10636100E8902087E4F0900D48E02402902088F026
:10637100900D517413F0902180E054FDF090208332
:106381001279B6901310F0A3F0902180E030E1076C
:10639100E4900D51F08016901310E475F00112078E
:1063A100CC901310E0B402E1A3E0B458DC900D519D
:1063B100E0704990219F04F0900D45120ACCAE0285
:1063C100AF01900D48E0FB7A007D017C2412A3E827
:1063D100900D48E0FFE42FF582E43424F583E0706A
:1063E10010EF24FCFF900D4E120ACCEF1206FB8039
:1063F10006900D517414F090219FE4F012794E90A3
:086401000D51E0FF60010022D3
:101852004110800042107E00004210C20000411080
:021862007D55B2
:10C54300120ACC8F827583001206AC902542F0E468
:10C55300F583D2AF22902540E054BFF0E04440F091
:02C56300E422D0
:0BCC6800EF60044398802253987F2265
:0ECB7200439810D2B7E4FB7D017F070285A82F
:07CB9A00E4901080F07F0120
:06CBA100EF24FF92B72211
:10751F009012CEEBF0AA07E59820E704007F102227
:10752F009012CFE0FED394094004007F1122EE2485
:10753F00FE601314601824FA601C24087020901247
:10754F00D07405F080209012D07403F08018901240
:10755F00D07404F080109012D0740BF08008901249
:10756F00CFE02402A3F0902540E4F0902543F09063
:10757F002540C083C082E0FF9012D0E0FE5403FC90
:10758F00EF4CD082D083F0902543E0FFEE540C13E4
:10759F0013543FFEEF4EF0EA605AA2AFE43390125D
:1075AF00D1F0C2AFED24FF92FD9012CEE030E40394
:1075BF0012CB72902540C083C082E0FF9012CEE0C4
:1075CF00FE541CFDEF4DD082D083F0902540E04457
:1075DF00C0F0D2EDEE20E412E4FF90107DE0902594
:1075EF0042F0E4F5830FEFB410F09012D1E024FFD6
:0E75FF0092AF8007902540E4F0C2ED7F00229D
:10C6AB00AE07E4FF12CBA1C2AF902542EE12C551EB
:0FC6BB00901080E060FA12CB9A9010C1E0FF223D
:10BB2300901351120AECEDD394104004007F1122BC
:10BB3300E4901080F0FF12CBA1EFC39D500BC2AF76
:10BB430090135112C5430F80F0901080E0B50503A8
:0BBB5300D38001C350F312CB9A1F22D5
:10C8990012C558FEC2AF902542EF12C5510EEEB433
:08C8A90010F290107DEFF02267
:10BEC800901354120AECEDD394104004007F112211
:10BED80012C558FFC2AF90135412C5430FEFB410E8
:10BEE800F3901354120ACC12069390107DF07F0041
:01BEF8002227
:10B731009010C2A3E0FFC390107FE09FFFEF543F42
:10B74100602C9010C2E0FEA3E02481F58274103ECB
:10B75100F583E01206FB9010C3E02401FF9010C2B4
:10B761007E00EF543FFFEEF0A3EFF07F01227F0058
:01B7710022B5
:1096E1007FF07EFF7D077C00120A53D30209ECADA7
:1096F10007AC06ECF07C00E4120331783FE4FBFA9E
:10970100F912009502036AEFF0A3EDF0A3EBF0E587
:109711009822C3E49BFFE49AFE740199FDE498FC4E
:10972100020A5FE024FF92AF7F0022E4901213FE51
:10973100FDFC020A53AF03E4FCFDFE120A530208CA
:10974100B4E47B03FAF9F8020A47E0FEA3E0FFC3A1
:10975100E49FFFE49EFE22900D02020A5FFB120AC3
:109761004778080209FD90127B120A5F90127B2252
:0BCC7300EF6004439801225398FE225A
:10965100900CFE12970820E004007F1322900D0168
:10966100E0FBD394624004007F1722A2AFE4339061
:109671000D06F0C2AF900D02120A6B000007D090E8
:109681000D02129736129758900D02129742120945
:109691003FE4FDFC129758900D02120A53900D02FF
:1096A100129713900D02120A4790132DEFF0900DAF
:1096B1000212975E90132BEFF08B8AF58C5389F091
:1096C100438901900CFFE024FF92B9A3E024FF92AB
:1096D1008C900CFEE024FF92A9900D061297242293
:10B2BC00A907E59820E004007F1322A2AFE43390A5
:10B2CC0012D7F0C2AF9012D512974B90132DEFF00E
:10B2DC00EEFF90132BF090132DE0F58A8F8C538991
:10B2EC00F0438901ED24FF92B9EB24FF928CE92401
:0AB2FC00FF92A99012D712972422A6
:0BCC7E00EF6004439802225398FD224F
:1099190090127712970820E104007F142290127A9E
:10992900E0FBD394624004007F1822A2AFE4339095
:10993900127FF0C2AF90127B120A6B000007D09021
:10994900127B12973612976712974212093FE4FD6C
:10995900FC129767120A5390127B12971390127B8D
:10996900120A4790132EEFF090127B12975E901314
:109979002CEFF08B8BF58D53890F4389109012785A
:10998900E024FF92BBA3E024FF928E901277E0249B
:0A999900FF92AB90127F1297242278
:10B30600A907E59820E104007F1422A2AFE4339058
:10B3160012DDF0C2AF9012DB12974B90132EEFF0B6
:10B32600EEFF90132CF090132EE0F58B8F8D538942
:10B336000F438910ED24FF92BBEB24FF928EE92484
:0AB34600FF92AB9012DD1297242253
:0BCC8900EF6004439804225398FB2244
:1076FA0090121012970820E204007F15227F0512CB
:10770A00972CC31209EC500C9012131296E1400404
:10771A00007F19227FF87EFF7D037C0090121312EE
:10772A0096E9400E9012187440F09012177406F001
:10773A0080447FFC7EFF7D017C009012131296E943
:10774A00400E9012187420F09012177405F08026DB
:10775A00E47FFE7EFFFDFC9012131296E990121848
:10776A00400B7410F09012177404F080097408F03A
:10777A009012177403F07F0812972C1208B4C007EE
:10778A00901218E0FBE4FAF9F8D00712093FE41264
:10779A00032C78BF1296FE9012191296F0A2AFE44B
:1077AA0033FEC2AF53A9F0901210E060279012196D
:1077BA00E0F5AA8FAC901211E024FF92F9A3E060E1
:1077CA000C901217E025E0440142A9800353A9FE58
:0D77DA00D2E98002C2E9AF06EE1297252227
:0BCC9400EF6004439808225398F72239
:106D6E0090121A12970820E304007F1622E47F0582
:106D7E0090121D129730C31209EC500C90121D1276
:106D8E0096E14004007F1A227FF87EFF7D037C008F
:106D9E0090121D1296E9400E9012227440F090123D
:106DAE00217407F080447FFC7EFF7D017C009012F1
:106DBE001D1296E9400E9012227420F0901221744A
:106DCE0006F08026E47FFE7EFFFDFC90121D1296DB
:106DDE00E9901222400B7410F09012217405F0808D
:106DEE00097408F09012217404F0E47F08FEFDFC93
:106DFE0090121D12973CC007901222E0FBE4FAF9A4
:106E0E00F8D00712093FE412032CE4FBFAF978BF1D
:106E1E001297029012231296F0A2AFE433FEC2AF85
:106E2E0053A90F90121AE06029901223E0F5AB8F50
:106E3E00AD90121BE024FF92FBA3E0600E90122196
:106E4E00E0C43354E0441042A9800353A9EFD2EBBF
:0B6E5E008002C2EBAF06EE1297252267
:105F9D000709433B0B0709433B0B0707433B0B0724
:105FAD00078B3B0B07078B040B07078B04040707B5
:105FBD008B0404040B048B061705078B0404040DD6
:105FCD008B0404040D000B0B040400008B06170555
:105FDD000000061705000000170500000000050071
:105FED000000000004070000000007000000000092
:105FFD001D0B000001000B0000010000000001005E
:10600D000000000100000000010000000000000081
:10601D000000000000000000000000000000000073
:10602D000000000000000000000000000000000063
:10603D000000000000000000000000000000000053
:10604D000000000000000000000000000000000043
:10605D00C393C7712FEE93C7712FEE77C7712FEED4
:10606D007703712FEE7703342FEE7703341AEE7723
:10607D0003341A0D658B021703077703341A0D02CB
:10608D0003341A0D02001A0D12090000021703073E
:10609D0000001703070000000307000000000700C1
:1060AD0000000000070200000000020000000000D8
:10186400420E1E0000420E140000420E22000042EE
:101874000E180000410E1C01420E200000420E16FC
:101884000000420E240000420E1A0000410E1D0109
:108AC800E4FAF9F8901333120A4712B668EF243023
:108AD800902510F0901333020A47E4FAF9F812B619
:108AE80068AC00AD01AE02AF03901333020A5FFF1A
:108AF800C3E09FFF7E00EF543FFFAD01ED24FF224E
:108B0800FF120ACCEF1206FB90137AE0FF900D16C5
:108B1800E075F006A422F583E5822FF582E435831B
:108B2800F583E49322E433F0C2E8A2ACE43322E410
:108B380033F0C2E8A2AEE43322A2AFE433FFC2AFFF
:108B480022C374409FFFE49EFED3EF9403EE94008B
:108B580022E4F0A3E0543FF022E01206FBE4F583A0
:108B6800EF24FF92AF7F0122120ACC8F8275830017
:038B78000206AC46
:105AAC00900D0C120AECE4900D15F0120BD15B1E4C
:105ABC000000012C5B25000002585B2D000004B097
:105ACC005B35000009605B3D000012C05B450000C7
:105ADC0025805B4D000038405B5500004B005B5D42
:105AEC00000096005B650000DAC05B6D0000E10011
:105AFC005B750001C2005B7D000384005B850007C1
:105B0C0008005B8D0008CA005B9500119400000032
:105B1C005B9DE4900D16F0807E900D167401F08064
:105B2C0076900D167402F0806E900D167403F08052
:105B3C0066900D167404F0805E900D167405F0805E
:105B4C0056900D167406F0804E900D167407F0806A
:105B5C0046900D167408F0803E900D167409F08076
:105B6C0036900D16740AF0802E900D16740BF08082
:105B7C0026900D16740CF0801E900D16740DF0808E
:105B8C0016900D16740EF0800E900D16740FF0809A
:105B9C0006900D157412F0900D15E07049128B10D3
:105BAC00249DF582E4345F128B1E900D0C128B0831
:105BBC0024FDF582E4345F128B1E900D0F128B08BE
:105BCC00245DF582E43460128B1EFF900D12120AD4
:105BDC00CCEF1206FB900D12120ACC120693700633
:0C5BEC00900D157412F0900D15E0FF22D2
:0BCC9F00EF6004439820225398DF222E
:10834C00901224EFF0A3EDF0E59820E504007F10E7
:10835C0022E4FF901224E06023901226120A477B3D
:10836C00017A12792B900D0F120AEC7A1209900DEA
:10837C0012120AEC7A1209125AAC800BE490122DEC
:10838C00F090122BF0A3F0EF60020022128B4190C0
:10839C002505E4F09025037480F090122CE09025D4
:1083AC0000F090122BE0902501F090122DE090251A
:1083BC0007F0902503E4F0902507F0901224E0607C
:1083CC00389025027481F090122AE0FE543F9025DB
:1083DC0003F0902501E4F0EE20E604E04401F09077
:1083EC00122AE020E707902501E04402F0D2AC907D
:1083FC001225E024FF92BC8009902501E4F0C2AC68
:0A840C00C2BCEF24FF92AF7F0022F4
:10C5CA00A2E890137F128B2DF9C2AC900E14A3E04F
:10C5DA00900E1F128AF792AC90137FE024FF92E824
:01C5EA00222E
:10C5EB00A2E8900DC8128B2DF9C2AC900E18A3E0E7
:10C5FB00900E23128AF792AC900DC8E024FF92E8BC
:01C60B00220C
:10AC8400AC0712C5EB128B4940F8A2E8E433FF127B
:10AC94008B30FEC2AC900E1CE06010E4F0C2AF90AA
:10ACA4002500ECF0E4F583D2AF8022900E22E0FA86
:10ACB400A3E024A6F582740E3AF583ECF0900E22FC
:10ACC400E475F0011207CC900E22128B59EE24FF8A
:08ACD40092ACEF24FF92E8228C
:10AF3A0090132F120AEC12C5CAEF4E7002FF22A21A
:10AF4A00E8E433901332128B2FFFC2AC900E14E454
:10AF5A0075F0011207E2FC742625F0F582740E3CA6
:10AF6A00F583E0FE90132F120ACCEE1206FB900E28
:10AF7A0014128B59EF24FF92AC901332E024FF9203
:04AF8A00E87F012239
:10C9CA00E4FF900E1CE070010F902505E020E502BF
:03C9DA007F0122B8
:10B1D800900DC8120AEC902501E030E1037F13229C
:10B1E800EDD3941040037F1422902505E030E5F953
:10B1F800E4FFEFC39D5022A2AFE433900DCBF0C221
:10B20800AF900DC8128B70902500F0E4F583900D77
:0CB21800CBE024FF92AF0F80D97F002212
:10C97A00902505E030E00A128B41902500128B6168
:04C98A00227F0022E6
:0BCCAA00EF6004439840225398BF2223
:10841600900CFEEFF0A3EDF0E59820E604007F1047
:1084260022E4FF900CFEE06023900D00120A477BC9
:10843600017A0D7905900D0F120AEC7A0D09900D4F
:1084460012120AEC7A0D09125AAC800BE4900D0751
:10845600F0900D05F0A3F0EF60020022128B419020
:108466002515E4F09025137480F0900D06E0902514
:1084760010F0900D05E0902511F0900D07E0902585
:1084860017F0902513E4F0902517F0900CFEE060AD
:10849600389025127481F0900D04E0FE543F90252B
:1084A60013F0902511E4F0EE20E604E04401F0908C
:1084B6000D04E020E707902511E04402F0D2AE90CB
:1084C6000CFFE024FF92BE8009902511E4F0C2AEB5
:0A84D600C2BEEF24FF92AF7F002228
:10C49400A2E8900D45128B37F9C2AE900E16A3E0B8
:10C4A400FFC3900E21128AF992AE900D45E024FF4D
:03C4B40092E822E9
:10C4B700A2E8900DC8128B37F9C2AE900E1AA3E00E
:10C4C700FFC3900E25128AF992AE900DC8E024FFA3
:03C4D70092E822C6
:10AC2B00AC0712C4B7128B4940F8A2E8E433FF1209
:10AC3B008B3AFEC2AE900E1DE06010E4F0C2AF90F6
:10AC4B002510ECF0E4F583D2AF8023900E24E0FACC
:10AC5B00A3E024E6F582740E3AF583ECF0900E2413
:10AC6B00E475F0011207CCE4900E24128B5AEE24FB
:09AC7B00FF92AEEF24FF92E822E3
:10AE9000900D41120AEC12C494EF4E7002FF22A2F0
:10AEA000E8E433900D44128B39FFC2AE900E16E4E5
:10AEB00075F0011207E2FC746625F0F582740E3C11
:10AEC000F583E0FE900D41120ACCEE1206FBE490F1
:10AED0000E16128B5AEF24FF92AE900D44E024FF21
:05AEE00092E87F012251
:10C9DD00E4FF900E1DE070010F902515E020E5029B
:03C9ED007F0122A5
:10B22400900DC8120AEC902511E030E1037F13223F
:10B23400EDD3941040037F1422902515E030E5F9F6
:10B24400E4FFEFC39D5022A2AFE433900DCBF0C2D4
:10B25400AF900DC8128B70902510F0E4F583900D1B
:0CB26400CBE024FF92AF0F80D97F0022C6
:10C98E00902515E030E00A128B41902510128B6134
:04C99E00227F0022D2
:10922100128AF1128ADCEC335018128ADC1209DE40
:10923100128AF1902510742DF0902515E020E50893
:1092410080F79025107420F0E47B107A27128ACAE7
:10925100E47B107A27128AE4902515E030E5F9E4E1
:109261007BE87A03128ACAE47BE87A03128AE490E3
:109271002515E030E5F97B64128AC87B64128AE225
:10928100902515E030E5F97B0A128AC87B0A128A1B
:10929100E2902515E030E5F9128ADCEF24309025C3
:1092A10010F0902515E030E5F99025107420F0902C
:0D92B1002515E030E5F9E47F01FEFDFC220B
:09CCE800C2AF75D25575D2AA2223
:0BCCB500EF6004439201225392FE2224
:10BC0A00E59220E004007F1022EDD3940F40040057
:10BC1A007F1122A2AFE433FEC2AFEF600C12CCEA6E
:10BC2A00ED540F4440F5D2800612CCEA75D280AFAB
:09BC3A0006EE24FF92AF7F002208
:10C2A30090FFFF120C0BA2AFE433850D83850E8242
:10C2B300F012CCE843D240850D83850E82E024FF43
:08C2C30092AF900001020C0B88
:10C12A00A2AFE433FCC2AFEF4E600E90136CEEF098
:10C13A00A3EFF07D0F7F018009E490136CF0A3F068
:0DC14A00FDFF12BC0AAF04EC24FF92AF22EF
:10C8E100EFD3940F4004007F112212CCE8EF540FD4
:07C8F100F5D243920180FE25
:10B77200900D41120AEC7F007E10E4900D44F0FD22
:10B78200EF2DF582E43EF583E493FC900D44E02C2A
:10B79200F0900D41120ACC8D82758300EC12070DD8
:10B7A2000DEDB440DB900D44E070037F01227F0079
:01B7B2002274
:04189400411380007C
:10C9A200F0C2AF9027A6E04480F0E4F583D2AF90C6
:04C9B2001380F022DC
:0BCCC000EF6004439940225399BF220B
:109BB200E59920E604007F1022E4901380F09027BC
:109BC200AA04F09027A974A5F0EB600D9027ACE4ED
:109BD200F09027AB748CF080109027AAE09027AC0D
:109BE200F09027A9E09027ABF09027B2E4F09027FD
:109BF200B17464F09027AF745AF0A374B4F0902754
:109C0200ADF0A3745AF090133AE09027A2F0902797
:109C1200A6742FF0ED600543F901800353F9FEEFBE
:0D9C2200600543E901800353E9FE7F002245
:10BCB400E59920E604007F10229027A4EFF0902756
:10BCC400A77408F0A3742912C9A27F12FDFC901373
:10BCD40080E06004E4FF800B0DBD00010CBC75EE38
:08BCE400BD30EBEF600100220E
:10BE9600E59920E604007F10229027A77406F0A3F8
:10BEA6000412C9A27F11FDFC901380E06004E4FF38
:10BEB600800B0DBD00010CBC75EEBD30EBEF6001D3
:02BEC600002258
:10BEF9000A0D2045564B203A204C49422056322EF5
:10BF090035000000000000000000000000000000F3
:10BF19000000000000000000000000000000000018
:1092BE00A37429F004F004F07429F004F004F0749F
:1092CE0029F004F004F022900D1F7412F0A3740321
:1092DE00F0A32274039022CFF09022CE22900D1F85
:1092EE007413F0E4A3F0A322F0A3F0A3F0A3F0A371
:1092FE00F0A3F022900D1F7413F0A37401F0A322BB
:10930E0074029022CFF09022CE22F0902249746304
:10931E00F0A37455F0229022B0E04401F0E4FEFF79
:10932E0022F07464A3F0A37404F02274C0F0A3744A
:10933E0070F090223C7490F02224A69022BFF09000
:0D934E0022BEE4F022A3F0A37450F0A3228D
:109C2F00EFD394054025902232743AF0A37434F0A8
:109C3F009022381293399022427411F09022457479
:109C4F001E12931890224D7426804C902232744A23
:109C5F00F0A37416F090224214F09022457423F072
:109C6F00EFC39405902238401A1293399022497409
:109C7F0021F0A304F090224D04F0A37499F0A37483
:109C8F0007F0227450F0A374B0F090223C7450127D
:0B9C9F00931890224D741212932F2294
:107F1F0090278074F6F0A37423F09022B07440F091
:107F2F009022C67480F09022C274B0F09022117427
:107F3F0002F090220C7405F09022207480F0A3E4DC
:107F4F00F0A37485F09022B97402F0A37463F090DB
:107F5F0022B774CFF0A3E4F09022C8745FF0A3743B
:107F6F0009F0EF30E0047E0E80027EA29022CAEE6E
:107F7F00F07408129332A3E4F0740B1292E3740FAF
:107F8F00F0902230744AF0902232F0A37416F0EF82
:107F9F0030E0047E4B80027E4D902235EEF0EF30C4
:107FAF00E0047FC680027FCD902236EFF0745C1222
:107FBF00935374B0F090223B7450F0A3F090224092
:107FCF007420F0A3F0A37415F0A37410F0A3F0A322
:107FDF007423129318A374E1F090224D741212932C
:0E7FEF002F90221D7485F09022E1746EF02216
:10ACDC00AE07EE6003B4010790222174018010EEE0
:10ACEC00902221B40208E4F0A374E5F08006E4F0AD
:10ACFC00A37485F0AF06129C2FEED39405400D90F3
:10AD0C0022197410F09022CA74D5F022EEC3940567
:10AD1C00902219400A7410F09022CA74AAF022E40E
:08AD2C00F09022CA74A2F0228B
:10595200E4900D1EF0EF8EF0120BA459A1096559C7
:10596200AA096A59B3096F59BC097459C509795909
:10597200CE097E59D7098359E0098859E9098D5919
:10598200F1099259F909975A01099C5A0909A15A30
:105992001109A65A1909AB5A2109B000005A291255
:1059A20092D57428F0025A2F1292D57450F0025AEE
:1059B2002F1292D57478F0025A2F1292D574A0F059
:1059C200025A2F1292D574C8F0025A2F1292D5742D
:1059D200F0F0025A2F1292EB7418F0025A2F129220
:1059E200EB7440F0025A2F1292EB7468F0803E1270
:1059F20092EB7490F080361292EB74B8F0802E1213
:105A020092EB74E0F080261293027408F0801E126A
:105A120093027430F080161293027458F0800E12C2
:105A220093027480F08006900D1E7417F0900D1E84
:105A3200E0FF6001229022BE74C0F09022B4740193
:105A4200F0900D1FE09022B1F0900D20E09022B274
:105A5200F0900D21E09022B3F09022B0E04401F0EA
:105A6200900D1E7414F0E4FFFE9022BDE030E007BA
:105A7200E4900D1EF0800B0FBF00010EBE27EABF9F
:105A820010E7900D1EE0601C1293249022BDE030BE
:105A9200E007E4900D1EF0800B0FBF00010EBE2741
:095AA200EABF10E7900D1EE0FFC1
:015AAB0022D8
:085D3900901357EEF0A3EFF008
:105D4100C3945AEE94094010901357E0FCA3E0FD70
:105D5100D394CBEC940940037F112290135974170B
:105D6100F0ED8CF0120BA45DAC09655DAE096A5DC6
:105D7100B5096F5DBC09745DC309795DCA097E5DB2
:105D8100D109835DD809885DDF098D5DE609925DE2
:105D9100ED09975DF4099C5DFB09A15E0209A65E10
:105DA1000909AB5E0909B000005E1480009022C2AF
:105DB10074D280599022C274D180529022C274D17F
:105DC100804B9022C274D180449022C274D0803D15
:105DD1009022C274D080369022C274D0802F90223B
:105DE100C274D080289022C274CF80219022C274C4
:105DF100CF801A9022C274CE80139022C274CE80BA
:105E01000C9022C274CE80059022C274CDF0E49031
:105E11001359F0901359E0FF6001229022B0E04441
:105E210002F0901357A3E01293479013597414F0A2
:105E3100E4FFFE9022BDE030E007E4901359F080CA
:105E41000B0FBF00010EBE27EABF10E7901359E008
:105E5100601C1293249022BDE030E007E4901359B6
:105E6100F0800B0FBF00010EBE27EABF10E79013B1
:035E710059E0FFF6
:015E7400220B
:10895B00C3EF9465EE94094009D3EF94B0EE9409FC
:10896B0040037F1122C3EF94B0EE9409400590228F
:10897B00C28033C3EF949CEE940940089022C274DA
:10898B00B3F08025C3EF947EEE940940089022C289
:10899B0074B4F08014C3EF9465EE94099022C24036
:1089AB000574B5F0800374B2F0D3EF947EEE9409A6
:1089BB009022B950057422F080037402F09022B01B
:1089CB00E04402F0EF1293477D14FFFE9022BDE0CE
:1089DB0030E004E4FD800B0FBF00010EBE27EDBF9E
:1089EB0010EAED60191293249022BDE030E004E40C
:1089FB00FD800B0FBF00010EBE27EDBF10EAE4FE9A
:088A0B00FF6003125952AF0590
:018A13002240
:0CCBCB009022BFE0245AFFE43409FE224F
:1061D700EF120B7E622400622B01623802624103D8
:1061E700624804624F05625606625D076264086290
:1061F700710962780A62850B628C0C62930D62A04A
:106207000E62AC0F62B31062C01162C61262CD1388
:1062170062D41462DB1562E716000062F09022CFA9
:10622700740B80059022CF7404F09022CE740FF087
:10623700227405129310740BF0221292E1740AF083
:106247002212930E7409F0221292E17407F02212BF
:1062570092E17406F0229022CF740380059022CF3A
:106267007401F09022CE7405F02212930E7404F09C
:10627700229022CF7407F09022CE7403F02290224E
:10628700CF740280199022CF740C80059022CF74AE
:1062970004F09022CE7402F0229022CF7401F09085
:1062A70022CE04F0229022CF741F80059022CF7453
:1062B7000FF09022CE7401F02212930E14F0229068
:1062C70022CF7401801E9022CF741F800C9022CFA2
:1062D700740880059022CF7401F09022CEE4F0225A
:0A62E7009022CFE4F09022CEF022C6
:10A52B00EFB401079022707424F022EF64026005EF
:10A53B00EF6403703990278074FEF0902219740138
:10A54B00F09022707427F0902280E030E0F9902296
:10A55B00807423F0A37407F0EF902270B40305749A
:10A56B0077F080037422F09022817460F0229027A0
:10A57B008074F6F0902219E4F09022807480F0A39E
:0AA58B00746CF09022707480F022CE
:10C9B600EF9022926008740EF0A37402F0227401C4
:04C9C600F0A3F022C8
:08CD2100902290E054C0F022C2
:10A59500EF30E00C902720E41292F6A31292F622F7
:10A5A500EF90272030E7297404F0A374E2F0A37438
:10A5B50004F0A374E2F0A37414F0A37410F0A3E400
:10A5C500F074FA129353F0A374A0F0A37464F0220C
:10A5D5007402F0A37471F0A37402F0A37471F0A374
:10A5E500740AF0A37408F0A3E4F0A3747CF0A374D8
:09A5F50028F01293537432F02295
:1077E700902785E090228230E272E4F000000000EA
:1077F700000000001292BE000000000000000074AC
:1078070029F0000000000000000000000000000058
:107817000000000000000000000000000000000061
:107827000000000000000000000000000000000051
:107837000000000000000000000000000000000041
:107847000000000000000000000000000000000031
:10785700000000000000000000008010E4F00000BD
:1078670000001292BE000000007429F00000000022
:107877000000000000000000000000000000000001
:1078870000000000000000000000000000000000F1
:1078970000000000000000000000000000000000E1
:1078A70000000000000000000000000000000000D1
:1078B70000000000000000000000000000000000C1
:0D78C700000000007440F090228214F022B6
:050006007EBE7FF9221F
:1035AD002023232045413D302C20496E74657272D5
:1035BD007570742044697361626C65642023230007
:1035CD002023232055415254303A496E746572724E
:1035DD007570742044697361626C656420232300E7
:1035ED002023232055415254313A496E746572722D
:1035FD007570742044697361626C656420232300C7
:10360D00202323205541525430203A20496E7465B1
:10361D0072727570742044697361626C65642023E5
:10362D002300202323205541525431203A20496E46
:10363D00746572727570742044697361626C65642F
:10364D00202323000A002025303278000A205B4D0C
:10365D0049425D000A204368616E3D25752028258D
:10366D0075204D487A292C2000202050616E494448
:10367D003D307825303478000A2053686F727441DC
:10368D006464723D30782530347800203A494545E0
:10369D00454164647228307E37293D3078000A2018
:1036AD0044737453686F7274416464723D3078254D
:1036BD0030347800203A447374494545454164647B
:1036CD007228307E37293D3078000A2044617461BC
:1036DD00526174653D3078253032782C2000203AC7
:1036ED0054785077724C6576656C3D307825303264
:1036FD00782C200020204E6F41636B5265747279D7
:10370D003D257500203A4261636B6F6666526574A4
:10371D0072793D2575000A205B52582D4D41432D80
:10372D00504B545D000A2044534E3D3078253032C5
:10373D00782C204F4F423D30782530327800203A9A
:10374D0064426D3D256400203A436F72723D2564DD
:10375D00000A204473742E204D6F64653D25303270
:10376D007800203A50616E49443D307825303478E8
:10377D0000203A53686F7274416464723D3078254D
:10378D0030347800203A4945454528307E37293D6B
:10379D003078000A205372632E204D6F64653D25ED
:1037AD00303278000A204D534455204C656E3D252E
:1037BD00303275203A2000203A4D534455203D00BB
:1037CD000A203D3D3D2048494220446973706C619B
:1037DD0079203D3D3D000A20494545452041444461
:1037ED0052284C53427E4D534229203A000A204321
:1037FD00686970496E646578203D203078253032D7
:10380D00780020284D4732343030290020284D478C
:10381D0032343558290020284D47323437302900AD
:10382D0020284D4732343630290020284D47323478
:10383D00313029002028556E636C61737369666998
:10384D00656429000A204368616E6E656C20202036
:10385D003D20257520282575204D487A29000A2000
:10386D00537461636B49442020203D20307825300E
:10387D003278000A205478506F7765722020203DF1
:10388D00203078253032780020202020446174616A
:10389D005261746520203D20307825303278000A41
:1038AD002050616E494420202020203D2030782575
:1038BD00303278253032780020204E776B416464A9
:1038CD007220203D20307825303278253032780036
:1038DD000A205365634C6576656C20203D20307859
:1038ED00253032780020202020507265436F6E669F
:1038FD006967203D20307825303278000A204E57F8
:10390D004B204B657920284C53427E4D5342292044
:10391D003A000A205265736572765F30284C534227
:10392D007E4D534229203A000A204550494420201B
:10393D002020284C53427E4D534229203A000A2024
:10394D005265736572765F31284C53427E4D5342FA
:10395D0029203A000A2047656E6572616C576F72B7
:10396D006430203D20307825303278253032780093
:10397D000A2047656E6572616C576F726431203D28
:0C398D0020307825303278253032780068
:101898004211340000421136000042113800004263
:0918A800113A000042113C00005D
:104624001208A79011C2120A5F9011C2120A539085
:1046340011BFE075F064A4FFAEF0E4FCFD1208A71E
:104644009011C2120A5F9011C2120A5375F00A90B7
:1046540011BEE0A4FFAEF0E4FCFD1208A79011C265
:10466400120A5F9011C222120ACC9000191206ACF1
:10467400FFE4900D5AF0A3EFF07BFF2290000112AB
:104684000823FF900DD3120ACC900DD9E0FDF582DA
:10469400758300EF12070D900DD0120ACC90000123
:1046A400120823E5F0FFED2401FDE433FC900DD363
:1046B400020ACC8D828C83EF12070D900DD0020A72
:1046C400CCF9E43AFAE4900D53F07D08FC22900D05
:1046D400D9E0F582758300ED12070DEEFF900DD938
:1046E400E0F5827583002290135A120ACC900004DC
:1046F400120823FF900D5AE5F0229012A1120ACC61
:104704001207F8FFE5F0C4F854F0C868FEEFC4548B
:104714000F48FFEE8FF012085B9012A6E022901172
:10472400BEE09011BDF09011BFE09011BEF0901169
:10473400C0E09011BFF09011C1E09011C0F0E4A36B
:10474400F09011BCE014F0229011BFE0FF7E007CD9
:10475400037DE812072FE4FCFD221206ACFF900D46
:104764005AE4F0A3EFF022120A47E47B107A27F907
:10477400F80208B490135D120ACC9000080206AC4B
:10478400FFFD900D5AE4F0A3EDF07E007C007D0562
:1047940012072FEF242EFFEE3409A32274852FF580
:1047A40082E4340DF583229012A8120ACC020693F7
:1047B400120A539011BDE0FFE4FCFDFE22E924013E
:1047C400F9E43AFA020693120AEC7BFF7A3679513D
:1047D4007F012290135A120ACC9000020206AC8D7B
:1047E400828C83EF12070D900DD9221206ACFF9034
:1047F4000D5CE422E475F0010207CCC4540F1206E8
:10480400FB9012ADE022EF24D09011BAF09011BCCD
:10481400E0C3940422120A539011BAE0FF3395E0E6
:10482400FEFDFC22900DC5E0FFC3944022F0E4F5A8
:1048340083900DCEE024FF92AF2290000C0206ACD0
:1048440090000B0206AC90135A020ACCEFF0A312AC
:104854000AECE4222402FFE433FEE92FF9EA3E22C3
:10486400120A539011BDE075F00A22900DD9E07E32
:104874000029F9EE3A22FF900DD6020ACC900DC51C
:0D488400E004F0229012A1120ACC0207F805
:10C4DA00900DC6EFF0902501E0900DC630E105E021
:10C4EA00FF02AC84E0A3F07B017A0D79C77D0112CB
:03C4FA00B1D82294
:10C1D80090133B120AEC902501E090133B30E008E5
:10C1E800120ACC12AF3A8006120ACC12C97A9013FE
:09C1F8003EEFF090133EE0FF223F
:10C4FD00900DC6EFF0902511E0900DC630E105E0EE
:10C50D00FF02AC2BE0A3F07B017A0D79C77D011200
:03C51D00B2242223
:10C2010090133F120AEC902511E090133F30E008A3
:10C21100120ACC12AE908006120ACC12C98E90136B
:09C2210042EFF0901342E0FF220D
:10A0D600900DCA120AECA2AFE433900DCEF0C2AFD7
:10A0E600902500740AF0740DF0902510740AF0742F
:10A0F6000D124831902505E030E5F9902515E03040
:10A10600E5F9E4900DCDF0900DCA120ACC12C9659E
:10A11600900DCDE0C39FE49E5029A2AFE433A3F097
:10A12600C2AF900DCA120ACC900DCD1246E41206AB
:10A13600AC902500F0902510124831900DCDE0042A
:04A14600F080C422BF
:109F0000900DC6EFF020AF3D7BFF7A3579AD129F03
:109F10006E900DC6E0700B20AC087BFF7A3579CDD2
:109F20008010900DC6E0B4010C20AE097BFF7A359D
:109F300079ED129F6EC2AF75D25575D2AA75D20A4D
:109F400043920180FE900DC6E0700B20AC087BFFB1
:109F50007A36790D8010900DC6E0B4011020AE0D58
:109F60007BFF7A36792FA3120AEC12A0D622A31215
:069F70000AEC12A0D6224B
:108E3F00900D57120AEC900D56EFF0129F00E49030
:108E4F000DC5F0124828500A1247A0E4F0124881CD
:108E5F0080F17B017A0D795A900D82120AEC900DF8
:108E6F0057120ACC900DC6120AEC900D82120ACC42
:108E7F00900DC9120AEC7B017A0D798512B3E4903B
:108E8F000D56E030E02BE4900DC5F0124828504C01
:108E9F001247A0E0FF604512C4FD900DC5E0248588
:108EAF001247A3E0B40A057F0D12C4FD124881805A
:108EBF00DAE4900DC5F012482850211247A0E0FFC8
:108ECF00601A12C4DA900DC5E024851247A3E0B4EE
:0D8EDF000A057F0D12C4DA12488180DA22E4
:107249009012A01248509012A6F0F5F012085B7F38
:10725900107E2712C12A9012A0E030E04C7B017AFF
:107269001279A512C201EF60E612732D6012901215
:10727900A6E0640460D99012A5E0FF12C4FD804A1B
:107289009012A5E064087018A3E060147F0812C486
:10729900FD7F2012C4FD7F0812C4FD1246FE14F0C2
:1072A9009012A5E0640D70A7227B017A1279A512CC
:1072B900C1D8EF609A12732D603E9012A6E0640463
:1072C900608D9012A5E0FF12C4DA124888C4F85400
:1072D9000FC868FFE5F0C454F0488FF012085B123C
:1072E9004888FF9012A4E0FD3395E045F0FEEF4D8C
:1072F90012471604F00272589012A5E0640870183B
:10730900A3E060147F0812C4DA7F2012C4DA7F0870
:1073190012C4DA1246FE14F09012A5E0640D60035F
:10732900027258229012A5E0FF12C3419012A4EFF5
:03733900F0F4224B
:107C7A009012A71248509012ADF01206FB7F107EA8
:107C8A002712C12A9012A7E030E04F7B017A1279BD
:107C9A00AC12C201EF60E6127D4E60129012ADE0A6
:107CAA00640260D99012ACE0FF12C4FD804D9012BC
:107CBA00ACE06408701BA3E060177F0812C4FD7F64
:107CCA002012C4FD7F0812C4FD1247AB1247FF14ED
:107CDA00F09012ACE0640D70A4227B017A1279ACA8
:107CEA0012C1D8EF6097127D4E602A9012ADE064FF
:107CFA0002608A9012ACE0FF12C4DA1247ABC45495
:107D0A00F01206FB1247ABFF9012ABE04F1248028B
:107D1A0004F0027C879012ACE06408701BA3E06058
:107D2A00177F0812C4DA7F2012C4DA7F0812C4DA75
:107D3A001247AB1247FF14F09012ACE0640D6003D7
:107D4A00027C87229012ACE0FF12C3419012ABEF83
:037D5A00F0F42220
:104D54009011B61248509011BCF0F5F012085BE4C3
:104D64009011BDF0A3F0A3F0A3F0A3F07F107E2771
:104D740012C12A9011B6E020E003024E4F7B017A63
:104D84001179BB12C201EF60E39011BBE0FFC39441
:104D940030405BEFD39439505512480A5003024D0A
:104DA400EC9011BCE0640470C39011C01247BA12B5
:104DB400466112476B124661120A53C00012474CF7
:104DC400D00012465E120A5375F06412465312481C
:104DD4006412465712481912465E120A47E4FEED61
:104DE4004C70899011BBE0FF12C4FD024ED39011A8
:104DF400BBE064087016A3E060127F0812C4FD7F54
:104E04002012C4FD7F0812C4FD1247229011BBE09A
:104E1400640D6003024D709011C11247BAA312468B
:104E24006412476B124661120A53C0009011C012FB
:104E3400474FD0001246241247B412465E120A4766
:104E4400E4FFFEED4C600122024F567B017A11799A
:104E5400BB12C1D8EF7003024D709011BBE0FFC3C9
:104E640094305003024EFCEFD394394003024EFCBD
:104E740012480A500612C4DA024ED39011BCE06400
:104E8400046003024D709011C01247BA12466112B9
:104E9400476B124661120A53C00012474CD00012ED
:104EA400465E120A539011BEE075F0641246571222
:104EB400486412465712481912465E120A47E4FE25
:104EC400ED4C6003024D709011BBE0FF12C4DA9008
:104ED40011C0E0A3F09011BFE0A3F09011BEE0A3D5
:104EE400F09011BDE0A3F09011BAE09011BDF090E4
:104EF40011BCE004F0024D709011BBE06408701620
:104F0400A3E060127F0812C4DA7F2012C4DA7F089B
:104F140012C4DA1247229011BBE0640D6003024D03
:104F2400709011C11247BAA312466412476B12461D
:104F340061120A53C0009011C012474FD0001246AC
:104F4400241247B412465E120A47E4FFFEED4C6099
:104F540001229011C2120A479011B7120ACCEE8FA7
:074F6400F012085B7F01223F
:10B9F400A2A9E433FEC2A9EF70059011348022EFAE
:10BA0400B401059011368019EFB402059011388005
:10BA140010EFB4030590113A8007EFB404089011B5
:0EBA24003CECF0A3EDF0AF06EE24FF92A92259
:10BF2900EF70059011348019EFB401059011368036
:10BF390010EFB402059011388007EFB4030A90118D
:10BF49003AE0FCA3E0FD8003E4FCFDAF05AE04226A
:10438800900DD0120AEC120693FF64026004EFB499
:1043980003201246BF900001120823FF901117E076
:1043A800B5F00DA3E0B50708900DDA7401F08007A9
:1043B8008000E4900DDAF01246B174011206FB1287
:1043C80046BF12483E30E00B1246B1120693442015
:1043D8001206FB900DDAE0600B1246B11206934408
:1043E800401206FB1246BF12483E5430C4540FFF19
:1043F8001246B1900001EF12070DE92401F9E43AE1
:10440800FAC003C002C001120693FF1246BF124849
:104418003E54C01313543F4FD001D002D0031206AC
:10442800FB1246BF120693FF6027EFB4020A12463A
:10443800B11247C1440880111246BF120693B40353
:104448000D1246B11247C1440C1206FB80037FE8E7
:10445800221246BF124844FF6027EFB4020A1246F0
:10446800B11247C1448080111246BF124844B403B8
:104478000D1246B11247C144C01206FB80037FE803
:1044880022901131E004FFF01246B1900002124769
:10449800E77403F01246BF120693640270351246A1
:1044A800801246B7900003120823FF900DD9E0242C
:1044B800021246AD1246B7900003120823E5F0FF3A
:1044C800900DD9E024031246AD1247E3E02404F02E
:1044D80002450F1246BF1206936403702A1246BFA4
:1044E8001246801247E3E0124858FEAF011246BF59
:1044F800E92403F9E43AFCAD017B087A0012A3E849
:10450800900DD9E0240AF01246BF124844640270A4
:1045180054900DDAE06019901119E0FEA3E0FD1245
:1045280046B11246D2A31247E7E02402F00245B88A
:10453800901117E0FEA3E0FD1246B11246D2A3EF98
:1045480012070D901119A3E01246E0A3A3EF12077A
:104558000D901119E01246E0A3A3A31247E7E02447
:1045680004F00245B81246BF1248446403704190F3
:104578000DDAE0600E1246B112486F124611240897
:10458800F0802D901117E0FEA3E0FD1246B112460F
:10459800E1ED12070DEEFF900DD9E0FEF58275836F
:1045A80000A3EF12070DEE124858124611240AF024
:1045B800900DD9E012487AEF1206FB1246BF900020
:1045C8000D1206AC12487AEF1206D912487B740213
:1045D8001206D9900DD61247AED3947F40037FE5DB
:1045E800221246B112486FFEAF011246BF90000E6C
:1045F800120AF5AC02AD011246BF90000D1206ACCE
:10460800FB7A0012A3E87F0022FEAF017C117D1B1C
:0C4618007B087A0012A3E8900DD9E02284
:10A8D000E49010CAF0EF04900DD3F0ED04A3F0E47F
:10A8E000900DD1F0900DD3E0FF900DD1E0C39F50BB
:10A8F0003EE4A3F0900DD4E0FF900DD2E0C39F5052
:10A900001812827C900DD0EFF064156004E0B4E181
:10A9100008900DD2E004F080DB900DD0E07008A329
:10A92000E09010CAF08008900DD1E004F080B5905E
:05A930000DD0E0FF2244
:10BA6F00C003C002C0017B017A237901900DD3126C
:10BA7F000AEC7A0D79CF900DD6120AECD001D002D4
:10BA8F00D003124388EF7013900DCFE0902300F096
:0CBA9F00901132E0FFA3E0FD12A8D022BD
:020029000022B3
:10BF590090136EEEF0A3EFF0E490110AF0A3F090C5
:10BF6900136EE0FEA3E0FFC390110BE09F90110A4E
:10BF7900E09E500B12CAEA90110A1247F880E0229B
:10CAEA00E490110CF090110CE004F0E0B401F6228D
:10CAFA00E490110DF090110DE004F0E0B409F62273
:10CB0A00E490110EF090110EE004F0E0B430F62239
:10CB1A00E490110FF090110FE004F0E0B460F622F7
:10C7FF00E4901110F0A3F09011101247F89011105F
:0AC80F00E07004A3E0646970EE22FB
:10C81900E4901112F0A3F09011121247F89011123E
:0AC82900E07004A3E064D270EE2278
:10C60C00E4901114F0A3F0C3901115E09F90111455
:10C61C00E09E500B12C8199011141247F880E822B2
:10A80200900D4E120AEC900D51ECF0A3EDF0E49095
:10A812000D54F0A3F0900D51E0FCA3E0FD900D5417
:10A82200E0FEA3E0FFC39DEE9C503B900D53E0FD84
:10A83200600F7C00120741ED4C70061247CE128E5B
:10A842003F900D4E120ACC900D54E0FEA3E0F5822B
:10A852008E831246717A3679537F01128E3F900DA4
:07A86200541247F880AF22F9
:107B9300900D4B1247CB128E3F7A367959127C489F
:107BA3001206931247841246797A367961127C560B
:107BB300900001120823FFE5F01246767A367976B3
:107BC300127C569000031246F41246797A36798570
:107BD3007F01128E3F7A367998127C48E924051288
:107BE30046C512A802900D4B120ACC90000F124604
:107BF300F41246797A3679AB7F01128E3F7BFF7A96
:107C03003679C1127C62E924111246C512A802908A
