:10AC0000C00F74ACC0E0C082C083750F0A75A1008C
:10AC10000000000022C00F74ACC0E0C082C0837589
:10AC20000F1F75A1010000000022C00F74ACC0E02E
:10AC3000C082C083750F3475A1020000000022C0DD
:10AC40000F74ACC0E0C082C083750F4975A10300CA
:04AC500000000022DE
:0DC8CF00EF90C8D89390AC00730A1F344955
:10A00000EB60010A4A601D8C838D8263A2018E83FE
:10A010008F8263A20100E0A363A201F0A363A20107
:10A02000DBF4DAF222C0A275A2010000C082C08374
:10A0300063A2010000C082C083EB60010A4A601D78
:10A040008C838D8263A2018E838F8263A20100E0E4
:10A05000A363A201F0A363A201DBF4DAF2D083D000
:0DA060008263A2010000D083D082D0A22232
:0300000002591E84
:10591E007598007599209022E074D9F090270E7436
:10592E0000F09027027470F09027037400F0E4905A
:10593E000000F0900000E004F0E0B4C8F6902700FC
:10594E007480F09027087400F0902709F0902720BB
:10595E00F0902721F0902722F0902723F090272413
:10596E00F0902725F0902726F0902727F0902728F3
:10597E00F0902729F090272AF090272BF0759900A8
:10598E009022E17400F09022E27490F09022E7747D
:10599E00FFF09022E8F09022E9F09022EAF09022B7
:1059AE00EBF09022ECF09022ED7400F09022EEF0ED
:1059BE009022EFF09022F0F09022F1F09022F2F08F
:1059CE00750D18750E00758121C2C112AC0A025AEE
:0159DE001AAE
:0CC90E00016800AA005A002D0015000B63
:0A2117004210D100004210CF00007A
:10BE8000900D086480F8E064809822900D08E0FE30
:10BE9000A3E0FFC322900D14120A5F900D14020A52
:0ABEA00047120ACC900D0D020AECC7
:0EC88900902784E054BFF00000E04440F0220D
:10A7EF00EBD394084004007F1222EDD3940350045E
:10A7FF00EDB40104007F1122EF9022E66026E044C1
:10A80F0004F0902781E0440CF09022D4E04480F0D3
:10A81F00E054F04BF0AF05EFC43354E0FFE0549F2A
:10A82F004FF08012E054FBF09022D4E0547FF09070
:09A83F002781E054F3F07F0022B0
:10BE5600EFD394035005ED94034004007F11229024
:10BE66002786E054FC4FF0AF05EF25E025E0FF9074
:0ABE760022D5E054F34FF07F0022C4
:10BDA400ED6005D3940E4004007F1122ED04C454C9
:10BDB400F0FE9022D5E0540F4EF0EF6006E044020E
:0DBDC400F080079022D5E054FDF07F0022B2
:10C2A900A2AFE433FFC2AF9022D7E0FDE0FEEF2456
:10C2B900FF92AFAF06EFFEEDFF7C007D10120796EF
:01C2C9002252
:10C78B009022D6E05478131313541FFF60011F221D
:10B2F60074FFF5F012085B7F13E49010C9F0A3F019
:10B306009022D6E05470600D12C2A9EE8FF012089A
:10B316005BE4FF80199010C9E475F0011207CCC3F5
:10B326009010CAE094D09010C9E0940740D2EF6024
:03B33600010022F1
:1098C500AA05EBD394084004007F1222EAD394033F
:1098D5004004007F1122EF60557D02E4FF12BDA414
:1098E500AF02AD077F0112A7EFAC07EC704912C8B4
:1098F50089901220E025E0240EF582E434C9F58331
:10990500E493FF7401939010CBCFF0A3EFF0E4A3A1
:10991500F0A3F09010CB12BE8E9010CEE09F901069
:10992500CDE09E5012E475F0011207CC80E5E4FB12
:0A993500FDFF12A7EFAC07AF0422FC
:10BB0400900D00120AECEFD394084004007F122237
:10BB1400AB07E4FD7F011298C5EF600122900D0090
:10BB2400120ACC12B2F6EF600122E4FBFDFF129878
:04BB3400C57F0022A7
:106E3700900D06EEF0A3EFF0A3ECF0A3EDF0900DAC
:106E47000CE0FFC3940A4006EFD3940F4004007F81
:106E57001122900D0612BE8E900D09E09FEE12BE14
:106E6700804004007F142212BE8B900D07E09FFF25
:106E7700900D06E09E900D10F0A3EFF0D3900D0952
:106E8700E09BEA12BE804009E4900D12F0A3F08067
:106E970029C3900D07E09BEA900D0612BE83500BA5
:106EA700900D10E0FFA3E0A3CF800B12BE8BEB9FEA
:106EB700FFEA9E900D12F0A3EFF0900D0CE0FF7427
:106EC700017E00A807088005C333CE33CED8F92446
:106ED700FFFFEE34FFFEE4FCFD900D14120A5F90F5
:106EE7000D12E0FEA3E0FFE4FCFDA3120A53120813
:106EF700B412BE95C006C007900D10E0FEA3E0FBDC
:106F0700AA06E4F9F8D007D00612093F12BE95EE9B
:106F1700547FFE900D0D120ACCEE8FF012085B7FA6
:026F2700002246
:0CC8F6007B017A1079D17F0712BB04226D
:0CC902007B017A1079CF7F0812BB042261
:10A9A900900D01120AEC900D00EFF0C3940A4006D5
:10A9B900E0D3940F4004007F11227B017A0D7904C2
:10A9C90012B2F6EF6001229010D1E0FEA3E0FF90F1
:10A9D90010CFE0FCA3E0FD900D00E0900D0CF0908D
:10A9E9000D0112BEA1900D04E0FAA3E0FB126E372F
:07A9F900EF6001227F002244
:109422009010B4EDF0A3120AEC9010B3EFF0D394C5
:10943200084004007F12229010B4E0FFC3940A4057
:1094420006EFD3940F4004007F11227B017A10793A
:10945200BA7F0712BB04EF6001227B017A1079B850
:109462007F0812BB04EF6001229010B3E0FF7B0182
:109472007A1079BC12BB04EF6001229010BAE0FEB0
:10948200A3E0FF9010B8E0FCA3E0FD9010B4E090E0
:109492000D0CF09010B512BEA19010BCE0FAA3E042
:0B94A200FB126E37EF6001227F0022FA
:042121004112200047
:10AA5700E4FDEF14601414601514601614601714E5
:10AA67006018240570187E088016E4FE80127E2088
:10AA7700800E7E40800A7E6080067E0C80027D12FA
:10AA8700ED600300FF22901220EFF0538E10EE428C
:10AA97008EE58E90278530E306E04404F08004E0DD
:06AAA70054FBF07F0022C9
:030026008F98228E
:03002E008F992285
:030036008F9A227C
:0821250041120E0041120F00EF
:10C63B00A2AFE433FEC2AFEB9022EF22AF06EE24A3
:06C64B00FF92AF7F002208
:10B4C100E5B420E204007F102212C63B30E106E021
:10B4D1004404F08004E054FBF0EB30E003D380013E
:10B4E100C39288ED24FF92B8EF24FF92A89022F234
:10B4F100E030A8054404F0800354FBF012C6472253
:10B50100E5B420E304007F112212C63B30E106E0DE
:10B511004408F08004E054F7F0EB30E003D38001FD
:10B52100C3928AED24FF92BAEF24FF92AA9022F2ED
:10B53100E030AA054408F0800354F7F012C6472210
:04212D0041122180BA
:1071F700E0FEA3E0FFF5828E83A3A31206AC9027DF
:1072070005F08F828E83A3A3A31206AC902704F008
:10721700901221E04401902700F022F09011E0E065
:10722700F58A9011DEE0F58C22E0FEA3E0FFF582FF
:107237008E831206AC902707F08F828E83A31206E7
:10724700AC902706F022FFE0FAA3E02DF582EA3C96
:10725700F583E4936F22900D07E475F0010207CCE4
:10726700900D05E0FEA3E0A3FFE0FCA3E0FDC39FB4
:10727700EC9E229027007480F09027027470F0A390
:10728700E4F0902708F0A3F07F0122E0FEA3E0904E
:107297002703F0EE902702F022FFEEF0A3EFF04372
:1072A700992090270EE4F0901220E022902709748D
:1072B70001F0902708E4F022120ACC8D828C830219
:1072C70006ACEEF0A3EFF0EE54014F22CFF0A3EFA0
:0D72D700F0E422900D0B120A5F900D0B22C7
:06CA7600E4901221F02201
:07CA61009012217480F02205
:10B94F0090270EE4F090270DE020E0F900000000B2
:10B95F00EF127296902708E4F0A304F0901221E002
:10B96F004402902700F00000000090270DE020E037
:08B97F00F99027007480F0220A
:100E7F00900D4C120AEC900D4A1272C96004007F5B
:100E8F001422900D4AE0FEA3E07802CEC313CE13D6
:100E9F00D8F9900D561272A070047F808002E4FF83
:100EAF0012A1AD901221E0701D902700E0648070B8
:100EBF0015902708E0700FA3E0700B902702E0B4A5
:100ECF007004A3E06009900D587413F0020FE4E46E
:100EDF00FF12B032E4900D5DF012BF75900D56E029
:100EEF00FEA3E0FF12B94F900D4FE030E00AE490FF
:100EFF000D58127222020FE490270DE020E0F91234
:100F0F0072B3900D50F0A3F0900D56E0FFA3E09058
:100F1F000D54CFF0A3EFF0900D52E4F0A37480F0D6
:100F2F0012BF75900D54127292900D4C120ACC9004
:100F3F000D50127230900D501271F700000000909A
:100F4F000D50E475F0041207CC900D54127260909E
:100F5F000D5274FFF5F01207CC900D52E07002A302
:100F6F00E070BD90270DE020E0F9127223900D4A3A
:100F7F00E0FFA3E0900D591272D3900D58F0900D31
:100F8F005BF0A3F0900D5BE0FEA3E0FFC3EE9402D5
:100F9F00502E900D4C120ACC8F828E831206ACFF0E
:100FAF00900D5BE0FCA3E0FD900D5912724E6008AE
:100FBF00900D587415F08008900D5B12726080C40C
:100FCF00900D58E0600F900D5DE004F0E0C39404C5
:100FDF005003020EE812727A12A1AD5399DF7F010E
:0C0FEF0012B032900D58E0FF60010022AB
:10508F00901066120AEC9010641272C96004007FCF
:10509F001422901064E0FEA3E07802CEC313CE1367
:1050AF00D8F99010711272A070047F808002E4FF13
:1050BF0012A1AD901221E0701D902700E064807066
:1050CF0015902708E0700FA3E0700B902702E0B453
:1050DF007004A3E060099010737413F002520CE493
:1050EF00FF12B032E4901078F012BF75901071E09B
:1050FF00FEA3E0FF12B94F901069E07002A3E070B9
:10510F000990107312722202520C90270DE020E0CA
:10511F00F91272B390106BF0A3F0901071E0FFA32F
:10512F00E090106FCFF0A3EFF0901069E0FCA3E0D8
:10513F00FDAE047802CEC313CE13D8F9FF90106DD5
:10514F00EEF0A3EFF0ED5403600A90106DE475F0EC
:10515F00010251A390106DE07002A3E0603C12BFFA
:10516F007590106F127292901066120ACC90106B9D
:10517F0012723090106B1271F70000000090106BDC
:10518F00E475F0041207CC90106F12726090106DDE
:10519F0074FFF5F01207CC02516390270DE020E069
:1051AF00F9127223901064E0FFA3E0901074127252
:1051BF00D3901073F0901076F0A3F0901069E0FE8A
:1051CF00A3E090107612726F501E9010661272BF8D
:1051DF0090107412724D60089010737415F080085F
:1051EF0090107612726080D3901073E0600F901061
:1051FF0078E004F0E0C3940450030250F812727A7E
:10520F0012A1AD5399DF7F0112B032901073E0FFFE
:04521F006001002208
:107FE600900D00EEF0A3EFF0A3120AEC900D00E066
:107FF600FEA3E0FFE4FCFD1272DA120A53900D06AE
:10800600E024FFFF900D05E034FFFEE4FCFD1208BE
:10801600A71272DA120A47ED4C6004007F1222E4BE
:10802600900D0AF0900D00E0FFA3E0900D0F127284
:10803600D3900D09F0E4900D07F0A3F0127267508B
:1080460029900D0FE0FEA3E02DF582EE3CF583E4CA
:1080560093FF900D02120ACC900D07A3E0F5828CD7
:1080660083EF12070D12725D80D2E4900D07F0A324
:10807600F0127267501B900D021272BF900D0F1214
:10808600724D6008900D0A7416F0800512725D80BC
:10809600E0900D0AE0600B900D09E004F0E0640446
:0880A6007093900D0AE0FF2227
:10C65100AF04E0FDA3E0FB12C062EF22EDF0A3EB1B
:06C66100F0AC07E5982291
:0BC93200EF6004439810225398EF229E
:10C06200EFD394074008EF640A60037F1222ED6069
:10C0720009EBD39401400C7F1122EBD394024003CD
:06C082007F11227F002265
:10816D0090121012C65D20E404007F1022901210B0
:10817D0012C65160020022EC120B7E81A70081AD68
:10818D000181B30281B90381BF0481C50581CB068D
:10819D0081D10781D70A000081DB7E0179FE802E17
:1081AD007E0279FD80287E0479FB80227E0879F796
:1081BD00801C7E1079EF80167E2079DF80107E4046
:1081CD0079BF800A7E80797F80047EFFE4F990126A
:1081DD0010E06019E952B19022EAE059F0901211C5
:1081ED00E06005EE42C18032E952C1802D9012113E
:1081FD00E0FF700E9022EAE04EF09022E7E04EF0A4
:10820D008012EF9022EAB40108E04EF09022E78050
:0D821D0000E059F0EE42B1EE42B97F0022C0
:10822A00900CFE12C65D20E404007F1022900CFE22
:10823A0012C65160020022EC120B7E826400826A2E
:10824A0001827002827603827C0482820582880619
:10825A00828E0782940A000082987E0179FE802E1F
:10826A007E0279FD80287E0479FB80227E0879F7D8
:10827A00801C7E1079EF80167E2079DF80107E4088
:10828A0079BF800A7E80797F80047EFFE4F9900CB2
:10829A00FEE06019E952B29022EBE059F0900CFF2F
:1082AA00E06005EE42C28032E952C2802D900CFF96
:1082BA00E0FF700E9022EBE04EF09022E8E04EF0E4
:1082CA008012EF9022EBB40108E04EF09022E88091
:0D82DA0000E059F0EE42B2EE42BA7F002201
:1080AE00900D2B12C65D20E404007F1022AF0490C9
:1080BE000D2B12C65360020022EC120B7E80EA00DA
:1080CE0080F00180F60280FC0381020481080581A4
:1080DE000E06811407811A0A0000811E7E0179FEA8
:1080EE00802E7E0279FD80287E0479FB80227E0818
:1080FE0079F7801C7E1079EF80167E2079DF801054
:10810E007E4079BF800A7E80797F80047EFFE4F90D
:10811E00900D2BE06019E952B49022ECE059F090EA
:10812E000D2CE06005EE42C48032E952C4802D90E1
:10813E000D2CE0FF700E9022ECE04EF09022E9E064
:10814E004EF08012EF9022ECB40108E04EF0902237
:0F815E00E98000E059F0EE42B4EE42BC7F00220F
:0C2131004111F6004111F7004111F800C7
:08CA2900EDF0A3EBF0E5922211
:04C4AB00E0FD7F0130
:10C4AF00ED600543F904800353F9FBEF600443E9A2
:06C4BF00042253E9FB22F8
:0BC93D00EF6004439202225392FD229F
:1087E5009011C712CA2920E104007F10229011C9F7
:1087F500E0D394034004007F2022E4FDEF120B7EBA
:10880500882400882A01883002883603883C048839
:108815004205884806884E0788540A0000885A7918
:10882500017EFE803279027EFD802C79047EFB80FC
:108835002679087EF7802079107EEF801A79207ED0
:10884500DF801479407EBF800E79807E7F80087935
:10885500FFE4FE80027D30ED600300FF229011C72A
:10886500E060279011C9E0FF30E105E942EA8003A5
:10887500EE52EAEF30E005E942EB8003EE52EBE918
:1088850042EC9011C812C4AB8003EE52EC7F00227B
:0BC94800EF6004439204225392FB2294
:108895009011CB12CA2920E204007F11229011CD3C
:1088A500E0D394034004007F2122E4FDEF120B7E08
:1088B50088D40088DA0188E00288E60388EC048819
:1088C500F20588F80688FE0789040A0000890A79F6
:1088D500017EFE803279027EFD802C79047EFB804C
:1088E5002679087EF7802079107EEF801A79207E20
:1088F500DF801479407EBF800E79807E7F80087985
:10890500FFE4FE80027D31ED600300FF229011CB74
:10891500E060279011CDE0FF30E105E942F28003E8
:10892500EE52F2EF30E005E942F38003EE52F3E94F
:1089350042F49011CC12C4AB8003EE52F47F0022B6
:0BC95300EF6004439208225392F72289
:108B47009011CF12CA2920E304007F13229011D17C
:108B5700E0D394034004007F2322E4FDEF120B7E51
:108B67008B80008B86018B8C048B92058B98068BF0
:108B77009E078BA40A00008BAA79017EFE802679C6
:108B8700027EFD802079107EEF801A79207EDF80BB
:108B97001479407EBF800E79807E7F800879FFE45C
:108BA700FE80027D33ED600300FF229011CFE0606D
:108BB700279011D1E0FF30E105E942FA8003EE5238
:108BC700FAEF30E005E942FB8003EE52FBE942FC95
:0E8BD7009011D012C4AB8003EE52FC7F00223E
:0DC8DC00F0A3F0EF24FF92AF902190E02236
:06CA7C00902191EFF02271
:10C79B00EF9021916005E04402F022E054FDF0227D
:10C7AB00EF9021916005E04404F022E054FBF0226D
:10C7BB00EF9021916005E04408F022E054F7F0225D
:10C7CB00EF9021916005E04410F022E054EFF0224D
:09CA0E00902158EFF0EEA3F02294
:09CA170090215AEFF0EEA3F02289
:0FC86B00AC02AD017B087A007F507E2102A00055
:10C4C500A2AFE433FFC2AF902004E4F09020011244
:0AC4D500C8DC4440F0E054BFF02240
:10C4DF00A2AFE433FFC2AF902084E4F0902081122A
:0AC4EF00C8DC4420F0E054DFF02226
:0BC95E007F1612CA7C12C4C502C4DFA1
:0C213D004111400041113B0041113F00E6
:108EF600E5E8F0A3E5E9F0AFA875E902E4F5E87561
:108F0600A8809027927483F090279EE0C2AF9027A6
:108F160093E0E4F583D2AF2290279F7444F0902724
:108F260092E0547FF0E490113BF022120ACC8E823C
:108F36007583001206AC902790F0E4F583D2AF2239
:108F46009027927480F022E0547F25E0902791F0DC
:108F560022FEE4901140F0902792E022901102E068
:108F660004F0E0C3942022EFF0A3EDF0A3120AEC84
:108F7600E422E004F090113BE02212C3E79027922E
:0A8F8600E022E0F5E88FA8AF052215
:0BC96900EF60044399802253997F2265
:10A54B00E59920E704007F10229011D5E0FEC3941B
:10A55B00125004007F1122EF6041A2AFE433FFC21F
:10A56B00AF902794EEF090279674FFF0902795E428
:10A57B00F0902793E090279EE0EB90279230E00538
:10A58B0074A3F080037483F053F9FDED600343F97A
:10A59B000243E902EF24FF92AF800653E9FD128FCD
:04A5AB00467F0022C5
:10C3E700E4901139F0A3F0901139E475F0011207C8
:0EC3F700CC901139E07004A3E0640A70EA22D1
:10851A009010F1128F6D9010F9F0E59920E70400A0
:10852A007F10229010F6E0FE70028006EED3940FC0
:10853A004004007F1122E4FFFE12BDD19010F71211
:10854A008EF69010F1128F4DC2AF9010F2E0128F9A
:10855A003CFE9010F6E0FDEEC39D500BC2AF9010AA
:10856A00F3128F310E80EB128F1E9010F6E0240268
:10857A00128F574470F0E4FD9010F9128F7860045E
:10858A007D128012901140E06E600B9010F9E0C3EA
:10859A00944040E47D80ED7006128F8054EFF0E441
:1085AA009010F9F030960320970A9010F9128F650F
:1085BA0040F27D80128F469010F8E0F5E99010F7AE
:0485CA00128F882262
:106865009010FA128F6D901102F0E59920E704005F
:106875007F10229010FFE0FE70028006EED3941088
:106885004004007F1122E4FFFE12BDD190110012D9
:106895008EF69010FA128F4DC2AF9010FBE0128F5A
:1068A5003C9010FFE0902797F0128F1E7E02128F0A
:1068B50059447CF0E4FD901102128F7860047D123A
:1068C5008012901140E06E600B901102E0C394506D
:1068D50040E47D80ED6014E4901102F030960320D1
:1068E500976B128F6240F57D808062128F8054F71E
:1068F500F0902791E04401F0E4901102F090113BF3
:10690500E0700E901102E004F0E0C394E040EE7DEB
:1069150080E4FE9010FFE0FCEEC39C501EC2AF90D9
:106925002790E0FC9010FC120ACC8E82758300EC57
:1069350012070DE4F583D2AF0E80D8E4901102F072
:10694500309603209707128F6240F57D80128F469F
:0D695500901101E0F5E9901100128F8822E9
:10873400901141EF128F71901148F0E59920E704F0
:10874400007F1022901145E0FE70028006EED39463
:10875400104004007F1122E4FFFE12BDD1901146A7
:10876400128EF6901141128F4DE4FE901145E0FDFA
:10877400EEC39D500BC2AF901142128F310E80EBAD
:10878400128F1E901145E004128F574470F0E4FDDF
:10879400901148128F7860047D128012901140E08D
:1087A4006E600B901148E0C3944040E47D80ED700E
:1087B40006128F8054EFF0E4901148F030960320B5
:1087C400970F901148E0FE04F0EEC3941040ED7D45
:1087D40080128F46901147E0F5E9901146128F8878
:0187E4002272
:107695009010BEEFF0A3120AECE59920E704007FF5
:1076A5001022E4FFFE12BDD19010C5E5E8F0A3E578
:1076B500E9F0A3E5A8F0128EFF9010BEE0547F25F7
:1076C500E04401902791F09010C2E0FFD394104060
:1076D5000B9027977410F0EF24F080099010C2E00A
:1076E500902797F0E490113FF0128F1E90113FE024
:1076F5009010C8F0E4901140F09010BF120ACC90A1
:10770500113C120AEC902792E04474F0E49010C307
:10771500F090113BE060FAE49010C4F0902797E0F8
:10772500FF9010C4E0FEC39F502DC2AF902790E09C
:10773500FFEEFD9010C8E02DFDE433FC9010BF1264
:107745000ACC8D828C83EF12070DE4F583D2AF90BE
:1077550010C4E004F080C53096FD3097FA128F46CC
:107765009010C6E0F5E99010C5E0F5E89010C7E087
:08777500F5A89010C3E0FF220B
:10B07A0015660AB30AB2055906B4035A035C01AE4F
:10B08A0001C200E10104008201D200E90112008933
:10B09A0000B20059008A0045008A0045008A00452E
:10B0AA00023001180118008C0096004B004600235C
:08B0BA00003C001E003C001EDA
:1021490041109700411096034110950041109400E9
:04215900411093009E
:10ACA40075F002120AC0E493FF74019390108BCFE5
:10ACB400F0A3EFF0E4A3F0A3F0229022007438F0A4
:10ACC400901096E025E025E02290108BE0FEA3E0B2
:10ACD400FFC390108EE09F90108DE09E2290108D07
:0EACE400E475F0010207CC9022007434F022D7
:0EC89700EF30E0047F018002E4FF127B0922F3
:07CA6800902200741CF02273
:108BE500900D28EEF0A3EFF0A3EDF0600B90278336
:108BF500E4F09022D07488F0A2AFE433900D2BF00E
:108C0500C2AF90228DE0900D2CF07F1112CA3190E9
:108C15002200742CF07F13E4901089F0A3F0900DDE
:108C250028E0FCA3E0FDC390108AE09D901089E048
:108C35009C502190228DE020E612A3E05407FE709F
:108C450003FF8010EEB404047F128008901089128F
:108C5500ACE480CA90228F74FFF0900D2CE0902236
:108C65008DF0900D2BE024FF92AF900D2AE0600966
:0E8C7500EF70069022D07484F0EF60010022B0
:10C769007F0A12CA31E4FD7F0112C34C7F0102C75F
:01C77900DBE4
:10993F00900D1CEFF0BF04028009900D1CE0D39432
:10994F00054004007F182212ACEBE4FF12B03290F6
:10995F000D1CE0FF12A8F9900D1CE01460161460A6
:10996F001B14602024FE602424057026902211749D
:10997F0009F0801E9022117405F080169022117448
:10998F0003F0800E9022117402F080069022117461
:10999F0010F0902200743CF07F0112B032900D1C39
:0899AF00E0901096F07F002209
:10ADDA00901222EFF012A8F9901222E0FF146016E6
:10ADEA0014601B14602024FE60242405702690221F
:10ADFA00117409F0801E9022117405F080169022B9
:10AE0A00117403F0800E9022117402F080069022D1
:0CAE1A00117410F0901096EFF07F0022F1
:10B86B00901223EFF07F0312993F901223E0902266
:10B87B00246013E04440F0902785E04408F09022C8
:10B88B0037E04480F022E0543FF0902785E054F7F6
:09B89B00F0902237E0547FF02206
:1082E700900D1CEFF0C3940B4006E0D3941A4004A2
:1082F700007F172212ACEBE4FF12B032900D1CE0A6
:10830700120B7E833E0B83420C83460D834A0E83FA
:108317004E0F835210835611835A12835E13836262
:1083270014836615836A16836E178372188376190A
:10833700837A1A000083867F65803A7F6A80367F5A
:108347006F80327F74802E7F79802A7F7E80267FA0
:108357008380227F88801E7F8D801A7F9280167F80
:108367009780127F9C800E7FA1800A7FA680067F60
:10837700AB80027FB07E09128461900D1DEFF090F3
:108387000D1DE0600400028303902200743CF07F1F
:0D8397000112B032900D1DE0FF60010022C8
:0FC87A00E4FE902284E0FF70050EEEB4FAF42283
:08CA3100EF541F90228DF0224A
:10C56100A2AFE433FEC2AFED24FF92F8EF24FF92B5
:09C57100E8AF06EF24FF92AF22AF
:10B03200EF603D90228EE054F7F0E04408F0759105
:10B0420010A2AFE433FFC2AF902084E4F0902081DD
:10B05200F0A3F0EF24FF92AFE4901095F0902190CE
:10B06200E04420F0E054DFF0902201E054FEF022B0
:08B07200902201E04401F022EC
:06CA8200EF24FF92AF2239
:03003E000273D179
:107CB800902002E4F0902303E0902192F09022803B
:107CC800E05470FF6007641060037F1522901094E1
:107CD8007401F0901097E0547DF0900DD574E1F0A8
:107CE80012003E12ACBE247AF582E434B0F583C0AB
:107CF80083C082901220E0D082D08312ACA412AC50
:107D0800CD5013901097E030E107E4900DD5F08046
:107D18000512ACE180E8900DD5E0B4E10F12ACEBB0
:107D2800902002E4F0901094F07FE122E490109407
:107D3800F0900DD5F0902301E030E539900DD57421
:107D4800E9F012ACC42492F582E434B0F583C08320
:107D5800C082901220E0D082D08312ACA412ACCDA5
:107D68005013901097E030E707E4900DD5F08005A8
:107D780012ACE180E8902002E4F0900DD5E0FF22FB
:108F9000901094E060030290279023807405F0A362
:108FA0007402F0EF6004E04410F0902382E4F0A338
:108FB000EDF090222CE0900E11F090222CE0442055
:108FC000F09020027480F0902280E054706004647D
:108FD00010704712ACBE24AAF582E434B0F583C009
:108FE00083C082901220E0D082D08375F002120AF2
:108FF000C0E493FF74019390108F12ACB390108F64
:10900000E0FEA3E0FFC3901092E09F901091E09EDD
:10901000500512ACE480E612ACEB902002E4F09034
:089020000E11E090222CF02259
:10C34C00EDD394024004007F1122EF6009ED4410FC
:0FC35C0090222CF0800690222C7430F07F00226B
:06CA880090222DEFF022C8
:10C7DB00EF90227E6005E04408F022E054F7F0224F
:10964600901212EFF0D394034004007F112290127F
:1096560012E0FE700A901093E07004007F1622E478
:10966600901213F0EEB4010D12CA687F011296C46F
:109676007401F08043901212E0B4020D12CA687FA2
:10968600021296C47402F0802F901212E0B40310F6
:1096960012CA687F0312A1439010937403F08018D6
:1096A600E4FF12A143E4FD7F107E27128BE59012A2
:1096B60013EFF0E4901093F0901213E0FF2212A142
:0596C600439010932207
:10C7EB00EFD394164004007F1122125DD57F0022F7
:10C7FB00EF6009AF0512C6F7439EC022539E3F223E
:0EC8A500EF600712CA59439CC022539C3F22E9
:10B8A400902281E0541FD39402402D9022BDE020C9
:10B8B400E0267F019022B0E04401F0E4FDFC9022F8
:10B8C400BDE030E004E4FF800B0DBD00010CBC03BF
:09B8D400EDBDE8EAEF70DD22226F
:08215D004112150041121400AB
:106C51009022EDE06580FF9022F0E05FFF9022EE50
:106C6100E06590FE9022F1E05EFE9022EFE065B0DB
:106C7100FC9022F2E05CFC9022F0E022E5E8F0AD2D
:106C81009AA9E9759A07E4F5E8F5E99022E1746EAD
:106C9100F09022E6E054FBF0E054E7F022E090228D
:106CA100E5F09022E27490F0D2D875E88075A88062
:106CB10022E0FEEFF4FCEE5CF022EEF0A3EFF0A395
:106CC100EDF0A3EBF09022F0E055B9FFE06F22E088
:106CD100FAA3E0FBEA9022E3F0A3EBF022E5A8F0AF
:106CE100E4F5A89022EBE0229022F1E055BAFFE012
:106CF1006F229022F2E055BCFFE06F22EF4404FFC7
:106D01009022EBE054E7F022AF058F9AD2D8538F4F
:106D1100BF22E0FEEFF4FFEE5FF022FFE054033309
:106D2100333354F8FEEF4E22EF9022E0F0E4F59A6F
:106D310022E0F5E8AF018FE92254012FFFE0FDA821
:036D41000608221F
:10B10A00ED24FF92FCEF6033EB4A700A9011A7E03E
:10B11A007004007F11229022E1746EF0126CD590B7
:10B12A0011A7E09022E5F0A3E054E7F0E04480F0B4
:10B13A00D2EC9022E0E04420F08009C2EC9022E0B8
:07B14A00E054DFF07F00225A
:10BD1A00900D1CEFF020E0069022E07498F0902736
:10BD2A0083E4F012CA68902780E4F0A3F0900D1C17
:0EBD3A00E030E007902203E0547FF07F00220B
:10BFED009022E074D8F090278074F6F0A37423F0BB
:10BFFD0012C007EF600312C0072212CA68E4FD7F6A
:07C00D00107E27128BE522D3
:109AA5009011F9EFF0A3EDF0A3EBF0E4FFFE9011B8
:109AB500F9E0FDA806088002C313D8FC9011FA123C
:109AC5006D3A8002C313D8FC9011FB126D3A8002E7
:109AD500C313D8FC54012FFF0EEEB407D1EFC39486
:109AE500024004007F1122E4FFFE12BDD1AFA8AEF3
:109AF500E8ADE99011F9E0547FF5A8A3E0F5E8A3F6
:109B0500E0F5E943A8807587010000E4F5A88DE933
:069B15008EE88FA8FF227C
:105CBB00900D1C126CBB6002800C126CE9600280B0
:105CCB0005126CF36004007F1522900D1FE0D39436
:105CDB00034004007F112212CA68E4900D26F0FFE6
:105CEB00FE12BDD1900D21126CDE900D27F090228B
:105CFB00E1E0900D25F09022E0E0900D24F0902251
:105D0B00E6E0900D23F0900D22126C7D900D20E0BB
:105D1B00FC9022E630E706E0547FF08004E04480FC
:105D2B00F09022E6C083C082E0900D1F126D1CD054
:105D3B0082D083F0900D1C126CD0900D1E126C9EB5
:105D4B007FB9EC30E004EF54DFFF900D20E030E141
:105D5B0003126CFD126D29E5D220E5FB126C516F1D
:105D6B00701DAF06A3E06F7016AF04A3E0B5040F70
:105D7B007587020000000000000000000080069004
:105D8B000D267412F0126D09900D22126D32900DCA
:105D9B0024E09022E0F0900D23E09022E6F0900DAD
:105DAB0025E09022E1F0900D27E09022EBF0900D92
:105DBB0021E0F5A8900D26E0600100E4FD7F107E48
:0A5DCB0027128BE5900D26E0FF2261
:106455009010A7126CBB6002800C126CE960028080
:1064650005126CF36004007F15229010AAE0D39406
:10647500034004007F1122E49010B1F07F107E27C5
:1064850012BDD19010AC126CDE9010B2F09022E1EA
:10649500E09010B0F09022E0E09010AFF09022E68E
:1064A500E09010AEF09010AD126C7D9010ABE0FC5A
:1064B5009022E630E706E0547FF08004E04480F067
:1064C5009022E6C083C082E09010AA126D1CD08293
:1064D500D083F09010A7126CD09010A9126C9E7FFB
:1064E500BAEC30E004EF54DFFF9010ABE030E1038D
:1064F500126CFD126D29E5D220E5FB126C516F700F
:106505001DAF06A3E06F7016AF04A3E0B5040F75C9
:1065150087020000000000000000000080069010C7
:10652500B17412F0126D099010AD126D329010AF6A
:10653500E09022E0F09010AEE09022E6F09010B0EE
:10654500E09022E1F09010B2E09022EBF09010ACD8
:0C655500E0F5A89010B1E0FF600100220A
:1075AA00901149EF126CC56002800C126CE96002FE
:1075BA008005126CF36004007F1522E490114FF0ED
:1075CA007F107E2712BDD190114A126CDE901150A5
:1075DA00F09022E1E090114EF09022E0E090114DFF
:1075EA00F09022E6E090114CF090114BE5E8F0AFF4
:1075FA009A126C82126CA37E9B901149E030E107CB
:10760A00EE4404FE126D01EE126D2AE5D220E5FB6E
:10761A009022EDE06580FE9022F0E05EFE9022EE80
:10762A00E06590FD9022F1E05DFD126C6B6E701DBD
:10763A00AE05A3E06E7016AE04A3E0B5040F75871D
:10764A000200000000000000000000800690114FB8
:10765A007412F0126D0B90114B126D3290114DE0B5
:10766A009022E0F090114CE09022E6F090114EE06A
:10767A009022E1F0901150E09022EBF090114AE054
:0B768A00F5A890114FE0FF6001002206
:10B15100EFD394074004007F16227401A8070880EA
:10B1610002C333D8FCFF9022EAE04FF0EB9022EDCE
:10B17100600BE04FF09022E7126CB28009126CB2C2
:10B181009022E7E04FF0ED9022F06005E04FF08073
:07B1910003126D137F002281
:10B19800EFD394074004007F16227401A8070880A3
:10B1A80002C333D8FCFF9022EBE04FF0EB9022EE85
:10B1B800600BE04FF09022E8126CB28009126CB27A
:10B1C8009022E8E04FF0ED9022F16005E04FF0802A
:07B1D80003126D137F00223A
:10B1DF00EFD394074004007F16227401A80708805C
:10B1EF0002C333D8FCFF9022ECE04FF0EB9022EF3C
:10B1FF00600BE04FF09022E9126CB28009126CB232
:10B20F009022E9E04FF0ED9022F26005E04FF080E0
:07B21F0003126D137F0022F2
:10953700EFF07F807E387D017C00A3120A53D302AF
:1095470009ECE0FCE4120336E4FBFA79C87842023E
:10955700028F120A537F007E127D7A7C0002093F38
:10956700E47F7BFEFDFC120A53C30209EC1201865D
:1095770012036AAB07AA06EB4A22ECF0A3EDF0A9A7
:1095870007E59A22E0FCA3E0FDE4020331C3EB9474
:1095970020EA940322AD03EDF0EAFF22FFE0FCA3EB
:1095A700E0FD22AD03EDF0EAFF22E47F7BFEFDFC48
:0895B70022FFE0FCA3E0FD220D
:05C45A007481F07F0178
:10C45F00ED600543F908800353F9F7EF600443E9F2
:06C46F00082253E9F72248
:0BC97400EF6004439A0822539AF72258
:10A2160090116812958120E304007F1222C39011E9
:10A2260069E09B901168E09A5004007F1122902506
:10A23600867420F0E96039901168E0FEA3E090256D
:10A2460083F0EEF9902582F090258512959C902555
:10A2560084F09025867409F0902583EDF090258290
:10A26600EFF0901168A3E0902585F0902584E9F041
:07A27600E490116CF0FF22DF
:10B54100E59A20E304007F12221295945004007FB3
:10B5510011229025867420F0EF601E902583EBF078
:10B56100EA902582F0A3E0902585F0902582E09075
:10B571002584F090258612C45AE49011ACF0FF2284
:109F2400901103129537501A90110412956750023C
:109F34008010901108E0FFD394635006EFC394019E
:109F44005004007F112290110412955990110AEEC9
:109F5400F0A3EFF0901108129549C004C005C006A3
:109F6400C00790110A12958BD003D002D001D00003
:109F74001295747003FA7B01901103E090110A1298
:0E9F840095A3901109E090116CF012A2162224
:0BC97F00EF6004439A1022539AEF224D
:10A27D0090116E12958120E404007F1322C390117A
:10A28D006FE09B90116EE09A5004007F1122902593
:10A29D008E7420F0E9603990116EE0FEA3E09025F8
:10A2AD008BF0EEF990258AF090258D12959C9025D6
:10A2BD008CF090258E7409F090258BEDF090258A09
:10A2CD00EFF090116EA3E090258DF090258CE9F0C4
:07A2DD00E4901172F0FF2272
:10B58100E59A20E404007F13221295945004007F71
:10B59100112290258E7420F0EF601E90258BEBF028
:10B5A100EA90258AF0A3E090258DF090258AE0901D
:10B5B100258CF090258E12C45AE49011B1F0FF222F
:109F920090110C129537501A90110D1295675002BC
:109FA2008010901111E0FFD394635006EFC3940127
:109FB2005004007F112290110D129559901113EE49
:109FC200F0A3EFF0901111129549C004C005C0062C
:109FD200C00790111312958BD003D002D001D0008C
:109FE2001295747003FA7B0190110CE09011131218
:0E9FF20095A3901112E0901172F012A27D2240
:0BC98A00EF6004439A2022539ADF2242
:10A2E40090117412958120E504007F1422C390110B
:10A2F40075E09B901174E09A5004007F1122902520
:10A30400967420F0E96039901174E0FEA3E0902582
:10A3140093F0EEF9902592F09025951295AA902548
:10A3240094F09025967409F0902593EDF090259281
:10A33400EFF0901174A3E0902595F0902594E9F046
:07A34400E4901178F0FF2204
:10B5C100E59A20E504007F14221295945004007F2F
:10B5D10011229025967420F0EF601E902593EBF0D8
:10B5E100EA902592F0A3E0902595F0902592E090C5
:10B5F1002594F090259612C45AE49011B6F0FF22DA
:109D6200901115129537501D1295B190111612953A
:109D72006D5002801090111AE0FFD394635006EFE9
:109D8200C394015004007F1122901116129559902C
:109D9200111CEEF0A3EFF090111A129549C004C005
:109DA20005C006C00790111C12958BD003D002D0BB
:109DB20001D0001295747003FA7B01901115E090A6
:109DC200111C1295B890111BE0901178F012A2E4C8
:019DD200226E
:0BC99500EF6004439A4022539ABF2237
:10A34B0090117A12958120E604007F1522C390119B
:10A35B007BE09B90117AE09A5004007F11229025AC
:10A36B009E7420F0E9603990117AE0FEA3E090250D
:10A37B009BF0EEF990259AF090259D1295AA9025C9
:10A38B009CF090259E7409F090259BEDF090259AFA
:10A39B00EFF090117AA3E090259DF090259CE9F0C9
:07A3AB00E490117EF0FF2297
:10B60100E59A20E604007F15221295945004007FEC
:10B61100112290259E7420F0EF601E90259BEBF087
:10B62100EA90259AF0A3E090259DF090259AE0906C
:10B63100259CF090259E12C45AE49011BBF0FF2284
:109DD30090111E129537501D1295B190111F1295B7
:109DE3006D50028010901123E0FFD394635006EF6F
:109DF300C394015004007F112290111F12955990B2
:109E03001125EEF0A3EFF0901123129549C004C081
:109E130005C006C00790112512958BD003D002D040
:109E230001D0001295747003FA7B0190111EE0902B
:109E330011251295B8901124E090117EF012A34BD6
:019E430022FC
:0BC9A000EF6004439A8022539A7F222C
:10A0D90090118012958120E704007F1622C3901108
:10A0E90081E09B901180E09A5004007F1122902515
:10A0F900A67420F0E9603C901180E0FEA3E0902571
:10A10900A3F0EEF99025A2F0AD039025A5EDF0EAB4
:10A11900FF9025A4F09025A67409F09025A3EDF0F1
:10A129009025A2EFF0901180A3E09025A5F090254D
:0AA13900A4E9F0E4901184F0FF2285
:10B64100E59A20E704007F16221295945004007FAA
:10B6510011229025A67420F0EF601E9025A3EBF037
:10B66100EA9025A2F0A3E09025A5F09025A2E09014
:10B6710025A4F09025A612C45AE49011C0F0FF222F
:109C0600901127129537501D1295B1901128129573
:109C16006D5002801090112CE0FFD394635006EF34
:109C2600C394015004007F11229011281295599077
:109C3600112EEEF0A3EFF090112C129549C004C03E
:109C460005C006C00790112E12958BD003D002D006
:109C560001D0001295747003FA7B01901127E0FF82
:109C660090112EE0FCA3E0FD90112DE0901184F000
:049C760012A0D9223D
:042165004111C5005F
:1074BE00E0FFE4FCFDFE1209D19011D6120A5F9096
:1074CE0011D6120A477808120A109011D6120A5FC6
:1074DE009011D622E0FFE4FCFDFE1209D19011DAE4
:1074EE00120A5F9011DA120A477808120A109011E8
:1074FE00DA120A5F9011DA22EFF0900DDC120A47D1
:10750E0078081209FD900DDC120A5F900DDC020A5C
:10751E0047EFF0900D52120A4778081209FD900DB0
:10752E0052120A5F900D52020A47902780E054FED5
:10753E00F022AC02AD017B107A007E21227F041274
:10754E00BCBC90219F7401F022E4F0902780E022D1
:10755E00E0FFE4FCFDFE22AC02AD01E0FB7A00226E
:10756E00120AECAE02AF01C3EE942322AC02AD01BF
:10757E007B087A007E2122AE02AF017B087A007C66
:10758E002122120A5FE4FB902780E022900DD802A0
:0C759E000ACCE04404F090219FE4F022AD
:10C12000900CFE12755720E00AE04401F0900CFEDE
:10C130007401F07F0012754012A000900CFEE060C8
:05C14000031275382216
:10C1450090122412755720E00AE04401F090122461
:10C155007401F07F3012754012A000901224E06047
:05C165000312753822F1
:10C47500E4FE902780E020E006E04401F07E019094
:0BC485002140EFF0EE6003127538223A
:10BC5E00900DDC12759020E005E04401F00B12759A
:10BC6E0019902141127506902142127506902143BA
:0FBC7E00127506902144EFF0EB60031275382227
:10BF2500E4900CFEF0902780E020E00AE04401F068
:10BF3500900CFE7401F07F4512757A12A000900CEA
:08BF4500FEE0600312753822D2
:10C49000E4FE902780E020E006E04401F07E019079
:0BC4A0002110EFF0EE6003127538224F
:10BC8D00900D5212759020E005E04401F00B1275F5
:10BC9D003290211112751F90211212751F902113D0
:0FBCAD0012751F902114EFF0EB6003127538220F
:10BF4D00E4900CFEF0902780E020E00AE04401F040
:10BF5D00900CFE7401F07F1512757A12A000900CF2
:08BF6D00FEE0600312753822AA
:06CA8E00902140E0FF22B0
:10BD480090214412755E1274C7120A53902143124F
:10BD580074BE120A539021421274BE120A539021E3
:0EBD68004112755E1209D11274D8120A4722D8
:08CA39007D4512758502A00085
:06CA9400902110E0FF22DA
:10BD760090211412755E1274EB120A53902113125D
:10BD860074E2120A539021121274E2120A5390219D
:0EBD96001112755E1209D11274FC120A4722B6
:08CA41007D1512758502A000AD
:08CA4900EF547F902194F022CC
:08CA5100EF547F902195F022C3
:10C80B00EF9021936005E04440F022E054BFF0220A
:10C81B00EF9021936005E04420F022E054DFF022FA
:10BCBC00EF7002800CEFD3941040028004EF30E060
:10BCCC0004007F1A22EFC31314FF902193E054E376
:0FBCDC00F0E0FEEF25E025E0FFEE4FF07F0022C5
:09C08800902780E04401F07F03E1
:10C09100EFD394034004007F1122902193E054FCDC
:0DC0A100F0E0FEEF5403FFEE4FF07F0022B1
:10676700900DD2EDF0900DCF12756E400DD3EF94D2
:10677700FFEE94245004007F182212759AE4120643
:10678700FB900DD2E0FED394794004007F1622EEF1
:10679700B40104007F172212C088900DD3120A4754
:1067A70012BC5E900DD7E0FF12C475E4FF12CA4910
:1067B70012754B900DD2E02402902300F0900DCF7C
:1067C700120ACC900DD21275657F017E2312A000AC
:1067D700902007E4F0900DD2E02402902008F0907A
:1067E7000DDB7412F0902180E054FBF0902003122F
:1067F70075A09011C1F0A3F0902180E030E207E48A
:10680700900DDBF080169011C1E475F0011207CCF2
:106817009011C1E0B402E1A3E0B458DC900DDBE0D5
:106827007030900DD2E02404FF12759AEF1206FB28
:10683700127550900DCF120ACCAE02AF0112759AA5
:10684700120693FB7A007D017C2312A00090219F02
:0E685700E4F0127538900DDBE0FF60010022C6
:105EEF00900D48EDF0900D4512756E400DD3EF9467
:105EFF00FFEE94245004007F1822900D4E120ACC0E
:105F0F00E41206FB900D48E0FFD3947D5006EFC3DB
:105F1F0094045004007F162212C088900D49120A73
:105F2F004712BC8D900D4DE0FF12C490E4FF12CAD2
:105F3F005112754B900D48E02402902400F0900D03
:105F4F0045120ACC900D481275657F017E2412A070
:105F5F0000902087E4F0900D48E02402902088F014
:105F6F00900D517413F0902180E054FDF090208338
:105F7F001275A09011C3F0A3F0902180E030E107DB
:105F8F00E4900D51F080169011C3E475F0011207E3
:105F9F00CC9011C3E0B402E1A3E0B458DC900D51F2
:105FAF00E0704990219F04F0900D45120ACCAE028B
:105FBF00AF01900D48E0FB7A007D017C2412A00018
:105FCF00900D48E0FFE42FF582E43424F583E07070
:105FDF0010EF24FCFF900D4E120ACCEF1206FB803F
:105FEF0006900D517414F090219FE4F012753890C3
:085FFF000D51E0FF60010022DA
:10216900410F2900420F270000420F6B0000410F69
:022179002655E9
:10C26500120ACC8F827583001206AC902542F0E449
:10C27500F583D2AF22902540E054BFF0E04440F072
:02C28500E422B1
:0BC9AB00EF60044398802253987F2225
:0EC8B300439810D2B7E4FB7D017F070280AEF0
:07C8E900E4900F29F07F012C
:06C8F000EF24FF92B722C5
:10710900901187EBF0AA07E59820E704007F102289
:10711900901188E0FED394094004007F1122EE24E7
:10712900FE601314601824FA601C24087020901162
:10713900897405F080209011897403F080189011EA
:10714900897404F08010901189740BF080089011F3
:1071590088E02402A3F0902540E4F0902543F090C4
:107169002540C083C082E0FF901189E0FE5403FCF2
:10717900EF4CD082D083F0902543E0FFEE540C13FE
:1071890013543FFEEF4EF0EA605AA2AFE433901178
:107199008AF0C2AFED24FF92FD901187E030E4033D
:1071A90012C8B3902540C083C082E0FF901187E0E8
:1071B900FE541CFDEF4DD082D083F0902540E04471
:1071C900C0F0D2EDEE20E412E4FF900F26E0902506
:1071D90042F0E4F5830FEFB410F090118AE024FF38
:0E71E90092AF8007902540E4F0C2ED7F0022B7
:10C36B00AE07E4FF12C8F0C2AF902542EE12C273C3
:0FC37B00900F29E060FA12C8E9900F6AE0FF22E4
:10B7F6009011FC120AECEDD394104004007F112244
:10B80600E4900F29F0FF12C8F0EFC39D500BC2AFB2
:10B816009011FC12C2650F80F0900F29E0B5050368
:0BB82600D38001C350F312C8E91F22B9
:10C5C50012C27AFEC2AF902542EF12C2730EEEB4CC
:08C5D50010F2900F26EFF02296
:10BB9D009011FF120AECEDD394104004007F112296
:10BBAD0012C27AFFC2AF9011FF12C2650FEFB4102F
:10BBBD00F39011FF120ACC120693900F26F07F001E
:01BBCD002255
:10B3BD00900F6BA3E0FFC3900F28E09FFFEF543F6A
:10B3CD00602C900F6BE0FEA3E0242AF582740F3EF3
:10B3DD00F583E01206FB900F6CE02401FF900F6BDC
:10B3ED007E00EF543FFFEEF0A3EFF07F01227F00D0
:01B3FD00222D
:109275007FF07EFF7D077C00120A53D30209ECAD17
:1092850007AC06ECF07C00E4120331783FE4FBFA0E
:10929500F912009502036AEFF0A3EDF0A3EBF0E5F8
:1092A5009822C3E49BFFE49AFE740199FDE498FCBF
:1092B500020A5FE024FF92AF7F0022E49010D6FE01
:1092C500FDFC020A53AF03E4FCFDFE120A5302083B
:1092D500B4E47B03FAF9F8020A47E0FEA3E0FFC312
:1092E500E49FFFE49EFE22900D02020A5FFB120A34
:1092F5004778080209FD901134120A5F9011342253
:0BC9B600EF6004439801225398FE221A
:1091E500900CFE12929C20E004007F1322900D014A
:1091F500E0FBD394624004007F1722A2AFE43390D2
:109205000D06F0C2AF900D02120A6B000007D09058
:109215000D021292CA1292EC900D021292D6120908
:109225003FE4FDFC1292EC900D02120A53900D02E0
:109235001292A7900D02120A479011E0EFF0900DDF
:10924500021292F29011DEEFF08B8AF58C5389F0C1
:10925500438901900CFFE024FF92B9A3E024FF921B
:109265008C900CFEE024FF92A9900D061292B82274
:10AF0A00A907E59820E004007F1322A2AFE433905A
:10AF1A001190F0C2AF90118E1292DF9011E0EFF013
:10AF2A00EEFF9011DEF09011E0E0F58A8F8C5389E4
:10AF3A00F0438901ED24FF92B9EB24FF928CE924B6
:0AAF4A00FF92A99011901292B82214
:0BC9C100EF6004439802225398FD220F
:1094AD0090113012929C20E104007F142290113310
:1094BD00E0FBD394624004007F1822A2AFE4339006
:1094CD001138F0C2AF901134120A6B000007D09022
:1094DD0011341292CA1292FB1292D612093FE4FD78
:1094ED00FC1292FB120A539011341292A790113470
:1094FD00120A479011E1EFF09011341292F290118F
:10950D00DFEFF08B8BF58D53890F4389109011315F
:10951D00E024FF92BBA3E024FF928E901130E02453
:0A952D00FF92AB9011381292B822A1
:10AF5400A907E59820E104007F1422A2AFE433900E
:10AF64001196F0C2AF9011941292DF9011E1EFF0BC
:10AF7400EEFF9011DFF09011E1E0F58B8F8D538996
:10AF84000F438910ED24FF92BBEB24FF928EE9243A
:0AAF9400FF92AB9011961292B822C2
:0BC9CC00EF6004439804225398FB2204
:1072E4009010D312929C20E204007F15227F051295
:1072F40092C0C31209EC500C9010D612927540043F
:10730400007F19227FF87EFF7D037C009010D61247
:10731400927D400E9010DB7440F09010DA7406F009
:1073240080447FFC7EFF7D017C009010D612927D0C
:10733400400E9010DB7420F09010DA7405F0802673
:10734400E47FFE7EFFFDFC9010D612927D9010DB50
:10735400400B7410F09010DA7404F080097408F093
:107364009010DA7403F07F081292C01208B4C007B8
:107374009010DBE0FBE4FAF9F8D00712093FE412BD
:10738400032C78BF1292929010DC129284A2AFE484
:1073940033FEC2AF53A9F09010D3E060279010DC05
:1073A400E0F5AA8FAC9010D4E024FF92F9A3E0603A
:1073B4000C9010DAE025E0440142A9800353A9FEB1
:0D73C400D2E98002C2E9AF06EE1292B922B2
:0BC9D700EF6004439808225398F722F9
:106962009010DD12929C20E304007F1622E47F0542
:106972009010E01292C4C31209EC500C9010E01275
:1069820092754004007F1A227FF87EFF7D037C000F
:106992009010E012927D400E9010E57440F090103D
:1069A200E47407F080447FFC7EFF7D017C00901040
:1069B200E012927D400E9010E57420F09010E47485
:1069C20006F08026E47FFE7EFFFDFC9010E012922E
:1069D2007D9010E5400B7410F09010E47405F08087
:1069E200097408F09010E47404F0E47F08FEFDFCE2
:1069F2009010E01292D0C0079010E5E0FBE4FAF9A3
:106A0200F8D00712093FE412032CE4FBFAF978BF2D
:106A12001292969010E6129284A2AFE433FEC2AFB5
:106A220053A90F9010DDE060299010E6E0F5AB8FDE
:106A3200AD9010DEE024FF92FBA3E0600E9010E424
:106A4200E0C43354E0441042A9800353A9EFD2EBCF
:0B6A52008002C2EBAF06EE1292B922E8
:105B9B000709433B0B0709433B0B0707433B0B072A
:105BAB00078B3B0B07078B040B07078B04040707BB
:105BBB008B0404040B048B061705078B0404040DDC
:105BCB008B0404040D000B0B040400008B0617055B
:105BDB000000061705000000170500000000050077
:105BEB000000000004070000000007000000000098
:105BFB001D0B000001000B00000100000000010064
:105C0B000000000100000000010000000000000087
:105C1B000000000000000000000000000000000079
:105C2B000000000000000000000000000000000069
:105C3B000000000000000000000000000000000059
:105C4B000000000000000000000000000000000049
:105C5B00C393C7712FEE93C7712FEE77C7712FEEDA
:105C6B007703712FEE7703342FEE7703341AEE7729
:105C7B0003341A0D658B021703077703341A0D02D1
:105C8B0003341A0D02001A0D120900000217030744
:105C9B0000001703070000000307000000000700C7
:105CAB0000000000070200000000020000000000DE
:10217B00420E1E0000420E140000420E22000042CE
:10218B000E180000410E1C01420E200000420E16DC
:10219B000000420E240000420E1A0000410E1D01E9
:1085CE00E4FAF9F8900D00120A4712B2B2EF243015
:1085DE00902510F0900D00020A47E4FAF9F812B255
:1085EE00B2AC00AD01AE02AF03900D00020A5FFF08
:1085FE00C3E09FFF7E00EF543FFFAD01ED24FF224D
:10860E00FF120ACCEF1206FB901220E0FF900D161F
:10861E00E075F006A422F583E5822FF582E435831A
:10862E00F583E49322E433F0C2E8A2ACE43322E40F
:10863E0033F0C2E8A2AEE43322A2AFE433FFC2AFFE
:10864E0022C374409FFFE49EFED3EF9403EE94008A
:10865E0022E4F0A3E0543FF022E01206FBE4F5839F
:10866E00EF24FF92AF7F0122120ACC8F8275830016
:03867E000206AC45
:1057D200900D0C120AECE4900D15F0120BD1584406
:1057E2000000012C584B000002585853000004B02E
:1057F200585B000009605863000012C0586B00003B
:105802002580587300003840587B00004B005883B5
:1058120000009600588B0000DAC058930000E100A7
:10582200589B0001C20058A30003840058AB000734
:10583200080058B30008CA0058BB001194000000C9
:1058420058C3E4900D16F0807E900D167401F0801E
:1058520076900D167402F0806E900D167403F0802F
:1058620066900D167404F0805E900D167405F0803B
:1058720056900D167406F0804E900D167407F08047
:1058820046900D167408F0803E900D167409F08053
:1058920036900D16740AF0802E900D16740BF0805F
:1058A20026900D16740CF0801E900D16740DF0806B
:1058B20016900D16740EF0800E900D16740FF08077
:1058C20006900D157412F0900D15E07049128616AF
:1058D200249BF582E4345B128624900D0C12860E12
:1058E20024FBF582E4345B128624900D0F12860E9F
:1058F200245BF582E4345C128624FF900D12120AB6
:10590200CCEF1206FB900D12120ACC12069370060F
:0C591200900D157412F0900D15E0FF22AE
:0BC9E200EF6004439820225398DF22EE
:107D88009010E7EFF0A3EDF0E59820E504007F10F0
:107D980022E4FF9010E7E060239010E9120A477B85
:107DA800017A1079EE900D0F120AEC7A1009900DF5
:107DB80012120AEC7A10091257D2800BE49010F0D4
:107DC800F09010EEF0A3F0EF6002002212864790C8
:107DD8002505E4F09025037480F09010EFE09025DD
:107DE80000F09010EEE0902501F09010F0E0902562
:107DF80007F0902503E4F0902507F09010E7E06085
:107E0800389025027481F09010EDE0FE543F9025E3
:107E180003F0902501E4F0EE20E604E04401F09040
:107E280010EDE020E707902501E04402F0D2AC9085
:107E380010E8E024FF92BC8009902501E4F0C2AC70
:0A7E4800C2BCEF24FF92AF7F0022BE
:10C2CA00A2E8901225128633F9C2AC900E14A3E0AC
:10C2DA00900E1F1285FD92AC901225E024FF92E881
:01C2EA002231
:10C2EB00A2E8900DC8128633F9C2AC900E18A3E0E9
:10C2FB00900E231285FD92AC900DC8E024FF92E8BE
:01C30B00220F
:10A8A100AC0712C2EB12864F40F8A2E8E433FF1264
:10A8B1008636FEC2AC900E1CE06010E4F0C2AF9090
:10A8C1002500ECF0E4F583D2AF8022900E22E0FA6D
:10A8D100A3E024A6F582740E3AF583ECF0900E22E3
:10A8E100E475F0011207CC900E2212865FEE24FF70
:08A8F10092ACEF24FF92E82273
:10AB57009011E2120AEC12C2CAEF4E7002FF22A253
:10AB6700E8E4339011E5128635FFC2AC900E14E489
:10AB770075F0011207E2FC742625F0F582740E3C8D
:10AB8700F583E0FE9011E2120ACCEE1206FB900E5E
:10AB97001412865FEF24FF92AC9011E5E024FF9238
:04ABA700E87F012220
:10C70B00E4FF900E1CE070010F902505E020E50280
:03C71B007F012279
:10AE2600900DC8120AEC902501E030E1037F132251
:10AE3600EDD3941040037F1422902505E030E5F908
:10AE4600E4FFEFC39D5022A2AFE433900DCBF0C2D6
:10AE5600AF900DC8128676902500F0E4F583900D2C
:0CAE6600CBE024FF92AF0F80D97F0022C8
:10C6BB00902505E030E00A12864790250012866728
:04C6CB00227F0022A8
:0BC9ED00EF6004439840225398BF22E3
:107E5200900CFEEFF0A3EDF0E59820E604007F1011
:107E620022E4FF900CFEE06023900D00120A477B93
:107E7200017A0D7905900D0F120AEC7A0D09900D19
:107E820012120AEC7A0D091257D2800BE4900D07F8
:107E9200F0900D05F0A3F0EF6002002212864790E9
:107EA2002515E4F09025137480F0900D06E09025DE
:107EB20010F0900D05E0902511F0900D07E090254F
:107EC20017F0902513E4F0902517F0900CFEE06077
:107ED200389025127481F0900D04E0FE543F9025F5
:107EE20013F0902511E4F0EE20E604E04401F09056
:107EF2000D04E020E707902511E04402F0D2AE9095
:107F02000CFFE024FF92BE8009902511E4F0C2AE7E
:0A7F1200C2BEEF24FF92AF7F0022F1
:10C1D900A2E8900D4512863DF9C2AE900E16A3E075
:10C1E900FFC3900E211285FF92AE900D45E024FF0A
:03C1F90092E822A7
:10C1FC00A2E8900DC812863DF9C2AE900E1AA3E0CB
:10C20C00FFC3900E251285FF92AE900DC8E024FF5F
:03C21C0092E82283
:10A84800AC0712C1FC12864F40F8A2E8E433FF12AD
:10A858008640FEC2AE900E1DE06010E4F0C2AF90DC
:10A868002510ECF0E4F583D2AF8023900E24E0FAB3
:10A87800A3E024E6F582740E3AF583ECF0900E24FA
:10A88800E475F0011207CCE4900E24128660EE24E1
:09A89800FF92AEEF24FF92E822CA
:10AAAD00900D41120AEC12C1D9EF4E7002FF22A295
:10AABD00E8E433900D4412863FFFC2AE900E16E4CB
:10AACD0075F0011207E2FC746625F0F582740E3CF8
:10AADD00F583E0FE900D41120ACCEE1206FBE490D8
:10AAED000E16128660EF24FF92AE900D44E024FF07
:05AAFD0092E87F012238
:10C71E00E4FF900E1DE070010F902515E020E5025C
:03C72E007F012266
:10AE7200900DC8120AEC902511E030E1037F1322F5
:10AE8200EDD3941040037F1422902515E030E5F9AC
:10AE9200E4FFEFC39D5022A2AFE433900DCBF0C28A
:10AEA200AF900DC8128676902510F0E4F583900DD0
:0CAEB200CBE024FF92AF0F80D97F00227C
:10C6CF00902515E030E00A128647902510128667F4
:04C6DF00227F002294
:108C83001285F71285E2EC3350181285E21209DEE1
:108C93001285F7902510742DF0902515E020E50836
:108CA30080F79025107420F0E47B107A271285D08A
:108CB300E47B107A271285EA902515E030E5F9E484
:108CC3007BE87A031285D0E47BE87A031285EA9085
:108CD3002515E030E5F97B641285CE7B641285E8C7
:108CE300902515E030E5F97B0A1285CE7B0A1285C3
:108CF300E8902515E030E5F91285E2EF2430902560
:108D030010F0902515E030E5F99025107420F090CF
:0D8D13002515E030E5F9E47F01FEFDFC22AE
:09CA2000C2AF75D25575D2AA22ED
:0BC9F800EF6004439201225392FE22E4
:10B8DD00E59220E004007F1022EDD3940F40040088
:10B8ED007F1122A2AFE433FEC2AFEF600C12CA2269
:10B8FD00ED540F4440F5D2800612CA2275D280AFA6
:09B90D0006EE24FF92AF7F002238
:10BF750090FFFF120C0BA2AFE433850D83850E8273
:10BF8500F012CA2043D240850D83850E82E024FF3E
:08BF950092AF900001020C0BB9
:10BDD100A2AFE433FCC2AFEF4E600E901216EEF04C
:10BDE100A3EFF07D0F7F018009E4901216F0A3F01C
:0DBDF100FDFF12B8DDAF04EC24FF92AF227D
:10C60D00EFD3940F4004007F112212CA20EF540F74
:07C61D00F5D243920180FEFB
:10B3FE00900D41120AEC7F007E10E4900D44F0FD9A
:10B40E00EF2DF582E43EF583E493FC900D44E02CA1
:10B41E00F0900D41120ACC8D82758300EC12070D4F
:10B42E000DEDB440DB900D44E070037F01227F00F0
:01B43E0022EB
:0421AB0041122600B7
:10C6E300F0C2AF9027A6E04480F0E4F583D2AF9088
:04C6F3001226F022F9
:0BCA0300EF6004439940225399BF22CA
:1097CD00E59920E604007F1022E4901226F0902700
:1097DD00AA04F09027A974A5F0EB600D9027ACE4D6
:1097ED00F09027AB748CF080109027AAE09027ACF6
:1097FD00F09027A9E09027ABF09027B2E4F09027E6
:10980D00B17464F09027AF745AF0A374B4F090273C
:10981D00ADF0A3745AF09011E9E09027A2F09027D3
:10982D00A6742FF0ED600543F901800353F9FEEFA7
:0D983D00600543E901800353E9FE7F00222E
:10B98700E59920E604007F10229027A4EFF0902786
:10B99700A77408F0A3742912C6E37F12FDFC901266
:10B9A70026E06004E4FF800B0DBD00010CBC75EEC2
:08B9B700BD30EBEF600100223E
:10BB6B00E59920E604007F10229027A77406F0A326
:10BB7B000412C6E37F11FDFC901226E06004E4FF83
:10BB8B00800B0DBD00010CBC75EEBD30EBEF600101
:02BB9B00002286
:10BBCE000A0D2045564B203A204C49422056322E23
:10BBDE003500000000000000000000000000000022
:10BBEE000000000000000000000000000000000047
:108D2000A37429F004F004F07429F004F004F07442
:108D300029F004F004F022900D1F7412F0A37403C4
:108D4000F0A32274039022CFF09022CE22900D1F28
:108D50007413F0E4A3F0A322F0A3F0A3F0A3F0A314
:108D6000F0A3F022900D1F7413F0A37401F0A3225E
:108D700074029022CFF09022CE22F09022497463A8
:108D8000F0A37455F0229022B0E04401F0E4FEFF1D
:108D900022F07464A3F0A37404F02274C0F0A374EE
:108DA00070F090223C7490F02224A69022BFF090A4
:0D8DB00022BEE4F022A3F0A37450F0A32231
:10984A00EFD394054025902232743AF0A37434F091
:10985A00902238128D9B9022427411F09022457406
:10986A001E128D7A90224D7426804C902232744AB0
:10987A00F0A37416F090224214F09022457423F05B
:10988A00EFC39405902238401A128D9B9022497496
:10989A0021F0A304F090224D04F0A37499F0A3746C
:1098AA0007F0227450F0A374B0F090223C74501266
:0B98BA008D7A90224D7412128D9122C5
:107B090090278074F6F0A37423F09022B07440F0AB
:107B19009022C67480F09022C274B0F09022117441
:107B290002F090220C7405F09022207480F0A3E4F6
:107B3900F0A37485F09022B97402F0A37463F090F5
:107B490022B774CFF0A3E4F09022C8745FF0A37455
:107B590009F0EF30E0047E0E80027EA29022CAEE88
:107B6900F07408128D94A3E4F0740B128D45740F10
:107B7900F0902230744AF0902232F0A37416F0EF9C
:107B890030E0047E4B80027E4D902235EEF0EF30DE
:107B9900E0047FC680027FCD902236EFF0745C123C
:107BA9008DB574B0F090223B7450F0A3F090224050
:107BB9007420F0A3F0A37415F0A37410F0A3F0A33C
:107BC9007423128D7AA374E1F090224D7412128DF0
:0E7BD9009190221D7485F09022E1746EF022CE
:10A8F900AE07EE6003B4010790222174018010EEC7
:10A90900902221B40208E4F0A374E5F08006E4F093
:10A91900A37485F0AF0612984AEED39405400D90C2
:10A9290022197410F09022CA74D5F022EEC394054E
:10A93900902219400A7410F09022CA74AAF022E4F5
:08A94900F09022CA74A2F02272
:10567800E4900D1EF0EF8EF0120BA456C709655684
:10568800D0096A56D9096F56E2097456EB0979565A
:10569800F4097E56FD098357060988570F098D5767
:1056A800170992571F09975727099C572F09A15780
:1056B8003709A6573F09AB574709B00000574F12A3
:1056C8008D377428F0025755128D377450F00257F1
:1056D80055128D377478F0025755128D3774A0F033
:1056E800025755128D3774C8F0025755128D37740A
:1056F800F0F0025755128D4D7418F0025755128D5F
:105708004D7440F0025755128D4D7468F0803E126A
:105718008D4D7490F08036128D4D74B8F0802E1235
:105728008D4D74E0F08026128D647408F0801E128E
:105738008D647430F08016128D647458F0800E12E7
:105748008D647480F08006900D1E7417F0900D1E05
:10575800E0FF6001229022BE74C0F09022B4740170
:10576800F0900D1FE09022B1F0900D20E09022B251
:10577800F0900D21E09022B3F09022B0E04401F0C7
:10578800900D1E7414F0E4FFFE9022BDE030E00797
:10579800E4900D1EF0800B0FBF00010EBE27EABF7C
:1057A80010E7900D1EE0601C128D869022BDE0303F
:1057B800E007E4900D1EF0800B0FBF00010EBE271E
:0957C800EABF10E7900D1EE0FF9E
:0157D10022B5
:085A5F00901202EEF0A3EFF03B
:105A6700C3945AEE94094010901202E0FCA3E0FDA3
:105A7700D394CBEC940940037F112290120474173E
:105A8700F0ED8CF0120BA45AD209655AD4096A5A60
:105A9700DB096F5AE209745AE909795AF0097E5A03
:105AA700F709835AFE09885B05098D5B0C09925B30
:105AB7001309975B1A099C5B2109A15B2809A65B5F
:105AC7002F09AB5B2F09B000005B3A80009022C220
:105AD70074D280599022C274D180529022C274D15C
:105AE700804B9022C274D180449022C274D0803DF2
:105AF7009022C274D080369022C274D0802F902218
:105B0700C274D080289022C274CF80219022C274A0
:105B1700CF801A9022C274CE80139022C274CE8096
:105B27000C9022C274CE80059022C274CDF0E4900E
:105B37001204F0901204E0FF6001229022B0E044CA
:105B470002F0901202A3E0128DA99012047414F0CF
:105B5700E4FFFE9022BDE030E007E4901204F080FD
:105B67000B0FBF00010EBE27EABF10E7901204E03B
:105B7700601C128D869022BDE030E007E49012048D
:105B8700F0800B0FBF00010EBE27EABF10E790128F
:035B970004E0FF28
:015B9A0022E8
:10846100C3EF9465EE94094009D3EF94B0EE9409FB
:1084710040037F1122C3EF94B0EE9409400590228E
:10848100C28033C3EF949CEE940940089022C274D9
:10849100B3F08025C3EF947EEE940940089022C288
:1084A10074B4F08014C3EF9465EE94099022C24035
:1084B1000574B5F0800374B2F0D3EF947EEE9409A5
:1084C1009022B950057422F080037402F09022B01A
:1084D100E04402F0EF128DA97D14FFFE9022BDE071
:1084E10030E004E4FD800B0FBF00010EBE27EDBF9D
:1084F10010EAED6019128D869022BDE030E004E4AF
:10850100FD800B0FBF00010EBE27EDBF10EAE4FE98
:08851100FF6003125678AF056C
:01851900223F
:0CC91A009022BFE0245AFFE43409FE2202
:105DD500EF120B7E5E22005E29015E36025E3F03F6
:105DE5005E46045E4D055E54065E5B075E62085EB8
:105DF5006F095E760A5E830B5E8A0C5E910D5E9E70
:105E05000E5EAA0F5EB1105EBE115EC4125ECB13AC
:105E15005ED2145ED9155EE51600005EEE9022CFC7
:105E2500740B80059022CF7404F09022CE740FF08D
:105E3500227405128D72740BF022128D43740AF0D0
:105E450022128D707409F022128D437407F022120C
:105E55008D437406F0229022CF740380059022CFE3
:105E65007401F09022CE7405F022128D707404F046
:105E7500229022CF7407F09022CE7403F022902254
:105E8500CF740280199022CF740C80059022CF74B4
:105E950004F09022CE7402F0229022CF7401F0908B
:105EA50022CE04F0229022CF741F80059022CF7459
:105EB5000FF09022CE7401F022128D7014F0229012
:105EC50022CF7401801E9022CF741F800C9022CFA8
:105ED500740880059022CF7401F09022CEE4F02260
:0A5EE5009022CFE4F09022CEF022CC
:10A14300EFB401079022707424F022EF64026005DB
:10A15300EF6403703990278074FEF0902219740124
:10A16300F09022707427F0902280E030E0F9902282
:10A17300807423F0A37407F0EF902270B403057486
:10A1830077F080037422F09022817460F02290278C
:10A193008074F6F0902219E4F09022807480F0A38A
:0AA1A300746CF09022707480F022BA
:10C6F700EF9022926008740EF0A37402F022740186
:04C70700F0A3F02289
:08CA5900902290E054C0F0228D
:10A1AD00EF30E00C902720E4128D58A3128D582229
:10A1BD00EF90272030E7297404F0A374E2F0A37424
:10A1CD0004F0A374E2F0A37414F0A37410F0A3E4EC
:10A1DD00F074FA128DB5F0A374A0F0A37464F0229C
:10A1ED007402F0A37471F0A37402F0A37471F0A360
:10A1FD00740AF0A37408F0A3E4F0A3747CF0A374C4
:09A20D0028F0128DB57432F02224
:1073D100902785E090228230E272E4F00000000004
:1073E10000000000128D2000000000000000007469
:1073F10029F0000000000000000000000000000073
:10740100000000000000000000000000000000007B
:10741100000000000000000000000000000000006B
:10742100000000000000000000000000000000005B
:10743100000000000000000000000000000000004B
:10744100000000000000000000008010E4F00000D7
:107451000000128D20000000007429F000000000DF
:10746100000000000000000000000000000000001B
:10747100000000000000000000000000000000000B
:1074810000000000000000000000000000000000FB
:1074910000000000000000000000000000000000EB
:1074A10000000000000000000000000000000000DB
:0D74B100000000007440F090228214F022D0
:050006007EBB7FCE224D
:103503002023232045413D302C20496E746572727F
:103513007570742044697361626C656420232300B1
:103523002023232055415254303A496E74657272F8
:103533007570742044697361626C65642023230091
:103543002023232055415254313A496E74657272D7
:103553007570742044697361626C65642023230071
:10356300202323205541525430203A20496E74655C
:1035730072727570742044697361626C6564202390
:103583002300202323205541525431203A20496EF1
:10359300746572727570742044697361626C6564DA
:1035A300202323000A002025303278000A205B4DB7
:1035B30049425D000A204368616E3D257520282538
:1035C30075204D487A292C2000202050616E4944F3
:1035D3003D307825303478000A2053686F72744187
:1035E3006464723D30782530347800203A4945458B
:1035F300454164647228307E37293D3078000A20C3
:1036030044737453686F7274416464723D307825F7
:1036130030347800203A4473744945454541646425
:103623007228307E37293D3078000A204461746166
:10363300526174653D3078253032782C2000203A71
:1036430054785077724C6576656C3D30782530320E
:10365300782C200020204E6F41636B526574727981
:103663003D257500203A4261636B6F66665265744F
:1036730072793D2575000A205B52582D4D41432D2B
:10368300504B545D000A2044534E3D307825303270
:10369300782C204F4F423D30782530327800203A45
:1036A30064426D3D256400203A436F72723D256488
:1036B300000A204473742E204D6F64653D2530321B
:1036C3007800203A50616E49443D30782530347893
:1036D30000203A53686F7274416464723D307825F8
:1036E30030347800203A4945454528307E37293D16
:1036F3003078000A205372632E204D6F64653D2598
:10370300303278000A204D534455204C656E3D25D8
:10371300303275203A2000203A4D534455203D0065
:103723000A203D3D3D2048494220446973706C6145
:1037330079203D3D3D000A2049454545204144440B
:1037430052284C53427E4D534229203A000A2043CB
:10375300686970496E646578203D20307825303281
:10376300780020284D4732343030290020284D4737
:1037730032343558290020284D4732343730290058
:1037830020284D4732343630290020284D47323423
:10379300313029002028556E636C61737369666943
:1037A300656429000A204368616E6E656C202020E1
:1037B3003D20257520282575204D487A29000A20AB
:1037C300537461636B49442020203D2030782530B9
:1037D3003278000A205478506F7765722020203D9C
:1037E3002030782530327800202020204461746115
:1037F3005261746520203D20307825303278000AEC
:103803002050616E494420202020203D203078251F
:10381300303278253032780020204E776B41646453
:103823007220203D203078253032782530327800E0
:103833000A205365634C6576656C20203D20307803
:10384300253032780020202020507265436F6E6649
:103853006967203D20307825303278000A204E57A2
:103863004B204B657920284C53427E4D53422920EF
:103873003A000A205265736572765F30284C5342D2
:103883007E4D534229203A000A20455049442020C6
:103893002020284C53427E4D534229203A000A20CF
:1038A3005265736572765F31284C53427E4D5342A5
:1038B30029203A000A2047656E6572616C576F7262
:1038C3006430203D2030782530327825303278003E
:1038D3000A2047656E6572616C576F726431203DD3
:0C38E30020307825303278253032780013
:1021AF00420FDD0000420FDF0000420FE10000424E
:0921BF000FE30000420FE50000EF
:1041F9001208A7901085120A5F901085120A539031
:104209001082E075F064A4FFAEF0E4FCFD1208A78B
:10421900901085120A5F901085120A5375F00A9062
:104229001081E0A4FFAEF0E4FCFD1208A790108510
:10423900120A5F90108522120ACC9000191206AC5E
:10424900FFE4900D5AF0A3EFF07BFF2290000112DA
:104259000823FF900DD3120ACC900DD9E0FDF58209
:10426900758300EF12070D900DD0120ACC90000152
:10427900120823E5F0FFED2401FDE433FC900DD392
:10428900020ACC8D828C83EF12070D900DD0020AA1
:10429900CCF9E43AFAE4900D53F07D08FC22900D34
:1042A900D9E0F582758300ED12070DEEFF900DD967
:1042B900E0F58275830022901205120ACC90000461
:1042C900120823FF900D5AE5F02290115A120ACCD8
:1042D9001207F8FFE5F0C4F854F0C868FEEFC454BB
:1042E9000F48FFEE8FF012085B90115FE0229010EB
:1042F90081E0901080F0901082E0901081F0901091
:1043090083E0901082F0901084E0901083F0E4A391
:10431900F090107FE014F022901082E0FF7E007C84
:10432900037DE812072FE4FCFD221206ACFF900D75
:104339005AE4F0A3EFF022120A47E47B107A27F936
:10434900F80208B4901208120ACC9000080206ACD0
:10435900FFFD900D5AE4F0A3EDF07E007C007D0591
:1043690012072FEF242EFFEE3409A32274852FF5AF
:1043790082E4340DF58322901161120ACC0206936E
:10438900120A53901080E0FFE4FCFDFE22E92401AB
:10439900F9E43AFA020693120AEC7BFF7A3579A717
:1043A9007F0122901205120ACC9000020206AC8D00
:1043B900828C83EF12070D900DD9221206ACFF9063
:1043C9000D5CE422E475F0010207CCC4540F120617
:1043D900FB901166E022EF24D090107DF090107FC1
:1043E900E0C3940422120A5390107DE0FF3395E054
:1043F900FEFDFC22900DC5E0FFC3944022F0E4F5D8
:1044090083900DCEE024FF92AF2290000C0206ACFF
:1044190090000B0206AC901205020ACCEFF0A31231
:104429000AECE4222402FFE433FEE92FF9EA3E22F2
:10443900120A53901080E075F00A22900DD9E07E9F
:104449000029F9EE3A22FF900DD6020ACC900DC54B
:0D445900E004F02290115A120ACC0207F87C
:10C21F00900DC6EFF0902501E0900DC630E105E0DE
:10C22F00FF02A8A1E0A3F07B017A0D79C77D01126F
:03C23F00AE262206
:10BEAA009011EA120AEC902501E09011EA30E008BC
:10BEBA00120ACC12AB578006120ACC12C6BB9011DA
:09BECA00EDEFF09011EDE0FF2214
:10C24200900DC6EFF0902511E0900DC630E105E0AB
:10C25200FF02A848E0A3F07B017A0D79C77D0112A5
:03C26200AE722297
:10BED3009011EE120AEC902511E09011EE30E0087B
:10BEE300120ACC12AAAD8006120ACC12C6CF901148
:09BEF300F1EFF09011F1E0FF22E3
:109C7A00900DCA120AECA2AFE433900DCEF0C2AF37
:109C8A00902500740AF0740DF0902510740AF0748F
:109C9A000D124406902505E030E5F9902515E030CF
:109CAA00E5F9E4900DCDF0900DCA120ACC12C6A6C1
:109CBA00900DCDE0C39FE49E5029A2AFE433A3F0F8
:109CCA00C2AF900DCA120ACC900DCD1242B912063B
:109CDA00AC902500F0902510124406900DCDE004BA
:049CEA00F080C42220
:109B1B00900DC6EFF020AF3D7BFF7A357903129B9A
:109B2B0089900DC6E0700B20AC087BFF7A3579234A
:109B3B008010900DC6E0B4010C20AE097BFF7A3586
:109B4B007943129B89C2AF75D25575D2AA75D20AC9
:109B5B0043920180FE900DC6E0700B20AC087BFF9A
:109B6B007A3579638010900DC6E0B4011020AE0DEC
:109B7B007BFF7A357985A3120AEC129C7A22A31209
:069B8B000AEC129C7A2294
:10894500900D57120AEC900D56EFF0129B1BE49018
:108955000DC5F01243FD500A124375E4F01244565A
:1089650080F17B017A0D795A900D82120AEC900DF7
:1089750057120ACC900DC6120AEC900D82120ACC41
:10898500900DC9120AEC7B017A0D798512AFE8903A
:108995000D56E030E02BE4900DC5F01243FD504C30
:1089A500124375E0FF604512C242900DC5E0248573
:1089B500124378E0B40A057F0D12C2421244568074
:1089C500DAE4900DC5F01243FD5021124375E0FF26
:1089D500601A12C21F900DC5E02485124378E0B4D9
:0D89E5000A057F0D12C21F12445680DA22CF
:106D440090115912442590115FF0F5F012085B7F01
:106D5400107E2712BDD1901159E030E04C7B017AAE
:106D640011795E12BED3EF60E6126E2860129011A4
:106D74005FE0640460D990115EE0FF12C242804A71
:106D840090115EE064087018A3E060147F0812C2DA
:106D9400427F2012C2427F0812C2421242D314F030
:106DA40090115EE0640D70A7227B017A11795E1266
:106DB400BEAAEF609A126E28603E90115FE06404F0
:106DC400608D90115EE0FF12C21F12445DC4F8543E
:106DD4000FC868FFE5F0C454F0488FF012085B1246
:106DE400445DFF90115DE0FD3395E045F0FEEF4D0D
:106DF4001242EB04F0026D5390115EE064087018C7
:106E0400A3E060147F0812C21F7F2012C21F7F08F4
:106E140012C21F1242D314F090115EE0640D60039D
:106E2400026D532290115EE0FF12C03B90115DEFA2
:036E3400F0F42255
:10786400901160124425901166F01206FB7F107E81
:107874002712BDD1901160E030E04F7B017A11797D
:107884006512BED3EF60E61279386012901166E09B
:10789400640260D9901165E0FF12C242804D9011DC
:1078A40065E06408701BA3E060177F0812C2427F82
:1078B4002012C2427F0812C2421243801243D414DF
:1078C400F0901165E0640D70A4227B017A11796552
:1078D40012BEAAEF6097127938602A901166E064AC
:1078E40002608A901165E0FF12C21F124380C454E3
:1078F400F01206FB124380FF901164E04F1243D74D
:1079040004F0027871901165E06408701BA3E060D4
:10791400177F0812C21F7F2012C21F7F0812C21FC6
:107924001243801243D414F0901165E0640D600397
:1079340002787122901165E0FF12C03B901164EF50
:03794400F0F4223A
:1049050090107912442590107FF0F5F012085BE4C1
:10491500901080F0A3F0A3F0A3F0A3F07F107E2702
:1049250012BDD1901079E020E003024A007B017AA4
:1049350010797E12BED3EF60E390107EE0FFC39442
:1049450030405BEFD3943950551243DF5003024991
:104955009D90107FE0640470C390108312438F1202
:104965004236124340124236120A53C00012432106
:10497500D000124233120A5375F0641242281244D1
:104985003912422C1243EE124233120A47E4FEED6D
:104995004C708990107EE0FF12C242024A8490104A
:1049A5007EE064087016A3E060127F0812C2427FA1
:1049B5002012C2427F0812C2421242F790107EE0D6
:1049C500640D600302492190108412438FA31242A3
:1049D50039124340124236120A53C0009010831216
:1049E5004324D0001241F9124389124233120A4777
:1049F500E4FFFEED4C600122024B077B017A107942
:104A05007E12BEAAEF700302492190107EE0FFC31B
:104A150094305003024AADEFD394394003024AADB6
:104A25001243DF500612C21F024A8490107FE064D1
:104A350004600302492190108312438F12423612FB
:104A45004340124236120A53C000124321D00012CD
:104A55004233120A53901081E075F06412422C1211
:104A6500443912422C1243EE124233120A47E4FE35
:104A7500ED4C600302492190107EE0FF12C21F90A9
:104A85001083E0A3F0901082E0A3F0901081E0A3E2
:104A9500F0901080E0A3F090107DE0901080F090F1
:104AA500107FE004F002492190107EE06408701642
:104AB500A3E060127F0812C21F7F2012C21F7F0869
:104AC50012C21F1242F790107EE0640D6003024986
:104AD5002190108412438FA312423912434012428F
:104AE50036120A53C000901083124324D00012419D
:104AF500F9124389124233120A47E4FFFEED4C6076
:104B05000122901085120A4790107A120ACCEE8F76
:074B1500F012085B7F012292
:10B74000A2A9E433FEC2A9EF7005900FDD8022EFBD
:10B75000B40105900FDF8019EFB40205900FE1806E
:10B7600010EFB40305900FE38007EFB40408900FC7
:0EB77000E5ECF0A3EDF0AF06EE24FF92A92267
:10BBFE00EF7005900FDD8019EFB40105900FDF8017
:10BC0E0010EFB40205900FE18007EFB4030A900F16
:10BC1E00E3E0FCA3E0FD8003E4FCFDAF05AE0422EF
:103F5D00900DD0120AEC120693FF64026004EFB4C8
:103F6D000320124294900001120823FF900FC0E02D
:103F7D00B5F00DA3E0B50708900DDA7401F08007D8
:103F8D008000E4900DDAF012428674011206FB12E5
:103F9D00429412441330E00B1242861206934420D1
:103FAD001206FB900DDAE0600B1242861206934466
:103FBD00401206FB1242941244135430C4540FFFA6
:103FCD00124286900001EF12070DE92401F9E43A3F
:103FDD00FAC003C002C001120693FF1242941244AC
:103FED001354C01313543F4FD001D002D003120607
:103FFD00FB124294120693FF6027EFB4020A12429D
:10400D008612439644088011124294120693B4030B
:10401D000D124286124396440C1206FB80037FE874
:10402D0022124294124419FF6027EFB4020A124281
:10403D008612439644808011124294124419B4039F
:10404D000D12428612439644C01206FB80037FE890
:10405D0022900FDAE004FFF0124286900002124324
:10406D00BC7403F01242941206936402703512422E
:10407D005512428C900003120823FF900DD9E024B5
:10408D000212428212428C900003120823E5F0FFC7
:10409D00900DD9E024031242821243B8E02404F0BB
:1040AD000240E41242941206936403702A12429461
:1040BD001242551243B8E012442DFEAF0112429444
:1040CD00E92403F9E43AFCAD017B087A0012A00063
:1040DD00900DD9E0240AF012429412441964027032
:1040ED0054900DDAE06019900FC2E0FEA3E0FD12CE
:1040FD0042861242A7A31243BCE02402F002418D76
:10410D00900FC0E0FEA3E0FD1242861242A7A3EF7E
:10411D0012070D900FC2A3E01242B5A3A3EF120731
:10412D000D900FC2E01242B5A3A3A31243BCE0242D
:10413D0004F002418D1242941244196403704190AF
:10414D000DDAE0600E1242861244441241E6240854
:10415D00F0802D900FC0E0FEA3E0FD1242861242CA
:10416D00B6ED12070DEEFF900DD9E0FEF5827583C9
:10417D0000A3EF12070DEE12442D1241E6240AF0B2
:10418D00900DD9E012444FEF1206FB1242949000AD
:10419D000D1206AC12444FEF1206D91244507402A0
:1041AD001206D9900DD6124383D3947F40037FE539
:1041BD0022124286124444FEAF0112429490000E28
:1041CD00120AF5AC02AD0112429490000D1206AC2C
:1041DD00FB7A0012A0007F0022FEAF017C0F7DC490
:0C41ED007B087A0012A000900DD9E0229F
:10A4E600E4900F73F0EF04900DD3F0ED04A3F0E4C5
:10A4F600900DD1F0900DD3E0FF900DD1E0C39F50A9
:10A506003EE4A3F0900DD4E0FF900DD2E0C39F503F
:10A5160018127CB8900DD0EFF064156004E0B4E139
:10A5260008900DD2E004F080DB900DD0E07008A317
:10A53600E0900F73F08008900DD1E004F080B590A4
:05A546000DD0E0FF2232
:10B77E00C003C002C0017B017A237901900DD31260
:10B78E000AEC7A0D79CF900DD6120AECD001D002C8
:10B79E00D003123F5DEF7013900DCFE0902300F0B9
:0CB7AE00900FDBE0FFA3E0FD12A4E622F8
:020029000022B3
:10BC2E00901218EEF0A3EFF0E4900FB3F0A3F090A3
:10BC3E001218E0FEA3E0FFC3900FB4E09F900FB385
:10BC4E00E09E500B12C82B900FB31243CD80E02212
:10C82B00E4900FB5F0900FB5E004F0E0B401F62200
:10C83B00E4900FB6F0900FB6E004F0E0B409F622E6
:10C84B00E4900FB7F0900FB7E004F0E0B430F622AD
:10C85B00E4900FB8F0900FB8E004F0E0B460F6226B
:10C4F900E4900FB9F0A3F0900FB91243CD900FB9A2
:0AC50900E07004A3E0646970EE2204
:10C51300E4900FBBF0A3F0900FBB1243CD900FBB81
:0AC52300E07004A3E064D270EE2281
:10C30C00E4900FBDF0A3F0C3900FBEE09F900FBD63
:10C31C00E09E500B12C513900FBD1243CD80E82246
:10A3B200900D4E120AEC900D51ECF0A3EDF0E490EA
:10A3C2000D54F0A3F0900D51E0FCA3E0FD900D546C
:10A3D200E0FEA3E0FFC39DEE9C503B900D53E0FDD9
:10A3E200600F7C00120741ED4C70061243A31289E4
:10A3F20045900D4E120ACC900D54E0FEA3E0F5827A
:10A402008E831242467A3579A97F01128945900DD1
:07A41200541243CD80AF227C
:10777D00900D4B1243A01289457A3579AF127832AC
:10778D0012069312435912424E7A3579B712784048
:10779D00900001120823FFE5F012424B7A3579CCA7
:1077AD001278409000031242C912424E7A3579DBAD
:1077BD007F011289457A3579EE127832E924051266
:1077CD00429A12A3B2900D4B120ACC90000F1242A6
:1077DD00C912424E7A3679017F011289457BFF7AB3
:1077ED0036791712784CE9241112429A12A3B290ED
