:10AB0000C00F74ABC0E0C082C083750F0A75A1008E
:10AB10000000000022C00F74ABC0E0C082C083758B
:10AB20000F1F75A1010000000022C00F74ABC0E030
:10AB3000C082C083750F3475A1020000000022C0DE
:10AB40000F74ABC0E0C082C083750F4975A10300CC
:04AB500000000022DF
:0DC75E00EF90C7679390AB00730A1F34493A
:109FD500EB60010A4A601D8C838D8263A2018E832A
:109FE5008F8263A20100E0A363A201F0A363A20133
:109FF500DBF4DAF222C0A275A2010000C082C083A0
:10A0050063A2010000C082C083EB60010A4A601DA3
:10A015008C838D8263A2018E838F8263A20100E00F
:10A02500A363A201F0A363A201DBF4DAF2D083D02B
:0DA035008263A2010000D083D082D0A2225D
:030000000259D5CD
:1059D5007598007599209022E074D9F090270E747F
:1059E50000F09027027470F09027037400F0E490A3
:1059F5000000F0900000E004F0E0B4C8F690270045
:105A05007480F09027087400F0902709F090272003
:105A1500F0902721F0902722F0902723F09027245B
:105A2500F0902725F0902726F0902727F09027283B
:105A3500F0902729F090272AF090272BF0759900F0
:105A45009022E17400F09022E27490F09022E774C5
:105A5500FFF09022E8F09022E9F09022EAF09022FF
:105A6500EBF09022ECF09022ED7400F09022EEF035
:105A75009022EFF09022F0F09022F1F09022F2F0D7
:105A8500750D18750E00758121C2C112AB0A025A37
:015A9500D13F
:0CC79D00016800AA005A002D0015000BD6
:0A18000042120100004211FF000037
:10BD6E00900D066480F8E064809822900D06E0FE47
:10BD7E00A3E0FFC322900D12120A5F900D12020A69
:0ABD8E0047120ACC900D0B020AECDC
:0EC72600902784E054BFF00000E04440F02271
:10A75A00EBD394084004007F1222EDD394035004F3
:10A76A00EDB40104007F1122EF9022E66026E04456
:10A77A0004F0902781E0440CF09022D4E04480F069
:10A78A00E054F04BF0AF05EFC43354E0FFE0549FC0
:10A79A004FF08012E054FBF09022D4E0547FF09006
:09A7AA002781E054F3F07F002246
:10BD4400EFD394035005ED94034004007F11229037
:10BD54002786E054FC4FF0AF05EF25E025E0FF9087
:0ABD640022D5E054F34FF07F0022D7
:10BC9100ED6005D3940E4004007F1122ED04C454DD
:10BCA100F0FE9022D5E0540F4EF0EF6006E0440222
:0DBCB100F080079022D5E054FDF07F0022C6
:10C14300A2AFE433FFC2AF9022D7E0FDE0FEEF24BD
:10C15300FF92AFAF06EFFEEDFF7C007D1012079656
:01C1630022B9
:10C628009022D6E05478131313541FFF60011F2281
:10B29D0074FFF5F012085B7F13E49011F9F0A3F041
:10B2AD009022D6E05470600D12C143EE8FF012085B
:10B2BD005BE4FF80199011F9E475F0011207CCC31E
:10B2CD009011FAE094D09011F9E0940740D2EF601C
:03B2DD000100224B
:10997C00AA05EBD394084004007F1222EAD3940387
:10998C004004007F1122EF60557D02E4FF12BC9170
:10999C00AF02AD077F0112A75AAC07EC704912C792
:1099AC002690137DE025E0249DF582E434C7F583F1
:1099BC00E493FF7401939011FBCFF0A3EFF0E4A3B9
:1099CC00F0A3F09011FB12BD7C9011FEE09F901162
:1099DC00FDE09E5012E475F0011207CC80E5E4FB2B
:0A99EC00FDFF12A75AAC07AF0422DA
:10B9F100900D00120AECEFD394084004007F12224C
:10BA0100AB07E4FD7F0112997CEF600122900D00EC
:10BA1100120ACC12B29DEF600122E4FBFDFF1299E4
:04BA21007C7F002204
:106FEC00900D04EEF0A3EFF0A3ECF0A3EDF0900DF8
:106FFC000AE0FFC3940A4006EFD3940F4004007FCD
:10700C001122900D0412BD7C900D07E09FEE12BD75
:10701C006E4004007F142212BD79900D05E09FFF95
:10702C00900D04E09E900D0EF0A3EFF0D3900D07A1
:10703C00E09BEA12BD6E4009E4900D10F0A3F080C5
:10704C0029C3900D05E09BEA900D0412BD71500B05
:10705C00900D0EE0FFA3E0A3CF800B12BD79EB9F48
:10706C00FFEA9E900D10F0A3EFF0900D0AE0FF7474
:10707C00017E00A807088005C333CE33CED8F9248F
:10708C00FFFFEE34FFFEE4FCFD900D12120A5F9040
:10709C000D10E0FEA3E0FFE4FCFDA3120A5312085E
:1070AC00B412BD83C006C007900D0EE0FEA3E0FB3A
:1070BC00AA06E4F9F8D007D00612093F12BD83EEF8
:1070CC00547FFE900D0B120ACCEE8FF012085B7FF2
:0270DC00002290
:0CC785007B017A1279017F0712B9F122C2
:0CC791007B017A1179FF7F0812B9F122B8
:10A91400900CFF120AEC900CFEEFF0C3940A400670
:10A92400E0D3940F4004007F11227B017A0D790259
:10A9340012B29DEF600122901201E0FEA3E0FF90AD
:10A9440011FFE0FCA3E0FD900CFEE0900D0AF090F6
:10A954000CFF12BD8F900D02E0FAA3E0FB126FEC26
:07A96400EF6001227F0022D9
:109560009011E4EDF0A3120AEC9011E3EFF0D39424
:10957000084004007F12229011E4E0FFC3940A40E7
:1095800006EFD3940F4004007F11227B017A1179FA
:10959000EA7F0712B9F1EF6001227B017A1179E8C5
:1095A0007F0812B9F1EF6001229011E3E0FF7B0127
:1095B0007A1179EC12B9F1EF6001229011EAE0FE24
:1095C000A3E0FF9011E8E0FCA3E0FD9011E4E0903F
:1095D0000D0AF09011E512BD8F9011ECE0FAA3E0B6
:0B95E000FB126FECEF6001227F002205
:04180A0041137D0009
:10A9C200E4FDEF146014146015146016146017147B
:10A9D2006018240570187E088016E4FE80127E201E
:10A9E200800E7E40800A7E6080067E0C80027D1290
:10A9F200ED600300FF2290137DEFF0538E10EE42C4
:10AA02008EE58E90278530E306E04404F08004E072
:06AA120054FBF07F00225E
:030026008F98228E
:03002E008F992285
:030036008F9A227C
:08180E0041136700411368005B
:10C4C400A2AFE433FEC2AFEB9022EF22AF06EE241C
:06C4D400FF92AF7F002281
:10B3E500E5B420E204007F102212C4C430E106E077
:10B3F5004404F08004E054FBF0EB30E003D380011B
:10B40500C39288ED24FF92B8EF24FF92A89022F210
:10B41500E030A8054404F0800354FBF012C4D022A8
:10B42500E5B420E304007F112212C4C430E106E034
:10B435004408F08004E054F7F0EB30E003D38001DA
:10B44500C3928AED24FF92BAEF24FF92AA9022F2CA
:10B45500E030AA054408F0800354F7F012C4D02266
:0418160041137E807C
:1072BD00E0FEA3E0FFF5828E83A3A31206AC902718
:1072CD0005F08F828E83A3A3A31206AC902704F042
:1072DD0090137EE04401902700F022F090132AE0F5
:1072ED00F58A901328E0F58C22E0FEA3E0FFF582ED
:1072FD008E831206AC902707F08F828E83A3120621
:10730D00AC902706F022FFE0FAA3E02DF582EA3CCF
:10731D00F583E4936F22900D05E475F0010207CC1F
:10732D00900D03E0FEA3E0A3FFE0FCA3E0FDC39FEF
:10733D00EC9E229027007480F09027027470F0A3C9
:10734D00E4F0902708F0A3F07F0122E0FEA3E09087
:10735D002703F0EE902702F022FFEEF0A3EFF043AB
:10736D00992090270EE4F090137DE0229027097468
:10737D0001F0902708E4F022120ACC8D828C830252
:10738D0006ACEEF0A3EFF0EE54014F22CFF0A3EFD9
:0D739D00F0E422900D09120A5F900D092204
:06C91500E490137EF02205
:07C9070090137E7480F02202
:10B8720090270EE4F090270DE020E0F90000000090
:10B88200EF12735C902708E4F0A304F090137EE0BB
:10B892004402902700F00000000090270DE020E015
:08B8A200F99027007480F022E8
:100E7F00900D4C120AEC900D4A12738F6004007F94
:100E8F001422900D4AE0FEA3E07802CEC313CE13D6
:100E9F00D8F9900D5612736670047F808002E4FFBC
:100EAF0012A18290137EE0701D902700E064807085
:100EBF0015902708E0700FA3E0700B902702E0B4A5
:100ECF007004A3E06009900D587413F0020FE4E46E
:100EDF00FF12AFDBE4900D5DF012BE63900D56E094
:100EEF00FEA3E0FF12B872900D4FE030E00AE490DD
:100EFF000D581272E8020FE490270DE020E0F9126E
:100F0F007379900D50F0A3F0900D56E0FFA3E09091
:100F1F000D54CFF0A3EFF0900D52E4F0A37480F0D6
:100F2F0012BE63900D54127358900D4C120ACC9050
:100F3F000D501272F6900D501272BD00000000900D
:100F4F000D50E475F0041207CC900D5412732690D7
:100F5F000D5274FFF5F01207CC900D52E07002A302
:100F6F00E070BD90270DE020E0F91272E9900D4A74
:100F7F00E0FFA3E0900D59127399900D58F0900D6A
:100F8F005BF0A3F0900D5BE0FEA3E0FFC3EE9402D5
:100F9F00502E900D4C120ACC8F828E831206ACFF0E
:100FAF00900D5BE0FCA3E0FD900D591273146008E7
:100FBF00900D587415F08008900D5B12732680C445
:100FCF00900D58E0600F900D5DE004F0E0C39404C5
:100FDF005003020EE812734012A1825399DF7F0172
:0C0FEF0012AFDB900D58E0FF6001002203
:1052BB00901172120AEC90117012738F6004007FC0
:1052CB001422901170E0FEA3E07802CEC313CE132C
:1052DB00D8F990117D12736670047F808002E4FF11
:1052EB0012A18290137EE0701D902700E064807005
:1052FB0015902708E0700FA3E0700B902702E0B425
:10530B007004A3E0600990117F7413F0025438E429
:10531B00FF12AFDBE4901184F012BE6390117DE0BD
:10532B00FEA3E0FF12B872901175E07002A3E0705B
:10533B000990117F1272E802543890270DE020E09B
:10534B00F9127379901177F0A3F090117DE0FFA320
:10535B00E090117BCFF0A3EFF0901175E0FCA3E090
:10536B00FDAE047802CEC313CE13D8F9FF9011799A
:10537B00EEF0A3EFF0ED5403600A901179E475F0B1
:10538B00010253CF901179E07002A3E0603C12BE92
:10539B006390117B127358901172120ACC90117793
:1053AB001272F69011771272BD0000000090117707
:1053BB00E475F0041207CC90117B127326901179CF
:1053CB0074FFF5F01207CC02538F90270DE020E00D
:1053DB00F91272E9901170E0FFA3E0901180127343
:1053EB009990117FF0901182F0A3F0901175E0FE6F
:1053FB00A3E0901182127335501E901172127385B7
:10540B00901180127313600890117F7415F080084F
:10541B0090118212732680D390117FE0600F901150
:10542B0084E004F0E0C3940450030253241273404D
:10543B0012A1825399DF7F0112AFDB90117FE0FF46
:04544B0060010022DA
:10826C00900CFEEEF0A3EFF0A3120AEC900CFEE0E3
:10827C00FEA3E0FFE4FCFD1273A0120A53900D0460
:10828C00E024FFFF900D03E034FFFEE4FCFD120838
:10829C00A71273A0120A47ED4C6004007F1222E46F
:1082AC00900D08F0900CFEE0FFA3E0900D0D127302
:1082BC0099900D07F0E4900D05F0A3F012732D507A
:1082CC0029900D0DE0FEA3E02DF582EE3CF583E444
:1082DC0093FF900D00120ACC900D05A3E0F5828C53
:1082EC0083EF12070D12732380D2E4900D05F0A3D7
:1082FC00F012732D501B900D00127385900D0D1202
:10830C0073136008900D087416F0800512732380A7
:10831C00E0900D08E0600B900D07E004F0E06404C1
:08832C007093900D08E0FF22A0
:10C4DA00AF04E0FDA3E0FB12BF28EF22EDF0A3EBCF
:06C4EA00F0AC07E598220A
:0BC7CD00EF6004439810225398EF2205
:10BF2800EFD394074008EF640A60037F1222ED60A4
:10BF380009EBD39401400C7F1122EBD39402400308
:06BF48007F11227F0022A0
:1083F300900CFE12C4E620E404007F1022900CFED1
:1084030012C4DA60020022EC120B7E842D00843346
:1084130001843902843F03844504844B0584510657
:10842300845707845D0A000084617E0179FE802EF3
:108433007E0279FD80287E0479FB80227E0879F70D
:10844300801C7E1079EF80167E2079DF80107E40BD
:1084530079BF800A7E80797F80047EFFE4F9900CE7
:10846300FEE06019E952B19022EAE059F0900CFF66
:10847300E06005EE42C18032E952C1802D900CFFCD
:10848300E0FF700E9022EAE04EF09022E7E04EF01B
:108493008012EF9022EAB40108E04EF09022E780C8
:0D84A30000E059F0EE42B1EE42B97F002238
:1084B000900CFE12C4E620E404007F1022900CFE13
:1084C00012C4DA60020022EC120B7E84EA0084F00F
:1084D0000184F60284FC03850204850805850E06E6
:1084E000851407851A0A0000851E7E0179FE802EFC
:1084F0007E0279FD80287E0479FB80227E0879F750
:10850000801C7E1079EF80167E2079DF80107E40FF
:1085100079BF800A7E80797F80047EFFE4F9900C29
:10852000FEE06019E952B29022EBE059F0900CFFA6
:10853000E06005EE42C28032E952C2802D900CFF0D
:10854000E0FF700E9022EBE04EF09022E8E04EF05B
:108550008012EF9022EBB40108E04EF09022E88008
:0D85600000E059F0EE42B2EE42BA7F002278
:10833400900CFE12C4E620E404007F1022AF0490E7
:108344000CFE12C4DC60020022EC120B7E8370006F
:10835400837601837C02838203838804838E05836E
:108364009406839A0783A00A000083A47E0179FE01
:10837400802E7E0279FD80287E0479FB80227E088F
:1083840079F7801C7E1079EF80167E2079DF8010CB
:108394007E4079BF800A7E80797F80047EFFE4F985
:1083A400900CFEE06019E952B49022ECE059F09090
:1083B4000CFFE06005EE42C48032E952C4802D9087
:1083C4000CFFE0FF700E9022ECE04EF09022E9E00A
:1083D4004EF08012EF9022ECB40108E04EF09022AF
:0F83E400E98000E059F0EE42B4EE42BC7F002287
:0C181A0041134C0041134D0041134E00DF
:08C8CF00EDF0A3EBF0E592226D
:04C36600E0FD7F0176
:10C36A00ED600543F904800353F9FBEF600443E9E8
:06C37A00042253E9FB223E
:0BC7D800EF6004439202225392FD2206
:108A6B0090131112C8CF20E104007F102290131332
:108A7B00E0D394034004007F2022E4FDEF120B7E31
:108A8B008AAA008AB0018AB6028ABC038AC2048A07
:108A9B00C8058ACE068AD4078ADA0A00008AE079EA
:108AAB00017EFE803279027EFD802C79047EFB8074
:108ABB002679087EF7802079107EEF801A79207E48
:108ACB00DF801479407EBF800E79807E7F800879AD
:108ADB00FFE4FE80027D30ED600300FF2290131156
:108AEB00E06027901313E0FF30E105E942EA8003D1
:108AFB00EE52EAEF30E005E942EB8003EE52EBE990
:108B0B0042EC90131212C3668003EE52EC7F0022EC
:0BC7E300EF6004439204225392FB22FB
:108B1B0090131512C8CF20E204007F112290131777
:108B2B00E0D394034004007F2122E4FDEF120B7E7F
:108B3B008B5A008B60018B66028B6C038B72048BE0
:108B4B0078058B7E068B84078B8A0A00008B9079C5
:108B5B00017EFE803279027EFD802C79047EFB80C3
:108B6B002679087EF7802079107EEF801A79207E97
:108B7B00DF801479407EBF800E79807E7F800879FC
:108B8B00FFE4FE80027D31ED600300FF22901315A0
:108B9B00E06027901317E0FF30E105E942F2800314
:108BAB00EE52F2EF30E005E942F38003EE52F3E9C7
:108BBB0042F490131612C3668003EE52F47F002228
:0BC7EE00EF6004439208225392F722F0
:108D200090131912C8CF20E304007F132290131B65
:108D3000E0D394034004007F2322E4FDEF120B7E76
:108D40008D59008D5F018D65048D6B058D71068DCC
:108D500077078D7D0A00008D8379017EFE8026795C
:108D6000027EFD802079107EEF801A79207EDF80E0
:108D70001479407EBF800E79807E7F800879FFE481
:108D8000FE80027D33ED600300FF22901319E06046
:108D90002790131BE0FF30E105E942FA8003EE5211
:108DA000FAEF30E005E942FB8003EE52FBE942FCBA
:0E8DB00090131A12C3668003EE52FC7F00225D
:0DC76B00F0A3F0EF24FF92AF902190E022A8
:06C91B00902191EFF022D3
:10C63800EF9021916005E04402F022E054FDF022E1
:10C64800EF9021916005E04404F022E054FBF022D1
:10C65800EF9021916005E04408F022E054F7F022C1
:10C66800EF9021916005E04410F022E054EFF022B1
:09C8B400902158EFF0EEA3F022F0
:09C8BD0090215AEFF0EEA3F022E5
:0FC70800AC02AD017B087A007F507E21029FD5E5
:10C38000A2AFE433FFC2AF902004E4F0902001128A
:0AC39000C76B4440F0E054BFF022F8
:10C39A00A2AFE433FFC2AF902084E4F09020811270
:0AC3AA00C76B4420F0E054DFF022DE
:0BC7F9007F1612C91B12C38002C39AF6
:0C1826004112840041127F004112830037
:10903200E5E8F0A3E5E9F0AFA875E902E4F5E87523
:10904200A8809027927483F090279EE0C2AF902769
:1090520093E0E4F583D2AF2290279F7444F09027E7
:1090620092E0547FF0E490127FF022120ACC8E82BA
:109072007583001206AC902790F0E4F583D2AF22FC
:109082009027927480F022E0547F25E0902791F09F
:1090920022FEE4901284F0902792E022901246E0A1
:1090A20004F0E0C3942022EFF0A3EDF0A3120AEC47
:1090B200E422E004F090127FE02212C2A1902792F3
:0A90C200E022E0F5E88FA8AF0522D8
:0BC80400EF60044399802253997F22CB
:10A4BA00E59920E704007F102290131FE0FEC39461
:10A4CA00125004007F1122EF6041A2AFE433FFC2B1
:10A4DA00AF902794EEF090279674FFF0902795E4BA
:10A4EA00F0902793E090279EE0EB90279230E005CA
:10A4FA0074A3F080037483F053F9FDED600343F90C
:10A50A000243E902EF24FF92AF800653E9FD12905D
:04A51A00827F00221A
:10C2A100E490127DF0A3F090127DE475F001120785
:0EC2B100CC90127DE07004A3E0640A70EA22D3
:1087A0009012351290A990123DF0E59920E704004F
:1087B0007F102290123AE0FE70028006EED3940FF2
:1087C0004004007F1122E4FFFE12BCBE90123B1257
:1087D0009032901235129089C2AF901236E012900A
:1087E00078FE90123AE0FDEEC39D500BC2AF90129E
:1087F0003712906D0E80EB12905A90123AE02402DC
:108800001290934470F0E4FD90123D1290B4600415
:108810007D128012901284E06E600B90123DE0C3D6
:10882000944040E47D80ED70061290BC54EFF0E47B
:1088300090123DF030960320970A90123D1290A1BD
:1088400040F27D8012908290123CE0F5E990123B5C
:048850001290C4229C
:1069210090123E1290A9901246F0E59920E70400DA
:106931007F1022901243E0FE70028006EED3941085
:106941004004007F1122E4FFFE12BCBE90124412EB
:10695100903290123E129089C2AF90123FE0129095
:1069610078901243E0902797F012905A7E0212908D
:1069710095447CF0E4FD9012461290B460047D12BF
:106981008012901284E06E600B901246E0C3945026
:1069910040E47D80ED6014E4901246F030960320CF
:1069A100976B12909E40F57D8080621290BC54F7E7
:1069B100F0902791E04401F0E4901246F090127FAC
:1069C100E0700E901246E004F0E0C394E040EE7DEA
:1069D10080E4FE901243E0FCEEC39C501EC2AF90D7
:1069E1002790E0FC901240120ACC8E82758300EC55
:1069F10012070DE4F583D2AF0E80D8E4901246F071
:106A010030960320970712909E40F57D8012908268
:0D6A1100901245E0F5E99012441290C42265
:1089BA00901285EF1290AD90128CF0E59920E704A1
:1089CA00007F1022901289E0FE70028006EED39496
:1089DA00104004007F1122E4FFFE12BCBE90128AEE
:1089EA00129032901285129089E4FE901289E0FD6D
:1089FA00EEC39D500BC2AF90128612906D0E80EBA3
:108A0A0012905A901289E0041290934470F0E4FD97
:108A1A0090128C1290B460047D128012901284E03D
:108A2A006E600B90128CE0C3944040E47D80ED7040
:108A3A00061290BC54EFF0E490128CF030960320AA
:108A4A00970F90128CE0FE04F0EEC3941040ED7D77
:108A5A008012908290128BE0F5E990128A1290C4EB
:018A6A0022E9
:10775B009011EEEFF0A3120AECE59920E704007FFD
:10776B001022E4FFFE12BCBE9011F5E5E8F0A3E594
:10777B00E9F0A3E5A8F012903B9011EEE0547F25C1
:10778B00E04401902791F09011F2E0FFD394104068
:10779B000B9027977410F0EF24F080099011F2E012
:1077AB00902797F0E4901283F012905A901283E096
:1077BB009011F8F0E4901284F09011EF120ACC9033
:1077CB001280120AEC902792E04474F0E49011F3CB
:1077DB00F090127FE060FAE49011F4F0902797E0BC
:1077EB00FF9011F4E0FEC39F502DC2AF902790E0A5
:1077FB00FFEEFD9011F8E02DFDE433FC9011EF123C
:10780B000ACC8D828C83EF12070DE4F583D2AF90F7
:10781B0011F4E004F080C53096FD3097FA12908297
:10782B009011F6E0F5E99011F5E0F5E89011F7E02D
:08783B00F5A89011F3E0FF2213
:10B0230015660AB30AB2055906B4035A035C01AEA6
:10B0330001C200E10104008201D200E9011200898A
:10B0430000B20059008A0045008A0045008A004585
:10B05300023001180118008C0096004B00460023B3
:08B06300003C001E003C001E31
:101832004111B8004111B7034111B6004111B50081
:041842004111B4009C
:10AC9B0075F002120AC0E493FF7401939011ACCFCC
:10ACAB00F0A3EFF0E4A3F0A3F0229022007438F0AD
:10ACBB009011B7E025E025E0229011ACE0FEA3E077
:10ACCB00FFC39011AFE09F9011AEE09E229011AEAA
:0EACDB00E475F0010207CC9022007434F022E0
:0EC73400EF30E0047F018002E4FF127CB122AE
:07C90E00902200741CF022CE
:108DBE00900D28EEF0A3EFF0A3EDF0600B9027835B
:108DCE00E4F09022D07488F0A2AFE433900D2BF033
:108DDE00C2AF90228DE0900D2CF07F1112C8D7906B
:108DEE002200742CF07F13E49011AAF0A3F0900DE2
:108DFE0028E0FCA3E0FDC39011ABE09D9011AAE02A
:108E0E009C502190228DE020E612A3E05407FE70C4
:108E1E0003FF8010EEB404047F1280089011AA1292
:108E2E00ACDB80CA90228F74FFF0900D2CE0902264
:108E3E008DF0900D2BE024FF92AF900D2AE060098B
:0E8E4E00EF70069022D07484F0EF60010022D5
:10C606007F0A12C8D7E4FD7F0112C2067F0102C667
:01C6160078AB
:1099F600900D1CEFF0BF04028009900D1CE0D3947B
:109A0600054004007F182212ACE2E4FF12AFDB909F
:109A16000D1CE0FF12A864900D1CE0146016146083
:109A26001B14602024FE60242405702690221174E5
:109A360009F0801E9022117405F080169022117490
:109A460003F0800E9022117402F0800690221174A9
:109A560010F0902200743CF07F0112AFDB900D1CD9
:089A6600E09011B7F07F00222F
:10AD830090137FEFF012A86490137FE0FF14601616
:10AD930014601B14602024FE602424057026902276
:10ADA300117409F0801E9022117405F08016902210
:10ADB300117403F0800E9022117402F08006902229
:0CADC300117410F09011B7EFF07F002227
:10B78E00901380EFF07F031299F6901380E09022D1
:10B79E00246013E04440F0902785E04408F09022A6
:10B7AE0037E04480F022E0543FF0902785E054F7D4
:09B7BE00F0902237E0547FF022E4
:10856D00900D1CEFF0C3940B4006E0D3941A400419
:10857D00007F172212ACE2E4FF12AFDB900D1CE07E
:10858D00120B7E85C40B85C80C85CC0D85D00E8550
:10859D00D40F85D81085DC1185E01285E41385E8AC
:1085AD001485EC1585F01685F41785F81885FC19DA
:1085BD0086001A0000860C7F65803A7F6A80367FC0
:1085CD006F80327F74802E7F79802A7F7E80267F18
:1085DD008380227F88801E7F8D801A7F9280167FF8
:1085ED009780127F9C800E7FA1800A7FA680067FD8
:1085FD00AB80027FB07E091286E7900D1DEFF090E3
:10860D000D1DE0600400028589902200743CF07F0E
:0D861D000112AFDB900D1DE0FF6001002297
:0FC71700E4FE902284E0FF70050EEEB4FAF422E7
:08C8D700EF541F90228DF022A6
:10C41C00A2AFE433FEC2AFED24FF92F8EF24FF92FB
:09C42C00E8AF06EF24FF92AF22F5
:10AFDB00EF603D90228EE054F7F0E04408F075915D
:10AFEB0010A2AFE433FFC2AF902084E4F090208135
:10AFFB00F0A3F0EF24FF92AFE49011B6F090219004
:10B00B00E04420F0E054DFF0902201E054FEF02207
:08B01B00902201E04401F02243
:06C92100EF24FF92AF229B
:03003E00027497B2
:107F3B00902002E4F0902303E0902192F0902280B5
:107F4B00E05470FF6007641060037F15229011B539
:107F5B007401F09011B8E0547DF0900DD574E1F000
:107F6B0012003E12ACB52423F582E434B0F583C085
:107F7B0083C08290137DE0D082D08312AC9B12AC75
:107F8B00C450139011B8E030E107E4900DD5F080A8
:107F9B000512ACD880E8900DD5E0B4E10F12ACE23D
:107FAB00902002E4F09011B5F07FE122E49011B53E
:107FBB00F0900DD5F0902301E030E539900DD5749C
:107FCB00E9F012ACBB243BF582E434B0F583C083FB
:107FDB00C08290137DE0D082D08312AC9B12ACC4D4
:107FEB0050139011B8E030E707E4900DD5F0800501
:107FFB0012ACD880E8902002E4F0900DD5E0FF227F
:1090CC009011B5E060030291639023807405F0A3C6
:1090DC007402F0EF6004E04410F0902382E4F0A3FB
:1090EC00EDF090222CE0900E11F090222CE0442018
:1090FC00F09020027480F0902280E0547060046440
:10910C0010704712ACB52453F582E434B0F583C02B
:10911C0083C08290137DE0D082D08375F002120A56
:10912C00C0E493FF7401939011B012ACAA9011B0EB
:10913C00E0FEA3E0FFC39011B3E09F9011B2E09E5C
:10914C00500512ACDB80E612ACE2902002E4F09009
:08915C000E11E090222CF0221C
:10C20600EDD394024004007F1122EF6009ED441043
:0FC2160090222CF0800690222C7430F07F0022B2
:06C9270090222DEFF0222A
:10C67800EF90227E6005E04408F022E054F7F022B3
:1096FD00901369EFF0D394034004007F112290136F
:10970D0069E0FE700A9011B4E07004007F1622E447
:10971D0090136AF0EEB4010D12C90E7F0112977B02
:10972D007401F08043901369E0B4020D12C90E7FED
:10973D000212977B7402F0802F901369E0B403102E
:10974D0012C90E7F0312A1189011B47403F0801882
:10975D00E4FF12A118E4FD7F107E27128DBE901339
:10976D006AEFF0E49011B4F090136AE0FF2212A1B9
:05977D00189011B42258
:10C68800EFD394164004007F1122125E8C7F0022A3
:10C69800EF6009AF0512C580439EC022539E3F221A
:0EC74200EF600712C8FF439CC022539C3F22A9
:10B7C700902281E0541FD39402402D9022BDE020A7
:10B7D700E0267F019022B0E04401F0E4FDFC9022D6
:10B7E700BDE030E004E4FF800B0DBD00010CBC039D
:09B7F700EDBDE8EAEF70DD22224D
:0818460041136C0041136B001B
:106E06009022EDE06580FF9022F0E05FFF9022EE99
:106E1600E06590FE9022F1E05EFE9022EFE065B024
:106E2600FC9022F2E05CFC9022F0E022E5E8F0AD76
:106E36009AA9E9759A07E4F5E8F5E99022E1746EF6
:106E4600F09022E6E054FBF0E054E7F022E09022D6
:106E5600E5F09022E27490F0D2D875E88075A880AB
:106E660022E0FEEFF4FCEE5CF022EEF0A3EFF0A3DE
:106E7600EDF0A3EBF09022F0E055B9FFE06F22E0D1
:106E8600FAA3E0FBEA9022E3F0A3EBF022E5A8F0F8
:106E9600E4F5A89022EBE0229022F1E055BAFFE05B
:106EA6006F229022F2E055BCFFE06F22EF4404FF10
:106EB6009022EBE054E7F022AF058F9AD2D8538F99
:106EC600BF22E0FEEFF4FFEE5FF022FFE054033353
:106ED600333354F8FEEF4E22EF9022E0F0E4F59AB9
:106EE60022E0F5E8AF018FE92254012FFFE0FDA86B
:036EF60006082269
:10B0B300ED24FF92FCEF6033EB4A700A9012F1E04B
:10B0C3007004007F11229022E1746EF0126E8A9058
:10B0D30012F1E09022E5F0A3E054E7F0E04480F0C1
:10B0E300D2EC9022E0E04420F08009C2EC9022E010
:07B0F300E054DFF07F0022B2
:10BC0700900D1CEFF020E0069022E07498F090274A
:10BC170083E4F012C90E902780E4F0A3F0900D1C86
:0EBC2700E030E007902203E0547FF07F00221F
:10BEB3009022E074D8F090278074F6F0A37423F0F6
:10BEC30012BECDEF600312BECD2212C90EE4FD7F78
:07BED300107E27128DBE2234
:109B5C0090134FEFF0A3EDF0A3EBF0E4FFFE9013A6
:109B6C004FE0FDA806088002C313D8FC90135012D6
:109B7C006EEF8002C313D8FC901351126EEF80026B
:109B8C00C313D8FC54012FFF0EEEB407D1EFC394CE
:109B9C00024004007F1122E4FFFE12BCBEAFA8AE4F
:109BAC00E8ADE990134FE0547FF5A8A3E0F5E8A3E6
:109BBC00E0F5E943A8807587010000E4F5A88DE97C
:069BCC008EE88FA8FF22C5
:105D7200900D1C126E706002800C126E9E6002808A
:105D820005126EA86004007F1522900D1FE0D394C7
:105D9200034004007F112212C90EE4900D26F0FF89
:105DA200FE12BCBE900D21126E93900D27F0902230
:105DB200E1E0900D25F09022E0E0900D24F0902299
:105DC200E6E0900D23F0900D22126E32900D20E04D
:105DD200FC9022E630E706E0547FF08004E0448045
:105DE200F09022E6C083C082E0900D1F126ED1D0E7
:105DF20082D083F0900D1C126E85900D1E126E5390
:105E02007FB9EC30E004EF54DFFF900D20E030E189
:105E120003126EB2126EDEE5D220E5FB126E066F41
:105E2200701DAF06A3E06F7016AF04A3E0B5040FB8
:105E3200758702000000000000000000008006904C
:105E42000D267412F0126EBE900D22126EE7900DA6
:105E520024E09022E0F0900D23E09022E6F0900DF5
:105E620025E09022E1F0900D27E09022EBF0900DDA
:105E720021E0F5A8900D26E0600100E4FD7F107E90
:0A5E820027128DBE900D26E0FF22CE
:10650C009011D7126E706002800C126E9E60028029
:10651C0005126EA86004007F15229011DAE0D39466
:10652C00034004007F1122E49011E1F07F107E27DC
:10653C0012BCBE9011DC126E939011E2F09022E12D
:10654C00E09011E0F09022E0E09011DFF09022E674
:10655C00E09011DEF09011DD126E329011DBE0FC58
:10656C009022E630E706E0547FF08004E04480F0AF
:10657C009022E6C083C082E09011DA126ED1D082F4
:10658C00D083F09011D7126E859011D9126E537F73
:10659C00BAEC30E004EF54DFFF9011DBE030E103A4
:1065AC00126EB2126EDEE5D220E5FB126E066F7033
:1065BC001DAF06A3E06F7016AF04A3E0B5040F7512
:1065CC00870200000000000000000000800690110F
:1065DC00E17412F0126EBE9011DD126EE79011DFB5
:1065EC00E09022E0F09011DEE09022E6F09011E0D5
:1065FC00E09022E1F09011E2E09022EBF09011DCBF
:0C660C00E0F5A89011E1E0FF6001002221
:1076700090128DEF126E7A6002800C126E9E600284
:107680008005126EA86004007F1522E4901293F02A
:107690007F107E2712BCBE90128E126E93901294B1
:1076A000F09022E1E0901292F09022E0E0901291AE
:1076B000F09022E6E0901290F090128FE5E8F0AFA3
:1076C0009A126E37126E587E9B90128DE030E10751
:1076D000EE4404FE126EB6EE126EDFE5D220E5FB3C
:1076E0009022EDE06580FE9022F0E05EFE9022EEBA
:1076F000E06590FD9022F1E05DFD126E206E701D40
:10770000AE05A3E06E7016AE04A3E0B5040F758756
:1077100002000000000000000000008006901293AC
:107720007412F0126EC090128F126EE7901291E0F8
:107730009022E0F0901290E09022E6F0901292E019
:107740009022E1F0901294E09022EBF090128EE003
:0B775000F5A8901293E0FF60010022FA
:10B0FA00EFD394074004007F16227401A807088042
:10B10A0002C333D8FCFF9022EAE04FF0EB9022ED25
:10B11A00600BE04FF09022E7126E678009126E67AB
:10B12A009022E7E04FF0ED9022F06005E04FF080CA
:07B13A0003126EC87F002222
:10B14100EFD394074004007F16227401A8070880FA
:10B1510002C333D8FCFF9022EBE04FF0EB9022EEDC
:10B16100600BE04FF09022E8126E678009126E6763
:10B171009022E8E04FF0ED9022F16005E04FF08081
:07B1810003126EC87F0022DB
:10B18800EFD394074004007F16227401A8070880B3
:10B1980002C333D8FCFF9022ECE04FF0EB9022EF93
:10B1A800600BE04FF09022E9126E678009126E671B
:10B1B8009022E9E04FF0ED9022F26005E04FF08038
:07B1C80003126EC87F002294
:10967500EFF07F807E387D017C00A3120A53D30270
:1096850009ECE0FCE4120336E4FBFA79C8784202FF
:10969500028F120A537F007E127D7A7C0002093FF9
:1096A500E47F7BFEFDFC120A53C30209EC1201861E
:1096B50012036AAB07AA06EB4A22ECF0A3EDF0A968
:1096C50007E59A22E0FCA3E0FDE4020331C3EB9435
:1096D50020EA940322AD03EDF0EAFF22FFE0FCA3AC
:1096E500E0FD22AD03EDF0EAFF22E47F7BFEFDFC09
:0896F50022FFE0FCA3E0FD22CE
:05C315007481F07F01BE
:10C31A00ED600543F908800353F9F7EF600443E938
:06C32A00082253E9F7228E
:0BC80F00EF6004439A0822539AF722BE
:10A1EB009012AC1296BF20E304007F1222C3901290
:10A1FB00ADE09B9012ACE09A5004007F11229025A9
:10A20B00867420F0E960399012ACE0FEA3E0902553
:10A21B0083F0EEF9902582F09025851296DA902541
:10A22B0084F09025867409F0902583EDF0902582BB
:10A23B00EFF09012ACA3E0902585F0902584E9F027
:07A24B00E49012B0F0FF22C5
:10B46500E59A20E304007F12221296D25004007F51
:10B4750011229025867420F0EF601E902583EBF055
:10B48500EA902582F0A3E0902585F0902582E09052
:10B495002584F090258612C315E49012F6F0FF225C
:109EF900901247129675501A9012481296A5500260
:109F0900801090124CE0FFD394635006EFC3940184
:109F19005004007F112290124812969790124EEE2B
:109F2900F0A3EFF090124C129687C004C005C0064A
:109F3900C00790124E1296C9D003D002D001D000AA
:109F49001296B27003FA7B01901247E090124E12FA
:0E9F590096E190124DE09012B0F012A1EB22B2
:0BC81A00EF6004439A1022539AEF22B3
:10A252009012B21296BF20E404007F1322C3901220
:10A26200B3E09B9012B2E09A5004007F1122902535
:10A272008E7420F0E960399012B2E0FEA3E09025DE
:10A282008BF0EEF990258AF090258D1296DA9025C2
:10A292008CF090258E7409F090258BEDF090258A34
:10A2A200EFF09012B2A3E090258DF090258CE9F0AA
:07A2B200E49012B6F0FF2258
:10B4A500E59A20E404007F13221296D25004007F0F
:10B4B500112290258E7420F0EF601E90258BEBF005
:10B4C500EA90258AF0A3E090258DF090258AE090FA
:10B4D500258CF090258E12C315E49012FBF0FF2207
:109F6700901250129675501A9012511296A55002DF
:109F77008010901255E0FFD394635006EFC394010D
:109F87005004007F1122901251129697901257EEAB
:109F9700F0A3EFF0901255129687C004C005C006D3
:109FA700C0079012571296C9D003D002D001D00033
:109FB7001296B27003FA7B01901250E0901257127A
:0E9FC70096E1901256E09012B6F012A25222CD
:0BC82500EF6004439A2022539ADF22A8
:10A2B9009012B81296BF20E504007F1422C39012B1
:10A2C900B9E09B9012B8E09A5004007F11229025C2
:10A2D900967420F0E960399012B8E0FEA3E0902569
:10A2E90093F0EEF9902592F09025951296E8902535
:10A2F90094F09025967409F0902593EDF0902592AD
:10A30900EFF09012B8A3E0902595F0902594E9F02C
:07A31900E49012BCF0FF22EA
:10B4E500E59A20E504007F14221296D25004007FCD
:10B4F50011229025967420F0EF601E902593EBF0B5
:10B50500EA902592F0A3E0902595F0902592E090A1
:10B515002594F090259612C315E4901300F0FF22B0
:109DA600901259129675501D1296EF90125A1296ED
:109DB600AB5002801090125EE0FFD394635006EF22
:109DC600C394015004007F112290125A1296979064
:109DD6001260EEF0A3EFF090125E129687C004C0F8
:109DE60005C006C0079012601296C9D003D002D0F3
:109DF60001D0001296B27003FA7B01901259E090DE
:109E060012601296F690125FE09012BCF012A2B9A0
:019E16002229
:0BC83000EF6004439A4022539ABF229D
:10A320009012BE1296BF20E604007F1522C3901241
:10A33000BFE09B9012BEE09A5004007F112290254E
:10A340009E7420F0E960399012BEE0FEA3E09025F3
:10A350009BF0EEF990259AF090259D1296E89025B5
:10A360009CF090259E7409F090259BEDF090259A25
:10A37000EFF09012BEA3E090259DF090259CE9F0AF
:07A38000E49012C2F0FF227D
:10B52500E59A20E604007F15221296D25004007F8A
:10B53500112290259E7420F0EF601E90259BEBF064
:10B54500EA90259AF0A3E090259DF090259AE09049
:10B55500259CF090259E12C315E4901305F0FF225B
:109E1700901262129675501D1296EF901263129669
:109E2700AB50028010901267E0FFD394635006EFA7
:109E3700C394015004007F112290126312969790E9
:109E47001269EEF0A3EFF0901267129687C004C074
:109E570005C006C0079012691296C9D003D002D078
:109E670001D0001296B27003FA7B01901262E09063
:109E770012691296F6901268E09012C2F012A320AF
:019E870022B8
:0BC83B00EF6004439A8022539A7F2292
:10A0AE009012C41296BF20E704007F1622C39012AE
:10A0BE00C5E09B9012C4E09A5004007F11229025B7
:10A0CE00A67420F0E9603C9012C4E0FEA3E0902557
:10A0DE00A3F0EEF99025A2F0AD039025A5EDF0EAE0
:10A0EE00FF9025A4F09025A67409F09025A3EDF01D
:10A0FE009025A2EFF09012C4A3E09025A5F0902534
:0AA10E00A4E9F0E49012C8F0FF226B
:10B56500E59A20E704007F16221296D25004007F48
:10B5750011229025A67420F0EF601E9025A3EBF014
:10B58500EA9025A2F0A3E09025A5F09025A2E090F1
:10B5950025A4F09025A612C315E490130AF0FF2206
:109CBE0090126B129675501D1296EF90126C1296B2
:109CCE00AB50028010901270E0FFD394635006EFF9
:109CDE00C394015004007F112290126C129697903B
:109CEE001272EEF0A3EFF0901270129687C004C0BD
:109CFE0005C006C0079012721296C9D003D002D0CA
:109D0E0001D0001296B27003FA7B0190126BE0FF45
:109D1E00901272E0FCA3E0FD901271E09012C8F078
:049D2E0012A0AE22AF
:04184E0041130F0033
:10758400E0FFE4FCFDFE1209D1901320120A5F9083
:107594001320120A477808120A10901320120A5F67
:1075A40090132022E0FFE4FCFDFE1209D190132485
:1075B400120A5F901324120A477808120A109013D3
:1075C40024120A5F90132422EFF0900DDC120A4774
:1075D40078081209FD900DDC120A5F900DDC020A96
:1075E40047EFF0900D52120A4778081209FD900DEA
:1075F40052120A5F900D52020A47902780E054FE0F
:10760400F022AC02AD017B107A007E21227F0412AD
:10761400BBA990219F7401F022E4F0902780E0221E
:10762400E0FFE4FCFDFE22AC02AD01E0FB7A0022A7
:10763400120AECAE02AF01C3EE942322AC02AD01F8
:107644007B087A007E2122AE02AF017B087A007C9F
:107654002122120A5FE4FB902780E022900DD802D9
:0C7664000ACCE04404F090219FE4F022E6
:10BF9A00900CFE12761D20E00AE04401F0900CFE9F
:10BFAA007401F07F00127606129FD5900CFEE060B5
:05BFBA00031275FE22D8
:10BFBF0090138112761D20E00AE04401F090138166
:10BFCF007401F07F30127606129FD5901381E060D6
:05BFDF00031275FE22B3
:10C33000E4FE902780E020E006E04401F07E0190DA
:0BC340002140EFF0EE60031275FE22BA
:10BB4B00900DDC12765620E005E04401F00B1275E7
:10BB5B00DF9021411275CC9021421275CC9021437C
:0FBB6B001275CC902144EFF0EB60031275FE22AF
:10BE1300E4900CFEF0902780E020E00AE04401F07B
:10BE2300900CFE7401F07F45127640129FD5900C62
:08BE3300FEE060031275FE221F
:10C34B00E4FE902780E020E006E04401F07E0190BF
:0BC35B002110EFF0EE60031275FE22CF
:10BB7A00900D5212765620E005E04401F00B127542
:10BB8A00F89021111275E59021121275E590211392
:0FBB9A001275E5902114EFF0EB60031275FE2297
:10BE3B00E4900CFEF0902780E020E00AE04401F053
:10BE4B00900CFE7401F07F15127640129FD5900C6A
:08BE5B00FEE060031275FE22F7
:06C92D00902140E0FF2212
:10BC350090214412762412758D120A5390214312D5
:10BC45007584120A53902142127584120A53902169
:0EBC5500411276241209D112759E120A47225E
:08C8DF007D4512764B029FD546
:06C93300902110E0FF223C
:10BC63009021141276241275B1120A5390211312E3
:10BC730075A8120A539021121275A8120A53902123
:0EBC8300111276241209D11275C2120A47223C
:08C8E7007D1512764B029FD56E
:08C8EF00EF547F902194F02228
:08C8F700EF547F902195F0221F
:10C6A800EF9021936005E04440F022E054BFF0226F
:10C6B800EF9021936005E04420F022E054DFF0225F
:10BBA900EF7002800CEFD3941040028004EF30E074
:10BBB90004007F1A22EFC31314FF902193E054E38A
:0FBBC900F0E0FEEF25E025E0FFEE4FF07F0022D9
:09BF4E00902780E04401F07F031C
:10BF5700EFD394034004007F1122902193E054FC17
:0DBF6700F0E0FEEF5403FFEE4FF07F0022EC
:10682300900DD2EDF0900DCF127634400DD3EF944E
:10683300FFEE94245004007F1822127660E41206BF
:10684300FB900DD2E0FED394794004007F1622EE34
:10685300B40104007F172212BF4E900DD3120A47D2
:1068630012BB4B900DD7E0FF12C330E4FF12C8EF09
:10687300127611900DD2E02402902300F0900DCFF8
:10688300120ACC900DD212762B7F017E23129FD554
:10689300902007E4F0900DD2E02402902008F090BD
:1068A3000DDB7412F0902180E054FBF09020031272
:1068B300766690130BF0A3F0902180E030E207E4BA
:1068C300900DDBF0801690130BE475F0011207CCEA
:1068D30090130BE0B402E1A3E0B458DC900DDBE0CD
:1068E3007030900DD2E02404FF127660EF1206FBA5
:1068F300127616900DCF120ACCAE02AF011276605B
:10690300120693FB7A007D017C23129FD590219F71
:0E691300E4F01275FE900DDBE0FF6001002243
:105FA600900D48EDF0900D45127634400DD3EF94E8
:105FB600FFEE94245004007F1822900D4E120ACC56
:105FC600E41206FB900D48E0FFD3947D5006EFC324
:105FD60094045004007F162212BF4E900D49120AF7
:105FE6004712BB7A900D4DE0FF12C34BE4FF12C877
:105FF600F7127611900D48E02402902400F0900DDF
:1060060045120ACC900D4812762B7F017E24129FF2
:10601600D5902087E4F0900D48E02402902088F087
:10602600900D517413F0902180E054FDF090208380
:1060360012766690130DF0A3F0902180E030E10710
:10604600E4900D51F0801690130DE475F0011207DF
:10605600CC90130DE0B402E1A3E0B458DC900D51EE
:10606600E0704990219F04F0900D45120ACCAE02D3
:10607600AF01900D48E0FB7A007D017C24129FD58C
:10608600900D48E0FFE42FF582E43424F583E070B8
:1060960010EF24FCFF900D4E120ACCEF1206FB8087
:1060A60006900D517414F090219FE4F01275FE9045
:0860B6000D51E0FF6001002222
:101852004110800042107E00004210C20000411080
:021862007D55B2
:10C0FF00120ACC8F827583001206AC902542F0E4B1
:10C10F00F583D2AF22902540E054BFF0E04440F0D9
:02C11F00E42218
:0BC84600EF60044398802253987F228B
:0EC75000439810D2B7E4FB7D017F07028334CB
:07C77800E4901080F07F0146
:06C77F00EF24FF92B72237
:1071CF009012CBEBF0AA07E59820E704007F10227E
:1071DF009012CCE0FED394094004007F1122EE24DC
:1071EF00FE601314601824FA601C2408702090129B
:1071FF00CD7405F080209012CD7403F0801890129A
:10720F00CD7404F080109012CD740BF080089012A2
:10721F00CCE02402A3F0902540E4F0902543F090B9
:10722F002540C083C082E0FF9012CDE0FE5403FCE6
:10723F00EF4CD082D083F0902543E0FFEE540C1337
:10724F0013543FFEEF4EF0EA605AA2AFE4339012B0
:10725F00CEF0C2AFED24FF92FD9012CBE030E403ED
:10726F0012C750902540C083C082E0FF9012CBE040
:10727F00FE541CFDEF4DD082D083F0902540E044AA
:10728F00C0F0D2EDEE20E412E4FF90107DE09025E7
:10729F0042F0E4F5830FEFB410F09012CEE024FF2C
:0E72AF0092AF8007902540E4F0C2ED7F0022F0
:10C22500AE07E4FF12C77FC2AF902542EE12C10DE3
:0FC23500901080E060FA12C7789010C1E0FF22ED
:10B71900901352120AECEDD394104004007F1122C9
:10B72900E4901080F0FF12C77FEFC39D500BC2AFAA
:10B7390090135212C0FF0F80F0901080E0B50503FE
:0BB74900D38001C350F312C7781F2209
:10C44E0012C114FEC2AF902542EF12C10D0EEEB412
:08C45E0010F290107DEFF022B6
:10BA8A00901355120AECEDD394104004007F112252
:10BA9A0012C114FFC2AF90135512C0FF0FEFB410BA
:10BAAA00F3901355120ACC12069390107DF07F0082
:01BABA002269
:10B322009010C2A3E0FFC390107FE09FFFEF543F55
:10B33200602C9010C2E0FEA3E02481F58274103EDE
:10B34200F583E01206FB9010C3E02401FF9010C2C7
:10B352007E00EF543FFFEEF0A3EFF07F01227F006B
:01B3620022C8
:1093B3007FF07EFF7D077C00120A53D30209ECADD8
:1093C30007AC06ECF07C00E4120331783FE4FBFACF
:1093D300F912009502036AEFF0A3EDF0A3EBF0E5B9
:1093E3009822C3E49BFFE49AFE740199FDE498FC80
:1093F300020A5FE024FF92AF7F0022E4901206FE90
:10940300FDFC020A53AF03E4FCFDFE120A530208FB
:10941300B4E47B03FAF9F8020A47E0FEA3E0FFC3D2
:10942300E49FFFE49EFE22900D02020A5FFB120AF4
:109433004778080209FD901278120A5F9012782289
:0BC85100EF6004439801225398FE2280
:10932300900CFE1293DA20E004007F1322900D01CB
:10933300E0FBD394624004007F1722A2AFE4339092
:109343000D06F0C2AF900D02120A6B000007D09019
:109353000D0212940812942A900D02129414120909
:109363003FE4FDFC12942A900D02120A53900D0261
:109373001293E5900D02120A4790132AEFF0900D15
:1093830002129430901328EFF08B8AF58C5389F0F6
:10939300438901900CFFE024FF92B9A3E024FF92DC
:1093A3008C900CFEE024FF92A9900D061293F622F6
:10AEB300A907E59820E004007F1322A2AFE43390B2
:10AEC30012D4F0C2AF9012D212941D90132AEFF055
:10AED300EEFF901328F090132AE0F58A8F8C5389A4
:10AEE300F0438901ED24FF92B9EB24FF928CE9240E
:0AAEF300FF92A99012D41293F622E8
:0BC85C00EF6004439802225398FD2275
:1095EB009012741293DA20E104007F142290127708
:1095FB00E0FBD394624004007F1822A2AFE43390C7
:10960B00127CF0C2AF901278120A6B000007D09058
:10961B00127812940812943912941412093FE4FD33
:10962B00FC129439120A539012781293E590127827
:10963B00120A4790132BEFF090127812943090137C
:10964B0029EFF08B8BF58D53890F43891090127591
:10965B00E024FF92BBA3E024FF928E901274E024CF
:0A966B00FF92AB90127C1293F622DE
:10AEFD00A907E59820E104007F1422A2AFE4339066
:10AF0D0012DAF0C2AF9012D812941D90132BEFF0FD
:10AF1D00EEFF901329F090132BE0F58B8F8D538955
:10AF2D000F438910ED24FF92BBEB24FF928EE92491
:0AAF3D00FF92AB9012DA1293F62295
:0BC86700EF6004439804225398FB226A
:1073AA009012031293DA20E204007F15227F05125D
:1073BA0093FEC31209EC500C9012061293B34004C8
:1073CA00007F19227FF87EFF7D037C00901206124F
:1073DA0093BB400E90120B7440F090120A7406F0A0
:1073EA0080447FFC7EFF7D017C009012061293BBD5
:1073FA00400E90120B7420F090120A7405F0802649
:10740A00E47FFE7EFFFDFC9012061293BB90120BE6
:10741A00400B7410F090120A7404F080097408F09A
:10742A0090120A7403F07F081293FE1208B4C00780
:10743A0090120BE0FBE4FAF9F8D00712093FE412C4
:10744A00032C78BF1293D090120C1293C2A2AFE40D
:10745A0033FEC2AF53A9F0901203E0602790120CDA
:10746A00E0F5AA8FAC901204E024FF92F9A3E06041
:10747A000C90120AE025E0440142A9800353A9FEB8
:0D748A00D2E98002C2E9AF06EE1293F722AC
:0BC87200EF6004439808225398F7225F
:106A1E0090120D1293DA20E304007F1622E47F0514
:106A2E00901210129402C31209EC500C9012101214
:106A3E0093B34004007F1A227FF87EFF7D037C0013
:106A4E009012101293BB400E9012157440F09012DB
:106A5E00147407F080447FFC7EFF7D017C00901251
:106A6E00101293BB400E9012157420F090121474F5
:106A7E0006F08026E47FFE7EFFFDFC90121012933E
:106A8E00BB901215400B7410F09012147405F08028
:106A9E00097408F09012147404F0E47F08FEFDFCF3
:106AAE0090121012940EC007901215E0FBE4FAF942
:106ABE00F8D00712093FE412032CE4FBFAF978BF71
:106ACE001293D49012161293C2A2AFE433FEC2AF49
:106ADE0053A90F90120DE06029901216E0F5AB8FBE
:106AEE00AD90120EE024FF92FBA3E0600E90121404
:106AFE00E0C43354E0441042A9800353A9EFD2EB13
:0B6B0E008002C2EBAF06EE1293F722EC
:105C52000709433B0B0709433B0B0707433B0B0772
:105C6200078B3B0B07078B040B07078B0404070703
:105C72008B0404040B048B061705078B0404040D24
:105C82008B0404040D000B0B040400008B061705A3
:105C920000000617050000001705000000000500BF
:105CA20000000000040700000000070000000000E0
:105CB2001D0B000001000B000001000000000100AC
:105CC20000000001000000000100000000000000D0
:105CD20000000000000000000000000000000000C2
:105CE20000000000000000000000000000000000B2
:105CF20000000000000000000000000000000000A2
:105D02000000000000000000000000000000000091
:105D1200C393C7712FEE93C7712FEE77C7712FEE22
:105D22007703712FEE7703342FEE7703341AEE7771
:105D320003341A0D658B021703077703341A0D0219
:105D420003341A0D02001A0D12090000021703078C
:105D5200000017030700000003070000000007000F
:105D62000000000007020000000002000000000026
:10186400420E1E0000420E140000420E22000042EE
:101874000E180000410E1C01420E200000420E16FC
:101884000000420E240000420E1A0000410E1D0109
:10885400E4FAF9F8901334120A4712B259EF2430AB
:10886400902510F0901334020A47E4FAF9F812B292
:1088740059AC00AD01AE02AF03901334020A5FFF9E
:10888400C3E09FFF7E00EF543FFFAD01ED24FF22C4
:10889400FF120ACCEF1206FB90137DE0FF9011C784
:1088A400E075F006A422F583E5822FF582E4358392
:1088B400F583E49322E433F0C2E8A2ACE43322E487
:1088C40033F0C2E8A2AEE43322A2AFE433FFC2AF76
:1088D40022C374409FFFE49EFED3EF9403EE940002
:1088E40022E4F0A3E0543FF022E01206FBE4F58317
:1088F400EF24FF92AF7F0122120ACC8F827583008E
:038904000206ACBC
:105889009011BD120AECE49011C6F0120BD158FB2D
:105899000000012C590200000258590A000004B006
:1058A900591200000960591A000012C0592200005B
:1058B9002580592A00003840593200004B00593AD6
:1058C9000000960059420000DAC0594A0000E10080
:1058D90059520001C200595A000384005962000755
:1058E9000800596A0008CA005972001194000000A2
:1058F900597AE49011C7F0807E9011C77401F08045
:10590900769011C77402F0806E9011C77403F0800D
:10591900669011C77404F0805E9011C77405F08019
:10592900569011C77406F0804E9011C77407F08025
:10593900469011C77408F0803E9011C77409F08031
:10594900369011C7740AF0802E9011C7740BF0803D
:10595900269011C7740CF0801E9011C7740DF08049
:10596900169011C7740EF0800E9011C7740FF08055
:10597900069011C67412F09011C6E0704912889C05
:105989002452F582E4345C1288AA9011BD128894DD
:1059990024B2F582E4345C1288AA9011C01288946A
:1059A9002412F582E4345D1288AAFF9011C3120A09
:1059B900CCEF1206FB9011C3120ACC1206937006A3
:0C59C9009011C67412F09011C6E0FF228D
:0BC87D00EF6004439820225398DF2254
:1080D800901217EFF0A3EDF0E59820E504007F106B
:1080E80022E4FF901217E06023901219120A477BCE
:1080F800017A12791E9011C0120AEC7A12099011B5
:10810800C3120AEC7A1209125889800BE4901220E3
:10811800F090121EF0A3F0EF600200221288CD90BA
:108128002505E4F09025037480F090121FE0902557
:1081380000F090121EE0902501F0901220E09025AA
:1081480007F0902503E4F0902507F0901217E060FF
:10815800389025027481F090121DE0FE543F90255E
:1081680003F0902501E4F0EE20E604E04401F090ED
:10817800121DE020E707902501E04402F0D2AC9000
:108188001218E024FF92BC8009902501E4F0C2ACEB
:0A819800C2BCEF24FF92AF7F00226B
:10C16400A2E89013821288B9F9C2AC900E14A3E02D
:10C17400900E1F12888392AC901382E024FF92E801
:01C184002298
:10C18500A2E8900DC81288B9F9C2AC900E18A3E0C8
:10C19500900E2312888392AC900DC8E024FF92E89C
:01C1A5002277
:10A80C00AC0712C1851288D540F8A2E8E433FF12D8
:10A81C0088BCFEC2AC900E1CE06010E4F0C2AF909D
:10A82C002500ECF0E4F583D2AF8022900E22E0FA02
:10A83C00A3E024A6F582740E3AF583ECF0900E2278
:10A84C00E475F0011207CC900E221288E5EE24FF7D
:08A85C0092ACEF24FF92E82208
:10AB540090132C120AEC12C164EF4E7002FF22A271
:10AB6400E8E43390132F1288BBFFC2AC900E14E4B8
:10AB740075F0011207E2FC742625F0F582740E3C90
:10AB8400F583E0FE90132C120ACCEE1206FB900E15
:10AB9400141288E5EF24FF92AC90132FE024FF9267
:04ABA400E87F012223
:10C5A800E4FF900E1CE070010F902505E020E502E5
:03C5B8007F0122DE
:10ADCF00900DC8120AEC902501E030E1037F1322A9
:10ADDF00EDD3941040037F1422902505E030E5F960
:10ADEF00E4FFEFC39D5022A2AFE433900DCBF0C22E
:10ADFF00AF900DC81288FC902500F0E4F583900DFC
:0CAE0F00CBE024FF92AF0F80D97F00221F
:10C54400902505E030E00A1288CD9025001288ED90
:04C55400227F002220
:0BC88800EF6004439840225398BF2249
:1081A200901221EFF0A3EDF0E59820E604007F1095
:1081B20022E4FF901221E06023901223120A477BEF
:1081C200017A1279289011C0120AEC7A12099011E0
:1081D200C3120AEC7A1209125889800BE490122A0F
:1081E200F0901228F0A3F0EF600200221288CD90E6
:1081F2002515E4F09025137480F0901229E0902563
:1082020010F0901228E0902511F090122AE09025AB
:1082120017F0902513E4F0902517F0901221E060FA
:10822200389025127481F0901227E0FE543F902579
:1082320013F0902511E4F0EE20E604E04401F09002
:108242001227E020E707902511E04402F0D2AE9019
:108252001222E024FF92BE8009902511E4F0C2AE02
:0A826200C2BEEF24FF92AF7F00229E
:10C02D00A2E8900D451288C3F9C2AE900E16A3E09A
:10C03D00FFC3900E2112888592AE900D45E024FF2E
:03C04D0092E82254
:10C05000A2E8900D411288C3F9C2AE900E1AA3E077
:10C06000FFC3900E2512888592AE900D41E024FF0B
:03C0700092E82231
:10A7B300AC0712C0501288D540F8A2E8E433FF1268
:10A7C30088C6FEC2AE900E1DE06010E4F0C2AF90EA
:10A7D3002510ECF0E4F583D2AF8023900E24E0FA49
:10A7E300A3E024E6F582740E3AF583ECF0900E2490
:10A7F300E475F0011207CCE4900E241288E6EE24EF
:09A80300FF92AEEF24FF92E8225F
:10AA1800900D41120AEC12C02DEF4E7002FF22A2D7
:10AA2800E8E433900D441288C5FFC2AE900E16E4D8
:10AA380075F0011207E2FC746625F0F582740E3C8D
:10AA4800F583E0FE900D41120ACCEE1206FBE4906D
:10AA58000E161288E6EF24FF92AE900D44E024FF14
:05AA680092E87F0122CD
:10C5BB00E4FF900E1DE070010F902515E020E502C1
:03C5CB007F0122CB
:10AE1B00901330120AEC902511E030E1037F1322DE
:10AE2B00EDD3941040037F1422902515E030E5F903
:10AE3B00E4FFEFC39D5022A2AFE433901333F0C273
:10AE4B00AF9013301288FC902510F0E4F58390132B
:0CAE5B0033E024FF92AF0F80D97F00226B
:10C55800902515E030E00A1288CD9025101288ED5C
:04C56800227F00220C
:108E5C0012887D128868EC3350181288681209DE6B
:108E6C0012887D902510742DF0902515E020E508D2
:108E7C0080F79025107420F0E47B107A2712885626
:108E8C00E47B107A27128870902515E030E5F9E420
:108E9C007BE87A03128856E47BE87A031288709098
:108EAC002515E030E5F97B641288547B6412886EDA
:108EBC00902515E030E5F97B0A1288547B0A12885C
:108ECC006E902515E030E5F9128868EF2430902576
:108EDC0010F0902515E030E5F99025107420F090F5
:0D8EEC002515E030E5F9E47F01FEFDFC22D4
:09C8C600C2AF75D25575D2AA2249
:0BC89300EF6004439201225392FE224A
:10B80000E59220E004007F1022EDD3940F40040065
:10B810007F1122A2AFE433FEC2AFEF600C12C8C8A2
:10B82000ED540F4440F5D2800612C8C875D280AFDF
:09B8300006EE24FF92AF7F002216
:10BE630090FFFF120C0BA2AFE433850D83850E8286
:10BE7300F012C8C643D240850D83850E82E024FFAD
:08BE830092AF900001020C0BCC
:10BCBE00A2AFE433FCC2AFEF4E600E90136DEEF008
:10BCCE00A3EFF07D0F7F018009E490136DF0A3F0D8
:0DBCDE00FDFF12B800AF04EC24FF92AF226E
:10C49600EFD3940F4004007F112212C8C6EF540F49
:07C4A600F5D243920180FE74
:10B36300900D41120AEC7F007E10E4900D44F0FD35
:10B37300EF2DF582E43EF583E493FC900D44E02C3D
:10B38300F0900D41120ACC8D82758300EC12070DEB
:10B393000DEDB440DB900D44E070037F01227F008C
:01B3A3002287
:041894004113830079
:10C56C00F0C2AF9027A6E04480F0E4F583D2AF9000
:04C57C001383F02213
:0BC89E00EF6004439940225399BF2231
:10988400E59920E604007F1022E4901383F09027EA
:10989400AA04F09027A974A5F0EB600D9027ACE41E
:1098A400F09027AB748CF080109027AAE09027AC3E
:1098B400F09027A9E09027ABF09027B2E4F090272E
:1098C400B17464F09027AF745AF0A374B4F0902785
:1098D400ADF0A3745AF090133BE09027A2F09027C8
:1098E400A6742FF0ED600543F901800353F9FEEFF0
:0D98F400600543E901800353E9FE7F002277
:10B8AA00E59920E604007F10229027A4EFF0902764
:10B8BA00A77408F0A3742912C56C7F12FDFC9013BB
:10B8CA0083E06004E4FF800B0DBD00010CBC75EE43
:08B8DA00BD30EBEF600100221C
:10BA5800E59920E604007F10229027A77406F0A33A
:10BA68000412C56C7F11FDFC901383E06004E4FFB1
:10BA7800800B0DBD00010CBC75EEBD30EBEF600115
:02BA880000229A
:10BABB000A0D2045564B203A204C49422056322E37
:10BACB003500000000000000000000000000000036
:10BADB00000000000000000000000000000000005B
:108EF900A37429F004F004F07429F004F004F07468
:108F090029F004F004F022900D1F7412F0A37403E9
:108F1900F0A32274039022CFF09022CE22900D1F4D
:108F29007413F0E4A3F0A322F0A3F0A3F0A3F0A339
:108F3900F0A3F022900D1F7413F0A37401F0A32283
:108F490074029022CFF09022CE22F09022497463CD
:108F5900F0A37455F0229022B0E04401F0E4FEFF42
:108F690022F07464A3F0A37404F02274C0F0A37413
:108F790070F090223C7490F02224A69022BFF090C9
:0D8F890022BEE4F022A3F0A37450F0A32256
:10990100EFD394054025902232743AF0A37434F0D9
:10991100902238128F749022427411F09022457473
:109921001E128F5390224D7426804C902232744A1D
:10993100F0A37416F090224214F09022457423F0A3
:10994100EFC39405902238401A128F749022497403
:1099510021F0A304F090224D04F0A37499F0A374B4
:1099610007F0227450F0A374B0F090223C745012AE
:0B9971008F5390224D7412128F6A2257
:107CB10090278074F6F0A37423F09022B07440F002
:107CC1009022C67480F09022C274B0F09022117498
:107CD10002F090220C7405F09022207480F0A3E44D
:107CE100F0A37485F09022B97402F0A37463F0904C
:107CF10022B774CFF0A3E4F09022C8745FF0A374AC
:107D010009F0EF30E0047E0E80027EA29022CAEEDE
:107D1100F07408128F6DA3E4F0740B128F1E740FB0
:107D2100F0902230744AF0902232F0A37416F0EFF2
:107D310030E0047E4B80027E4D902235EEF0EF3034
:107D4100E0047FC680027FCD902236EFF0745C1292
:107D51008F8E74B0F090223B7450F0A3F0902240CB
:107D61007420F0A3F0A37415F0A37410F0A3F0A392
:107D71007423128F53A374E1F090224D7412128F69
:0E7D81006A90221D7485F09022E1746EF0224B
:10A86400AE07EE6003B4010790222174018010EE5C
:10A87400902221B40208E4F0A374E5F08006E4F029
:10A88400A37485F0AF06129901EED39405400D90A0
:10A8940022197410F09022CA74D5F022EEC39405E4
:10A8A400902219400A7410F09022CA74AAF022E48B
:08A8B400F09022CA74A2F02208
:10572F00E4900D1EF0EF8EF0120BA4577E09655713
:10573F0087096A5790096F5799097457A2097957C2
:10574F00AB097E57B4098357BD098857C6098D57D2
:10575F00CE099257D6099757DE099C57E609A157EC
:10576F00EE09A657F609AB57FE09B000005806120E
:10577F008F107428F002580C128F107450F00258CA
:10578F000C128F107478F002580C128F1074A0F056
:10579F0002580C128F1074C8F002580C128F10742C
:1057AF00F0F002580C128F267418F002580C128F5A
:1057BF00267440F002580C128F267468F0803E1247
:1057CF008F267490F08036128F2674B8F0802E12C8
:1057DF008F2674E0F08026128F3D7408F0801E1221
:1057EF008F3D7430F08016128F3D7458F0800E127A
:1057FF008F3D7480F08006900D1E7417F0900D1E73
:10580F00E0FF6001229022BE74C0F09022B47401B8
:10581F00F0900D1FE09022B1F0900D20E09022B299
:10582F00F0900D21E09022B3F09022B0E04401F00F
:10583F00900D1E7414F0E4FFFE9022BDE030E007DF
:10584F00E4900D1EF0800B0FBF00010EBE27EABFC4
:10585F0010E7900D1EE0601C128F5F9022BDE030AC
:10586F00E007E4900D1EF0800B0FBF00010EBE2766
:09587F00EABF10E7900D1EE0FFE6
:0158880022FD
:085B1600901358EEF0A3EFF02C
:105B1E00C3945AEE94094010901358E0FCA3E0FD94
:105B2E00D394CBEC940940037F112290135A74172F
:105B3E00F0ED8CF0120BA45B8909655B8B096A5B37
:105B4E0092096F5B9909745BA009795BA7097E5B6B
:105B5E00AE09835BB509885BBC098D5BC309925B9B
:105B6E00CA09975BD1099C5BD809A15BDF09A65BCB
:105B7E00E609AB5BE609B000005BF180009022C243
:105B8E0074D280599022C274D180529022C274D1A4
:105B9E00804B9022C274D180449022C274D0803D3A
:105BAE009022C274D080369022C274D0802F902260
:105BBE00C274D080289022C274CF80219022C274E9
:105BCE00CF801A9022C274CE80139022C274CE80DF
:105BDE000C9022C274CE80059022C274CDF0E49057
:105BEE00135AF090135AE0FF6001229022B0E04465
:105BFE0002F0901358A3E0128F8290135A7414F08F
:105C0E00E4FFFE9022BDE030E007E490135AF080EE
:105C1E000B0FBF00010EBE27EABF10E790135AE02C
:105C2E00601C128F5F9022BDE030E007E490135AA3
:105C3E00F0800B0FBF00010EBE27EABF10E79013D6
:035C4E005AE0FF1A
:015C51002230
:1086E700C3EF9465EE94094009D3EF94B0EE940973
:1086F70040037F1122C3EF94B0EE94094005902206
:10870700C28033C3EF949CEE940940089022C27450
:10871700B3F08025C3EF947EEE940940089022C2FF
:1087270074B4F08014C3EF9465EE94099022C240AC
:108737000574B5F0800374B2F0D3EF947EEE94091C
:108747009022B950057422F080037402F09022B091
:10875700E04402F0EF128F827D14FFFE9022BDE00D
:1087670030E004E4FD800B0FBF00010EBE27EDBF14
:1087770010EAED6019128F5F9022BDE030E004E44B
:10878700FD800B0FBF00010EBE27EDBF10EAE4FE10
:08879700FF600312572FAF052C
:01879F0022B7
:0CC7A9009022BFE0245AFFE43409FE2275
:105E8C00EF120B7E5ED9005EE0015EED025EF60362
:105E9C005EFD045F04055F0B065F12075F19085F68
:105EAC0026095F2D0A5F3A0B5F410C5F480D5F5569
:105EBC000E5F610F5F68105F75115F7B125F82135D
:105ECC005F89145F90155F9C1600005FA59022CF30
:105EDC00740B80059022CF7404F09022CE740FF0D6
:105EEC00227405128F4B740BF022128F1C740AF063
:105EFC0022128F497409F022128F1C7407F022129F
:105F0C008F1C7406F0229022CF740380059022CF50
:105F1C007401F09022CE7405F022128F497404F0B3
:105F2C00229022CF7407F09022CE7403F02290229C
:105F3C00CF740280199022CF740C80059022CF74FC
:105F4C0004F09022CE7402F0229022CF7401F090D3
:105F5C0022CE04F0229022CF741F80059022CF74A1
:105F6C000FF09022CE7401F022128F4914F022907F
:105F7C0022CF7401801E9022CF741F800C9022CFF0
:105F8C00740880059022CF7401F09022CEE4F022A8
:0A5F9C009022CFE4F09022CEF02214
:10A11800EFB401079022707424F022EF6402600506
:10A12800EF6403703990278074FEF090221974014F
:10A13800F09022707427F0902280E030E0F99022AD
:10A14800807423F0A37407F0EF902270B4030574B1
:10A1580077F080037422F09022817460F0229027B7
:10A168008074F6F0902219E4F09022807480F0A3B5
:0AA17800746CF09022707480F022E5
:10C58000EF9022926008740EF0A37402F0227401FE
:04C59000F0A3F02202
:08C8FF00902290E054C0F022E9
:10A18200EF30E00C902720E4128F31A3128F31229E
:10A19200EF90272030E7297404F0A374E2F0A3744F
:10A1A20004F0A374E2F0A37414F0A37410F0A3E417
:10A1B200F074FA128F8EF0A374A0F0A37464F022EC
:10A1C2007402F0A37471F0A37402F0A37471F0A38B
:10A1D200740AF0A37408F0A3E4F0A3747CF0A374EF
:09A1E20028F0128F8E7432F02275
:10749700902785E090228230E272E4F0000000003D
:1074A70000000000128EF9000000000000000074C8
:1074B70029F00000000000000000000000000000AC
:1074C70000000000000000000000000000000000B5
:1074D70000000000000000000000000000000000A5
:1074E7000000000000000000000000000000000095
:1074F7000000000000000000000000000000000085
:10750700000000000000000000008010E4F0000010
:107517000000128EF9000000007429F0000000003E
:107527000000000000000000000000000000000054
:107537000000000000000000000000000000000044
:107547000000000000000000000000000000000034
:107557000000000000000000000000000000000024
:107567000000000000000000000000000000000014
:0D757700000000007440F090228214F02209
:050006007EBA7FBB2261
:1035AD002023232045413D302C20496E74657272D5
:1035BD007570742044697361626C65642023230007
:1035CD002023232055415254303A496E746572724E
:1035DD007570742044697361626C656420232300E7
:1035ED002023232055415254313A496E746572722D
:1035FD007570742044697361626C656420232300C7
:10360D00202323205541525430203A20496E7465B1
:10361D0072727570742044697361626C65642023E5
:10362D002300202323205541525431203A20496E46
:10363D00746572727570742044697361626C65642F
:10364D00202323000A002025303278000A205B4D0C
:10365D0049425D000A204368616E3D25752028258D
:10366D0075204D487A292C2000202050616E494448
:10367D003D307825303478000A2053686F727441DC
:10368D006464723D30782530347800203A494545E0
:10369D00454164647228307E37293D3078000A2018
:1036AD0044737453686F7274416464723D3078254D
:1036BD0030347800203A447374494545454164647B
:1036CD007228307E37293D3078000A2044617461BC
:1036DD00526174653D3078253032782C2000203AC7
:1036ED0054785077724C6576656C3D307825303264
:1036FD00782C200020204E6F41636B5265747279D7
:10370D003D257500203A4261636B6F6666526574A4
:10371D0072793D2575000A205B52582D4D41432D80
:10372D00504B545D000A2044534E3D3078253032C5
:10373D00782C204F4F423D30782530327800203A9A
:10374D0064426D3D256400203A436F72723D2564DD
:10375D00000A204473742E204D6F64653D25303270
:10376D007800203A50616E49443D307825303478E8
:10377D0000203A53686F7274416464723D3078254D
:10378D0030347800203A4945454528307E37293D6B
:10379D003078000A205372632E204D6F64653D25ED
:1037AD00303278000A204D534455204C656E3D252E
:1037BD00303275203A2000203A4D534455203D00BB
:1037CD000A203D3D3D2048494220446973706C619B
:1037DD0079203D3D3D000A20494545452041444461
:1037ED0052284C53427E4D534229203A000A204321
:1037FD00686970496E646578203D203078253032D7
:10380D00780020284D4732343030290020284D478C
:10381D0032343558290020284D47323437302900AD
:10382D0020284D4732343630290020284D47323478
:10383D00313029002028556E636C61737369666998
:10384D00656429000A204368616E6E656C20202036
:10385D003D20257520282575204D487A29000A2000
:10386D00537461636B49442020203D20307825300E
:10387D003278000A205478506F7765722020203DF1
:10388D00203078253032780020202020446174616A
:10389D005261746520203D20307825303278000A41
:1038AD002050616E494420202020203D2030782575
:1038BD00303278253032780020204E776B416464A9
:1038CD007220203D20307825303278253032780036
:1038DD000A205365634C6576656C20203D20307859
:1038ED00253032780020202020507265436F6E669F
:1038FD006967203D20307825303278000A204E57F8
:10390D004B204B657920284C53427E4D5342292044
:10391D003A000A205265736572765F30284C534227
:10392D007E4D534229203A000A204550494420201B
:10393D002020284C53427E4D534229203A000A2024
:10394D005265736572765F31284C53427E4D5342FA
:10395D0029203A000A2047656E6572616C576F72B7
:10396D006430203D20307825303278253032780093
:10397D000A2047656E6572616C576F726431203D28
:0C398D0020307825303278253032780068
:101898004211340000421136000042113800004263
:0918A800113A000042113C00005D
:1042A3001208A79011A6120A5F9011A6120A539042
:1042B30011A3E075F064A4FFAEF0E4FCFD1208A7BF
:1042C3009011A6120A5F9011A6120A5375F00A9074
:1042D30011A2E0A4FFAEF0E4FCFD1208A79011A622
:1042E300120A5F9011A622120ACC9000191206AC92
:1042F300FFE4900D5AF0A3EFF07BFF229000011230
:104303000823FF900DD3120ACC900DD9E0FDF5825E
:10431300758300EF12070D900DD0120ACC900001A7
:10432300120823E5F0FFED2401FDE433FC900DD3E7
:10433300020ACC8D828C83EF12070D900DD0020AF6
:10434300CCF9E43AFAE4900D53F07D08FC22900D89
:10435300D9E0F582758300ED12070DEEFF900DD9BC
:10436300E0F5827583002290135B120ACC9000045F
:10437300120823FF900D5AE5F02290129E120ACCE8
:104383001207F8FFE5F0C4F854F0C868FEEFC45410
:104393000F48FFEE8FF012085B9012A3E0229011FA
:1043A300A2E09011A1F09011A3E09011A2F090115E
:1043B300A4E09011A3F09011A5E09011A4F0E4A360
:1043C300F09011A0E014F0229011A3E0FF7E007C96
:1043D300037DE812072FE4FCFD221206ACFF900DCB
:1043E3005AE4F0A3EFF022120A47E47B107A27F98C
:1043F300F80208B490135E120ACC9000080206ACCF
:10440300FFFD900D5AE4F0A3EDF07E007C007D05E6
:1044130012072FEF242EFFEE3409A3229012A512C8
:104423000ACC020693120A539011A1E0FFE4FCFDAB
:10443300FE22E92401F9E43AFA020693120AEC7B1C
:10444300FF7A3679517F012290135B120ACC9000D8
:10445300020206AC8D828C83EF12070D900DD922D8
:104463001206ACFF900D5CE42274852FF582E434D0
:104473000DF58322E475F0010207CCC4540F120634
:10448300FB9012AAE022EF24D090119EF09011A08D
:10449300E0C3940422120A5390119EE0FF3395E087
:1044A300FEFDFC22900DC5E0FFC3944022F0E4F52D
:1044B30083900DCEE024FF92AF2290000C0206AC55
:1044C30090000B0206AC90135B020ACCEFF0A31230
:1044D3000AECE4222402FFE433FEE92FF9EA3E2248
:1044E300120A539011A1E075F00A22900DD9E07ED3
:1044F3000029F9EE3A22FF900DD6020ACC900DC5A1
:0D450300E004F02290129E120ACC0207F88C
:10C07300900DC6EFF0902501E0900DC630E105E08C
:10C08300FF02A80CE0A3F07B017A0D79C77D0112B2
:03C09300ADCF220C
:10BD980090133C120AEC902501E090133C30E00827
:10BDA800120ACC12AB548006120ACC12C544901366
:09BDB8003FEFF090133FE0FF2281
:10C0960090136FEFF0902511E090136F30E105E0FB
:10C0A600FF02A7B3E0A3F07B017A1379707D01123A
:03C0B600AE1B229C
:10BDC100901340120AEC902511E090134030E008E6
:10BDD100120ACC12AA188006120ACC12C558901366
:09BDE10043EFF0901343E0FF2250
:109D3200900DCA120AECA2AFE433900DCEF0C2AF7E
:109D4200902500740AF0740DF0902510740AF074D6
:109D52000D1244B0902505E030E5F9902515E0306C
:109D6200E5F9E4900DCDF0900DCA120ACC12C52F80
:109D7200900DCDE0C39FE49E5029A2AFE433A3F03F
:109D8200C2AF900DCA120ACC900DCD1243631206D7
:109D9200AC902500F09025101244B0900DCDE00457
:049DA200F080C42267
:109BD200900DC6EFF020AF3D7BFF7A3579AD129C38
:109BE20040900DC6E0700B20AC087BFF7A3579CD32
:109BF2008010900DC6E0B4010C20AE097BFF7A35CF
:109C020079ED129C40C2AF75D25575D2AA75D20AAF
:109C120043920180FE900DC6E0700B20AC087BFFE2
:109C22007A36790D8010900DC6E0B4011020AE0D89
:109C32007BFF7A36792FA3120AEC129D3222A312ED
:069C42000AEC129D322223
:10916400900D57120AEC900D56EFF0129BD2E4903A
:109174000DC5F01244A7500A12446CE4F0124500E5
:1091840080F17B017A0D795A900D82120AEC900DD0
:1091940057120ACC900DC6120AEC900D82120ACC1A
:1091A400900DC9120AEC7B017A0D798512AF91906A
:1091B4000D56E030E015E4900DC5F01244A750368A
:1091C40012446CE0603012450080F0E4900DC5F06C
:1091D4001244A7502112446CE0FF601A12C073902D
:1091E4000DC5E0248512446FE0B40A057F0D12C05A
:0791F4007312450080DA222E
:106EF90090129D1244CF9012A3F0F5F012085B7F17
:106F0900107E2712BCBE90129DE030E04C7B017AC6
:106F19001279A212BDC1EF60E6126FDD6012901204
:106F2900A3E0640460D99012A2E0FF12C096804ADF
:106F39009012A2E064087018A3E060147F0812C0E0
:106F4900967F2012C0967F0812C09612437D14F0D6
:106F59009012A2E0640D70A7227B017A1279A21225
:106F6900BD98EF609A126FDD603E9012A3E0640451
:106F7900608D9012A2E0FF12C073124507C4F85445
:106F89000FC868FFE5F0C454F0488FF012085B128F
:106F99004507FF9012A1E0FD3395E045F0FEEF4D66
:106FA90012439504F0026F089012A2E06408701869
:106FB900A3E060147F0812C0737F2012C0737F089A
:106FC90012C07312437D14F09012A2E0640D6003A5
:106FD900026F08229012A2E0FF12BF019012A1EFE6
:036FE900F0F4229F
:107A0F009012A41244CF9012AAF01206FB7F107EA0
:107A1F002712BCBE9012A4E030E04F7B017A12799E
:107A2F00A912BDC1EF60E6127AE360129012AAE0CC
:107A3F00640260D99012A9E0FF12C096804D901297
:107A4F00A9E06408701BA3E060177F0812C0967F3F
:107A5F002012C0967F0812C09612441F12447E1443
:107A6F00F09012A9E0640D70A4227B017A1279A91B
:107A7F0012BD98EF6097127AE3602A9012AAE06421
:107A8F0002608A9012A9E0FF12C07312441FC454FF
:107A9F00F01206FB12441FFF9012A8E04F12448110
:107AAF0004F0027A1C9012A9E06408701BA3E06036
:107ABF00177F0812C0737F2012C0737F0812C07324
:107ACF0012441F12447E14F09012A9E0640D60035B
:107ADF00027A1C229012A9E0FF12BF019012A8EFA8
:037AEF00F0F4228E
:10498A0090119A1244CF9011A0F0F5F012085BE44E
:10499A009011A1F0A3F0A3F0A3F0A3F07F107E275B
:1049AA0012BCBE90119AE020E003024A857B017A8C
:1049BA0011799F12BDC1EF60E390119FE0FFC3948C
:1049CA0030405BEFD3943950551244895003024A60
:1049DA00229011A0E0640470C39011A412442E1214
:1049EA0042E01243EA1242E0120A53C0001243CBD9
:1049FA00D0001242DD120A5375F0641242D21244F8
:104A0A00E31242D61244981242DD120A47E4FEED3E
:104A1A004C708990119FE0FF12C096024B099011C9
:104A2A009FE064087016A3E060127F0812C0967FA8
:104A3A002012C0967F0812C0961243A190119FE0DF
:104A4A00640D60030249A69011A512442EA31242D6
:104A5A00E31243EA1242E0120A53C0009011A41270
:104A6A0043CED0001242A31244281242DD120A4752
:104A7A00E4FFFEED4C600122024B8C7B017A117936
:104A8A009F12BD98EF70030249A690119FE0FFC3E1
:104A9A0094305003024B32EFD394394003024B3225
:104AAA00124489500612C073024B099011A0E064A7
:104ABA000460030249A69011A412442E1242E01285
:104ACA0043EA1242E0120A53C0001243CBD000124A
:104ADA0042DD120A539011A2E075F0641242D61216
:104AEA0044E31242D61244981242DD120A47E4FE07
:104AFA00ED4C60030249A690119FE0FF12C073902B
:104B0A0011A4E0A3F09011A3E0A3F09011A2E0A3F6
:104B1A00F09011A1E0A3F090119EE09011A1F09005
:104B2A0011A0E004F00249A690119FE064087016F3
:104B3A00A3E060127F0812C0737F2012C0737F083F
:104B4A0012C0731243A190119FE0640D60030249E1
:104B5A00A69011A512442EA31242E31243EA12426E
:104B6A00E0120A53C0009011A41243CED0001242A0
:104B7A00A31244281242DD120A47E4FFFEED4C60FC
:104B8A0001229011A6120A4790119B120ACCEE8FAD
:074B9A00F012085B7F01220D
:10AAC200A2A9E433FEC2A9EF70059011348022EFEF
:10AAD200B401059011368019EFB402059011388047
:10AAE20010EFB4030590113A8007EFB404089011F7
:0EAAF2003CECF0A3EDF0AF06EE24FF92A9229B
:10BAEB00EF70059011348019EFB401059011368079
:10BAFB0010EFB402059011388007EFB4030A9011D0
:10BB0B003AE0FCA3E0FD8003E4FCFDAF05AE0422AC
:10400700900DD0120AEC120693FF64026004EFB41D
:10401700032012433E900001120823FF901117E07E
:10402700B5F00DA3E0B50708900DDA7401F080072D
:104037008000E4900DDAF012433074011206FB128F
:10404700433E1244BD30E00B124330120693442026
:104057001206FB900DDAE0600B1243301206934410
:10406700401206FB12433E1244BD5430C4540FFFA6
:10407700124330900001EF12070DE92401F9E43AE9
:10408700FAC003C002C001120693FF12433E124456
:10409700BD54C01313543F4FD001D002D0031206B2
:1040A700FB12433E120693FF6027EFB4020A124346
:1040B700301244354408801112433E120693B4036C
:1040C7000D124330124435440C1206FB80037FE87F
:1040D7002212433E1244C3FF6027EFB4020A124381
:1040E700301244354480801112433E1244C3B40356
:1040F7000D12433012443544C01206FB80037FE89B
:1041070022901131E004FFF0124330900002124474
:104117005B7403F012433E12069364027035124239
:10412700FF124336900003120823FF900DD9E024B5
:104137000212432C124336900003120823E5F0FFC6
:10414700900DD9E0240312432C124457E02404F0C5
:1041570002418E12433E1206936403702A12433EB5
:104167001242FF124457E01244D7FEAF0112433EFA
:10417700E92403F9E43AFCAD017B087A00129FD5E4
:10418700900DD9E0240AF012433E1244C364027032
:1041970054900DDAE06019901119E0FEA3E0FD12CA
:1041A7004330124351A312445BE02402F00242372A
:1041B700901117E0FEA3E0FD124330124351A3EF25
:1041C70012070D901119A3E012435FA3A3EF120783
:1041D7000D901119E012435FA3A3A312445BE024DF
:1041E70004F002423712433E1244C3640370419005
:1041F7000DDAE0600E1243301244EE1242902408AA
:10420700F0802D901117E0FEA3E0FD12433012431A
:1042170060ED12070DEEFF900DD9E0FEF582758374
:1042270000A3EF12070DEE1244D7124290240AF0B2
:10423700900DD9E01244F9EF1206FB12433E9000AD
:104247000D1206AC1244F9EF1206D91244FA7402A1
:104257001206D9900DD6124422D3947F40037FE5EE
:10426700221243301244EEFEAF0112433E90000E7D
:10427700120AF5AC02AD0112433E90000D1206ACD6
:10428700FB7A00129FD57F0022FEAF017C117D1BB8
:0C4297007B087A00129FD5900DD9E02220
:10A45500E49010CAF0EF04900DD3F0ED04A3F0E4FE
:10A46500900DD1F0900DD3E0FF900DD1E0C39F503A
:10A475003EE4A3F0900DD4E0FF900DD2E0C39F50D1
:10A4850018127F3B900DD0EFF064156004E0B4E145
:10A4950008900DD2E004F080DB900DD0E07008A3A9
:10A4A500E09010CAF08008900DD1E004F080B590DE
:05A4B5000DD0E0FF22C4
:10B6A100C003C002C0017B017A237901900DD3123E
:10B6B1000AEC7A0D79CF900DD6120AECD001D002A6
:10B6C100D003124007EF7013900DCFE0902300F0EC
:0CB6D100901132E0FFA3E0FD12A455220E
:020029000022B3
:10BB1B00901371EEF0A3EFF0E490110AF0A3F09004
:10BB2B001371E0FEA3E0FFC390110BE09F90110A8D
:10BB3B00E09E500B12C6C890110A12447780E02287
:10C6C800E490110CF090110CE004F0E0B401F622B3
:10C6D800E490110DF090110DE004F0E0B409F62299
:10C6E800E490110EF090110EE004F0E0B430F62260
:10C6F800E490110FF090110FE004F0E0B460F6221E
:10C3B400E4901110F0A3F090111012447790111032
:0AC3C400E07004A3E0646970EE224B
:10C3CE00E4901112F0A3F090111212447790111212
:0AC3DE00E07004A3E064D270EE22C8
:10C1A600E4901114F0A3F0C3901115E09F901114C0
:10C1B600E09E500B12C3CE90111412447780E822F1
:10A38700900D4E120AEC900D51ECF0A3EDF0E49015
:10A397000D54F0A3F0900D51E0FCA3E0FD900D5497
:10A3A700E0FEA3E0FFC39DEE9C503B900D53E0FD04
:10A3B700600F7C00120741ED4C7006124442129167
:10A3C70064900D4E120ACC900D54E0FEA3E0F58286
:10A3D7008E831242F07A3679537F01129164900D81
:07A3E7005412447780AF22FD
:10784300900D4B12443F1291647A3679591278F8AD
:107853001206931244031242F87A367961127906BA
:10786300900001120823FFE5F01242F57A3679768B
:107873001279069000031243731242F87A3679851F
:107883007F011291647A3679981278F8E924051207
:10789300434412A387900D4B120ACC90000F12435E
:1078A300731242F87A3679AB7F011291647BFF7AC7
:1078B3003679C1127912E9241112434412A3879035
:1078C3000D4B1242EA7A3679D712791290001A12C6
:1078D30042F07A3679EB12791E90001C1242F07A4C
