:10B10000C00F74B1C0E0C082C083750F0A75A10082
:10B110000000000022C00F74B1C0E0C082C083757F
:10B120000F1F75A1010000000022C00F74B1C0E024
:10B13000C082C083750F3475A1020000000022C0D8
:10B140000F74B1C0E0C082C083750F4975A10300C0
:04B1500000000022D9
:0DCBA100EF90CBAA9390B100730A1F3449A6
:10A37600EB60010A4A601D8C838D8263A2018E8385
:10A386008F8263A20100E0A363A201F0A363A2018E
:10A39600DBF4DAF222C0A275A2010000C082C083FB
:10A3A60063A2010000C082C083EB60010A4A601DFF
:10A3B6008C838D8263A2018E838F8263A20100E06B
:10A3C600A363A201F0A363A201DBF4DAF2D083D087
:0DA3D6008263A2010000D083D082D0A222B9
:03000000025BF8A8
:105BF8007598007599209022E074D9F090270E745A
:105C080000F09027027470F09027037400F0E4907D
:105C18000000F0900000E004F0E0B4C8F69027001F
:105C28007480F09027087400F0902709F0902720DE
:105C3800F0902721F0902722F0902723F090272436
:105C4800F0902725F0902726F0902727F090272816
:105C5800F0902729F090272AF090272BF0759900CB
:105C68009022E17400F09022E27490F09022E774A0
:105C7800FFF09022E8F09022E9F09022EAF09022DA
:105C8800EBF09022ECF09022ED7400F09022EEF010
:105C98009022EFF09022F0F09022F1F09022F2F0B2
:105CA800750D18750E00758121C2C112B10A025C0A
:015CB800F4F7
:0CCBE000016800AA005A002D0015000B8F
:0A18000042120E000042120C00001C
:10C1D300900D066480F8E064809822900D06E0FEDE
:10C1E300A3E0FFC322900D12120A5F900D12020A00
:0AC1F30047120ACC900D0B020AEC73
:0ECB6900902784E054BFF00000E04440F0222A
:10ACAA00EBD394084004007F1222EDD3940350049E
:10ACBA00EDB40104007F1122EF9022E66026E04401
:10ACCA0004F0902781E0440CF09022D4E04480F014
:10ACDA00E054F04BF0AF05EFC43354E0FFE0549F6B
:10ACEA004FF08012E054FBF09022D4E0547FF090B1
:09ACFA002781E054F3F07F0022F1
:10C1A900EFD394035005ED94034004007F112290CE
:10C1B9002786E054FC4FF0AF05EF25E025E0FF901E
:0AC1C90022D5E054F34FF07F00226E
:10C12200ED6005D3940E4004007F1122ED04C45447
:10C13200F0FE9022D5E0540F4EF0EF6006E044028C
:0DC14200F080079022D5E054FDF07F002230
:10C5CC00A2AFE433FFC2AF9022D7E0FDE0FEEF2430
:10C5DC00FF92AFAF06EFFEEDFF7C007D10120796C9
:01C5EC00222C
:10CA6B009022D6E05478131313541FFF60011F223A
:10B7120074FFF5F012085B7F13E4901206F0A3F0B9
:10B722009022D6E05470600D12C5CCEE8FF0120854
:10B732005BE4FF8019901206E475F0011207CCC396
:10B74200901207E094D0901206E0940740D2EF6086
:03B75200010022D1
:109CAE00AA05EBD394084004007F1222EAD3940352
:109CBE004004007F1122EF60557D02E4FF12C122A5
:109CCE00AF02AD077F0112ACAAAC07EC704912CB04
:109CDE0069901370E025E024E0F582E434CBF5833F
:109CEE00E493FF740193901208CFF0A3EFF0E4A376
:109CFE00F0A3F090120812C1E190120BE09F9012A7
:109D0E000AE09E5012E475F0011207CC80E5E4FBE8
:0A9D1E00FDFF12ACAAAC07AF04224F
:10BE2500900D01120AECEFD394084004007F122212
:10BE3500AB07E4FD7F01129CAEEF600122900D017E
:10BE4500120ACC12B712EF600122E4FBFDFF129C2F
:04BE5500AE7F00229A
:10733100900D04EEF0A3EFF0A3ECF0A3EDF0900DAF
:107341000AE0FFC3940A4006EFD3940F4004007F84
:107351001122900D0412C1E1900D07E09FEE12C1C0
:10736100D34004007F142212C1DE900D05E09FFF7F
:10737100900D04E09E900D0EF0A3EFF0D3900D0759
:10738100E09BEA12C1D34009E4900D10F0A3F08014
:1073910029C3900D05E09BEA900D0412C1D6500B54
:1073A100900D0EE0FFA3E0A3CF800B12C1DEEB9F97
:1073B100FFEA9E900D10F0A3EFF0900D0AE0FF742C
:1073C100017E00A807088005C333CE33CED8F92447
:1073D100FFFFEE34FFFEE4FCFD900D12120A5F90F8
:1073E1000D10E0FEA3E0FFE4FCFDA3120A53120816
:1073F100B412C1E8C006C007900D0EE0FEA3E0FB89
:10740100AA06E4F9F8D007D00612093F12C1E8EE46
:10741100547FFE900D0B120ACCEE8FF012085B7FA9
:02742100002247
:0CCBC8007B017A12790E7F0712BE252235
:0CCBD4007B017A12790C7F0812BE25222A
:10AE6400900CFF120AEC900CFEEFF0C3940A40061B
:10AE7400E0D3940F4004007F11227B017A0D790204
:10AE840012B712EF60012290120EE0FEA3E0FF90D1
:10AE9400120CE0FCA3E0FD900CFEE0900D0AF09093
:10AEA4000CFF12C1F4900D02E0FAA3E0FB1273311F
:07AEB400EF6001227F002284
:109892009011F1EDF0A3120AEC9011F0EFF0D394D5
:1098A200084004007F12229011F1E0FFC3940A40A5
:1098B20006EFD3940F4004007F11227B017A1179C5
:1098C200F77F0712BE25EF6001227B017A1179F53D
:1098D2007F0812BE25EF6001229011F0E0FF7B01AC
:1098E2007A1179F912BE25EF6001229011F7E0FE9C
:1098F200A3E0FF9011F5E0FCA3E0FD9011F1E090F0
:109902000D0AF09011F212C1F49011F9E0FAA3E0FD
:0B991200FB127331EF6001227F002286
:04180A004113700016
:10AF1200E4FDEF1460141460151460161460171425
:10AF22006018240570187E088016E4FE80127E20C8
:10AF3200800E7E40800A7E6080067E0C80027D123A
:10AF4200ED600300FF22901370EFF0538E10EE427B
:10AF52008EE58E90278530E306E04404F08004E01D
:06AF620054FBF07F002209
:030026008F98228E
:03002E008F992285
:030036008F9A227C
:08180E0041135C0041135D0071
:10C93000A2AFE433FEC2AFEB9022EF22AF06EE24AB
:06C94000FF92AF7F002210
:10B85A00E5B420E204007F102212C93030E106E08C
:10B86A004404F08004E054FBF0EB30E003D38001A1
:10B87A00C39288ED24FF92B8EF24FF92A89022F297
:10B88A00E030A8054404F0800354FBF012C93C22BE
:10B89A00E5B420E304007F112212C93030E106E04A
:10B8AA004408F08004E054F7F0EB30E003D3800161
:10B8BA00C3928AED24FF92BAEF24FF92AA9022F251
:10B8CA00E030AA054408F0800354F7F012C93C227C
:041816004113718089
:10760200E0FEA3E0FFF5828E83A3A31206AC9027CF
:1076120005F08F828E83A3A3A31206AC902704F0F9
:10762200901371E04401902700F022F0901323E0C0
:10763200F58A901321E0F58C22E0FEA3E0FFF582AB
:107642008E831206AC902707F08F828E83A31206D8
:10765200AC902706F022FFE0FAA3E02DF582EA3C87
:10766200F583E4936F22900D05E475F0010207CCD7
:10767200900D03E0FEA3E0A3FFE0FCA3E0FDC39FA7
:10768200EC9E229027007480F09027027470F0A381
:10769200E4F0902708F0A3F07F0122E0FEA3E0903F
:1076A2002703F0EE902702F022FFEEF0A3EFF04363
:1076B200992090270EE4F0901370E022902709742D
:1076C20001F0902708E4F022120ACC8D828C83020A
:1076D20006ACEEF0A3EFF0EE54014F22CFF0A3EF91
:0D76E200F0E422900D09120A5F900D0922BC
:06CD6400E4901371F022BF
:07CD56009013717480F022BC
:10BCA60090270EE4F090270DE020E0F90000000058
:10BCB600EF1276A1902708E4F0A304F0901371E048
:10BCC6004402902700F00000000090270DE020E0DD
:08BCD600F99027007480F022B0
:100E7F00900D4C120AEC900D4A1276D46004007F4C
:100E8F001422900D4AE0FEA3E07802CEC313CE13D6
:100E9F00D8F9900D561276AB70047F808002E4FF74
:100EAF0012A5FD901371E0701D902700E064807013
:100EBF0015902708E0700FA3E0700B902702E0B4A5
:100ECF007004A3E06009900D587413F0020FE4E46E
:100EDF00FF12B494E4900D5DF012C2C8900D56E06D
:100EEF00FEA3E0FF12BCA6900D4FE030E00AE490A5
:100EFF000D5812762D020FE490270DE020E0F91225
:100F0F0076BE900D50F0A3F0900D56E0FFA3E09049
:100F1F000D54CFF0A3EFF0900D52E4F0A37480F0D6
:100F2F0012C2C8900D5412769D900D4C120ACC909F
:100F3F000D5012763B900D5012760200000000907B
:100F4F000D50E475F0041207CC900D5412766B908F
:100F5F000D5274FFF5F01207CC900D52E07002A302
:100F6F00E070BD90270DE020E0F912762E900D4A2B
:100F7F00E0FFA3E0900D591276DE900D58F0900D22
:100F8F005BF0A3F0900D5BE0FEA3E0FFC3EE9402D5
:100F9F00502E900D4C120ACC8F828E831206ACFF0E
:100FAF00900D5BE0FCA3E0FD900D5912765960089F
:100FBF00900D587415F08008900D5B12766B80C4FD
:100FCF00900D58E0600F900D5DE004F0E0C39404C5
:100FDF005003020EE812768512A5FD5399DF7F01AB
:0C0FEF0012B494900D58E0FF6001002245
:1054DE009011A3120AEC9011A11276D46004007FF1
:1054EE0014229011A1E0FEA3E07802CEC313CE13D6
:1054FE00D8F99011AE1276AB70047F808002E4FF73
:10550E0012A5FD901371E0701D902700E06480706D
:10551E0015902708E0700FA3E0700B902702E0B4FF
:10552E007004A3E060099011B07413F002565BE4AE
:10553E00FF12B494E49011B5F012C2C89011AEE00F
:10554E00FEA3E0FF12BCA69011A6E07002A3E070CD
:10555E00099011B012762D02565B90270DE020E0D7
:10556E00F91276BE9011A8F0A3F09011AEE0FFA351
:10557E00E09011ACCFF0A3EFF09011A6E0FCA3E009
:10558E00FDAE047802CEC313CE13D8F9FF9011AA44
:10559E00EEF0A3EFF0ED5403600A9011AAE475F05B
:1055AE00010255F29011AAE07002A3E0603C12C213
:1055BE00C89011AC12769D9011A3120ACC9011A82E
:1055CE0012763B9011A8127602000000009011A8EE
:1055DE00E475F0041207CC9011AC12766B9011AA00
:1055EE0074FFF5F01207CC0255B290270DE020E0C3
:1055FE00F912762E9011A1E0FFA3E09011B1127670
:10560E00DE9011B0F09011B3F0A3F09011A6E0FE71
:10561E00A3E09011B312767A501E9011A31276CA9F
:10562E009011B112765860089011B07415F0800880
:10563E009011B312766B80D39011B0E0600F901181
:10564E00B5E004F0E0C3940450030255471276858A
:10565E0012A5FD5399DF7F0112B4949011B0E0FFB3
:04566E0060010022B5
:1084E300900CFEEEF0A3EFF0A3120AEC900CFEE06A
:1084F300FEA3E0FFE4FCFD1276E5120A53900D049F
:10850300E024FFFF900D03E034FFFEE4FCFD1208BE
:10851300A71276E5120A47ED4C6004007F1222E4AD
:10852300900D08F0900CFEE0FFA3E0900D0D127685
:10853300DE900D07F0E4900D05F0A3F01276725073
:1085430029900D0DE0FEA3E02DF582EE3CF583E4CA
:1085530093FF900D00120ACC900D05A3E0F5828CD9
:1085630083EF12070D12766880D2E4900D05F0A315
:10857300F0127672501B900D001276CA900D0D12F8
:1085830076586008900D087416F08005127668809E
:10859300E0900D08E0600B900D07E004F0E0640448
:0885A3007093900D08E0FF2227
:10C94600AF04E0FDA3E0FB12C38DEF22EDF0A3EBF5
:06C95600F0AC07E5982299
:0BCC1C00EF6004439810225398EF22B1
:10C38D00EFD394074008EF640A60037F1222ED603B
:10C39D0009EBD39401400C7F1122EBD3940240039F
:06C3AD007F11227F002237
:10866A00900CFE12C95220E404007F1022900CFEE6
:10867A0012C94660020022EC120B7E86A40086AA6A
:10868A000186B00286B60386BC0486C20586C80681
:10869A0086CE0786D40A000086D87E0179FE802E0F
:1086AA007E0279FD80287E0479FB80227E0879F794
:1086BA00801C7E1079EF80167E2079DF80107E4044
:1086CA0079BF800A7E80797F80047EFFE4F9900C6E
:1086DA00FEE06019E952B19022EAE059F0900CFFED
:1086EA00E06005EE42C18032E952C1802D900CFF54
:1086FA00E0FF700E9022EAE04EF09022E7E04EF0A2
:10870A008012EF9022EAB40108E04EF09022E7804E
:0D871A0000E059F0EE42B1EE42B97F0022BE
:10872700900CFE12C95220E404007F1022900CFE28
:1087370012C94660020022EC120B7E876100876730
:1087470001876D02877303877904877F058785060D
:10875700878B0787910A000087957E0179FE802E17
:108767007E0279FD80287E0479FB80227E0879F7D6
:10877700801C7E1079EF80167E2079DF80107E4086
:1087870079BF800A7E80797F80047EFFE4F9900CB0
:10879700FEE06019E952B29022EBE059F0900CFF2D
:1087A700E06005EE42C28032E952C2802D900CFF94
:1087B700E0FF700E9022EBE04EF09022E8E04EF0E2
:1087C7008012EF9022EBB40108E04EF09022E8808F
:0D87D70000E059F0EE42B2EE42BA7F0022FF
:1085AB00900CFE12C95220E404007F1022AF0490FD
:1085BB000CFE12C94860020022EC120B7E85E7000C
:1085CB0085ED0185F30285F90385FF048605058694
:1085DB000B0686110786170A0000861B7E0179FEA3
:1085EB00802E7E0279FD80287E0479FB80227E0816
:1085FB0079F7801C7E1079EF80167E2079DF801052
:10860B007E4079BF800A7E80797F80047EFFE4F90B
:10861B00900CFEE06019E952B49022ECE059F09016
:10862B000CFFE06005EE42C48032E952C4802D900D
:10863B000CFFE0FF700E9022ECE04EF09022E9E090
:10864B004EF08012EF9022ECB40108E04EF0902235
:0F865B00E98000E059F0EE42B4EE42BC7F00220D
:0C181A0041134100411342004113430000
:08CD1E00EDF0A3EBF0E5922219
:04C7D200E0FD7F0106
:10C7D600ED600543F904800353F9FBEF600443E978
:06C7E600042253E9FB22CE
:0BCC2700EF6004439202225392FD22B2
:108CE20090130A12CD1E20E104007F102290130C73
:108CF200E0D394034004007F2022E4FDEF120B7EB8
:108D02008D21008D27018D2D028D33038D39048D28
:108D12003F058D45068D4B078D510A00008D577911
:108D2200017EFE803279027EFD802C79047EFB80FA
:108D32002679087EF7802079107EEF801A79207ECE
:108D4200DF801479407EBF800E79807E7F80087933
:108D5200FFE4FE80027D30ED600300FF2290130AE3
:108D6200E0602790130CE0FF30E105E942EA80035E
:108D7200EE52EAEF30E005E942EB8003EE52EBE916
:108D820042EC90130B12C7D28003EE52EC7F00220A
:0BCC3200EF6004439204225392FB22A7
:108D920090130E12CD1E20E204007F1122901310B8
:108DA200E0D394034004007F2122E4FDEF120B7E06
:108DB2008DD1008DD7018DDD028DE3038DE9048D08
:108DC200EF058DF5068DFB078E010A00008E0779EF
:108DD200017EFE803279027EFD802C79047EFB804A
:108DE2002679087EF7802079107EEF801A79207E1E
:108DF200DF801479407EBF800E79807E7F80087983
:108E0200FFE4FE80027D31ED600300FF2290130E2D
:108E1200E06027901310E0FF30E105E942F28003A1
:108E2200EE52F2EF30E005E942F38003EE52F3E94D
:108E320042F490130F12C7D28003EE52F47F002245
:0BCC3D00EF6004439208225392F7229C
:1090E90090131212CD1E20E304007F132290131453
:1090F900E0D394034004007F2322E4FDEF120B7EAA
:10910900912200912801912E04913405913A0691FA
:10911900400791460A0000914C79017EFE8026792C
:10912900027EFD802079107EEF801A79207EDF8013
:109139001479407EBF800E79807E7F800879FFE4B4
:10914900FE80027D33ED600300FF22901312E06080
:1091590027901314E0FF30E105E942FA8003EE524B
:10916900FAEF30E005E942FB8003EE52FBE942FCED
:0E91790090131312C7D28003EE52FC7F002227
:0DCBAE00F0A3F0EF24FF92AF902190E02261
:06CD6A00902191EFF02280
:10CA7B00EF9021916005E04402F022E054FDF0229A
:10CA8B00EF9021916005E04404F022E054FBF0228A
:10CA9B00EF9021916005E04408F022E054F7F0227A
:10CAAB00EF9021916005E04410F022E054EFF0226A
:09CD0300902158EFF0EEA3F0229C
:09CD0C0090215AEFF0EEA3F02291
:0FCB4B00AC02AD017B087A007F507E2102A376F9
:10C7EC00A2AFE433FFC2AF902004E4F0902001121A
:0AC7FC00CBAE4440F0E054BFF02241
:10C80600A2AFE433FFC2AF902084E4F090208112FF
:0AC81600CBAE4420F0E054DFF02226
:0BCC48007F1612CD6A12C7EC02C8066E
:0C18260041127D004112780041127C004C
:1093FB00E5E8F0A3E5E9F0AFA875E902E4F5E87557
:10940B00A8809027927483F090279EE0C2AF90279C
:10941B0093E0E4F583D2AF2290279F7444F090271A
:10942B0092E0547FF0E4901278F022120ACC8E82F4
:10943B007583001206AC902790F0E4F583D2AF222F
:10944B009027927480F022E0547F25E0902791F0D2
:10945B0022FEE490127DF0902792E02290123FE0E2
:10946B0004F0E0C3942022EFF0A3EDF0A3120AEC7A
:10947B00E422E004F0901278E02212C72A9027929F
:0A948B00E022E0F5E88FA8AF05220B
:0BCC5300EF60044399802253997F2278
:10AA0600E59920E704007F1022901318E0FEC39416
:10AA1600125004007F1122EF6041A2AFE433FFC25F
:10AA2600AF902794EEF090279674FFF0902795E468
:10AA3600F0902793E090279EE0EB90279230E00578
:10AA460074A3F080037483F053F9FDED600343F9BA
:10AA56000243E902EF24FF92AF800653E9FD129408
:04AA66004B7F002200
:10C72A00E4901276F0A3F0901276E475F001120705
:0EC73A00CC901276E07004A3E0640A70EA224C
:108A170090122E129472901236F0E59920E7040016
:108A27007F1022901233E0FE70028006EED3940F7F
:108A37004004007F1122E4FFFE12C14F901234124E
:108A470093FB90122E129452C2AF90122FE0129401
:108A570041FE901233E0FDEEC39D500BC2AF901262
:108A6700301294360E80EB129423901233E02402D6
:108A770012945C4470F0E4FD90123612947D600409
:108A87007D12801290127DE06E600B901236E0C36B
:108A9700944040E47D80ED700612948554EFF0E435
:108AA700901236F030960320970A90123612946A85
:108AB70040F27D8012944B901235E0F5E990123424
:048AC70012948D2256
:106C660090123712947290123FF0E59920E70400D3
:106C76007F102290123CE0FE70028006EED3941044
:106C86004004007F1122E4FFFE12C14F90123D1214
:106C960093FB901237129452C2AF901238E01294BE
:106CA6004190123CE0902797F01294237E021294B2
:106CB6005E447CF0E4FD90123F12947D60047D12E8
:106CC600801290127DE06E600B90123FE0C39450EC
:106CD60040E47D80ED6014E490123FF0309603208E
:106CE600976B12946740F57D80806212948554F705
:106CF600F0902791E04401F0E490123FF090127872
:106D0600E0700E90123FE004F0E0C394E040EE7DA8
:106D160080E4FE90123CE0FCEEC39C501EC2AF9095
:106D26002790E0FC901239120ACC8E82758300EC13
:106D360012070DE4F583D2AF0E80D8E490123FF02F
:106D460030960320970712946740F57D8012944B86
:0D6D560090123EE0F5E990123D12948D225E
:108C310090127EEF129476901285F0E59920E70468
:108C4100007F1022901282E0FE70028006EED39423
:108C5100104004007F1122E4FFFE12C14F901283E5
:108C61001293FB90127E129452E4FE901282E0FD68
:108C7100EEC39D500BC2AF90127F1294360E80EB63
:108C8100129423901282E00412945C4470F0E4FD8B
:108C910090128512947D60047D12801290127DE005
:108CA1006E600B901285E0C3944040E47D80ED70CE
:108CB1000612948554EFF0E4901285F0309603206B
:108CC100970F901285E0FE04F0EEC3941040ED7D05
:108CD1008012944B901284E0F5E990128312948DE6
:018CE1002270
:107B8D009011FBEFF0A3120AECE59920E704007FBA
:107B9D001022E4FFFE12C14F901202E5E8F0A3E5BA
:107BAD00E9F0A3E5A8F01294049011FBE0547F25B1
:107BBD00E04401902791F09011FFE0FFD394104025
:107BCD000B9027977410F0EF24F080099011FFE0CF
:107BDD00902797F0E490127CF012942390127CE0A1
:107BED00901205F0E490127DF09011FC120ACC90E9
:107BFD001279120AEC902792E04474F0E49012008E
:107C0D00F0901278E060FAE4901201F0902797E07E
:107C1D00FF901201E0FEC39F502DC2AF902790E060
:107C2D00FFEEFD901205E02DFDE433FC9011FC12EA
:107C3D000ACC8D828C83EF12070DE4F583D2AF90C1
:107C4D001201E004F080C53096FD3097FA12944B86
:107C5D00901203E0F5E9901202E0F5E8901204E0CD
:087C6D00F5A8901200E0FF22CF
:10B4DC0015660AB30AB2055906B4035A035C01AEE9
:10B4EC0001C200E10104008201D200E901120089CD
:10B4FC0000B20059008A0045008A0045008A0045C8
:10B50C00023001180118008C0096004B00460023F5
:08B51C00003C001E003C001E73
:101832004111D4004111D3034111D2004111D10011
:041842004111D00080
:10B1540075F002120AC0E493FF7401939011C8CFF2
:10B16400F0A3EFF0E4A3F0A3F0229022007438F0EF
:10B174009011D3E025E025E0229011C8E0FEA3E081
:10B18400FFC39011CBE09F9011CAE09E229011CA98
:0EB19400E475F0010207CC9022007434F02222
:0ECB7700EF30E0047F018002E4FF127FFE2217
:07CD5D00902200741CF0227B
:10918700900D28EEF0A3EFF0A3EDF0600B9027838E
:10919700E4F09022D07488F0A2AFE433900D2BF066
:1091A700C2AF90228DE0900D2CF07F1112CD26904A
:1091B7002200742CF07F13E49011C6F0A3F0900DF9
:1091C70028E0FCA3E0FDC39011C7E09D9011C6E025
:1091D7009C502190228DE020E612A3E05407FE70F8
:1091E70003FF8010EEB404047F1280089011C612AA
:1091F700B19480CA90228F74FFF0900D2CE09022DA
:109207008DF0900D2BE024FF92AF900D2AE06009BE
:0E921700EF70069022D07484F0EF6001002208
:10CA49007F0A12CD26E4FD7F0112C68F7F0102CA3B
:01CA5900BB21
:109D2800900D1CEFF0BF04028009900D1CE0D39445
:109D3800054004007F182212B19BE4FF12B49490EE
:109D48000D1CE0FF12ADB4900D1CE01460161460F9
:109D58001B14602024FE60242405702690221174B0
:109D680009F0801E9022117405F08016902211745B
:109D780003F0800E9022117402F080069022117474
:109D880010F0902200743CF07F0112B494900D1CE6
:089D9800E09011D3F07F0022DE
:10B23C00901372EFF012ADB4901372E0FF1460161D
:10B24C0014601B14602024FE6024240570269022B8
:10B25C00117409F0801E9022117405F08016902252
:10B26C00117403F0800E9022117402F0800690226B
:0CB27C00117410F09011D3EFF07F00224D
:10BBC200901373EFF07F03129D28901373E090227D
:10BBD200246013E04440F0902785E04408F090226E
:10BBE20037E04480F022E0543FF0902785E054F79C
:09BBF200F0902237E0547FF022AC
:1087E400900D1CEFF0C3940B4006E0D3941A4004A0
:1087F400007F172212B19BE4FF12B494900D1CE089
:10880400120B7E883B0B883F0C88430D88470E88EB
:108814004B0F884F10885311885712885B13885F59
:1088240014886315886716886B17886F18887319FE
:1088340088771A000088837F65803A7F6A80367F54
:108844006F80327F74802E7F79802A7F7E80267F9E
:108854008380227F88801E7F8D801A7F9280167F7E
:108864009780127F9C800E7FA1800A7FA680067F5E
:10887400AB80027FB07E0912895E900D1DEFF090EF
:108884000D1DE0600400028800902200743CF07F1B
:0D8894000112B494900D1DE0FF6001002260
:0FCB5A00E4FE902284E0FF70050EEEB4FAF422A0
:08CD2600EF541F90228DF02252
:10C88800A2AFE433FEC2AFED24FF92F8EF24FF928B
:09C89800E8AF06EF24FF92AF2285
:10B49400EF603D90228EE054F7F0E04408F075919F
:10B4A40010A2AFE433FFC2AF902084E4F090208177
:10B4B400F0A3F0EF24FF92AFE49011D2F09021902A
:10B4C400E04420F0E054DFF0902201E054FEF0224A
:08B4D400902201E04401F02286
:06CD7000EF24FF92AF2248
:03003E000277DC6A
:10827F00902002E4F0902303E0902192F09022806E
:10828F00E05470FF6007641060037F15229011D1D6
:10829F007401F09011D4E0547DF0900DD574E1F09D
:1082AF0012003E12B16E24DCF582E434B4F583C0C3
:1082BF0083C082901370E0D082D08312B15412B178
:1082CF007D50139011D4E030E107E4900DD5F0808C
:1082DF000512B19180E8900DD5E0B4E10F12B19B7A
:1082EF00902002E4F09011D1F07FE122E49011D1BF
:1082FF00F0900DD5F0902301E030E539900DD57455
:10830F00E9F012B17424F4F582E434B4F583C08338
:10831F00C082901370E0D082D08312B15412B17D1D
:10832F0050139011D4E030E707E4900DD5F080059D
:10833F0012B19180E8902002E4F0900DD5E0FF2279
:109495009011D1E0600302952C9023807405F0A310
:1094A5007402F0EF6004E04410F0902382E4F0A32E
:1094B500EDF090222CE0900E11F090222CE044204B
:1094C500F09020027480F0902280E0547060046473
:1094D50010704712B16E240CF582E434B5F583C0E3
:1094E50083C082901370E0D082D08375F002120A97
:1094F500C0E493FF7401939011CC12B1639011CC29
:10950500E0FEA3E0FFC39011CFE09F9011CEE09E57
:10951500500512B19480E612B19B902002E4F090C0
:089525000E11E090222CF0224F
:10C68F00EDD394024004007F1122EF6009ED4410B6
:0FC69F0090222CF0800690222C7430F07F002225
:06CD760090222DEFF022D7
:10CABB00EF90227E6005E04408F022E054F7F0226C
:109A2F0090135EEFF0D394034004007F1122901344
:109A3F005EE0FE700A9011D0E07004007F1622E401
:109A4F0090135FF0EEB4010D12CD5D7F01129AAD50
:109A5F007401F0804390135EE0B4020D12CD5D7F70
:109A6F0002129AAD7402F0802F90135EE0B40310CF
:109A7F0012CD5D7F0312A5939011D07403F080185F
:109A8F00E4FF12A593E4FD7F107E271291879013B8
:109A9F005FEFF0E49011D0F090135FE0FF2212A57A
:059AAF00939011D0228C
:10CACB00EFD394164004007F11221261CC7F002219
:10CADB00EF6009AF0512C9D7439EC022539E3F2278
:0ECB8500EF600712CD4E439CC022539C3F220E
:10BBFB00902281E0541FD39402402D9022BDE0206F
:10BC0B00E0267F019022B0E04401F0E4FDFC90229D
:10BC1B00BDE030E004E4FF800B0DBD00010CBC0364
:09BC2B00EDBDE8EAEF70DD222214
:08184600411361004113600031
:10714B009022EDE06580FF9022F0E05FFF9022EE51
:10715B00E06590FE9022F1E05EFE9022EFE065B0DC
:10716B00FC9022F2E05CFC9022F0E022E5E8F0AD2E
:10717B009AA9E9759A07E4F5E8F5E99022E1746EAE
:10718B00F09022E6E054FBF0E054E7F022E090228E
:10719B00E5F09022E27490F0D2D875E88075A88063
:1071AB0022E0FEEFF4FCEE5CF022EEF0A3EFF0A396
:1071BB00EDF0A3EBF09022F0E055B9FFE06F22E089
:1071CB00FAA3E0FBEA9022E3F0A3EBF022E5A8F0B0
:1071DB00E4F5A89022EBE0229022F1E055BAFFE013
:1071EB006F229022F2E055BCFFE06F22EF4404FFC8
:1071FB009022EBE054E7F022AF058F9AD2D8538F51
:10720B00BF22E0FEEFF4FFEE5FF022FFE05403330A
:10721B00333354F8FEEF4E22EF9022E0F0E4F59A70
:10722B0022E0F5E8AF018FE92254012FFFE0FDA822
:03723B0006082220
:10B56C00ED24FF92FCEF6033EB4A700A9012EAE094
:10B57C007004007F11229022E1746EF01271CF9052
:10B58C0012EAE09022E5F0A3E054E7F0E04480F00A
:10B59C00D2EC9022E0E04420F08009C2EC9022E052
:07B5AC00E054DFF07F0022F4
:10C06A00900D1CEFF020E0069022E07498F09027E3
:10C07A0083E4F012CD5D902780E4F0A3F0900D1CCC
:0EC08A00E030E007902203E0547FF07F0022B8
:10C318009022E074D8F090278074F6F0A37423F08C
:10C3280012C332EF600312C3322212CD5DE4FD7FE7
:07C33800107E2712918722FD
:109E8E00901344EFF0A3EDF0A3EBF0E4FFFE90137C
:109E9E0044E0FDA806088002C313D8FC90134512B7
:109EAE0072348002C313D8FC9013461272348002AF
:109EBE00C313D8FC54012FFF0EEEB407D1EFC39499
:109ECE00024004007F1122E4FFFE12C14FAFA8AE84
:109EDE00E8ADE9901344E0547FF5A8A3E0F5E8A3BC
:109EEE00E0F5E943A8807587010000E4F5A88DE947
:069EFE008EE88FA8FF2290
:1060B200900D1C1271B56002800C1271E3600280B7
:1060C200051271ED6004007F1522900D1FE0D3943C
:1060D200034004007F112212CD5DE4900D26F0FFF3
:1060E200FE12C14F900D211271D8900D27F090220F
:1060F200E1E0900D25F09022E0E0900D24F0902256
:10610200E6E0900D23F0900D22127177900D20E0C1
:10611200FC9022E630E706E0547FF08004E0448001
:10612200F09022E6C083C082E0900D1F127216D05A
:1061320082D083F0900D1C1271CA900D1E127198BC
:106142007FB9EC30E004EF54DFFF900D20E030E146
:10615200031271F7127223E5D220E5FB12714B6F25
:10616200701DAF06A3E06F7016AF04A3E0B5040F75
:106172007587020000000000000000000080069009
:106182000D267412F0127203900D2212722C900DD1
:1061920024E09022E0F0900D23E09022E6F0900DB2
:1061A20025E09022E1F0900D27E09022EBF0900D97
:1061B20021E0F5A8900D26E0600100E4FD7F107E4D
:0A61C20027129187900D26E0FF22BE
:10684C009011E41271B56002800C1271E360028049
:10685C00051271ED6004007F15229011E7E0D394CE
:10686C00034004007F1122E49011EEF07F107E278C
:10687C0012C14F9011E91271D89011EFF09022E1F2
:10688C00E09011EDF09022E0E09011ECF09022E617
:10689C00E09011EBF09011EA1271779011E8E0FCA6
:1068AC009022E630E706E0547FF08004E04480F06C
:1068BC009022E6C083C082E09011E7127216D0825B
:1068CC00D083F09011E41271CA9011E61271987F86
:1068DC00BAEC30E004EF54DFFF9011E8E030E10354
:1068EC001271F7127223E5D220E5FB12714B6F7017
:1068FC001DAF06A3E06F7016AF04A3E0B5040F75CF
:10690C0087020000000000000000000080069011CB
:10691C00EE7412F01272039011EA12722C9011ECB8
:10692C00E09022E0F09011EBE09022E6F09011ED77
:10693C00E09022E1F09011EFE09022EBF09011E961
:0C694C00E0F5A89011EEE0FF60010022D1
:107AA200901286EF1271BF6002800C1271E36002C5
:107AB20080051271ED6004007F1522E490128CF0B3
:107AC2007F107E2712C14F9012871271D890128DAB
:107AD200F09022E1E090128BF09022E0E090128A86
:107AE200F09022E6E0901289F0901288E5E8F0AF7B
:107AF2009A12717C12719D7E9B901286E030E10792
:107B0200EE4404FE1271FBEE127224E5D220E5FB74
:107B12009022EDE06580FE9022F0E05EFE9022EE83
:107B2200E06590FD9022F1E05DFD1271656E701DC1
:107B3200AE05A3E06E7016AE04A3E0B5040F758720
:107B42000200000000000000000000800690128C7D
:107B52007412F012720590128812722C90128AE03E
:107B62009022E0F0901289E09022E6F090128BE0F1
:107B72009022E1F090128DE09022EBF0901287E0DB
:0B7B8200F5A890128CE0FF60010022CB
:10B5B300EFD394074004007F16227401A807088084
:10B5C30002C333D8FCFF9022EAE04FF0EB9022ED68
:10B5D300600BE04FF09022E71271AC80091271AC5E
:10B5E3009022E7E04FF0ED9022F06005E04FF0800D
:07B5F3000312720D7F00221C
:10B5FA00EFD394074004007F16227401A80708803D
:10B60A0002C333D8FCFF9022EBE04FF0EB9022EE1E
:10B61A00600BE04FF09022E81271AC80091271AC15
:10B62A009022E8E04FF0ED9022F16005E04FF080C3
:07B63A000312720D7F0022D4
:10B64100EFD394074004007F16227401A8070880F5
:10B6510002C333D8FCFF9022ECE04FF0EB9022EFD5
:10B66100600BE04FF09022E91271AC80091271ACCD
:10B671009022E9E04FF0ED9022F26005E04FF0807A
:07B681000312720D7F00228D
:1099A700EFF07F807E387D017C00A3120A53D3023B
:1099B70009ECE0FCE4120336E4FBFA79C8784202CA
:1099C700028F120A537F007E127D7A7C0002093FC4
:1099D700E47F7BFEFDFC120A53C30209EC120186E9
:1099E70012036AAB07AA06EB4A22ECF0A3EDF0A933
:1099F70007E59A22E0FCA3E0FDE4020331C3EB9400
:109A070020EA940322AD03EDF0EAFF22FFE0FCA376
:109A1700E0FD22AD03EDF0EAFF22E47F7BFEFDFCD3
:089A270022FFE0FCA3E0FD2298
:05C781007481F07F014E
:10C78600ED600543F908800353F9F7EF600443E9C8
:06C79600082253E9F7221E
:0BCC5E00EF6004439A0822539AF7226B
:10A737009012A51299F120E304007F1222C3901210
:10A74700A6E09B9012A5E09A5004007F1122902565
:10A75700867420F0E960399012A5E0FEA3E0902509
:10A7670083F0EEF9902582F0902585129A0C9025BA
:10A7770084F09025867409F0902583EDF09025826A
:10A78700EFF09012A5A3E0902585F0902584E9F0DD
:07A79700E49012A9F0FF227B
:10B8DA00E59A20E304007F1222129A045004007FA2
:10B8EA0011229025867420F0EF601E902583EBF0DC
:10B8FA00EA902582F0A3E0902585F0902582E090D9
:10B90A002584F090258612C781E49012EFF0FF2279
:10A29A009012401299A7501A9012411299D750025F
:10A2AA008010901245E0FFD394635006EFC39401E7
:10A2BA005004007F11229012411299C9901247EE60
:10A2CA00F0A3EFF09012451299B9C004C005C00678
:10A2DA00C0079012471299FBD003D002D001D000D8
:10A2EA001299E47003FA7B01901240E0901247122F
:0EA2FA009A13901246E09012A9F012A7372294
:0BCC6900EF6004439A1022539AEF2260
:10A79E009012AB1299F120E404007F1322C39012A1
:10A7AE00ACE09B9012ABE09A5004007F11229025F2
:10A7BE008E7420F0E960399012ABE0FEA3E0902594
:10A7CE008BF0EEF990258AF090258D129A0C90253B
:10A7DE008CF090258E7409F090258BEDF090258AE3
:10A7EE00EFF09012ABA3E090258DF090258CE9F060
:07A7FE00E49012AFF0FF220E
:10B91A00E59A20E404007F1322129A045004007F5F
:10B92A00112290258E7420F0EF601E90258BEBF08B
:10B93A00EA90258AF0A3E090258DF090258AE09080
:10B94A00258CF090258E12C781E49012F4F0FF2224
:10A308009012491299A7501A90124A1299D75002DE
:10A31800801090124EE0FFD394635006EFC394016F
:10A328005004007F112290124A1299C9901250EEDF
:10A33800F0A3EFF090124E1299B9C004C005C00600
:10A34800C0079012501299FBD003D002D001D00060
:10A358001299E47003FA7B01901249E090125012AE
:0EA368009A1390124FE09012AFF012A79E22AF
:0BCC7400EF6004439A2022539ADF2255
:10A805009012B11299F120E504007F1422C3901231
:10A81500B2E09B9012B1E09A5004007F112290257E
:10A82500967420F0E960399012B1E0FEA3E090251E
:10A8350093F0EEF9902592F0902595129A1A9025AD
:10A8450094F09025967409F0902593EDF09025925B
:10A85500EFF09012B1A3E0902595F0902594E9F0E2
:07A86500E49012B5F0FF22A0
:10B95A00E59A20E504007F1422129A045004007F1D
:10B96A0011229025967420F0EF601E902593EBF03B
:10B97A00EA902592F0A3E0902595F0902592E09028
:10B98A002594F090259612C781E49012F9F0FF22CF
:10A0D8009012521299A7501D129A21901253129958
:10A0E800DD50028010901257E0FFD394635006EFC2
:10A0F800C394015004007F11229012531299C99001
:10A108001259EEF0A3EFF09012571299B9C004C09B
:10A1180005C006C0079012591299FBD003D002D08F
:10A1280001D0001299E47003FA7B01901252E0907A
:10A138001259129A28901258E09012B5F012A805F8
:01A1480022F4
:0BCC7F00EF6004439A4022539ABF224A
:10A86C009012B71299F120E604007F1522C39012C2
:10A87C00B8E09B9012B7E09A5004007F112290250B
:10A88C009E7420F0E960399012B7E0FEA3E09025A9
:10A89C009BF0EEF990259AF090259D129A1A90252E
:10A8AC009CF090259E7409F090259BEDF090259AD4
:10A8BC00EFF09012B7A3E090259DF090259CE9F065
:07A8CC00E49012BBF0FF2233
:10B99A00E59A20E604007F1522129A045004007FDB
:10B9AA00112290259E7420F0EF601E90259BEBF0EB
:10B9BA00EA90259AF0A3E090259DF090259AE090D0
:10B9CA00259CF090259E12C781E49012FEF0FF227A
:10A1490090125B1299A7501D129A2190125C1299D4
:10A15900DD50028010901260E0FFD394635006EF47
:10A16900C394015004007F112290125C1299C99086
:10A179001262EEF0A3EFF09012601299B9C004C018
:10A1890005C006C0079012621299FBD003D002D015
:10A1990001D0001299E47003FA7B0190125BE09000
:10A1A9001262129A28901261E09012BBF012A86C08
:01A1B9002283
:0BCC8A00EF6004439A8022539A7F223F
:10A529009012BD1299F120E704007F1622C3901200
:10A53900BEE09B9012BDE09A5004007F1122902545
:10A54900A67420F0E9603C9012BDE0FEA3E09025DE
:10A55900A3F0EEF99025A2F0AD039025A5EDF0EA60
:10A56900FF9025A4F09025A67409F09025A3EDF09D
:10A579009025A2EFF09012BDA3E09025A5F09025BB
:0AA58900A4E9F0E49012C1F0FF22F3
:10B9DA00E59A20E704007F1622129A045004007F99
:10B9EA0011229025A67420F0EF601E9025A3EBF09B
:10B9FA00EA9025A2F0A3E09025A5F09025A2E09078
:10BA0A0025A4F09025A612C781E4901303F0FF2223
:109FF0009012641299A7501D129A2190126512991D
:10A00000DD50028010901269E0FFD394635006EF98
:10A01000C394015004007F11229012651299C990D7
:10A02000126BEEF0A3EFF09012691299B9C004C060
:10A0300005C006C00790126B1299FBD003D002D066
:10A0400001D0001299E47003FA7B01901264E0FFE2
:10A0500090126BE0FCA3E0FD90126AE09012C1F058
:04A0600012A52922FA
:04184E00411308003A
:1079B600E0FFE4FCFDFE1209D1901319120A5F9054
:1079C6001319120A477808120A10901319120A5F3F
:1079D60090131922E0FFE4FCFDFE1209D190131D5D
:1079E600120A5F90131D120A477808120A109013A4
:1079F6001D120A5F90131D22EFF0900DDC120A474C
:107A060078081209FD900DDC120A5F900DDC020A5F
:107A160047EFF0900D52120A4778081209FD900DB3
:107A260052120A5F900D52020A47902780E054FED8
:107A3600F022AC02AD017B107A007E21227F041277
:107A4600BFDD90219F7401F022E4F0902780E022B0
:107A5600E0FFE4FCFDFE22AC02AD01E0FB7A002271
:107A6600120AECAE02AF01C3EE942322AC02AD01C2
:107A76007B087A007E2122AE02AF017B087A007C69
:107A86002122120A5FE4FB902780E022900DD802A3
:0C7A96000ACCE04404F090219FE4F022B0
:10C42500900CFE127A4F20E00AE04401F0900CFED9
:10C435007401F07F00127A3812A376900CFEE0604A
:05C4450003127A302211
:10C44A00901374127A4F20E00AE04401F0901374BA
:10C45A007401F07F30127A3812A376901374E06078
:05C46A0003127A3022EC
:10C79C00E4FE902780E020E006E04401F07E01906A
:0BC7AC002140EFF0EE6003127A302213
:10BF7F00900DDC127A8820E005E04401F00B127A74
:10BF8F00119021411279FE9021421279FE902143A6
:0FBF9F001279FE902144EFF0EB6003127A30220A
:10C27800E4900CFEF0902780E020E00AE04401F012
:10C28800900CFE7401F07F45127A7212A376900C1E
:08C29800FEE06003127A30227F
:10C7B700E4FE902780E020E006E04401F07E01904F
:0BC7C7002110EFF0EE6003127A302228
:10BFAE00900D52127A8820E005E04401F00B127ACF
:10BFBE002A902111127A17902112127A17902113BA
:0FBFCE00127A17902114EFF0EB6003127A3022F1
:10C2A000E4900CFEF0902780E020E00AE04401F0EA
:10C2B000900CFE7401F07F15127A7212A376900C26
:08C2C000FEE06003127A302257
:06CD7C00902140E0FF22BF
:10C09800902144127A561279BF120A539021431202
:10C0A80079B6120A539021421279B6120A53902196
:0EC0B80041127A561209D11279D0120A47228B
:08CD2E007D45127A7D02A37617
:06CD8200902110E0FF22E9
:10C0C600902114127A561279E3120A539021131210
:10C0D60079DA120A539021121279DA120A53902150
:0EC0E60011127A561209D11279F4120A472269
:08CD36007D15127A7D02A3763F
:08CD3E00EF547F902194F022D4
:08CD4600EF547F902195F022CB
:10CAEB00EF9021936005E04440F022E054BFF02228
:10CAFB00EF9021936005E04420F022E054DFF02218
:10BFDD00EF7002800CEFD3941040028004EF30E03C
:10BFED0004007F1A22EFC31314FF902193E054E352
:0FBFFD00F0E0FEEF25E025E0FFEE4FF07F0022A1
:09C3B300902780E04401F07F03B3
:10C3BC00EFD394034004007F1122902193E054FCAE
:0DC3CC00F0E0FEEF5403FFEE4FF07F002283
:106B6800900DD2EDF0900DCF127A66400DD3EF94D0
:106B7800FFEE94245004007F1822127A92E4120641
:106B8800FB900DD2E0FED394794004007F1622EEEC
:106B9800B40104007F172212C3B3900DD3120A4721
:106BA80012BF7F900DD7E0FF12C79CE4FF12CD3EC5
:106BB800127A43900DD2E02402902300F0900DCF7A
:106BC800120ACC900DD2127A5D7F017E2312A37631
:106BD800902007E4F0900DD2E02402902008F09075
:106BE8000DDB7412F0902180E054FBF0902003122A
:106BF8007A98901304F0A3F0902180E030E207E443
:106C0800900DDBF08016901304E475F0011207CCA8
:106C1800901304E0B402E1A3E0B458DC900DDBE08B
:106C28007030900DD2E02404FF127A92EF1206FB26
:106C3800127A48900DCF120ACCAE02AF01127A92A6
:106C4800120693FB7A007D017C2312A37690219F84
:0E6C5800E4F0127A30900DDBE0FF60010022C4
:1062E600900D48EDF0900D45127A66400DD3EF946F
:1062F600FFEE94245004007F1822900D4E120ACC13
:10630600E41206FB900D48E0FFD3947D5006EFC3E0
:1063160094045004007F162212C3B3900D49120A4A
:106326004712BFAE900D4DE0FF12C7B7E4FF12CD86
:1063360046127A43900D48E02402902400F0900D16
:1063460045120ACC900D48127A5D7F017E2412A375
:1063560076902087E4F0900D48E02402902088F0A3
:10636600900D517413F0902180E054FDF09020833D
:10637600127A98901306F0A3F0902180E030E1079E
:10638600E4900D51F08016901306E475F0011207A3
:10639600CC901306E0B402E1A3E0B458DC900D51B2
:1063A600E0704990219F04F0900D45120ACCAE0290
:1063B600AF01900D48E0FB7A007D017C2412A376A4
:1063C600900D48E0FFE42FF582E43424F583E07075
:1063D60010EF24FCFF900D4E120ACCEF1206FB8044
:1063E60006900D517414F090219FE4F0127A3090CB
:0863F6000D51E0FF60010022DF
:101852004110800042107E00004210C20000411080
:021862007D55B2
:10C56600120ACC8F827583001206AC902542F0E445
:10C57600F583D2AF22902540E054BFF0E04440F06E
:02C58600E422AD
:0BCC9500EF60044398802253987F2238
:0ECB9300439810D2B7E4FB7D017F070285AB0B
:07CBBB00E4901080F07F01FF
:06CBC200EF24FF92B722F0
:107514009012C4EBF0AA07E59820E704007F10223C
:107524009012C5E0FED394094004007F1122EE249A
:10753400FE601314601824FA601C24087020901252
:10754400C67405F080209012C67403F0801890125F
:10755400C67404F080109012C6740BF08008901268
:10756400C5E02402A3F0902540E4F0902543F09078
:107574002540C083C082E0FF9012C6E0FE5403FCA5
:10758400EF4CD082D083F0902543E0FFEE540C13EF
:1075940013543FFEEF4EF0EA605AA2AFE433901268
:1075A400C7F0C2AFED24FF92FD9012C4E030E403B3
:1075B40012CB93902540C083C082E0FF9012C4E0B8
:1075C400FE541CFDEF4DD082D083F0902540E04462
:1075D400C0F0D2EDEE20E412E4FF90107DE090259F
:1075E40042F0E4F5830FEFB410F09012C7E024FFEB
:0E75F40092AF8007902540E4F0C2ED7F0022A8
:10C6AE00AE07E4FF12CBC2C2AF902542EE12C574A4
:0FC6BE00901080E060FA12CBBB9010C1E0FF2219
:10BB4D00901347120AECEDD394104004007F11229C
:10BB5D00E4901080F0FF12CBC2EFC39D500BC2AF2B
:10BB6D0090134712C5660F80F0901080E0B5050365
:0BBB7D00D38001C350F312CBBB1F228A
:10C8BA0012C57BFEC2AF902542EF12C5740EEEB4CC
:08C8CA0010F290107DEFF02246
:10BEBE0090134A120AECEDD394104004007F112225
:10BECE0012C57BFFC2AF90134A12C5660FEFB410B6
:10BEDE00F390134A120ACC12069390107DF07F0055
:01BEEE002231
:10B797009010C2A3E0FFC390107FE09FFFEF543FDC
:10B7A700602C9010C2E0FEA3E02481F58274103E65
:10B7B700F583E01206FB9010C3E02401FF9010C24E
:10B7C7007E00EF543FFFEEF0A3EFF07F01227F00F2
:01B7D700224F
:1096E5007FF07EFF7D077C00120A53D30209ECADA3
:1096F50007AC06ECF07C00E4120331783FE4FBFA9A
:10970500F912009502036AEFF0A3EDF0A3EBF0E583
:109715009822C3E49BFFE49AFE740199FDE498FC4A
:10972500020A5FE024FF92AF7F0022E4901213FE4D
:10973500FDFC020A53AF03E4FCFDFE120A530208C6
:10974500B4E47B03FAF9F8020A47E0FEA3E0FFC39D
:10975500E49FFFE49EFE22900D02020A5FFB120ABF
:109765004778080209FD901271120A5F9012712262
:0BCCA000EF6004439801225398FE222D
:10965500900CFE12970C20E004007F1322900D0160
:10966500E0FBD394624004007F1722A2AFE433905D
:109675000D06F0C2AF900D02120A6B000007D090E4
:109685000D0212973A12975C900D02129746120935
:109695003FE4FDFC12975C900D02120A53900D02F7
:1096A500129717900D02120A47901323EFF0900DB1
:1096B50002129762901321EFF08B8AF58C5389F093
:1096C500438901900CFFE024FF92B9A3E024FF92A7
:1096D5008C900CFEE024FF92A9900D06129728228B
:10B0B600A907E59820E004007F1322A2AFE43390AD
:10B0C60012CDF0C2AF9012CB12974F901323EFF030
:10B0D600EEFF901321F0901323E0F58A8F8C5389AD
:10B0E600F0438901ED24FF92B9EB24FF928CE92409
:0AB0F600FF92A99012CD12972822B4
:0BCCAB00EF6004439802225398FD2222
:10991D0090126D12970C20E104007F1422901270AA
:10992D00E0FBD394624004007F1822A2AFE4339091
:10993D001275F0C2AF901271120A6B000007D09031
:10994D00127112973A12976B12974612093FE4FD66
:10995D00FC12976B120A5390127112971790127195
:10996D00120A47901324EFF0901271129762901320
:10997D0022EFF08B8BF58D53890F43891090126E6A
:10998D00E024FF92BBA3E024FF928E90126DE024A1
:0A999D00FF92AB901275129728227A
:10B36C00A907E59820E104007F1422A2AFE43390F2
:10B37C0012D3F0C2AF9012D112974F901324EFF06A
:10B38C00EEFF901322F0901324E0F58B8F8D5389F0
:10B39C000F438910ED24FF92BBEB24FF928EE9241E
:0AB3AC00FF92AB9012D312972822F3
:0BCCB600EF6004439804225398FB2217
:1076EF0090121012970C20E204007F15227F0512D2
:1076FF009730C31209EC500C9012131296E5400408
:10770F00007F19227FF87EFF7D037C0090121312F9
:10771F0096ED400E9012187440F09012177406F008
:10772F0080447FFC7EFF7D017C009012131296ED4A
:10773F00400E9012187420F09012177405F08026E6
:10774F00E47FFE7EFFFDFC9012131296ED9012184F
:10775F00400B7410F09012177404F080097408F045
:10776F009012177403F07F081297301208B4C007F5
:10777F00901218E0FBE4FAF9F8D00712093FE4126F
:10778F00032C78BF1297029012191296F4A2AFE44D
:10779F0033FEC2AF53A9F0901210E0602790121978
:1077AF00E0F5AA8FAC901211E024FF92F9A3E060EC
:1077BF000C901217E025E0440142A9800353A9FE63
:0D77CF00D2E98002C2E9AF06EE129729222E
:0BCCC100EF6004439808225398F7220C
:106D630090121A12970C20E304007F1622E47F0589
:106D730090121D129734C31209EC500C90121D127D
:106D830096E54004007F1A227FF87EFF7D037C0096
:106D930090121D1296ED400E9012227440F0901244
:106DA300217407F080447FFC7EFF7D017C009012FC
:106DB3001D1296ED400E9012227420F09012217451
:106DC30006F08026E47FFE7EFFFDFC90121D1296E6
:106DD300ED901222400B7410F09012217405F08094
:106DE300097408F09012217404F0E47F08FEFDFC9E
:106DF30090121D129740C007901222E0FBE4FAF9AB
:106E0300F8D00712093FE412032CE4FBFAF978BF28
:106E13001297069012231296F4A2AFE433FEC2AF88
:106E230053A90F90121AE06029901223E0F5AB8F5B
:106E3300AD90121BE024FF92FBA3E0600E901221A1
:106E4300E0C43354E0441042A9800353A9EFD2EBCA
:0B6E53008002C2EBAF06EE129729226E
:105E75000709433B0B0709433B0B0707433B0B074D
:105E8500078B3B0B07078B040B07078B04040707DE
:105E95008B0404040B048B061705078B0404040DFF
:105EA5008B0404040D000B0B040400008B0617057E
:105EB500000006170500000017050000000005009A
:105EC50000000000040700000000070000000000BB
:105ED5001D0B000001000B00000100000000010087
:105EE50000000001000000000100000000000000AB
:105EF500000000000000000000000000000000009D
:105F0500000000000000000000000000000000008C
:105F1500000000000000000000000000000000007C
:105F2500000000000000000000000000000000006C
:105F3500C393C7712FEE93C7712FEE77C7712FEEFD
:105F45007703712FEE7703342FEE7703341AEE774C
:105F550003341A0D658B021703077703341A0D02F4
:105F650003341A0D02001A0D120900000217030767
:105F750000001703070000000307000000000700EA
:105F85000000000007020000000002000000000001
:10186400420E1E0000420E140000420E22000042EE
:101874000E180000410E1C01420E200000420E16FC
:101884000000420E240000420E1A0000410E1D0109
:108ACB00E4FAF9F8901329120A4712B6CEEF2430C4
:108ADB00902510F0901329020A47E4FAF9F812B620
:108AEB00CEAC00AD01AE02AF03901329020A5FFFBB
:108AFB00C3E09FFF7E00EF543FFFAD01ED24FF224B
:108B0B00FF120ACCEF1206FB901370E0FF900D16CC
:108B1B00E075F006A422F583E5822FF582E4358318
:108B2B00F583E49322E433F0C2E8A2ACE43322E40D
:108B3B0033F0C2E8A2AEE43322A2AFE433FFC2AFFC
:108B4B0022C374409FFFE49EFED3EF9403EE940088
:108B5B0022E4F0A3E0543FF022E01206FBE4F5839D
:108B6B00EF24FF92AF7F0122120ACC8F8275830014
:038B7B000206AC43
:105AAC00900D0C120AECE4900D15F0120BD15B1E4C
:105ABC000000012C5B25000002585B2D000004B097
:105ACC005B35000009605B3D000012C05B450000C7
:105ADC0025805B4D000038405B5500004B005B5D42
:105AEC00000096005B650000DAC05B6D0000E10011
:105AFC005B750001C2005B7D000384005B850007C1
:105B0C0008005B8D0008CA005B9500119400000032
:105B1C005B9DE4900D16F0807E900D167401F08064
:105B2C0076900D167402F0806E900D167403F08052
:105B3C0066900D167404F0805E900D167405F0805E
:105B4C0056900D167406F0804E900D167407F0806A
:105B5C0046900D167408F0803E900D167409F08076
:105B6C0036900D16740AF0802E900D16740BF08082
:105B7C0026900D16740CF0801E900D16740DF0808E
:105B8C0016900D16740EF0800E900D16740FF0809A
:105B9C0006900D157412F0900D15E07049128B13D0
:105BAC002475F582E4345E128B21900D0C128B0B54
:105BBC0024D5F582E4345E128B21900D0F128B0BE1
:105BCC002435F582E4345F128B21FF900D12120AFA
:105BDC00CCEF1206FB900D12120ACC120693700633
:0C5BEC00900D157412F0900D15E0FF22D2
:0BCCCC00EF6004439820225398DF2201
:10834F00901224EFF0A3EDF0E59820E504007F10E4
:10835F0022E4FF901224E06023901226120A477B3A
:10836F00017A12792B900D0F120AEC7A1209900DE7
:10837F0012120AEC7A1209125AAC800BE490122DE9
:10838F00F090122BF0A3F0EF60020022128B4490BA
:10839F002505E4F09025037480F090122CE09025D1
:1083AF0000F090122BE0902501F090122DE0902517
:1083BF0007F0902503E4F0902507F0901224E06079
:1083CF00389025027481F090122AE0FE543F9025D8
:1083DF0003F0902501E4F0EE20E604E04401F09074
:1083EF00122AE020E707902501E04402F0D2AC907A
:1083FF001225E024FF92BC8009902501E4F0C2AC65
:0A840F00C2BCEF24FF92AF7F0022F1
:10C5ED00A2E8901375128B30F9C2AC900E14A3E033
:10C5FD00900E1F128AFA92AC901375E024FF92E808
:01C60D00220A
:10C60E00A2E8900DC8128B30F9C2AC900E18A3E0C0
:10C61E00900E23128AFA92AC900DC8E024FF92E895
:01C62E0022E9
:10AD5C00AC0712C60E128B4C40F8A2E8E433FF127B
:10AD6C008B33FEC2AC900E1CE06010E4F0C2AF90CE
:10AD7C002500ECF0E4F583D2AF8022900E22E0FAAD
:10AD8C00A3E024A6F582740E3AF583ECF0900E2223
:10AD9C00E475F0011207CC900E22128B5CEE24FFAE
:08ADAC0092ACEF24FF92E822B3
:10B01200901325120AEC12C5EDEF4E7002FF22A228
:10B02200E8E433901328128B32FFC2AC900E14E482
:10B0320075F0011207E2FC742625F0F582740E3CCD
:10B04200F583E0FE901325120ACCEE1206FB900E59
:10B0520014128B5CEF24FF92AC901328E024FF9231
:04B06200E87F012260
:10C9EB00E4FF900E1CE070010F902505E020E5029E
:03C9FB007F012297
:10B28800900DC8120AEC902501E030E1037F1322EB
:10B29800EDD3941040037F1422902505E030E5F9A2
:10B2A800E4FFEFC39D5022A2AFE433900DCBF0C270
:10B2B800AF900DC8128B73902500F0E4F583900DC4
:0CB2C800CBE024FF92AF0F80D97F002262
:10C99B00902505E030E00A128B44902500128B6441
:04C9AB00227F0022C5
:0BCCD700EF6004439840225398BF22F6
:10841900900CFEEFF0A3EDF0E59820E604007F1044
:1084290022E4FF900CFEE06023900D00120A477BC6
:10843900017A0D7905900D0F120AEC7A0D09900D4C
:1084490012120AEC7A0D09125AAC800BE4900D074E
:10845900F0900D05F0A3F0EF60020022128B44901A
:108469002515E4F09025137480F0900D06E0902511
:1084790010F0900D05E0902511F0900D07E0902582
:1084890017F0902513E4F0902517F0900CFEE060AA
:10849900389025127481F0900D04E0FE543F902528
:1084A90013F0902511E4F0EE20E604E04401F09089
:1084B9000D04E020E707902511E04402F0D2AE90C8
:1084C9000CFFE024FF92BE8009902511E4F0C2AEB2
:0A84D900C2BEEF24FF92AF7F002225
:10C49400A2E8900D45128B3AF9C2AE900E16A3E0B5
:10C4A400FFC3900E21128AFC92AE900D45E024FF4A
:03C4B40092E822E9
:10C4B700A2E8900DC8128B3AF9C2AE900E1AA3E00B
:10C4C700FFC3900E25128AFC92AE900DC8E024FFA0
:03C4D70092E822C6
:10AD0300AC0712C4B7128B4C40F8A2E8E433FF122D
:10AD13008B3DFEC2AE900E1DE06010E4F0C2AF901A
:10AD23002510ECF0E4F583D2AF8023900E24E0FAF3
:10AD3300A3E024E6F582740E3AF583ECF0900E243A
:10AD4300E475F0011207CCE4900E24128B5DEE241F
:09AD5300FF92AEEF24FF92E8220A
:10AF6800900D41120AEC12C494EF4E7002FF22A217
:10AF7800E8E433900D44128B3CFFC2AE900E16E409
:10AF880075F0011207E2FC746625F0F582740E3C38
:10AF9800F583E0FE900D41120ACCEE1206FBE49018
:10AFA8000E16128B5DEF24FF92AE900D44E024FF45
:05AFB80092E87F012278
:10C9FE00E4FF900E1DE070010F902515E020E5027A
:03CA0E007F012283
:10B2D400900DC8120AEC902511E030E1037F13228F
:10B2E400EDD3941040037F1422902515E030E5F946
:10B2F400E4FFEFC39D5022A2AFE433900DCBF0C224
:10B30400AF900DC8128B73902510F0E4F583900D67
:0CB31400CBE024FF92AF0F80D97F002215
:10C9AF00902515E030E00A128B44902510128B640D
:04C9BF00227F0022B1
:10922500128AF4128ADFEC335018128ADF1209DE33
:10923500128AF4902510742DF0902515E020E5088C
:1092450080F79025107420F0E47B107A27128ACDE0
:10925500E47B107A27128AE7902515E030E5F9E4DA
:109265007BE87A03128ACDE47BE87A03128AE790D9
:109275002515E030E5F97B64128ACB7B64128AE51B
:10928500902515E030E5F97B0A128ACB7B0A128A14
:10929500E5902515E030E5F9128ADFEF24309025B9
:1092A50010F0902515E030E5F99025107420F09028
:0D92B5002515E030E5F9E47F01FEFDFC2207
:09CD1500C2AF75D25575D2AA22F5
:0BCCE200EF6004439201225392FE22F7
:10BC3400E59220E004007F1022EDD3940F4004002D
:10BC44007F1122A2AFE433FEC2AFEF600C12CD1716
:10BC5400ED540F4440F5D2800612CD1775D280AF53
:09BC640006EE24FF92AF7F0022DE
:10C2C80090FFFF120C0BA2AFE433850D83850E821D
:10C2D800F012CD1543D240850D83850E82E024FFF0
:08C2E80092AF900001020C0B63
:10C14F00A2AFE433FCC2AFEF4E600E901362EEF07D
:10C15F00A3EFF07D0F7F018009E4901362F0A3F04D
:0DC16F00FDFF12BC34AF04EC24FF92AF22A0
:10C90200EFD3940F4004007F112212CD15EF540F84
:07C91200F5D243920180FE03
:10B7D800900D41120AEC7F007E10E4900D44F0FDBC
:10B7E800EF2DF582E43EF583E493FC900D44E02CC4
:10B7F800F0900D41120ACC8D82758300EC12070D72
:10B808000DEDB440DB900D44E070037F01227F0012
:01B81800220D
:041894004113760086
:10C9C300F0C2AF9027A6E04480F0E4F583D2AF90A5
:04C9D3001376F022C5
:0BCCED00EF6004439940225399BF22DE
:109BB600E59920E604007F1022E4901376F09027C2
:109BC600AA04F09027A974A5F0EB600D9027ACE4E9
:109BD600F09027AB748CF080109027AAE09027AC09
:109BE600F09027A9E09027ABF09027B2E4F09027F9
:109BF600B17464F09027AF745AF0A374B4F0902750
:109C0600ADF0A3745AF0901330E09027A2F090279D
:109C1600A6742FF0ED600543F901800353F9FEEFBA
:0D9C2600600543E901800353E9FE7F002241
:10BCDE00E59920E604007F10229027A4EFF090272C
:10BCEE00A77408F0A3742912C9C37F12FDFC901328
:10BCFE0076E06004E4FF800B0DBD00010CBC75EE18
:08BD0E00BD30EBEF60010022E3
:10BE8C00E59920E604007F10229027A77406F0A302
:10BE9C000412C9C37F11FDFC901376E06004E4FF2B
:10BEAC00800B0DBD00010CBC75EEBD30EBEF6001DD
:02BEBC00002262
:10BEEF000A0D2045564B203A204C49422056322EFF
:10BEFF0035000000000000000000000000000000FE
:10BF0F000000000000000000000000000000000022
:1092C200A37429F004F004F07429F004F004F0749B
:1092D20029F004F004F022900D1F7412F0A374031D
:1092E200F0A32274039022CFF09022CE22900D1F81
:1092F2007413F0E4A3F0A322F0A3F0A3F0A3F0A36D
:10930200F0A3F022900D1F7413F0A37401F0A322B6
:1093120074029022CFF09022CE22F0902249746300
:10932200F0A37455F0229022B0E04401F0E4FEFF75
:1093320022F07464A3F0A37404F02274C0F0A37446
:1093420070F090223C7490F02224A69022BFF090FC
:0D93520022BEE4F022A3F0A37450F0A32289
:109C3300EFD394054025902232743AF0A37434F0A4
:109C430090223812933D9022427411F09022457471
:109C53001E12931C90224D7426804C902232744A1B
:109C6300F0A37416F090224214F09022457423F06E
:109C7300EFC39405902238401A12933D9022497401
:109C830021F0A304F090224D04F0A37499F0A3747F
:109C930007F0227450F0A374B0F090223C74501279
:0B9CA300931C90224D74121293332288
:107FFE0090278074F6F0A37423F09022B07440F0B2
:10800E009022C67480F09022C274B0F09022117447
:10801E0002F090220C7405F09022207480F0A3E4FC
:10802E00F0A37485F09022B97402F0A37463F090FB
:10803E0022B774CFF0A3E4F09022C8745FF0A3745B
:10804E0009F0EF30E0047E0E80027EA29022CAEE8E
:10805E00F07408129336A3E4F0740B1292E7740FC7
:10806E00F0902230744AF0902232F0A37416F0EFA2
:10807E0030E0047E4B80027E4D902235EEF0EF30E4
:10808E00E0047FC680027FCD902236EFF0745C1242
:10809E00935774B0F090223B7450F0A3F0902240AE
:1080AE007420F0A3F0A37415F0A37410F0A3F0A342
:1080BE00742312931CA374E1F090224D7412129348
:0E80CE003390221D7485F09022E1746EF02232
:10ADB400AE07EE6003B4010790222174018010EE07
:10ADC400902221B40208E4F0A374E5F08006E4F0D4
:10ADD400A37485F0AF06129C33EED39405400D9016
:10ADE40022197410F09022CA74D5F022EEC394058F
:10ADF400902219400A7410F09022CA74AAF022E436
:08AE0400F09022CA74A2F022B2
:10595200E4900D1EF0EF8EF0120BA459A1096559C7
:10596200AA096A59B3096F59BC097459C509795909
:10597200CE097E59D7098359E0098859E9098D5919
:10598200F1099259F909975A01099C5A0909A15A30
:105992001109A65A1909AB5A2109B000005A291255
:1059A20092D97428F0025A2F1292D97450F0025AE6
:1059B2002F1292D97478F0025A2F1292D974A0F051
:1059C200025A2F1292D974C8F0025A2F1292D97425
:1059D200F0F0025A2F1292EF7418F0025A2F12921C
:1059E200EF7440F0025A2F1292EF7468F0803E1268
:1059F20092EF7490F080361292EF74B8F0802E120B
:105A020092EF74E0F080261293067408F0801E1262
:105A120093067430F080161293067458F0800E12BA
:105A220093067480F08006900D1E7417F0900D1E80
:105A3200E0FF6001229022BE74C0F09022B4740193
:105A4200F0900D1FE09022B1F0900D20E09022B274
:105A5200F0900D21E09022B3F09022B0E04401F0EA
:105A6200900D1E7414F0E4FFFE9022BDE030E007BA
:105A7200E4900D1EF0800B0FBF00010EBE27EABF9F
:105A820010E7900D1EE0601C1293289022BDE030BA
:105A9200E007E4900D1EF0800B0FBF00010EBE2741
:095AA200EABF10E7900D1EE0FFC1
:015AAB0022D8
:085D390090134DEEF0A3EFF012
:105D4100C3945AEE9409401090134DE0FCA3E0FD7A
:105D5100D394CBEC940940037F112290134F741715
:105D6100F0ED8CF0120BA45DAC09655DAE096A5DC6
:105D7100B5096F5DBC09745DC309795DCA097E5DB2
:105D8100D109835DD809885DDF098D5DE609925DE2
:105D9100ED09975DF4099C5DFB09A15E0209A65E10
:105DA1000909AB5E0909B000005E1480009022C2AF
:105DB10074D280599022C274D180529022C274D17F
:105DC100804B9022C274D180449022C274D0803D15
:105DD1009022C274D080369022C274D0802F90223B
:105DE100C274D080289022C274CF80219022C274C4
:105DF100CF801A9022C274CE80139022C274CE80BA
:105E01000C9022C274CE80059022C274CDF0E49031
:105E1100134FF090134FE0FF6001229022B0E04455
:105E210002F090134DA3E012934B90134F7414F0B2
:105E3100E4FFFE9022BDE030E007E490134FF080D4
:105E41000B0FBF00010EBE27EABF10E790134FE012
:105E5100601C1293289022BDE030E007E490134FBC
:105E6100F0800B0FBF00010EBE27EABF10E79013B1
:035E71004FE0FF00
:015E7400220B
:10895E00C3EF9465EE94094009D3EF94B0EE9409F9
:10896E0040037F1122C3EF94B0EE9409400590228C
:10897E00C28033C3EF949CEE940940089022C274D7
:10898E00B3F08025C3EF947EEE940940089022C286
:10899E0074B4F08014C3EF9465EE94099022C24033
:1089AE000574B5F0800374B2F0D3EF947EEE9409A3
:1089BE009022B950057422F080037402F09022B018
:1089CE00E04402F0EF12934B7D14FFFE9022BDE0C7
:1089DE0030E004E4FD800B0FBF00010EBE27EDBF9B
:1089EE0010EAED60191293289022BDE030E004E405
:1089FE00FD800B0FBF00010EBE27EDBF10EAE4FE97
:088A0E00FF6003125952AF058D
:018A1600223D
:0CCBEC009022BFE0245AFFE43409FE222E
:1061CC00EF120B7E621900622001622D026236030F
:1061DC00623D04624405624B0662520762590862D2
:1061EC006609626D0A627A0B62810C62880D629597
:1061FC000E62A10F62A81062B51162BB1262C213CB
:10620C0062C91462D01562DC16000062E59022CFE0
:10621C00740B80059022CF7404F09022CE740FF092
:10622C00227405129314740BF0221292E5740AF086
:10623C00221293127409F0221292E57407F02212C2
:10624C0092E57406F0229022CF740380059022CF41
:10625C007401F09022CE7405F0221293127404F0A3
:10626C00229022CF7407F09022CE7403F022902259
:10627C00CF740280199022CF740C80059022CF74B9
:10628C0004F09022CE7402F0229022CF7401F09090
:10629C0022CE04F0229022CF741F80059022CF745E
:1062AC000FF09022CE7401F02212931214F022906F
:1062BC0022CF7401801E9022CF741F800C9022CFAD
:1062CC00740880059022CF7401F09022CEE4F02265
:0A62DC009022CFE4F09022CEF022D1
:10A59300EFB401079022707424F022EF6402600587
:10A5A300EF6403703990278074FEF09022197401D0
:10A5B300F09022707427F0902280E030E0F990222E
:10A5C300807423F0A37407F0EF902270B403057432
:10A5D30077F080037422F09022817460F022902738
:10A5E3008074F6F0902219E4F09022807480F0A336
:0AA5F300746CF09022707480F02266
:10C9D700EF9022926008740EF0A37402F0227401A3
:04C9E700F0A3F022A7
:08CD4E00902290E054C0F02295
:10A5FD00EF30E00C902720E41292FAA31292FA2287
:10A60D00EF90272030E7297404F0A374E2F0A374CF
:10A61D0004F0A374E2F0A37414F0A37410F0A3E497
:10A62D00F074FA129357F0A374A0F0A37464F0229F
:10A63D007402F0A37471F0A37402F0A37471F0A30B
:10A64D00740AF0A37408F0A3E4F0A3747CF0A3746F
:09A65D0028F01293577432F02228
:1077DC00902785E090228230E272E4F000000000F5
:1077EC00000000001292C2000000000000000074B3
:1077FC0029F0000000000000000000000000000064
:10780C00000000000000000000000000000000006C
:10781C00000000000000000000000000000000005C
:10782C00000000000000000000000000000000004C
:10783C00000000000000000000000000000000003C
:10784C00000000000000000000008010E4F00000C8
:10785C0000001292C2000000007429F00000000029
:10786C00000000000000000000000000000000000C
:10787C0000000000000000000000000000000000FC
:10788C0000000000000000000000000000000000EC
:10789C0000000000000000000000000000000000DC
:1078AC0000000000000000000000000000000000CC
:0D78BC00000000007440F090228214F022C1
:050006007EBE7FEF2229
:1035AD002023232045413D302C20496E74657272D5
:1035BD007570742044697361626C65642023230007
:1035CD002023232055415254303A496E746572724E
:1035DD007570742044697361626C656420232300E7
:1035ED002023232055415254313A496E746572722D
:1035FD007570742044697361626C656420232300C7
:10360D00202323205541525430203A20496E7465B1
:10361D0072727570742044697361626C65642023E5
:10362D002300202323205541525431203A20496E46
:10363D00746572727570742044697361626C65642F
:10364D00202323000A002025303278000A205B4D0C
:10365D0049425D000A204368616E3D25752028258D
:10366D0075204D487A292C2000202050616E494448
:10367D003D307825303478000A2053686F727441DC
:10368D006464723D30782530347800203A494545E0
:10369D00454164647228307E37293D3078000A2018
:1036AD0044737453686F7274416464723D3078254D
:1036BD0030347800203A447374494545454164647B
:1036CD007228307E37293D3078000A2044617461BC
:1036DD00526174653D3078253032782C2000203AC7
:1036ED0054785077724C6576656C3D307825303264
:1036FD00782C200020204E6F41636B5265747279D7
:10370D003D257500203A4261636B6F6666526574A4
:10371D0072793D2575000A205B52582D4D41432D80
:10372D00504B545D000A2044534E3D3078253032C5
:10373D00782C204F4F423D30782530327800203A9A
:10374D0064426D3D256400203A436F72723D2564DD
:10375D00000A204473742E204D6F64653D25303270
:10376D007800203A50616E49443D307825303478E8
:10377D0000203A53686F7274416464723D3078254D
:10378D0030347800203A4945454528307E37293D6B
:10379D003078000A205372632E204D6F64653D25ED
:1037AD00303278000A204D534455204C656E3D252E
:1037BD00303275203A2000203A4D534455203D00BB
:1037CD000A203D3D3D2048494220446973706C619B
:1037DD0079203D3D3D000A20494545452041444461
:1037ED0052284C53427E4D534229203A000A204321
:1037FD00686970496E646578203D203078253032D7
:10380D00780020284D4732343030290020284D478C
:10381D0032343558290020284D47323437302900AD
:10382D0020284D4732343630290020284D47323478
:10383D00313029002028556E636C61737369666998
:10384D00656429000A204368616E6E656C20202036
:10385D003D20257520282575204D487A29000A2000
:10386D00537461636B49442020203D20307825300E
:10387D003278000A205478506F7765722020203DF1
:10388D00203078253032780020202020446174616A
:10389D005261746520203D20307825303278000A41
:1038AD002050616E494420202020203D2030782575
:1038BD00303278253032780020204E776B416464A9
:1038CD007220203D20307825303278253032780036
:1038DD000A205365634C6576656C20203D20307859
:1038ED00253032780020202020507265436F6E669F
:1038FD006967203D20307825303278000A204E57F8
:10390D004B204B657920284C53427E4D5342292044
:10391D003A000A205265736572765F30284C534227
:10392D007E4D534229203A000A204550494420201B
:10393D002020284C53427E4D534229203A000A2024
:10394D005265736572765F31284C53427E4D5342FA
:10395D0029203A000A2047656E6572616C576F72B7
:10396D006430203D20307825303278253032780093
:10397D000A2047656E6572616C576F726431203D28
:0C398D0020307825303278253032780068
:101898004211340000421136000042113800004263
:0918A800113A000042113C00005D
:104624001208A79011C2120A5F9011C2120A539085
:1046340011BFE075F064A4FFAEF0E4FCFD1208A71E
:104644009011C2120A5F9011C2120A5375F00A90B7
:1046540011BEE0A4FFAEF0E4FCFD1208A79011C265
:10466400120A5F9011C222120ACC9000191206ACF1
:10467400FFE4900D5AF0A3EFF07BFF2290000112AB
:104684000823FF900DD3120ACC900DD9E0FDF582DA
:10469400758300EF12070D900DD0120ACC90000123
:1046A400120823E5F0FFED2401FDE433FC900DD363
:1046B400020ACC8D828C83EF12070D900DD0020A72
:1046C400CCF9E43AFAE4900D53F07D08FC22900D05
:1046D400D9E0F582758300ED12070DEEFF900DD938
:1046E400E0F58275830022901350120ACC900004E6
:1046F400120823FF900D5AE5F022901297120ACC6B
:104704001207F8FFE5F0C4F854F0C868FEEFC4548B
:104714000F48FFEE8FF012085B90129CE02290117C
:10472400BEE09011BDF09011BFE09011BEF0901169
:10473400C0E09011BFF09011C1E09011C0F0E4A36B
:10474400F09011BCE014F0229011BFE0FF7E007CD9
:10475400037DE812072FE4FCFD221206ACFF900D46
:104764005AE4F0A3EFF022120A47E47B107A27F907
:10477400F80208B4901353120ACC9000080206AC55
:10478400FFFD900D5AE4F0A3EDF07E007C007D0562
:1047940012072FEF242EFFEE3409A32274852FF580
:1047A40082E4340DF5832290129E120ACC02069301
:1047B400120A539011BDE0FFE4FCFDFE22E924013E
:1047C400F9E43AFA020693120AEC7BFF7A3679513D
:1047D4007F0122901350120ACC9000020206AC8D85
:1047E400828C83EF12070D900DD9221206ACFF9034
:1047F4000D5CE422E475F0010207CCC4540F1206E8
:10480400FB9012A3E022EF24D09011BAF09011BCD7
:10481400E0C3940422120A539011BAE0FF3395E0E6
:10482400FEFDFC22900DC5E0FFC3944022F0E4F5A8
:1048340083900DCEE024FF92AF2290000C0206ACD0
:1048440090000B0206AC901350020ACCEFF0A312B6
:104854000AECE4222402FFE433FEE92FF9EA3E22C3
:10486400120A539011BDE075F00A22900DD9E07E32
:104874000029F9EE3A22FF900DD6020ACC900DC51C
:0D488400E004F022901297120ACC0207F80F
:10C4DA00900DC6EFF0902501E0900DC630E105E021
:10C4EA00FF02AD5CE0A3F07B017A0D79C77D0112F2
:03C4FA00B28822E3
:10C1FD00901331120AEC902501E090133130E008D4
:10C20D00120ACC12B0128006120ACC12C99B9013DE
:09C21D0034EFF0901334E0FF222D
:10C4FD00900DC6EFF0902511E0900DC630E105E0EE
:10C50D00FF02AD03E0A3F07B017A0D79C77D011227
:03C51D00B2D42273
:10C22600901335120AEC902511E090133530E00892
:10C23600120ACC12AF688006120ACC12C9AF90134C
:09C2460038EFF0901338E0FF22FC
:10A06400900DCA120AECA2AFE433900DCEF0C2AF49
:10A07400902500740AF0740DF0902510740AF074A1
:10A084000D124831902505E030E5F9902515E030B2
:10A09400E5F9E4900DCDF0900DCA120ACC12C986F0
:10A0A400900DCDE0C39FE49E5029A2AFE433A3F00A
:10A0B400C2AF900DCA120ACC900DCD1246E412061E
:10A0C400AC902500F0902510124831900DCDE0049D
:04A0D400F080C42232
:109F0400900DC6EFF020AF3D7BFF7A3579AD129FFF
:109F140072900DC6E0700B20AC087BFF7A3579CDCA
:109F24008010900DC6E0B4010C20AE097BFF7A3599
:109F340079ED129F72C2AF75D25575D2AA75D20A45
:109F440043920180FE900DC6E0700B20AC087BFFAD
:109F54007A36790D8010900DC6E0B4011020AE0D54
:109F64007BFF7A36792FA3120AEC12A06422A31283
:069F74000AEC12A06422B9
:108E4200900D57120AEC900D56EFF0129F04E49029
:108E52000DC5F0124828500A1247A0E4F0124881CA
:108E620080F17B017A0D795A900D82120AEC900DF5
:108E720057120ACC900DC6120AEC900D82120ACC3F
:108E8200900DC9120AEC7B017A0D798512B44A90D1
:108E92000D56E030E02BE4900DC5F0124828504CFE
:108EA2001247A0E0FF604512C4FD900DC5E0248585
:108EB2001247A3E0B40A057F0D12C4FD1248818057
:108EC200DAE4900DC5F012482850211247A0E0FFC5
:108ED200601A12C4DA900DC5E024851247A3E0B4EB
:0D8EE2000A057F0D12C4DA12488180DA22E1
:10723E0090129612485090129CF0F5F012085B7F57
:10724E00107E2712C14F901296E030E04C7B017AEF
:10725E0012799B12C226EF60E61273226012901210
:10726E009CE0640460D990129BE0FF12C4FD804A3A
:10727E0090129BE064087018A3E060147F0812C49B
:10728E00FD7F2012C4FD7F0812C4FD1246FE14F0CD
:10729E0090129BE0640D70A7227B017A12799B12EB
:1072AE00C1FDEF609A127322603E90129CE064045E
:1072BE00608D90129BE0FF12C4DA124888C4F85415
:1072CE000FC868FFE5F0C454F0488FF012085B1247
:1072DE004888FF90129AE0FD3395E045F0FEEF4DA1
:1072EE0012471604F002724D90129BE0640870185B
:1072FE00A3E060147F0812C4DA7F2012C4DA7F087C
:10730E0012C4DA1246FE14F090129BE0640D600374
:10731E0002724D2290129BE0FF12C36690129AEFFA
:03732E00F0F42256
:107D5C0090129D1248509012A3F01206FB7F107ED9
:107D6C002712C14F90129DE030E04F7B017A1279BF
:107D7C00A212C226EF60E6127E3060129012A3E0CF
:107D8C00640260D99012A2E0FF12C4FD804D9012E3
:107D9C00A2E06408701BA3E060177F0812C4FD7F8B
:107DAC002012C4FD7F0812C4FD1247AB1247FF140A
:107DBC00F09012A2E0640D70A4227B017A1279A2D9
:107DCC0012C1FDEF6097127E30602A9012A3E0641E
:107DDC0002608A9012A2E0FF12C4DA1247ABC454BC
:107DEC00F01206FB1247ABFF9012A1E04F124802B3
:107DFC0004F0027D699012A2E06408701BA3E0609D
:107E0C00177F0812C4DA7F2012C4DA7F0812C4DA92
:107E1C001247AB1247FF14F09012A2E0640D6003FE
:107E2C00027D69229012A2E0FF12C3669012A1EFAC
:037E3C00F0F4223D
:104D54009011B61248509011BCF0F5F012085BE4C3
:104D64009011BDF0A3F0A3F0A3F0A3F07F107E2771
:104D740012C14F9011B6E020E003024E4F7B017A3E
:104D84001179BB12C226EF60E39011BBE0FFC3941C
:104D940030405BEFD39439505512480A5003024D0A
:104DA400EC9011BCE0640470C39011C01247BA12B5
:104DB400466112476B124661120A53C00012474CF7
:104DC400D00012465E120A5375F06412465312481C
:104DD4006412465712481912465E120A47E4FEED61
:104DE4004C70899011BBE0FF12C4FD024ED39011A8
:104DF400BBE064087016A3E060127F0812C4FD7F54
:104E04002012C4FD7F0812C4FD1247229011BBE09A
:104E1400640D6003024D709011C11247BAA312468B
:104E24006412476B124661120A53C0009011C012FB
:104E3400474FD0001246241247B412465E120A4766
:104E4400E4FFFEED4C600122024F567B017A11799A
:104E5400BB12C1FDEF7003024D709011BBE0FFC3A4
:104E640094305003024EFCEFD394394003024EFCBD
:104E740012480A500612C4DA024ED39011BCE06400
:104E8400046003024D709011C01247BA12466112B9
:104E9400476B124661120A53C00012474CD00012ED
:104EA400465E120A539011BEE075F0641246571222
:104EB400486412465712481912465E120A47E4FE25
:104EC400ED4C6003024D709011BBE0FF12C4DA9008
:104ED40011C0E0A3F09011BFE0A3F09011BEE0A3D5
:104EE400F09011BDE0A3F09011BAE09011BDF090E4
:104EF40011BCE004F0024D709011BBE06408701620
:104F0400A3E060127F0812C4DA7F2012C4DA7F089B
:104F140012C4DA1247229011BBE0640D6003024D03
:104F2400709011C11247BAA312466412476B12461D
:104F340061120A53C0009011C012474FD0001246AC
:104F4400241247B412465E120A47E4FFFEED4C6099
:104F540001229011C2120A479011B7120ACCEE8FA7
:074F6400F012085B7F01223F
:10BA5A00A2A9E433FEC2A9EF70059011348022EF47
:10BA6A00B401059011368019EFB40205901138809F
:10BA7A0010EFB4030590113A8007EFB4040890114F
:0EBA8A003CECF0A3EDF0AF06EE24FF92A922F3
:10BF1F00EF70059011348019EFB401059011368040
:10BF2F0010EFB402059011388007EFB4030A901197
:10BF3F003AE0FCA3E0FD8003E4FCFDAF05AE042274
:10438800900DD0120AEC120693FF64026004EFB499
:1043980003201246BF900001120823FF901117E076
:1043A800B5F00DA3E0B50708900DDA7401F08007A9
:1043B8008000E4900DDAF01246B174011206FB1287
:1043C80046BF12483E30E00B1246B1120693442015
:1043D8001206FB900DDAE0600B1246B11206934408
:1043E800401206FB1246BF12483E5430C4540FFF19
:1043F8001246B1900001EF12070DE92401F9E43AE1
:10440800FAC003C002C001120693FF1246BF124849
:104418003E54C01313543F4FD001D002D0031206AC
:10442800FB1246BF120693FF6027EFB4020A12463A
:10443800B11247C1440880111246BF120693B40353
:104448000D1246B11247C1440C1206FB80037FE8E7
:10445800221246BF124844FF6027EFB4020A1246F0
:10446800B11247C1448080111246BF124844B403B8
:104478000D1246B11247C144C01206FB80037FE803
:1044880022901131E004FFF01246B1900002124769
:10449800E77403F01246BF120693640270351246A1
:1044A800801246B7900003120823FF900DD9E0242C
:1044B800021246AD1246B7900003120823E5F0FF3A
:1044C800900DD9E024031246AD1247E3E02404F02E
:1044D80002450F1246BF1206936403702A1246BFA4
:1044E8001246801247E3E0124858FEAF011246BF59
:1044F800E92403F9E43AFCAD017B087A0012A376BB
:10450800900DD9E0240AF01246BF124844640270A4
:1045180054900DDAE06019901119E0FEA3E0FD1245
:1045280046B11246D2A31247E7E02402F00245B88A
:10453800901117E0FEA3E0FD1246B11246D2A3EF98
:1045480012070D901119A3E01246E0A3A3EF12077A
:104558000D901119E01246E0A3A3A31247E7E02447
:1045680004F00245B81246BF1248446403704190F3
:104578000DDAE0600E1246B112486F124611240897
:10458800F0802D901117E0FEA3E0FD1246B112460F
:10459800E1ED12070DEEFF900DD9E0FEF58275836F
:1045A80000A3EF12070DEE124858124611240AF024
:1045B800900DD9E012487AEF1206FB1246BF900020
:1045C8000D1206AC12487AEF1206D912487B740213
:1045D8001206D9900DD61247AED3947F40037FE5DB
:1045E800221246B112486FFEAF011246BF90000E6C
:1045F800120AF5AC02AD011246BF90000D1206ACCE
:10460800FB7A0012A3767F0022FEAF017C117D1B8E
:0C4618007B087A0012A376900DD9E022F6
:10A9A100E49010CAF0EF04900DD3F0ED04A3F0E4AD
:10A9B100900DD1F0900DD3E0FF900DD1E0C39F50E9
:10A9C1003EE4A3F0900DD4E0FF900DD2E0C39F5080
:10A9D1001812827F900DD0EFF064156004E0B4E1AD
:10A9E10008900DD2E004F080DB900DD0E07008A358
:10A9F100E09010CAF08008900DD1E004F080B5908D
:05AA01000DD0E0FF2272
:10BAD500C003C002C0017B017A237901900DD31206
:10BAE5000AEC7A0D79CF900DD6120AECD001D0026E
:10BAF500D003124388EF7013900DCFE0902300F030
:0CBB0500901132E0FFA3E0FD12A9A12284
:020029000022B3
:10BF4F00901364EEF0A3EFF0E490110AF0A3F090D9
:10BF5F001364E0FEA3E0FFC390110BE09F90110A62
:10BF6F00E09E500B12CB0B90110A1247F880E02283
:10CB0B00E490110CF090110CE004F0E0B401F6226B
:10CB1B00E490110DF090110DE004F0E0B409F62251
:10CB2B00E490110EF090110EE004F0E0B430F62218
:10CB3B00E490110FF090110FE004F0E0B460F622D6
:10C82000E4901110F0A3F09011101247F89011103D
:0AC83000E07004A3E0646970EE22DA
:10C83A00E4901112F0A3F09011121247F89011121D
:0AC84A00E07004A3E064D270EE2257
:10C62F00E4901114F0A3F0C3901115E09F90111432
:10C63F00E09E500B12C83A9011141247F880E8226E
:10A8D300900D4E120AEC900D51ECF0A3EDF0E490C4
:10A8E3000D54F0A3F0900D51E0FCA3E0FD900D5446
:10A8F300E0FEA3E0FFC39DEE9C503B900D53E0FDB3
:10A90300600F7C00120741ED4C70061247CE128E89
:10A9130042900D4E120ACC900D54E0FEA3E0F58256
:10A923008E831246717A3679537F01128E42900DCF
:07A93300541247F880AF2227
:107C7500900D4B1247CB128E427A367959127D2AD6
:107C85001206931247841246797A367961127D3845
:107C9500900001120823FFE5F01246767A367976D0
:107CA500127D389000031246F41246797A367985AA
:107CB5007F01128E427A367998127D2AE9240512BF
:107CC50046C512A8D3900D4B120ACC90000F124650
:107CD500F41246797A3679AB7F01128E427BFF7AB0
:107CE5003679C1127D44E924111246C512A8D390F4
