:10B00000C00F74B0C0E0C082C083750F0A75A10084
:10B010000000000022C00F74B0C0E0C082C0837581
:10B020000F1F75A1010000000022C00F74B0C0E026
:10B03000C082C083750F3475A1020000000022C0D9
:10B040000F74B0C0E0C082C083750F4975A10300C2
:04B0500000000022DA
:0DCAE500EF90CAEE9390B000730A1F344921
:10A34200EB60010A4A601D8C838D8263A2018E83B9
:10A352008F8263A20100E0A363A201F0A363A201C2
:10A36200DBF4DAF222C0A275A2010000C082C0832F
:10A3720063A2010000C082C083EB60010A4A601D33
:10A382008C838D8263A2018E838F8263A20100E09F
:10A39200A363A201F0A363A201DBF4DAF2D083D0BB
:0DA3A2008263A2010000D083D082D0A222ED
:030000000259E2C0
:1059E2007598007599209022E074D9F090270E7472
:1059F20000F09027027470F09027037400F0E49096
:105A02000000F0900000E004F0E0B4C8F690270037
:105A12007480F09027087400F0902709F0902720F6
:105A2200F0902721F0902722F0902723F09027244E
:105A3200F0902725F0902726F0902727F09027282E
:105A4200F0902729F090272AF090272BF0759900E3
:105A52009022E17400F09022E27490F09022E774B8
:105A6200FFF09022E8F09022E9F09022EAF09022F2
:105A7200EBF09022ECF09022ED7400F09022EEF028
:105A82009022EFF09022F0F09022F1F09022F2F0CA
:105A9200750D18750E00758121C2C112B00A025A25
:015AA200DE25
:0CCB2400016800AA005A002D0015000B4B
:0A18000042117A0000421178000046
:10C10A00900D246480F8E064809822900D24E0FE6B
:10C11A00A3E0FFC322900D30120A5F900D30020A8D
:0AC12A0047120ACC900D29020AEC1E
:0ECAAD00902784E054BFF00000E04440F022E7
:10ABFA00EBD394084004007F1222EDD3940350044F
:10AC0A00EDB40104007F1122EF9022E66026E044B1
:10AC1A0004F0902781E0440CF09022D4E04480F0C4
:10AC2A00E054F04BF0AF05EFC43354E0FFE0549F1B
:10AC3A004FF08012E054FBF09022D4E0547FF09061
:09AC4A002781E054F3F07F0022A1
:10C0E000EFD394035005ED94034004007F11229098
:10C0F0002786E054FC4FF0AF05EF25E025E0FF90E8
:0AC1000022D5E054F34FF07F002237
:10BFD700ED6005D3940E4004007F1122ED04C45494
:10BFE700F0FE9022D5E0540F4EF0EF6006E04402D9
:0DBFF700F080079022D5E054FDF07F00227D
:10C4E600A2AFE433FFC2AF9022D7E0FDE0FEEF2417
:10C4F600FF92AFAF06EFFEEDFF7C007D10120796B0
:01C506002212
:10C9AF009022D6E05478131313541FFF60011F22F7
:10B6160074FFF5F012085B7F13E4901172F0A3F04B
:10B626009022D6E05470600D12C4E6EE8FF0120838
:10B636005BE4FF8019901172E475F0011207CCC328
:10B64600901173E094D0901172E0940740D2EF60AD
:03B65600010022CE
:109C0800AA05EBD394084004007F1222EAD39403F8
:109C18004004007F1122EF60557D02E4FF12BFD798
:109C2800AF02AD077F0112ABFAAC07EC704912CA5C
:109C3800AD9012B2E025E02424F582E434CBF5831C
:109C4800E493FF740193901174CFF0A3EFF0E4A3B1
:109C5800F0A3F090117412C118901177E09F901141
:109C680076E09E5012E475F0011207CC80E5E4FB23
:0A9C7800FDFF12ABFAAC07AF0422A7
:10BD6A00900D00120AECEFD394084004007F1222CF
:10BD7A00AB07E4FD7F01129C08EF600122900D00E1
:10BD8A00120ACC12B616EF600122E4FBFDFF129CE8
:04BD9A00087F0022FC
:10710B00900D22EEF0A3EFF0A3ECF0A3EDF0900DB9
:10711B0028E0FFC3940A4006EFD3940F4004007F8E
:10712B001122900D2212C118900D25E09FEE12C175
:10713B000A4004007F142212C115900D23E09FFF1B
:10714B00900D22E09E900D2CF0A3EFF0D3900D2527
:10715B00E09BEA12C10A4009E4900D2EF0A3F080E7
:10716B0029C3900D23E09BEA900D2212C10D500B09
:10717B00900D2CE0FFA3E0A3CF800B12C115EB9F6A
:10718B00FFEA9E900D2EF0A3EFF0900D28E0FF7418
:10719B00017E00A807088005C333CE33CED8F9246F
:1071AB00FFFFEE34FFFEE4FCFD900D30120A5F9002
:1071BB000D2EE0FEA3E0FFE4FCFDA3120A53120820
:1071CB00B412C11FC006C007900D2CE0FEA3E0FB5C
:1071DB00AA06E4F9F8D007D00612093F12C11FEE38
:1071EB00547FFE900D29120ACCEE8FF012085B7FB4
:0271FB00002270
:0CCB0C007B017A11797A7F0712BD6A2242
:0CCB18007B017A1179787F0812BD6A2237
:10ADB400900D1D120AEC900D1CEFF0C3940A40068E
:10ADC400E0D3940F4004007F11227B017A0D792097
:10ADD40012B616EF60012290117AE0FEA3E0FF9014
:10ADE4001178E0FCA3E0FD900D1CE0900D28F0909C
:10ADF4000D1D12C12B900D20E0FAA3E0FB12710B84
:07AE0400EF6001227F002234
:1097E40090115DEDF0A3120AEC90115CEFF0D394AC
:1097F400084004007F122290115DE0FFC3940A40E8
:1098040006EFD3940F4004007F11227B017A117973
:10981400637F0712BD6AEF6001227B017A117961CF
:109824007F0812BD6AEF60012290115CE0FF7B01AA
:109834007A11796512BD6AEF600122901163E0FE2E
:10984400A3E0FF901161E0FCA3E0FD90115DE090C6
:109854000D28F090115E12C12B901165E0FAA3E07F
:0B986400FB12710BEF6001227F00225D
:04180A004112B200D5
:10AE6200E4FDEF14601414601514601614601714D6
:10AE72006018240570187E088016E4FE80127E2079
:10AE8200800E7E40800A7E6080067E0C80027D12EB
:10AE9200ED600300FF229012B2EFF0538E10EE42EB
:10AEA2008EE58E90278530E306E04404F08004E0CE
:06AEB20054FBF07F0022BA
:030026008F98228E
:03002E008F992285
:030036008F9A227C
:08180E004112A2004112A300E7
:10C85F00A2AFE433FEC2AFEB9022EF22AF06EE247D
:06C86F00FF92AF7F0022E2
:10B7A100E5B420E204007F102212C85F30E106E018
:10B7B1004404F08004E054FBF0EB30E003D380015B
:10B7C100C39288ED24FF92B8EF24FF92A89022F251
:10B7D100E030A8054404F0800354FBF012C86B224A
:10B7E100E5B420E304007F112212C85F30E106E0D6
:10B7F1004408F08004E054F7F0EB30E003D380011B
:10B80100C3928AED24FF92BAEF24FF92AA9022F20A
:10B81100E030AA054408F0800354F7F012C86B2207
:041816004112B38048
:1074CE00E0FEA3E0FFF5828E83A3A31206AC902705
:1074DE0005F08F828E83A3A3A31206AC902704F02F
:1074EE009012B3E04401902700F022F0901274E065
:1074FE00F58A901272E0F58C22E0FEA3E0FFF58291
:10750E008E831206AC902707F08F828E83A312060D
:10751E00AC902706F022FFE0FAA3E02DF582EA3CBC
:10752E00F583E4936F22900D07E475F0010207CC0A
:10753E00900D05E0FEA3E0A3FFE0FCA3E0FDC39FDA
:10754E00EC9E229027007480F09027027470F0A3B6
:10755E00E4F0902708F0A3F07F0122E0FEA3E09074
:10756E002703F0EE902702F022FFEEF0A3EFF04398
:10757E00992090270EE4F09012B2E0229027097421
:10758E0001F0902708E4F022120ACC8D828C83023F
:10759E0006ACEEF0A3EFF0EE54014F22CFF0A3EFC6
:0D75AE00F0E422900D0B120A5F900D0B22ED
:06CC9C00E49012B3F02247
:07CC8E009012B37480F02244
:10BBB50090270EE4F090270DE020E0F9000000004A
:10BBC500EF12756D902708E4F0A304F09012B3E02E
:10BBD5004402902700F00000000090270DE020E0CF
:08BBE500F99027007480F022A2
:100E7F00900D4C120AEC900D4A1275A06004007F81
:100E8F001422900D4AE0FEA3E07802CEC313CE13D6
:100E9F00D8F9900D5612757770047F808002E4FFA9
:100EAF0012A4EF9012B3E0701D902700E0648070E1
:100EBF0015902708E0700FA3E0700B902702E0B4A5
:100ECF007004A3E06009900D587413F0020FE4E46E
:100EDF00FF12B398E4900D5DF012C1FF900D56E034
:100EEF00FEA3E0FF12BBB5900D4FE030E00AE49097
:100EFF000D581274F9020FE490270DE020E0F9125B
:100F0F00758A900D50F0A3F0900D56E0FFA3E0907E
:100F1F000D54CFF0A3EFF0900D52E4F0A37480F0D6
:100F2F0012C1FF900D54127569900D4C120ACC909E
:100F3F000D50127507900D501274CE0000000090E6
:100F4F000D50E475F0041207CC900D5412753790C4
:100F5F000D5274FFF5F01207CC900D52E07002A302
:100F6F00E070BD90270DE020E0F91274FA900D4A61
:100F7F00E0FFA3E0900D591275AA900D58F0900D57
:100F8F005BF0A3F0900D5BE0FEA3E0FFC3EE9402D5
:100F9F00502E900D4C120ACC8F828E831206ACFF0E
:100FAF00900D5BE0FCA3E0FD900D591275256008D4
:100FBF00900D587415F08008900D5B12753780C432
:100FCF00900D58E0600F900D5DE004F0E0C39404C5
:100FDF005003020EE812755112A4EF5399DF7F01EF
:0C0FEF0012B398900D58E0FF6001002242
:10513B0090110F120AEC90110D1275A06004007FF4
:10514B00142290110DE0FEA3E07802CEC313CE1310
:10515B00D8F990111A12757770047F808002E4FFE2
:10516B0012A4EF9012B3E0701D902700E0648070E2
:10517B0015902708E0700FA3E0700B902702E0B4A6
:10518B007004A3E0600990111C7413F00252B8E490
:10519B00FF12B398E4901121F012C1FF90111AE0A5
:1051AB00FEA3E0FF12BBB5901112E07002A3E070FA
:1051BB000990111C1274F90252B890270DE020E0EF
:1051CB00F912758A901114F0A3F090111AE0FFA355
:1051DB00E0901118CFF0A3EFF0901112E0FCA3E0D8
:1051EB00FDAE047802CEC313CE13D8F9FF9011167F
:1051FB00EEF0A3EFF0ED5403600A901116E475F096
:10520B000102524F901116E07002A3E0603C12C1F4
:10521B00FF90111812756990110F120ACC9011148E
:10522B001275079011141274CE0000000090111427
:10523B00E475F0041207CC90111812753790111603
:10524B0074FFF5F01207CC02520F90270DE020E00F
:10525B00F91274FA90110DE0FFA3E090111D127575
:10526B00AA90111CF090111FF0A3F0901112E0FE08
:10527B00A3E090111F127546501E90110F127596D8
:10528B0090111D127524600890111C7415F0800884
:10529B0090111F12753780D390111CE0600F901185
:1052AB0021E004F0E0C3940450030251A4127551A1
:1052BB0012A4EF5399DF7F0112B39890111CE0FFFA
:0452CB00600100225C
:10839400900D00EEF0A3EFF0A3120AEC900D00E0B4
:1083A400FEA3E0FFE4FCFD1275B1120A53900D0622
:1083B400E024FFFF900D05E034FFFEE4FCFD12080D
:1083C400A71275B1120A47ED4C6004007F1222E433
:1083D400900D0AF0900D00E0FFA3E0900D0F1275D0
:1083E400AA900D09F0E4900D07F0A3F012753E5029
:1083F40029900D0FE0FEA3E02DF582EE3CF583E419
:1084040093FF900D02120ACC900D07A3E0F5828C25
:1084140083EF12070D12753480D2E4900D07F0A398
:10842400F012753E501B900D02127596900D0F12AE
:1084340075246008900D0A7416F080051275348056
:10844400E0900D0AE0600B900D09E004F0E0640494
:088454007093900D0AE0FF2275
:10C87500AF04E0FDA3E0FB12C2C4EF22EDF0A3EB91
:06C88500F0AC07E598226B
:0BCB5400EF6004439810225398EF227A
:10C2C400EFD394074008EF640A60037F1222ED6005
:10C2D40009EBD39401400C7F1122EBD39402400369
:06C2E4007F11227F002201
:10851B00900D4812C88120E404007F1022900D4872
:10852B0012C87560020022EC120B7E855500855B2C
:10853B0001856102856703856D0485730585790661
:10854B00857F0785850A000085897E0179FE802E4F
:10855B007E0279FD80287E0479FB80227E0879F7E4
:10856B00801C7E1079EF80167E2079DF80107E4094
:10857B0079BF800A7E80797F80047EFFE4F9900DBD
:10858B0048E06019E952B19022EAE059F0900D49A8
:10859B00E06005EE42C18032E952C1802D900D4959
:1085AB00E0FF700E9022EAE04EF09022E7E04EF0F2
:1085BB008012EF9022EAB40108E04EF09022E7809F
:0D85CB0000E059F0EE42B1EE42B97F00220F
:1085D800900CFE12C88120E404007F1022900CFE4B
:1085E80012C87560020022EC120B7E8612008618F3
:1085F80001861E02862403862A04863005863606EE
:10860800863C0786420A000086467E0179FE802E57
:108618007E0279FD80287E0479FB80227E0879F726
:10862800801C7E1079EF80167E2079DF80107E40D6
:1086380079BF800A7E80797F80047EFFE4F9900C00
:10864800FEE06019E952B29022EBE059F0900CFF7D
:10865800E06005EE42C28032E952C2802D900CFFE4
:10866800E0FF700E9022EBE04EF09022E8E04EF032
:108678008012EF9022EBB40108E04EF09022E880DF
:0D86880000E059F0EE42B2EE42BA7F00224F
:10845C00900D4812C88120E404007F1022AF0490D4
:10846C000D4812C87760020022EC120B7E84980033
:10847C00849E0184A40284AA0384B00484B6058477
:10848C00BC0684C20784C80A000084CC7E0179FE35
:10849C00802E7E0279FD80287E0479FB80227E0866
:1084AC0079F7801C7E1079EF80167E2079DF8010A2
:1084BC007E4079BF800A7E80797F80047EFFE4F95C
:1084CC00900D48E06019E952B49022ECE059F0901C
:1084DC000D49E06005EE42C48032E952C4802D9013
:1084EC000D49E0FF700E9022ECE04EF09022E9E096
:1084FC004EF08012EF9022ECB40108E04EF0902286
:0F850C00E98000E059F0EE42B4EE42BC7F00225D
:0C181A0041128A0041128B0041128C0028
:08CC5600EDF0A3EBF0E59222E2
:04C6E800E0FD7F01F1
:10C6EC00ED600543F904800353F9FBEF600443E963
:06C6FC00042253E9FB22B9
:0BCB5F00EF6004439202225392FD227B
:108B930090125F12CC5620E104007F1022901261E4
:108BA300E0D394034004007F2022E4FDEF120B7E08
:108BB3008BD2008BD8018BDE028BE4038BEA048B10
:108BC300F0058BF6068BFC078C020A00008C0879F3
:108BD300017EFE803279027EFD802C79047EFB804B
:108BE3002679087EF7802079107EEF801A79207E1F
:108BF300DF801479407EBF800E79807E7F80087984
:108C0300FFE4FE80027D30ED600300FF2290125FDF
:108C1300E06027901261E0FF30E105E942EA80035A
:108C2300EE52EAEF30E005E942EB8003EE52EBE966
:108C330042EC90126012C6E88003EE52EC7F0022F1
:0BCB6A00EF6004439204225392FB2270
:108C430090126312CC5620E204007F112290126529
:108C5300E0D394034004007F2122E4FDEF120B7E56
:108C63008C82008C88018C8E028C94038C9A048CE9
:108C7300A0058CA6068CAC078CB20A00008CB879D0
:108C8300017EFE803279027EFD802C79047EFB809A
:108C93002679087EF7802079107EEF801A79207E6E
:108CA300DF801479407EBF800E79807E7F800879D3
:108CB300FFE4FE80027D31ED600300FF229012632A
:108CC300E06027901265E0FF30E105E942F280039E
:108CD300EE52F2EF30E005E942F38003EE52F3E99E
:108CE30042F490126412C6E88003EE52F47F00222D
:0BCB7500EF6004439208225392F72265
:108F9F0090126712CC5620E304007F1322901269BF
:108FAF00E0D394034004007F2322E4FDEF120B7EF5
:108FBF008FD8008FDE018FE4048FEA058FF0068FC4
:108FCF00F6078FFC0A0000900279017EFE80267959
:108FDF00027EFD802079107EEF801A79207EDF805F
:108FEF001479407EBF800E79807E7F800879FFE400
:108FFF00FE80027D33ED600300FF22901267E06078
:10900F0027901269E0FF30E105E942FA8003EE5242
:10901F00FAEF30E005E942FB8003EE52FBE942FC38
:0E902F0090126812C6E88003EE52FC7F002209
:0DCAF200F0A3F0EF24FF92AF902190E0221E
:06CCA200902191EFF02249
:10C9BF00EF9021916005E04402F022E054FDF02257
:10C9CF00EF9021916005E04404F022E054FBF02247
:10C9DF00EF9021916005E04408F022E054F7F02237
:10C9EF00EF9021916005E04410F022E054EFF02227
:09CC3B00902158EFF0EEA3F02265
:09CC440090215AEFF0EEA3F0225A
:0FCA8F00AC02AD017B087A007F507E2102A342EA
:10C70200A2AFE433FFC2AF902004E4F09020011204
:0AC71200CAF24440F0E054BFF022E8
:10C71C00A2AFE433FFC2AF902084E4F090208112EA
:0AC72C00CAF24420F0E054DFF022CE
:0BCB80007F1612CCA212C70202C71CD5
:0C1826004111E0004111DB004111DF0026
:1092B100E5E8F0A3E5E9F0AFA875E902E4F5E875A2
:1092C100A8809027927483F090279EE0C2AF9027E8
:1092D10093E0E4F583D2AF2290279F7444F0902766
:1092E10092E0547FF0E49011DBF022120ACC8E82DE
:1092F1007583001206AC902790F0E4F583D2AF227B
:109301009027927480F022E0547F25E0902791F01D
:1093110022FEE49011E0F0902792E022900D06E009
:1093210004F0E0C3942022EFF0A3EDF0A3120AECC5
:10933100E422E004F09011DBE02212C6249027928F
:0A934100E022E0F5E88FA8AF052256
:0BCB8B00EF60044399802253997F2241
:10A8F600E59920E704007F1022900D01E0FEC39445
:10A90600125004007F1122EF6041A2AFE433FFC270
:10A91600AF902794EEF090279674FFF0902795E479
:10A92600F0902793E090279EE0EB90279230E00589
:10A9360074A3F080037483F053F9FDED600343F9CB
:10A946000243E902EF24FF92AF800653E9FD12931A
:04A95600017F00225B
:10C62400E49011D9F0A3F09011D9E475F001120748
:0EC63400CC9011D9E07004A3E0640A70EA22F1
:1088C80090119A1293289011A2F0E59920E70400DC
:1088D8007F102290119FE0FE70028006EED3940F65
:1088E8004004007F1122E4FFFE12C0049011A01280
:1088F80092B190119A129308C2AF90119BE0129214
:10890800F7FE90119FE0FDEEC39D500BC2AF901192
:108918009C1292EC0E80EB1292D990119FE02402E7
:108928001293124470F0E4FD9011A2129333600484
:108938007D1280129011E0E06E600B9011A2E0C3EE
:10894800944040E47D80ED700612933B54EFF0E4D0
:108958009011A2F030960320970A9011A21293204A
:1089680040F27D801293019011A1E0F5E99011A0E9
:0489780012934322F1
:106B3900900CFE129328900D06F0E59920E70400C9
:106B49007F1022900D03E0FE70028006EED39410B0
:106B59004004007F1122E4FFFE12C004900D0412CC
:106B690092B1900CFE129308C2AF900CFFE0129202
:106B7900F7900D03E0902797F01292D97E021293B5
:106B890014447CF0E4FD900D0612933360047D12E9
:106B990080129011E0E06E600B900D06E0C39450F6
:106BA90040E47D80ED6014E4900D06F030960320FA
:106BB900976B12931D40F57D80806212933B54F7C9
:106BC900F0902791E04401F0E4900D06F09011DB7C
:106BD900E0700E900D06E004F0E0C394E040EE7D15
:106BE90080E4FE900D03E0FCEEC39C501EC2AF9002
:106BF9002790E0FC900D00120ACC8E82758300EC80
:106C090012070DE4F583D2AF0E80D8E4900D06F09B
:106C190030960320970712931D40F57D801293014A
:0D6C2900900D05E0F5E9900D041293432253
:108AE200900D99EF12932C900DA0F0E59920E704D8
:108AF200007F1022900D9DE0FE70028006EED3945E
:108B0200104004007F1122E4FFFE12C004900D9E6B
:108B12001292B1900D99129308E4FE900D9DE0FD22
:108B2200EEC39D500BC2AF900D9A1292EC0E80EBE9
:108B32001292D9900D9DE0041293124470F0E4FD5C
:108B4200900DA012933360047D1280129011E0E028
:108B52006E600B900DA0E0C3944040E47D80ED7008
:108B62000612933B54EFF0E4900DA0F030960320F0
:108B7200970F900DA0E0FE04F0EEC3941040ED7D3F
:108B820080129301900D9FE0F5E9900D9E129343A0
:018B920022C0
:10796C00901167EFF0A3120AECE59920E704007F71
:10797C001022E4FFFE12C00490116EE5E8F0A3E5BE
:10798C00E9F0A3E5A8F01292BA901167E0547F25B4
:10799C00E04401902791F090116BE0FFD3941040DC
:1079AC000B9027977410F0EF24F0800990116BE086
:1079BC00902797F0E49011DFF01292D99011DFE04C
:1079CC00901171F0E49011E0F0901168120ACC90D3
:1079DC0011DC120AEC902792E04474F0E490116CE4
:1079EC00F09011DBE060FAE490116DF0902797E0D5
:1079FC00FF90116DE0FEC39F502DC2AF902790E019
:107A0C00FFEEFD901171E02DFDE433FC9011681236
:107A1C000ACC8D828C83EF12070DE4F583D2AF90E4
:107A2C00116DE004F080C53096FD3097FA12930189
:107A3C0090116FE0F5E990116EE0F5E8901170E0AF
:087A4C00F5A890116CE0FF2287
:10B3E00015660AB30AB2055906B4035A035C01AEE6
:10B3F00001C200E10104008201D200E901120089CA
:10B4000000B20059008A0045008A0045008A0045C4
:10B41000023001180118008C0096004B00460023F2
:08B42000003C001E003C001E70
:101832004111400041113F0341113E0041113D0061
:0418420041113C0014
:10B0540075F002120AC0E493FF740193901134CF87
:10B06400F0A3EFF0E4A3F0A3F0229022007438F0F0
:10B0740090113FE025E025E022901134E0FEA3E0AA
:10B08400FFC3901137E09F901136E09E2290113655
:0EB09400E475F0010207CC9022007434F02223
:0ECABB00EF30E0047F018002E4FF127DE022F4
:07CC9500902200741CF02244
:10903D00900D28EEF0A3EFF0A3EDF0600B902783D9
:10904D00E4F09022D07488F0A2AFE433900D2BF0B1
:10905D00C2AF90228DE0900D2CF07F1112CC5E905E
:10906D002200742CF07F13E4901132F0A3F0900DD8
:10907D0028E0FCA3E0FDC3901133E09D901132E098
:10908D009C502190228DE020E612A3E05407FE7043
:10909D0003FF8010EEB404047F1280089011321289
:1090AD00B09480CA90228F74FFF0900D2CE0902226
:1090BD008DF0900D2BE024FF92AF900D2AE060090A
:0E90CD00EF70069022D07484F0EF6001002254
:10C98D007F0A12CC5EE4FD7F0112C5897F0102C9C9
:01C99D00FF9A
:109C8200900D1CEFF0BF04028009900D1CE0D394EC
:109C9200054004007F182212B09BE4FF12B3989093
:109CA2000D1CE0FF12AD04900D1CE0146016146050
:109CB2001B14602024FE6024240570269022117457
:109CC20009F0801E9022117405F080169022117402
:109CD20003F0800E9022117402F08006902211741B
:109CE20010F0902200743CF07F0112B398900D1C8A
:089CF200E090113FF07F002219
:10B18A009012B4EFF012AD049012B4E0FF146016FE
:10B19A0014601B14602024FE60242405702690226B
:10B1AA00117409F0801E9022117405F08016902205
:10B1BA00117403F0800E9022117402F0800690221E
:0CB1CA00117410F090113FEFF07F002294
:10BAD1009012B5EFF07F03129C829012B5E0902294
:10BAE100246013E04440F0902785E04408F0902260
:10BAF10037E04480F022E0543FF0902785E054F78E
:09BB0100F0902237E0547FF0229D
:10869500900D1CEFF0C3940B4006E0D3941A4004F0
:1086A500007F172212B09BE4FF12B398900D1CE0D7
:1086B500120B7E86EC0B86F00C86F40D86F80E8682
:1086C500FC0F870010870411870812870C13871089
:1086D50014871415871816871C17872018872419DF
:1086E50087281A000087347F65803A7F6A80367F45
:1086F5006F80327F74802E7F79802A7F7E80267FEF
:108705008380227F88801E7F8D801A7F9280167FCE
:108715009780127F9C800E7FA1800A7FA680067FAE
:10872500AB80027FB07E0912880F900D1DEFF0908F
:108735000D1DE06004000286B1902200743CF07FBC
:0D8745000112B398900D1DE0FF60010022AD
:0FCA9E00E4FE902284E0FF70050EEEB4FAF4225D
:08CC5E00EF541F90228DF0221B
:10C79E00A2AFE433FEC2AFED24FF92F8EF24FF9276
:09C7AE00E8AF06EF24FF92AF2270
:10B39800EF603D90228EE054F7F0E04408F075919C
:10B3A80010A2AFE433FFC2AF902084E4F090208174
:10B3B800F0A3F0EF24FF92AFE490113EF0902190BB
:10B3C800E04420F0E054DFF0902201E054FEF02247
:08B3D800902201E04401F02283
:06CCA800EF24FF92AF2211
:03003E000276A89F
:10806600902002E4F0902303E0902192F090228089
:10807600E05470FF6007641060037F152290113D85
:108086007401F0901140E0547DF0900DD574E1F04C
:1080960012003E12B06E24E0F582E434B3F583C0DC
:1080A60083C0829012B2E0D082D08312B05412B054
:1080B6007D5013901140E030E107E4900DD5F0803B
:1080C6000512B09180E8900DD5E0B4E10F12B09B97
:1080D600902002E4F090113DF07FE122E490113D02
:1080E600F0900DD5F0902301E030E539900DD57470
:1080F600E9F012B07424F8F582E434B3F583C08352
:10810600C0829012B2E0D082D08312B05412B07DF9
:108116005013901140E030E707E4900DD5F080054C
:1081260012B09180E8902002E4F0900DD5E0FF2295
:10934B0090113DE060030293E29023807405F0A33B
:10935B007402F0EF6004E04410F0902382E4F0A379
:10936B00EDF090222CE0900E11F090222CE0442096
:10937B00F09020027480F0902280E05470600464BE
:10938B0010704712B06E2410F582E434B4F583C02C
:10939B0083C0829012B2E0D082D08375F002120AA1
:1093AB00C0E493FF74019390113812B0639011389D
:1093BB00E0FEA3E0FFC390113BE09F90113AE09ECB
:1093CB00500512B09480E612B09B902002E4F0900E
:0893DB000E11E090222CF0229B
:10C58900EDD394024004007F1122EF6009ED4410BD
:0FC5990090222CF0800690222C7430F07F00222C
:06CCAE0090222DEFF022A0
:10C9FF00EF90227E6005E04408F022E054F7F02229
:109A09009012A4EFF0D394034004007F1122901226
:109A1900A4E0FE700A90113CE07004007F1622E475
:109A29009012A5F0EEB4010D12CC957F01129A8720
:109A39007401F080439012A4E0B4020D12CC957F1A
:109A490002129A877402F0802F9012A4E0B40310D6
:109A590012CC957F0312A48590113C7403F08018F1
:109A6900E4FF12A485E4FD7F107E2712903D901239
:109A7900A5EFF0E490113CF09012A5E0FF2212A4AA
:059A89008590113C2254
:10CA0F00EFD394164004007F1122125E997F00220B
:10CA1F00EF6009AF0512C91B439EC022539E3F22F0
:0ECAC900EF600712CC86439CC022539C3F2294
:10BB0A00902281E0541FD39402402D9022BDE02060
:10BB1A00E0267F019022B0E04401F0E4FDFC90228F
:10BB2A00BDE030E004E4FF800B0DBD00010CBC0356
:09BB3A00EDBDE8EAEF70DD222206
:081846004112A7004112A600A7
:106F25009022EDE06580FF9022F0E05FFF9022EE79
:106F3500E06590FE9022F1E05EFE9022EFE065B004
:106F4500FC9022F2E05CFC9022F0E022E5E8F0AD56
:106F55009AA9E9759A07E4F5E8F5E99022E1746ED6
:106F6500F09022E6E054FBF0E054E7F022E09022B6
:106F7500E5F09022E27490F0D2D875E88075A8808B
:106F850022E0FEEFF4FCEE5CF022EEF0A3EFF0A3BE
:106F9500EDF0A3EBF09022F0E055B9FFE06F22E0B1
:106FA500FAA3E0FBEA9022E3F0A3EBF022E5A8F0D8
:106FB500E4F5A89022EBE0229022F1E055BAFFE03B
:106FC5006F229022F2E055BCFFE06F22EF4404FFF0
:106FD5009022EBE054E7F022AF058F9AD2D8538F79
:106FE500BF22E0FEEFF4FFEE5FF022FFE054033333
:106FF500333354F8FEEF4E22EF9022E0F0E4F59A99
:1070050022E0F5E8AF018FE92254012FFFE0FDA84A
:0370150006082248
:10B47000ED24FF92FCEF6033EB4A700A90123FE03C
:10B480007004007F11229022E1746EF0126FA99077
:10B49000123FE09022E5F0A3E054E7F0E04480F0B2
:10B4A000D2EC9022E0E04420F08009C2EC9022E04F
:07B4B000E054DFF07F0022F1
:10BF4D00900D1CEFF020E0069022E07498F0902701
:10BF5D0083E4F012CC95902780E4F0A3F0900D1CB3
:0EBF6D00E030E007902203E0547FF07F0022D6
:10C24F009022E074D8F090278074F6F0A37423F056
:10C25F0012C269EF600312C2692212CC95E4FD7F0E
:07C26F00107E2712903D2212
:109DE80090128DEFF0A3EDF0A3EBF0E4FFFE9012DC
:109DF8008DE0FDA806088002C313D8FC90128E12CD
:109E0800700E8002C313D8FC90128F12700E80025D
:109E1800C313D8FC54012FFF0EEEB407D1EFC3943F
:109E2800024004007F1122E4FFFE12C004AFA8AE76
:109E3800E8ADE990128DE0547FF5A8A3E0F5E8A31A
:109E4800E0F5E943A8807587010000E4F5A88DE9ED
:069E58008EE88FA8FF2236
:105D7F00900D1C126F8F6002800C126FBD6002803D
:105D8F0005126FC76004007F1522900D1FE0D3949A
:105D9F00034004007F112212CC95E4900D26F0FFF2
:105DAF00FE12C004900D21126FB2900D27F09022B9
:105DBF00E1E0900D25F09022E0E0900D24F090228C
:105DCF00E6E0900D23F0900D22126F51900D20E020
:105DDF00FC9022E630E706E0547FF08004E0448038
:105DEF00F09022E6C083C082E0900D1F126FF0D0BA
:105DFF0082D083F0900D1C126FA4900D1E126F7243
:105E0F007FB9EC30E004EF54DFFF900D20E030E17C
:105E1F0003126FD1126FFDE5D220E5FB126F256FD4
:105E2F00701DAF06A3E06F7016AF04A3E0B5040FAB
:105E3F00758702000000000000000000008006903F
:105E4F000D267412F0126FDD900D22127006900D58
:105E5F0024E09022E0F0900D23E09022E6F0900DE8
:105E6F0025E09022E1F0900D27E09022EBF0900DCD
:105E7F0021E0F5A8900D26E0600100E4FD7F107E83
:0A5E8F002712903D900D26E0FF223F
:10651900901150126F8F6002800C126FBD60028063
:1065290005126FC76004007F1522901153E0D394C0
:10653900034004007F1122E490115AF07F107E2756
:1065490012C004901155126FB290115BF09022E1C4
:10655900E0901159F09022E0E0901158F09022E675
:10656900E0901157F0901156126F51901154E0FCC0
:106579009022E630E706E0547FF08004E04480F0A2
:106589009022E6C083C082E0901153126FF0D0824E
:10659900D083F0901150126FA4901152126F727F34
:1065A900BAEC30E004EF54DFFF901154E030E1031E
:1065B900126FD1126FFDE5D220E5FB126F256F70C6
:1065C9001DAF06A3E06F7016AF04A3E0B5040F7505
:1065D9008702000000000000000000008006901102
:1065E9005A7412F0126FDD901156127006901158FC
:1065F900E09022E0F0901157E09022E6F0901159D6
:10660900E09022E1F090115BE09022EBF0901155BF
:0C661900E0F5A890115AE0FF600100229B
:107881009011E1EF126F996002800C126FBD6002DE
:107891008005126FC76004007F1522E49011E7F0A4
:1078A1007F107E2712C0049011E2126FB29011E88E
:1078B100F09022E1E09011E6F09022E0E09011E5F5
:1078C100F09022E6E09011E4F09011E3E5E8F0AFEA
:1078D1009A126F56126F777E9B9011E1E030E107AB
:1078E100EE4404FE126FD5EE126FFEE5D220E5FBE9
:1078F1009022EDE06580FE9022F0E05EFE9022EEA7
:10790100E06590FD9022F1E05DFD126F3F6E701D0C
:10791100AE05A3E06E7016AE04A3E0B5040F758743
:10792100020000000000000000000080069011E746
:107931007412F0126FDF9011E31270069011E5E0FE
:107941009022E0F09011E4E09022E6F09011E6E060
:107951009022E1F09011E8E09022EBF09011E2E04A
:0B796100F5A89011E7E0FF6001002294
:10B4B700EFD394074004007F16227401A807088081
:10B4C70002C333D8FCFF9022EAE04FF0EB9022ED65
:10B4D700600BE04FF09022E7126F868009126F86AB
:10B4E7009022E7E04FF0ED9022F06005E04FF0800A
:07B4F70003126FE77F002242
:10B4FE00EFD394074004007F16227401A80708803A
:10B50E0002C333D8FCFF9022EBE04FF0EB9022EE1B
:10B51E00600BE04FF09022E8126F868009126F8662
:10B52E009022E8E04FF0ED9022F16005E04FF080C0
:07B53E0003126FE77F0022FA
:10B54500EFD394074004007F16227401A8070880F2
:10B5550002C333D8FCFF9022ECE04FF0EB9022EFD2
:10B56500600BE04FF09022E9126F868009126F861A
:10B575009022E9E04FF0ED9022F26005E04FF08077
:07B5850003126FE77F0022B3
:1098F900EFF07F807E387D017C00A3120A53D302EA
:1099090009ECE0FCE4120336E4FBFA79C878420278
:10991900028F120A537F007E127D7A7C0002093F72
:10992900E47F7BFEFDFC120A53C30209EC12018697
:1099390012036AAB07AA06EB4A22ECF0A3EDF0A9E1
:1099490007E59A22E0FCA3E0FDE4020331C3EB94AE
:1099590020EA940322AD03EDF0EAFF22FFE0FCA325
:10996900E0FD22AD03EDF0EAFF22E47F7BFEFDFC82
:0899790022FFE0FCA3E0FD2247
:05C697007481F07F0139
:10C69C00ED600543F908800353F9F7EF600443E9B3
:06C6AC00082253E9F72209
:0BCB9600EF6004439A0822539AF72234
:10A5C10090120012994320E304007F1222C39012DB
:10A5D10001E09B901200E09A5004007F1122902527
:10A5E100867420F0E96039901200E0FEA3E0902526
:10A5F10083F0EEF9902582F090258512995E9025E1
:10A6010084F09025867409F0902583EDF0902582E1
:10A61100EFF0901200A3E0902585F0902584E9F0F9
:07A62100E4901204F0FF2297
:10B82100E59A20E304007F12221299565004007F0A
:10B8310011229025867420F0EF601E902583EBF095
:10B84100EA902582F0A3E0902585F0902582E09092
:10B851002584F090258612C697E4901244F0FF22C9
:10A266009011A31298F9501A9011A412992950022C
:10A2760080109011A8E0FFD394635006EFC39401B9
:10A286005004007F11229011A412991B9011AAEE7E
:10A29600F0A3EFF09011A812990BC004C005C006F8
:10A2A600C0079011AA12994DD003D002D001D00058
:10A2B6001299367003FA7B019011A3E09011AA124D
:0EA2C60099659011A9E0901204F012A5C12232
:0BCBA100EF6004439A1022539AEF2229
:10A6280090120612994320E404007F1322C390126B
:10A6380007E09B901206E09A5004007F11229025B3
:10A648008E7420F0E96039901206E0FEA3E09025B0
:10A658008BF0EEF990258AF090258D12995E902561
:10A668008CF090258E7409F090258BEDF090258A5A
:10A67800EFF0901206A3E090258DF090258CE9F07C
:07A68800E490120AF0FF222A
:10B86100E59A20E404007F13221299565004007FC8
:10B87100112290258E7420F0EF601E90258BEBF045
:10B88100EA90258AF0A3E090258DF090258AE0903A
:10B89100258CF090258E12C697E4901249F0FF2274
:10A2D4009011AC1298F9501A9011AD1299295002AC
:10A2E40080109011B1E0FFD394635006EFC3940142
:10A2F4005004007F11229011AD12991B9011B3EEFE
:10A30400F0A3EFF09011B112990BC004C005C00680
:10A31400C0079011B312994DD003D002D001D000E0
:10A324001299367003FA7B019011ACE09011B312CC
:0EA3340099659011B2E090120AF012A628224C
:0BCBAC00EF6004439A2022539ADF221E
:10A68F0090120C12994320E504007F1422C39012FC
:10A69F000DE09B90120CE09A5004007F1122902540
:10A6AF00967420F0E9603990120CE0FEA3E090253B
:10A6BF0093F0EEF9902592F090259512996C9025D4
:10A6CF0094F09025967409F0902593EDF0902592D3
:10A6DF00EFF090120CA3E0902595F0902594E9F0FF
:07A6EF00E4901210F0FF22BD
:10B8A100E59A20E504007F14221299565004007F86
:10B8B10011229025967420F0EF601E902593EBF0F5
:10B8C100EA902592F0A3E0902595F0902592E090E2
:10B8D1002594F090259612C697E490124EF0FF221F
:10A0A4009011B51298F9501D1299739011B6129926
:10A0B4002F500280109011BAE0FFD394635006EF42
:10A0C400C394015004007F11229011B612991B9081
:10A0D40011BCEEF0A3EFF09011BA12990BC004C0BA
:10A0E40005C006C0079011BC12994DD003D002D010
:10A0F40001D0001299367003FA7B019011B5E090FB
:10A1040011BC12997A9011BBE0901210F012A68F34
:01A114002228
:0BCBB700EF6004439A4022539ABF2213
:10A6F60090121212994320E604007F1522C390128D
:10A7060013E09B901212E09A5004007F11229025CC
:10A716009E7420F0E96039901212E0FEA3E09025C5
:10A726009BF0EEF990259AF090259D12996C902554
:10A736009CF090259E7409F090259BEDF090259A4B
:10A74600EFF0901212A3E090259DF090259CE9F081
:07A75600E4901216F0FF224F
:10B8E100E59A20E604007F15221299565004007F44
:10B8F100112290259E7420F0EF601E90259BEBF0A5
:10B90100EA90259AF0A3E090259DF090259AE09089
:10B91100259CF090259E12C697E4901253F0FF22C9
:10A115009011BE1298F9501D1299739011BF1299A2
:10A125002F500280109011C3E0FFD394635006EFC7
:10A13500C394015004007F11229011BF12991B9006
:10A1450011C5EEF0A3EFF09011C312990BC004C036
:10A1550005C006C0079011C512994DD003D002D095
:10A1650001D0001299367003FA7B019011BEE09080
:10A1750011C512997A9011C4E0901216F012A6F644
:01A1850022B7
:0BCBC200EF6004439A8022539A7F2208
:10A41B0090121812994320E704007F1622C3901262
:10A42B0019E09B901218E09A5004007F112290259E
:10A43B00A67420F0E9603C901218E0FEA3E0902592
:10A44B00A3F0EEF99025A2F0AD039025A5EDF0EA6F
:10A45B00FF9025A4F09025A67409F09025A3EDF0AC
:10A46B009025A2EFF0901218A3E09025A5F090256F
:0AA47B00A4E9F0E490121CF0FF22A7
:10B92100E59A20E704007F16221299565004007F01
:10B9310011229025A67420F0EF601E9025A3EBF054
:10B94100EA9025A2F0A3E09025A5F09025A2E09031
:10B9510025A4F09025A612C697E4901258F0FF2274
:109F4A009011C71298F9501D1299739011C812995D
:109F5A002F500280109011CCE0FFD394635006EF8B
:109F6A00C394015004007F11229011C812991B90CA
:109F7A0011CEEEF0A3EFF09011CC12990BC004C0F1
:109F8A0005C006C0079011CE12994DD003D002D059
:109F9A0001D0001299367003FA7B019011C7E0FFD5
:109FAA009011CEE0FCA3E0FD9011CDE090121CF0E0
:049FBA0012A41B22B0
:04184E0041125D00E6
:10779500E0FFE4FCFDFE1209D190126A120A5F9027
:1077A500126A120A477808120A1090126A120A5FC2
:1077B50090126A22E0FFE4FCFDFE1209D190126EE0
:1077C500120A5F90126E120A477808120A10901278
:1077D5006E120A5F90126E22EFF0900DDC120A47CE
:1077E50078081209FD900DDC120A5F900DDC020A83
:1077F50047EFF0900D52120A4778081209FD900DD7
:1078050052120A5F900D52020A47902780E054FEFB
:10781500F022AC02AD017B107A007E21227F04129A
:10782500BEEF90219F7401F022E4F0902780E022C2
:10783500E0FFE4FCFDFE22AC02AD01E0FB7A002294
:10784500120AECAE02AF01C3EE942322AC02AD01E5
:107855007B087A007E2122AE02AF017B087A007C8C
:107865002122120A5FE4FB902780E022900DD802C6
:0C7875000ACCE04404F090219FE4F022D3
:10C38200900CFE12782E20E00AE04401F0900CFEA0
:10C392007401F07F0012781712A342900CFEE06045
:05C3A2000312780F22D8
:10C3A7009012B612782E20E00AE04401F09012B6FF
:10C3B7007401F07F3012781712A3429012B6E06032
:05C3C7000312780F22B3
:10C6B200E4FE902780E020E006E04401F07E019055
:0BC6C2002140EFF0EE600312780F2221
:10BE9100900DDC12786720E005E04401F00B127789
:10BEA100F09021411277DD9021421277DD902143FC
:0FBEB1001277DD902144EFF0EB600312780F223F
:10C1AF00E4900CFEF0902780E020E00AE04401F0DC
:10C1BF00900CFE7401F07F4512785112A342900C3F
:08C1CF00FEE0600312780F226C
:10C6CD00E4FE902780E020E006E04401F07E01903A
:0BC6DD002110EFF0EE600312780F2236
:10BEC000900D5212786720E005E04401F00B1278E3
:10BED000099021111277F69021121277F690211312
:0FBEE0001277F6902114EFF0EB600312780F2227
:10C1D700E4900CFEF0902780E020E00AE04401F0B4
:10C1E700900CFE7401F07F1512785112A342900C47
:08C1F700FEE0600312780F2244
:06CCB400902140E0FF2288
:10BF7B0090214412783512779E120A539021431266
:10BF8B007795120A53902142127795120A539021FA
:0EBF9B00411278351209D11277AF120A4722EF
:08CC66007D4512785C02A34237
:06CCBA00902110E0FF22B2
:10BFA9009021141278351277C2120A539021131274
:10BFB90077B9120A539021121277B9120A539021B4
:0EBFC900111278351209D11277D3120A4722CD
:08CC6E007D1512785C02A3425F
:08CC7600EF547F902194F0229D
:08CC7E00EF547F902195F02294
:10CA2F00EF9021936005E04440F022E054BFF022E4
:10CA3F00EF9021936005E04420F022E054DFF022D4
:10BEEF00EF7002800CEFD3941040028004EF30E02B
:10BEFF0004007F1A22EFC31314FF902193E054E341
:0FBF0F00F0E0FEEF25E025E0FFEE4FF07F00228F
:09C2EA00902780E04401F07F037D
:10C2F300EFD394034004007F1122902193E054FC78
:0DC30300F0E0FEEF5403FFEE4FF07F00224C
:10693D00900DD2EDF0900DCF127845400DD3EF9420
:10694D00FFEE94245004007F1822127871E4120691
:10695D00FB900DD2E0FED394794004007F1622EE19
:10696D00B40104007F172212C2EA900DD3120A4718
:10697D0012BE91900DD7E0FF12C6B2E4FF12CC7695
:10698D00127822900DD2E02402902300F0900DCFCA
:10699D00120ACC900DD212783C7F017E2312A342B5
:1069AD00902007E4F0900DD2E02402902008F090A2
:1069BD000DDB7412F0902180E054FBF09020031257
:1069CD007877901259F0A3F0902180E030E207E43F
:1069DD00900DDBF08016901259E475F0011207CC82
:1069ED00901259E0B402E1A3E0B458DC900DDBE065
:1069FD007030900DD2E02404FF127871EF1206FB77
:106A0D00127827900DCF120ACCAE02AF0112787119
:106A1D00120693FB7A007D017C2312A34290219FE5
:0E6A2D00E4F012780F900DDBE0FF6001002214
:105FB300900D48EDF0900D45127845400DD3EF94C8
:105FC300FFEE94245004007F1822900D4E120ACC49
:105FD300E41206FB900D48E0FFD3947D5006EFC317
:105FE30094045004007F162212C2EA900D49120A4B
:105FF3004712BEC0900D4DE0FF12C6CDE4FF12CC98
:106003007E127822900D48E02402902400F0900D37
:1060130045120ACC900D4812783C7F017E2412A3CE
:1060230042902087E4F0900D48E02402902088F00D
:10603300900D517413F0902180E054FDF090208373
:1060430012787790125BF0A3F0902180E030E107A3
:10605300E4900D51F0801690125BE475F001120785
:10606300CC90125BE0B402E1A3E0B458DC900D5194
:10607300E0704990219F04F0900D45120ACCAE02C6
:10608300AF01900D48E0FB7A007D017C2412A3420E
:10609300900D48E0FFE42FF582E43424F583E070AB
:1060A30010EF24FCFF900D4E120ACCEF1206FB807A
:1060B30006900D517414F090219FE4F012780F9024
:0860C3000D51E0FF6001002215
:10185200410FEC00420FEA000042102E0000410F3F
:02186200E95546
:10C4A200120ACC8F827583001206AC902542F0E40A
:10C4B200F583D2AF22902540E054BFF0E04440F033
:02C4C200E42272
:0BCBCD00EF60044398802253987F2201
:0ECAD700439810D2B7E4FB7D017F0702845C18
:07CAFF00E4900FECF07F0151
:06CB0600EF24FF92B722AC
:1073E00090121FEBF0AA07E59820E704007F102217
:1073F000901220E0FED394094004007F1122EE2475
:10740000FE601314601824FA601C24087020901287
:10741000217405F080209012217403F080189012DE
:10742000217404F08010901221740BF080089012E7
:1074300020E02402A3F0902540E4F0902543F09052
:107440002540C083C082E0FF901221E0FE5403FC7F
:10745000EF4CD082D083F0902543E0FFEE540C1324
:1074600013543FFEEF4EF0EA605AA2AFE43390129D
:1074700022F0C2AFED24FF92FD90121FE030E40332
:1074800012CAD7902540C083C082E0FF90121FE04F
:10749000FE541CFDEF4DD082D083F0902540E04497
:1074A000C0F0D2EDEE20E412E4FF900FE9E0902569
:1074B00042F0E4F5830FEFB410F0901222E024FFC5
:0E74C00092AF8007902540E4F0C2ED7F0022DD
:10C5A800AE07E4FF12CB06C2AF902542EE12C4B02C
:0FC5B800900FECE060FA12CAFF90102DE0FF2206
:10BA9600901290120AECEDD394104004007F11220C
:10BAA600E4900FECF0FF12CB06EFC39D500BC2AF34
:10BAB60090129012C4A20F80F0900FECE0B505032F
:0BBAC600D38001C350F312CAFF1F22FF
:10C7E90012C4B7FEC2AF902542EF12C4B00EEEB428
:08C7F90010F2900FE9EFF022AD
:10BDD000901293120AECEDD394104004007F1122CC
:10BDE00012C4B7FFC2AF90129312C4A20FEFB410E7
:10BDF000F3901293120ACC120693900FE9F07F0091
:01BE0000221F
:10B6DE0090102EA3E0FFC3900FEBE09FFFEF543FBF
:10B6EE00602C90102EE0FEA3E024EDF582740F3E48
:10B6FE00F583E01206FB90102FE02401FF90102E30
:10B70E007E00EF543FFFEEF0A3EFF07F01227F00AB
:01B71E002208
:1096C4007FF07EFF7D077C00120A53D30209ECADC4
:1096D40007AC06ECF07C00E4120331783FE4FBFABB
:1096E400F912009502036AEFF0A3EDF0A3EBF0E5A5
:1096F4009822C3E49BFFE49AFE740199FDE498FC6C
:10970400020A5FE024FF92AF7F0022E490117FFE03
:10971400FDFC020A53AF03E4FCFDFE120A530208E7
:10972400B4E47B03FAF9F8020A47E0FEA3E0FFC3BE
:10973400E49FFFE49EFE22900D02020A5FFB120AE0
:109744004778080209FD9011D4120A5F9011D422BF
:0BCBD800EF6004439801225398FE22F6
:10963400900CFE1296EB20E004007F1322900D01A3
:10964400E0FBD394624004007F1722A2AFE433907E
:109654000D06F0C2AF900D02120A6B000007D09005
:109664000D0212971912973B900D021297251209B9
:109674003FE4FDFC12973B900D02120A53900D0239
:109684001296F6900D02120A47901274EFF0900DA4
:1096940002129741901272EFF08B8AF58C5389F085
:1096A400438901900CFFE024FF92B9A3E024FF92C8
:1096B4008C900CFEE024FF92A9900D0612970722CD
:10AFB600A907E59820E004007F1322A2AFE43390AE
:10AFC6001228F0C2AF90122612972E901274EFF04C
:10AFD600EEFF901272F0901274E0F58A8F8C53890E
:10AFE600F0438901ED24FF92B9EB24FF928CE9240A
:0AAFF600FF92A9901228129707227B
:0BCBE300EF6004439802225398FD22EB
:10986F009011D01296EB20E104007F14229011D3B7
:10987F00E0FBD394624004007F1822A2AFE4339040
:10988F0011D8F0C2AF9011D4120A6B000007D0901C
:10989F0011D412971912974A12972512093FE4FD16
:1098AF00FC12974A120A539011D41296F69011D4C3
:1098BF00120A47901275EFF09011D412974190123F
:1098CF0073EFF08B8BF58D53890F4389109011D166
:1098DF00E024FF92BBA3E024FF928E9011D0E024EE
:0A98EF00FF92AB9011D812970722E8
:10B2BA00A907E59820E104007F1422A2AFE43390A5
:10B2CA00122EF0C2AF90122C12972E901275EFF038
:10B2DA00EEFF901273F0901275E0F58B8F8D538903
:10B2EA000F438910ED24FF92BBEB24FF928EE924D1
:0AB2FA00FF92AB90122E129707226C
:0BCBEE00EF6004439804225398FB22E0
:1075BB0090117C1296EB20E204007F15227F0512BE
:1075CB00970FC31209EC500C90117F1296C4400414
:1075DB00007F19227FF87EFF7D037C0090117F12C4
:1075EB0096CC400E9011847440F09011837406F089
:1075FB0080447FFC7EFF7D017C0090117F1296CC36
:10760B00400E9011847420F09011837405F0802645
:10761B00E47FFE7EFFFDFC90117F1296CC901184CF
:10762B00400B7410F09011837404F080097408F00F
:10763B009011837403F07F0812970F1208B4C007E0
:10764B00901184E0FBE4FAF9F8D00712093FE41239
:10765B00032C78BF1296E19011851296D3A2AFE45A
:10766B0033FEC2AF53A9F090117CE06027901185D7
:10767B00E0F5AA8FAC90117DE024FF92F9A3E060B6
:10768B000C901183E025E0440142A9800353A9FE2D
:0D769B00D2E98002C2E9AF06EE1297082284
:0BCBF900EF6004439808225398F722D5
:106C36009011861296EB20E304007F1622E47F056E
:106C4600901189129713C31209EC500C90118912F6
:106C560096C44004007F1A227FF87EFF7D037C00E5
:106C66009011891296CC400E90118E7440F09011BE
:106C76008D7407F080447FFC7EFF7D017C009011BF
:106C8600891296CC400E90118E7420F090118D745E
:106C960006F08026E47FFE7EFFFDFC9011891296A9
:106CA600CC90118E400B7410F090118D7405F0800D
:106CB600097408F090118D7404F0E47F08FEFDFC61
:106CC60090118912971FC00790118EE0FBE4FAF924
:106CD600F8D00712093FE412032CE4FBFAF978BF57
:106CE6001296E590118F1296D3A2AFE433FEC2AF8F
:106CF60053A90F901186E0602990118FE0F5AB8FB4
:106D0600AD901187E024FF92FBA3E0600E90118DF9
:106D1600E0C43354E0441042A9800353A9EFD2EBF8
:0B6D26008002C2EBAF06EE12970822BD
:105C5F000709433B0B0709433B0B0707433B0B0765
:105C6F00078B3B0B07078B040B07078B04040707F6
:105C7F008B0404040B048B061705078B0404040D17
:105C8F008B0404040D000B0B040400008B06170596
:105C9F0000000617050000001705000000000500B2
:105CAF0000000000040700000000070000000000D3
:105CBF001D0B000001000B0000010000000001009F
:105CCF0000000001000000000100000000000000C3
:105CDF0000000000000000000000000000000000B5
:105CEF0000000000000000000000000000000000A5
:105CFF000000000000000000000000000000000095
:105D0F000000000000000000000000000000000084
:105D1F00C393C7712FEE93C7712FEE77C7712FEE15
:105D2F007703712FEE7703342FEE7703341AEE7764
:105D3F0003341A0D658B021703077703341A0D020C
:105D4F0003341A0D02001A0D12090000021703077F
:105D5F000000170307000000030700000000070002
:105D6F000000000007020000000002000000000019
:10186400420E1E0000420E140000420E22000042EE
:101874000E180000410E1C01420E200000420E16FC
:101884000000420E240000420E1A0000410E1D0109
:10897C00E4FAF9F8900D00120A4712B5D2EF243040
:10898C00902510F0900D00020A47E4FAF9F812B5A0
:10899C00D2AC00AD01AE02AF03900D00020A5FFF36
:1089AC00C3E09FFF7E00EF543FFFAD01ED24FF229B
:1089BC00FF120ACCEF1206FB9012B2E0FF900D16DC
:1089CC00E075F006A422F583E5822FF582E4358369
:1089DC00F583E49322E433F0C2E8A2ACE43322E45E
:1089EC0033F0C2E8A2AEE43322A2AFE433FFC2AF4D
:1089FC0022C374409FFFE49EFED3EF9403EE9400D9
:108A0C0022E4F0A3E0543FF022E01206FBE4F583ED
:108A1C00EF24FF92AF7F0122120ACC8F8275830064
:038A2C000206AC93
:10589600900D0C120AECE4900D15F0120BD159087C
:1058A6000000012C590F000002585917000004B0DF
:1058B600591F000009605927000012C0592F000027
:1058C6002580593700003840593F00004B005947A2
:1058D60000009600594F0000DAC059570000E10059
:1058E600595F0001C200596700038400596F000721
:1058F600080059770008CA00597F0011940000007B
:105906005987E4900D16F0807E900D167401F08094
:1059160076900D167402F0806E900D167403F0806A
:1059260066900D167404F0805E900D167405F08076
:1059360056900D167406F0804E900D167407F08082
:1059460046900D167408F0803E900D167409F0808E
:1059560036900D16740AF0802E900D16740BF0809A
:1059660026900D16740CF0801E900D16740DF080A6
:1059760016900D16740EF0800E900D16740FF080B2
:1059860006900D157412F0900D15E070491289C439
:10599600245FF582E4345C1289D2900D0C1289BC26
:1059A60024BFF582E4345C1289D2900D0F1289BCB3
:1059B600241FF582E4345D1289D2FF900D12120A7B
:1059C600CCEF1206FB900D12120ACC12069370064B
:0C59D600900D157412F0900D15E0FF22EA
:0BCC0400EF6004439820225398DF22C9
:10813600901190EFF0A3EDF0E59820E504007F1094
:1081460022E4FF901190E06023901192120A477B7F
:10815600017A117997900D0F120AEC7A1109900D98
:1081660012120AEC7A1109125896800BE4901199B2
:10817600F0901197F0A3F0EF600200221289F590BB
:108186002505E4F09025037480F0901198E0902581
:1081960000F0901197E0902501F0901199E090255C
:1081A60007F0902503E4F0902507F0901190E06029
:1081B600389025027481F0901196E0FE543F902588
:1081C60003F0902501E4F0EE20E604E04401F0908F
:1081D6001196E020E707902501E04402F0D2AC902A
:1081E6001191E024FF92BC8009902501E4F0C2AC15
:0A81F600C2BCEF24FF92AF7F00220D
:10C50700A2E89012B71289E1F9C2AC900E14A3E029
:10C51700900E1F1289AB92AC9012B7E024FF92E8FD
:01C5270022F1
:10C52800A2E8900DC81289E1F9C2AC900E18A3E0F8
:10C53800900E231289AB92AC900DC8E024FF92E8CC
:01C5480022D0
:10ACAC00AC0712C5281289FD40F8A2E8E433FF1264
:10ACBC0089E4FEC2AC900E1CE06010E4F0C2AF90D0
:10ACCC002500ECF0E4F583D2AF8022900E22E0FA5E
:10ACDC00A3E024A6F582740E3AF583ECF0900E22D4
:10ACEC00E475F0011207CC900E22128A0DEE24FFAF
:08ACFC0092ACEF24FF92E82264
:10AF6200901276120AEC12C507EF4E7002FF22A26F
:10AF7200E8E4339012791289E3FFC2AC900E14E434
:10AF820075F0011207E2FC742625F0F582740E3C7E
:10AF9200F583E0FE901276120ACCEE1206FB900EBA
:10AFA20014128A0DEF24FF92AC901279E024FF92E2
:04AFB200E87F012211
:10C92F00E4FF900E1CE070010F902505E020E5025A
:03C93F007F012253
:10B1D600900DC8120AEC902501E030E1037F13229E
:10B1E600EDD3941040037F1422902505E030E5F955
:10B1F600E4FFEFC39D5022A2AFE433900DCBF0C223
:10B20600AF900DC8128A24902500F0E4F583900DC6
:0CB21600CBE024FF92AF0F80D97F002214
:10C8DF00902505E030E00A1289F5902500128A159F
:04C8EF00227F002282
:0BCC0F00EF6004439840225398BF22BE
:10820000900CFEEFF0A3EDF0E59820E604007F105F
:1082100022E4FF900CFEE06023900D00120A477BE1
:10822000017A0D7905900D0F120AEC7A0D09900D67
:1082300012120AEC7A0D09125896800BE4900D0781
:10824000F0900D05F0A3F0EF600200221289F59086
:108250002515E4F09025137480F0900D06E090252C
:1082600010F0900D05E0902511F0900D07E090259D
:1082700017F0902513E4F0902517F0900CFEE060C5
:10828000389025127481F0900D04E0FE543F902543
:1082900013F0902511E4F0EE20E604E04401F090A4
:1082A0000D04E020E707902511E04402F0D2AE90E3
:1082B0000CFFE024FF92BE8009902511E4F0C2AECD
:0A82C000C2BEEF24FF92AF7F002240
:10C41600A2E8900D451289EBF9C2AE900E16A3E084
:10C42600FFC3900E211289AD92AE900D45E024FF18
:03C4360092E82267
:10C43900A2E8900DC81289EBF9C2AE900E1AA3E0DA
:10C44900FFC3900E251289AD92AE900DC8E024FF6E
:03C4590092E82244
:10AC5300AC0712C4391289FD40F8A2E8E433FF12AD
:10AC630089EEFEC2AE900E1DE06010E4F0C2AF901C
:10AC73002510ECF0E4F583D2AF8023900E24E0FAA4
:10AC8300A3E024E6F582740E3AF583ECF0900E24EB
:10AC9300E475F0011207CCE4900E24128A0EEE2420
:09ACA300FF92AEEF24FF92E822BB
:10AEB800900D41120AEC12C416EF4E7002FF22A246
:10AEC800E8E433900D441289EDFFC2AE900E16E40B
:10AED80075F0011207E2FC746625F0F582740E3CE9
:10AEE800F583E0FE900D41120ACCEE1206FBE490C9
:10AEF8000E16128A0EEF24FF92AE900D44E024FF46
:05AF080092E87F012228
:10C94200E4FF900E1DE070010F902515E020E50236
:03C952007F012240
:10B22200900DC8120AEC902511E030E1037F132241
:10B23200EDD3941040037F1422902515E030E5F9F8
:10B24200E4FFEFC39D5022A2AFE433900DCBF0C2D6
:10B25200AF900DC8128A24902510F0E4F583900D6A
:0CB26200CBE024FF92AF0F80D97F0022C8
:10C8F300902515E030E00A1289F5902510128A156B
:04C90300227F00226D
:1090DB001289A5128990EC3350181289901209DE6F
:1090EB001289A5902510742DF0902515E020E50828
:1090FB0080F79025107420F0E47B107A2712897E7C
:10910B00E47B107A27128998902515E030E5F9E475
:10911B007BE87A0312897EE47BE87A0312899890C4
:10912B002515E030E5F97B6412897C7B6412899606
:10913B00902515E030E5F97B0A12897C7B0A1289B0
:10914B0096902515E030E5F9128990EF24309025A3
:10915B0010F0902515E030E5F99025107420F09073
:0D916B002515E030E5F9E47F01FEFDFC2252
:09CC4D00C2AF75D25575D2AA22BE
:0BCC1A00EF6004439201225392FE22BF
:10BB4300E59220E004007F1022EDD3940F4004001F
:10BB53007F1122A2AFE433FEC2AFEF600C12CC4FD1
:10BB6300ED540F4440F5D2800612CC4F75D280AF0E
:09BB730006EE24FF92AF7F0022D0
:10C1FF0090FFFF120C0BA2AFE433850D83850E82E7
:10C20F00F012CC4D43D240850D83850E82E024FF82
:08C21F0092AF900001020C0B2C
:10C00400A2AFE433FCC2AFEF4E600E9012A8EEF084
:10C01400A3EFF07D0F7F018009E49012A8F0A3F054
:0DC02400FDFF12BB43AF04EC24FF92AF22DE
:10C83100EFD3940F4004007F112212CC4DEF540F1F
:07C84100F5D243920180FED5
:10B71F00900D41120AEC7F007E10E4900D44F0FD75
:10B72F00EF2DF582E43EF583E493FC900D44E02C7D
:10B73F00F0900D41120ACC8D82758300EC12070D2B
:10B74F000DEDB440DB900D44E070037F01227F00CC
:01B75F0022C7
:041894004112B80045
:10C90700F0C2AF9027A6E04480F0E4F583D2AF9061
:04C9170012B8F02240
:0BCC2500EF6004439940225399BF22A6
:109B1000E59920E604007F1022E49012B8F0902727
:109B2000AA04F09027A974A5F0EB600D9027ACE48F
:109B3000F09027AB748CF080109027AAE09027ACAF
:109B4000F09027A9E09027ABF09027B2E4F090279F
:109B5000B17464F09027AF745AF0A374B4F09027F6
:109B6000ADF0A3745AF090127DE09027A2F09027F8
:109B7000A6742FF0ED600543F901800353F9FEEF61
:0D9B8000600543E901800353E9FE7F0022E8
:10BBED00E59920E604007F10229027A4EFF090271E
:10BBFD00A77408F0A3742912C9077F12FDFC9012D7
:10BC0D00B8E06004E4FF800B0DBD00010CBC75EEC7
:08BC1D00BD30EBEF60010022D5
:10BD9E00E59920E604007F10229027A77406F0A3F1
:10BDAE000412C9077F11FDFC9012B8E06004E4FF95
:10BDBE00800B0DBD00010CBC75EEBD30EBEF6001CC
:02BDCE00002251
:10BE01000A0D2045564B203A204C49422056322EED
:10BE110035000000000000000000000000000000EC
:10BE21000000000000000000000000000000000011
:10917800A37429F004F004F07429F004F004F074E6
:1091880029F004F004F022900D1F7412F0A3740368
:10919800F0A32274039022CFF09022CE22900D1FCC
:1091A8007413F0E4A3F0A322F0A3F0A3F0A3F0A3B8
:1091B800F0A3F022900D1F7413F0A37401F0A32202
:1091C80074029022CFF09022CE22F090224974634C
:1091D800F0A37455F0229022B0E04401F0E4FEFFC1
:1091E80022F07464A3F0A37404F02274C0F0A37492
:1091F80070F090223C7490F02224A69022BFF09048
:0D92080022BEE4F022A3F0A37450F0A322D4
:109B8D00EFD394054025902232743AF0A37434F04B
:109B9D009022381291F39022427411F09022457464
:109BAD001E1291D290224D7426804C902232744A0E
:109BBD00F0A37416F090224214F09022457423F015
:109BCD00EFC39405902238401A1291F390224974F4
:109BDD0021F0A304F090224D04F0A37499F0A37426
:109BED0007F0227450F0A374B0F090223C74501220
:0B9BFD0091D290224D74121291E922C7
:107DE00090278074F6F0A37423F09022B07440F0D2
:107DF0009022C67480F09022C274B0F09022117468
:107E000002F090220C7405F09022207480F0A3E41C
:107E1000F0A37485F09022B97402F0A37463F0901B
:107E200022B774CFF0A3E4F09022C8745FF0A3747B
:107E300009F0EF30E0047E0E80027EA29022CAEEAE
:107E4000F074081291ECA3E4F0740B12919D740F7E
:107E5000F0902230744AF0902232F0A37416F0EFC2
:107E600030E0047E4B80027E4D902235EEF0EF3004
:107E7000E0047FC680027FCD902236EFF0745C1262
:107E8000920D74B0F090223B7450F0A3F090224019
:107E90007420F0A3F0A37415F0A37410F0A3F0A362
:107EA00074231291D2A374E1F090224D74121291B6
:0E7EB000E990221D7485F09022E1746EF0229C
:10AD0400AE07EE6003B4010790222174018010EEB7
:10AD1400902221B40208E4F0A374E5F08006E4F084
:10AD2400A37485F0AF06129B8DEED39405400D906D
:10AD340022197410F09022CA74D5F022EEC394053F
:10AD4400902219400A7410F09022CA74AAF022E4E6
:08AD5400F09022CA74A2F02263
:10573C00E4900D1EF0EF8EF0120BA4578B096557F9
:10574C0094096A579D096F57A6097457AF09795781
:10575C00B8097E57C1098357CA098857D3098D5791
:10576C00DB099257E3099757EB099C57F309A157AB
:10577C00FB09A6580309AB580B09B00000581312CB
:10578C00918F7428F002581912918F7450F00258AE
:10579C001912918F7478F002581912918F74A0F02D
:1057AC0002581912918F74C8F002581912918F7403
:1057BC00F0F00258191291A57418F00258191291B0
:1057CC00A57440F00258191291A57468F0803E122D
:1057DC0091A57490F080361291A574B8F0802E12B9
:1057EC0091A574E0F080261291BC7408F0801E1212
:1057FC0091BC7430F080161291BC7458F0800E126B
:10580C0091BC7480F08006900D1E7417F0900D1EE4
:10581C00E0FF6001229022BE74C0F09022B47401AB
:10582C00F0900D1FE09022B1F0900D20E09022B28C
:10583C00F0900D21E09022B3F09022B0E04401F002
:10584C00900D1E7414F0E4FFFE9022BDE030E007D2
:10585C00E4900D1EF0800B0FBF00010EBE27EABFB7
:10586C0010E7900D1EE0601C1291DE9022BDE0301E
:10587C00E007E4900D1EF0800B0FBF00010EBE2759
:09588C00EABF10E7900D1EE0FFD9
:0158950022F0
:085B2300901296EEF0A3EFF0E2
:105B2B00C3945AEE94094010901296E0FCA3E0FD4A
:105B3B00D394CBEC940940037F11229012987417E5
:105B4B00F0ED8CF0120BA45B9609655B98096A5B10
:105B5B009F096F5BA609745BAD09795BB4097E5B2A
:105B6B00BB09835BC209885BC9098D5BD009925B5A
:105B7B00D709975BDE099C5BE509A15BEC09A65B8A
:105B8B00F309AB5BF309B000005BFE80009022C20F
:105B9B0074D280599022C274D180529022C274D197
:105BAB00804B9022C274D180449022C274D0803D2D
:105BBB009022C274D080369022C274D0802F902253
:105BCB00C274D080289022C274CF80219022C274DC
:105BDB00CF801A9022C274CE80139022C274CE80D2
:105BEB000C9022C274CE80059022C274CDF0E4904A
:105BFB001298F0901298E0FF6001229022B0E044DE
:105C0B0002F0901296A3E01292019012987414F085
:105C1B00E4FFFE9022BDE030E007E4901298F080A4
:105C2B000B0FBF00010EBE27EABF10E7901298E0E2
:105C3B00601C1291DE9022BDE030E007E4901298D8
:105C4B00F0800B0FBF00010EBE27EABF10E79012CA
:035C5B0098E0FFCF
:015C5E002223
:10880F00C3EF9465EE94094009D3EF94B0EE940949
:10881F0040037F1122C3EF94B0EE940940059022DC
:10882F00C28033C3EF949CEE940940089022C27427
:10883F00B3F08025C3EF947EEE940940089022C2D6
:10884F0074B4F08014C3EF9465EE94099022C24083
:10885F000574B5F0800374B2F0D3EF947EEE9409F3
:10886F009022B950057422F080037402F09022B068
:10887F00E04402F0EF1292017D14FFFE9022BDE062
:10888F0030E004E4FD800B0FBF00010EBE27EDBFEB
:10889F0010EAED60191291DE9022BDE030E004E4A1
:1088AF00FD800B0FBF00010EBE27EDBF10EAE4FEE7
:0888BF00FF600312573CAF05F6
:0188C700228E
:0CCB30009022BFE0245AFFE43409FE22EA
:105E9900EF120B7E5EE6005EED015EFA025F030320
:105EA9005F0A045F11055F18065F1F075F26085F19
:105EB90033095F3A0A5F470B5F4E0C5F550D5F620E
:105EC9000E5F6E0F5F75105F82115F88125F8F130F
:105ED9005F96145F9D155FA91600005FB29022CFEF
:105EE900740B80059022CF7404F09022CE740FF0C9
:105EF9002274051291CA740BF02212919B740AF054
:105F0900221291C87409F02212919B7407F022128F
:105F1900919B7406F0229022CF740380059022CFC2
:105F29007401F09022CE7405F0221291C87404F025
:105F3900229022CF7407F09022CE7403F02290228F
:105F4900CF740280199022CF740C80059022CF74EF
:105F590004F09022CE7402F0229022CF7401F090C6
:105F690022CE04F0229022CF741F80059022CF7494
:105F79000FF09022CE7401F0221291C814F02290F1
:105F890022CF7401801E9022CF741F800C9022CFE3
:105F9900740880059022CF7401F09022CEE4F0229B
:0A5FA9009022CFE4F09022CEF02207
:10A48500EFB401079022707424F022EF6402600596
:10A49500EF6403703990278074FEF09022197401DF
:10A4A500F09022707427F0902280E030E0F990223D
:10A4B500807423F0A37407F0EF902270B403057441
:10A4C50077F080037422F09022817460F022902747
:10A4D5008074F6F0902219E4F09022807480F0A345
:0AA4E500746CF09022707480F02275
:10C91B00EF9022926008740EF0A37402F02274015F
:04C92B00F0A3F02263
:08CC8600902290E054C0F0225E
:10A4EF00EF30E00C902720E41291B0A31291B0222C
:10A4FF00EF90272030E7297404F0A374E2F0A374DF
:10A50F0004F0A374E2F0A37414F0A37410F0A3E4A6
:10A51F00F074FA12920DF0A374A0F0A37464F022F9
:10A52F007402F0A37471F0A37402F0A37471F0A31A
:10A53F00740AF0A37408F0A3E4F0A3747CF0A3747E
:09A54F0028F012920D7432F02282
:1076A800902785E090228230E272E4F0000000002A
:1076B8000000000012917800000000000000007433
:1076C80029F0000000000000000000000000000099
:1076D80000000000000000000000000000000000A2
:1076E8000000000000000000000000000000000092
:1076F8000000000000000000000000000000000082
:107708000000000000000000000000000000000071
:10771800000000000000000000008010E4F00000FD
:107728000000129178000000007429F000000000A9
:107738000000000000000000000000000000000041
:107748000000000000000000000000000000000031
:107758000000000000000000000000000000000021
:107768000000000000000000000000000000000011
:107778000000000000000000000000000000000001
:0D778800000000007440F090228214F022F6
:050006007EBE7F012217
:1035AD002023232045413D302C20496E74657272D5
:1035BD007570742044697361626C65642023230007
:1035CD002023232055415254303A496E746572724E
:1035DD007570742044697361626C656420232300E7
:1035ED002023232055415254313A496E746572722D
:1035FD007570742044697361626C656420232300C7
:10360D00202323205541525430203A20496E7465B1
:10361D0072727570742044697361626C65642023E5
:10362D002300202323205541525431203A20496E46
:10363D00746572727570742044697361626C65642F
:10364D00202323000A002025303278000A205B4D0C
:10365D0049425D000A204368616E3D25752028258D
:10366D0075204D487A292C2000202050616E494448
:10367D003D307825303478000A2053686F727441DC
:10368D006464723D30782530347800203A494545E0
:10369D00454164647228307E37293D3078000A2018
:1036AD0044737453686F7274416464723D3078254D
:1036BD0030347800203A447374494545454164647B
:1036CD007228307E37293D3078000A2044617461BC
:1036DD00526174653D3078253032782C2000203AC7
:1036ED0054785077724C6576656C3D307825303264
:1036FD00782C200020204E6F41636B5265747279D7
:10370D003D257500203A4261636B6F6666526574A4
:10371D0072793D2575000A205B52582D4D41432D80
:10372D00504B545D000A2044534E3D3078253032C5
:10373D00782C204F4F423D30782530327800203A9A
:10374D0064426D3D256400203A436F72723D2564DD
:10375D00000A204473742E204D6F64653D25303270
:10376D007800203A50616E49443D307825303478E8
:10377D0000203A53686F7274416464723D3078254D
:10378D0030347800203A4945454528307E37293D6B
:10379D003078000A205372632E204D6F64653D25ED
:1037AD00303278000A204D534455204C656E3D252E
:1037BD00303275203A2000203A4D534455203D00BB
:1037CD000A203D3D3D2048494220446973706C619B
:1037DD0079203D3D3D000A20494545452041444461
:1037ED0052284C53427E4D534229203A000A204321
:1037FD00686970496E646578203D203078253032D7
:10380D00780020284D4732343030290020284D478C
:10381D0032343558290020284D47323437302900AD
:10382D0020284D4732343630290020284D47323478
:10383D00313029002028556E636C61737369666998
:10384D00656429000A204368616E6E656C20202036
:10385D003D20257520282575204D487A29000A2000
:10386D00537461636B49442020203D20307825300E
:10387D003278000A205478506F7765722020203DF1
:10388D00203078253032780020202020446174616A
:10389D005261746520203D20307825303278000A41
:1038AD002050616E494420202020203D2030782575
:1038BD00303278253032780020204E776B416464A9
:1038CD007220203D20307825303278253032780036
:1038DD000A205365634C6576656C20203D20307859
:1038ED00253032780020202020507265436F6E669F
:1038FD006967203D20307825303278000A204E57F8
:10390D004B204B657920284C53427E4D5342292044
:10391D003A000A205265736572765F30284C534227
:10392D007E4D534229203A000A204550494420201B
:10393D002020284C53427E4D534229203A000A2024
:10394D005265736572765F31284C53427E4D5342FA
:10395D0029203A000A2047656E6572616C576F72B7
:10396D006430203D20307825303278253032780093
:10397D000A2047656E6572616C576F726431203D28
:0C398D0020307825303278253032780068
:101898004210A000004210A200004210A400004222
:0918A80010A600004210A8000087
:1042A3001208A790112E120A5F90112E120A539032
:1042B300112BE075F064A4FFAEF0E4FCFD1208A737
:1042C30090112E120A5F90112E120A5375F00A9064
:1042D300112AE0A4FFAEF0E4FCFD1208A790112E12
:1042E300120A5F90112E22120ACC9000191206AC0A
:1042F300FFE4900D5AF0A3EFF07BFF229000011230
:104303000823FF900DD3120ACC900DD9E0FDF5825E
:10431300758300EF12070D900DD0120ACC900001A7
:10432300120823E5F0FFED2401FDE433FC900DD3E7
:10433300020ACC8D828C83EF12070D900DD0020AF6
:10434300CCF9E43AFAE4900D53F07D08FC22900D89
:10435300D9E0F582758300ED12070DEEFF900DD9BC
:10436300E0F58275830022901299120ACC90000422
:10437300120823FF900D5AE5F0229011F2120ACC95
:104383001207F8FFE5F0C4F854F0C868FEEFC45410
:104393000F48FFEE8FF012085B9011F7E0229011A7
:1043A3002AE0901129F090112BE090112AF090113E
:1043B3002CE090112BF090112DE090112CF0E4A340
:1043C300F0901128E014F02290112BE0FF7E007C86
:1043D300037DE812072FE4FCFD221206ACFF900DCB
:1043E3005AE4F0A3EFF022120A47E47B107A27F98C
:1043F300F80208B490129C120ACC9000080206AC92
:10440300FFFD900D5AE4F0A3EDF07E007C007D05E6
:1044130012072FEF242EFFEE3409A32274852FF504
:1044230082E4340DF583229011F9120ACC0206932B
:10443300120A53901129E0FFE4FCFDFE22E9240156
:10444300F9E43AFA020693120AEC7BFF7A367951C1
:104453007F0122901299120ACC9000020206AC8DC1
:10446300828C83EF12070D900DD9221206ACFF90B8
:104473000D5CE422E475F0010207CCC4540F12066C
:10448300FB9011FEE022EF24D0901126F09011282A
:10449300E0C3940422120A53901126E0FF3395E0FF
:1044A300FEFDFC22900DC5E0FFC3944022F0E4F52D
:1044B30083900DCEE024FF92AF2290000C0206AC55
:1044C30090000B0206AC901299020ACCEFF0A312F3
:1044D3000AECE4222402FFE433FEE92FF9EA3E2248
:1044E300120A53901129E075F00A22900DD9E07E4B
:1044F3000029F9EE3A22FF900DD6020ACC900DC5A1
:0D450300E004F0229011F2120ACC0207F839
:10C45C00900DC6EFF0902501E0900DC630E105E09F
:10C46C00FF02ACACE0A3F07B017A0D79C77D011221
:03C47C00B1D62214
:10C1340090127E120AEC902501E090127E30E00805
:10C14400120ACC12AF628006120ACC12C8DF901217
:09C1540081EFF0901281E0FF225E
:10C47F00900DC6EFF0902511E0900DC630E105E06C
:10C48F00FF02AC53E0A3F07B017A0D79C77D011257
:03C49F00B22222A4
:10C15D00901282120AEC902511E090128230E008C4
:10C16D00120ACC12AEB88006120ACC12C8F3901285
:09C17D0085EFF0901285E0FF222D
:109FBE00900DCA120AECA2AFE433900DCEF0C2AFF0
:109FCE00902500740AF0740DF0902510740AF07448
:109FDE000D1244B0902505E030E5F9902515E030DE
:109FEE00E5F9E4900DCDF0900DCA120ACC12C8CA54
:109FFE00900DCDE0C39FE49E5029A2AFE433A3F0B1
:10A00E00C2AF900DCA120ACC900DCD124363120648
:10A01E00AC902500F09025101244B0900DCDE004C8
:04A02E00F080C422D8
:109E5E00900DC6EFF020AF3D7BFF7A3579AD129EA7
:109E6E00CC900DC6E0700B20AC087BFF7A3579CD17
:109E7E008010900DC6E0B4010C20AE097BFF7A3540
:109E8E0079ED129ECCC2AF75D25575D2AA75D20A93
:109E9E0043920180FE900DC6E0700B20AC087BFF54
:109EAE007A36790D8010900DC6E0B4011020AE0DFB
:109EBE007BFF7A36792FA3120AEC129FBE22A312D1
:069ECE000AEC129FBE2207
:108CF300900D57120AEC900D56EFF0129E5EE49021
:108D03000DC5F01244A7500A12441FE4F0124500A7
:108D130080F17B017A0D795A900D82120AEC900D45
:108D230057120ACC900DC6120AEC900D82120ACC8F
:108D3300900DC9120AEC7B017A0D798512B34E901E
:108D43000D56E030E02BE4900DC5F01244A7504CD3
:108D530012441FE0FF604512C47F900DC5E02485D7
:108D6300124422E0B40A057F0D12C47F124500802D
:108D7300DAE4900DC5F01244A7502112441FE0FF1E
:108D8300601A12C45C900DC5E02485124422E0B43D
:0D8D93000A057F0D12C45C12450080DA2233
:107018009011F11244CF9011F7F0F5F012085B7F50
:10702800107E2712C0049011F1E030E04C7B017A09
:107038001179F612C15DEF60E61270FC60129011D2
:10704800F7E0640460D99011F6E0FF12C47F804A2B
:107058009011F6E064087018A3E060147F0812C469
:107068007F7F2012C47F7F0812C47F12437D14F0F3
:107078009011F6E0640D70A7227B017A1179F6125F
:10708800C134EF609A1270FC603E9011F7E064041E
:10709800608D9011F6E0FF12C45C124507C4F854E5
:1070A8000FC868FFE5F0C454F0488FF012085B126F
:1070B8004507FF9011F5E0FD3395E045F0FEEF4DF3
:1070C80012439504F00270279011F6E064087018D6
:1070D800A3E060147F0812C45C7F2012C45C7F08A0
:1070E80012C45C12437D14F09011F6E0640D600345
:1070F800027027229011F6E0FF12C29D9011F5EF61
:03710800F0F4227E
:107B3B009011F81244CF9011FEF01206FB7F107ECD
:107B4B002712C0049011F8E030E04F7B017A1179D5
:107B5B00FD12C15DEF60E6127C0F60129011FEE02A
:107B6B00640260D99011FDE0FF12C47F804D90112B
:107B7B00FDE06408701BA3E060177F0812C47F7FD1
:107B8B002012C47F7F0812C47F12442A12447E1431
:107B9B00F09011FDE0640D70A4227B017A1179FD48
:107BAB0012C134EF6097127C0F602A9011FEE064D3
:107BBB0002608A9011FDE0FF12C45C12442AC45487
:107BCB00F01206FB12442AFF9011FCE04F12448185
:107BDB0004F0027B489011FDE06408701BA3E06089
:107BEB00177F0812C45C7F2012C45C7F0812C45C30
:107BFB0012442A12447E14F09011FDE0640D6003D0
:107C0B00027B48229011FDE0FF12C29D9011FCEF08
:037C1B00F0F42260
:1049B1009011221244CF901128F0F5F012085BE417
:1049C100901129F0A3F0A3F0A3F0A3F07F107E27AC
:1049D10012C004901122E020E003024AAC7B017A6C
:1049E10011792712C15DEF60E3901127E0FFC394B5
:1049F10030405BEFD3943950551244895003024A39
:104A010049901128E0640470C390112C12443912AA
:104A110042E01243EA1242E0120A53C0001243CBB1
:104A2100D0001242DD120A5375F0641242D21244D0
:104A3100E31242D61244981242DD120A47E4FEED17
:104A41004C7089901127E0FF12C47F024B30901106
:104A510027E064087016A3E060127F0812C47F7F0C
:104A61002012C47F7F0812C47F1243A1901127E056
:104A7100640D60030249CD90112D124439A31242F5
:104A8100E31243EA1242E0120A53C00090112C12C1
:104A910043CED0001242A31244331242DD120A4720
:104AA100E4FFFEED4C600122024BB37B017A1179E8
:104AB1002712C134EF70030249CD901127E0FFC3E3
:104AC10094305003024B59EFD394394003024B59B0
:104AD100124489500612C45C024B30901128E064E4
:104AE1000460030249CD90112C1244391242E012A4
:104AF10043EA1242E0120A53C0001243CBD0001223
:104B010042DD120A5390112AE075F0641242D61266
:104B110044E31242D61244981242DD120A47E4FEDF
:104B2100ED4C60030249CD901127E0FF12C45C9067
:104B3100112CE0A3F090112BE0A3F090112AE0A337
:104B4100F0901129E0A3F0901126E0901129F09046
:104B51001128E004F00249CD901127E06408701695
:104B6100A3E060127F0812C45C7F2012C45C7F083E
:104B710012C45C1243A1901127E0640D6003024945
:104B8100CD90112D124439A31242E31243EA12428D
:104B9100E0120A53C00090112C1243CED0001242F1
:104BA100A31244331242DD120A47E4FFFEED4C60CA
:104BB100012290112E120A47901123120ACCEE8F76
:074BC100F012085B7F0122E6
:10B9E000A2A9E433FEC2A9EF70059010A08022EF57
:10B9F000B401059010A28019EFB402059010A48044
:10BA000010EFB403059010A68007EFB4040890105F
:0EBA1000A8ECF0A3EDF0AF06EE24FF92A92201
:10BE3100EF70059010A08019EFB401059010A28059
:10BE410010EFB402059010A48007EFB4030A90101C
:10BE5100A6E0FCA3E0FD8003E4FCFDAF05AE0422F7
:10400700900DD0120AEC120693FF64026004EFB41D
:10401700032012433E900001120823FF901083E013
:10402700B5F00DA3E0B50708900DDA7401F080072D
:104037008000E4900DDAF012433074011206FB128F
:10404700433E1244BD30E00B124330120693442026
:104057001206FB900DDAE0600B1243301206934410
:10406700401206FB12433E1244BD5430C4540FFFA6
:10407700124330900001EF12070DE92401F9E43AE9
:10408700FAC003C002C001120693FF12433E124456
:10409700BD54C01313543F4FD001D002D0031206B2
:1040A700FB12433E120693FF6027EFB4020A124346
:1040B700301244404408801112433E120693B40361
:1040C7000D124330124440440C1206FB80037FE874
:1040D7002212433E1244C3FF6027EFB4020A124381
:1040E700301244404480801112433E1244C3B4034B
:1040F7000D12433012444044C01206FB80037FE890
:104107002290109DE004FFF0124330900002124409
:10411700667403F012433E1206936402703512422E
:10412700FF124336900003120823FF900DD9E024B5
:104137000212432C124336900003120823E5F0FFC6
:10414700900DD9E0240312432C124462E02404F0BA
:1041570002418E12433E1206936403702A12433EB5
:104167001242FF124462E01244D7FEAF0112433EEF
:10417700E92403F9E43AFCAD017B087A0012A34273
:10418700900DD9E0240AF012433E1244C364027032
:1041970054900DDAE06019901085E0FEA3E0FD125F
:1041A7004330124351A3124466E02402F00242371F
:1041B700901083E0FEA3E0FD124330124351A3EFBA
:1041C70012070D901085A3E012435FA3A3EF120718
:1041D7000D901085E012435FA3A3A3124466E02469
:1041E70004F002423712433E1244C3640370419005
:1041F7000DDAE0600E1243301244EE1242902408AA
:10420700F0802D901083E0FEA3E0FD1243301243AF
:1042170060ED12070DEEFF900DD9E0FEF582758374
:1042270000A3EF12070DEE1244D7124290240AF0B2
:10423700900DD9E01244F9EF1206FB12433E9000AD
:104247000D1206AC1244F9EF1206D91244FA7402A1
:104257001206D9900DD612442DD3947F40037FE5E3
:10426700221243301244EEFEAF0112433E90000E7D
:10427700120AF5AC02AD0112433E90000D1206ACD6
:10428700FB7A0012A3427F0022FEAF017C107D87DC
:0C4297007B087A0012A342900DD9E022AF
:10A89100E4901036F0EF04900DD3F0ED04A3F0E452
:10A8A100900DD1F0900DD3E0FF900DD1E0C39F50FA
:10A8B1003EE4A3F0900DD4E0FF900DD2E0C39F5091
:10A8C10018128066900DD0EFF064156004E0B4E1D9
:10A8D10008900DD2E004F080DB900DD0E07008A369
:10A8E100E0901036F08008900DD1E004F080B59032
:05A8F1000DD0E0FF2284
:10BA1E00C003C002C0017B017A237901900DD312BD
:10BA2E000AEC7A0D79CF900DD6120AECD001D00225
:10BA3E00D003124007EF7013900DCFE0902300F06B
:0CBA4E0090109EE0FFA3E0FD12A89122E2
:020029000022B3
:10BE61009012AAEEF0A3EFF0E4901076F0A3F09018
:10BE710012AAE0FEA3E0FFC3901077E09F90107636
:10BE8100E09E500B12CA4F90107612447780E02248
:10CA4F00E4901078F0901078E004F0E0B401F62252
:10CA5F00E4901079F0901079E004F0E0B409F62238
:10CA6F00E490107AF090107AE004F0E0B430F622FF
:10CA7F00E490107BF090107BE004F0E0B460F622BD
:10C73600E490107CF0A3F090107C12447790107C6B
:0AC74600E07004A3E0646970EE22C5
:10C75000E490107EF0A3F090107E12447790107E4B
:0AC76000E07004A3E064D270EE2242
:10C54900E4901080F0A3F0C3901081E09F901080D8
:10C55900E09E500B12C75090108012447780E82259
:10A75D00900D4E120AEC900D51ECF0A3EDF0E4903B
:10A76D000D54F0A3F0900D51E0FCA3E0FD900D54BD
:10A77D00E0FEA3E0FFC39DEE9C503B900D53E0FD2A
:10A78D00600F7C00120741ED4C700612444D128C87
:10A79D00F3900D4E120ACC900D54E0FEA3E0F5821D
:10A7AD008E831242F07A3679537F01128CF3900D1D
:07A7BD005412447780AF2223
:107A5400900D4B12444A128CF37A367959127B09F1
:107A64001206931244031242F87A367961127B1794
:107A7400900001120823FFE5F01242F57A36797678
:107A8400127B179000031243731242F87A367985F9
:107A94007F01128CF37A367998127B09E924051256
:107AA400434412A75D900D4B120ACC90000F124371
:107AB400731242F87A3679AB7F01128CF37BFF7A2A
:107AC4003679C1127B23E9241112434412A75D9035
