:10AB0000C00F74ABC0E0C082C083750F0A75A1008E
:10AB10000000000022C00F74ABC0E0C082C083758B
:10AB20000F1F75A1010000000022C00F74ABC0E030
:10AB3000C082C083750F3475A1020000000022C0DE
:10AB40000F74ABC0E0C082C083750F4975A10300CC
:04AB500000000022DF
:0DC75600EF90C75F9390AB00730A1F34494A
:109FB600EB60010A4A601D8C838D8263A2018E8349
:109FC6008F8263A20100E0A363A201F0A363A20152
:109FD600DBF4DAF222C0A275A2010000C082C083BF
:109FE60063A2010000C082C083EB60010A4A601DC3
:109FF6008C838D8263A2018E838F8263A20100E02F
:10A00600A363A201F0A363A201DBF4DAF2D083D04A
:0DA016008263A2010000D083D082D0A2227C
:030000000259D5CD
:1059D5007598007599209022E074D9F090270E747F
:1059E50000F09027027470F09027037400F0E490A3
:1059F5000000F0900000E004F0E0B4C8F690270045
:105A05007480F09027087400F0902709F090272003
:105A1500F0902721F0902722F0902723F09027245B
:105A2500F0902725F0902726F0902727F09027283B
:105A3500F0902729F090272AF090272BF0759900F0
:105A45009022E17400F09022E27490F09022E774C5
:105A5500FFF09022E8F09022E9F09022EAF09022FF
:105A6500EBF09022ECF09022ED7400F09022EEF035
:105A75009022EFF09022F0F09022F1F09022F2F0D7
:105A8500750D18750E00758121C2C112AB0A025A37
:015A9500D13F
:0CC79500016800AA005A002D0015000BDE
:0A1800004212190000421217000006
:10BD6600900D066480F8E064809822900D06E0FE4F
:10BD7600A3E0FFC322900D12120A5F900D12020A71
:0ABD860047120ACC900D0B020AECE4
:0EC71E00902784E054BFF00000E04440F02279
:10A74400EBD394084004007F1222EDD39403500409
:10A75400EDB40104007F1122EF9022E66026E0446C
:10A7640004F0902781E0440CF09022D4E04480F07F
:10A77400E054F04BF0AF05EFC43354E0FFE0549FD6
:10A784004FF08012E054FBF09022D4E0547FF0901C
:09A794002781E054F3F07F00225C
:10BD3C00EFD394035005ED94034004007F1122903F
:10BD4C002786E054FC4FF0AF05EF25E025E0FF908F
:0ABD5C0022D5E054F34FF07F0022DF
:10BC8900ED6005D3940E4004007F1122ED04C454E5
:10BC9900F0FE9022D5E0540F4EF0EF6006E044022A
:0DBCA900F080079022D5E054FDF07F0022CE
:10C13B00A2AFE433FFC2AF9022D7E0FDE0FEEF24C5
:10C14B00FF92AFAF06EFFEEDFF7C007D101207965E
:01C15B0022C1
:10C620009022D6E05478131313541FFF60011F2289
:10B2960074FFF5F012085B7F13E4901211F0A3F02F
:10B2A6009022D6E05470600D12C13BEE8FF012086A
:10B2B6005BE4FF8019901211E475F0011207CCC30C
:10B2C600901212E094D0901211E0940740D2EF60F1
:03B2D60001002252
:10995E00AA05EBD394084004007F1222EAD39403A5
:10996E004004007F1122EF60557D02E4FF12BC8996
:10997E00AF02AD077F0112A744AC07EC704912C7C6
:10998E001E901395E025E02495F582E434C7F58307
:10999E00E493FF740193901213CFF0A3EFF0E4A3BE
:1099AE00F0A3F090121312BD74901216E09F901255
:1099BE0015E09E5012E475F0011207CC80E5E4FB31
:0A99CE00FDFF12A744AC07AF04220E
:10B9E900900D00120AECEFD394084004007F122254
:10B9F900AB07E4FD7F0112995EEF600122900D0013
:10BA0900120ACC12B296EF600122E4FBFDFF1299F3
:04BA19005E7F00222A
:106FEC00900D04EEF0A3EFF0A3ECF0A3EDF0900DF8
:106FFC000AE0FFC3940A4006EFD3940F4004007FCD
:10700C001122900D0412BD74900D07E09FEE12BD7D
:10701C00664004007F142212BD71900D05E09FFFA5
:10702C00900D04E09E900D0EF0A3EFF0D3900D07A1
:10703C00E09BEA12BD664009E4900D10F0A3F080CD
:10704C0029C3900D05E09BEA900D0412BD69500B0D
:10705C00900D0EE0FFA3E0A3CF800B12BD71EB9F50
:10706C00FFEA9E900D10F0A3EFF0900D0AE0FF7474
:10707C00017E00A807088005C333CE33CED8F9248F
:10708C00FFFFEE34FFFEE4FCFD900D12120A5F9040
:10709C000D10E0FEA3E0FFE4FCFDA3120A5312085E
:1070AC00B412BD7BC006C007900D0EE0FEA3E0FB42
:1070BC00AA06E4F9F8D007D00612093F12BD7BEE00
:1070CC00547FFE900D0B120ACCEE8FF012085B7FF2
:0270DC00002290
:0CC77D007B017A1279197F0712B9E922BA
:0CC789007B017A1279177F0812B9E922AF
:10A8FE00900CFF120AEC900CFEEFF0C3940A400687
:10A90E00E0D3940F4004007F11227B017A0D79026F
:10A91E0012B296EF600122901219E0FEA3E0FF90B2
:10A92E001217E0FCA3E0FD900CFEE0900D0AF090F3
:10A93E000CFF12BD87900D02E0FAA3E0FB126FEC44
:07A94E00EF6001227F0022EF
:109542009011FCEDF0A3120AEC9011FBEFF0D39412
:10955200084004007F12229011FCE0FFC3940A40ED
:1095620006EFD3940F4004007F11227B017A127917
:10957200027F0712B9E9EF6001227B017A127900BA
:109582007F0812B9E9EF6001229011FBE0FF7B0135
:109592007A12790412B9E9EF600122901202E0FE18
:1095A200A3E0FF901200E0FCA3E0FD9011FCE0902C
:1095B2000D0AF09011FD12BD87901204E0FAA3E0AB
:0B95C200FB126FECEF6001227F002223
:04180A0041139500F1
:10A9AC00E4FDEF1460141460151460161460171491
:10A9BC006018240570187E088016E4FE80127E2034
:10A9CC00800E7E40800A7E6080067E0C80027D12A6
:10A9DC00ED600300FF22901395EFF0538E10EE42C2
:10A9EC008EE58E90278530E306E04404F08004E089
:06A9FC0054FBF07F002275
:030026008F98228E
:03002E008F992285
:030036008F9A227C
:08180E0041137F00411380002B
:10C4BC00A2AFE433FEC2AFEB9022EF22AF06EE2424
:06C4CC00FF92AF7F002289
:10B3DE00E5B420E204007F102212C4BC30E106E086
:10B3EE004404F08004E054FBF0EB30E003D3800122
:10B3FE00C39288ED24FF92B8EF24FF92A89022F218
:10B40E00E030A8054404F0800354FBF012C4C822B7
:10B41E00E5B420E304007F112212C4BC30E106E043
:10B42E004408F08004E054F7F0EB30E003D38001E1
:10B43E00C3928AED24FF92BAEF24FF92AA9022F2D1
:10B44E00E030AA054408F0800354F7F012C4C82275
:041816004113968064
:1072BD00E0FEA3E0FFF5828E83A3A31206AC902718
:1072CD0005F08F828E83A3A3A31206AC902704F042
:1072DD00901396E04401902700F022F0901342E0C5
:1072ED00F58A901340E0F58C22E0FEA3E0FFF582D5
:1072FD008E831206AC902707F08F828E83A3120621
:10730D00AC902706F022FFE0FAA3E02DF582EA3CCF
:10731D00F583E4936F22900D05E475F0010207CC1F
:10732D00900D03E0FEA3E0A3FFE0FCA3E0FDC39FEF
:10733D00EC9E229027007480F09027027470F0A3C9
:10734D00E4F0902708F0A3F07F0122E0FEA3E09087
:10735D002703F0EE902702F022FFEEF0A3EFF043AB
:10736D00992090270EE4F0901395E0229027097450
:10737D0001F0902708E4F022120ACC8D828C830252
:10738D0006ACEEF0A3EFF0EE54014F22CFF0A3EFD9
:0D739D00F0E422900D09120A5F900D092204
:06C90D00E4901396F022F5
:07C8FF009013967480F022F3
:10B86A0090270EE4F090270DE020E0F90000000098
:10B87A00EF12735C902708E4F0A304F0901396E0AB
:10B88A004402902700F00000000090270DE020E01D
:08B89A00F99027007480F022F0
:100E7F00900D4C120AEC900D4A12738F6004007F94
:100E8F001422900D4AE0FEA3E07802CEC313CE13D6
:100E9F00D8F9900D5612736670047F808002E4FFBC
:100EAF0012A163901396E0701D902700E06480708C
:100EBF0015902708E0700FA3E0700B902702E0B4A5
:100ECF007004A3E06009900D587413F0020FE4E46E
:100EDF00FF12AFD1E4900D5DF012BE5B900D56E0A6
:100EEF00FEA3E0FF12B86A900D4FE030E00AE490E5
:100EFF000D581272E8020FE490270DE020E0F9126E
:100F0F007379900D50F0A3F0900D56E0FFA3E09091
:100F1F000D54CFF0A3EFF0900D52E4F0A37480F0D6
:100F2F0012BE5B900D54127358900D4C120ACC9058
:100F3F000D501272F6900D501272BD00000000900D
:100F4F000D50E475F0041207CC900D5412732690D7
:100F5F000D5274FFF5F01207CC900D52E07002A302
:100F6F00E070BD90270DE020E0F91272E9900D4A74
:100F7F00E0FFA3E0900D59127399900D58F0900D6A
:100F8F005BF0A3F0900D5BE0FEA3E0FFC3EE9402D5
:100F9F00502E900D4C120ACC8F828E831206ACFF0E
:100FAF00900D5BE0FCA3E0FD900D591273146008E7
:100FBF00900D587415F08008900D5B12732680C445
:100FCF00900D58E0600F900D5DE004F0E0C39404C5
:100FDF005003020EE812734012A1635399DF7F0191
:0C0FEF0012AFD1900D58E0FF600100220D
:1052BB0090119F120AEC90119D12738F6004007F66
:1052CB00142290119DE0FEA3E07802CEC313CE13FF
:1052DB00D8F99011AA12736670047F808002E4FFE4
:1052EB0012A163901396E0701D902700E06480700C
:1052FB0015902708E0700FA3E0700B902702E0B425
:10530B007004A3E060099011AC7413F0025438E4FC
:10531B00FF12AFD1E49011B1F012BE5B9011AAE075
:10532B00FEA3E0FF12B86A9011A2E07002A3E07036
:10533B00099011AC1272E802543890270DE020E06E
:10534B00F91273799011A4F0A3F09011AAE0FFA3C6
:10535B00E09011A8CFF0A3EFF09011A2E0FCA3E036
:10536B00FDAE047802CEC313CE13D8F9FF9011A66D
:10537B00EEF0A3EFF0ED5403600A9011A6E475F084
:10538B00010253CF9011A6E07002A3E0603C12BE65
:10539B005B9011A812735890119F120ACC9011A414
:1053AB001272F69011A41272BD000000009011A4AD
:1053BB00E475F0041207CC9011A81273269011A675
:1053CB0074FFF5F01207CC02538F90270DE020E00D
:1053DB00F91272E990119DE0FFA3E09011AD1273E9
:1053EB00999011ACF09011AFF0A3F09011A2E0FEE8
:1053FB00A3E09011AF127335501E90119F1273855D
:10540B009011AD12731360089011AC7415F08008F5
:10541B009011AF12732680D39011ACE0600F9011F6
:10542B00B1E004F0E0C39404500302532412734020
:10543B0012A1635399DF7F0112AFD19011ACE0FF42
:04544B0060010022DA
:10819100900CFEEEF0A3EFF0A3120AEC900CFEE0BF
:1081A100FEA3E0FFE4FCFD1273A0120A53900D043C
:1081B100E024FFFF900D03E034FFFEE4FCFD120814
:1081C100A71273A0120A47ED4C6004007F1222E44B
:1081D100900D08F0900CFEE0FFA3E0900D0D1273DE
:1081E10099900D07F0E4900D05F0A3F012732D5056
:1081F10029900D0DE0FEA3E02DF582EE3CF583E420
:1082010093FF900D00120ACC900D05A3E0F5828C2E
:1082110083EF12070D12732380D2E4900D05F0A3B2
:10822100F012732D501B900D00127385900D0D12DD
:1082310073136008900D087416F080051273238083
:10824100E0900D08E0600B900D07E004F0E064049D
:088251007093900D08E0FF227C
:10C4D200AF04E0FDA3E0FB12BF20EF22EDF0A3EBDF
:06C4E200F0AC07E5982212
:0BC7C500EF6004439810225398EF220D
:10BF2000EFD394074008EF640A60037F1222ED60AC
:10BF300009EBD39401400C7F1122EBD39402400310
:06BF40007F11227F0022A8
:10831800900CFE12C4DE20E404007F1022900CFEB4
:1083280012C4D260020022EC120B7E8352008358E2
:1083380001835E02836403836A048370058376067F
:10834800837C0783820A000083867E0179FE802E63
:108358007E0279FD80287E0479FB80227E0879F7E9
:10836800801C7E1079EF80167E2079DF80107E4099
:1083780079BF800A7E80797F80047EFFE4F9900CC3
:10838800FEE06019E952B19022EAE059F0900CFF42
:10839800E06005EE42C18032E952C1802D900CFFA9
:1083A800E0FF700E9022EAE04EF09022E7E04EF0F7
:1083B8008012EF9022EAB40108E04EF09022E780A4
:0D83C80000E059F0EE42B1EE42B97F002214
:1083D500900CFE12C4DE20E404007F1022900CFEF7
:1083E50012C4D260020022EC120B7E840F008415A9
:1083F50001841B02842103842704842D058433060C
:10840500843907843F0A000084437E0179FE802E6B
:108415007E0279FD80287E0479FB80227E0879F72B
:10842500801C7E1079EF80167E2079DF80107E40DB
:1084350079BF800A7E80797F80047EFFE4F9900C05
:10844500FEE06019E952B29022EBE059F0900CFF82
:10845500E06005EE42C28032E952C2802D900CFFE9
:10846500E0FF700E9022EBE04EF09022E8E04EF037
:108475008012EF9022EBB40108E04EF09022E880E4
:0D84850000E059F0EE42B2EE42BA7F002254
:10825900900CFE12C4DE20E404007F1022AF0490CB
:108269000CFE12C4D460020022EC120B7E8295002F
:10827900829B0182A10282A70382AD0482B3058297
:10828900B90682BF0782C50A000082C97E0179FE4C
:10829900802E7E0279FD80287E0479FB80227E086B
:1082A90079F7801C7E1079EF80167E2079DF8010A7
:1082B9007E4079BF800A7E80797F80047EFFE4F961
:1082C900900CFEE06019E952B49022ECE059F0906C
:1082D9000CFFE06005EE42C48032E952C4802D9063
:1082E9000CFFE0FF700E9022ECE04EF09022E9E0E6
:1082F9004EF08012EF9022ECB40108E04EF090228B
:0F830900E98000E059F0EE42B4EE42BC7F002262
:0C181A0041136400411365004113660097
:08C8C700EDF0A3EBF0E5922275
:04C35E00E0FD7F017E
:10C36200ED600543F904800353F9FBEF600443E9F0
:06C37200042253E9FB2246
:0BC7D000EF6004439202225392FD220E
:108A4D0090132912C8C720E104007F102290132B28
:108A5D00E0D394034004007F2022E4FDEF120B7E4F
:108A6D008A8C008A92018A98028A9E038AA4048ABB
:108A7D00AA058AB0068AB6078ABC0A00008AC2799E
:108A8D00017EFE803279027EFD802C79047EFB8092
:108A9D002679087EF7802079107EEF801A79207E66
:108AAD00DF801479407EBF800E79807E7F800879CB
:108ABD00FFE4FE80027D30ED600300FF229013295C
:108ACD00E0602790132BE0FF30E105E942EA8003D7
:108ADD00EE52EAEF30E005E942EB8003EE52EBE9AE
:108AED0042EC90132A12C35E8003EE52EC7F0022FB
:0BC7DB00EF6004439204225392FB2203
:108AFD0090132D12C8C720E204007F112290132F6E
:108B0D00E0D394034004007F2122E4FDEF120B7E9D
:108B1D008B3C008B42018B48028B4E038B54048B94
:108B2D005A058B60068B66078B6C0A00008B727979
:108B3D00017EFE803279027EFD802C79047EFB80E1
:108B4D002679087EF7802079107EEF801A79207EB5
:108B5D00DF801479407EBF800E79807E7F8008791A
:108B6D00FFE4FE80027D31ED600300FF2290132DA6
:108B7D00E0602790132FE0FF30E105E942F280031A
:108B8D00EE52F2EF30E005E942F38003EE52F3E9E5
:108B9D0042F490132E12C35E8003EE52F47F002236
:0BC7E600EF6004439208225392F722F8
:108D020090133112C8C720E304007F13229013335B
:108D1200E0D394034004007F2322E4FDEF120B7E94
:108D22008D3B008D41018D47048D4D058D53068D80
:108D320059078D5F0A00008D6579017EFE802679D4
:108D4200027EFD802079107EEF801A79207EDF80FE
:108D52001479407EBF800E79807E7F800879FFE49F
:108D6200FE80027D33ED600300FF22901331E0604C
:108D720027901333E0FF30E105E942FA8003EE5217
:108D8200FAEF30E005E942FB8003EE52FBE942FCD8
:0E8D920090133212C35E8003EE52FC7F00226B
:0DC76300F0A3F0EF24FF92AF902190E022B0
:06C91300902191EFF022DB
:10C63000EF9021916005E04402F022E054FDF022E9
:10C64000EF9021916005E04404F022E054FBF022D9
:10C65000EF9021916005E04408F022E054F7F022C9
:10C66000EF9021916005E04410F022E054EFF022B9
:09C8AC00902158EFF0EEA3F022F8
:09C8B50090215AEFF0EEA3F022ED
:0FC70000AC02AD017B087A007F507E21029FB60C
:10C37800A2AFE433FFC2AF902004E4F09020011292
:0AC38800C7634440F0E054BFF02208
:10C39200A2AFE433FFC2AF902084E4F09020811278
:0AC3A200C7634420F0E054DFF022EE
:0BC7F1007F1612C91312C37802C39216
:0C18260041129C004112970041129B00EF
:10901400E5E8F0A3E5E9F0AFA875E902E4F5E87541
:10902400A8809027927483F090279EE0C2AF902787
:1090340093E0E4F583D2AF2290279F7444F0902705
:1090440092E0547FF0E4901297F022120ACC8E82C0
:109054007583001206AC902790F0E4F583D2AF221A
:109064009027927480F022E0547F25E0902791F0BD
:1090740022FEE490129CF0902792E02290125EE08F
:1090840004F0E0C3942022EFF0A3EDF0A3120AEC65
:10909400E422E004F0901297E02212C29990279201
:0A90A400E022E0F5E88FA8AF0522F6
:0BC7FC00EF60044399802253997F22D4
:10A50000E59920E704007F1022901337E0FEC39402
:10A51000125004007F1122EF6041A2AFE433FFC26A
:10A52000AF902794EEF090279674FFF0902795E473
:10A53000F0902793E090279EE0EB90279230E00583
:10A5400074A3F080037483F053F9FDED600343F9C5
:10A550000243E902EF24FF92AF800653E9FD129017
:04A56000647F0022F2
:10C29900E4901295F0A3F0901295E475F00112075D
:0EC2A900CC901295E07004A3E0640A70EA22C3
:1087820090124D12908B901255F0E59920E704005B
:108792007F1022901252E0FE70028006EED3940FF8
:1087A2004004007F1122E4FFFE12BCB69012531265
:1087B200901490124D12906BC2AF90124EE0129034
:1087C2005AFE901252E0FDEEC39D500BC2AF9012C2
:1087D2004F12904F0E80EB12903C901252E0240206
:1087E2001290754470F0E4FD901255129096600458
:1087F2007D12801290129CE06E600B901255E0C3C5
:10880200944040E47D80ED700612909E54EFF0E4B7
:10881200901255F030960320970A901255129083C9
:1088220040F27D80129064901254E0F5E990125368
:048832001290A622D8
:1069210090125612908B90125EF0E59920E70400C8
:106931007F102290125BE0FE70028006EED394106D
:106941004004007F1122E4FFFE12BCB690125C12DB
:10695100901490125612906BC2AF901257E01290A1
:106961005A90125BE0902797F012903C7E021290B1
:1069710077447CF0E4FD90125E12909660047D12E3
:10698100801290129CE06E600B90125EE0C39450F6
:1069910040E47D80ED6014E490125EF030960320B7
:1069A100976B12908040F57D80806212909E54F723
:1069B100F0902791E04401F0E490125EF09012977C
:1069C100E0700E90125EE004F0E0C394E040EE7DD2
:1069D10080E4FE90125BE0FCEEC39C501EC2AF90BF
:1069E1002790E0FC901258120ACC8E82758300EC3D
:1069F10012070DE4F583D2AF0E80D8E490125EF059
:106A010030960320970712908040F57D80129064A4
:0D6A110090125DE0F5E990125C1290A62253
:10899C0090129DEF12908F9012A4F0E59920E704AD
:1089AC00007F10229012A1E0FE70028006EED3949C
:1089BC00104004007F1122E4FFFE12BCB69012A2FC
:1089CC0012901490129D12906BE4FE9012A1E0FD97
:1089DC00EEC39D500BC2AF90129E12904F0E80EBC7
:1089EC0012903C9012A1E0041290754470F0E4FDDA
:1089FC009012A412909660047D12801290129CE04A
:108A0C006E600B9012A4E0C3944040E47D80ED7046
:108A1C000612909E54EFF0E49012A4F030960320CE
:108A2C00970F9012A4E0FE04F0EEC3941040ED7D7D
:108A3C00801290649012A3E0F5E99012A21290A615
:018A4C002207
:10775B00901206EFF0A3120AECE59920E704007FE4
:10776B001022E4FFFE12BCB690120DE5E8F0A3E583
:10777B00E9F0A3E5A8F012901D901206E0547F25C6
:10778B00E04401902791F090120AE0FFD39410404F
:10779B000B9027977410F0EF24F0800990120AE0F9
:1077AB00902797F0E490129BF012903C90129BE084
:1077BB00901210F0E490129CF0901207120ACC90E9
:1077CB001298120AEC902792E04474F0E490120B9A
:1077DB00F0901297E060FAE490120CF0902797E08B
:1077EB00FF90120CE0FEC39F502DC2AF902790E08C
:1077FB00FFEEFD901210E02DFDE433FC901207120A
:10780B000ACC8D828C83EF12070DE4F583D2AF90F7
:10781B00120CE004F080C53096FD3097FA1290649C
:10782B0090120EE0F5E990120DE0F5E890120FE0E2
:08783B00F5A890120BE0FF22FA
:10B0190015660AB30AB2055906B4035A035C01AEB0
:10B0290001C200E10104008201D200E90112008994
:10B0390000B20059008A0045008A0045008A00458F
:10B04900023001180118008C0096004B00460023BD
:08B05900003C001E003C001E3B
:101832004111D0004111CF034111CE004111CD0021
:041842004111CC0084
:10AC470075F002120AC0E493FF7401939011C4CF08
:10AC5700F0A3EFF0E4A3F0A3F0229022007438F001
:10AC67009011CFE025E025E0229011C4E0FEA3E09B
:10AC7700FFC39011C7E09F9011C6E09E229011C6B6
:0EAC8700E475F0010207CC9022007434F02234
:0EC72C00EF30E0047F018002E4FF127CB122B6
:07C90600902200741CF022D6
:108DA000900D28EEF0A3EFF0A3EDF0600B90278379
:108DB000E4F09022D07488F0A2AFE433900D2BF051
:108DC000C2AF90228DE0900D2CF07F1112C8CF9091
:108DD0002200742CF07F13E49011C2F0A3F0900DE8
:108DE00028E0FCA3E0FDC39011C3E09D9011C2E018
:108DF0009C502190228DE020E612A3E05407FE70E3
:108E000003FF8010EEB404047F1280089011C21298
:108E1000AC8780CA90228F74FFF0900D2CE09022D6
:108E20008DF0900D2BE024FF92AF900D2AE06009A9
:0E8E3000EF70069022D07484F0EF60010022F3
:10C5FE007F0A12C8CFE4FD7F0112C1FE7F0102C681
:01C60E0070BB
:1099D800900D1CEFF0BF04028009900D1CE0D39499
:1099E800054004007F182212AC8EE4FF12AFD1901C
:1099F8000D1CE0FF12A84E900D1CE01460161460B8
:109A08001B14602024FE6024240570269022117403
:109A180009F0801E9022117405F0801690221174AE
:109A280003F0800E9022117402F0800690221174C7
:109A380010F0902200743CF07F0112AFD1900D1C01
:089A4800E09011CFF07F002235
:10AD2F00901397EFF012A84E901397E0FF14601650
:10AD3F0014601B14602024FE6024240570269022CA
:10AD4F00117409F0801E9022117405F08016902264
:10AD5F00117403F0800E9022117402F0800690227D
:0CAD6F00117410F09011CFEFF07F002263
:10B78600901398EFF07F031299D8901398E09022C7
:10B79600246013E04440F0902785E04408F09022AE
:10B7A60037E04480F022E0543FF0902785E054F7DC
:09B7B600F0902237E0547FF022EC
:10849200900D1CEFF0C3940B4006E0D3941A4004F5
:1084A200007F172212AC8EE4FF12AFD1900D1CE0B8
:1084B200120B7E84E90B84ED0C84F10D84F50E849D
:1084C200F90F84FD10850111850512850913850DAB
:1084D20014851115851516851917851D18852119FD
:1084E20085251A000085317F65803A7F6A80367F54
:1084F2006F80327F74802E7F79802A7F7E80267FF4
:108502008380227F88801E7F8D801A7F9280167FD3
:108512009780127F9C800E7FA1800A7FA680067FB3
:10852200AB80027FB07E091286C9900D1DEFF090DC
:108532000D1DE06004000284AE902200743CF07FC6
:0D8542000112AFD1900D1DE0FF600100227D
:0FC70F00E4FE902284E0FF70050EEEB4FAF422EF
:08C8CF00EF541F90228DF022AE
:10C41400A2AFE433FEC2AFED24FF92F8EF24FF9203
:09C42400E8AF06EF24FF92AF22FD
:10AFD100EF603D90228EE054F7F0E04408F0759167
:10AFE10010A2AFE433FFC2AF902084E4F09020813F
:10AFF100F0A3F0EF24FF92AFE49011CEF0902190F6
:10B00100E04420F0E054DFF0902201E054FEF02211
:08B01100902201E04401F0224D
:06C91900EF24FF92AF22A3
:03003E00027497B2
:107E6000902002E4F0902303E0902192F090228091
:107E7000E05470FF6007641060037F15229011CDFD
:107E80007401F09011D0E0547DF0900DD574E1F0C4
:107E900012003E12AC612419F582E434B0F583C0BF
:107EA00083C082901395E0D082D08312AC4712AC8D
:107EB0007050139011D0E030E107E4900DD5F080C0
:107EC0000512AC8480E8900DD5E0B4E10F12AC8EC1
:107ED000902002E4F09011CDF07FE122E49011CDEA
:107EE000F0900DD5F0902301E030E539900DD57478
:107EF000E9F012AC672431F582E434B0F583C08335
:107F0000C082901395E0D082D08312AC4712AC703F
:107F100050139011D0E030E707E4900DD5F08005C4
:107F200012AC8480E8902002E4F0900DD5E0FF22AE
:1090AE009011CDE060030291459023807405F0A3EA
:1090BE007402F0EF6004E04410F0902382E4F0A319
:1090CE00EDF090222CE0900E11F090222CE0442036
:1090DE00F09020027480F0902280E054706004645E
:1090EE0010704712AC612449F582E434B0F583C0A8
:1090FE0083C082901395E0D082D08375F002120A5D
:10910E00C0E493FF7401939011C812AC569011C82D
:10911E00E0FEA3E0FFC39011CBE09F9011CAE09E4A
:10912E00500512AC8780E612AC8E902002E4F090CF
:08913E000E11E090222CF0223A
:10C1FE00EDD394024004007F1122EF6009ED44104C
:0FC20E0090222CF0800690222C7430F07F0022BA
:06C91F0090222DEFF02232
:10C67000EF90227E6005E04408F022E054F7F022BB
:1096DF00901381EFF0D394034004007F1122901375
:1096EF0081E0FE700A9011CCE07004007F1622E436
:1096FF00901382F0EEB4010D12C9067F0112975D2F
:10970F007401F08043901381E0B4020D12C9067FFB
:10971F000212975D7402F0802F901381E0B4031052
:10972F0012C9067F0312A0F99011CC7403F08018B0
:10973F00E4FF12A0F9E4FD7F107E27128DA0901395
:10974F0082EFF0E49011CCF0901382E0FF2212A090
:05975F00F99011CC227D
:10C68000EFD394164004007F1122125E8C7F0022AB
:10C69000EF6009AF0512C578439EC022539E3F222A
:0EC73A00EF600712C8F7439CC022539C3F22B9
:10B7BF00902281E0541FD39402402D9022BDE020AF
:10B7CF00E0267F019022B0E04401F0E4FDFC9022DE
:10B7DF00BDE030E004E4FF800B0DBD00010CBC03A5
:09B7EF00EDBDE8EAEF70DD222255
:081846004113840041138300EB
:106E06009022EDE06580FF9022F0E05FFF9022EE99
:106E1600E06590FE9022F1E05EFE9022EFE065B024
:106E2600FC9022F2E05CFC9022F0E022E5E8F0AD76
:106E36009AA9E9759A07E4F5E8F5E99022E1746EF6
:106E4600F09022E6E054FBF0E054E7F022E09022D6
:106E5600E5F09022E27490F0D2D875E88075A880AB
:106E660022E0FEEFF4FCEE5CF022EEF0A3EFF0A3DE
:106E7600EDF0A3EBF09022F0E055B9FFE06F22E0D1
:106E8600FAA3E0FBEA9022E3F0A3EBF022E5A8F0F8
:106E9600E4F5A89022EBE0229022F1E055BAFFE05B
:106EA6006F229022F2E055BCFFE06F22EF4404FF10
:106EB6009022EBE054E7F022AF058F9AD2D8538F99
:106EC600BF22E0FEEFF4FFEE5FF022FFE054033353
:106ED600333354F8FEEF4E22EF9022E0F0E4F59AB9
:106EE60022E0F5E8AF018FE92254012FFFE0FDA86B
:036EF60006082269
:10B0A900ED24FF92FCEF6033EB4A700A901309E03C
:10B0B9007004007F11229022E1746EF0126E8A9062
:10B0C9001309E09022E5F0A3E054E7F0E04480F0B2
:10B0D900D2EC9022E0E04420F08009C2EC9022E01A
:07B0E900E054DFF07F0022BC
:10BBFF00900D1CEFF020E0069022E07498F0902753
:10BC0F0083E4F012C906902780E4F0A3F0900D1C96
:0EBC1F00E030E007902203E0547FF07F002227
:10BEAB009022E074D8F090278074F6F0A37423F0FE
:10BEBB0012BEC5EF600312BEC52212C906E4FD7F98
:07BECB00107E27128DA0225A
:109B3E00901367EFF0A3EDF0A3EBF0E4FFFE9013AC
:109B4E0067E0FDA806088002C313D8FC90136812C4
:109B5E006EEF8002C313D8FC901369126EEF800271
:109B6E00C313D8FC54012FFF0EEEB407D1EFC394EC
:109B7E00024004007F1122E4FFFE12BCB6AFA8AE75
:109B8E00E8ADE9901367E0547FF5A8A3E0F5E8A3EC
:109B9E00E0F5E943A8807587010000E4F5A88DE99A
:069BAE008EE88FA8FF22E3
:105D7200900D1C126E706002800C126E9E6002808A
:105D820005126EA86004007F1522900D1FE0D394C7
:105D9200034004007F112212C906E4900D26F0FF91
:105DA200FE12BCB6900D21126E93900D27F0902238
:105DB200E1E0900D25F09022E0E0900D24F0902299
:105DC200E6E0900D23F0900D22126E32900D20E04D
:105DD200FC9022E630E706E0547FF08004E0448045
:105DE200F09022E6C083C082E0900D1F126ED1D0E7
:105DF20082D083F0900D1C126E85900D1E126E5390
:105E02007FB9EC30E004EF54DFFF900D20E030E189
:105E120003126EB2126EDEE5D220E5FB126E066F41
:105E2200701DAF06A3E06F7016AF04A3E0B5040FB8
:105E3200758702000000000000000000008006904C
:105E42000D267412F0126EBE900D22126EE7900DA6
:105E520024E09022E0F0900D23E09022E6F0900DF5
:105E620025E09022E1F0900D27E09022EBF0900DDA
:105E720021E0F5A8900D26E0600100E4FD7F107E90
:0A5E820027128DA0900D26E0FF22EC
:10650C009011EF126E706002800C126E9E60028011
:10651C0005126EA86004007F15229011F2E0D3944E
:10652C00034004007F1122E49011F9F07F107E27C4
:10653C0012BCB69011F4126E939011FAF09022E105
:10654C00E09011F8F09022E0E09011F7F09022E644
:10655C00E09011F6F09011F5126E329011F3E0FC10
:10656C009022E630E706E0547FF08004E04480F0AF
:10657C009022E6C083C082E09011F2126ED1D082DC
:10658C00D083F09011EF126E859011F1126E537F43
:10659C00BAEC30E004EF54DFFF9011F3E030E1038C
:1065AC00126EB2126EDEE5D220E5FB126E066F7033
:1065BC001DAF06A3E06F7016AF04A3E0B5040F7512
:1065CC00870200000000000000000000800690110F
:1065DC00F97412F0126EBE9011F5126EE79011F76D
:1065EC00E09022E0F09011F6E09022E6F09011F8A5
:1065FC00E09022E1F09011FAE09022EBF09011F48F
:0C660C00E0F5A89011F9E0FF6001002209
:107670009012A5EF126E7A6002800C126E9E60026C
:107680008005126EA86004007F1522E49012ABF012
:107690007F107E2712BCB69012A6126E939012AC89
:1076A000F09022E1E09012AAF09022E0E09012A97E
:1076B000F09022E6E09012A8F09012A7E5E8F0AF73
:1076C0009A126E37126E587E9B9012A5E030E10739
:1076D000EE4404FE126EB6EE126EDFE5D220E5FB3C
:1076E0009022EDE06580FE9022F0E05EFE9022EEBA
:1076F000E06590FD9022F1E05DFD126E206E701D40
:10770000AE05A3E06E7016AE04A3E0B5040F758756
:10771000020000000000000000000080069012AB94
:107720007412F0126EC09012A7126EE79012A9E0C8
:107730009022E0F09012A8E09022E6F09012AAE0E9
:107740009022E1F09012ACE09022EBF09012A6E0D3
:0B775000F5A89012ABE0FF60010022E2
:10B0F000EFD394074004007F16227401A80708804C
:10B1000002C333D8FCFF9022EAE04FF0EB9022ED2F
:10B11000600BE04FF09022E7126E678009126E67B5
:10B120009022E7E04FF0ED9022F06005E04FF080D4
:07B1300003126EC87F00222C
:10B13700EFD394074004007F16227401A807088004
:10B1470002C333D8FCFF9022EBE04FF0EB9022EEE6
:10B15700600BE04FF09022E8126E678009126E676D
:10B167009022E8E04FF0ED9022F16005E04FF0808B
:07B1770003126EC87F0022E5
:10B17E00EFD394074004007F16227401A8070880BD
:10B18E0002C333D8FCFF9022ECE04FF0EB9022EF9D
:10B19E00600BE04FF09022E9126E678009126E6725
:10B1AE009022E9E04FF0ED9022F26005E04FF08042
:07B1BE0003126EC87F00229E
:10965700EFF07F807E387D017C00A3120A53D3028E
:1096670009ECE0FCE4120336E4FBFA79C87842021D
:10967700028F120A537F007E127D7A7C0002093F17
:10968700E47F7BFEFDFC120A53C30209EC1201863C
:1096970012036AAB07AA06EB4A22ECF0A3EDF0A986
:1096A70007E59A22E0FCA3E0FDE4020331C3EB9453
:1096B70020EA940322AD03EDF0EAFF22FFE0FCA3CA
:1096C700E0FD22AD03EDF0EAFF22E47F7BFEFDFC27
:0896D70022FFE0FCA3E0FD22EC
:05C30D007481F07F01C6
:10C31200ED600543F908800353F9F7EF600443E940
:06C32200082253E9F72296
:0BC80700EF6004439A0822539AF722C6
:10A1CC009012C41296A120E304007F1222C39012B5
:10A1DC00C5E09B9012C4E09A5004007F1122902598
:10A1EC00867420F0E960399012C4E0FEA3E090255B
:10A1FC0083F0EEF9902582F09025851296BC90257F
:10A20C0084F09025867409F0902583EDF0902582DA
:10A21C00EFF09012C4A3E0902585F0902584E9F02E
:07A22C00E49012C8F0FF22CC
:10B45E00E59A20E304007F12221296B45004007F76
:10B46E0011229025867420F0EF601E902583EBF05C
:10B47E00EA902582F0A3E0902585F0902582E09059
:10B48E002584F090258612C30DE490130EF0FF2252
:109EDA0090125F129657501A90126012968750028B
:109EEA008010901264E0FFD394635006EFC394018C
:109EFA005004007F1122901260129679901266EE39
:109F0A00F0A3EFF0901264129669C004C005C0066F
:109F1A00C0079012661296ABD003D002D001D000CF
:109F2A001296947003FA7B0190125FE09012661207
:0E9F3A0096C3901265E09012C8F012A1CC22DE
:0BC81200EF6004439A1022539AEF22BB
:10A233009012CA1296A120E404007F1322C3901245
:10A24300CBE09B9012CAE09A5004007F1122902524
:10A253008E7420F0E960399012CAE0FEA3E09025E5
:10A263008BF0EEF990258AF090258D1296BC9025FF
:10A273008CF090258E7409F090258BEDF090258A53
:10A28300EFF09012CAA3E090258DF090258CE9F0B1
:07A29300E49012CEF0FF225F
:10B49E00E59A20E404007F13221296B45004007F34
:10B4AE00112290258E7420F0EF601E90258BEBF00C
:10B4BE00EA90258AF0A3E090258DF090258AE09001
:10B4CE00258CF090258E12C30DE4901313F0FF22FD
:109F4800901268129657501A90126912968750020A
:109F5800801090126DE0FFD394635006EFC3940114
:109F68005004007F112290126912967990126FEEB8
:109F7800F0A3EFF090126D129669C004C005C006F8
:109F8800C00790126F1296ABD003D002D001D00058
:109F98001296947003FA7B01901268E090126F1287
:0E9FA80096C390126EE09012CEF012A23322F9
:0BC81D00EF6004439A2022539ADF22B0
:10A29A009012D01296A120E504007F1422C39012D6
:10A2AA00D1E09B9012D0E09A5004007F11229025B1
:10A2BA00967420F0E960399012D0E0FEA3E0902570
:10A2CA0093F0EEF9902592F09025951296CA902572
:10A2DA0094F09025967409F0902593EDF0902592CC
:10A2EA00EFF09012D0A3E0902595F0902594E9F034
:07A2FA00E49012D4F0FF22F2
:10B4DE00E59A20E504007F14221296B45004007FF2
:10B4EE0011229025967420F0EF601E902593EBF0BC
:10B4FE00EA902592F0A3E0902595F0902592E090A9
:10B50E002594F090259612C30DE4901318F0FF22A7
:109D8700901271129657501D1296D1901272129618
:109D97008D50028010901276E0FFD394635006EF47
:109DA700C394015004007F11229012721296799089
:109DB7001278EEF0A3EFF0901276129669C004C005
:109DC70005C006C0079012781296ABD003D002D018
:109DD70001D0001296947003FA7B01901271E09003
:109DE70012781296D8901277E09012D4F012A29AB5
:019DF7002249
:0BC82800EF6004439A4022539ABF22A5
:10A301009012D61296A120E604007F1522C3901266
:10A31100D7E09B9012D6E09A5004007F112290253D
:10A321009E7420F0E960399012D6E0FEA3E09025FA
:10A331009BF0EEF990259AF090259D1296CA9025F2
:10A341009CF090259E7409F090259BEDF090259A44
:10A35100EFF09012D6A3E090259DF090259CE9F0B6
:07A36100E49012DAF0FF2284
:10B51E00E59A20E604007F15221296B45004007FAF
:10B52E00112290259E7420F0EF601E90259BEBF06B
:10B53E00EA90259AF0A3E090259DF090259AE09050
:10B54E00259CF090259E12C30DE490131DF0FF2252
:109DF80090127A129657501D1296D190127B129695
:109E08008D5002801090127FE0FFD394635006EFCC
:109E1800C394015004007F112290127B129679900E
:109E28001281EEF0A3EFF090127F129669C004C081
:109E380005C006C0079012811296ABD003D002D09D
:109E480001D0001296947003FA7B0190127AE09088
:109E580012811296D8901280E09012DAF012A301C3
:019E680022D7
:0BC83300EF6004439A8022539A7F229A
:10A08F009012DC1296A120E704007F1622C39012D3
:10A09F00DDE09B9012DCE09A5004007F11229025A6
:10A0AF00A67420F0E9603C9012DCE0FEA3E090255E
:10A0BF00A3F0EEF99025A2F0AD039025A5EDF0EAFF
:10A0CF00FF9025A4F09025A67409F09025A3EDF03C
:10A0DF009025A2EFF09012DCA3E09025A5F090253B
:0AA0EF00A4E9F0E49012E0F0FF2273
:10B55E00E59A20E704007F16221296B45004007F6D
:10B56E0011229025A67420F0EF601E9025A3EBF01B
:10B57E00EA9025A2F0A3E09025A5F09025A2E090F8
:10B58E0025A4F09025A612C30DE4901322F0FF22FD
:109C9F00901283129657501D1296D19012841296DD
:109CAF008D50028010901288E0FFD394635006EF1E
:109CBF00C394015004007F11229012841296799060
:109CCF00128AEEF0A3EFF0901288129669C004C0CA
:109CDF0005C006C00790128A1296ABD003D002D0EF
:109CEF0001D0001296947003FA7B01901283E0FF6B
:109CFF0090128AE0FCA3E0FD901289E09012E0F050
:049D0F0012A08F22ED
:04184E00411327001B
:10758400E0FFE4FCFDFE1209D1901338120A5F906B
:107594001338120A477808120A10901338120A5F37
:1075A40090133822E0FFE4FCFDFE1209D190133C55
:1075B400120A5F90133C120A477808120A109013BB
:1075C4003C120A5F90133C22EFF0900DDC120A4744
:1075D40078081209FD900DDC120A5F900DDC020A96
:1075E40047EFF0900D52120A4778081209FD900DEA
:1075F40052120A5F900D52020A47902780E054FE0F
:10760400F022AC02AD017B107A007E21227F0412AD
:10761400BBA190219F7401F022E4F0902780E02226
:10762400E0FFE4FCFDFE22AC02AD01E0FB7A0022A7
:10763400120AECAE02AF01C3EE942322AC02AD01F8
:107644007B087A007E2122AE02AF017B087A007C9F
:107654002122120A5FE4FB902780E022900DD802D9
:0C7664000ACCE04404F090219FE4F022E6
:10BF9200900CFE12761D20E00AE04401F0900CFEA7
:10BFA2007401F07F00127606129FB6900CFEE060DC
:05BFB200031275FE22E0
:10BFB70090139912761D20E00AE04401F09013993E
:10BFC7007401F07F30127606129FB6901399E060E5
:05BFD700031275FE22BB
:10C32800E4FE902780E020E006E04401F07E0190E2
:0BC338002140EFF0EE60031275FE22C2
:10BB4300900DDC12765620E005E04401F00B1275EF
:10BB5300DF9021411275CC9021421275CC90214384
:0FBB63001275CC902144EFF0EB60031275FE22B7
:10BE0B00E4900CFEF0902780E020E00AE04401F083
:10BE1B00900CFE7401F07F45127640129FB6900C89
:08BE2B00FEE060031275FE2227
:10C34300E4FE902780E020E006E04401F07E0190C7
:0BC353002110EFF0EE60031275FE22D7
:10BB7200900D5212765620E005E04401F00B12754A
:10BB8200F89021111275E59021121275E59021139A
:0FBB92001275E5902114EFF0EB60031275FE229F
:10BE3300E4900CFEF0902780E020E00AE04401F05B
:10BE4300900CFE7401F07F15127640129FB6900C91
:08BE5300FEE060031275FE22FF
:06C92500902140E0FF221A
:10BC2D0090214412762412758D120A5390214312DD
:10BC3D007584120A53902142127584120A53902171
:0EBC4D00411276241209D112759E120A472266
:08C8D7007D4512764B029FB66D
:06C92B00902110E0FF2244
:10BC5B009021141276241275B1120A5390211312EB
:10BC6B0075A8120A539021121275A8120A5390212B
:0EBC7B00111276241209D11275C2120A472244
:08C8DF007D1512764B029FB695
:08C8E700EF547F902194F02230
:08C8EF00EF547F902195F02227
:10C6A000EF9021936005E04440F022E054BFF02277
:10C6B000EF9021936005E04420F022E054DFF02267
:10BBA100EF7002800CEFD3941040028004EF30E07C
:10BBB10004007F1A22EFC31314FF902193E054E392
:0FBBC100F0E0FEEF25E025E0FFEE4FF07F0022E1
:09BF4600902780E04401F07F0324
:10BF4F00EFD394034004007F1122902193E054FC1F
:0DBF5F00F0E0FEEF5403FFEE4FF07F0022F4
:10682300900DD2EDF0900DCF127634400DD3EF944E
:10683300FFEE94245004007F1822127660E41206BF
:10684300FB900DD2E0FED394794004007F1622EE34
:10685300B40104007F172212BF46900DD3120A47DA
:1068630012BB43900DD7E0FF12C328E4FF12C8E721
:10687300127611900DD2E02402902300F0900DCFF8
:10688300120ACC900DD212762B7F017E23129FB673
:10689300902007E4F0900DD2E02402902008F090BD
:1068A3000DDB7412F0902180E054FBF09020031272
:1068B3007666901323F0A3F0902180E030E207E4A2
:1068C300900DDBF08016901323E475F0011207CCD2
:1068D300901323E0B402E1A3E0B458DC900DDBE0B5
:1068E3007030900DD2E02404FF127660EF1206FBA5
:1068F300127616900DCF120ACCAE02AF011276605B
:10690300120693FB7A007D017C23129FB690219F90
:0E691300E4F01275FE900DDBE0FF6001002243
:105FA600900D48EDF0900D45127634400DD3EF94E8
:105FB600FFEE94245004007F1822900D4E120ACC56
:105FC600E41206FB900D48E0FFD3947D5006EFC324
:105FD60094045004007F162212BF46900D49120AFF
:105FE6004712BB72900D4DE0FF12C343E4FF12C887
:105FF600EF127611900D48E02402902400F0900DE7
:1060060045120ACC900D4812762B7F017E24129FF2
:10601600B6902087E4F0900D48E02402902088F0A6
:10602600900D517413F0902180E054FDF090208380
:10603600127666901325F0A3F0902180E030E107F8
:10604600E4900D51F08016901325E475F0011207C7
:10605600CC901325E0B402E1A3E0B458DC900D51D6
:10606600E0704990219F04F0900D45120ACCAE02D3
:10607600AF01900D48E0FB7A007D017C24129FB6AB
:10608600900D48E0FFE42FF582E43424F583E070B8
:1060960010EF24FCFF900D4E120ACCEF1206FB8087
:1060A60006900D517414F090219FE4F01275FE9045
:0860B6000D51E0FF6001002222
:101852004110800042107E00004210C20000411080
:021862007D55B2
:10C0F700120ACC8F827583001206AC902542F0E4B9
:10C10700F583D2AF22902540E054BFF0E04440F0E1
:02C11700E42220
:0BC83E00EF60044398802253987F2293
:0EC74800439810D2B7E4FB7D017F07028259AF
:07C77000E4901080F07F014E
:06C77700EF24FF92B7223F
:1071CF009012E3EBF0AA07E59820E704007F102266
:1071DF009012E4E0FED394094004007F1122EE24C4
:1071EF00FE601314601824FA601C2408702090129B
:1071FF00E57405F080209012E57403F0801890126A
:10720F00E57404F080109012E5740BF08008901272
:10721F00E4E02402A3F0902540E4F0902543F090A1
:10722F002540C083C082E0FF9012E5E0FE5403FCCE
:10723F00EF4CD082D083F0902543E0FFEE540C1337
:10724F0013543FFEEF4EF0EA605AA2AFE4339012B0
:10725F00E6F0C2AFED24FF92FD9012E3E030E403BD
:10726F0012C748902540C083C082E0FF9012E3E030
:10727F00FE541CFDEF4DD082D083F0902540E044AA
:10728F00C0F0D2EDEE20E412E4FF90107DE09025E7
:10729F0042F0E4F5830FEFB410F09012E6E024FF14
:0E72AF0092AF8007902540E4F0C2ED7F0022F0
:10C21D00AE07E4FF12C777C2AF902542EE12C105FB
:0FC22D00901080E060FA12C7709010C1E0FF22FD
:10B7110090136A120AECEDD394104004007F1122B9
:10B72100E4901080F0FF12C777EFC39D500BC2AFBA
:10B7310090136A12C0F70F80F0901080E0B50503F6
:0BB74100D38001C350F312C7701F2219
:10C4460012C10CFEC2AF902542EF12C1050EEEB42A
:08C4560010F290107DEFF022BE
:10BA820090136D120AECEDD394104004007F112242
:10BA920012C10CFFC2AF90136D12C0F70FEFB410BA
:10BAA200F390136D120ACC12069390107DF07F0072
:01BAB2002271
:10B31B009010C2A3E0FFC390107FE09FFFEF543F5C
:10B32B00602C9010C2E0FEA3E02481F58274103EE5
:10B33B00F583E01206FB9010C3E02401FF9010C2CE
:10B34B007E00EF543FFFEEF0A3EFF07F01227F0072
:01B35B0022CF
:109395007FF07EFF7D077C00120A53D30209ECADF6
:1093A50007AC06ECF07C00E4120331783FE4FBFAED
:1093B500F912009502036AEFF0A3EDF0A3EBF0E5D7
:1093C5009822C3E49BFFE49AFE740199FDE498FC9E
:1093D500020A5FE024FF92AF7F0022E490121EFE96
:1093E500FDFC020A53AF03E4FCFDFE120A5302081A
:1093F500B4E47B03FAF9F8020A47E0FEA3E0FFC3F1
:10940500E49FFFE49EFE22900D02020A5FFB120A12
:109415004778080209FD901290120A5F9012902277
:0BC84900EF6004439801225398FE2288
:10930500900CFE1293BC20E004007F1322900D0107
:10931500E0FBD394624004007F1722A2AFE43390B0
:109325000D06F0C2AF900D02120A6B000007D09037
:109335000D021293EA12940C900D021293F6120983
:109345003FE4FDFC12940C900D02120A53900D029D
:109355001293C7900D02120A47901342EFF0900D39
:1093650002129412901340EFF08B8AF58C5389F01A
:10937500438901900CFFE024FF92B9A3E024FF92FA
:109385008C900CFEE024FF92A9900D061293D82232
:10AE5F00A907E59820E004007F1322A2AFE4339006
:10AE6F0012ECF0C2AF9012EA1293FF901342EFF080
:10AE7F00EEFF901340F0901342E0F58A8F8C5389C8
:10AE8F00F0438901ED24FF92B9EB24FF928CE92462
:0AAE9F00FF92A99012EC1293D82242
:0BC85400EF6004439802225398FD227D
:1095CD0090128C1293BC20E104007F142290128F14
:1095DD00E0FBD394624004007F1822A2AFE43390E5
:1095ED001294F0C2AF901290120A6B000007D09047
:1095FD0012901293EA12941B1293F612093FE4FD96
:10960D00FC12941B120A539012901293C790129051
:10961D00120A47901343EFF0901290129412901388
:10962D0041EFF08B8BF58D53890F43891090128D7F
:10963D00E024FF92BBA3E024FF928E90128CE024D5
:0A964D00FF92AB9012941293D82202
:10AEA900A907E59820E104007F1422A2AFE43390BA
:10AEB90012F2F0C2AF9012F01293FF901343EFF029
:10AEC900EEFF901341F0901343E0F58B8F8D53897A
:10AED9000F438910ED24FF92BBEB24FF928EE924E6
:0AAEE900FF92AB9012F21293D822F0
:0BC85F00EF6004439804225398FB2272
:1073AA0090121B1293BC20E204007F15227F051263
:1073BA0093E0C31209EC500C90121E1293954004EC
:1073CA00007F19227FF87EFF7D037C0090121E1237
:1073DA00939D400E9012237440F09012227406F08E
:1073EA0080447FFC7EFF7D017C0090121E12939DDB
:1073FA00400E9012237420F09012227405F0802619
:10740A00E47FFE7EFFFDFC90121E12939D901223D4
:10741A00400B7410F09012227404F080097408F082
:10742A009012227403F07F081293E01208B4C00786
:10743A00901223E0FBE4FAF9F8D00712093FE412AC
:10744A00032C78BF1293B29012241293A4A2AFE431
:10745A0033FEC2AF53A9F090121BE06027901224AA
:10746A00E0F5AA8FAC90121CE024FF92F9A3E06029
:10747A000C901222E025E0440142A9800353A9FEA0
:0D748A00D2E98002C2E9AF06EE1293D922CA
:0BC86A00EF6004439808225398F72267
:106A1E009012251293BC20E304007F1622E47F051A
:106A2E009012281293E4C31209EC500C9012281203
:106A3E0093954004007F1A227FF87EFF7D037C0031
:106A4E0090122812939D400E90122D7440F09012C9
:106A5E002C7407F080447FFC7EFF7D017C00901239
:106A6E002812939D400E90122D7420F090122C74CB
:106A7E0006F08026E47FFE7EFFFDFC901228129326
:106A8E009D90122D400B7410F090122C7405F08016
:106A9E00097408F090122C7404F0E47F08FEFDFCDB
:106AAE009012281293F0C00790122DE0FBE4FAF931
:106ABE00F8D00712093FE412032CE4FBFAF978BF71
:106ACE001293B690122E1293A4A2AFE433FEC2AF6D
:106ADE0053A90F901225E0602990122EE0F5AB8F8E
:106AEE00AD901226E024FF92FBA3E0600E90122CD4
:106AFE00E0C43354E0441042A9800353A9EFD2EB13
:0B6B0E008002C2EBAF06EE1293D9220A
:105C52000709433B0B0709433B0B0707433B0B0772
:105C6200078B3B0B07078B040B07078B0404070703
:105C72008B0404040B048B061705078B0404040D24
:105C82008B0404040D000B0B040400008B061705A3
:105C920000000617050000001705000000000500BF
:105CA20000000000040700000000070000000000E0
:105CB2001D0B000001000B000001000000000100AC
:105CC20000000001000000000100000000000000D0
:105CD20000000000000000000000000000000000C2
:105CE20000000000000000000000000000000000B2
:105CF20000000000000000000000000000000000A2
:105D02000000000000000000000000000000000091
:105D1200C393C7712FEE93C7712FEE77C7712FEE22
:105D22007703712FEE7703342FEE7703341AEE7771
:105D320003341A0D658B021703077703341A0D0219
:105D420003341A0D02001A0D12090000021703078C
:105D5200000017030700000003070000000007000F
:105D62000000000007020000000002000000000026
:10186400420E1E0000420E140000420E22000042EE
:101874000E180000410E1C01420E200000420E16FC
:101884000000420E240000420E1A0000410E1D0109
:10883600E4FAF9F890134C120A4712B252EF2430B8
:10884600902510F090134C020A47E4FAF9F812B298
:1088560052AC00AD01AE02AF0390134C020A5FFFAB
:10886600C3E09FFF7E00EF543FFFAD01ED24FF22E2
:10887600FF120ACCEF1206FB901395E0FF9011DF72
:10888600E075F006A422F583E5822FF582E43583B0
:10889600F583E49322E433F0C2E8A2ACE43322E4A5
:1088A60033F0C2E8A2AEE43322A2AFE433FFC2AF94
:1088B60022C374409FFFE49EFED3EF9403EE940020
:1088C60022E4F0A3E0543FF022E01206FBE4F58335
:1088D600EF24FF92AF7F0122120ACC8F82758300AC
:0388E6000206ACDB
:105889009011D5120AECE49011DEF0120BD158FBFD
:105899000000012C590200000258590A000004B006
:1058A900591200000960591A000012C0592200005B
:1058B9002580592A00003840593200004B00593AD6
:1058C9000000960059420000DAC0594A0000E10080
:1058D90059520001C200595A000384005962000755
:1058E9000800596A0008CA005972001194000000A2
:1058F900597AE49011DFF0807E9011DF7401F08015
:10590900769011DF7402F0806E9011DF7403F080DD
:10591900669011DF7404F0805E9011DF7405F080E9
:10592900569011DF7406F0804E9011DF7407F080F5
:10593900469011DF7408F0803E9011DF7409F08001
:10594900369011DF740AF0802E9011DF740BF0800D
:10595900269011DF740CF0801E9011DF740DF08019
:10596900169011DF740EF0800E9011DF740FF08025
:10597900069011DE7412F09011DEE0704912887EF3
:105989002452F582E4345C12888C9011D512887601
:1059990024B2F582E4345C12888C9011D81288768E
:1059A9002412F582E4345D12888CFF9011DB120A0F
:1059B900CCEF1206FB9011DB120ACC12069370068B
:0C59C9009011DE7412F09011DEE0FF225D
:0BC87500EF6004439820225398DF225C
:107FFD0090122FEFF0A3EDF0E59820E504007F102F
:10800D0022E4FF90122FE06023901231120A477B79
:10801D00017A1279369011D8120AEC7A1209901160
:10802D00DB120AEC7A1209125889800BE49012388F
:10803D00F0901236F0A3F0EF600200221288AF909C
:10804D002505E4F09025037480F0901237E090251B
:10805D0000F0901236E0902501F0901238E0902556
:10806D0007F0902503E4F0902507F090122FE060C3
:10807D00389025027481F0901235E0FE543F902522
:10808D0003F0902501E4F0EE20E604E04401F090C9
:10809D001235E020E707902501E04402F0D2AC90C4
:1080AD001230E024FF92BC8009902501E4F0C2ACAF
:0A80BD00C2BCEF24FF92AF7F002247
:10C15C00A2E890139A12889BF9C2AC900E14A3E03B
:10C16C00900E1F12886592AC90139AE024FF92E80F
:01C17C0022A0
:10C17D00A2E8900DC812889BF9C2AC900E18A3E0EE
:10C18D00900E2312886592AC900DC8E024FF92E8C2
:01C19D00227F
:10A7F600AC0712C17D1288B740F8A2E8E433FF1215
:10A80600889EFEC2AC900E1CE06010E4F0C2AF90D1
:10A816002500ECF0E4F583D2AF8022900E22E0FA18
:10A82600A3E024A6F582740E3AF583ECF0900E228E
:10A83600E475F0011207CC900E221288C7EE24FFB1
:08A8460092ACEF24FF92E8221E
:10AAAC00901344120AEC12C15CEF4E7002FF22A20A
:10AABC00E8E43390134712889DFFC2AC900E14E467
:10AACC0075F0011207E2FC742625F0F582740E3C39
:10AADC00F583E0FE901344120ACCEE1206FB900EA6
:10AAEC00141288C7EF24FF92AC901347E024FF9216
:04AAFC00E87F0122CC
:10C5A000E4FF900E1CE070010F902505E020E502ED
:03C5B0007F0122E6
:10AD7B00900DC8120AEC902501E030E1037F1322FD
:10AD8B00EDD3941040037F1422902505E030E5F9B4
:10AD9B00E4FFEFC39D5022A2AFE433900DCBF0C282
:10ADAB00AF900DC81288DE902500F0E4F583900D6E
:0CADBB00CBE024FF92AF0F80D97F002274
:10C53C00902505E030E00A1288AF9025001288CFD4
:04C54C00227F002228
:0BC88000EF6004439840225398BF2251
:1080C700901239EFF0A3EDF0E59820E604007F1059
:1080D70022E4FF901239E0602390123B120A477B9B
:1080E700017A1279409011D8120AEC7A120990118C
:1080F700DB120AEC7A1209125889800BE4901242BB
:10810700F0901240F0A3F0EF600200221288AF90C7
:108117002515E4F09025137480F0901241E0902526
:1081270010F0901240E0902511F0901242E0902557
:1081370017F0902513E4F0902517F0901239E060BE
:10814700389025127481F090123FE0FE543F90253D
:1081570013F0902511E4F0EE20E604E04401F090DE
:10816700123FE020E707902511E04402F0D2AE90DD
:10817700123AE024FF92BE8009902511E4F0C2AEC6
:0A818700C2BEEF24FF92AF7F00227A
:10C02500A2E8900D451288A5F9C2AE900E16A3E0C0
:10C03500FFC3900E2112886792AE900D45E024FF54
:03C0450092E8225C
:10C04800A2E8900D411288A5F9C2AE900E1AA3E09D
:10C05800FFC3900E2512886792AE900D41E024FF31
:03C0680092E82239
:10A79D00AC0712C0481288B740F8A2E8E433FF12A4
:10A7AD0088A8FEC2AE900E1DE06010E4F0C2AF901E
:10A7BD002510ECF0E4F583D2AF8023900E24E0FA5F
:10A7CD00A3E024E6F582740E3AF583ECF0900E24A6
:10A7DD00E475F0011207CCE4900E241288C8EE2423
:09A7ED00FF92AEEF24FF92E82276
:10AA0200900D41120AEC12C025EF4E7002FF22A2F5
:10AA1200E8E433900D441288A7FFC2AE900E16E40C
:10AA220075F0011207E2FC746625F0F582740E3CA3
:10AA3200F583E0FE900D41120ACCEE1206FBE49083
:10AA42000E161288C8EF24FF92AE900D44E024FF48
:05AA520092E87F0122E3
:10C5B300E4FF900E1DE070010F902515E020E502C9
:03C5C3007F0122D3
:10ADC700901348120AEC902511E030E1037F13221B
:10ADD700EDD3941040037F1422902515E030E5F958
:10ADE700E4FFEFC39D5022A2AFE43390134BF0C2B0
:10ADF700AF9013481288DE902510F0E4F583901386
:0CAE07004BE024FF92AF0F80D97F0022A7
:10C55000902515E030E00A1288AF9025101288CFA0
:04C56000227F002214
:108E3E0012885F12884AEC33501812884A1209DEE3
:108E4E0012885F902510742DF0902515E020E5080E
:108E5E0080F79025107420F0E47B107A2712883862
:108E6E00E47B107A27128852902515E030E5F9E45C
:108E7E007BE87A03128838E47BE87A0312885290F2
:108E8E002515E030E5F97B641288367B6412885034
:108E9E00902515E030E5F97B0A1288367B0A128898
:108EAE0050902515E030E5F912884AEF24309025D0
:108EBE0010F0902515E030E5F99025107420F09013
:0D8ECE002515E030E5F9E47F01FEFDFC22F2
:09C8BE00C2AF75D25575D2AA2251
:0BC88B00EF6004439201225392FE2252
:10B7F800E59220E004007F1022EDD3940F4004006E
:10B808007F1122A2AFE433FEC2AFEF600C12C8C0B2
:10B81800ED540F4440F5D2800612C8C075D280AFEF
:09B8280006EE24FF92AF7F00221E
:10BE5B0090FFFF120C0BA2AFE433850D83850E828E
:10BE6B00F012C8BE43D240850D83850E82E024FFBD
:08BE7B0092AF900001020C0BD4
:10BCB600A2AFE433FCC2AFEF4E600E901385EEF0F8
:10BCC600A3EFF07D0F7F018009E4901385F0A3F0C8
:0DBCD600FDFF12B7F8AF04EC24FF92AF227F
:10C48E00EFD3940F4004007F112212C8BEEF540F59
:07C49E00F5D243920180FE7C
:10B35C00900D41120AEC7F007E10E4900D44F0FD3C
:10B36C00EF2DF582E43EF583E493FC900D44E02C44
:10B37C00F0900D41120ACC8D82758300EC12070DF2
:10B38C000DEDB440DB900D44E070037F01227F0093
:01B39C00228E
:0418940041139B0061
:10C56400F0C2AF9027A6E04480F0E4F583D2AF9008
:04C57400139BF02203
:0BC89600EF6004439940225399BF2239
:10986600E59920E604007F1022E490139BF09027F0
:10987600AA04F09027A974A5F0EB600D9027ACE43C
:10988600F09027AB748CF080109027AAE09027AC5C
:10989600F09027A9E09027ABF09027B2E4F090274C
:1098A600B17464F09027AF745AF0A374B4F09027A3
:1098B600ADF0A3745AF0901353E09027A2F09027CE
:1098C600A6742FF0ED600543F901800353F9FEEF0E
:0D98D600600543E901800353E9FE7F002295
:10B8A200E59920E604007F10229027A4EFF090276C
:10B8B200A77408F0A3742912C5647F12FDFC9013CB
:10B8C2009BE06004E4FF800B0DBD00010CBC75EE33
:08B8D200BD30EBEF6001002224
:10BA5000E59920E604007F10229027A77406F0A342
:10BA60000412C5647F11FDFC90139BE06004E4FFA9
:10BA7000800B0DBD00010CBC75EEBD30EBEF60011D
:02BA80000022A2
:10BAB3000A0D2045564B203A204C49422056322E3F
:10BAC300350000000000000000000000000000003E
:10BAD3000000000000000000000000000000000063
:108EDB00A37429F004F004F07429F004F004F07486
:108EEB0029F004F004F022900D1F7412F0A3740308
:108EFB00F0A32274039022CFF09022CE22900D1F6C
:108F0B007413F0E4A3F0A322F0A3F0A3F0A3F0A357
:108F1B00F0A3F022900D1F7413F0A37401F0A322A1
:108F2B0074029022CFF09022CE22F09022497463EB
:108F3B00F0A37455F0229022B0E04401F0E4FEFF60
:108F4B0022F07464A3F0A37404F02274C0F0A37431
:108F5B0070F090223C7490F02224A69022BFF090E7
:0D8F6B0022BEE4F022A3F0A37450F0A32274
:1098E300EFD394054025902232743AF0A37434F0F8
:1098F300902238128F569022427411F090224574B0
:109903001E128F3590224D7426804C902232744A59
:10991300F0A37416F090224214F09022457423F0C1
:10992300EFC39405902238401A128F56902249743F
:1099330021F0A304F090224D04F0A37499F0A374D2
:1099430007F0227450F0A374B0F090223C745012CC
:0B9953008F3590224D7412128F4C22B1
:107CB10090278074F6F0A37423F09022B07440F002
:107CC1009022C67480F09022C274B0F09022117498
:107CD10002F090220C7405F09022207480F0A3E44D
:107CE100F0A37485F09022B97402F0A37463F0904C
:107CF10022B774CFF0A3E4F09022C8745FF0A374AC
:107D010009F0EF30E0047E0E80027EA29022CAEEDE
:107D1100F07408128F4FA3E4F0740B128F00740FEC
:107D2100F0902230744AF0902232F0A37416F0EFF2
:107D310030E0047E4B80027E4D902235EEF0EF3034
:107D4100E0047FC680027FCD902236EFF0745C1292
:107D51008F7074B0F090223B7450F0A3F0902240E9
:107D61007420F0A3F0A37415F0A37410F0A3F0A392
:107D71007423128F35A374E1F090224D7412128F87
:0E7D81004C90221D7485F09022E1746EF02269
:10A84E00AE07EE6003B4010790222174018010EE72
:10A85E00902221B40208E4F0A374E5F08006E4F03F
:10A86E00A37485F0AF061298E3EED39405400D90D5
:10A87E0022197410F09022CA74D5F022EEC39405FA
:10A88E00902219400A7410F09022CA74AAF022E4A1
:08A89E00F09022CA74A2F0221E
:10572F00E4900D1EF0EF8EF0120BA4577E09655713
:10573F0087096A5790096F5799097457A2097957C2
:10574F00AB097E57B4098357BD098857C6098D57D2
:10575F00CE099257D6099757DE099C57E609A157EC
:10576F00EE09A657F609AB57FE09B000005806120E
:10577F008EF27428F002580C128EF27450F0025808
:10578F000C128EF27478F002580C128EF274A0F094
:10579F0002580C128EF274C8F002580C128EF2746A
:1057AF00F0F002580C128F087418F002580C128F78
:1057BF00087440F002580C128F087468F0803E1283
:1057CF008F087490F08036128F0874B8F0802E1204
:1057DF008F0874E0F08026128F1F7408F0801E125D
:1057EF008F1F7430F08016128F1F7458F0800E12B6
:1057FF008F1F7480F08006900D1E7417F0900D1E91
:10580F00E0FF6001229022BE74C0F09022B47401B8
:10581F00F0900D1FE09022B1F0900D20E09022B299
:10582F00F0900D21E09022B3F09022B0E04401F00F
:10583F00900D1E7414F0E4FFFE9022BDE030E007DF
:10584F00E4900D1EF0800B0FBF00010EBE27EABFC4
:10585F0010E7900D1EE0601C128F419022BDE030CA
:10586F00E007E4900D1EF0800B0FBF00010EBE2766
:09587F00EABF10E7900D1EE0FFE6
:0158880022FD
:085B1600901370EEF0A3EFF014
:105B1E00C3945AEE94094010901370E0FCA3E0FD7C
:105B2E00D394CBEC940940037F1122901372741717
:105B3E00F0ED8CF0120BA45B8909655B8B096A5B37
:105B4E0092096F5B9909745BA009795BA7097E5B6B
:105B5E00AE09835BB509885BBC098D5BC309925B9B
:105B6E00CA09975BD1099C5BD809A15BDF09A65BCB
:105B7E00E609AB5BE609B000005BF180009022C243
:105B8E0074D280599022C274D180529022C274D1A4
:105B9E00804B9022C274D180449022C274D0803D3A
:105BAE009022C274D080369022C274D0802F902260
:105BBE00C274D080289022C274CF80219022C274E9
:105BCE00CF801A9022C274CE80139022C274CE80DF
:105BDE000C9022C274CE80059022C274CDF0E49057
:105BEE001372F0901372E0FF6001229022B0E04435
:105BFE0002F0901370A3E0128F649013727414F07D
:105C0E00E4FFFE9022BDE030E007E4901372F080D6
:105C1E000B0FBF00010EBE27EABF10E7901372E014
:105C2E00601C128F419022BDE030E007E4901372A9
:105C3E00F0800B0FBF00010EBE27EABF10E79013D6
:035C4E0072E0FF02
:015C51002230
:1086C900C3EF9465EE94094009D3EF94B0EE940991
:1086D90040037F1122C3EF94B0EE94094005902224
:1086E900C28033C3EF949CEE940940089022C2746F
:1086F900B3F08025C3EF947EEE940940089022C21E
:1087090074B4F08014C3EF9465EE94099022C240CA
:108719000574B5F0800374B2F0D3EF947EEE94093A
:108729009022B950057422F080037402F09022B0AF
:10873900E04402F0EF128F647D14FFFE9022BDE049
:1087490030E004E4FD800B0FBF00010EBE27EDBF32
:1087590010EAED6019128F419022BDE030E004E487
:10876900FD800B0FBF00010EBE27EDBF10EAE4FE2E
:08877900FF600312572FAF054A
:0187810022D5
:0CC7A1009022BFE0245AFFE43409FE227D
:105E8C00EF120B7E5ED9005EE0015EED025EF60362
:105E9C005EFD045F04055F0B065F12075F19085F68
:105EAC0026095F2D0A5F3A0B5F410C5F480D5F5569
:105EBC000E5F610F5F68105F75115F7B125F82135D
:105ECC005F89145F90155F9C1600005FA59022CF30
:105EDC00740B80059022CF7404F09022CE740FF0D6
:105EEC00227405128F2D740BF022128EFE740AF0A0
:105EFC0022128F2B7409F022128EFE7407F02212DC
:105F0C008EFE7406F0229022CF740380059022CF6F
:105F1C007401F09022CE7405F022128F2B7404F0D1
:105F2C00229022CF7407F09022CE7403F02290229C
:105F3C00CF740280199022CF740C80059022CF74FC
:105F4C0004F09022CE7402F0229022CF7401F090D3
:105F5C0022CE04F0229022CF741F80059022CF74A1
:105F6C000FF09022CE7401F022128F2B14F022909D
:105F7C0022CF7401801E9022CF741F800C9022CFF0
:105F8C00740880059022CF7401F09022CEE4F022A8
:0A5F9C009022CFE4F09022CEF02214
:10A0F900EFB401079022707424F022EF6402600526
:10A10900EF6403703990278074FEF090221974016E
:10A11900F09022707427F0902280E030E0F99022CC
:10A12900807423F0A37407F0EF902270B4030574D0
:10A1390077F080037422F09022817460F0229027D6
:10A149008074F6F0902219E4F09022807480F0A3D4
:0AA15900746CF09022707480F02204
:10C57800EF9022926008740EF0A37402F022740106
:04C58800F0A3F0220A
:08C8F700902290E054C0F022F1
:10A16300EF30E00C902720E4128F13A3128F1322F9
:10A17300EF90272030E7297404F0A374E2F0A3746E
:10A1830004F0A374E2F0A37414F0A37410F0A3E436
:10A19300F074FA128F70F0A374A0F0A37464F02229
:10A1A3007402F0A37471F0A37402F0A37471F0A3AA
:10A1B300740AF0A37408F0A3E4F0A3747CF0A3740E
:09A1C30028F0128F707432F022B2
:10749700902785E090228230E272E4F0000000003D
:1074A70000000000128EDB000000000000000074E6
:1074B70029F00000000000000000000000000000AC
:1074C70000000000000000000000000000000000B5
:1074D70000000000000000000000000000000000A5
:1074E7000000000000000000000000000000000095
:1074F7000000000000000000000000000000000085
:10750700000000000000000000008010E4F0000010
:107517000000128EDB000000007429F0000000005C
:107527000000000000000000000000000000000054
:107537000000000000000000000000000000000044
:107547000000000000000000000000000000000034
:107557000000000000000000000000000000000024
:107567000000000000000000000000000000000014
:0D757700000000007440F090228214F02209
:050006007EBA7FB32269
:1035AD002023232045413D302C20496E74657272D5
:1035BD007570742044697361626C65642023230007
:1035CD002023232055415254303A496E746572724E
:1035DD007570742044697361626C656420232300E7
:1035ED002023232055415254313A496E746572722D
:1035FD007570742044697361626C656420232300C7
:10360D00202323205541525430203A20496E7465B1
:10361D0072727570742044697361626C65642023E5
:10362D002300202323205541525431203A20496E46
:10363D00746572727570742044697361626C65642F
:10364D00202323000A002025303278000A205B4D0C
:10365D0049425D000A204368616E3D25752028258D
:10366D0075204D487A292C2000202050616E494448
:10367D003D307825303478000A2053686F727441DC
:10368D006464723D30782530347800203A494545E0
:10369D00454164647228307E37293D3078000A2018
:1036AD0044737453686F7274416464723D3078254D
:1036BD0030347800203A447374494545454164647B
:1036CD007228307E37293D3078000A2044617461BC
:1036DD00526174653D3078253032782C2000203AC7
:1036ED0054785077724C6576656C3D307825303264
:1036FD00782C200020204E6F41636B5265747279D7
:10370D003D257500203A4261636B6F6666526574A4
:10371D0072793D2575000A205B52582D4D41432D80
:10372D00504B545D000A2044534E3D3078253032C5
:10373D00782C204F4F423D30782530327800203A9A
:10374D0064426D3D256400203A436F72723D2564DD
:10375D00000A204473742E204D6F64653D25303270
:10376D007800203A50616E49443D307825303478E8
:10377D0000203A53686F7274416464723D3078254D
:10378D0030347800203A4945454528307E37293D6B
:10379D003078000A205372632E204D6F64653D25ED
:1037AD00303278000A204D534455204C656E3D252E
:1037BD00303275203A2000203A4D534455203D00BB
:1037CD000A203D3D3D2048494220446973706C619B
:1037DD0079203D3D3D000A20494545452041444461
:1037ED0052284C53427E4D534229203A000A204321
:1037FD00686970496E646578203D203078253032D7
:10380D00780020284D4732343030290020284D478C
:10381D0032343558290020284D47323437302900AD
:10382D0020284D4732343630290020284D47323478
:10383D00313029002028556E636C61737369666998
:10384D00656429000A204368616E6E656C20202036
:10385D003D20257520282575204D487A29000A2000
:10386D00537461636B49442020203D20307825300E
:10387D003278000A205478506F7765722020203DF1
:10388D00203078253032780020202020446174616A
:10389D005261746520203D20307825303278000A41
:1038AD002050616E494420202020203D2030782575
:1038BD00303278253032780020204E776B416464A9
:1038CD007220203D20307825303278253032780036
:1038DD000A205365634C6576656C20203D20307859
:1038ED00253032780020202020507265436F6E669F
:1038FD006967203D20307825303278000A204E57F8
:10390D004B204B657920284C53427E4D5342292044
:10391D003A000A205265736572765F30284C534227
:10392D007E4D534229203A000A204550494420201B
:10393D002020284C53427E4D534229203A000A2024
:10394D005265736572765F31284C53427E4D5342FA
:10395D0029203A000A2047656E6572616C576F72B7
:10396D006430203D20307825303278253032780093
:10397D000A2047656E6572616C576F726431203D28
:0C398D0020307825303278253032780068
:101898004211340000421136000042113800004263
:0918A800113A000042113C00005D
:1042A3001208A79011BE120A5F9011BE120A539012
:1042B30011BBE075F064A4FFAEF0E4FCFD1208A7A7
:1042C3009011BE120A5F9011BE120A5375F00A9044
:1042D30011BAE0A4FFAEF0E4FCFD1208A79011BEF2
:1042E300120A5F9011BE22120ACC9000191206AC7A
:1042F300FFE4900D5AF0A3EFF07BFF229000011230
:104303000823FF900DD3120ACC900DD9E0FDF5825E
:10431300758300EF12070D900DD0120ACC900001A7
:10432300120823E5F0FFED2401FDE433FC900DD3E7
:10433300020ACC8D828C83EF12070D900DD0020AF6
:10434300CCF9E43AFAE4900D53F07D08FC22900D89
:10435300D9E0F582758300ED12070DEEFF900DD9BC
:10436300E0F58275830022901373120ACC90000447
:10437300120823FF900D5AE5F0229012B6120ACCD0
:104383001207F8FFE5F0C4F854F0C868FEEFC45410
:104393000F48FFEE8FF012085B9012BBE0229011E2
:1043A300BAE09011B9F09011BBE09011BAF09011FE
:1043B300BCE09011BBF09011BDE09011BCF0E4A300
:1043C300F09011B8E014F0229011BBE0FF7E007C66
:1043D300037DE812072FE4FCFD221206ACFF900DCB
:1043E3005AE4F0A3EFF022120A47E47B107A27F98C
:1043F300F80208B4901376120ACC9000080206ACB7
:10440300FFFD900D5AE4F0A3EDF07E007C007D05E6
:1044130012072FEF242EFFEE3409A3229012BD12B0
:104423000ACC020693120A539011B9E0FFE4FCFD93
:10443300FE22E92401F9E43AFA020693120AEC7B1C
:10444300FF7A3679517F0122901373120ACC9000C0
:10445300020206AC8D828C83EF12070D900DD922D8
:104463001206ACFF900D5CE42274852FF582E434D0
:104473000DF58322E475F0010207CCC4540F120634
:10448300FB9012C2E022EF24D09011B6F09011B845
:10449300E0C3940422120A539011B6E0FF3395E06F
:1044A300FEFDFC22900DC5E0FFC3944022F0E4F52D
:1044B30083900DCEE024FF92AF2290000C0206AC55
:1044C30090000B0206AC901373020ACCEFF0A31218
:1044D3000AECE4222402FFE433FEE92FF9EA3E2248
:1044E300120A539011B9E075F00A22900DD9E07EBB
:1044F3000029F9EE3A22FF900DD6020ACC900DC5A1
:0D450300E004F0229012B6120ACC0207F874
:10C06B00900DC6EFF0902501E0900DC630E105E094
:10C07B00FF02A7F6E0A3F07B017A0D79C77D0112D1
:03C08B00AD7B2268
:10BD9000901354120AEC902501E090135430E008FF
:10BDA000120ACC12AAAC8006120ACC12C53C90131F
:09BDB00057EFF0901357E0FF2259
:10C08E00901387EFF0902511E090138730E105E0D3
:10C09E00FF02A79DE0A3F07B017A1379887D011240
:03C0AE00ADC722F9
:10BDB900901358120AEC902511E090135830E008BE
:10BDC900120ACC12AA028006120ACC12C55090138C
:09BDD9005BEFF090135BE0FF2228
:109D1300900DCA120AECA2AFE433900DCEF0C2AF9D
:109D2300902500740AF0740DF0902510740AF074F5
:109D33000D1244B0902505E030E5F9902515E0308B
:109D4300E5F9E4900DCDF0900DCA120ACC12C527A7
:109D5300900DCDE0C39FE49E5029A2AFE433A3F05E
:109D6300C2AF900DCA120ACC900DCD1243631206F6
:109D7300AC902500F09025101244B0900DCDE00476
:049D8300F080C42286
:109BB400900DC6EFF020AF3D7BFF7A3579AD129C56
:109BC40022900DC6E0700B20AC087BFF7A3579CD6E
:109BD4008010900DC6E0B4010C20AE097BFF7A35ED
:109BE40079ED129C22C2AF75D25575D2AA75D20AEC
:109BF40043920180FE900DC6E0700B20AC087BFF01
:109C04007A36790D8010900DC6E0B4011020AE0DA7
:109C14007BFF7A36792FA3120AEC129D1322A3122A
:069C24000AEC129D132260
:10914600900D57120AEC900D56EFF0129BB4E49076
:109156000DC5F01244A7500A12446CE4F012450003
:1091660080F17B017A0D795A900D82120AEC900DEE
:1091760057120ACC900DC6120AEC900D82120ACC38
:10918600900DC9120AEC7B017A0D798512AF879092
:109196000D56E030E015E4900DC5F01244A75036A8
:1091A60012446CE0603012450080F0E4900DC5F08A
:1091B6001244A7502112446CE0FF601A12C06B9053
:1091C6000DC5E0248512446FE0B40A057F0D12C078
:0791D6006B12450080DA2254
:106EF9009012B51244CF9012BBF0F5F012085B7FE7
:106F0900107E2712BCB69012B5E030E04C7B017AB6
:106F19001279BA12BDB9EF60E6126FDD60129012F4
:106F2900BBE0640460D99012BAE0FF12C08E804AB7
:106F39009012BAE064087018A3E060147F0812C0C8
:106F49008E7F2012C08E7F0812C08E12437D14F0EE
:106F59009012BAE0640D70A7227B017A1279BA12F5
:106F6900BD90EF609A126FDD603E9012BBE0640441
:106F7900608D9012BAE0FF12C06B124507C4F85435
:106F89000FC868FFE5F0C454F0488FF012085B128F
:106F99004507FF9012B9E0FD3395E045F0FEEF4D4E
:106FA90012439504F0026F089012BAE06408701851
:106FB900A3E060147F0812C06B7F2012C06B7F08AA
:106FC90012C06B12437D14F09012BAE0640D600395
:106FD900026F08229012BAE0FF12BEF99012B9EFBF
:036FE900F0F4229F
:107A0F009012BC1244CF9012C2F01206FB7F107E70
:107A1F002712BCB69012BCE030E04F7B017A12798E
:107A2F00C112BDB9EF60E6127AE360129012C2E0A4
:107A3F00640260D99012C1E0FF12C08E804D901287
:107A4F00C1E06408701BA3E060177F0812C08E7F2F
:107A5F002012C08E7F0812C08E12441F12447E1453
:107A6F00F09012C1E0640D70A4227B017A1279C1EB
:107A7F0012BD90EF6097127AE3602A9012C2E06411
:107A8F0002608A9012C1E0FF12C06B12441FC454EF
:107A9F00F01206FB12441FFF9012C0E04F124481F8
:107AAF0004F0027A1C9012C1E06408701BA3E0601E
:107ABF00177F0812C06B7F2012C06B7F0812C06B3C
:107ACF0012441F12447E14F09012C1E0640D600343
:107ADF00027A1C229012C1E0FF12BEF99012C0EF81
:037AEF00F0F4228E
:10498A009011B21244CF9011B8F0F5F012085BE41E
:10499A009011B9F0A3F0A3F0A3F0A3F07F107E2743
:1049AA0012BCB69011B2E020E003024A857B017A7C
:1049BA001179B712BDB9EF60E39011B7E0FFC39464
:1049CA0030405BEFD3943950551244895003024A60
:1049DA00229011B8E0640470C39011BC12442E12E4
:1049EA0042E01243EA1242E0120A53C0001243CBD9
:1049FA00D0001242DD120A5375F0641242D21244F8
:104A0A00E31242D61244981242DD120A47E4FEED3E
:104A1A004C70899011B7E0FF12C08E024B099011B9
:104A2A00B7E064087016A3E060127F0812C08E7F98
:104A3A002012C08E7F0812C08E1243A19011B7E0D7
:104A4A00640D60030249A69011BD12442EA31242BE
:104A5A00E31243EA1242E0120A53C0009011BC1258
:104A6A0043CED0001242A31244281242DD120A4752
:104A7A00E4FFFEED4C600122024B8C7B017A117936
:104A8A00B712BD90EF70030249A69011B7E0FFC3B9
:104A9A0094305003024B32EFD394394003024B3225
:104AAA00124489500612C06B024B099011B8E06497
:104ABA000460030249A69011BC12442E1242E0126D
:104ACA0043EA1242E0120A53C0001243CBD000124A
:104ADA0042DD120A539011BAE075F0641242D612FE
:104AEA0044E31242D61244981242DD120A47E4FE07
:104AFA00ED4C60030249A69011B7E0FF12C06B901B
:104B0A0011BCE0A3F09011BBE0A3F09011BAE0A3AE
:104B1A00F09011B9E0A3F09011B6E09011B9F090BD
:104B2A0011B8E004F00249A69011B7E064087016C3
:104B3A00A3E060127F0812C06B7F2012C06B7F084F
:104B4A0012C06B1243A19011B7E0640D60030249D1
:104B5A00A69011BD12442EA31242E31243EA124256
:104B6A00E0120A53C0009011BC1243CED000124288
:104B7A00A31244281242DD120A47E4FFFEED4C60FC
:104B8A0001229011BE120A479011B3120ACCEE8F7D
:074B9A00F012085B7F01220D
:10B61E00A2A9E433FEC2A9EF70059011348022EF87
:10B62E00B401059011368019EFB4020590113880DF
:10B63E0010EFB4030590113A8007EFB4040890118F
:0EB64E003CECF0A3EDF0AF06EE24FF92A92233
:10BAE300EF70059011348019EFB401059011368081
:10BAF30010EFB402059011388007EFB4030A9011D8
:10BB03003AE0FCA3E0FD8003E4FCFDAF05AE0422B4
:10400700900DD0120AEC120693FF64026004EFB41D
:10401700032012433E900001120823FF901117E07E
:10402700B5F00DA3E0B50708900DDA7401F080072D
:104037008000E4900DDAF012433074011206FB128F
:10404700433E1244BD30E00B124330120693442026
:104057001206FB900DDAE0600B1243301206934410
:10406700401206FB12433E1244BD5430C4540FFFA6
:10407700124330900001EF12070DE92401F9E43AE9
:10408700FAC003C002C001120693FF12433E124456
:10409700BD54C01313543F4FD001D002D0031206B2
:1040A700FB12433E120693FF6027EFB4020A124346
:1040B700301244354408801112433E120693B4036C
:1040C7000D124330124435440C1206FB80037FE87F
:1040D7002212433E1244C3FF6027EFB4020A124381
:1040E700301244354480801112433E1244C3B40356
:1040F7000D12433012443544C01206FB80037FE89B
:1041070022901131E004FFF0124330900002124474
:104117005B7403F012433E12069364027035124239
:10412700FF124336900003120823FF900DD9E024B5
:104137000212432C124336900003120823E5F0FFC6
:10414700900DD9E0240312432C124457E02404F0C5
:1041570002418E12433E1206936403702A12433EB5
:104167001242FF124457E01244D7FEAF0112433EFA
:10417700E92403F9E43AFCAD017B087A00129FB603
:10418700900DD9E0240AF012433E1244C364027032
:1041970054900DDAE06019901119E0FEA3E0FD12CA
:1041A7004330124351A312445BE02402F00242372A
:1041B700901117E0FEA3E0FD124330124351A3EF25
:1041C70012070D901119A3E012435FA3A3EF120783
:1041D7000D901119E012435FA3A3A312445BE024DF
:1041E70004F002423712433E1244C3640370419005
:1041F7000DDAE0600E1243301244EE1242902408AA
:10420700F0802D901117E0FEA3E0FD12433012431A
:1042170060ED12070DEEFF900DD9E0FEF582758374
:1042270000A3EF12070DEE1244D7124290240AF0B2
:10423700900DD9E01244F9EF1206FB12433E9000AD
:104247000D1206AC1244F9EF1206D91244FA7402A1
:104257001206D9900DD6124422D3947F40037FE5EE
:10426700221243301244EEFEAF0112433E90000E7D
:10427700120AF5AC02AD0112433E90000D1206ACD6
:10428700FB7A00129FB67F0022FEAF017C117D1BD7
:0C4297007B087A00129FB6900DD9E0223F
:10A43600E49010CAF0EF04900DD3F0ED04A3F0E41D
:10A44600900DD1F0900DD3E0FF900DD1E0C39F5059
:10A456003EE4A3F0900DD4E0FF900DD2E0C39F50F0
:10A4660018127E60900DD0EFF064156004E0B4E140
:10A4760008900DD2E004F080DB900DD0E07008A3C8
:10A48600E09010CAF08008900DD1E004F080B590FD
:05A496000DD0E0FF22E3
:10B69900C003C002C0017B017A237901900DD31246
:10B6A9000AEC7A0D79CF900DD6120AECD001D002AE
:10B6B900D003124007EF7013900DCFE0902300F0F4
:0CB6C900901132E0FFA3E0FD12A4362235
:020029000022B3
:10BB1300901389EEF0A3EFF0E490110AF0A3F090F4
:10BB23001389E0FEA3E0FFC390110BE09F90110A7D
:10BB3300E09E500B12C6C090110A12447780E02297
:10C6C000E490110CF090110CE004F0E0B401F622BB
:10C6D000E490110DF090110DE004F0E0B409F622A1
:10C6E000E490110EF090110EE004F0E0B430F62268
:10C6F000E490110FF090110FE004F0E0B460F62226
:10C3AC00E4901110F0A3F09011101244779011103A
:0AC3BC00E07004A3E0646970EE2253
:10C3C600E4901112F0A3F09011121244779011121A
:0AC3D600E07004A3E064D270EE22D0
:10C19E00E4901114F0A3F0C3901115E09F901114C8
:10C1AE00E09E500B12C3C690111412447780E82201
:10A36800900D4E120AEC900D51ECF0A3EDF0E49034
:10A378000D54F0A3F0900D51E0FCA3E0FD900D54B6
:10A38800E0FEA3E0FFC39DEE9C503B900D53E0FD23
:10A39800600F7C00120741ED4C7006124442129186
:10A3A80046900D4E120ACC900D54E0FEA3E0F582C3
:10A3B8008E831242F07A3679537F01129146900DBE
:07A3C8005412447780AF221C
:10784300900D4B12443F1291467A3679591278F8CB
:107853001206931244031242F87A367961127906BA
:10786300900001120823FFE5F01242F57A3679768B
:107873001279069000031243731242F87A3679851F
:107883007F011291467A3679981278F8E924051225
:10789300434412A368900D4B120ACC90000F12437D
:1078A300731242F87A3679AB7F011291467BFF7AE5
:1078B3003679C1127912E9241112434412A3689054
:1078C3000D4B1242EA7A3679D712791290001A12C6
:1078D30042F07A3679EB12791E90001C1242F07A4C
