:10AD0000C00F74ADC0E0C082C083750F0A75A1008A
:10AD10000000000022C00F74ADC0E0C082C0837587
:10AD20000F1F75A1010000000022C00F74ADC0E02C
:10AD3000C082C083750F3475A1020000000022C0DC
:10AD40000F74ADC0E0C082C083750F4975A10300C8
:04AD500000000022DD
:0DC8AB00EF90C8B49390AD00730A1F34499C
:10A09D00EB60010A4A601D8C838D8263A2018E8361
:10A0AD008F8263A20100E0A363A201F0A363A2016A
:10A0BD00DBF4DAF222C0A275A2010000C082C083D7
:10A0CD0063A2010000C082C083EB60010A4A601DDB
:10A0DD008C838D8263A2018E838F8263A20100E047
:10A0ED00A363A201F0A363A201DBF4DAF2D083D063
:0DA0FD008263A2010000D083D082D0A22295
:030000000259DAC8
:1059DA007598007599209022E074D9F090270E747A
:1059EA0000F09027027470F09027037400F0E4909E
:1059FA000000F0900000E004F0E0B4C8F690270040
:105A0A007480F09027087400F0902709F0902720FE
:105A1A00F0902721F0902722F0902723F090272456
:105A2A00F0902725F0902726F0902727F090272836
:105A3A00F0902729F090272AF090272BF0759900EB
:105A4A009022E17400F09022E27490F09022E774C0
:105A5A00FFF09022E8F09022E9F09022EAF09022FA
:105A6A00EBF09022ECF09022ED7400F09022EEF030
:105A7A009022EFF09022F0F09022F1F09022F2F0D2
:105A8A00750D18750E00758121C2C112AD0A025A30
:015A9A00D635
:0CC8EA00016800AA005A002D0015000B88
:0A1800004211890000421187000028
:10BEBA00900D246480F8E064809822900D24E0FEBE
:10BECA00A3E0FFC322900D30120A5F900D30020AE0
:0ABEDA0047120ACC900D29020AEC71
:0EC87300902784E054BFF00000E04440F02223
:10A8F400EBD394084004007F1222EDD39403500458
:10A90400EDB40104007F1122EF9022E66026E044BA
:10A9140004F0902781E0440CF09022D4E04480F0CD
:10A92400E054F04BF0AF05EFC43354E0FFE0549F24
:10A934004FF08012E054FBF09022D4E0547FF0906A
:09A944002781E054F3F07F0022AA
:10BE9000EFD394035005ED94034004007F112290EA
:10BEA0002786E054FC4FF0AF05EF25E025E0FF903A
:0ABEB00022D5E054F34FF07F00228A
:10BDDE00ED6005D3940E4004007F1122ED04C4548F
:10BDEE00F0FE9022D5E0540F4EF0EF6006E04402D4
:0DBDFE00F080079022D5E054FDF07F002278
:10C2E100A2AFE433FFC2AF9022D7E0FDE0FEEF241E
:10C2F100FF92AFAF06EFFEEDFF7C007D10120796B7
:01C301002219
:10C775009022D6E05478131313541FFF60011F2233
:10B3B10074FFF5F012085B7F13E4901181F0A3F0A4
:10B3C1009022D6E05470600D12C2E1EE8FF01208A7
:10B3D1005BE4FF8019901181E475F0011207CCC381
:10B3E100901182E094D0901181E0940740D2EF60F7
:03B3F10001002236
:1099D500AA05EBD394084004007F1222EAD394032E
:1099E5004004007F1122EF60557D02E4FF12BDDEC9
:1099F500AF02AD077F0112A8F4AC07EC704912C89D
:109A0500739012EAE025E024EAF582E434C8F58390
:109A1500E493FF740193901183CFF0A3EFF0E4A3D7
:109A2500F0A3F090118312BEC8901186E09F9011AB
:109A350085E09E5012E475F0011207CC80E5E4FB49
:0A9A4500FDFF12A8F4AC07AF0422E5
:10BB3E00900D00120AECEFD394084004007F1222FD
:10BB4E00AB07E4FD7F011299D5EF600122900D0045
:10BB5E00120ACC12B3B1EF600122E4FBFDFF129981
:04BB6E00D57F00225D
:106DF100900D22EEF0A3EFF0A3ECF0A3EDF0900DD7
:106E010028E0FFC3940A4006EFD3940F4004007FAB
:106E11001122900D2212BEC8900D25E09FEE12BEE8
:106E2100BA4004007F142212BEC5900D23E09FFFDB
:106E3100900D22E09E900D2CF0A3EFF0D3900D2544
:106E4100E09BEA12BEBA4009E4900D2EF0A3F08057
:106E510029C3900D23E09BEA900D2212BEBD500B79
:106E6100900D2CE0FFA3E0A3CF800B12BEC5EB9FDA
:106E7100FFEA9E900D2EF0A3EFF0900D28E0FF7435
:106E8100017E00A807088005C333CE33CED8F9248C
:106E9100FFFFEE34FFFEE4FCFD900D30120A5F901F
:106EA1000D2EE0FEA3E0FFE4FCFDA3120A5312083D
:106EB100B412BECFC006C007900D2CE0FEA3E0FBCC
:106EC100AA06E4F9F8D007D00612093F12BECFEEA8
:106ED100547FFE900D29120ACCEE8FF012085B7FD1
:026EE10000228D
:0CC8D2007B017A1179897F0712BB3E229E
:0CC8DE007B017A1179877F0812BB3E2293
:10AAAE00900D1D120AEC900D1CEFF0C3940A400697
:10AABE00E0D3940F4004007F11227B017A0D7920A0
:10AACE0012B3B1EF600122901189E0FEA3E0FF9076
:10AADE001187E0FCA3E0FD900D1CE0900D28F09096
:10AAEE000D1D12BEDB900D20E0FAA3E0FB126DF1FE
:07AAFE00EF6001227F00223E
:1095350090116CEDF0A3120AEC90116BEFF0D3943F
:10954500084004007F122290116CE0FFC3940A408A
:1095550006EFD3940F4004007F11227B017A117925
:10956500727F0712BB3EEF6001227B017A11797091
:109575007F0812BB3EEF60012290116BE0FF7B017B
:109585007A11797412BB3EEF600122901172E0FEF0
:10959500A3E0FF901170E0FCA3E0FD90116CE0905A
:1095A5000D28F090116D12BEDB901174E0FAA3E066
:0B95B500FB126DF1EF6001227F00222D
:04180A004112EA009D
:10AB5C00E4FDEF14601414601514601614601714DF
:10AB6C006018240570187E088016E4FE80127E2082
:10AB7C00800E7E40800A7E6080067E0C80027D12F4
:10AB8C00ED600300FF229012EAEFF0538E10EE42BC
:10AB9C008EE58E90278530E306E04404F08004E0D7
:06ABAC0054FBF07F0022C3
:030026008F98228E
:03002E008F992285
:030036008F9A227C
:08180E004112D8004112D9007B
:10C62500A2AFE433FEC2AFEB9022EF22AF06EE24B9
:06C63500FF92AF7F00221E
:10B57D00E5B420E204007F102212C62530E106E07A
:10B58D004404F08004E054FBF0EB30E003D3800181
:10B59D00C39288ED24FF92B8EF24FF92A89022F277
:10B5AD00E030A8054404F0800354FBF012C63122AC
:10B5BD00E5B420E304007F112212C62530E106E038
:10B5CD004408F08004E054F7F0EB30E003D3800141
:10B5DD00C3928AED24FF92BAEF24FF92AA9022F231
:10B5ED00E030AA054408F0800354F7F012C631226A
:041816004112EB8010
:1072A300E0FEA3E0FFF5828E83A3A31206AC902732
:1072B30005F08F828E83A3A3A31206AC902704F05C
:1072C3009012EBE04401902700F022F09012A2E02C
:1072D300F58A9012A0E0F58C22E0FEA3E0FFF58290
:1072E3008E831206AC902707F08F828E83A312063B
:1072F300AC902706F022FFE0FAA3E02DF582EA3CEA
:10730300F583E4936F22900D07E475F0010207CC37
:10731300900D05E0FEA3E0A3FFE0FCA3E0FDC39F07
:10732300EC9E229027007480F09027027470F0A3E3
:10733300E4F0902708F0A3F07F0122E0FEA3E090A1
:107343002703F0EE902702F022FFEEF0A3EFF043C5
:10735300992090270EE4F09012EAE0229027097416
:1073630001F0902708E4F022120ACC8D828C83026C
:1073730006ACEEF0A3EFF0EE54014F22CFF0A3EFF3
:0D738300F0E422900D0B120A5F900D0B221A
:06CA6200E49012EBF0224B
:07CA54009012EB7480F02248
:10B9890090270EE4F090270DE020E0F90000000078
:10B99900EF127342902708E4F0A304F09012EBE051
:10B9A9004402902700F00000000090270DE020E0FD
:08B9B900F99027007480F022D0
:100E7F00900D4C120AEC900D4A1273756004007FAE
:100E8F001422900D4AE0FEA3E07802CEC313CE13D6
:100E9F00D8F9900D5612734C70047F808002E4FFD6
:100EAF0012A24A9012EBE0701D902700E064807050
:100EBF0015902708E0700FA3E0700B902702E0B4A5
:100ECF007004A3E06009900D587413F0020FE4E46E
:100EDF00FF12B133E4900D5DF012BFAF900D56E0ED
:100EEF00FEA3E0FF12B989900D4FE030E00AE490C5
:100EFF000D581272CE020FE490270DE020E0F91288
:100F0F00735F900D50F0A3F0900D56E0FFA3E090AB
:100F1F000D54CFF0A3EFF0900D52E4F0A37480F0D6
:100F2F0012BFAF900D5412733E900D4C120ACC901D
:100F3F000D501272DC900D501272A3000000009041
:100F4F000D50E475F0041207CC900D5412730C90F1
:100F5F000D5274FFF5F01207CC900D52E07002A302
:100F6F00E070BD90270DE020E0F91272CF900D4A8E
:100F7F00E0FFA3E0900D5912737F900D58F0900D84
:100F8F005BF0A3F0900D5BE0FEA3E0FFC3EE9402D5
:100F9F00502E900D4C120ACC8F828E831206ACFF0E
:100FAF00900D5BE0FCA3E0FD900D591272FA600802
:100FBF00900D587415F08008900D5B12730C80C45F
:100FCF00900D58E0600F900D5DE004F0E0C39404C5
:100FDF005003020EE812732612A24A5399DF7F01C3
:0C0FEF0012B133900D58E0FF60010022A9
:1051520090110F120AEC90110D1273756004007F0A
:10516200142290110DE0FEA3E07802CEC313CE13F9
:10517200D8F990111A12734C70047F808002E4FFF8
:1051820012A24A9012EBE0701D902700E06480703A
:1051920015902708E0700FA3E0700B902702E0B48F
:1051A2007004A3E0600990111C7413F00252CFE462
:1051B200FF12B133E4901121F012BFAF90111AE047
:1051C200FEA3E0FF12B989901112E07002A3E07011
:1051D2000990111C1272CE0252CF90270DE020E0EE
:1051E200F912735F901114F0A3F090111AE0FFA36B
:1051F200E0901118CFF0A3EFF0901112E0FCA3E0C1
:10520200FDAE047802CEC313CE13D8F9FF90111667
:10521200EEF0A3EFF0ED5403600A901116E475F07E
:1052220001025266901116E07002A3E0603C12BFC8
:10523200AF90111812733E90110F120ACC901114F4
:105242001272DC9011141272A3000000009011146B
:10525200E475F0041207CC90111812730C90111619
:1052620074FFF5F01207CC02522690270DE020E0E1
:10527200F91272CF90110DE0FFA3E090111D12738D
:105282007F90111CF090111FF0A3F0901112E0FE1C
:10529200A3E090111F12731B501E90110F12736B1B
:1052A20090111D1272F9600890111C7415F080089B
:1052B20090111F12730C80D390111CE0600F90119B
:1052C20021E004F0E0C3940450030251BB127326A0
:1052D20012A24A5399DF7F0112B13390111CE0FFF1
:0452E2006001002245
:10824100900D00EEF0A3EFF0A3120AEC900D00E008
:10825100FEA3E0FFE4FCFD127386120A53900D06A3
:10826100E024FFFF900D05E034FFFEE4FCFD120861
:10827100A7127386120A47ED4C6004007F1222E4B4
:10828100900D0AF0900D00E0FFA3E0900D0F127326
:108291007F900D09F0E4900D07F0A3F012731350D5
:1082A10029900D0FE0FEA3E02DF582EE3CF583E46D
:1082B10093FF900D02120ACC900D07A3E0F5828C7A
:1082C10083EF12070D12730980D2E4900D07F0A31A
:1082D100F0127313501B900D0212736B900D0F125D
:1082E10072F96008900D0A7416F080051273098006
:1082F100E0900D0AE0600B900D09E004F0E06404E9
:088301007093900D0AE0FF22C9
:10C63B00AF04E0FDA3E0FB12C09BEF22EDF0A3EBF8
:06C64B00F0AC07E59822A7
:0BC91A00EF6004439810225398EF22B6
:10C09B00EFD394074008EF640A60037F1222ED6030
:10C0AB0009EBD39401400C7F1122EBD39402400394
:06C0BB007F11227F00222C
:1083C800900CFE12C64720E404007F1022900CFE99
:1083D80012C63B60020022EC120B7E840200840865
:1083E80001840E02841403841A048420058426065A
:1083F800842C0784320A000084367E0179FE802EA0
:108408007E0279FD80287E0479FB80227E0879F738
:10841800801C7E1079EF80167E2079DF80107E40E8
:1084280079BF800A7E80797F80047EFFE4F9900C12
:10843800FEE06019E952B19022EAE059F0900CFF91
:10844800E06005EE42C18032E952C1802D900CFFF8
:10845800E0FF700E9022EAE04EF09022E7E04EF046
:108468008012EF9022EAB40108E04EF09022E780F3
:0D84780000E059F0EE42B1EE42B97F002263
:10848500900CFE12C64720E404007F1022900CFEDB
:1084950012C63B60020022EC120B7E84BF0084C52D
:1084A5000184CB0284D10384D70484DD0584E306EB
:1084B50084E90784EF0A000084F37E0179FE802EAB
:1084C5007E0279FD80287E0479FB80227E0879F77B
:1084D500801C7E1079EF80167E2079DF80107E402B
:1084E50079BF800A7E80797F80047EFFE4F9900C55
:1084F500FEE06019E952B29022EBE059F0900CFFD2
:10850500E06005EE42C28032E952C2802D900CFF38
:10851500E0FF700E9022EBE04EF09022E8E04EF086
:108525008012EF9022EBB40108E04EF09022E88033
:0D85350000E059F0EE42B2EE42BA7F0022A3
:10830900900CFE12C64720E404007F1022AF0490AF
:108319000CFE12C63D60020022EC120B7E83450062
:10832900834B01835102835703835D048363058370
:108339006906836F0783750A000083797E0179FED8
:10834900802E7E0279FD80287E0479FB80227E08BA
:1083590079F7801C7E1079EF80167E2079DF8010F6
:108369007E4079BF800A7E80797F80047EFFE4F9B0
:10837900900CFEE06019E952B49022ECE059F090BB
:108389000CFFE06005EE42C48032E952C4802D90B2
:108399000CFFE0FF700E9022ECE04EF09022E9E035
:1083A9004EF08012EF9022ECB40108E04EF09022DA
:0F83B900E98000E059F0EE42B4EE42BC7F0022B2
:0C181A004112C0004112C1004112C20086
:08CA1C00EDF0A3EBF0E592221E
:04C4C700E0FD7F0114
:10C4CB00ED600543F904800353F9FBEF600443E986
:06C4DB00042253E9FB22DC
:0BC92500EF6004439202225392FD22B7
:108A400090128912CA1C20E104007F102290128B20
:108A5000E0D394034004007F2022E4FDEF120B7E5C
:108A60008A7F008A85018A8B028A91038A97048A09
:108A70009D058AA3068AA9078AAF0A00008AB579EC
:108A8000017EFE803279027EFD802C79047EFB809F
:108A90002679087EF7802079107EEF801A79207E73
:108AA000DF801479407EBF800E79807E7F800879D8
:108AB000FFE4FE80027D30ED600300FF229012890A
:108AC000E0602790128BE0FF30E105E942EA800385
:108AD000EE52EAEF30E005E942EB8003EE52EBE9BB
:108AE00042EC90128A12C4C78003EE52EC7F00223F
:0BC93000EF6004439204225392FB22AC
:108AF00090128D12CA1C20E204007F112290128F66
:108B0000E0D394034004007F2122E4FDEF120B7EAA
:108B10008B2F008B35018B3B028B41038B47048BE2
:108B20004D058B53068B59078B5F0A00008B6579C7
:108B3000017EFE803279027EFD802C79047EFB80EE
:108B40002679087EF7802079107EEF801A79207EC2
:108B5000DF801479407EBF800E79807E7F80087927
:108B6000FFE4FE80027D31ED600300FF2290128D54
:108B7000E0602790128FE0FF30E105E942F28003C8
:108B8000EE52F2EF30E005E942F38003EE52F3E9F2
:108B900042F490128E12C4C78003EE52F47F00227A
:0BC93B00EF6004439208225392F722A1
:108CF50090129112CA1C20E304007F132290129354
:108D0500E0D394034004007F2322E4FDEF120B7EA1
:108D15008D2E008D34018D3A048D40058D46068DCE
:108D25004C078D520A00008D5879017EFE80267908
:108D3500027EFD802079107EEF801A79207EDF800B
:108D45001479407EBF800E79807E7F800879FFE4AC
:108D5500FE80027D33ED600300FF22901291E060FA
:108D650027901293E0FF30E105E942FA8003EE52C5
:108D7500FAEF30E005E942FB8003EE52FBE942FCE5
:0E8D850090129212C4C78003EE52FC7F0022AF
:0DC8B800F0A3F0EF24FF92AF902190E0225A
:06CA6800902191EFF02285
:10C78500EF9021916005E04402F022E054FDF02293
:10C79500EF9021916005E04404F022E054FBF02283
:10C7A500EF9021916005E04408F022E054F7F02273
:10C7B500EF9021916005E04410F022E054EFF02263
:09CA0100902158EFF0EEA3F022A1
:09CA0A0090215AEFF0EEA3F02296
:0FC85500AC02AD017B087A007F507E2102A09DCE
:10C4E100A2AFE433FFC2AF902004E4F09020011228
:0AC4F100C8B84440F0E054BFF02248
:10C4FB00A2AFE433FFC2AF902084E4F0902081120E
:0AC50B00C8B84420F0E054DFF0222D
:0BC946007F1612CA6812C4E102C4FB95
:0C182600411202004111FD0041120100BE
:10900700E5E8F0A3E5E9F0AFA875E902E4F5E8754E
:10901700A8809027927483F090279EE0C2AF902794
:1090270093E0E4F583D2AF2290279F7444F0902712
:1090370092E0547FF0E49011FDF022120ACC8E8268
:109047007583001206AC902790F0E4F583D2AF2227
:109057009027927480F022E0547F25E0902791F0CA
:1090670022FEE4901202F0902792E0229011C4E0D1
:1090770004F0E0C3942022EFF0A3EDF0A3120AEC72
:10908700E422E004F09011FDE02212C41F90279221
:0A909700E022E0F5E88FA8AF052203
:0BC95100EF60044399802253997F227D
:10A65000E59920E704007F1022901297E0FEC39452
:10A66000125004007F1122EF6041A2AFE433FFC219
:10A67000AF902794EEF090279674FFF0902795E422
:10A68000F0902793E090279EE0EB90279230E00532
:10A6900074A3F080037483F053F9FDED600343F974
:10A6A0000243E902EF24FF92AF800653E9FD1290C6
:04A6B000577F0022AE
:10C41F00E49011FBF0A3F09011FBE475F00112070B
:0EC42F00CC9011FBE07004A3E0640A70EA22D6
:108775009011B312907E9011BBF0E59920E70400AB
:108785007F10229011B8E0FE70028006EED3940FA0
:108795004004007F1122E4FFFE12BE0B9011B912B6
:1087A50090079011B312905EC2AF9011B4E0129091
:1087B5004DFE9011B8E0FDEEC39D500BC2AF901178
:1087C500B51290420E80EB12902F9011B8E0240262
:1087D5001290684470F0E4FD9011BB12908960041A
:1087E5007D128012901202E06E600B9011BBE0C307
:1087F500944040E47D80ED700612909154EFF0E4D2
:108805009011BBF030960320970A9011BB12907619
:1088150040F27D801290579011BAE0F5E99011B9B8
:0488250012909922F2
:10681F009011BC12907E9011C4F0E59920E704000E
:10682F007F10229011C1E0FE70028006EED394100B
:10683F004004007F1122E4FFFE12BE0B9011C21222
:10684F0090079011BC12905EC2AF9011BDE01290F4
:10685F004D9011C1E0902797F012902F7E02129069
:10686F006A447CF0E4FD9011C412908960047D129B
:10687F008012901202E06E600B9011C4E0C394502E
:10688F0040E47D80ED6014E49011C4F03096032055
:10689F00976B12907340F57D80806212909154F740
:1068AF00F0902791E04401F0E49011C4F09011FDB5
:1068BF00E0700E9011C4E004F0E0C394E040EE7D70
:1068CF0080E4FE9011C1E0FCEEC39C501EC2AF905D
:1068DF002790E0FC9011BE120ACC8E82758300ECDB
:1068EF0012070DE4F583D2AF0E80D8E49011C4F0F7
:1068FF0030960320970712907340F57D80129057C2
:0D690F009011C3E0F5E99011C21290992299
:10898F00901203EF12908290120AF0E59920E704FB
:10899F00007F1022901207E0FE70028006EED39443
:1089AF00104004007F1122E4FFFE12BE0B9012084C
:1089BF0012900790120312905EE4FE901207E0FDF2
:1089CF00EEC39D500BC2AF9012041290420E80EB7B
:1089DF0012902F901207E0041290684470F0E4FD9B
:1089EF0090120A12908960047D128012901202E098
:1089FF006E600B90120AE0C3944040E47D80ED70EE
:108A0F000612909154EFF0E490120AF03096032082
:108A1F00970F90120AE0FE04F0EEC3941040ED7D24
:108A2F0080129057901209E0F5E990120812909970
:018A3F002214
:10774100901176EFF0A3120AECE59920E704007F8F
:107751001022E4FFFE12BE0B90117DE5E8F0A3E5D7
:10776100E9F0A3E5A8F0129010901176E0547F257E
:10777100E04401902791F090117AE0FFD3941040FA
:107781000B9027977410F0EF24F0800990117AE0A4
:10779100902797F0E4901201F012902F901201E0DF
:1077A100901180F0E4901202F0901177120ACC90BF
:1077B10011FE120AEC902792E04474F0E490117BE0
:1077C100F09011FDE060FAE490117CF0902797E0D1
:1077D100FF90117CE0FEC39F502DC2AF902790E037
:1077E100FFEEFD901180E02DFDE433FC9011771246
:1077F1000ACC8D828C83EF12070DE4F583D2AF9012
:10780100117CE004F080C53096FD3097FA12905754
:1078110090117EE0F5E990117DE0F5E890117FE0AF
:08782100F5A890117BE0FF22A5
:10B17B0015660AB30AB2055906B4035A035C01AE4D
:10B18B0001C200E10104008201D200E90112008931
:10B19B0000B20059008A0045008A0045008A00452C
:10B1AB00023001180118008C0096004B004600235A
:08B1BB00003C001E003C001ED8
:101832004111400041113F0341113E0041113D0061
:0418420041113C0014
:10ADA50075F002120AC0E493FF740193901134CF39
:10ADB500F0A3EFF0E4A3F0A3F0229022007438F0A2
:10ADC50090113FE025E025E022901134E0FEA3E05C
:10ADD500FFC3901137E09F901136E09E2290113607
:0EADE500E475F0010207CC9022007434F022D5
:0EC88100EF30E0047F018002E4FF127BB5225D
:07CA5B00902200741CF02280
:108D9300900D28EEF0A3EFF0A3EDF0600B90278386
:108DA300E4F09022D07488F0A2AFE433900D2BF05E
:108DB300C2AF90228DE0900D2CF07F1112CA249047
:108DC3002200742CF07F13E4901132F0A3F0900D85
:108DD30028E0FCA3E0FDC3901133E09D901132E045
:108DE3009C502190228DE020E612A3E05407FE70F0
:108DF30003FF8010EEB404047F1280089011321236
:108E0300ADE580CA90228F74FFF0900D2CE0902284
:108E13008DF0900D2BE024FF92AF900D2AE06009B6
:0E8E2300EF70069022D07484F0EF6001002200
:10C753007F0A12CA24E4FD7F0112C3847F0102C74A
:01C76300C510
:109A4F00900D1CEFF0BF04028009900D1CE0D39421
:109A5F00054004007F182212ADECE4FF12B13390E1
:109A6F000D1CE0FF12A9FE900D1CE014601614608F
:109A7F001B14602024FE602424057026902211748C
:109A8F0009F0801E9022117405F080169022117437
:109A9F0003F0800E9022117402F080069022117450
:109AAF0010F0902200743CF07F0112B133900D1C26
:089ABF00E090113FF07F00224E
:10AEDB009012ECEFF012A9FE9012ECE0FF1460164A
:10AEEB0014601B14602024FE60242405702690221D
:10AEFB00117409F0801E9022117405F080169022B7
:10AF0B00117403F0800E9022117402F080069022CF
:0CAF1B00117410F090113FEFF07F002245
:10B8A5009012EDEFF07F03129A4F9012EDE0902287
:10B8B500246013E04440F0902785E04408F090228E
:10B8C50037E04480F022E0543FF0902785E054F7BC
:09B8D500F0902237E0547FF022CC
:10854200900D1CEFF0C3940B4006E0D3941A400444
:10855200007F172212ADECE4FF12B133900D1CE044
:10856200120B7E85990B859D0C85A10D85A50E8527
:10857200A90F85AD1085B11185B51285B91385BDD9
:108582001485C11585C51685C91785CD1885D119DC
:1085920085D51A000085E17F65803A7F6A80367F43
:1085A2006F80327F74802E7F79802A7F7E80267F43
:1085B2008380227F88801E7F8D801A7F9280167F23
:1085C2009780127F9C800E7FA1800A7FA680067F03
:1085D200AB80027FB07E091286BC900D1DEFF09039
:1085E2000D1DE060040002855E902200743CF07F65
:0D85F2000112B133900D1DE0FF6001002269
:0FC86400E4FE902284E0FF70050EEEB4FAF42299
:08CA2400EF541F90228DF02257
:10C57D00A2AFE433FEC2AFED24FF92F8EF24FF9299
:09C58D00E8AF06EF24FF92AF2293
:10B13300EF603D90228EE054F7F0E04408F0759103
:10B1430010A2AFE433FFC2AF902084E4F0902081DB
:10B15300F0A3F0EF24FF92AFE490113EF090219022
:10B16300E04420F0E054DFF0902201E054FEF022AE
:08B17300902201E04401F022EA
:06CA6E00EF24FF92AF224D
:03003E0002747DCC
:107F1300902002E4F0902303E0902192F0902280DD
:107F2300E05470FF6007641060037F152290113DD9
:107F33007401F0901140E0547DF0900DD574E1F0A0
:107F430012003E12ADBF247BF582E434B1F583C049
:107F530083C0829012EAE0D082D08312ADA512AD25
:107F6300CE5013901140E030E107E4900DD5F0803E
:107F73000512ADE280E8900DD5E0B4E10F12ADEC4F
:107F8300902002E4F090113DF07FE122E490113D56
:107F9300F0900DD5F0902301E030E539900DD574C4
:107FA300E9F012ADC52493F582E434B1F583C083BF
:107FB300C0829012EAE0D082D08312ADA512ADCE7A
:107FC3005013901140E030E707E4900DD5F08005A1
:107FD30012ADE280E8902002E4F0900DD5E0FF229C
:1090A10090113DE060030291389023807405F0A394
:1090B1007402F0EF6004E04410F0902382E4F0A326
:1090C100EDF090222CE0900E11F090222CE0442043
:1090D100F09020027480F0902280E054706004646B
:1090E10010704712ADBF24ABF582E434B1F583C0F3
:1090F10083C0829012EAE0D082D08375F002120A16
:10910100C0E493FF74019390113812ADB4901138FB
:10911100E0FEA3E0FFC390113BE09F90113AE09E77
:10912100500512ADE580E612ADEC902002E4F0901E
:089131000E11E090222CF02247
:10C38400EDD394024004007F1122EF6009ED4410C4
:0FC3940090222CF0800690222C7430F07F002233
:06CA740090222DEFF022DC
:10C7C500EF90227E6005E04408F022E054F7F02265
:1096D2009012DAEFF0D394034004007F112290122B
:1096E200DAE0FE700A90113CE07004007F1622E47A
:1096F2009012DBF0EEB4010D12CA5B7F011297509B
:109702007401F080439012DAE0B4020D12CA5B7F5A
:10971200021297507402F0802F9012DAE0B4031014
:1097220012CA5B7F0312A1E090113C7403F080180F
:10973200E4FF12A1E0E4FD7F107E27128D939012C8
:10974200DBEFF0E490113CF09012DBE0FF2212A17B
:05975200E090113C2233
:10C7D500EFD394164004007F1122125E917F002250
:10C7E500EF6009AF0512C6E1439EC022539E3F226A
:0EC88F00EF600712CA4C439CC022539C3F220C
:10B8DE00902281E0541FD39402402D9022BDE0208F
:10B8EE00E0267F019022B0E04401F0E4FDFC9022BE
:10B8FE00BDE030E004E4FF800B0DBD00010CBC0385
:09B90E00EDBDE8EAEF70DD222234
:081846004112DD004112DC003B
:106C0B009022EDE06580FF9022F0E05FFF9022EE96
:106C1B00E06590FE9022F1E05EFE9022EFE065B021
:106C2B00FC9022F2E05CFC9022F0E022E5E8F0AD73
:106C3B009AA9E9759A07E4F5E8F5E99022E1746EF3
:106C4B00F09022E6E054FBF0E054E7F022E09022D3
:106C5B00E5F09022E27490F0D2D875E88075A880A8
:106C6B0022E0FEEFF4FCEE5CF022EEF0A3EFF0A3DB
:106C7B00EDF0A3EBF09022F0E055B9FFE06F22E0CE
:106C8B00FAA3E0FBEA9022E3F0A3EBF022E5A8F0F5
:106C9B00E4F5A89022EBE0229022F1E055BAFFE058
:106CAB006F229022F2E055BCFFE06F22EF4404FF0D
:106CBB009022EBE054E7F022AF058F9AD2D8538F96
:106CCB00BF22E0FEEFF4FFEE5FF022FFE054033350
:106CDB00333354F8FEEF4E22EF9022E0F0E4F59AB6
:106CEB0022E0F5E8AF018FE92254012FFFE0FDA868
:036CFB0006082266
:10B20B00ED24FF92FCEF6033EB4A700A901269E079
:10B21B007004007F11229022E1746EF0126C8F90FB
:10B22B001269E09022E5F0A3E054E7F0E04480F0EF
:10B23B00D2EC9022E0E04420F08009C2EC9022E0B6
:07B24B00E054DFF07F002258
:10BD5400900D1CEFF020E0069022E07498F09027FC
:10BD640083E4F012CA5B902780E4F0A3F0900D1CEA
:0EBD7400E030E007902203E0547FF07F0022D1
:10BFFF009022E074D8F090278074F6F0A37423F0A9
:10C00F0012C019EF600312C0192212CA5BE4FD7F40
:07C01F00107E27128D932211
:109BB5009012C3EFF0A3EDF0A3EBF0E4FFFE9012DB
:109BC500C3E0FDA806088002C313D8FC9012C41296
:109BD5006CF48002C313D8FC9012C5126CF4800299
:109BE500C313D8FC54012FFF0EEEB407D1EFC39475
:109BF500024004007F1122E4FFFE12BE0BAFA8AEA7
:109C0500E8ADE99012C3E0547FF5A8A3E0F5E8A319
:109C1500E0F5E943A8807587010000E4F5A88DE922
:069C25008EE88FA8FF226B
:105D7700900D1C126C756002800C126CA36002807F
:105D870005126CAD6004007F1522900D1FE0D394BF
:105D9700034004007F112212CA5BE4900D26F0FF36
:105DA700FE12BE0B900D21126C98900D27F09022D9
:105DB700E1E0900D25F09022E0E0900D24F0902294
:105DC700E6E0900D23F0900D22126C37900D20E045
:105DD700FC9022E630E706E0547FF08004E0448040
:105DE700F09022E6C083C082E0900D1F126CD6D0DF
:105DF70082D083F0900D1C126C8A900D1E126C5885
:105E07007FB9EC30E004EF54DFFF900D20E030E184
:105E170003126CB7126CE3E5D220E5FB126C0B6F33
:105E2700701DAF06A3E06F7016AF04A3E0B5040FB3
:105E37007587020000000000000000000080069047
:105E47000D267412F0126CC3900D22126CEC900D9B
:105E570024E09022E0F0900D23E09022E6F0900DF0
:105E670025E09022E1F0900D27E09022EBF0900DD5
:105E770021E0F5A8900D26E0600100E4FD7F107E8B
:0A5E870027128D93900D26E0FF22F4
:1065110090115F126C756002800C126CA360028096
:1065210005126CAD6004007F1522901162E0D394D6
:10653100034004007F1122E4901169F07F107E274F
:1065410012BE0B901164126C9890116AF09022E1C6
:10655100E0901168F09022E0E0901167F09022E65F
:10656100E0901166F0901165126C37901163E0FCB8
:106571009022E630E706E0547FF08004E04480F0AA
:106581009022E6C083C082E0901162126CD6D08264
:10659100D083F090115F126C8A901161126C587F58
:1065A100BAEC30E004EF54DFFF901163E030E10317
:1065B100126CB7126CE3E5D220E5FB126C0B6F7025
:1065C1001DAF06A3E06F7016AF04A3E0B5040F750D
:1065D100870200000000000000000000800690110A
:1065E100697412F0126CC3901165126CEC90116712
:1065F100E09022E0F0901166E09022E6F0901168C0
:10660100E09022E1F090116AE09022EBF0901164A9
:0C661100E0F5A8901169E0FF6001002294
:1076560090120BEF126C7F6002800C126CA360021A
:107666008005126CAD6004007F1522E4901211F0C3
:107676007F107E2712BE0B90120C126C989012127D
:10768600F09022E1E0901210F09022E0E090120FCC
:10769600F09022E6E090120EF090120DE5E8F0AFC1
:1076A6009A126C3C126C5D7E9B90120BE030E107E7
:1076B600EE4404FE126CBBEE126CE4E5D220E5FB50
:1076C6009022EDE06580FE9022F0E05EFE9022EED4
:1076D600E06590FD9022F1E05DFD126C256E701D57
:1076E600AE05A3E06E7016AE04A3E0B5040F758771
:1076F6000200000000000000000000800690121149
:107706007412F0126CC590120D126CEC90120FE010
:107716009022E0F090120EE09022E6F0901210E037
:107726009022E1F0901212E09022EBF090120CE021
:0B773600F5A8901211E0FF6001002296
:10B25200EFD394074004007F16227401A8070880E8
:10B2620002C333D8FCFF9022EAE04FF0EB9022EDCC
:10B27200600BE04FF09022E7126C6C8009126C6C4C
:10B282009022E7E04FF0ED9022F06005E04FF08071
:07B2920003126CCD7F0022C6
:10B29900EFD394074004007F16227401A8070880A1
:10B2A90002C333D8FCFF9022EBE04FF0EB9022EE83
:10B2B900600BE04FF09022E8126C6C8009126C6C04
:10B2C9009022E8E04FF0ED9022F16005E04FF08028
:07B2D90003126CCD7F00227F
:10B2E000EFD394074004007F16227401A80708805A
:10B2F00002C333D8FCFF9022ECE04FF0EB9022EF3A
:10B30000600BE04FF09022E9126C6C8009126C6CBB
:10B310009022E9E04FF0ED9022F26005E04FF080DE
:07B3200003126CCD7F002237
:10964A00EFF07F807E387D017C00A3120A53D3029B
:10965A0009ECE0FCE4120336E4FBFA79C87842022A
:10966A00028F120A537F007E127D7A7C0002093F24
:10967A00E47F7BFEFDFC120A53C30209EC12018649
:10968A0012036AAB07AA06EB4A22ECF0A3EDF0A993
:10969A0007E59A22E0FCA3E0FDE4020331C3EB9460
:1096AA0020EA940322AD03EDF0EAFF22FFE0FCA3D7
:1096BA00E0FD22AD03EDF0EAFF22E47F7BFEFDFC34
:0896CA0022FFE0FCA3E0FD22F9
:05C476007481F07F015C
:10C47B00ED600543F908800353F9F7EF600443E9D6
:06C48B00082253E9F7222C
:0BC95C00EF6004439A0822539AF72270
:10A31C0090122A12969420E304007F1222C390120A
:10A32C002BE09B90122AE09A5004007F112290257A
:10A33C00867420F0E9603990122AE0FEA3E09025A3
:10A34C0083F0EEF9902582F09025851296AF90253A
:10A35C0084F09025867409F0902583EDF090258289
:10A36C00EFF090122AA3E0902585F0902584E9F077
:07A37C00E490122EF0FF2215
:10B5FD00E59A20E304007F12221296A75004007FE3
:10B60D0011229025867420F0EF601E902583EBF0BB
:10B61D00EA902582F0A3E0902585F0902582E090B8
:10B62D002584F090258612C476E490126EF0FF22E8
:109FC1009011C512964A501A9011C612967A5002F3
:109FD10080109011CAE0FFD394635006EFC394013F
:109FE1005004007F11229011C612966C9011CCEE94
:109FF100F0A3EFF09011CA12965CC004C005C00630
:10A00100C0079011CC12969ED003D002D001D0008F
:10A011001296877003FA7B019011C5E09011CC1262
:0EA0210096B69011CBE090122EF012A31C22E6
:0BC96700EF6004439A1022539AEF2265
:10A3830090123012969420E404007F1322C390129B
:10A3930031E09B901230E09A5004007F1122902507
:10A3A3008E7420F0E96039901230E0FEA3E090252E
:10A3B3008BF0EEF990258AF090258D1296AF9025BB
:10A3C3008CF090258E7409F090258BEDF090258A02
:10A3D300EFF0901230A3E090258DF090258CE9F0FA
:07A3E300E4901234F0FF22A8
:10B63D00E59A20E404007F13221296A75004007FA0
:10B64D00112290258E7420F0EF601E90258BEBF06B
:10B65D00EA90258AF0A3E090258DF090258AE09060
:10B66D00258CF090258E12C476E4901273F0FF2293
:10A02F009011CE12964A501A9011CF12967A500272
:10A03F0080109011D3E0FFD394635006EFC39401C7
:10A04F005004007F11229011CF12966C9011D5EE13
:10A05F00F0A3EFF09011D312965CC004C005C006B8
:10A06F00C0079011D512969ED003D002D001D00018
:10A07F001296877003FA7B019011CEE09011D512E2
:0EA08F0096B69011D4E0901234F012A3832202
:0BC97200EF6004439A2022539ADF225A
:10A3EA0090123612969420E504007F1422C390122C
:10A3FA0037E09B901236E09A5004007F1122902594
:10A40A00967420F0E96039901236E0FEA3E09025B8
:10A41A0093F0EEF9902592F09025951296BD90252D
:10A42A0094F09025967409F0902593EDF09025927A
:10A43A00EFF0901236A3E0902595F0902594E9F07C
:07A44A00E490123AF0FF223A
:10B67D00E59A20E504007F14221296A75004007F5E
:10B68D0011229025967420F0EF601E902593EBF01B
:10B69D00EA902592F0A3E0902595F0902592E09008
:10B6AD002594F090259612C476E4901278F0FF223E
:109DFF009011D712964A501D1296C49011D81296F0
:109E0F0080500280109011DCE0FFD394635006EF76
:109E1F00C394015004007F11229011D812966C90B8
:109E2F0011DEEEF0A3EFF09011DC12965CC004C0CF
:109E3F0005C006C0079011DE12969ED003D002D047
:109E4F0001D0001296877003FA7B019011D7E09032
:109E5F0011DE1296CB9011DDE090123AF012A3EAC8
:019E6F0022D0
:0BC97D00EF6004439A4022539ABF224F
:10A4510090123C12969420E604007F1522C39012BC
:10A461003DE09B90123CE09A5004007F1122902520
:10A471009E7420F0E9603990123CE0FEA3E0902543
:10A481009BF0EEF990259AF090259D1296BD9025AE
:10A491009CF090259E7409F090259BEDF090259AF3
:10A4A100EFF090123CA3E090259DF090259CE9F0FF
:07A4B100E4901240F0FF22CD
:10B6BD00E59A20E604007F15221296A75004007F1C
:10B6CD00112290259E7420F0EF601E90259BEBF0CB
:10B6DD00EA90259AF0A3E090259DF090259AE090B0
:10B6ED00259CF090259E12C476E490127DF0FF22E9
:109E70009011E012964A501D1296C49011E112966C
:109E800080500280109011E5E0FFD394635006EFFC
:109E9000C394015004007F11229011E112966C903E
:109EA00011E7EEF0A3EFF09011E512965CC004C04C
:109EB00005C006C0079011E712969ED003D002D0CD
:109EC00001D0001296877003FA7B019011E0E090B8
:109ED00011E71296CB9011E6E0901240F012A451D7
:019EE000225F
:0BC98800EF6004439A8022539A7F2244
:10A1760090124212969420E704007F1622C3901292
:10A1860043E09B901242E09A5004007F11229025F2
:10A19600A67420F0E9603C901242E0FEA3E0902510
:10A1A600A3F0EEF99025A2F0AD039025A5EDF0EA17
:10A1B600FF9025A4F09025A67409F09025A3EDF054
:10A1C6009025A2EFF0901242A3E09025A5F09025ED
:0AA1D600A4E9F0E4901246F0FF2225
:10B6FD00E59A20E704007F16221296A75004007FDA
:10B70D0011229025A67420F0EF601E9025A3EBF07A
:10B71D00EA9025A2F0A3E09025A5F09025A2E09057
:10B72D0025A4F09025A612C476E4901282F0FF2293
:109D17009011E912964A501D1296C49011EA1296B4
:109D270080500280109011EEE0FFD394635006EF4D
:109D3700C394015004007F11229011EA12966C908F
:109D470011F0EEF0A3EFF09011EE12965CC004C094
:109D570005C006C0079011F012969ED003D002D01E
:109D670001D0001296877003FA7B019011E9E0FF9A
:109D77009011F0E0FCA3E0FD9011EFE0901246F0A7
:049D870012A176228D
:04184E0041128700BC
:10756A00E0FFE4FCFDFE1209D1901298120A5F9026
:10757A001298120A477808120A10901298120A5F93
:10758A0090129822E0FFE4FCFDFE1209D190129CB1
:10759A00120A5F90129C120A477808120A10901277
:1075AA009C120A5F90129C22EFF0900DDC120A479F
:1075BA0078081209FD900DDC120A5F900DDC020AB0
:1075CA0047EFF0900D52120A4778081209FD900D04
:1075DA0052120A5F900D52020A47902780E054FE29
:1075EA00F022AC02AD017B107A007E21227F0412C8
:1075FA00BCF690219F7401F022E4F0902780E022EB
:10760A00E0FFE4FCFDFE22AC02AD01E0FB7A0022C1
:10761A00120AECAE02AF01C3EE942322AC02AD0112
:10762A007B087A007E2122AE02AF017B087A007CB9
:10763A002122120A5FE4FB902780E022900DD802F3
:0C764A000ACCE04404F090219FE4F02200
:10C15900900CFE12760320E00AE04401F0900CFEF8
:10C169007401F07F001275EC12A09D900CFEE06046
:05C17900031275E42231
:10C17E009012EE12760320E00AE04401F09012EEE7
:10C18E007401F07F301275EC12A09D9012EEE060FB
:05C19E00031275E4220C
:10C49100E4FE902780E020E006E04401F07E019078
:0BC4A1002140EFF0EE60031275E42272
:10BC9800900DDC12763C20E005E04401F00B1275B3
:10BCA800C59021411275B29021421275B29021437C
:0FBCB8001275B2902144EFF0EB60031275E42295
:10BF5F00E4900CFEF0902780E020E00AE04401F02E
:10BF6F00900CFE7401F07F4512762612A09D900C66
:08BF7F00FEE060031275E422EC
:10C4AC00E4FE902780E020E006E04401F07E01905D
:0BC4BC002110EFF0EE60031275E42287
:10BCC700900D5212763C20E005E04401F00B12750E
:10BCD700DE9021111275CB9021121275CB90211392
:0FBCE7001275CB902114EFF0EB60031275E4227D
:10BF8700E4900CFEF0902780E020E00AE04401F006
:10BF9700900CFE7401F07F1512762612A09D900C6E
:08BFA700FEE060031275E422C4
:06CA7A00902140E0FF22C4
:10BD820090214412760A127573120A5390214312BB
:10BD9200756A120A5390214212756A120A5390214F
:0EBDA2004112760A1209D1127584120A472244
:08CA2C007D4512763102A09D48
:06CA8000902110E0FF22EE
:10BDB00090211412760A127597120A5390211312C9
:10BDC000758E120A5390211212758E120A53902109
:0EBDD0001112760A1209D11275A8120A472222
:08CA34007D1512763102A09D70
:08CA3C00EF547F902194F022D9
:08CA4400EF547F902195F022D0
:10C7F500EF9021936005E04440F022E054BFF02221
:10C80500EF9021936005E04420F022E054DFF02210
:10BCF600EF7002800CEFD3941040028004EF30E026
:10BD060004007F1A22EFC31314FF902193E054E33B
:0FBD1600F0E0FEEF25E025E0FFEE4FF07F00228A
:09C0C100902780E04401F07F03A8
:10C0CA00EFD394034004007F1122902193E054FCA3
:0DC0DA00F0E0FEEF5403FFEE4FF07F002278
:10672100900DD2EDF0900DCF12761A400DD3EF946B
:10673100FFEE94245004007F1822127646E41206DC
:10674100FB900DD2E0FED394794004007F1622EE37
:10675100B40104007F172212C0C1900DD3120A4761
:1067610012BC98900DD7E0FF12C491E4FF12CA3C0D
:106771001275F7900DD2E02402902300F0900DCF16
:10678100120ACC900DD21276117F017E2312A09DA8
:10679100902007E4F0900DD2E02402902008F090C0
:1067A1000DDB7412F0902180E054FBF09020031275
:1067B100764C901283F0A3F0902180E030E207E460
:1067C100900DDBF08016901283E475F0011207CC76
:1067D100901283E0B402E1A3E0B458DC900DDBE059
:1067E1007030900DD2E02404FF127646EF1206FBC2
:1067F1001275FC900DCF120ACCAE02AF0112764693
:10680100120693FB7A007D017C2312A09D90219FAB
:0E681100E4F01275E4900DDBE0FF6001002260
:105FAB00900D48EDF0900D4512761A400DD3EF94FD
:105FBB00FFEE94245004007F1822900D4E120ACC51
:105FCB00E41206FB900D48E0FFD3947D5006EFC31F
:105FDB0094045004007F162212C0C1900D49120A7E
:105FEB004712BCC7900D4DE0FF12C4ACE4FF12CAC0
:105FFB00441275F7900D48E02402902400F0900DA8
:10600B0045120ACC900D481276117F017E2412A006
:10601B009D902087E4F0900D48E02402902088F0BA
:10602B00900D517413F0902180E054FDF09020837B
:10603B0012764C901285F0A3F0902180E030E107AE
:10604B00E4900D51F08016901285E475F001120763
:10605B00CC901285E0B402E1A3E0B458DC900D5172
:10606B00E0704990219F04F0900D45120ACCAE02CE
:10607B00AF01900D48E0FB7A007D017C2412A09DBE
:10608B00900D48E0FFE42FF582E43424F583E070B3
:10609B0010EF24FCFF900D4E120ACCEF1206FB8082
:1060AB0006900D517414F090219FE4F01275E4905A
:0860BB000D51E0FF600100221D
:10185200410FEC00420FEA000042102E0000410F3F
:02186200E95546
:10C29D00120ACC8F827583001206AC902542F0E411
:10C2AD00F583D2AF22902540E054BFF0E04440F03A
:02C2BD00E42279
:0BC99300EF60044398802253987F223D
:0EC89D00439810D2B7E4FB7D017F07028309A8
:07C8C500E4900FECF07F018D
:06C8CC00EF24FF92B722E9
:1071B500901249EBF0AA07E59820E704007F10221A
:1071C50090124AE0FED394094004007F1122EE2478
:1071D500FE601314601824FA601C240870209012B5
:1071E5004B7405F0802090124B7403F080189012B8
:1071F5004B7404F0801090124B740BF080089012C1
:107205004AE02402A3F0902540E4F0902543F09055
:107215002540C083C082E0FF90124BE0FE5403FC82
:10722500EF4CD082D083F0902543E0FFEE540C1351
:1072350013543FFEEF4EF0EA605AA2AFE4339012CA
:107245004CF0C2AFED24FF92FD901249E030E4030B
:1072550012C89D902540C083C082E0FF901249E08E
:10726500FE541CFDEF4DD082D083F0902540E044C4
:10727500C0F0D2EDEE20E412E4FF900FE9E0902596
:1072850042F0E4F5830FEFB410F090124CE024FFC8
:0E72950092AF8007902540E4F0C2ED7F00220A
:10C3A300AE07E4FF12C8CCC2AF902542EE12C2AB77
:0FC3B300900FECE060FA12C8C590102DE0FF2249
:10B830009012C6120AECEDD394104004007F11223E
:10B84000E4900FECF0FF12C8CCEFC39D500BC2AFD9
:10B850009012C612C29D0F80F0900FECE0B5050368
:0BB86000D38001C350F312C8C51F22A3
:10C5AF0012C2B2FEC2AF902542EF12C2AB0EEEB472
:08C5BF0010F2900FE9EFF022E9
:10BBD7009012C9120AECEDD394104004007F112291
:10BBE70012C2B2FFC2AF9012C912C29D0FEFB410BA
:10BBF700F39012C9120ACC120693900FE9F07F0056
:01BC0700221A
:10B4790090102EA3E0FFC3900FEBE09FFFEF543F26
:10B48900602C90102EE0FEA3E024EDF582740F3EAF
:10B49900F583E01206FB90102FE02401FF90102E97
:10B4A9007E00EF543FFFEEF0A3EFF07F01227F0013
:01B4B9002270
:109388007FF07EFF7D077C00120A53D30209ECAD03
:1093980007AC06ECF07C00E4120331783FE4FBFAFA
:1093A800F912009502036AEFF0A3EDF0A3EBF0E5E4
:1093B8009822C3E49BFFE49AFE740199FDE498FCAB
:1093C800020A5FE024FF92AF7F0022E490118EFE34
:1093D800FDFC020A53AF03E4FCFDFE120A53020827
:1093E800B4E47B03FAF9F8020A47E0FEA3E0FFC3FE
:1093F800E49FFFE49EFE22900D02020A5FFB120A20
:109408004778080209FD9011F6120A5F9011F622BA
:0BC99E00EF6004439801225398FE2232
:1092F800900CFE1293AF20E004007F1322900D0122
:10930800E0FBD394624004007F1722A2AFE43390BD
:109318000D06F0C2AF900D02120A6B000007D09044
:109328000D021293DD1293FF900D021293E91209B8
:109338003FE4FDFC1293FF900D02120A53900D02B8
:109348001293BA900D02120A479012A2EFF0900DF4
:10935800021294059012A0EFF08B8AF58C5389F0D5
:10936800438901900CFFE024FF92B9A3E024FF9207
:109378008C900CFEE024FF92A9900D061293CB224C
:10B00B00A907E59820E004007F1322A2AFE4339058
:10B01B001252F0C2AF9012501293F29012A2EFF0B4
:10B02B00EEFF9012A0F09012A2E0F58A8F8C53895C
:10B03B00F0438901ED24FF92B9EB24FF928CE924B4
:0AB04B00FF92A99012521293CB223B
:0BC9A900EF6004439802225398FD2227
:1095C0009011F21293AF20E104007F14229011F564
:1095D000E0FBD394624004007F1822A2AFE43390F2
:1095E00011FAF0C2AF9011F6120A6B000007D0908A
:1095F00011F61293DD12940E1293E912093FE4FD65
:10960000FC12940E120A539011F61293BA9011F6AE
:10961000120A479012A3EFF09011F61294059012DF
:10962000A1EFF08B8BF58D53890F4389109011F3C7
:10963000E024FF92BBA3E024FF928E9011F2E0247D
:0A964000FF92AB9011FA1293CB22B7
:10B05500A907E59820E104007F1422A2AFE433900C
:10B065001258F0C2AF9012561293F29012A3EFF05D
:10B07500EEFF9012A1F09012A3E0F58B8F8D53890E
:10B085000F438910ED24FF92BBEB24FF928EE92438
:0AB09500FF92AB9012581293CB22E9
:0BC9B400EF6004439804225398FB221C
:1073900090118B1293AF20E204007F15227F05121B
:1073A00093D3C31209EC500C90118E1293884004B1
:1073B000007F19227FF87EFF7D037C0090118E12E2
:1073C0009390400E9011937440F09011927406F0D7
:1073D00080447FFC7EFF7D017C0090118E12939093
:1073E000400E9011937420F09011927405F0802655
:1073F000E47FFE7EFFFDFC90118E1293909011931E
:10740000400B7410F09011927404F080097408F02D
:107410009011927403F07F081293D31208B4C0073E
:10742000901193E0FBE4FAF9F8D00712093FE41257
:10743000032C78BF1293A5901194129397A2AFE4F6
:1074400033FEC2AF53A9F090118BE06027901194E6
:10745000E0F5AA8FAC90118CE024FF92F9A3E060D4
:107460000C901192E025E0440142A9800353A9FE4B
:0D747000D2E98002C2E9AF06EE1293CC22F1
:0BC9BF00EF6004439808225398F72211
:10691C009011951293AF20E304007F1622E47F05BB
:10692C009011981293D7C31209EC500C9011981235
:10693C0093884004007F1A227FF87EFF7D037C0041
:10694C00901198129390400E90119D7440F09011FC
:10695C009C7407F080447FFC7EFF7D017C009011CD
:10696C0098129390400E90119D7420F090119C748D
:10697C0006F08026E47FFE7EFFFDFC9011981293BA
:10698C009090119D400B7410F090119C7405F08048
:10699C00097408F090119C7404F0E47F08FEFDFC6F
:1069AC009011981293E3C00790119DE0FBE4FAF963
:1069BC00F8D00712093FE412032CE4FBFAF978BF74
:1069CC001293A990119E129397A2AFE433FEC2AF1B
:1069DC0053A90F901195E0602990119EE0F5AB8FB3
:1069EC00AD901196E024FF92FBA3E0600E90119CF9
:1069FC00E0C43354E0441042A9800353A9EFD2EB16
:0B6A0C008002C2EBAF06EE1293CC221A
:105C57000709433B0B0709433B0B0707433B0B076D
:105C6700078B3B0B07078B040B07078B04040707FE
:105C77008B0404040B048B061705078B0404040D1F
:105C87008B0404040D000B0B040400008B0617059E
:105C970000000617050000001705000000000500BA
:105CA70000000000040700000000070000000000DB
:105CB7001D0B000001000B000001000000000100A7
:105CC70000000001000000000100000000000000CB
:105CD70000000000000000000000000000000000BD
:105CE70000000000000000000000000000000000AD
:105CF700000000000000000000000000000000009D
:105D0700000000000000000000000000000000008C
:105D1700C393C7712FEE93C7712FEE77C7712FEE1D
:105D27007703712FEE7703342FEE7703341AEE776C
:105D370003341A0D658B021703077703341A0D0214
:105D470003341A0D02001A0D120900000217030787
:105D5700000017030700000003070000000007000A
:105D67000000000007020000000002000000000021
:10186400420E1E0000420E140000420E22000042EE
:101874000E180000410E1C01420E200000420E16FC
:101884000000420E240000420E1A0000410E1D0109
:10882900E4FAF9F8900D00120A4712B36DEF2430FB
:10883900902510F0900D00020A47E4FAF9F812B3F6
:108849006DAC00AD01AE02AF03900D00020A5FFFEF
:10885900C3E09FFF7E00EF543FFFAD01ED24FF22EF
:10886900FF120ACCEF1206FB9012EAE0FF90114FBB
:10887900E075F006A422F583E5822FF582E43583BD
:10888900F583E49322E433F0C2E8A2ACE43322E4B2
:1088990033F0C2E8A2AEE43322A2AFE433FFC2AFA1
:1088A90022C374409FFFE49EFED3EF9403EE94002D
:1088B90022E4F0A3E0543FF022E01206FBE4F58342
:1088C900EF24FF92AF7F0122120ACC8F82758300B9
:0388D9000206ACE8
:10588E00901145120AECE490114EF0120BD1590012
:10589E000000012C590700000258590F000004B0F7
:1058AE00591700000960591F000012C05927000047
:1058BE002580592F00003840593700004B00593FC2
:1058CE000000960059470000DAC0594F0000E10071
:1058DE0059570001C200595F000384005967000741
:1058EE000800596F0008CA00597700119400000093
:1058FE00597FE490114FF0807E90114F7401F0802B
:10590E007690114F7402F0806E90114F7403F080F8
:10591E006690114F7404F0805E90114F7405F08004
:10592E005690114F7406F0804E90114F7407F08010
:10593E004690114F7408F0803E90114F7409F0801C
:10594E003690114F740AF0802E90114F740BF08028
:10595E002690114F740CF0801E90114F740DF08034
:10596E001690114F740EF0800E90114F740FF08040
:10597E000690114E7412F090114EE070491288711B
:10598E002457F582E4345C12887F901145128869A1
:10599E0024B7F582E4345C12887F9011481288692E
:1059AE002417F582E4345D12887FFF90114B120AA2
:1059BE00CCEF1206FB90114B120ACC120693700616
:0C59CE0090114E7412F090114EE0FF2278
:0BC9CA00EF6004439820225398DF2206
:107FE30090119FEFF0A3EDF0E59820E504007F10DA
:107FF30022E4FF90119FE060239011A1120A477BB6
:10800300017A1179A6901148120AEC7A110990119C
:108013004B120AEC7A110912588E800BE49011A8C6
:10802300F09011A6F0A3F0EF600200221288A29054
:108033002505E4F09025037480F09011A7E09025C6
:1080430000F09011A6E0902501F09011A8E0902592
:1080530007F0902503E4F0902507F090119FE0606E
:10806300389025027481F09011A5E0FE543F9025CD
:1080730003F0902501E4F0EE20E604E04401F090E3
:1080830011A5E020E707902501E04402F0D2AC906F
:1080930011A0E024FF92BC8009902501E4F0C2AC5A
:0A80A300C2BCEF24FF92AF7F002261
:10C30200A2E89012EF12888EF9C2AC900E14A3E04C
:10C31200900E1F12885892AC9012EFE024FF92E820
:01C3220022F8
:10C32300A2E8900DC812888EF9C2AC900E18A3E053
:10C33300900E2312885892AC900DC8E024FF92E827
:01C3430022D7
:10A9A600AC0712C3231288AA40F8A2E8E433FF12C8
:10A9B6008891FEC2AC900E1CE06010E4F0C2AF902D
:10A9C6002500ECF0E4F583D2AF8022900E22E0FA67
:10A9D600A3E024A6F582740E3AF583ECF0900E22DD
:10A9E600E475F0011207CC900E221288BAEE24FF0D
:08A9F60092ACEF24FF92E8226D
:10AC5C009012A4120AEC12C302EF4E7002FF22A251
:10AC6C00E8E4339012A7128890FFC2AC900E14E463
:10AC7C0075F0011207E2FC742625F0F582740E3C87
:10AC8C00F583E0FE9012A4120ACCEE1206FB900E95
:10AC9C00141288BAEF24FF92AC9012A7E024FF9212
:04ACAC00E87F01221A
:10C6F500E4FF900E1CE070010F902505E020E50297
:03C705007F01228F
:10AF2700900DC8120AEC902501E030E1037F13224F
:10AF3700EDD3941040037F1422902505E030E5F906
:10AF4700E4FFEFC39D5022A2AFE433900DCBF0C2D4
:10AF5700AF900DC81288D1902500F0E4F583900DCD
:0CAF6700CBE024FF92AF0F80D97F0022C6
:10C6A500902505E030E00A1288A29025001288C284
:04C6B500227F0022BE
:0BC9D500EF6004439840225398BF22FB
:1080AD009011A9EFF0A3EDF0E59820E604007F1004
:1080BD0022E4FF9011A9E060239011AB120A477BD7
:1080CD00017A1179B0901148120AEC7A11099011C8
:1080DD004B120AEC7A110912588E800BE49011B2F2
:1080ED00F09011B0F0A3F0EF600200221288A29080
:1080FD002515E4F09025137480F09011B1E09025D2
:10810D0010F09011B0E0902511F09011B2E0902593
:10811D0017F0902513E4F0902517F09011A9E06069
:10812D00389025127481F09011AFE0FE543F9025E8
:10813D0013F0902511E4F0EE20E604E04401F090F8
:10814D0011AFE020E707902511E04402F0D2AE9088
:10815D0011AAE024FF92BE8009902511E4F0C2AE71
:0A816D00C2BEEF24FF92AF7F002294
:10C21100A2E8900D45128898F9C2AE900E16A3E0DF
:10C22100FFC3900E2112885A92AE900D45E024FF73
:03C2310092E8226E
:10C23400A2E8900D41128898F9C2AE900E1AA3E0BC
:10C24400FFC3900E2512885A92AE900D41E024FF50
:03C2540092E8224B
:10A94D00AC0712C2341288AA40F8A2E8E433FF1211
:10A95D00889BFEC2AE900E1DE06010E4F0C2AF9079
:10A96D002510ECF0E4F583D2AF8023900E24E0FAAD
:10A97D00A3E024E6F582740E3AF583ECF0900E24F4
:10A98D00E475F0011207CCE4900E241288BBEE247E
:09A99D00FF92AEEF24FF92E822C4
:10ABB200900D41120AEC12C211EF4E7002FF22A256
:10ABC200E8E433900D4412889AFFC2AE900E16E468
:10ABD20075F0011207E2FC746625F0F582740E3CF2
:10ABE200F583E0FE900D41120ACCEE1206FBE490D2
:10ABF2000E161288BBEF24FF92AE900D44E024FFA4
:05AC020092E87F012231
:10C70800E4FF900E1DE070010F902515E020E50272
:03C718007F01227C
:10AF73009012A8120AEC902511E030E1037F13220E
:10AF8300EDD3941040037F1422902515E030E5F9AA
:10AF9300E4FFEFC39D5022A2AFE4339012ABF0C2A3
:10AFA300AF9012A81288D1902510F0E4F583901287
:0CAFB300ABE024FF92AF0F80D97F00229A
:10C6B900902515E030E00A1288A29025101288C250
:04C6C900227F0022AA
:108E310012885212883DEC33501812883D1209DE17
:108E4100128852902510742DF0902515E020E50828
:108E510080F79025107420F0E47B107A2712882B7C
:108E6100E47B107A27128845902515E030E5F9E476
:108E71007BE87A0312882BE47BE87A031288459019
:108E81002515E030E5F97B641288297B641288435B
:108E9100902515E030E5F97B0A1288297B0A1288B2
:108EA10043902515E030E5F912883DEF24309025F7
:108EB10010F0902515E030E5F99025107420F09020
:0D8EC1002515E030E5F9E47F01FEFDFC22FF
:09CA1300C2AF75D25575D2AA22FA
:0BC9E000EF6004439201225392FE22FC
:10B91700E59220E004007F1022EDD3940F4004004D
:10B927007F1122A2AFE433FEC2AFEF600C12CA153B
:10B93700ED540F4440F5D2800612CA1575D280AF78
:09B9470006EE24FF92AF7F0022FE
:10BFAF0090FFFF120C0BA2AFE433850D83850E8239
:10BFBF00F012CA1343D240850D83850E82E024FF11
:08BFCF0092AF900001020C0B7F
:10BE0B00A2AFE433FCC2AFEF4E600E9012DEEEF049
:10BE1B00A3EFF07D0F7F018009E49012DEF0A3F019
:0DBE2B00FDFF12B917AF04EC24FF92AF2207
:10C5F700EFD3940F4004007F112212CA13EF540F98
:07C60700F5D243920180FE11
:10B4BA00900D41120AEC7F007E10E4900D44F0FDDD
:10B4CA00EF2DF582E43EF583E493FC900D44E02CE5
:10B4DA00F0900D41120ACC8D82758300EC12070D93
:10B4EA000DEDB440DB900D44E070037F01227F0034
:01B4FA00222F
:041894004112F0000D
:10C6CD00F0C2AF9027A6E04480F0E4F583D2AF909E
:04C6DD0012F0F02245
:0BC9EB00EF6004439940225399BF22E3
:1098DD00E59920E604007F1022E49012F0F0902725
:1098ED00AA04F09027A974A5F0EB600D9027ACE4C5
:1098FD00F09027AB748CF080109027AAE09027ACE5
:10990D00F09027A9E09027ABF09027B2E4F09027D4
:10991D00B17464F09027AF745AF0A374B4F090272B
:10992D00ADF0A3745AF09012AFE09027A2F09027FB
:10993D00A6742FF0ED600543F901800353F9FEEF96
:0D994D00600543E901800353E9FE7F00221D
:10B9C100E59920E604007F10229027A4EFF090274C
:10B9D100A77408F0A3742912C6CD7F12FDFC901242
:10B9E100F0E06004E4FF800B0DBD00010CBC75EEBE
:08B9F100BD30EBEF6001002204
:10BBA500E59920E604007F10229027A77406F0A3EC
:10BBB5000412C6CD7F11FDFC9012F0E06004E4FF95
:10BBC500800B0DBD00010CBC75EEBD30EBEF6001C7
:02BBD50000224C
:10BC08000A0D2045564B203A204C49422056322EE8
:10BC180035000000000000000000000000000000E7
:10BC2800000000000000000000000000000000000C
:108ECE00A37429F004F004F07429F004F004F07493
:108EDE0029F004F004F022900D1F7412F0A3740315
:108EEE00F0A32274039022CFF09022CE22900D1F79
:108EFE007413F0E4A3F0A322F0A3F0A3F0A3F0A365
:108F0E00F0A3F022900D1F7413F0A37401F0A322AE
:108F1E0074029022CFF09022CE22F09022497463F8
:108F2E00F0A37455F0229022B0E04401F0E4FEFF6D
:108F3E0022F07464A3F0A37404F02274C0F0A3743E
:108F4E0070F090223C7490F02224A69022BFF090F4
:0D8F5E0022BEE4F022A3F0A37450F0A32281
:10995A00EFD394054025902232743AF0A37434F080
:10996A00902238128F499022427411F09022457445
:10997A001E128F2890224D7426804C902232744AEF
:10998A00F0A37416F090224214F09022457423F04A
:10999A00EFC39405902238401A128F4990224974D5
:1099AA0021F0A304F090224D04F0A37499F0A3745B
:1099BA0007F0227450F0A374B0F090223C74501255
:0B99CA008F2890224D7412128F3F2254
:107BB50090278074F6F0A37423F09022B07440F0FF
:107BC5009022C67480F09022C274B0F09022117495
:107BD50002F090220C7405F09022207480F0A3E44A
:107BE500F0A37485F09022B97402F0A37463F09049
:107BF50022B774CFF0A3E4F09022C8745FF0A374A9
:107C050009F0EF30E0047E0E80027EA29022CAEEDB
:107C1500F07408128F42A3E4F0740B128EF3740F04
:107C2500F0902230744AF0902232F0A37416F0EFEF
:107C350030E0047E4B80027E4D902235EEF0EF3031
:107C4500E0047FC680027FCD902236EFF0745C128F
:107C55008F6374B0F090223B7450F0A3F0902240F3
:107C65007420F0A3F0A37415F0A37410F0A3F0A38F
:107C75007423128F28A374E1F090224D7412128F91
:0E7C85003F90221D7485F09022E1746EF02273
:10A9FE00AE07EE6003B4010790222174018010EEC1
:10AA0E00902221B40208E4F0A374E5F08006E4F08D
:10AA1E00A37485F0AF0612995AEED39405400D90AB
:10AA2E0022197410F09022CA74D5F022EEC3940548
:10AA3E00902219400A7410F09022CA74AAF022E4EF
:08AA4E00F09022CA74A2F0226C
:10573400E4900D1EF0EF8EF0120BA4578309655709
:105744008C096A5795096F579E097457A7097957A9
:10575400B0097E57B9098357C2098857CB098D57B9
:10576400D3099257DB099757E3099C57EB09A157D3
:10577400F309A657FB09AB580309B00000580B12F4
:105784008EE57428F0025811128EE57450F0025818
:1057940011128EE57478F0025811128EE574A0F09F
:1057A400025811128EE574C8F0025811128EE57475
:1057B400F0F0025811128EFB7418F0025811128E78
:1057C400FB7440F0025811128EFB7468F0803E1294
:1057D4008EFB7490F08036128EFB74B8F0802E121B
:1057E4008EFB74E0F08026128F127408F0801E1273
:1057F4008F127430F08016128F127458F0800E12CB
:105804008F127480F08006900D1E7417F0900D1E98
:10581400E0FF6001229022BE74C0F09022B47401B3
:10582400F0900D1FE09022B1F0900D20E09022B294
:10583400F0900D21E09022B3F09022B0E04401F00A
:10584400900D1E7414F0E4FFFE9022BDE030E007DA
:10585400E4900D1EF0800B0FBF00010EBE27EABFBF
:1058640010E7900D1EE0601C128F349022BDE030D2
:10587400E007E4900D1EF0800B0FBF00010EBE2761
:09588400EABF10E7900D1EE0FFE1
:01588D0022F8
:085B1B009012CCEEF0A3EFF0B4
:105B2300C3945AEE940940109012CCE0FCA3E0FD1C
:105B3300D394CBEC940940037F11229012CE7417B7
:105B4300F0ED8CF0120BA45B8E09655B90096A5B28
:105B530097096F5B9E09745BA509795BAC097E5B52
:105B6300B309835BBA09885BC1098D5BC809925B82
:105B7300CF09975BD6099C5BDD09A15BE409A65BB2
:105B8300EB09AB5BEB09B000005BF680009022C22F
:105B930074D280599022C274D180529022C274D19F
:105BA300804B9022C274D180449022C274D0803D35
:105BB3009022C274D080369022C274D0802F90225B
:105BC300C274D080289022C274CF80219022C274E4
:105BD300CF801A9022C274CE80139022C274CE80DA
:105BE3000C9022C274CE80059022C274CDF0E49052
:105BF30012CEF09012CEE0FF6001229022B0E0447A
:105C030002F09012CCA3E0128F579012CE7414F0CE
:105C1300E4FFFE9022BDE030E007E49012CEF08076
:105C23000B0FBF00010EBE27EABF10E79012CEE0B4
:105C3300601C128F349022BDE030E007E49012CE56
:105C4300F0800B0FBF00010EBE27EABF10E79012D2
:035C5300CEE0FFA1
:015C5600222B
:1086BC00C3EF9465EE94094009D3EF94B0EE94099E
:1086CC0040037F1122C3EF94B0EE94094005902231
:1086DC00C28033C3EF949CEE940940089022C2747C
:1086EC00B3F08025C3EF947EEE940940089022C22B
:1086FC0074B4F08014C3EF9465EE94099022C240D8
:10870C000574B5F0800374B2F0D3EF947EEE940947
:10871C009022B950057422F080037402F09022B0BC
:10872C00E04402F0EF128F577D14FFFE9022BDE063
:10873C0030E004E4FD800B0FBF00010EBE27EDBF3F
:10874C0010EAED6019128F349022BDE030E004E4A1
:10875C00FD800B0FBF00010EBE27EDBF10EAE4FE3B
:08876C00FF6003125734AF0552
:0187740022E2
:0CC8F6009022BFE0245AFFE43409FE2227
:105E9100EF120B7E5EDE005EE5015EF2025EFB0349
:105EA1005F02045F09055F10065F17075F1E085F49
:105EB1002B095F320A5F3F0B5F460C5F4D0D5F5A46
:105EC1000E5F660F5F6D105F7A115F80125F87133F
:105ED1005F8E145F95155FA11600005FAA9022CF17
:105EE100740B80059022CF7404F09022CE740FF0D1
:105EF100227405128F20740BF022128EF1740AF0B5
:105F010022128F1E7409F022128EF17407F02212F0
:105F11008EF17406F0229022CF740380059022CF77
:105F21007401F09022CE7405F022128F1E7404F0D9
:105F3100229022CF7407F09022CE7403F022902297
:105F4100CF740280199022CF740C80059022CF74F7
:105F510004F09022CE7402F0229022CF7401F090CE
:105F610022CE04F0229022CF741F80059022CF749C
:105F71000FF09022CE7401F022128F1E14F02290A5
:105F810022CF7401801E9022CF741F800C9022CFEB
:105F9100740880059022CF7401F09022CEE4F022A3
:0A5FA1009022CFE4F09022CEF0220F
:10A1E000EFB401079022707424F022EF640260053E
:10A1F000EF6403703990278074FEF0902219740187
:10A20000F09022707427F0902280E030E0F99022E4
:10A21000807423F0A37407F0EF902270B4030574E8
:10A2200077F080037422F09022817460F0229027EE
:10A230008074F6F0902219E4F09022807480F0A3EC
:0AA24000746CF09022707480F0221C
:10C6E100EF9022926008740EF0A37402F02274019C
:04C6F100F0A3F022A0
:08CA4C00902290E054C0F0229A
:10A24A00EF30E00C902720E4128F06A3128F06222B
:10A25A00EF90272030E7297404F0A374E2F0A37486
:10A26A0004F0A374E2F0A37414F0A37410F0A3E44E
:10A27A00F074FA128F63F0A374A0F0A37464F0224E
:10A28A007402F0A37471F0A37402F0A37471F0A3C2
:10A29A00740AF0A37408F0A3E4F0A3747CF0A37426
:09A2AA0028F0128F637432F022D7
:10747D00902785E090228230E272E4F00000000057
:10748D0000000000128ECE0000000000000000740D
:10749D0029F00000000000000000000000000000C6
:1074AD0000000000000000000000000000000000CF
:1074BD0000000000000000000000000000000000BF
:1074CD0000000000000000000000000000000000AF
:1074DD00000000000000000000000000000000009F
:1074ED00000000000000000000008010E4F000002B
:1074FD000000128ECE000000007429F00000000084
:10750D00000000000000000000000000000000006E
:10751D00000000000000000000000000000000005E
:10752D00000000000000000000000000000000004E
:10753D00000000000000000000000000000000003E
:10754D00000000000000000000000000000000002E
:0D755D00000000007440F090228214F02223
:050006007EBC7F082212
:1035AD002023232045413D302C20496E74657272D5
:1035BD007570742044697361626C65642023230007
:1035CD002023232055415254303A496E746572724E
:1035DD007570742044697361626C656420232300E7
:1035ED002023232055415254313A496E746572722D
:1035FD007570742044697361626C656420232300C7
:10360D00202323205541525430203A20496E7465B1
:10361D0072727570742044697361626C65642023E5
:10362D002300202323205541525431203A20496E46
:10363D00746572727570742044697361626C65642F
:10364D00202323000A002025303278000A205B4D0C
:10365D0049425D000A204368616E3D25752028258D
:10366D0075204D487A292C2000202050616E494448
:10367D003D307825303478000A2053686F727441DC
:10368D006464723D30782530347800203A494545E0
:10369D00454164647228307E37293D3078000A2018
:1036AD0044737453686F7274416464723D3078254D
:1036BD0030347800203A447374494545454164647B
:1036CD007228307E37293D3078000A2044617461BC
:1036DD00526174653D3078253032782C2000203AC7
:1036ED0054785077724C6576656C3D307825303264
:1036FD00782C200020204E6F41636B5265747279D7
:10370D003D257500203A4261636B6F6666526574A4
:10371D0072793D2575000A205B52582D4D41432D80
:10372D00504B545D000A2044534E3D3078253032C5
:10373D00782C204F4F423D30782530327800203A9A
:10374D0064426D3D256400203A436F72723D2564DD
:10375D00000A204473742E204D6F64653D25303270
:10376D007800203A50616E49443D307825303478E8
:10377D0000203A53686F7274416464723D3078254D
:10378D0030347800203A4945454528307E37293D6B
:10379D003078000A205372632E204D6F64653D25ED
:1037AD00303278000A204D534455204C656E3D252E
:1037BD00303275203A2000203A4D534455203D00BB
:1037CD000A203D3D3D2048494220446973706C619B
:1037DD0079203D3D3D000A20494545452041444461
:1037ED0052284C53427E4D534229203A000A204321
:1037FD00686970496E646578203D203078253032D7
:10380D00780020284D4732343030290020284D478C
:10381D0032343558290020284D47323437302900AD
:10382D0020284D4732343630290020284D47323478
:10383D00313029002028556E636C61737369666998
:10384D00656429000A204368616E6E656C20202036
:10385D003D20257520282575204D487A29000A2000
:10386D00537461636B49442020203D20307825300E
:10387D003278000A205478506F7765722020203DF1
:10388D00203078253032780020202020446174616A
:10389D005261746520203D20307825303278000A41
:1038AD002050616E494420202020203D2030782575
:1038BD00303278253032780020204E776B416464A9
:1038CD007220203D20307825303278253032780036
:1038DD000A205365634C6576656C20203D20307859
:1038ED00253032780020202020507265436F6E669F
:1038FD006967203D20307825303278000A204E57F8
:10390D004B204B657920284C53427E4D5342292044
:10391D003A000A205265736572765F30284C534227
:10392D007E4D534229203A000A204550494420201B
:10393D002020284C53427E4D534229203A000A2024
:10394D005265736572765F31284C53427E4D5342FA
:10395D0029203A000A2047656E6572616C576F72B7
:10396D006430203D20307825303278253032780093
:10397D000A2047656E6572616C576F726431203D28
:0C398D0020307825303278253032780068
:101898004210A000004210A200004210A400004222
:0918A80010A600004210A8000087
:104511001208A790112E120A5F90112E120A5390C1
:10452100112BE075F064A4FFAEF0E4FCFD1208A7C6
:1045310090112E120A5F90112E120A5375F00A90F3
:10454100112AE0A4FFAEF0E4FCFD1208A790112EA1
:10455100120A5F90112E22120ACC9000191206AC99
:10456100FFE4900D5AF0A3EFF07BFF2290000112BF
:104571000823FF900DD3120ACC900DD9E0FDF582EE
:10458100758300EF12070D900DD0120ACC90000137
:10459100120823E5F0FFED2401FDE433FC900DD377
:1045A100020ACC8D828C83EF12070D900DD0020A86
:1045B100CCF9E43AFAE4900D53F07D08FC22900D19
:1045C100D9E0F582758300ED12070DEEFF900DD94C
:1045D100E0F582758300229012CF120ACC9000047C
:1045E100120823FF900D5AE5F02290121C120ACCFA
:1045F1001207F8FFE5F0C4F854F0C868FEEFC454A0
:104601000F48FFEE8FF012085B901221E02290110B
:104611002AE0901129F090112BE090112AF09011CD
:104621002CE090112BF090112DE090112CF0E4A3CF
:10463100F0901128E014F02290112BE0FF7E007C15
:10464100037DE812072FE4FCFD221206ACFF900D5A
:104651005AE4F0A3EFF022120A47E47B107A27F91B
:10466100F80208B49012D2120ACC9000080206ACEB
:10467100FFFD900D5AE4F0A3EDF07E007C007D0576
:1046810012072FEF242EFFEE3409A32290122312DA
:104691000ACC020693120A53901129E0FFE4FCFDB3
:1046A100FE22E92401F9E43AFA020693120AEC7BAC
:1046B100FF7A3679517F01229012CF120ACC9000F5
:1046C100020206AC8D828C83EF12070D900DD92268
:1046D1001206ACFF900D5CE42274852FF582E43460
:1046E1000DF58322E475F0010207CCC4540F1206C4
:1046F100FB901228E022EF24D0901126F09011288F
:10470100E0C3940422120A53901126E0FF3395E08E
:10471100FEFDFC22900DC5E0FFC3944022F0E4F5BC
:1047210083900DCEE024FF92AF2290000C0206ACE4
:1047310090000B0206AC9012CF020ACCEFF0A3124C
:104741000AECE4222402FFE433FEE92FF9EA3E22D7
:10475100120A53901129E075F00A22900DD9E07EDA
:104761000029F9EE3A22FF900DD6020ACC900DC530
:0D477100E004F02290121C120ACC0207F89E
:10C25700900DC6EFF0902501E0900DC630E105E0A6
:10C26700FF02A9A6E0A3F07B017A0D79C77D011231
:03C27700AF2722CC
:10BEE4009012B0120AEC902501E09012B030E008F4
:10BEF400120ACC12AC5C8006120ACC12C6A59012AF
:09BF0400B3EFF09012B3E0FF224C
:10C27A009012E0EFF0902511E09012E030E105E035
:10C28A00FF02A94DE0A3F07B017A1279E17D011248
:03C29A00AF73225D
:10BF0D009012B4120AEC902511E09012B430E008B2
:10BF1D00120ACC12ABB28006120ACC12C6B990121C
:09BF2D00B7EFF09012B7E0FF221B
:109D8B00900DCA120AECA2AFE433900DCEF0C2AF25
:109D9B00902500740AF0740DF0902510740AF0747D
:109DAB000D12471E902505E030E5F9902515E030A2
:109DBB00E5F9E4900DCDF0900DCA120ACC12C690C5
:109DCB00900DCDE0C39FE49E5029A2AFE433A3F0E6
:109DDB00C2AF900DCA120ACC900DCD1245D112060E
:109DEB00AC902500F090251012471E900DCDE0048D
:049DFB00F080C4220E
:109C2B00900DC6EFF020AF3D7BFF7A3579AD129CDE
:109C3B0099900DC6E0700B20AC087BFF7A3579CD7F
:109C4B008010900DC6E0B4010C20AE097BFF7A3575
:109C5B0079ED129C99C2AF75D25575D2AA75D20AFD
:109C6B0043920180FE900DC6E0700B20AC087BFF89
:109C7B007A36790D8010900DC6E0B4011020AE0D30
:109C8B007BFF7A36792FA3120AEC129D8B22A3123B
:069C9B000AEC129D8B2271
:10913900900D57120AEC900D56EFF0129C2BE4900B
:109149000DC5F0124715500A1246DAE4F012476EBF
:1091590080F17B017A0D795A900D82120AEC900DFB
:1091690057120ACC900DC6120AEC900D82120ACC45
:10917900900DC9120AEC7B017A0D798512B0E9903C
:109189000D56E030E015E4900DC5F0124715503644
:109199001246DAE0603012476E80F0E4900DC5F0B7
:1091A90012471550211246DAE0FF601A12C2579091
:1091B9000DC5E024851246DDE0B40A057F0D12C213
:0791C9005712476E80DA2205
:106CFE0090121B12473D901221F0F5F012085B7FA7
:106D0E00107E2712BE0B90121BE030E04C7B017AF6
:106D1E0012792012BF0DEF60E6126DE26012901232
:106D2E0021E0640460D9901220E0FF12C27A804AFA
:106D3E00901220E064087018A3E060147F0812C25D
:106D4E007A7F2012C27A7F0812C27A1245EB14F0B3
:106D5E00901220E0640D70A7227B017A1279201226
:106D6E00BEE4EF609A126DE2603E901221E0640480
:106D7E00608D901220E0FF12C257124775C4F8546E
:106D8E000FC868FFE5F0C454F0488FF012085B128C
:106D9E004775FF90121FE0FD3395E045F0FEEF4D75
:106DAE0012460304F0026D0D901220E06408701874
:106DBE00A3E060147F0812C2577F2012C2577F08CB
:106DCE0012C2571245EB14F0901220E0640D6003CE
:106DDE00026D0D22901220E0FF12C07490121FEF70
:036DEE00F0F4229C
:1079100090122212473D901228F01206FB7F107E33
:107920002712BE0B901222E030E04F7B017A1279D1
:107930002712BF0DEF60E61279E46012901228E082
:10794000640260D9901227E0FF12C27A804D901233
:1079500027E06408701BA3E060177F0812C27A7FDB
:107960002012C27A7F0812C27A12468D1246EC1497
:10797000F0901227E0640D70A4227B017A1279271F
:1079800012BEE4EF60971279E4602A901228E06456
:1079900002608A901227E0FF12C25712468DC4542B
:1079A000F01206FB12468DFF901226E04F1246EFB2
:1079B00004F002791D901227E06408701BA3E060B8
:1079C000177F0812C2577F2012C2577F0812C25772
:1079D00012468D1246EC14F0901227E0640D6003FD
:1079E00002791D22901227E0FF12C074901226EF38
:0379F000F0F4228E
:1049C80090112212473D901128F0F5F012085BE48F
:1049D800901129F0A3F0A3F0A3F0A3F07F107E2795
:1049E80012BE0B901122E020E003024AC37B017A39
:1049F80011792712BF0DEF60E3901127E0FFC394F0
:104A080030405BEFD3943950551246F75003024AB1
:104A180060901128E0640470C390112C12469C1217
:104A2800454E12465812454E120A53C000124639D6
:104A3800D00012454B120A5375F0641245401247D4
:104A48005112454412470612454B120A47E4FEED3F
:104A58004C7089901127E0FF12C27A024B479011DF
:104A680027E064087016A3E060127F0812C27A7FFC
:104A78002012C27A7F0812C27A12460F901127E0DC
:104A8800640D60030249E490112D12469CA312455F
:104A98005112465812454E120A53C00090112C125A
:104AA800463CD00012451112469612454B120A4751
:104AB800E4FFFEED4C600122024BCA7B017A1179BA
:104AC8002712BEE4EF70030249E4901127E0FFC308
:104AD80094305003024B70EFD394394003024B706B
:104AE8001246F7500612C257024B47901128E0644D
:104AF8000460030249E490112C12469C12454E12A0
:104B0800465812454E120A53C000124639D00012B8
:104B1800454B120A5390112AE075F064124544126D
:104B2800475112454412470612454B120A47E4FE04
:104B3800ED4C60030249E4901127E0FF12C2579040
:104B4800112CE0A3F090112BE0A3F090112AE0A320
:104B5800F0901129E0A3F0901126E0901129F0902F
:104B68001128E004F00249E4901127E06408701667
:104B7800A3E060127F0812C2577F2012C2577F0835
:104B880012C25712460F901127E0640D60030249C4
:104B9800E490112D12469CA3124551124658124515
:104BA8004E120A53C00090112C12463CD0001245F8
:104BB8001112469612454B120A47E4FFFEED4C606F
:104BC800012290112E120A47901123120ACCEE8F5F
:074BD800F012085B7F0122CF
:10B73D00A2A9E433FEC2A9EF70059010A08022EFFC
:10B74D00B401059010A28019EFB402059010A480E9
:10B75D0010EFB403059010A68007EFB40408901005
:0EB76D00A8ECF0A3EDF0AF06EE24FF92A922A7
:10BC3800EF70059010A08019EFB401059010A28054
:10BC480010EFB402059010A48007EFB4030A901017
:10BC5800A6E0FCA3E0FD8003E4FCFDAF05AE0422F2
:10400700900DD0120AEC120693FF64026004EFB41D
:1040170003201245AC900001120823FF901083E0A3
:10402700B5F00DA3E0B50708900DDA7401F080072D
:104037008000E4900DDAF012459E74011206FB121F
:1040470045AC12472B30E00B12459E1206934420D5
:104057001206FB900DDAE0600B12459E12069344A0
:10406700401206FB1245AC12472B5430C4540FFFC5
:1040770012459E900001EF12070DE92401F9E43A79
:10408700FAC003C002C001120693FF1245AC1247E3
:104097002B54C01313543F4FD001D002D003120644
:1040A700FB1245AC120693FF6027EFB4020A1245D4
:1040B7009E1246A3440880111245AC120693B4031E
:1040C7000D12459E1246A3440C1206FB80037FE89F
:1040D700221245AC124731FF6027EFB4020A12459E
:1040E7009E1246A3448080111245AC124731B40397
:1040F7000D12459E1246A344C01206FB80037FE8BB
:104107002290109DE004FFF012459E900002124697
:10411700C97403F01245AC12069364027035124558
:104127006D1245A4900003120823FF900DD9E024D7
:104137000212459A1245A4900003120823E5F0FFE6
:10414700900DD9E0240312459A1246C5E02404F0E5
:1041570002418E1245AC1206936403702A1245ACD5
:1041670012456D1246C5E0124745FEAF011245AC38
:10417700E92403F9E43AFCAD017B087A0012A09D1B
:10418700900DD9E0240AF01245AC12473164027051
:1041970054900DDAE06019901085E0FEA3E0FD125F
:1041A700459E1245BFA31246C9E02402F0024237DA
:1041B700901083E0FEA3E0FD12459E1245BFA3EFDA
:1041C70012070D901085A3E01245CDA3A3EF1207A8
:1041D7000D901085E01245CDA3A3A31246C9E02494
:1041E70004F00242371245AC124731640370419024
:1041F7000DDAE0600E12459E12475C1242902408C9
:10420700F0802D901083E0FEA3E0FD12459E12453D
:10421700CEED12070DEEFF900DD9E0FEF582758306
:1042270000A3EF12070DEE124745124290240AF041
:10423700900DD9E0124767EF1206FB1245AC9000CC
:104247000D1206AC124767EF1206D91247687402BF
:104257001206D9900DD6124690D3947F40037FE57E
:104267002212459E12475CFEAF011245AC90000E2C
:10427700120AF5AC02AD011245AC90000D1206AC66
:10428700FB7A0012A09D7F0022FEAF017C107D8784
:0C4297007B087A0012A09D900DD9E02257
:10A58600E4901036F0EF04900DD3F0ED04A3F0E460
:10A59600900DD1F0900DD3E0FF900DD1E0C39F5008
:10A5A6003EE4A3F0900DD4E0FF900DD2E0C39F509F
:10A5B60018127F13900DD0EFF064156004E0B4E13B
:10A5C60008900DD2E004F080DB900DD0E07008A377
:10A5D600E0901036F08008900DD1E004F080B59040
:05A5E6000DD0E0FF2292
:10B7B800C003C002C0017B017A237901900DD31226
:10B7C8000AEC7A0D79CF900DD6120AECD001D0028E
:10B7D800D003124007EF7013900DCFE0902300F0D4
:0CB7E80090109EE0FFA3E0FD12A5862259
:020029000022B3
:10BC68009012E2EEF0A3EFF0E4901076F0A3F090DB
:10BC780012E2E0FEA3E0FFC3901077E09F901076F9
:10BC8800E09E500B12C8159010761246E580E0220F
:10C81500E4901078F0901078E004F0E0B401F6228E
:10C82500E4901079F0901079E004F0E0B409F62274
:10C83500E490107AF090107AE004F0E0B430F6223B
:10C84500E490107BF090107BE004F0E0B460F622F9
:10C51500E490107CF0A3F090107C1246E590107C1E
:0AC52500E07004A3E0646970EE22E8
:10C52F00E490107EF0A3F090107E1246E590107EFE
:0AC53F00E07004A3E064D270EE2265
:10C34400E4901080F0A3F0C3901081E09F901080DF
:10C35400E09E500B12C52F9010801246E580E82213
:10A4B800900D4E120AEC900D51ECF0A3EDF0E490E3
:10A4C8000D54F0A3F0900D51E0FCA3E0FD900D5465
:10A4D800E0FEA3E0FFC39DEE9C503B900D53E0FDD2
:10A4E800600F7C00120741ED4C70061246B01291C5
:10A4F80039900D4E120ACC900D54E0FEA3E0F5827F
:10A508008E8312455E7A3679537F01129139900D08
:07A51800541246E580AF225A
:10782900900D4B1246AD1291397A3679591278DE9C
:107839001206931246711245667A3679611278EC0E
:10784900900001120823FFE5F01245637A36797634
:107859001278EC9000031245E11245667A36798573
:107869007F011291397A3679981278DEE924051266
:1078790045B212A4B8900D4B120ACC90000F1245D4
:10788900E11245667A3679AB7F011291397BFF7A2D
:107899003679C11278F8E924111245B212A4B890C8
:1078A9000D4B1245587A3679D71278F890001A128A
:1078B900455E7A3679EB12790490001C12455E7A9E
