:10AD0000C00F74ADC0E0C082C083750F0A75A1008A
:10AD10000000000022C00F74ADC0E0C082C0837587
:10AD20000F1F75A1010000000022C00F74ADC0E02C
:10AD3000C082C083750F3475A1020000000022C0DC
:10AD40000F74ADC0E0C082C083750F4975A10300C8
:04AD500000000022DD
:0DC8C200EF90C8CB9390AD00730A1F34496E
:10A07600EB60010A4A601D8C838D8263A2018E8388
:10A086008F8263A20100E0A363A201F0A363A20191
:10A09600DBF4DAF222C0A275A2010000C082C083FE
:10A0A60063A2010000C082C083EB60010A4A601D02
:10A0B6008C838D8263A2018E838F8263A20100E06E
:10A0C600A363A201F0A363A201DBF4DAF2D083D08A
:0DA0D6008263A2010000D083D082D0A222BC
:030000000259E3BF
:1059E3007598007599209022E074D9F090270E7471
:1059F30000F09027027470F09027037400F0E49095
:105A03000000F0900000E004F0E0B4C8F690270036
:105A13007480F09027087400F0902709F0902720F5
:105A2300F0902721F0902722F0902723F09027244D
:105A3300F0902725F0902726F0902727F09027282D
:105A4300F0902729F090272AF090272BF0759900E2
:105A53009022E17400F09022E27490F09022E774B7
:105A6300FFF09022E8F09022E9F09022EAF09022F1
:105A7300EBF09022ECF09022ED7400F09022EEF027
:105A83009022EFF09022F0F09022F1F09022F2F0C9
:105A9300750D18750E00758121C2C112AD0A025A27
:015AA300DF23
:0CC90100016800AA005A002D0015000B70
:0A1800004212020000421200000034
:10BF0700900D246480F8E064809822900D24E0FE70
:10BF1700A3E0FFC322900D30120A5F900D30020A92
:0ABF270047120ACC900D29020AEC23
:0EC87C00902784E054BFF00000E04440F0221A
:10A86D00EBD394084004007F1222EDD394035004DF
:10A87D00EDB40104007F1122EF9022E66026E04442
:10A88D0004F0902781E0440CF09022D4E04480F055
:10A89D00E054F04BF0AF05EFC43354E0FFE0549FAC
:10A8AD004FF08012E054FBF09022D4E0547FF090F2
:09A8BD002781E054F3F07F002232
:10ACD500EFD394035005ED94034004007F112290B7
:10ACE5002786E054FC4FF0AF05EF25E025E0FF9007
:0AACF50022D5E054F34FF07F002257
:10BE5400ED6005D3940E4004007F1122ED04C45418
:10BE6400F0FE9022D5E0540F4EF0EF6006E044025D
:0DBE7400F080079022D5E054FDF07F002201
:10C2DF00A2AFE433FFC2AF9022D7E0FDE0FEEF2420
:10C2EF00FF92AFAF06EFFEEDFF7C007D10120796B9
:01C2FF00221C
:10C77E009022D6E05478131313541FFF60011F222A
:10B4000074FFF5F012085B7F13E49011FAF0A3F0DB
:10B410009022D6E05470600D12C2DFEE8FF0120859
:10B420005BE4FF80199011FAE475F0011207CCC3B8
:10B430009011FBE094D09011FAE0940740D2EF60B5
:03B44000010022E6
:1099AE00AA05EBD394084004007F1222EAD3940355
:1099BE004004007F1122EF60557D02E4FF12BE5479
:1099CE00AF02AD077F0112A86DAC07EC704912C84B
:1099DE007C901356E025E02401F582E434C9F5832A
:1099EE00E493FF7401939011FCCFF0A3EFF0E4A386
:1099FE00F0A3F09011FC12BF159011FFE09F901193
:109A0E00FEE09E5012E475F0011207CC80E5E4FBF7
:0A9A1E00FDFF12A86DAC07AF042293
:10BB5700900D00120AECEFD394084004007F1222E4
:10BB6700AB07E4FD7F011299AEEF600122900D0053
:10BB7700120ACC12B400EF600122E4FBFDFF129918
:04BB8700AE7F00226B
:106FFF00900D22EEF0A3EFF0A3ECF0A3EDF0900DC7
:10700F0028E0FFC3940A4006EFD3940F4004007F9B
:10701F001122900D2212BF15900D25E09FEE12BF89
:10702F00074004007F142212BF12900D23E09FFF30
:10703F00900D22E09E900D2CF0A3EFF0D3900D2534
:10704F00E09BEA12BF074009E4900D2EF0A3F080F9
:10705F0029C3900D23E09BEA900D2212BF0A500B1B
:10706F00900D2CE0FFA3E0A3CF800B12BF12EB9F7C
:10707F00FFEA9E900D2EF0A3EFF0900D28E0FF7425
:10708F00017E00A807088005C333CE33CED8F9247C
:10709F00FFFFEE34FFFEE4FCFD900D30120A5F900F
:1070AF000D2EE0FEA3E0FFE4FCFDA3120A5312082D
:1070BF00B412BF1CC006C007900D2CE0FEA3E0FB6E
:1070CF00AA06E4F9F8D007D00612093F12BF1CEE4A
:1070DF00547FFE900D29120ACCEE8FF012085B7FC1
:0270EF0000227D
:0CC8E9007B017A1279027F0712BB5722F4
:0CC8F5007B017A1279007F0812BB5722E9
:10AA8000900D1D120AEC900D1CEFF0C3940A4006C5
:10AA9000E0D3940F4004007F11227B017A0D7920CE
:10AAA00012B400EF600122901202E0FEA3E0FF90DA
:10AAB0001200E0FCA3E0FD900D1CE0900D28F0904A
:10AAC0000D1D12BF28900D20E0FAA3E0FB126FFFCE
:07AAD000EF6001227F00226C
:109592009011E5EDF0A3120AEC9011E4EFF0D394F0
:1095A200084004007F12229011E5E0FFC3940A40B4
:1095B20006EFD3940F4004007F11227B017A1179C8
:1095C200EB7F0712BB57EF6001227B017A1179E929
:1095D2007F0812BB57EF6001229011E4E0FF7B018C
:1095E2007A1179ED12BB57EF6001229011EBE0FE88
:1095F200A3E0FF9011E9E0FCA3E0FD9011E5E0900B
:109602000D28F09011E612BF289011EDE0FAA3E0C8
:0B961200FB126FFFEF6001227F0022BF
:04180A004113560030
:10AB2E00E4FDEF146014146015146016146017140D
:10AB3E006018240570187E088016E4FE80127E20B0
:10AB4E00800E7E40800A7E6080067E0C80027D1222
:10AB5E00ED600300FF22901356EFF0538E10EE427D
:10AB6E008EE58E90278530E306E04404F08004E005
:06AB7E0054FBF07F0022F1
:030026008F98228E
:03002E008F992285
:030036008F9A227C
:08180E0041134600411347009D
:10C64300A2AFE433FEC2AFEB9022EF22AF06EE249B
:06C65300FF92AF7F002200
:10B5CC00E5B420E204007F102212C64330E106E00D
:10B5DC004404F08004E054FBF0EB30E003D3800132
:10B5EC00C39288ED24FF92B8EF24FF92A89022F228
:10B5FC00E030A8054404F0800354FBF012C64F223F
:10B60C00E5B420E304007F112212C64330E106E0CA
:10B61C004408F08004E054F7F0EB30E003D38001F1
:10B62C00C3928AED24FF92BAEF24FF92AA9022F2E1
:10B63C00E030AA054408F0800354F7F012C64F22FC
:0418160041135780A3
:1073C200E0FEA3E0FFF5828E83A3A31206AC902712
:1073D20005F08F828E83A3A3A31206AC902704F03C
:1073E200901357E04401902700F022F0901311E02F
:1073F200F58A90130FE0F58C22E0FEA3E0FFF58200
:107402008E831206AC902707F08F828E83A312061A
:10741200AC902706F022FFE0FAA3E02DF582EA3CC9
:10742200F583E4936F22900D07E475F0010207CC17
:10743200900D05E0FEA3E0A3FFE0FCA3E0FDC39FE7
:10744200EC9E229027007480F09027027470F0A3C3
:10745200E4F0902708F0A3F07F0122E0FEA3E09081
:107462002703F0EE902702F022FFEEF0A3EFF043A5
:10747200992090270EE4F0901356E0229027097489
:1074820001F0902708E4F022120ACC8D828C83024C
:1074920006ACEEF0A3EFF0EE54014F22CFF0A3EFD3
:0D74A200F0E422900D0B120A5F900D0B22FA
:06CA8500E4901357F022BB
:07CA77009013577480F022B8
:10B9D80090270EE4F090270DE020E0F90000000029
:10B9E800EF127461902708E4F0A304F0901357E075
:10B9F8004402902700F00000000090270DE020E0AE
:08BA0800F99027007480F02280
:100E7F00900D4C120AEC900D4A1274946004007F8E
:100E8F001422900D4AE0FEA3E07802CEC313CE13D6
:100E9F00D8F9900D5612746B70047F808002E4FFB6
:100EAF0012A223901357E0701D902700E06480700A
:100EBF0015902708E0700FA3E0700B902702E0B4A5
:100ECF007004A3E06009900D587413F0020FE4E46E
:100EDF00FF12B182E4900D5DF012BFFC900D56E051
:100EEF00FEA3E0FF12B9D8900D4FE030E00AE49076
:100EFF000D581273ED020FE490270DE020E0F91268
:100F0F00747E900D50F0A3F0900D56E0FFA3E0908B
:100F1F000D54CFF0A3EFF0900D52E4F0A37480F0D6
:100F2F0012BFFC900D5412745D900D4C120ACC90B0
:100F3F000D501273FB900D501273C2000000009001
:100F4F000D50E475F0041207CC900D5412742B90D1
:100F5F000D5274FFF5F01207CC900D52E07002A302
:100F6F00E070BD90270DE020E0F91273EE900D4A6E
:100F7F00E0FFA3E0900D5912749E900D58F0900D64
:100F8F005BF0A3F0900D5BE0FEA3E0FFC3EE9402D5
:100F9F00502E900D4C120ACC8F828E831206ACFF0E
:100FAF00900D5BE0FCA3E0FD900D591274196008E1
:100FBF00900D587415F08008900D5B12742B80C43F
:100FCF00900D58E0600F900D5DE004F0E0C39404C5
:100FDF005003020EE812744512A2235399DF7F01CA
:0C0FEF0012B182900D58E0FF600100225A
:10515B009011A3120AEC9011A11274946004007FB9
:10516B0014229011A1E0FEA3E07802CEC313CE135C
:10517B00D8F99011AE12746B70047F808002E4FF3B
:10518B0012A223901357E0701D902700E0648070EB
:10519B0015902708E0700FA3E0700B902702E0B486
:1051AB007004A3E060099011B07413F00252D8E4BC
:1051BB00FF12B182E49011B5F012BFFC9011AEE07A
:1051CB00FEA3E0FF12B9D89011A6E07002A3E07025
:1051DB00099011B01273ED0252D890270DE020E028
:1051EB00F912747E9011A8F0A3F09011AEE0FFA31A
:1051FB00E09011ACCFF0A3EFF09011A6E0FCA3E090
:10520B00FDAE047802CEC313CE13D8F9FF9011AACA
:10521B00EEF0A3EFF0ED5403600A9011AAE475F0E1
:10522B000102526F9011AAE07002A3E0603C12BF22
:10523B00FC9011AC12745D9011A3120ACC9011A8C2
:10524B001273FB9011A81273C2000000009011A8FA
:10525B00E475F0041207CC9011AC12742B9011AAC8
:10526B0074FFF5F01207CC02522F90270DE020E0CF
:10527B00F91273EE9011A1E0FFA3E09011B112743B
:10528B009E9011B0F09011B3F0A3F09011A6E0FE38
:10529B00A3E09011B312743A501E9011A312748AAA
:1052AB009011B112741860089011B07415F0800849
:1052BB009011B312742B80D39011B0E0600F90114A
:1052CB00B5E004F0E0C3940450030251C4127445DA
:1052DB0012A2235399DF7F0112B1829011B0E0FF2C
:0452EB00600100223C
:10828800900D00EEF0A3EFF0A3120AEC900D00E0C1
:10829800FEA3E0FFE4FCFD1274A5120A53900D063C
:1082A800E024FFFF900D05E034FFFEE4FCFD12081A
:1082B800A71274A5120A47ED4C6004007F1222E44D
:1082C800900D0AF0900D00E0FFA3E0900D0F1274DE
:1082D8009E900D09F0E4900D07F0A3F0127432504F
:1082E80029900D0FE0FEA3E02DF582EE3CF583E426
:1082F80093FF900D02120ACC900D07A3E0F5828C33
:1083080083EF12070D12742880D2E4900D07F0A3B2
:10831800F0127432501B900D0212748A900D0F12D5
:1083280074186008900D0A7416F08005127428807D
:10833800E0900D0AE0600B900D09E004F0E06404A1
:088348007093900D0AE0FF2282
:10C65900AF04E0FDA3E0FB12C0C1EF22EDF0A3EBB4
:06C66900F0AC07E5982289
:0BC93D00EF6004439810225398EF2293
:10C0C100EFD394074008EF640A60037F1222ED600A
:10C0D10009EBD39401400C7F1122EBD3940240036E
:06C0E1007F11227F002206
:10840F00900CFE12C66520E404007F1022900CFE33
:10841F0012C65960020022EC120B7E844900844F71
:10842F0001845502845B03846104846705846D06AF
:10843F0084730784790A0000847D7E0179FE802E83
:10844F007E0279FD80287E0479FB80227E0879F7F1
:10845F00801C7E1079EF80167E2079DF80107E40A1
:10846F0079BF800A7E80797F80047EFFE4F9900CCB
:10847F00FEE06019E952B19022EAE059F0900CFF4A
:10848F00E06005EE42C18032E952C1802D900CFFB1
:10849F00E0FF700E9022EAE04EF09022E7E04EF0FF
:1084AF008012EF9022EAB40108E04EF09022E780AC
:0D84BF0000E059F0EE42B1EE42B97F00221C
:1084CC00900CFE12C66520E404007F1022900CFE76
:1084DC0012C65960020022EC120B7E850600850C38
:1084EC0001851202851803851E04852405852A063C
:1084FC0085300785360A0000853A7E0179FE802E8C
:10850C007E0279FD80287E0479FB80227E0879F733
:10851C00801C7E1079EF80167E2079DF80107E40E3
:10852C0079BF800A7E80797F80047EFFE4F9900C0D
:10853C00FEE06019E952B29022EBE059F0900CFF8A
:10854C00E06005EE42C28032E952C2802D900CFFF1
:10855C00E0FF700E9022EBE04EF09022E8E04EF03F
:10856C008012EF9022EBB40108E04EF09022E880EC
:0D857C0000E059F0EE42B2EE42BA7F00225C
:10835000900CFE12C66520E404007F1022AF04904A
:108360000CFE12C65B60020022EC120B7E838C00B6
:10837000839201839802839E0383A40483AA0583C6
:10838000B00683B60783BC0A000083C07E0179FE75
:10839000802E7E0279FD80287E0479FB80227E0873
:1083A00079F7801C7E1079EF80167E2079DF8010AF
:1083B0007E4079BF800A7E80797F80047EFFE4F969
:1083C000900CFEE06019E952B49022ECE059F09074
:1083D0000CFFE06005EE42C48032E952C4802D906B
:1083E0000CFFE0FF700E9022ECE04EF09022E9E0EE
:1083F0004EF08012EF9022ECB40108E04EF0902293
:0F840000E98000E059F0EE42B4EE42BC7F00226A
:0C181A0041132B0041132C0041132D0042
:08CA3F00EDF0A3EBF0E59222FB
:04C4E500E0FD7F01F6
:10C4E900ED600543F904800353F9FBEF600443E968
:06C4F900042253E9FB22BE
:0BC94800EF6004439202225392FD2294
:108A87009012F812CA3F20E104007F10229012FAD8
:108A9700E0D394034004007F2022E4FDEF120B7E15
:108AA7008AC6008ACC018AD2028AD8038ADE048A5F
:108AB700E4058AEA068AF0078AF60A00008AFC7942
:108AC700017EFE803279027EFD802C79047EFB8058
:108AD7002679087EF7802079107EEF801A79207E2C
:108AE700DF801479407EBF800E79807E7F80087991
:108AF700FFE4FE80027D30ED600300FF229012F854
:108B0700E060279012FAE0FF30E105E942EA8003CE
:108B1700EE52EAEF30E005E942EB8003EE52EBE973
:108B270042EC9012F912C4E58003EE52EC7F00226A
:0BC95300EF6004439204225392FB2289
:108B37009012FC12CA3F20E204007F11229012FE1D
:108B4700E0D394034004007F2122E4FDEF120B7E63
:108B57008B76008B7C018B82028B88038B8E048B38
:108B670094058B9A068BA0078BA60A00008BAC791D
:108B7700017EFE803279027EFD802C79047EFB80A7
:108B87002679087EF7802079107EEF801A79207E7B
:108B9700DF801479407EBF800E79807E7F800879E0
:108BA700FFE4FE80027D31ED600300FF229012FC9E
:108BB700E060279012FEE0FF30E105E942F2800312
:108BC700EE52F2EF30E005E942F38003EE52F3E9AB
:108BD70042F49012FD12C4E58003EE52F47F0022A6
:0BC95E00EF6004439208225392F7227E
:108DE90090130012CA3F20E304007F13229013025C
:108DF900E0D394034004007F2322E4FDEF120B7EAD
:108E09008E22008E28018E2E048E34058E3A068E0F
:108E190040078E460A00008E4C79017EFE80267935
:108E2900027EFD802079107EEF801A79207EDF8016
:108E39001479407EBF800E79807E7F800879FFE4B7
:108E4900FE80027D33ED600300FF22901300E06095
:108E590027901302E0FF30E105E942FA8003EE5260
:108E6900FAEF30E005E942FB8003EE52FBE942FCF0
:0E8E790090130112C4E58003EE52FC7F00222C
:0DC8CF00F0A3F0EF24FF92AF902190E02243
:06CA8B00902191EFF02262
:10C78E00EF9021916005E04402F022E054FDF0228A
:10C79E00EF9021916005E04404F022E054FBF0227A
:10C7AE00EF9021916005E04408F022E054F7F0226A
:10C7BE00EF9021916005E04410F022E054EFF0225A
:09CA2400902158EFF0EEA3F0227E
:09CA2D0090215AEFF0EEA3F02273
:0FC85E00AC02AD017B087A007F507E2102A076EC
:10C4FF00A2AFE433FFC2AF902004E4F0902001120A
:0AC50F00C8CF4440F0E054BFF02212
:10C51900A2AFE433FFC2AF902084E4F090208112EF
:0AC52900C8CF4420F0E054DFF022F8
:0BC969007F1612CA8B12C4FF02C51912
:0C1826004112710041126C004112700070
:1090FB00E5E8F0A3E5E9F0AFA875E902E4F5E8755A
:10910B00A8809027927483F090279EE0C2AF90279F
:10911B0093E0E4F583D2AF2290279F7444F090271D
:10912B0092E0547FF0E490126CF022120ACC8E8203
:10913B007583001206AC902790F0E4F583D2AF2232
:10914B009027927480F022E0547F25E0902791F0D5
:10915B0022FEE4901271F0902792E022901233E0FD
:10916B0004F0E0C3942022EFF0A3EDF0A3120AEC7D
:10917B00E422E004F090126CE02212C43D9027929E
:0A918B00E022E0F5E88FA8AF05220E
:0BC97400EF60044399802253997F225A
:10A62900E59920E704007F1022901306E0FEC39409
:10A63900125004007F1122EF6041A2AFE433FFC240
:10A64900AF902794EEF090279674FFF0902795E449
:10A65900F0902793E090279EE0EB90279230E00559
:10A6690074A3F080037483F053F9FDED600343F99B
:10A679000243E902EF24FF92AF800653E9FD1291EC
:04A689004B7F0022E1
:10C43D00E490126AF0A3F090126AE475F00112070D
:0EC44D00CC90126AE07004A3E0640A70EA2248
:1087BC0090122212917290122AF0E59920E704008F
:1087CC007F1022901227E0FE70028006EED3940FE9
:1087DC004004007F1122E4FFFE12BE819012281289
:1087EC0090FB901222129152C2AF901223E0129180
:1087FC0041FE901227E0FDEEC39D500BC2AF9012CC
:10880C00241291360E80EB129123901227E0240251
:10881C0012915C4470F0E4FD90122A12917D600478
:10882C007D128012901271E06E600B90122AE0C3E0
:10883C00944040E47D80ED700612918554EFF0E495
:10884C0090122AF030960320970A90122A12916AFD
:10885C0040F27D8012914B901229E0F5E99012289C
:04886C0012918D22B6
:1069330090122B129172901233F0E59920E7040024
:106943007F1022901230E0FE70028006EED3941086
:106953004004007F1122E4FFFE12BE819012311227
:1069630090FB90122B129152C2AF90122CE0129115
:1069730041901230E0902797F01291237E021291FA
:106983005E447CF0E4FD90123312917D60047D122D
:106993008012901271E06E600B901233E0C394503A
:1069A30040E47D80ED6014E4901233F030960320D0
:1069B300976B12916740F57D80806212918554F741
:1069C300F0902791E04401F0E4901233F090126CC0
:1069D300E0700E901233E004F0E0C394E040EE7DEB
:1069E30080E4FE901230E0FCEEC39C501EC2AF90D8
:1069F3002790E0FC90122D120ACC8E82758300EC56
:106A030012070DE4F583D2AF0E80D8E4901233F071
:106A130030960320970712916740F57D8012914BC2
:0D6A2300901232E0F5E990123112918D22AF
:1089D600901272EF129176901279F0E59920E704E1
:1089E600007F1022901276E0FE70028006EED3948D
:1089F600104004007F1122E4FFFE12BE8190127720
:108A06001290FB901272129152E4FE901276E0FDE3
:108A1600EEC39D500BC2AF9012731291360E80EBCF
:108A2600129123901276E00412915C4470F0E4FDFA
:108A360090127912917D60047D128012901271E07D
:108A46006E600B901279E0C3944040E47D80ED7037
:108A56000612918554EFF0E4901279F030960320D7
:108A6600970F901279E0FE04F0EEC3941040ED7D6E
:108A76008012914B901278E0F5E990127712918D61
:018A860022CD
:107860009011EFEFF0A3120AECE59920E704007FF6
:107870001022E4FFFE12BE819011F6E5E8F0A3E5C8
:10788000E9F0A3E5A8F01291049011EFE0547F25F0
:10789000E04401902791F09011F3E0FFD394104061
:1078A0000B9027977410F0EF24F080099011F3E00B
:1078B000902797F0E4901270F0129123901270E0EC
:1078C0009011F9F0E4901271F09011F0120ACC903E
:1078D000126D120AEC902792E04474F0E49011F4D7
:1078E000F090126CE060FAE49011F5F0902797E0C8
:1078F000FF9011F5E0FEC39F502DC2AF902790E09E
:10790000FFEEFD9011F9E02DFDE433FC9011F01233
:107910000ACC8D828C83EF12070DE4F583D2AF90F1
:1079200011F5E004F080C53096FD3097FA12914BC6
:107930009011F7E0F5E99011F6E0F5E89011F8E024
:08794000F5A89011F4E0FF220C
:10B1CA0015660AB30AB2055906B4035A035C01AEFE
:10B1DA0001C200E10104008201D200E901120089E2
:10B1EA0000B20059008A0045008A0045008A0045DD
:10B1FA00023001180118008C0096004B004600230B
:08B20A00003C001E003C001E88
:101832004111D4004111D3034111D2004111D10011
:041842004111D00080
:10ADF40075F002120AC0E493FF7401939011C8CF56
:10AE0400F0A3EFF0E4A3F0A3F0229022007438F052
:10AE14009011D3E025E025E0229011C8E0FEA3E0E4
:10AE2400FFC39011CBE09F9011CAE09E229011CAFB
:0EAE3400E475F0010207CC9022007434F02285
:0EC88A00EF30E0047F018002E4FF127CD42234
:07CA7E00902200741CF0225D
:108E8700900D1CEEF0A3EFF0A3EDF0600B9027839D
:108E9700E4F09022D07488F0A2AFE433900D1FF075
:108EA700C2AF90228DE0900D20F07F1112CA47903B
:108EB7002200742CF07F13E49011C6F0A3F0900DFC
:108EC7001CE0FCA3E0FDC39011C7E09D9011C6E034
:108ED7009C502190228DE020E612A3E05407FE70FB
:108EE70003FF8010EEB404047F1280089011C612AD
:108EF700AE3480CA90228F74FFF0900D20E090224C
:108F07008DF0900D1FE024FF92AF900D1EE06009D9
:0E8F1700EF70069022D07484F0EF600100220B
:10C75C007F0A12CA47E4FD7F0112C3A27F0102C700
:01C76C00CEFE
:109A2800900D1CEFF0BF04028009900D1CE0D39448
:109A3800054004007F182212AE3BE4FF12B1829069
:109A48000D1CE0FF12A9D0900D1CE01460161460E4
:109A58001B14602024FE60242405702690221174B3
:109A680009F0801E9022117405F08016902211745E
:109A780003F0800E9022117402F080069022117477
:109A880010F0902200743CF07F0112B182900D1CFE
:089A9800E09011D3F07F0022E1
:10AF2A00901358EFF012A9D0901358E0FF1460164E
:10AF3A0014601B14602024FE6024240570269022CD
:10AF4A00117409F0801E9022117405F08016902267
:10AF5A00117403F0800E9022117402F08006902280
:0CAF6A00117410F09011D3EFF07F002262
:10B8F400901359EFF07F03129A28901359E0902285
:10B90400246013E04440F0902785E04408F090223E
:10B9140037E04480F022E0543FF0902785E054F76C
:09B92400F0902237E0547FF0227C
:10858900900D1CEFF0C3940B4006E0D3941A4004FD
:10859900007F172212AE3BE4FF12B182900D1CE05E
:1085A900120B7E85E00B85E40C85E80D85EC0E85C4
:1085B900F00F85F41085F81185FC128600138604E6
:1085C90014860815860C168610178614188618192D
:1085D900861C1A000086287F65803A7F6A80367F6C
:1085E9006F80327F74802E7F79802A7F7E80267FFC
:1085F9008380227F88801E7F8D801A7F9280167FDC
:108609009780127F9C800E7FA1800A7FA680067FBB
:10861900AB80027FB07E09128703900D1DEFF090A9
:108629000D1DE06004000285A5902200743CF07FD6
:0D8639000112B182900D1DE0FF60010022D2
:0FC86D00E4FE902284E0FF70050EEEB4FAF42290
:08CA4700EF541F90228DF02234
:10C59B00A2AFE433FEC2AFED24FF92F8EF24FF927B
:09C5AB00E8AF06EF24FF92AF2275
:10B18200EF603D90228EE054F7F0E04408F07591B4
:10B1920010A2AFE433FFC2AF902084E4F09020818C
:10B1A200F0A3F0EF24FF92AFE49011D2F09021903F
:10B1B200E04420F0E054DFF0902201E054FEF0225F
:08B1C200902201E04401F0229B
:06CA9100EF24FF92AF222A
:03003E0002759CAC
:107F5A00902002E4F0902303E0902192F090228096
:107F6A00E05470FF6007641060037F15229011D1FE
:107F7A007401F09011D4E0547DF0900DD574E1F0C5
:107F8A0012003E12AE0E24CAF582E434B1F583C063
:107F9A0083C082901356E0D082D08312ADF412AE21
:107FAA001D50139011D4E030E107E4900DD5F08014
:107FBA000512AE3180E8900DD5E0B4E10F12AE3B68
:107FCA00902002E4F09011D1F07FE122E49011D1E7
:107FDA00F0900DD5F0902301E030E539900DD5747D
:107FEA00E9F012AE1424E2F582E434B1F583C083D9
:107FFA00C082901356E0D082D08312ADF412AE1D27
:10800A0050139011D4E030E707E4900DD5F08005C5
:10801A0012AE3180E8902002E4F0900DD5E0FF2204
:109195009011D1E0600302922C9023807405F0A316
:1091A5007402F0EF6004E04410F0902382E4F0A331
:1091B500EDF090222CE0900E11F090222CE044204E
:1091C500F09020027480F0902280E0547060046476
:1091D50010704712AE0E24FAF582E434B1F583C05F
:1091E50083C082901356E0D082D08375F002120AB4
:1091F500C0E493FF7401939011CC12AE039011CC8F
:10920500E0FEA3E0FFC39011CFE09F9011CEE09E5A
:10921500500512AE3480E612AE3B902002E4F09089
:089225000E11E090222CF02252
:10C3A200EDD394024004007F1122EF6009ED4410A6
:0FC3B20090222CF0800690222C7430F07F002215
:06CA970090222DEFF022B9
:10C7CE00EF90227E6005E04408F022E054F7F0225C
:10972F00901348EFF0D394034004007F112290135D
:10973F0048E0FE700A9011D0E07004007F1622E41A
:10974F00901349F0EEB4010D12CA7E7F011297AD4E
:10975F007401F08043901348E0B4020D12CA7E7F6B
:10976F00021297AD7402F0802F901348E0B40310EB
:10977F0012CA7E7F0312A1B99011D07403F0801822
:10978F00E4FF12A1B9E4FD7F107E27128E8790139C
:10979F0049EFF0E49011D0F0901349E0FF2212A1AD
:0597AF00B99011D02269
:10C7DE00EFD394164004007F1122125E9A7F00223E
:10C7EE00EF6009AF0512C6EA439EC022539E3F2258
:0EC89800EF600712CA6F439CC022539C3F22E0
:10B92D00902281E0541FD39402402D9022BDE0203F
:10B93D00E0267F019022B0E04401F0E4FDFC90226E
:10B94D00BDE030E004E4FF800B0DBD00010CBC0335
:09B95D00EDBDE8EAEF70DD2222E5
:0818460041134B0041134A005D
:106E19009022EDE06580FF9022F0E05FFF9022EE86
:106E2900E06590FE9022F1E05EFE9022EFE065B011
:106E3900FC9022F2E05CFC9022F0E022E5E8F0AD63
:106E49009AA9E9759A07E4F5E8F5E99022E1746EE3
:106E5900F09022E6E054FBF0E054E7F022E09022C3
:106E6900E5F09022E27490F0D2D875E88075A88098
:106E790022E0FEEFF4FCEE5CF022EEF0A3EFF0A3CB
:106E8900EDF0A3EBF09022F0E055B9FFE06F22E0BE
:106E9900FAA3E0FBEA9022E3F0A3EBF022E5A8F0E5
:106EA900E4F5A89022EBE0229022F1E055BAFFE048
:106EB9006F229022F2E055BCFFE06F22EF4404FFFD
:106EC9009022EBE054E7F022AF058F9AD2D8538F86
:106ED900BF22E0FEEFF4FFEE5FF022FFE054033340
:106EE900333354F8FEEF4E22EF9022E0F0E4F59AA6
:106EF90022E0F5E8AF018FE92254012FFFE0FDA858
:036F090006082255
:10B25A00ED24FF92FCEF6033EB4A700A9012D8E0BB
:10B26A007004007F11229022E1746EF0126E9D909C
:10B27A0012D8E09022E5F0A3E054E7F0E04480F031
:10B28A00D2EC9022E0E04420F08009C2EC9022E067
:07B29A00E054DFF07F002209
:10BD9C00900D1CEFF020E0069022E07498F09027B4
:10BDAC0083E4F012CA7E902780E4F0A3F0900D1C7F
:0EBDBC00E030E007902203E0547FF07F002289
:10C04C009022E074D8F090278074F6F0A37423F05B
:10C05C0012C066EF600312C0662212CA7EE4FD7F36
:07C06C00107E27128E8722CF
:109B8E0090132EEFF0A3EDF0A3EBF0E4FFFE901395
:109B9E002EE0FDA806088002C313D8FC90132F12E6
:109BAE006F028002C313D8FC901330126F02800232
:109BBE00C313D8FC54012FFF0EEEB407D1EFC3949C
:109BCE00024004007F1122E4FFFE12BE81AFA8AE58
:109BDE00E8ADE990132EE0547FF5A8A3E0F5E8A3D5
:109BEE00E0F5E943A8807587010000E4F5A88DE94A
:069BFE008EE88FA8FF2293
:105D8000900CFE126E836002800C126EB160028075
:105D900005126EBB6004007F1522900D01E0D394C4
:105DA000034004007F112212CA7EE4900D08F0FF28
:105DB000FE12BE81900D03126EA6900D09F0902286
:105DC000E1E0900D07F09022E0E0900D06F09022C7
:105DD000E6E0900D05F0900D04126E45900D02E086
:105DE000FC9022E630E706E0547FF08004E0448037
:105DF000F09022E6C083C082E0900D01126EE4D0E4
:105E000082D083F0900CFE126E98900D00126E6698
:105E10007FB9EC30E004EF54DFFF900D02E030E199
:105E200003126EC5126EF1E5D220E5FB126E196FFA
:105E3000701DAF06A3E06F7016AF04A3E0B5040FAA
:105E4000758702000000000000000000008006903E
:105E50000D087412F0126ED1900D04126EFA900DAE
:105E600006E09022E0F0900D05E09022E6F0900D23
:105E700007E09022E1F0900D09E09022EBF0900D08
:105E800003E0F5A8900D08E0600100E4FD7F107EBE
:0A5E900027128E87900D08E0FF2214
:10651A00900D1C126E836002800C126EB1600280B4
:10652A0005126EBB6004007F1522900D1FE0D39404
:10653A00034004007F1122E4900D26F07FA07E869E
:10654A0012BE81900D21126EA6900D27F09022E1C5
:10655A00E0900D25F09022E0E0900D24F09022E6E4
:10656A00E0900D23F0900D22126E45900D20E0FC74
:10657A009022E630E706E0547FF08004E04480F0A1
:10658A009022E6C083C082E0900D1F126EE4D08292
:10659A00D083F0900D1C126E98900D1E126E667FBD
:1065AA00BAEC30E004EF54DFFF900D20E030E10355
:1065BA00126EC5126EF1E5D220E5FB126E196F70EC
:1065CA001DAF06A3E06F7016AF04A3E0B5040F7504
:1065DA008702000000000000000000008006900D05
:1065EA00267412F0126ED1900D22126EFA900D24BA
:1065FA00E09022E0F0900D23E09022E6F0900D2545
:10660A00E09022E1F0900D27E09022EBF0900D212E
:0C661A00E0F5A8900D26E0FF60010022D2
:1077750090127AEF126E8D6002800C126EB160026B
:107785008005126EBB6004007F1522E4901280F024
:107795007F107E2712BE8190127B126EA6901281F9
:1077A500F09022E1E090127FF09022E0E090127ECE
:1077B500F09022E6E090127DF090127CE5E8F0AFC3
:1077C5009A126E4A126E6B7E9B90127AE030E10738
:1077D500EE4404FE126EC9EE126EF2E5D220E5FB10
:1077E5009022EDE06580FE9022F0E05EFE9022EEB4
:1077F500E06590FD9022F1E05DFD126E336E701D27
:10780500AE05A3E06E7016AE04A3E0B5040F758750
:1078150002000000000000000000008006901280B9
:107825007412F0126ED390127C126EFA90127EE0F2
:107835009022E0F090127DE09022E6F090127FE039
:107845009022E1F0901281E09022EBF090127BE023
:0B785500F5A8901280E0FF6001002207
:10B2A100EFD394074004007F16227401A807088099
:10B2B10002C333D8FCFF9022EAE04FF0EB9022ED7D
:10B2C100600BE04FF09022E7126E7A8009126E7ADD
:10B2D1009022E7E04FF0ED9022F06005E04FF08022
:07B2E10003126EDB7F002267
:10B2E800EFD394074004007F16227401A807088052
:10B2F80002C333D8FCFF9022EBE04FF0EB9022EE34
:10B30800600BE04FF09022E8126E7A8009126E7A94
:10B318009022E8E04FF0ED9022F16005E04FF080D8
:07B3280003126EDB7F00221F
:10B32F00EFD394074004007F16227401A80708800A
:10B33F0002C333D8FCFF9022ECE04FF0EB9022EFEA
:10B34F00600BE04FF09022E9126E7A8009126E7A4C
:10B35F009022E9E04FF0ED9022F26005E04FF0808F
:07B36F0003126EDB7F0022D8
:1096A700EFF07F807E387D017C00A3120A53D3023E
:1096B70009ECE0FCE4120336E4FBFA79C8784202CD
:1096C700028F120A537F007E127D7A7C0002093FC7
:1096D700E47F7BFEFDFC120A53C30209EC120186EC
:1096E70012036AAB07AA06EB4A22ECF0A3EDF0A936
:1096F70007E59A22E0FCA3E0FDE4020331C3EB9403
:1097070020EA940322AD03EDF0EAFF22FFE0FCA379
:10971700E0FD22AD03EDF0EAFF22E47F7BFEFDFCD6
:0897270022FFE0FCA3E0FD229B
:05C494007481F07F013E
:10C49900ED600543F908800353F9F7EF600443E9B8
:06C4A900082253E9F7220E
:0BC97F00EF6004439A0822539AF7224D
:10A2F5009012991296F120E304007F1222C3901266
:10A305009AE09B901299E09A5004007F11229025C3
:10A31500867420F0E96039901299E0FEA3E090255B
:10A3250083F0EEF9902582F090258512970C902503
:10A3350084F09025867409F0902583EDF0902582B0
:10A34500EFF0901299A3E0902585F0902584E9F02F
:07A35500E490129DF0FF22CD
:10B64C00E59A20E304007F12221297045004007F35
:10B65C0011229025867420F0EF601E902583EBF06C
:10B66C00EA902582F0A3E0902585F0902582E09069
:10B67C002584F090258612C494E49012DDF0FF220C
:109F9A009012341296A7501A9012351296D7500280
:109FAA008010901239E0FFD394635006EFC39401F6
:109FBA005004007F11229012351296C990123BEE7E
:109FCA00F0A3EFF09012391296B9C004C005C0068A
:109FDA00C00790123B1296FBD003D002D001D000EA
:109FEA001296E47003FA7B01901234E090123B124D
:0E9FFA00971390123AE090129DF012A2F522F9
:0BC98A00EF6004439A1022539AEF2242
:10A35C0090129F1296F120E404007F1322C39012F6
:10A36C00A0E09B90129FE09A5004007F1122902550
:10A37C008E7420F0E9603990129FE0FEA3E09025E6
:10A38C008BF0EEF990258AF090258D12970C902584
:10A39C008CF090258E7409F090258BEDF090258A29
:10A3AC00EFF090129FA3E090258DF090258CE9F0B2
:07A3BC00E49012A3F0FF2260
:10B68C00E59A20E404007F13221297045004007FF3
:10B69C00112290258E7420F0EF601E90258BEBF01C
:10B6AC00EA90258AF0A3E090258DF090258AE09011
:10B6BC00258CF090258E12C494E49012E2F0FF22B7
:10A0080090123D1296A7501A90123E1296D75002FF
:10A018008010901242E0FFD394635006EFC394017E
:10A028005004007F112290123E1296C9901244EEFD
:10A03800F0A3EFF09012421296B9C004C005C00612
:10A04800C0079012441296FBD003D002D001D00072
:10A058001296E47003FA7B0190123DE090124412CC
:0EA068009713901243E09012A3F012A35C2213
:0BC99500EF6004439A2022539ADF2237
:10A3C3009012A51296F120E504007F1422C3901287
:10A3D300A6E09B9012A5E09A5004007F11229025DD
:10A3E300967420F0E960399012A5E0FEA3E0902571
:10A3F30093F0EEF9902592F090259512971A9025F7
:10A4030094F09025967409F0902593EDF0902592A1
:10A41300EFF09012A5A3E0902595F0902594E9F034
:07A42300E49012A9F0FF22F2
:10B6CC00E59A20E504007F14221297045004007FB1
:10B6DC0011229025967420F0EF601E902593EBF0CC
:10B6EC00EA902592F0A3E0902595F0902592E090B9
:10B6FC002594F090259612C494E49012E7F0FF2262
:109DD8009012461296A7501D12972190124712967C
:109DE800DD5002801090124BE0FFD394635006EFD1
:109DF800C394015004007F11229012471296C99013
:109E0800124DEEF0A3EFF090124B1296B9C004C0B9
:109E180005C006C00790124D1296FBD003D002D0A1
:109E280001D0001296E47003FA7B01901246E0908C
:109E3800124D12972890124CE09012A9F012A3C369
:019E480022F7
:0BC9A000EF6004439A4022539ABF222C
:10A42A009012AB1296F120E604007F1522C3901217
:10A43A00ACE09B9012ABE09A5004007F1122902569
:10A44A009E7420F0E960399012ABE0FEA3E09025FB
:10A45A009BF0EEF990259AF090259D12971A902577
:10A46A009CF090259E7409F090259BEDF090259A1A
:10A47A00EFF09012ABA3E090259DF090259CE9F0B7
:07A48A00E49012AFF0FF2285
:10B70C00E59A20E604007F15221297045004007F6E
:10B71C00112290259E7420F0EF601E90259BEBF07B
:10B72C00EA90259AF0A3E090259DF090259AE09060
:10B73C00259CF090259E12C494E49012ECF0FF220C
:109E490090124F1296A7501D1297219012501296F8
:109E5900DD50028010901254E0FFD394635006EF56
:109E6900C394015004007F11229012501296C99098
:109E79001256EEF0A3EFF09012541296B9C004C036
:109E890005C006C0079012561296FBD003D002D027
:109E990001D0001296E47003FA7B0190124FE09012
:109EA9001256129728901255E09012AFF012A42A78
:019EB9002286
:0BC9AB00EF6004439A8022539A7F2221
:10A14F009012B11296F120E704007F1622C39012ED
:10A15F00B2E09B9012B1E09A5004007F112290253B
:10A16F00A67420F0E9603C9012B1E0FEA3E09025C8
:10A17F00A3F0EEF99025A2F0AD039025A5EDF0EA3E
:10A18F00FF9025A4F09025A67409F09025A3EDF07B
:10A19F009025A2EFF09012B1A3E09025A5F09025A5
:0AA1AF00A4E9F0E49012B5F0FF22DD
:10B74C00E59A20E704007F16221297045004007F2C
:10B75C0011229025A67420F0EF601E9025A3EBF02B
:10B76C00EA9025A2F0A3E09025A5F09025A2E09008
:10B77C0025A4F09025A612C494E49012F1F0FF22B7
:109CF0009012581296A7501D129721901259129641
:109D0000DD5002801090125DE0FFD394635006EFA7
:109D1000C394015004007F11229012591296C990E9
:109D2000125FEEF0A3EFF090125D1296B9C004C07E
:109D300005C006C00790125F1296FBD003D002D078
:109D400001D0001296E47003FA7B01901258E0FFF4
:109D500090125FE0FCA3E0FD90125EE09012B5F07F
:049D600012A14F22DB
:04184E004112F6004D
:10768900E0FFE4FCFDFE1209D1901307120A5F9096
:107699001307120A477808120A10901307120A5F93
:1076A90090130722E0FFE4FCFDFE1209D190130BB1
:1076B900120A5F90130B120A477808120A109013E6
:1076C9000B120A5F90130B22EFF0900DDC120A47A0
:1076D90078081209FD900DDC120A5F900DDC020A90
:1076E90047EFF0900D52120A4778081209FD900DE4
:1076F90052120A5F900D52020A47902780E054FE09
:10770900F022AC02AD017B107A007E21227F0412A7
:10771900BD0F90219F7401F022E4F0902780E022B0
:10772900E0FFE4FCFDFE22AC02AD01E0FB7A0022A1
:10773900120AECAE02AF01C3EE942322AC02AD01F2
:107749007B087A007E2122AE02AF017B087A007C99
:107759002122120A5FE4FB902780E022900DD802D3
:0C7769000ACCE04404F090219FE4F022E0
:10C15900900CFE12772220E00AE04401F0900CFED8
:10C169007401F07F0012770B12A076900CFEE0604C
:05C17900031277032210
:10C17E0090135A12772220E00AE04401F090135AED
:10C18E007401F07F3012770B12A07690135AE06094
:05C19E000312770322EB
:10C4AF00E4FE902780E020E006E04401F07E01905A
:0BC4BF002140EFF0EE60031277032233
:10BCB100900DDC12775B20E005E04401F00B127679
:10BCC100E49021411276D19021421276D190214304
:0FBCD1001276D1902144EFF0EB6003127703223B
:10BFAC00E4900CFEF0902780E020E00AE04401F0E1
:10BFBC00900CFE7401F07F4512774512A076900C20
:08BFCC00FEE06003127703227E
:10C4CA00E4FE902780E020E006E04401F07E01903F
:0BC4DA002110EFF0EE60031277032248
:10BCE000900D5212775B20E005E04401F00B1276D4
:10BCF000FD9021111276EA9021121276EA9021131A
:0FBD00001276EA902114EFF0EB60031277032222
:10BFD400E4900CFEF0902780E020E00AE04401F0B9
:10BFE400900CFE7401F07F1512774512A076900C28
:08BFF400FEE060031277032256
:06CA9D00902140E0FF22A1
:10BDCA00902144127729127692120A539021431233
:10BDDA007689120A53902142127689120A539021C7
:0EBDEA00411277291209D11276A3120A4722BC
:08CA4F007D4512775002A0762C
:06CAA300902110E0FF22CB
:10BDF8009021141277291276B6120A539021131241
:10BE080076AD120A539021121276AD120A53902180
:0EBE1800111277291209D11276C7120A472299
:08CA57007D1512775002A07654
:08CA5F00EF547F902194F022B6
:08CA6700EF547F902195F022AD
:10C7FE00EF9021936005E04440F022E054BFF02218
:10C80E00EF9021936005E04420F022E054DFF02207
:10BD0F00EF7002800CEFD3941040028004EF30E00C
:10BD1F0004007F1A22EFC31314FF902193E054E322
:0FBD2F00F0E0FEEF25E025E0FFEE4FF07F002271
:09C0E700902780E04401F07F0382
:10C0F000EFD394034004007F1122902193E054FC7D
:0DC10000F0E0FEEF5403FFEE4FF07F002251
:10683500900DD2EDF0900DCF127739400DD3EF9436
:10684500FFEE94245004007F1822127765E41206A7
:10685500FB900DD2E0FED394794004007F1622EE22
:10686500B40104007F172212C0E7900DD3120A4726
:1068750012BCB1900DD7E0FF12C4AFE4FF12CA5F9E
:10688500127716900DD2E02402902300F0900DCFE0
:10689500120ACC900DD21277307F017E2312A0769A
:1068A500902007E4F0900DD2E02402902008F090AB
:1068B5000DDB7412F0902180E054FBF09020031260
:1068C500776B9012F2F0A3F0902180E030E207E4BC
:1068D500900DDBF080169012F2E475F0011207CCF2
:1068E5009012F2E0B402E1A3E0B458DC900DDBE0D5
:1068F5007030900DD2E02404FF127765EF1206FB8D
:1069050012771B900DCF120ACCAE02AF011277653C
:10691500120693FB7A007D017C2312A07690219FBD
:0E692500E4F0127703900DDBE0FF600100222A
:105FB400900D48EDF0900D45127739400DD3EF94D4
:105FC400FFEE94245004007F1822900D4E120ACC48
:105FD400E41206FB900D48E0FFD3947D5006EFC316
:105FE40094045004007F162212C0E7900D49120A4F
:105FF4004712BCE0900D4DE0FF12C4CAE4FF12CA80
:1060040067127716900D48E02402902400F0900D5A
:1060140045120ACC900D481277307F017E2412A0DD
:1060240076902087E4F0900D48E02402902088F0D8
:10603400900D517413F0902180E054FDF090208372
:1060440012776B9012F4F0A3F0902180E030E10716
:10605400E4900D51F080169012F4E475F0011207EB
:10606400CC9012F4E0B402E1A3E0B458DC900D51FA
:10607400E0704990219F04F0900D45120ACCAE02C5
:10608400AF01900D48E0FB7A007D017C2412A076DC
:10609400900D48E0FFE42FF582E43424F583E070AA
:1060A40010EF24FCFF900D4E120ACCEF1206FB8079
:1060B40006900D517414F090219FE4F01277039030
:0860C4000D51E0FF6001002214
:101852004110800042107E00004210C20000411080
:021862007D55B2
:10C27900120ACC8F827583001206AC902542F0E435
:10C28900F583D2AF22902540E054BFF0E04440F05E
:02C29900E4229D
:0BC9B600EF60044398802253987F221A
:0EC8A600439810D2B7E4FB7D017F0702835058
:07C8DC00E4901080F07F01E1
:06C8E300EF24FF92B722D2
:1072D4009012B8EBF0AA07E59820E704007F10228B
:1072E4009012B9E0FED394094004007F1122EE24E9
:1072F400FE601314601824FA601C24087020901295
:10730400BA7405F080209012BA7403F080189012B9
:10731400BA7404F080109012BA740BF080089012C2
:10732400B9E02402A3F0902540E4F0902543F090C6
:107334002540C083C082E0FF9012BAE0FE5403FCF3
:10734400EF4CD082D083F0902543E0FFEE540C1331
:1073540013543FFEEF4EF0EA605AA2AFE4339012AA
:10736400BBF0C2AFED24FF92FD9012B8E030E4030D
:1073740012C8A6902540C083C082E0FF9012B8E0F6
:10738400FE541CFDEF4DD082D083F0902540E044A4
:10739400C0F0D2EDEE20E412E4FF90107DE09025E1
:1073A40042F0E4F5830FEFB410F09012BBE024FF39
:0E73B40092AF8007902540E4F0C2ED7F0022EA
:10C3C100AE07E4FF12C8E3C2AF902542EE12C28766
:0FC3D100901080E060FA12C8DC9010C1E0FF22EB
:10B87F00901331120AECEDD394104004007F112283
:10B88F00E4901080F0FF12C8E3EFC39D500BC2AFDE
:10B89F0090133112C2790F80F0901080E0B505033C
:0BB8AF00D38001C350F312C8DC1F223D
:10C5CD0012C28EFEC2AF902542EF12C2870EEEB49C
:08C5DD0010F290107DEFF02236
:10BBF000901334120AECEDD394104004007F11220C
:10BC000012C28EFFC2AF90133412C2790FEFB4107C
:10BC1000F3901334120ACC12069390107DF07F003B
:01BC20002201
:10B4C8009010C2A3E0FFC390107FE09FFFEF543FAE
:10B4D800602C9010C2E0FEA3E02481F58274103E37
:10B4E800F583E01206FB9010C3E02401FF9010C220
:10B4F8007E00EF543FFFEEF0A3EFF07F01227F00C4
:01B508002220
:1093E5007FF07EFF7D077C00120A53D30209ECADA6
:1093F50007AC06ECF07C00E4120331783FE4FBFA9D
:10940500F912009502036AEFF0A3EDF0A3EBF0E586
:109415009822C3E49BFFE49AFE740199FDE498FC4D
:10942500020A5FE024FF92AF7F0022E4901207FE5C
:10943500FDFC020A53AF03E4FCFDFE120A530208C9
:10944500B4E47B03FAF9F8020A47E0FEA3E0FFC3A0
:10945500E49FFFE49EFE22900D02020A5FFB120AC2
:109465004778080209FD901265120A5F901265227D
:0BC9C100EF6004439801225398FE220F
:10935500900CFE12940C20E004007F1322900D0166
:10936500E0FBD394624004007F1722A2AFE4339060
:109375000D06F0C2AF900D02120A6B000007D090E7
:109385000D0212943A12945C900D02129446120941
:109395003FE4FDFC12945C900D02120A53900D02FD
:1093A500129417900D02120A47901311EFF0900DC9
:1093B5000212946290130FEFF08B8AF58C5389F0AB
:1093C500438901900CFFE024FF92B9A3E024FF92AA
:1093D5008C900CFEE024FF92A9900D061294282291
:10B05A00A907E59820E004007F1322A2AFE4339009
:10B06A0012C1F0C2AF9012BF12944F901311EFF0B9
:10B07A00EEFF90130FF0901311E0F58A8F8C53892D
:10B08A00F0438901ED24FF92B9EB24FF928CE92465
:0AB09A00FF92A99012C1129428221F
:0BC9CC00EF6004439802225398FD2204
:10961D0090126112940C20E104007F1422901264C8
:10962D00E0FBD394624004007F1822A2AFE4339094
:10963D001269F0C2AF901265120A6B000007D0904C
:10964D00126512943A12946B12944612093FE4FD7E
:10965D00FC12946B120A53901265129417901265B6
:10966D00120A47901312EFF0901265129462901344
:10967D0010EFF08B8BF58D53890F4389109012628B
:10968D00E024FF92BBA3E024FF928E901261E024B0
:0A969D00FF92AB901269129428228C
:10B0A400A907E59820E104007F1422A2AFE43390BD
:10B0B40012C7F0C2AF9012C512944F901312EFF062
:10B0C400EEFF901310F0901312E0F58B8F8D5389DF
:10B0D4000F438910ED24FF92BBEB24FF928EE924E9
:0AB0E400FF92AB9012C712942822CD
:0BC9D700EF6004439804225398FB22F9
:1074AF0090120412940C20E204007F15227F051223
:1074BF009430C31209EC500C9012071293E540045C
:1074CF00007F19227FF87EFF7D037C009012071248
:1074DF0093ED400E90120C7440F090120B7406F066
:1074EF0080447FFC7EFF7D017C009012071293ED9C
:1074FF00400E90120C7420F090120B7405F0802641
:10750F00E47FFE7EFFFDFC9012071293ED90120CAC
:10751F00400B7410F090120B7404F080097408F093
:10752F0090120B7403F07F081294301208B4C00746
:10753F0090120CE0FBE4FAF9F8D00712093FE412BD
:10754F00032C78BF12940290120D1293F4A2AFE4A1
:10755F0033FEC2AF53A9F0901204E0602790120DD2
:10756F00E0F5AA8FAC901205E024FF92F9A3E0603A
:10757F000C90120BE025E0440142A9800353A9FEB1
:0D758F00D2E98002C2E9AF06EE1294292273
:0BC9E200EF6004439808225398F722EE
:106A300090120E12940C20E304007F1622E47F05CE
:106A4000901211129434C31209EC500C90121112CE
:106A500093E54004007F1A227FF87EFF7D037C00CF
:106A60009012111293ED400E9012167440F0901295
:106A7000157407F080447FFC7EFF7D017C0090123E
:106A8000111293ED400E9012167420F090121574AE
:106A900006F08026E47FFE7EFFFDFC90121112932B
:106AA000ED901216400B7410F09012157405F080E2
:106AB000097408F09012157404F0E47F08FEFDFCE0
:106AC000901211129440C007901216E0FBE4FAF9FC
:106AD000F8D00712093FE412032CE4FBFAF978BF5F
:106AE0001294069012171293F4A2AFE433FEC2AFD1
:106AF00053A90F90120EE06029901217E0F5AB8FAA
:106B0000AD90120FE024FF92FBA3E0600E901215EF
:106B1000E0C43354E0441042A9800353A9EFD2EB00
:0B6B20008002C2EBAF06EE12942922A7
:105C60000709433B0B0709433B0B0707433B0B0764
:105C7000078B3B0B07078B040B07078B04040707F5
:105C80008B0404040B048B061705078B0404040D16
:105C90008B0404040D000B0B040400008B06170595
:105CA00000000617050000001705000000000500B1
:105CB00000000000040700000000070000000000D2
:105CC0001D0B000001000B0000010000000001009E
:105CD00000000001000000000100000000000000C2
:105CE00000000000000000000000000000000000B4
:105CF00000000000000000000000000000000000A4
:105D00000000000000000000000000000000000093
:105D10000000000000000000000000000000000083
:105D2000C393C7712FEE93C7712FEE77C7712FEE14
:105D30007703712FEE7703342FEE7703341AEE7763
:105D400003341A0D658B021703077703341A0D020B
:105D500003341A0D02001A0D12090000021703077E
:105D60000000170307000000030700000000070001
:105D70000000000007020000000002000000000018
:10186400420E1E0000420E140000420E22000042EE
:101874000E180000410E1C01420E200000420E16FC
:101884000000420E240000420E1A0000410E1D0109
:10887000E4FAF9F8900D00120A4712B3BCEF243065
:10888000902510F0900D00020A47E4FAF9F812B3AF
:10889000BCAC00AD01AE02AF03900D00020A5FFF59
:1088A000C3E09FFF7E00EF543FFFAD01ED24FF22A8
:1088B000FF120ACCEF1206FB901356E0FF900D1644
:1088C000E075F006A422F583E5822FF582E4358376
:1088D000F583E49322E433F0C2E8A2ACE43322E46B
:1088E00033F0C2E8A2AEE43322A2AFE433FFC2AF5A
:1088F00022C374409FFFE49EFED3EF9403EE9400E6
:1089000022E4F0A3E0543FF022E01206FBE4F583FA
:10891000EF24FF92AF7F0122120ACC8F8275830071
:038920000206ACA0
:10589700900D0C120AECE4900D15F0120BD159097A
:1058A7000000012C5910000002585918000004B0DC
:1058B7005920000009605928000012C05930000023
:1058C7002580593800003840594000004B0059489E
:1058D7000000960059500000DAC059580000E10056
:1058E70059600001C200596800038400597000071D
:1058F700080059780008CA00598000119400000078
:105907005988E4900D16F0807E900D167401F08092
:1059170076900D167402F0806E900D167403F08069
:1059270066900D167404F0805E900D167405F08075
:1059370056900D167406F0804E900D167407F08081
:1059470046900D167408F0803E900D167409F0808D
:1059570036900D16740AF0802E900D16740BF08099
:1059670026900D16740CF0801E900D16740DF080A5
:1059770016900D16740EF0800E900D16740FF080B1
:1059870006900D157412F0900D15E070491288B845
:105997002460F582E4345C1288C6900D0C1288B03E
:1059A70024C0F582E4345C1288C6900D0F1288B0CB
:1059B7002420F582E4345D1288C6FF900D12120A86
:1059C700CCEF1206FB900D12120ACC12069370064A
:0C59D700900D157412F0900D15E0FF22E9
:0BC9ED00EF6004439820225398DF22E3
:10802A00901218EFF0A3EDF0E59820E504007F1018
:10803A0022E4FF901218E0602390121A120A477B7A
:10804A00017A12791F900D0F120AEC7A1209900D1B
:10805A0012120AEC7A1209125897800BE490122134
:10806A00F090121FF0A3F0EF600200221288E9904C
:10807A002505E4F09025037480F0901220E0902505
:10808A0000F090121FE0902501F0901221E0902557
:10809A0007F0902503E4F0902507F0901218E060AD
:1080AA00389025027481F090121EE0FE543F90250C
:1080BA0003F0902501E4F0EE20E604E04401F0909C
:1080CA00121EE020E707902501E04402F0D2AC90AE
:1080DA001219E024FF92BC8009902501E4F0C2AC99
:0A80EA00C2BCEF24FF92AF7F00221A
:10C30000A2E890135B1288D5F9C2AC900E14A3E09A
:10C31000900E1F12889F92AC90135BE024FF92E86E
:01C3200022FA
:10C32100A2E8900DC81288D5F9C2AC900E18A3E00E
:10C33100900E2312889F92AC900DC8E024FF92E8E2
:01C3410022D9
:10A97800AC0712C3211288F140F8A2E8E433FF12B1
:10A9880088D8FEC2AC900E1CE06010E4F0C2AF9014
:10A998002500ECF0E4F583D2AF8022900E22E0FA95
:10A9A800A3E024A6F582740E3AF583ECF0900E220B
:10A9B800E475F0011207CC900E22128901EE24FFF3
:08A9C80092ACEF24FF92E8229B
:10AC2E00901313120AEC12C300EF4E7002FF22A211
:10AC3E00E8E4339013161288D7FFC2AC900E14E4DA
:10AC4E0075F0011207E2FC742625F0F582740E3CB5
:10AC5E00F583E0FE901313120ACCEE1206FB900E53
:10AC6E0014128901EF24FF92AC901316E024FF9288
:04AC7E00E87F012248
:10C6FE00E4FF900E1CE070010F902505E020E5028E
:03C70E007F012286
:10AF7600900DC8120AEC902501E030E1037F132200
:10AF8600EDD3941040037F1422902505E030E5F9B7
:10AF9600E4FFEFC39D5022A2AFE433900DCBF0C285
:10AFA600AF900DC8128918902500F0E4F583900D36
:0CAFB600CBE024FF92AF0F80D97F002277
:10C6AE00902505E030E00A1288E9902500128909EC
:04C6BE00227F0022B5
:0BC9F800EF6004439840225398BF22D8
:1080F400900CFEEFF0A3EDF0E59820E604007F106D
:1081040022E4FF900CFEE06023900D00120A477BEE
:10811400017A0D7905900D0F120AEC7A0D09900D74
:1081240012120AEC7A0D09125897800BE4900D078D
:10813400F0900D05F0A3F0EF600200221288E990A0
:108144002515E4F09025137480F0900D06E0902539
:1081540010F0900D05E0902511F0900D07E09025AA
:1081640017F0902513E4F0902517F0900CFEE060D2
:10817400389025127481F0900D04E0FE543F902550
:1081840013F0902511E4F0EE20E604E04401F090B1
:108194000D04E020E707902511E04402F0D2AE90F0
:1081A4000CFFE024FF92BE8009902511E4F0C2AEDA
:0A81B400C2BEEF24FF92AF7F00224D
:10C1ED00A2E8900D451288DFF9C2AE900E16A3E0BD
:10C1FD00FFC3900E211288A192AE900D45E024FF51
:03C20D0092E82292
:10C21000A2E8900DC81288DFF9C2AE900E1AA3E012
:10C22000FFC3900E251288A192AE900DC8E024FFA6
:03C2300092E8226F
:10A8C600AC0712C2101288F140F8A2E8E433FF1276
:10A8D60088E2FEC2AE900E1DE06010E4F0C2AF90BA
:10A8E6002510ECF0E4F583D2AF8023900E24E0FA35
:10A8F600A3E024E6F582740E3AF583ECF0900E247C
:10A90600E475F0011207CCE4900E24128902EE24BD
:09A91600FF92AEEF24FF92E8224B
:10AB8400900D41120AEC12C1EDEF4E7002FF22A2A9
:10AB9400E8E433900D441288E1FFC2AE900E16E44F
:10ABA40075F0011207E2FC746625F0F582740E3C20
:10ABB400F583E0FE900D41120ACCEE1206FBE49000
:10ABC4000E16128902EF24FF92AE900D44E024FF8A
:05ABD40092E87F012260
:10C71100E4FF900E1DE070010F902515E020E50269
:03C721007F012273
:10AFC200900DC8120AEC902511E030E1037F1322A4
:10AFD200EDD3941040037F1422902515E030E5F95B
:10AFE200E4FFEFC39D5022A2AFE433900DCBF0C239
:10AFF200AF900DC8128918902510F0E4F583900DDA
:0CB00200CBE024FF92AF0F80D97F00222A
:10C6C200902515E030E00A1288E9902510128909B8
:04C6D200227F0022A1
:108F2500128899128884EC3350181288841209DE4D
:108F3500128899902510742DF0902515E020E508EC
:108F450080F79025107420F0E47B107A2712887240
:108F5500E47B107A2712888C902515E030E5F9E43A
:108F65007BE87A03128872E47BE87A0312888C9096
:108F75002515E030E5F97B641288707B6412888AD8
:108F8500902515E030E5F97B0A1288707B0A128876
:108F95008A902515E030E5F9128884EF2430902574
:108FA50010F0902515E030E5F99025107420F0902B
:0D8FB5002515E030E5F9E47F01FEFDFC220A
:09CA3600C2AF75D25575D2AA22D7
:0BCA0300EF6004439201225392FE22D8
:10B96600E59220E004007F1022EDD3940F400400FE
:10B976007F1122A2AFE433FEC2AFEF600C12CA38C9
:10B98600ED540F4440F5D2800612CA3875D280AF06
:09B9960006EE24FF92AF7F0022AF
:10BFFC0090FFFF120C0BA2AFE433850D83850E82EC
:10C00C00F012CA3643D240850D83850E82E024FFA0
:08C01C0092AF900001020C0B31
:10BE8100A2AFE433FCC2AFEF4E600E90134CEEF064
:10BE9100A3EFF07D0F7F018009E490134CF0A3F034
:0DBEA100FDFF12B966AF04EC24FF92AF2242
:10C61500EFD3940F4004007F112212CA36EF540F56
:07C62500F5D243920180FEF3
:10B50900900D41120AEC7F007E10E4900D44F0FD8D
:10B51900EF2DF582E43EF583E493FC900D44E02C95
:10B52900F0900D41120ACC8D82758300EC12070D43
:10B539000DEDB440DB900D44E070037F01227F00E4
:01B5490022DF
:0418940041135C00A0
:10C6D600F0C2AF9027A6E04480F0E4F583D2AF9095
:04C6E600135CF022CF
:0BCA0E00EF6004439940225399BF22BF
:1098B600E59920E604007F1022E490135CF09027DF
:1098C600AA04F09027A974A5F0EB600D9027ACE4EC
:1098D600F09027AB748CF080109027AAE09027AC0C
:1098E600F09027A9E09027ABF09027B2E4F09027FC
:1098F600B17464F09027AF745AF0A374B4F0902753
:10990600ADF0A3745AF090131AE09027A2F09027B6
:10991600A6742FF0ED600543F901800353F9FEEFBD
:0D992600600543E901800353E9FE7F002244
:10BA1000E59920E604007F10229027A4EFF09027FC
:10BA2000A77408F0A3742912C6D67F12FDFC9013E8
:10BA30005CE06004E4FF800B0DBD00010CBC75EE02
:08BA4000BD30EBEF60010022B4
:10BBBE00E59920E604007F10229027A77406F0A3D3
:10BBCE000412C6D67F11FDFC90135CE06004E4FF06
:10BBDE00800B0DBD00010CBC75EEBD30EBEF6001AE
:02BBEE00002233
:10BC21000A0D2045564B203A204C49422056322ECF
:10BC310035000000000000000000000000000000CE
:10BC410000000000000000000000000000000000F3
:108FC200A37429F004F004F07429F004F004F0749E
:108FD20029F004F004F022900D1F7412F0A3740320
:108FE200F0A32274039022CFF09022CE22900D1F84
:108FF2007413F0E4A3F0A322F0A3F0A3F0A3F0A370
:10900200F0A3F022900D1F7413F0A37401F0A322B9
:1090120074029022CFF09022CE22F0902249746303
:10902200F0A37455F0229022B0E04401F0E4FEFF78
:1090320022F07464A3F0A37404F02274C0F0A37449
:1090420070F090223C7490F02224A69022BFF090FF
:0D90520022BEE4F022A3F0A37450F0A3228C
:10993300EFD394054025902232743AF0A37434F0A7
:1099430090223812903D9022427411F09022457477
:109953001E12901C90224D7426804C902232744A21
:10996300F0A37416F090224214F09022457423F071
:10997300EFC39405902238401A12903D9022497407
:1099830021F0A304F090224D04F0A37499F0A37482
:1099930007F0227450F0A374B0F090223C7450127C
:0B99A300901C90224D74121290332291
:107CD40090278074F6F0A37423F09022B07440F0DF
:107CE4009022C67480F09022C274B0F09022117475
:107CF40002F090220C7405F09022207480F0A3E42A
:107D0400F0A37485F09022B97402F0A37463F09028
:107D140022B774CFF0A3E4F09022C8745FF0A37488
:107D240009F0EF30E0047E0E80027EA29022CAEEBB
:107D3400F07408129036A3E4F0740B128FE7740FFA
:107D4400F0902230744AF0902232F0A37416F0EFCF
:107D540030E0047E4B80027E4D902235EEF0EF3011
:107D6400E0047FC680027FCD902236EFF0745C126F
:107D7400905774B0F090223B7450F0A3F0902240DE
:107D84007420F0A3F0A37415F0A37410F0A3F0A36F
:107D9400742312901CA374E1F090224D741212907B
:0E7DA4003390221D7485F09022E1746EF0225F
:10A9D000AE07EE6003B4010790222174018010EEEF
:10A9E000902221B40208E4F0A374E5F08006E4F0BC
:10A9F000A37485F0AF06129933EED39405400D9001
:10AA000022197410F09022CA74D5F022EEC3940576
:10AA1000902219400A7410F09022CA74AAF022E41D
:08AA2000F09022CA74A2F0229A
:10573D00E4900D1EF0EF8EF0120BA4578C096557F7
:10574D0095096A579E096F57A7097457B00979577C
:10575D00B9097E57C2098357CB098857D4098D578C
:10576D00DC099257E4099757EC099C57F409A157A6
:10577D00FC09A6580409AB580C09B00000581412C6
:10578D008FD97428F002581A128FD97450F002581C
:10579D001A128FD97478F002581A128FD974A0F09A
:1057AD0002581A128FD974C8F002581A128FD97470
:1057BD00F0F002581A128FEF7418F002581A128F67
:1057CD00EF7440F002581A128FEF7468F0803E1299
:1057DD008FEF7490F08036128FEF74B8F0802E1228
:1057ED008FEF74E0F080261290067408F0801E1280
:1057FD0090067430F080161290067458F0800E12D8
:10580D0090067480F08006900D1E7417F0900D1E9A
:10581D00E0FF6001229022BE74C0F09022B47401AA
:10582D00F0900D1FE09022B1F0900D20E09022B28B
:10583D00F0900D21E09022B3F09022B0E04401F001
:10584D00900D1E7414F0E4FFFE9022BDE030E007D1
:10585D00E4900D1EF0800B0FBF00010EBE27EABFB6
:10586D0010E7900D1EE0601C1290289022BDE030D4
:10587D00E007E4900D1EF0800B0FBF00010EBE2758
:09588D00EABF10E7900D1EE0FFD8
:0158960022EF
:085B2400901337EEF0A3EFF03F
:105B2C00C3945AEE94094010901337E0FCA3E0FDA7
:105B3C00D394CBEC940940037F1122901339741742
:105B4C00F0ED8CF0120BA45B9709655B99096A5B0D
:105B5C00A0096F5BA709745BAE09795BB5097E5B25
:105B6C00BC09835BC309885BCA098D5BD109925B55
:105B7C00D809975BDF099C5BE609A15BED09A65B85
:105B8C00F409AB5BF409B000005BFF80009022C20B
:105B9C0074D280599022C274D180529022C274D196
:105BAC00804B9022C274D180449022C274D0803D2C
:105BBC009022C274D080369022C274D0802F902252
:105BCC00C274D080289022C274CF80219022C274DB
:105BDC00CF801A9022C274CE80139022C274CE80D1
:105BEC000C9022C274CE80059022C274CDF0E49049
:105BFC001339F0901339E0FF6001229022B0E04499
:105C0C0002F0901337A3E012904B9013397414F0F8
:105C1C00E4FFFE9022BDE030E007E4901339F08001
:105C2C000B0FBF00010EBE27EABF10E7901339E03F
:105C3C00601C1290289022BDE030E007E4901339EC
:105C4C00F0800B0FBF00010EBE27EABF10E79013C8
:035C5C0039E0FF2D
:015C5F002222
:10870300C3EF9465EE94094009D3EF94B0EE940956
:1087130040037F1122C3EF94B0EE940940059022E9
:10872300C28033C3EF949CEE940940089022C27434
:10873300B3F08025C3EF947EEE940940089022C2E3
:1087430074B4F08014C3EF9465EE94099022C24090
:108753000574B5F0800374B2F0D3EF947EEE940900
:108763009022B950057422F080037402F09022B075
:10877300E04402F0EF12904B7D14FFFE9022BDE027
:1087830030E004E4FD800B0FBF00010EBE27EDBFF8
:1087930010EAED60191290289022BDE030E004E465
:1087A300FD800B0FBF00010EBE27EDBF10EAE4FEF4
:0887B300FF600312573DAF0502
:0187BB00229B
:0CC90D009022BFE0245AFFE43409FE220F
:105E9A00EF120B7E5EE7005EEE015EFB025F04031B
:105EAA005F0B045F12055F19065F20075F27085F13
:105EBA0034095F3B0A5F480B5F4F0C5F560D5F6307
:105ECA000E5F6F0F5F76105F83115F89125F901309
:105EDA005F97145F9E155FAA1600005FB39022CFEA
:105EEA00740B80059022CF7404F09022CE740FF0C8
:105EFA00227405129014740BF022128FE5740AF0C2
:105F0A00221290127409F022128FE57407F02212FD
:105F1A008FE57406F0229022CF740380059022CF79
:105F2A007401F09022CE7405F0221290127404F0DB
:105F3A00229022CF7407F09022CE7403F02290228E
:105F4A00CF740280199022CF740C80059022CF74EE
:105F5A0004F09022CE7402F0229022CF7401F090C5
:105F6A0022CE04F0229022CF741F80059022CF7493
:105F7A000FF09022CE7401F02212901214F02290A7
:105F8A0022CF7401801E9022CF741F800C9022CFE2
:105F9A00740880059022CF7401F09022CEE4F0229A
:0A5FAA009022CFE4F09022CEF02206
:10A1B900EFB401079022707424F022EF6402600565
:10A1C900EF6403703990278074FEF09022197401AE
:10A1D900F09022707427F0902280E030E0F990220C
:10A1E900807423F0A37407F0EF902270B403057410
:10A1F90077F080037422F09022817460F022902716
:10A209008074F6F0902219E4F09022807480F0A313
:0AA21900746CF09022707480F02243
:10C6EA00EF9022926008740EF0A37402F022740193
:04C6FA00F0A3F02297
:08CA6F00902290E054C0F02277
:10A22300EF30E00C902720E4128FFAA3128FFA226A
:10A23300EF90272030E7297404F0A374E2F0A374AD
:10A2430004F0A374E2F0A37414F0A37410F0A3E475
:10A25300F074FA129057F0A374A0F0A37464F02280
:10A263007402F0A37471F0A37402F0A37471F0A3E9
:10A27300740AF0A37408F0A3E4F0A3747CF0A3744D
:09A2830028F01290577432F02209
:10759C00902785E090228230E272E4F00000000037
:1075AC0000000000128FC2000000000000000074F8
:1075BC0029F00000000000000000000000000000A6
:1075CC0000000000000000000000000000000000AF
:1075DC00000000000000000000000000000000009F
:1075EC00000000000000000000000000000000008F
:1075FC00000000000000000000000000000000007F
:10760C00000000000000000000008010E4F000000A
:10761C000000128FC2000000007429F0000000006E
:10762C00000000000000000000000000000000004E
:10763C00000000000000000000000000000000003E
:10764C00000000000000000000000000000000002E
:10765C00000000000000000000000000000000001E
:10766C00000000000000000000000000000000000E
:0D767C00000000007440F090228214F02203
:050006007EBC7F2122F9
:1035AD002023232045413D302C20496E74657272D5
:1035BD007570742044697361626C65642023230007
:1035CD002023232055415254303A496E746572724E
:1035DD007570742044697361626C656420232300E7
:1035ED002023232055415254313A496E746572722D
:1035FD007570742044697361626C656420232300C7
:10360D00202323205541525430203A20496E7465B1
:10361D0072727570742044697361626C65642023E5
:10362D002300202323205541525431203A20496E46
:10363D00746572727570742044697361626C65642F
:10364D00202323000A002025303278000A205B4D0C
:10365D0049425D000A204368616E3D25752028258D
:10366D0075204D487A292C2000202050616E494448
:10367D003D307825303478000A2053686F727441DC
:10368D006464723D30782530347800203A494545E0
:10369D00454164647228307E37293D3078000A2018
:1036AD0044737453686F7274416464723D3078254D
:1036BD0030347800203A447374494545454164647B
:1036CD007228307E37293D3078000A2044617461BC
:1036DD00526174653D3078253032782C2000203AC7
:1036ED0054785077724C6576656C3D307825303264
:1036FD00782C200020204E6F41636B5265747279D7
:10370D003D257500203A4261636B6F6666526574A4
:10371D0072793D2575000A205B52582D4D41432D80
:10372D00504B545D000A2044534E3D3078253032C5
:10373D00782C204F4F423D30782530327800203A9A
:10374D0064426D3D256400203A436F72723D2564DD
:10375D00000A204473742E204D6F64653D25303270
:10376D007800203A50616E49443D307825303478E8
:10377D0000203A53686F7274416464723D3078254D
:10378D0030347800203A4945454528307E37293D6B
:10379D003078000A205372632E204D6F64653D25ED
:1037AD00303278000A204D534455204C656E3D252E
:1037BD00303275203A2000203A4D534455203D00BB
:1037CD000A203D3D3D2048494220446973706C619B
:1037DD0079203D3D3D000A20494545452041444461
:1037ED0052284C53427E4D534229203A000A204321
:1037FD00686970496E646578203D203078253032D7
:10380D00780020284D4732343030290020284D478C
:10381D0032343558290020284D47323437302900AD
:10382D0020284D4732343630290020284D47323478
:10383D00313029002028556E636C61737369666998
:10384D00656429000A204368616E6E656C20202036
:10385D003D20257520282575204D487A29000A2000
:10386D00537461636B49442020203D20307825300E
:10387D003278000A205478506F7765722020203DF1
:10388D00203078253032780020202020446174616A
:10389D005261746520203D20307825303278000A41
:1038AD002050616E494420202020203D2030782575
:1038BD00303278253032780020204E776B416464A9
:1038CD007220203D20307825303278253032780036
:1038DD000A205365634C6576656C20203D20307859
:1038ED00253032780020202020507265436F6E669F
:1038FD006967203D20307825303278000A204E57F8
:10390D004B204B657920284C53427E4D5342292044
:10391D003A000A205265736572765F30284C534227
:10392D007E4D534229203A000A204550494420201B
:10393D002020284C53427E4D534229203A000A2024
:10394D005265736572765F31284C53427E4D5342FA
:10395D0029203A000A2047656E6572616C576F72B7
:10396D006430203D20307825303278253032780093
:10397D000A2047656E6572616C576F726431203D28
:0C398D0020307825303278253032780068
:101898004211340000421136000042113800004263
:0918A800113A000042113C00005D
:1042A3001208A79011C2120A5F9011C2120A53900A
:1042B30011BFE075F064A4FFAEF0E4FCFD1208A7A3
:1042C3009011C2120A5F9011C2120A5375F00A903C
:1042D30011BEE0A4FFAEF0E4FCFD1208A79011C2EA
:1042E300120A5F9011C222120ACC9000191206AC76
:1042F300FFE4900D5AF0A3EFF07BFF229000011230
:104303000823FF900DD3120ACC900DD9E0FDF5825E
:10431300758300EF12070D900DD0120ACC900001A7
:10432300120823E5F0FFED2401FDE433FC900DD3E7
:10433300020ACC8D828C83EF12070D900DD0020AF6
:10434300CCF9E43AFAE4900D53F07D08FC22900D89
:10435300D9E0F582758300ED12070DEEFF900DD9BC
:10436300E0F5827583002290133A120ACC90000480
:10437300120823FF900D5AE5F02290128B120ACCFB
:104383001207F8FFE5F0C4F854F0C868FEEFC45410
:104393000F48FFEE8FF012085B901290E02290110D
:1043A300BEE09011BDF09011BFE09011BEF09011EE
:1043B300C0E09011BFF09011C1E09011C0F0E4A3F0
:1043C300F09011BCE014F0229011BFE0FF7E007C5E
:1043D300037DE812072FE4FCFD221206ACFF900DCB
:1043E3005AE4F0A3EFF022120A47E47B107A27F98C
:1043F300F80208B490133D120ACC9000080206ACF0
:10440300FFFD900D5AE4F0A3EDF07E007C007D05E6
:1044130012072FEF242EFFEE3409A32274852FF504
:1044230082E4340DF58322901292120ACC02069391
:10443300120A539011BDE0FFE4FCFDFE22E92401C2
:10444300F9E43AFA020693120AEC7BFF7A367951C1
:104453007F012290133A120ACC9000020206AC8D1F
:10446300828C83EF12070D900DD9221206ACFF90B8
:104473000D5CE422E475F0010207CCC4540F12066C
:10448300FB901297E022EF24D09011BAF09011BC68
:10449300E0C3940422120A539011BAE0FF3395E06B
:1044A300FEFDFC22900DC5E0FFC3944022F0E4F52D
:1044B30083900DCEE024FF92AF2290000C0206AC55
:1044C30090000B0206AC90133A020ACCEFF0A31251
:1044D3000AECE4222402FFE433FEE92FF9EA3E2248
:1044E300120A539011BDE075F00A22900DD9E07EB7
:1044F3000029F9EE3A22FF900DD6020ACC900DC5A1
:0D450300E004F02290128B120ACC0207F89F
:10C23300900DC6EFF0902501E0900DC630E105E0CA
:10C24300FF02A978E0A3F07B017A0D79C77D011283
:03C25300AF7622A1
:10BF310090131B120AEC902501E090131B30E008CE
:10BF4100120ACC12AC2E8006120ACC12C6AE901385
:09BF51001EEFF090131EE0FF2228
:10C25600900DC6EFF0902511E0900DC630E105E097
:10C26600FF02A8C6E0A3F07B017A0D79C77D011213
:03C27600AFC22232
:10BF5A0090131F120AEC902511E090131F30E0088D
:10BF6A00120ACC12AB848006120ACC12C6C29013F3
:09BF7A0022EFF0901322E0FF22F7
:109D6400900DCA120AECA2AFE433900DCEF0C2AF4C
:109D7400902500740AF0740DF0902510740AF074A4
:109D84000D1244B0902505E030E5F9902515E0303A
:109D9400E5F9E4900DCDF0900DCA120ACC12C699E3
:109DA400900DCDE0C39FE49E5029A2AFE433A3F00D
:109DB400C2AF900DCA120ACC900DCD1243631206A5
:109DC400AC902500F09025101244B0900DCDE00425
:049DD400F080C42235
:109C0400900DC6EFF020AF3D7BFF7A3579AD129C05
:109C140072900DC6E0700B20AC087BFF7A3579CDCD
:109C24008010900DC6E0B4010C20AE097BFF7A359C
:109C340079ED129C72C2AF75D25575D2AA75D20A4B
:109C440043920180FE900DC6E0700B20AC087BFFB0
:109C54007A36790D8010900DC6E0B4011020AE0D57
:109C64007BFF7A36792FA3120AEC129D6422A31289
:069C74000AEC129D6422BF
:108BE700900D57120AEC900D56EFF0129C04E4908A
:108BF7000DC5F01244A7500A12441FE4F0124500B5
:108C070080F17B017A0D795A900D82120AEC900D52
:108C170057120ACC900DC6120AEC900D82120ACC9C
:108C2700900DC9120AEC7B017A0D798512B1389043
:108C37000D56E030E02BE4900DC5F01244A7504CE0
:108C470012441FE0FF604512C256900DC5E024850F
:108C5700124422E0B40A057F0D12C2561245008065
:108C6700DAE4900DC5F01244A7502112441FE0FF2B
:108C7700601A12C233900DC5E02485124422E0B475
:0D8C87000A057F0D12C23312450080DA226B
:106F0C0090128A1244CF901290F0F5F012085B7F29
:106F1C00107E2712BE8190128AE030E04C7B017A01
:106F2C0012798F12BF5AEF60E6126FF06012901256
:106F3C0090E0640460D990128FE0FF12C256804A30
:106F4C0090128FE064087018A3E060147F0812C2DE
:106F5C00567F2012C2567F0812C25612437D14F07F
:106F6C0090128FE0640D70A7227B017A12798F1238
:106F7C00BF31EF609A126FF0603E901290E06404A3
:106F8C00608D90128FE0FF12C233124507C4F85483
:106F9C000FC868FFE5F0C454F0488FF012085B127C
:106FAC004507FF90128EE0FD3395E045F0FEEF4D66
:106FBC0012439504F0026F1B90128FE06408701856
:106FCC00A3E060147F0812C2337F2012C2337F0803
:106FDC0012C23312437D14F090128FE0640D6003E3
:106FEC00026F1B2290128FE0FF12C09A90128EEF4C
:036FFC00F0F4228C
:107A2F009012911244CF901297F01206FB7F107EA6
:107A3F002712BE81901291E030E04F7B017A1279CC
:107A4F009612BF5AEF60E6127B036012901297E016
:107A5F00640260D9901296E0FF12C256804D9012C8
:107A6F0096E06408701BA3E060177F0812C2567F70
:107A7F002012C2567F0812C25612442A12447E1494
:107A8F00F0901296E0640D70A4227B017A12799621
:107A9F0012BF31EF6097127B03602A901297E06458
:107AAF0002608A901296E0FF12C23312442AC45425
:107ABF00F01206FB12442AFF901295E04F124481F8
:107ACF0004F0027A3C901296E06408701BA3E06009
:107ADF00177F0812C2337F2012C2337F0812C233BE
:107AEF0012442A12447E14F0901296E0640D600343
:107AFF00027A3C22901296E0FF12C09A901295EFF4
:037B0F00F0F4226D
:1049D1009011B61244CF9011BCF0F5F012085BE4CF
:1049E1009011BDF0A3F0A3F0A3F0A3F07F107E27F8
:1049F10012BE819011B6E020E003024ACC7B017A1D
:104A01001179BB12BF5AEF60E39011BBE0FFC39471
:104A110030405BEFD3943950551244895003024A18
:104A2100699011BCE0640470C39011C01244391242
:104A310042E01243EA1242E0120A53C0001243CB91
:104A4100D0001242DD120A5375F0641242D21244B0
:104A5100E31242D61244981242DD120A47E4FEEDF7
:104A61004C70899011BBE0FF12C256024B5090115D
:104A7100BBE064087016A3E060127F0812C2567F83
:104A81002012C2567F0812C2561243A19011BBE0F8
:104A9100640D60030249ED9011C1124439A3124221
:104AA100E31243EA1242E0120A53C0009011C0120D
:104AB10043CED0001242A31244331242DD120A4700
:104AC100E4FFFEED4C600122024BD37B017A1179A8
:104AD100BB12BF31EF70030249ED9011BBE0FFC380
:104AE10094305003024B79EFD394394003024B7950
:104AF100124489500612C233024B509011BCE0643B
:104B01000460030249ED9011C01244391242E012CF
:104B110043EA1242E0120A53C0001243CBD0001202
:104B210042DD120A539011BEE075F0641242D612B2
:104B310044E31242D61244981242DD120A47E4FEBF
:104B4100ED4C60030249ED9011BBE0FF12C23390BE
:104B510011C0E0A3F09011BFE0A3F09011BEE0A35B
:104B6100F09011BDE0A3F09011BAE09011BDF0906A
:104B710011BCE004F00249ED9011BBE0640870162D
:104B8100A3E060127F0812C2337F2012C2337F0874
:104B910012C2331243A19011BBE0640D60030249BC
:104BA100ED9011C1124439A31242E31243EA1242B9
:104BB100E0120A53C0009011C01243CED00012423D
:104BC100A31244331242DD120A47E4FFFEED4C60AA
:104BD10001229011C2120A479011B7120ACCEE8F2E
:074BE100F012085B7F0122C6
:10B78C00A2A9E433FEC2A9EF70059011348022EF18
:10B79C00B401059011368019EFB402059011388070
:10B7AC0010EFB4030590113A8007EFB40408901120
:0EB7BC003CECF0A3EDF0AF06EE24FF92A922C4
:10BC5100EF70059011348019EFB401059011368011
:10BC610010EFB402059011388007EFB4030A901168
:10BC71003AE0FCA3E0FD8003E4FCFDAF05AE042245
:10400700900DD0120AEC120693FF64026004EFB41D
:10401700032012433E900001120823FF901117E07E
:10402700B5F00DA3E0B50708900DDA7401F080072D
:104037008000E4900DDAF012433074011206FB128F
:10404700433E1244BD30E00B124330120693442026
:104057001206FB900DDAE0600B1243301206934410
:10406700401206FB12433E1244BD5430C4540FFFA6
:10407700124330900001EF12070DE92401F9E43AE9
:10408700FAC003C002C001120693FF12433E124456
:10409700BD54C01313543F4FD001D002D0031206B2
:1040A700FB12433E120693FF6027EFB4020A124346
:1040B700301244404408801112433E120693B40361
:1040C7000D124330124440440C1206FB80037FE874
:1040D7002212433E1244C3FF6027EFB4020A124381
:1040E700301244404480801112433E1244C3B4034B
:1040F7000D12433012444044C01206FB80037FE890
:1041070022901131E004FFF0124330900002124474
:10411700667403F012433E1206936402703512422E
:10412700FF124336900003120823FF900DD9E024B5
:104137000212432C124336900003120823E5F0FFC6
:10414700900DD9E0240312432C124462E02404F0BA
:1041570002418E12433E1206936403702A12433EB5
:104167001242FF124462E01244D7FEAF0112433EEF
:10417700E92403F9E43AFCAD017B087A0012A07642
:10418700900DD9E0240AF012433E1244C364027032
:1041970054900DDAE06019901119E0FEA3E0FD12CA
:1041A7004330124351A3124466E02402F00242371F
:1041B700901117E0FEA3E0FD124330124351A3EF25
:1041C70012070D901119A3E012435FA3A3EF120783
:1041D7000D901119E012435FA3A3A3124466E024D4
:1041E70004F002423712433E1244C3640370419005
:1041F7000DDAE0600E1243301244EE1242902408AA
:10420700F0802D901117E0FEA3E0FD12433012431A
:1042170060ED12070DEEFF900DD9E0FEF582758374
:1042270000A3EF12070DEE1244D7124290240AF0B2
:10423700900DD9E01244F9EF1206FB12433E9000AD
:104247000D1206AC1244F9EF1206D91244FA7402A1
:104257001206D9900DD612442DD3947F40037FE5E3
:10426700221243301244EEFEAF0112433E90000E7D
:10427700120AF5AC02AD0112433E90000D1206ACD6
:10428700FB7A0012A0767F0022FEAF017C117D1B16
:0C4297007B087A0012A076900DD9E0227E
:10A55F00E49010CAF0EF04900DD3F0ED04A3F0E4F3
:10A56F00900DD1F0900DD3E0FF900DD1E0C39F502F
:10A57F003EE4A3F0900DD4E0FF900DD2E0C39F50C6
:10A58F0018127F5A900DD0EFF064156004E0B4E11B
:10A59F0008900DD2E004F080DB900DD0E07008A39E
:10A5AF00E09010CAF08008900DD1E004F080B590D3
:05A5BF000DD0E0FF22B9
:10B80700C003C002C0017B017A237901900DD312D6
:10B817000AEC7A0D79CF900DD6120AECD001D0023E
:10B82700D003124007EF7013900DCFE0902300F084
:0CB83700901132E0FFA3E0FD12A55F229B
:020029000022B3
:10BC810090134EEEF0A3EFF0E490110AF0A3F090C0
:10BC9100134EE0FEA3E0FFC390110BE09F90110A49
:10BCA100E09E500B12C81E90110A12447780E022C8
:10C81E00E490110CF090110CE004F0E0B401F6225B
:10C82E00E490110DF090110DE004F0E0B409F62241
:10C83E00E490110EF090110EE004F0E0B430F62208
:10C84E00E490110FF090110FE004F0E0B460F622C6
:10C53300E4901110F0A3F0901110124477901110B1
:0AC54300E07004A3E0646970EE22CA
:10C54D00E4901112F0A3F090111212447790111291
:0AC55D00E07004A3E064D270EE2247
:10C34200E4901114F0A3F0C3901115E09F90111422
:10C35200E09E500B12C54D90111412447780E822D2
:10A49100900D4E120AEC900D51ECF0A3EDF0E4900A
:10A4A1000D54F0A3F0900D51E0FCA3E0FD900D548C
:10A4B100E0FEA3E0FFC39DEE9C503B900D53E0FDF9
:10A4C100600F7C00120741ED4C700612444D128B57
:10A4D100E7900D4E120ACC900D54E0FEA3E0F582F8
:10A4E1008E831242F07A3679537F01128BE7900DF9
:07A4F1005412447780AF22F2
:10794800900D4B12444A128BE77A3679591279FD19
:107958001206931244031242F87A367961127A0BAE
:10796800900001120823FFE5F01242F57A36797685
:10797800127A0B9000031243731242F87A36798513
:107988007F01128BE77A3679981279FDE92405127E
:10799800434412A491900D4B120ACC90000F12434D
:1079A800731242F87A3679AB7F01128BE77BFF7A44
:1079B8003679C1127A17E9241112434412A491901E
